:100000000C94D3030C94F0030C94F0030C94F003C1
:100010000C94F0030C94F0030C94F0030C94F00394
:100020000C94F0030C94F0030C94E41A0C949F19B4
:100030000C945A1C0C94F0030C94F0030C94F003F1
:100040000C94F0030C94F0030C94F0030C94F00364
:100050000C94F0030C94191C0C94F0030C94F00312
:100060000C94F0030C94F0030C94F0030C94F00344
:100070000C94F0030C94F0030C94F0030C94F00334
:100080000C94F0030C94F0030C94F0030C94F00324
:100090000C94F0030C94F0030C94F0030C94F00314
:1000A0000C94F0030C94F0030C94F0031A061A0657
:1000B0004C064C06B6065C085C085C08D206B00725
:1000C000C107C107EC161317AB181317AB185B1752
:1000D0007E17AB186D188018B01EB51EBF1EB31E5C
:1000E000B81EBD1EBB1E6B206E20712074207720B1
:1000F0007A207D20000101010101010101010202BC
:1001000002020202020202030303030303030304C5
:100110000404040404040505050505060606060690
:10012000070707070708080808090909090A0A0A4A
:100130000B0B0B0C0C0C0D0D0D0E0E0E0F0F0F10EC
:100140001011111112121313141415151616171776
:10015000181819191A1A1B1B1C1D1D1E1E1F2020E2
:10016000212222232424252626272829292A2B2C2C
:100170002D2D2E2F30313232333435363738393A4F
:100180003B3C3D3E3F404142434445464748494A47
:100190004C4D4E4F50515354555658595A5B5D5E15
:1001A0005F616264656668696B6C6D6F70727375B0
:1001B00077787A7B7D7E8082838587888A8C8E8F14
:1001C00091939596989A9C9EA0A2A3A5A7A9ABAD42
:1001D000AFB1B3B5B7BABCBEC0C2C4C6C9CBCDCF30
:1001E000D1D4D6D8DBDDDFE2E4E7E9EBEEF0F3F5DE
:1001F000F8FAFDFF29002B003500E100E0000000C7
:100200001E00140004001D00010002511F001A000E
:1002100016001B000100E300200008000700060094
:1002200001002A002100150009001900E200010068
:10023000220017000A0005000000230201002F0021
:1002400000000158000001000100300000002E00F5
:100250000000010023001C000B001100000021021F
:10026000240018000D0010006574010025000C002A
:100270000E00360001002C00260012000F0037008F
:100280000100280027001300330038000100E400BB
:100290002D0031003400E500E40000000000000003
:1002A000000000000000000000000000000000004E
:1002B000000001000000000000000000000001003C
:1002C0003A003B003C003D00000001003E003F00C2
:1002D000400041000000010042004300440045008E
:1002E000000001000000000000000100000001000B
:1002F00000000000000000000000010000000000FD
:100300000000000000000100240021001E00000089
:1003100000000100250022001F000000000027004F
:100320002600230020003700000001002E022D00CF
:10033000250238000000010000000000000000005D
:1003400000000000010001000100010001000000A8
:1003500001000100010001000100010001004F1136
:100360000100010001000100010001000100010085
:100370000100010001000100010001000100010075
:10038000010001000100500100004A0001000100CD
:100390000000010000000100010001000000010058
:1003A00000000100010001005000010000004D00AC
:1003B00001000100510001000100010001000100E5
:1003C0005200010001000100010001004F00010086
:1003D0000100010001000100010001000100010015
:1003E0004600010001000100C35C00000501098016
:1003F000A101850319012AB700150126B70095014F
:1004000075108100C0050C0901A101850419012A9C
:10041000A002150126A002950175108100C00501FA
:100420000906A1018506050719E029E71500250140
:100430009508750181020507190029EF15002501AE
:1004400095F07501810205081901290595057501C9
:100450009102950175039101C005010906A10105ED
:100460000719E029E7150025019508750181029516
:1004700001750881010507190029FF150026FF00F5
:10048000950675088100050819012905950575016E
:100490009102950175039101C009023B0002010020
:1004A000A0FA090400000103010100092111010063
:1004B0000122400007058103080001090401000131
:1004C00003000000092111010001226D00070582CF
:1004D0000320000112010002000000089732764953
:1004E00001000102000120034500720067006F0057
:1004F00044006F007800200045005A0020004700AB
:100500006C006F007700000028035A005300410080
:10051000200054006500630068006E006F006C00EE
:100520006F006700790020004C00610062007300DA
:10053000000004030904004434540074648400552A
:100540004565008575950036264600665676009608
:1005500086A6003727470077678700382848008835
:1005600078980039294900695979009989A9003A90
:100570002A4A006A5A7A003B2B4B006B5B7B004C8B
:100580003C5C007C6C8C005D4D6D008D7D9D003E63
:100590002E4E006E5E7E0144345401746484015515
:1005A00045650185759501362646016656760196A4
:1005B00086A60137274701776787013828480188D1
:1005C00078980139294901695979019989A9013A2C
:1005D0002A4A016A5A7A013B2B4B016B5B7B014C27
:1005E0003C5C017C6C8C015D4D6D018D7D9D013EFF
:1005F0002E4E016E5E7E0000000000000000000034
:1006000000000000000000000000000000000000EA
:1006100000000000000000000000000000000000DA
:1006200000000000000000000000000000000000CA
:1006300000000000000000000000000000000000BA
:1006400000000000000000000000000000000000AA
:10065000000000000000000000000000000000009A
:10066000000000000000000000000000000000008A
:10067000000000000000000000000000000000007A
:10068000000000000000000000ACF0DAACF0DAACD2
:10069000F0DA29FFFF000000ACF0DA00A6EBACF0C6
:1006A000DA29FFFF000000ACF0DAACF0DAACF0DAE7
:1006B00029FFFF00000000000000000029FFFF29C3
:1006C000FFFF00000000000000000000000000A686
:1006D000EB00A6EB00A6EB00000000000000A6EB7C
:1006E00000A6EB00A6EB00000000000000A6EB0057
:1006F000A6EB00A6EB00000000000000A6EB00A6A1
:10070000EB00A6EB0000000000000000000000006D
:1007100000000000000000000000000000000000D9
:1007200000000000000000000000000000000000C9
:1007300000000000B58899B58899B58899B5889961
:1007400000000000000000000000000000000000A9
:100750000000000000000000000000000000000099
:100760000000000000000000000000000000000089
:100770000000000000000000000000000000000079
:100780000000000000000000000000000000000069
:100790000000000000000000000000000000000059
:1007A00000000000000011241FBECFEFDAE0DEBF22
:1007B000CDBF12E0A0E0B1E0E6E3F9E502C00590AC
:1007C0000D92A034B107D9F724E0A0E4B2E001C053
:1007D0001D92A43EB207E1F70E94D4200C94992CFC
:1007E0000C940000AAE0B0E0E8EFF3E00C94642879
:1007F000FC018081918123813481232B31F09F3F43
:1008000031F491E08F3F19F403C091E001C090E012
:1008100090FD8FC47F0185E0DE01169601900D9258
:100820008A95E1F7F70122818E819F81222349F089
:100830000E943025182F682F8E819F810E94AE253F
:1008400003C00E947925182F6E817F81812F0E941D
:10085000CA0E8C01F70182810F3AFDE51F0759F09E
:10086000003B2DE5120709F446C0033C3CE51307A5
:1008700009F07BC062C0882309F483C09091A4046E
:1008800081E0890F8770987F853020F4892B8093D1
:10089000A40402C09093A4048091A4048770EFEF95
:1008A0008E9FC001112495958795959587959927D9
:1008B000909389008093880090938B0080938A00A6
:1008C00090938D0080938C004091A4045091A504D6
:1008D0006091A6047091A7048FE090E00E944029E7
:1008E0006091A0047091A1048091A2049091A3044E
:1008F0000E94961E42C0882309F443C08091A4043C
:1009000083FB222720F991E0922790FB83F98093C3
:10091000A404992329F040E060E080E00E94980A56
:100920004091A4045091A5046091A6047091A7047D
:100930008FE090E00E94402920C0882309F4EAC398
:100940009091FF028091F9029F3F59F41092FF02AB
:1009500081608093F90240E060E080E00E94980AA4
:10096000D9C39FEF9093FF0272C0013BFDE51F07C3
:1009700021F4882309F4CEC39DC0F701828181113F
:100980009FC08091C60282720B3C2CE5120709F4CD
:1009900080C098F5063C9CE5190709F466C0B8F4D8
:1009A000043CFCE51F0709F456C008F059C0033C9D
:1009B0003CE5130709F0F2C09091FA0281E0892723
:1009C0008093FA0210920E018091F90240C0083C17
:1009D0009CE5190709F453C008F44CC0093CFCE538
:1009E0001F0709F451C00A3C2CE5120709F0D6C0D4
:1009F00044E953E261EA73E25AC0003D3CE5130763
:100A000009F45AC098F40D3CECE51E0709F44BC0FC
:100A100008F444C00E3C2CE5120709F44BC00F3C0F
:100A20003CE5130709F0BAC085E047C0073D8CE5F7
:100A3000180738F4023D9CE5190708F06BC381E103
:100A40003CC00F35EDE51E0709F464C3A7C0816003
:100A50008093F9025FC34CED53E266EE73E227C068
:100A600046EE53E26CED73E222C048EC53E262EDD5
:100A700073E21DC042ED53E268EC73E218C04EEA27
:100A800053E26BEB73E213C04BEB53E26EEA73E29B
:100A90000EC041EA53E264E973E209C046EB52E258
:100AA00064EC72E204C044EC52E266EB72E20E9433
:100AB000E41C30C381E001C08CE00E9445142AC3CD
:100AC0000C35FDE51F0709F464C060F401153CE531
:100AD0001307A9F00F3D8CE5180709F05FC00E94CD
:100AE0006C104CC00E359DE5190709F44AC008F496
:100AF00052C0093AFDE51F0709F440C04FC01092EB
:100B0000C6020E9464260FEF14E32CE0015010404F
:100B10002040E1F700C00000F89481E08093E000FD
:100B200080E28093D8001092C9008FE19EE4019783
:100B3000F1F700C000001DBA109268001CBC10BE86
:100B40001FBA10927A0010926E0010926F001092ED
:100B50007100109272001092C9001092BC0014B87B
:100B600017B81AB81DB810BA1092BC0015B818B84A
:100B70001BB81EB811BA0C94003FCCC20E947E1E56
:100B8000C9C28091680482FB882780F991E0892797
:100B900003C081E001C080E00E946711F7018281FB
:100BA00000811181882349F0C8010E943025D82E88
:100BB000682FC8010E94AE2504C0C8010E94792593
:100BC000D82EB8018D2D0E94CA0E0E94E30E8C0112
:100BD000982EF701D280A580A2949FE0A92280914F
:100BE0009A028770B9F0DD20A9F0812F807F8034D0
:100BF00021F080E2800F883068F08091680482FFE5
:100C000009C082E00E944A1180919A028770CC2428
:100C1000C3948111C12CB12EB2948FE0B8228B2DD8
:100C200090E08C30910508F047C2FC01EA5AFF4F72
:100C30000C94652B812F807F1F70882311F01295F3
:100C4000107FDD20B9F0112309F423C280E2800F68
:100C5000883010F0911006C08091C602182B1093B6
:100C6000C60205C08091BB02182B1093BB020E94E4
:100C7000F5100FC2802F0E948926112309F41CC28F
:100C8000005E083078F1992069F110958091BB02DF
:100C900018231093BB0229C0812F807F1F708032E0
:100CA00011F01295107F992021F0F1E09F16D9F1F3
:100CB00047C08091680482FD1BC0DD2069F01123CC
:100CC00039F08091C602182B1093C6020E94F510CD
:100CD00080E00E94B526F0C180E00E9489261123A1
:100CE00009F4EAC1812F0E94EE100E94F510E4C1C0
:100CF000DD2081F08091BC02AA2051F001E0A01219
:100D000007C0182B181709F4D7C11093BC02D4C11F
:100D1000812B10C0AA2021F021E0A21609F4CCC139
:100D20000E94E8101FC0DD2041F031E03A1508F4C0
:100D3000C3C1812F0E947F26BFC1A110BDC112C0B7
:100D4000DD2019F0AA20A9F3A4C1AA2059F0093383
:100D500009F0AFC18FEF97EEE3E081509040E040A3
:100D6000E1F7A5C1812F0E947826A6C1812F869523
:100D70008695837019F0813059F09EC1DD2019F0FD
:100D8000C801937002C080E090E00E94C11C9AC12B
:100D9000DD2019F0C801937002C080E090E00E944D
:100DA000AB1C90C1812F837009F069C0D11088C13C
:100DB000902F929596959770990F990F802F8F701D
:100DC000882E912CA12CB12C092E04C0880C991CC2
:100DD000AA1CBB1C0A94D2F704FF12C04FE050E0DB
:100DE00060E070E004C0440F551F661F771F9A959E
:100DF000D2F7DB01CA0180959095A095B09503C00C
:100E000080E090E0DC0116951695412F437042304A
:100E100019F1C8F40091BD021091BE022091BF02E9
:100E20003091C002413059F088299929AA29BB295B
:100E3000BC01CD0160237123822393230AC0802A41
:100E4000912AA22AB32ABC01CD01682979298A29CD
:100E50009B290E94392634C188299929AA29BB29AE
:100E60000091BD021091BE022091BF023091C002DC
:100E7000BC01CD016027712782279327EACFDD20AF
:100E800019F0812F817001C08695882309F418C15B
:100E9000902F929596959770990F990F802F8F703C
:100EA000882E912CA12CB12C092E04C0880C991CE1
:100EB000AA1CBB1C0A94D2F704FF12C04FE050E0FA
:100EC00060E070E004C0440F551F661F771F9A95BD
:100ED000D2F7DB01CA0180959095A095B09503C02B
:100EE00080E090E0DC0116951695412F437042306A
:100EF000D9F068F50091A0041091A1042091A204FA
:100F00003091A304413059F088299929AA29BB2995
:100F1000BC01CD0160237123822393231EC0802A4C
:100F2000912AA22AB32A13C088299929AA29BB2960
:100F30000091A0041091A1042091A2043091A30477
:100F4000BC01CD01602771278227932706C0BC0111
:100F5000CD01682979298A299B290E94E425B0C0FE
:100F60001F70DD2039F0812F0E941726802F0E94EC
:100F70007F26A6C0802F0E947826812F0E94F1250F
:100F80009FC0802FF2EF9F1609F441C0F91538F089
:100F900020EF921659F031EF9316A1F175C093EF3F
:100FA0009916E1F1E4EF9E1649F16EC0DD2009F1DA
:100FB000A11082C01F7181E090E0A0E0B0E0AC0120
:100FC000BD0104C0440F551F661F771F1A95D2F745
:100FD0008091A0049091A104A091A204B091A304D7
:100FE0008A019B01082719272A273B27C901B80135
:100FF00029C021E02A1508F45FC0DCCF8091680485
:1010000082FD23C0DD2029F0812F8F7130C0DD20CB
:10101000D9F3812F8F710E94F1254EC0DD2079F028
:101020001F7181E090E0A0E0B0E0BC01CD0104C000
:10103000660F771F881F991F1A95D2F703C060E0CB
:1010400070E0CB010E94E42537C0DD2099F01F71CC
:10105000812F0E9417268091680482FF07C038E024
:10106000139FC0011124836080939A02812F0E94F4
:10107000172622C081E00E944A1181E08A15E0F41F
:1010800082E00E944A1118C0DD2029F0AA2009F44C
:10109000BBCF802F1ECEAA2009F4BBCF893349F4E1
:1010A0009FEFE7EEF3E09150E040F040E1F700C041
:1010B0000000802F0E94892688EF8B0D843010F469
:1010C0000E94D71CCC20A9F080919A0280FD11C00B
:1010D000F70112828595859585950E941726C7018F
:1010E0000E94F20380919A028595859585950E94CC
:1010F000F12585E0F701DE01119601900D928A95A8
:10110000E1F709811A81C8010E947925B8010E947E
:10111000CA0E0FC080919A02877059F0F701828140
:10112000882339F08091680482FF03C082E00E9426
:101130004A112A96ECE00C9480280F931F9310E03C
:10114000F801EE0FFF1FE155FE4F9081905797FD7C
:101150009195000F111FF801E055FE4FE081F0E07E
:10116000B097DF01AA0FBB1F8D010E0F1F1F2003B9
:10117000D001219FB00D1124E8E3F0E0E91BF10953
:1011800097FDF3959F01220F331F89010E0F1F1F3B
:1011900040039001419F300D11242A0F3B1F37FF60
:1011A00002C021583F4F220F232F221F330B620F03
:1011B0001F910F9108950F931F93522F10E0F80184
:1011C000EE0FFF1FE055FE4FE081F0E0B097EE0F0D
:1011D000FF1F9F015203D001539FB00D1124000F38
:1011E000111FF801E155FE4F008110E00057110971
:1011F000000F111F40039001419F300D11242A0F51
:101200003B1F37FF02C021583F4F220F232F221FC1
:10121000330B620F1F910F9108950F931F93522F5D
:1012200010E0F801EE0FFF1FE055FE4FE081F0E007
:10123000B0979F015203D001539FB00D1124000FAE
:10124000111FF801E155FE4F008110E00057110910
:1012500040039001419F300D11242A0F3B1F37FF9F
:1012600002C021583F4F220F232F221F330B620F42
:101270001F910F910895EF920F931F9393E0099F91
:1012800080011124159507956E2D600F1F910F9108
:10129000EF900895A22F50E0FA01EE0FFF1FE055E6
:1012A000FE4F9081905297FD9195440F551FFA0182
:1012B000E155FE4F3081232F30E02A1B3109290FE1
:1012C000311D97FD3A95620F0895E42FF0E0EE0F7F
:1012D000FF1FE055FE4F6081621B0895E42FF0E090
:1012E000EE0FFF1FE155FE4F6081621B0895E42F52
:1012F000F0E0EE0FFF1FE155FE4F408134EE439FBB
:10130000412D1124E82FF0E050E0445E5F4FDA01F8
:10131000A21BB1099D01B7FF03C031952195310989
:1013200093E0220F331F9A95E1F7AF01421B530B55
:101330009A0157FF02C020E030E0582F259F212D51
:101340001124822F0895E42FF0E0EE0FFF1FE155E6
:10135000FE4F408134EE439F412D1124E72FF0E0F2
:1013600050E0445E5F4FDA01A21BB1099D01B7FF57
:1013700003C031952195310993E0220F331F9A95CF
:10138000E1F7AF01421B530B9A0157FF02C020E067
:1013900030E0279F212D1124722F0895FC019B011D
:1013A000009721F477FF2BC080E80895AC0197FFE8
:1013B00004C044275527481B590BB901640F751FFA
:1013C00037FD0CC0241B350BC901A5E0880F991F00
:1013D000AA95E1F70E94512B80E20CC0CB0165E099
:1013E000880F991F6A95E1F7BA01621B730B0E947F
:1013F000512B80E6861BF7FF03C08195089580E09E
:101400000895EF920F93CF93DF93D72FC82FC90181
:101410000E19BA010E94CE09602F681B7D2F8C2FF8
:10142000DF91CF910F91EF9008950F93CF93DF93BA
:10143000D72FC82FC901BA010E94CE09682F600FAB
:101440007D2F8C2FDF91CF910F910895EF920F9305
:101450001F93CF93DF93D62FC72F182FC9010E19D3
:10146000010FBA010E94CE09081B202F219F212DB8
:101470001124822F6D2F7C2FDF91CF911F910F911F
:10148000EF900895EF920F931F93CF93DF93D62F92
:10149000172FC82FC9010E19070FBA010E94CE09D4
:1014A000702F781B719F712D11246D2F8C2FDF9160
:1014B000CF911F910F91EF900895FF920F931F937B
:1014C000CF93DF93F62ED72F182FC901C12FC01B42
:1014D000BA010E94CE09982F990F890FC81B2C2F93
:1014E000219F212D1124822F6F2D7D2FCDB7DEB7A7
:1014F000E5E00C948728FF920F931F93CF93DF931F
:10150000F62E172FD82FC901C72FC01BBA010E9472
:10151000CE09982F990F890F7C2F781B719F712D01
:1015200011246F2D8D2FCDB7DEB7E5E00C94872801
:101530000E94861908950E9448190895EAEFF2E082
:1015400081E3808380911F0190912001A09121016E
:1015500081839283A3838CE384838FEF858346E02A
:1015600050E06CE170E0CF010E941E291092F90258
:101570000895482F982F46FD9095E92FEF739F709F
:1015800046FD9F5FE295EF70EE0FF0E0EE5DFE4FDF
:101590002181299F802D212D112482958F702295E4
:1015A000207F822B3081982F930F892F47FD8195C3
:1015B00080580895BC018230910508F40895613E79
:1015C0008EE1780748F49B0195E0369527959A952A
:1015D000E1F748E0420F01C04FEF91E0242F30E0E7
:1015E000290F311D35952795229FF001239FF00D7E
:1015F000F00D11246E177F0718F44FEF420F04C04F
:101600002F3F39F091E0920F491740F78FEF890F84
:1016100008958FEF08950F93CF93DF93D72FC82F9F
:1016200047FD4195E8E3F0E0CF01841B910947FDB8
:101630009395889FB001899F700D700D1124229F92
:10164000C001239F900D900D1124860F971F0E94BB
:10165000DA0A682F660F860F682F600F7D2F8C2F98
:10166000DF91CF910F91089520E030E0869F212DEA
:10167000969F200D311D1124C9010895A0E0B0E00E
:10168000E4E4FBE00C946828F62E472FE82FF0E006
:10169000711106C0EC50FF4F8491782F682F73C0F2
:1016A000272F30E0EC50FF4FE491FE2F0E2F10E07B
:1016B00056E0659FC0011124CFEFD0E0BE010E942B
:1016C0004A285BEA5603C001579F900D11248F0DE5
:1016D000911D8F0D911D982F990F980F7E01E21A81
:1016E000F30AE09ED001E19EB00DF09EB00D1124F2
:1016F0008B2F499FA0011124452F55277E01E41A05
:10170000F50AE09EA001E19E500DF09E500D1124BF
:101710006E01C91AD108C29E7001C39EF00CD29E00
:10172000F00C11242F2D3327C21BD30BC09F900127
:10173000C19F300DD09F300D1124932F6230710561
:1017400091F048F461157105E1F061307105B9F46B
:101750009E2FE52F16C06430710569F040F06630A9
:10176000710579F00CC09E2FEB2F832F0AC0EB2F51
:101770008F2F952F06C09B2F8E2FE32F02C09B2FFC
:10178000852F7E2F692FCDB7DEB7E8E00C94842833
:10179000A0E0B0E0EEECFBE00C946728C82F80914D
:1017A0001E018C130DC02091FA02237030E040918D
:1017B0001D0150E081E02417350719F480E001C0D5
:1017C00081E0817080930D018091FF0290910C0166
:1017D000981739F080930C0140E060E080E00E94AF
:1017E000980ACC3029F48EE699E00E94851539C01C
:1017F000CD3008F097C1C53009F447C008F06FC17B
:10180000C23009F085C080910B01D82FDD0FDD0FAC
:10181000D80FA5E0EA2EED0E20E32E1510F4F0E32C
:10182000EF2E0091FC021091FD02F090FB026F2D53
:10183000702F812F0E943E0BD62EC72EB82E60919E
:10184000FE026F0D702F812F0E943E0B162F072F67
:10185000F82EDE1508F48CC081E03FE23E1508F456
:1018600085C090910B019F5F90930B01811148C23D
:1018700082E080930E0180910D01811141C2C1115E
:101880003FC283E080930E013BC280910B01D82FB1
:10189000DD0FDD0FD80F15E01D0F113308F010E339
:1018A000F090FB020091FC02E090FD026091FE02CC
:1018B0006695669566958091F5029091F6020E9474
:1018C000340B0E94B90A805887FD8195880F282F14
:1018D0003E2D239F212D1124822F6F2D702F0E94CA
:1018E0003E0B062FF72EE82ED11790F5ED2FF0E0E6
:1018F000DF01A15FBD4F8C9190910C01982331F0D5
:101900002E2D402F6F2DCF010E949B0ADF5FECCF61
:10191000C33008F056C0CC2301F1C13009F058C0E3
:1019200080910B01D82FDD0FDD0FD80F15E01D0FB3
:10193000113308F010E36091FB027091FC0280917A
:10194000FD020E943E0B062FF72EE82ED11738F12C
:1019500081E0103308F485CF09C080910D01882300
:1019600029F040E060E080E00E94980A80E079CFB2
:101970008D2F90E0FC01E15FFD4F308120910C0143
:10198000232359F030FF04C02F2D412F602F03C0B7
:101990002B2D4D2D6C2D0E949B0ADF5F5ACFED2F12
:1019A000F0E0DF01A15FBD4F8C9190910C01982375
:1019B00031F02E2D402F6F2DCF010E949B0ADF5F4B
:1019C000C5CF80910B01C33049F0C43009F44AC03F
:1019D00080910B018F5F80930B014ACFD82FDD0FD1
:1019E000DD0FD80FE5E0FE2EFD0E80E38F1510F41D
:1019F00070E3F72ED090FC02C090FD022091FE0211
:101A000060E4E62E3E2D329F312D1124E32EDF15AA
:101A100018F50D2F10E0F801E15FFD4F90818091E6
:101A20000C018923B9F0F801EE0FFF1FE055FE4FBE
:101A3000808182958F706091FB028E9D600D1124D4
:101A40007D2D8C2D0E943E0B462F282F672FC8011D
:101A50000E949B0ADF5FDBCF81E09FE29F1508F0C9
:101A600000CF84CFD82FDD0FDD0FD80F15E01D0F6D
:101A7000113308F010E3D090FC02C090FD022091D9
:101A8000FE0200E4029F012D1124D11708F060CF5F
:101A9000ED2EF12CF701E15FFD4F908180910C015B
:101AA0008923D9F0F701EE0FFF1FE155FE4F60814A
:101AB000069FB001112445E0759567954A95E1F7B9
:101AC0008091FB02680F7D2D8C2D0E943E0B462FCE
:101AD000282F672FC7010E949B0ADF5FD6CFC8302F
:101AE00051F48BE79AE004C0CB30B8F48DE59AE06E
:101AF0000E942F15B6CEC93058F4C63019F483EAC7
:101B000099E073CEC73009F063CF87E799E06DCED7
:101B1000CA3051F782E49AE002C086E29AE00E945D
:101B2000B3149FCEC23119F481E09AE0F8CFC331EB
:101B3000E8F4CF3019F48BE399E0F1CFC03158F4D9
:101B4000CD3019F485E699E050CECE3009F040CF83
:101B50008AE499E04ACEC03119F48BE09BE0C8CF0B
:101B6000C13109F035CF85E19AE0C2CFC53129F402
:101B70008DE998E00E945E1474CEC63158F4C331EA
:101B800019F48DE099E0F6CFC43109F021CF8BED47
:101B900098E0F0CFC73109F040C080910D0181116C
:101BA0001EC06091FE0220E1620F08F46FEF809189
:101BB000F5029091F6020E94340B65E070E00E94FD
:101BC0004A28892B09F0D2CE0E94E12860E370E018
:101BD0000E94512B60910C010E94FE23C7CE809180
:101BE0000B01082F000F000F080FD5E0D00FD133E5
:101BF00008F0D0E310E0ED2EF12C0E151F0544F493
:101C000060910C01C8010E94FE230F5F1F4FF5CFAA
:101C100081E0D03308F425CEA9CEC73108F03CC00E
:101C200080910D0181111EC06091FE0220E1620FC2
:101C300008F46FEF8091F5029091F6020E94340B48
:101C40006AE070E00E944A28892B09F08FCE0E943A
:101C5000E12860E370E00E94512B60910C010E942A
:101C6000222484CE80910B01082F000F000F080F53
:101C7000D5E0D00FD13308F0D0E310E0ED2EF12CF9
:101C80000E151F050CF0C4CF60910C01C8010E9415
:101C900022240F5F1F4FF4CFCF3F09F099CE8091E0
:101CA000F5029091F602A091F702B091F802882710
:101CB0009C70AA27BB272AE0B695A795979587958C
:101CC0002A95D1F782309105A105B10571F08330D5
:101CD0009105A105B10569F040E00197A105B105A5
:101CE00011F060E008C064E102C044E160E080E01F
:101CF00003C044E164E184E10E94980A82E0C2CD1D
:101D0000CDB7DEB7E9E00C94832880E00895909188
:101D1000670492FF0DC0282F2871283019F4877F9F
:101D2000846006C0282F2471243011F48B7F8860D2
:101D300093FF0DC0282F2871283119F4877E846104
:101D400006C0282F2471243111F48B7E88612091E4
:101D5000680420FF0DC0382F3871383019F4877FA0
:101D6000816006C0382F3171313011F48E7F886068
:101D700021FF0DC0282F2871283119F4877E816139
:101D800006C0282F2171213111F48E7E886194FDC7
:101D9000877E08957E30A0F4663090F494E5899FA4
:101DA000F001112486E0789FE00DF11D1124E60F6B
:101DB000F11DEE0FFF1FEC50FE4F85919491089599
:101DC00080E090E00895CF93DF938238910569F128
:101DD000B0F48133910509F46FC048F4893291055C
:101DE00009F465C08A32910509F46BC08AC0853355
:101DF000910509F457C089339105B9F082C0833E3B
:101E0000910571F138F4803E9105B1F0823E910563
:101E100011F177C0863E9105B9F1873E9105C9F170
:101E2000843E910509F06DC024C02091670420FD17
:101E300053C021FD51C065C08091670480FD46C03C
:101E40008091680480FF48C08091670484FD3FC191
:101E500083EE90E03EC18091670482FF3AC0F4CFE8
:101E60008091670482FD35C08091680480FD34C094
:101E7000EBCF8091680481FF35C08091670484FDB9
:101E800026C187EE90E025C18091670483FF27C0BB
:101E9000F4CF8091670483FD22C08091680481FDA6
:101EA00021C0EBCF8091670485FD1FC021C08091C8
:101EB000670485FD1DC019C08091670486FD1BC0A5
:101EC0001DC08091670486FD19C015C089E390E0AC
:101ED00000C182EE90E0FDC080EE90E0FAC086EE98
:101EE00090E0F7C084EE90E0F4C089E290E0F1C0A9
:101EF00085E390E0EEC08AE290E0EBC081E390E001
:101F0000E8C0811532E5930708F069C0811541E505
:101F1000940728F0982F8827816F906ADAC0883E4E
:101F2000910568F5803E910508F0D3C0883A910587
:101F3000B8F4853A910548F0855AE82FF0E0E65D5F
:101F4000FE4F808190E09064C4C08130910509F417
:101F5000BBC008F4BCC08430910508F4B8C0B9C057
:101F60008F3B910508F0B3C0885AE82FF0E0EE0FE0
:101F7000FF1FE35DFE4F808191819464AAC08115AB
:101F800020E59207F0F09C0174E0369527957A954C
:101F9000E1F7922F9370482F437021E030E002C0A8
:101FA000220F331F4A95E2F73C68392B8F70982F28
:101FB0009695969540E2949FC0011124822B932B15
:101FC00088C0811530E4930718F09F70906A81C033
:101FD0009C013A9521153F4108F47BC078C0EC0183
:101FE000C11586E5D807E8F5C11525E5D20748F003
:101FF0008C2F0E94870E8F7190E0982F8827906217
:1020000068C0C11534E5D30728F09C2F8827846F5A
:10201000906A5FC0AE01437055272C2F26952695F8
:10202000C115D34578F481E090E002C0880F991F74
:102030004A95E2F740E2249F90011124822B932BD2
:102040009C6847C081E090E002C0880F991F4A95C4
:10205000E2F740E2249F90011124822B932B9A688F
:1020600038C0C1152AE5D207F8F4C11539E5D30700
:1020700090F08C2F8F700E94870E94E0D695C795B4
:102080009A95E1F7CF70D0E0DC2FCC27D0699E0184
:10209000282BC9011EC0C11548E5D407C0F09C2FEC
:1020A0008827806F906A15C0CE01905681159042A6
:1020B00070F48D2F8F710E94870E282F2F71CE0103
:1020C00099279062922B05C081E090E002C080E0E9
:1020D00090E0DF91CF91089568EE7EEF80E090E090
:1020E0000E944C2960E082E090E00E942E2960E08E
:1020F00083E090E00E942E291092BD021092BE0251
:102100001092BF021092C00260E084E090E00E9452
:102110002E2964E082E290E00E942E2960E085E0B2
:1021200090E00E942E2960E086E090E00E942E2937
:102130006FEF87E090E00E942E2940E050E0BA0166
:1021400088E090E00E94402960E08DE090E00E94ED
:102150002E2940E050E0BA0188E190E00E94402939
:1021600060E087E190E00E942E2940E050E0BA0153
:102170008CE190E00E94402960E070E080E290E015
:102180000E944C2940E050E0BA0188E190E00E94B2
:1021900040291092A4041092A5041092A604109253
:1021A000A70484E08093A4044091A4045091A50462
:1021B0006091A6047091A7048FE090E00E944029EE
:1021C00040E050E0BA0183E190E00E944029089588
:1021D0008091BC0281111092BC020895809590916B
:1021E000C60289238093C60208959091C602809109
:1021F000BB02982B909342028091BC028823D9F0B5
:10220000892B8093420280910A01882331F08091CA
:10221000670487FF02C08EE101C086E0E4E4F2E0DB
:1022200090E0815028F021912223D9F39F5FF9CFCC
:1022300091110E94E81040E250E06BE972E082E404
:1022400092E00E948C2C892B21F180E2E2E4F2E002
:10225000ABE9B2E001900D928A95E1F7E0915E045E
:10226000F0915F043097A9F080910A01882359F01A
:102270008091670487FF07C08091420280934302E8
:1022800086E0809342020280F381E02D82E492E0B6
:102290000995089520919A028095822380939A024D
:1022A000982F977099F430E0482F082E000C550BAA
:1022B0002417350759F09091680492FF07C085955F
:1022C000859585950E94F12510929A020895CF93E5
:1022D000C0916804C2FB992790F9981791F080FB90
:1022E000C2F9C09368046091670484E090E00E94A2
:1022F0002E296C2F82E290E00E942E2982E00E941B
:102300004A11CF910895809199029091680289179E
:1023100019F08F5F8770FBCF08950F931F93CF93B2
:10232000DF938091670282958F7009F05AC0809187
:102330006402882309F455C08091990210916802C3
:102340006091620270916302C0916502D091660251
:1023500091E06F3F09F090E0292F06E0811709F422
:1023600040C0209721F07F3F21F030E003C031E0F2
:1023700001C0322F90E030FD31C0089FF001099F6D
:10238000F00D1124DF01A759BD4F11963C91119713
:10239000371324C03C91361321C012963C911297FA
:1023A00031111CC013964D915C9114974C1B5D0B21
:1023B000483C510598F4809167028F70806180934A
:1023C0006702E259FD4F80818F708061808382E6D1
:1023D00092E00E94F2030E94831103C0019687706D
:1023E000BDCFDF91CF911F910F910895A1E1B0E092
:1023F000ECEFF1E10C9465288C0185E0F801DE0139
:102400001D9601900D928A95E1F7F801E280909176
:10241000620260916302409165025091660241152B
:10242000510531F06F3F31F481E09F3F19F403C053
:1024300081E001C080E0F82FF1709F2E80FD1BC16C
:10244000F80130812181C380D48082E6A82E82E009
:10245000B82EF0906402F601E41BF50BFF2009F49E
:10246000C7C080916702E83CF10508F092C0482F90
:10247000407F09F051C0621311C093130FC0FE2CAE
:10248000E1100CC08F70806180936702C5010E94CB
:10249000F20380916702F80185832AC1C114D10437
:1024A00031F02F3F31F481E03F3F19F403C081E068
:1024B00001C080E080FD03C081E08E2502C080E085
:1024C00090E0F82FF170FF2E80FF1CC080919902E0
:1024D0004091680256E0841709F4E8C090E0589FE4
:1024E000F001599FF00D1124E759FD4F618126132A
:1024F00006C06081631303C06281E61203C00196C7
:102500008770E9CFFE2CEE2009F4F2C080916702BB
:1025100081608093670249C0621306C0931304C0B0
:10252000E11002C0F80186C0C8010E944426882339
:1025300051F1EE2041F120916702822F82958F7038
:1025400090E0029774F08091620290916302988704
:102550008F831986DB86CA862C87CE0107960E9458
:10256000F20386E0F801A2E6B2E001900D928A95AE
:10257000E1F70E948D110AC06217C9F0C8010E94DC
:10258000442681111EC0C8010E94F203FF24F39467
:10259000AFC0482F407F81F782E692E00E94F203AD
:1025A00086E0F50111928A95E9F7F12CA1C0931309
:1025B000E5CFE110E3CFF8018583C8010E94F20363
:1025C00054C0EE2001F320916702822F82958F7014
:1025D00090E0029734F280916202909163029A83B4
:1025E00089831B82DD82CC822E83CE010196B7CFF8
:1025F000E83CF105D0F5FE2CEE2029F2621327C04D
:10260000931325C02091670220FD18C0822F829568
:102610008F70482F50E04115510581F0F801258356
:102620004F30510541F08F5F982F9295907F822F08
:102630008F70892B8583C8010E94F20386E0F80120
:10264000A2E6B2E001900D928A95E1F751C0C8016F
:102650000E944426811185CF80916702816080931A
:102660006702C8010E94F20343C086E0F50111929F
:102670008A95E9F73DC0EE2009F485CFC8010E9494
:102680004426F82E882309F47ECF86E0F801A2E6DE
:10269000B2E001900D928A95E1F7809162029091EB
:1026A00063020E946C250E948D1122C03D872E87F7
:1026B0008D859E850E946C25292F22952F702230B2
:1026C00028F49F7039F0811105C00BC0243028F424
:1026D0009F7049F4805E883020F0C8010E94F203A8
:1026E0009F2CF92C05C0F8019581907F99F7F9CFBF
:1026F0008F2D6196EBE00C948128A0E0B0E0E3E838
:10270000F3E10C94672880911B0190911C01892BA7
:10271000A1F08091C1028F5F8093C10281110DC031
:102720000E94461F90E090931C0180931B01892B0F
:1027300021F40E94BD1F0E946A2400E714E0780182
:10274000B12CC0E087E0C82ECC0E8C2F0E942D202B
:102750008C2D0E942D208C2F0E9490208F73F701CA
:102760009081891721F08083DD24D39401C0D12C7E
:102770008C2D0E9490208F73F7019781891719F093
:10278000878381E001C080E0D82ABD280E94812093
:10279000CF5FFFEFEF1AFF0AC730A1F6C091C50265
:1027A000CC23C9F10E944E1C2091C3023091C40277
:1027B000AC01421B530B9A019093C4028093C30255
:1027C0004F3F510509F020F4452B09F454C002C0D5
:1027D0002FEF30E01092C5021092C202E0916E0419
:1027E000F0916F04AF01425F5F4F90E030E0808175
:1027F000882341F0281718F010829C2F03C0821BF9
:1028000080833C2F3196E417F50789F73093C50292
:102810009093C20230C0BB2031F10E944E1C9093B5
:10282000C4028093C302E0916E04F0916F04809122
:10283000C502AEE7B4E09F01225F3F4F4EE1E801E1
:1028400099918E015C91591731F05081511103C05B
:1028500040839C9381E031961196E217F30779F754
:102860008093C5020CC080E09091C202992339F098
:102870008111D9CFD2CFB110D6CF81E0F5CF8B2D3A
:10288000CDB7DEB7E9E00C9483289091FA029370FB
:10289000A1F0811102C0946007C0883110F09C65DE
:1028A00003C0880F880F982B9093FA0210920E01A4
:1028B0008091F90281608093F9020895A0E0B0E070
:1028C000E4E6F4E10C9465286C0180910B01C82FBB
:1028D000CC0FCC0FC80F15E01C0F113308F010E31C
:1028E0006091FE02669566958091F5029091F602E0
:1028F0000E94340BD82F80E48D0F0E94B90A90E813
:10290000F92EF80E8D2F0E94B90A20E8922E980E0B
:10291000C11700F5AC2EB12CF501E15FFD4F9081A0
:1029200080910C018923A1F06091FB027091FC025F
:102930008091FD02ED2E0C2F292D4F2DF6010995CA
:102940000E943E0B462F282F672FC5010E949B0A2D
:10295000CF5FDECF81E0103308F080E0CDB7DEB787
:10296000EBE00C9481286F927F928F929F92AF92AE
:10297000BF92CF92DF92EF920F931F93CF93DF938B
:102980003C0180910B01C82FCC0FCC0FC80FD5E0B4
:10299000DC0FD13308F0D0E36091FE0266958091A0
:1029A000F5029091F6020E94340B182FCD1708F013
:1029B00044C08C2E912CF401E15FFD4F90818091F9
:1029C0000C018923C1F1F401EE0FFF1FE155FE4F09
:1029D000C080D12C80E7C81AD108F401EE0FFF1F88
:1029E000E055FE4FA080B12CE0E2AE1AB108CC9CBD
:1029F0009001CD9C300D300D1124AA9CC001AB9CE0
:102A0000900D900D1124820F931F0E94DA0A082F57
:102A10006091FB027091FC028091FD02E12E950114
:102A2000A601F30109950E943E0B462F282F672F20
:102A3000C4010E949B0ACF5FB9CF81E0D03308F078
:102A400080E0DF91CF911F910F91EF90DF90CF90B9
:102A5000BF90AF909F908F907F906F900895A0E06F
:102A6000B0E0E5E3F5E10C9468286C0180910B017E
:102A7000C82FCC0FCC0FC80FD5E0DC0FD13308F036
:102A8000D0E36091FE0266958091F5029091F60286
:102A90000E94340B182FCD1778F5EC2EF12CF7018E
:102AA000E15FFD4F908180910C01892319F1F701BD
:102AB000EE0FFF1FE055FE4F208130E0205231091C
:102AC000F701EE0FFF1FE155FE4F408150E04057E8
:102AD00051096091FB027091FC028091FD02012F6F
:102AE000F60109950E943E0B462F282F672FC7013C
:102AF0000E949B0ACF5FCFCF81E0D03308F080E007
:102B0000CDB7DEB7E8E00C948428A0E0B0E0EBE8B5
:102B1000F5E10C9469288C0180910B01C82FCC0F32
:102B2000CC0FC80FD5E0DC0FD13308F0D0E36091B3
:102B3000FE026695669521E0620F08F46FEF8091C2
:102B4000F5029091F6020E94340BD82ECD17F0F4C6
:102B5000EC2EF12CF701E15FFD4F908180910C018B
:102B6000892391F06091FB027091FC028091FD023B
:102B70002D2D4C2FF80109950E943E0B462F282F32
:102B8000672FC7010E949B0ACF5FE0CF81E0D0335F
:102B900008F080E0CDB7DEB7E7E00C94852890918F
:102BA000FA02937059F08093FB026093FC02409309
:102BB000FD028091F90281608093F9020895EF92FD
:102BC000FF920F931F93CF93DF937C018B010E94A1
:102BD000021A811119C0E70101151105A1F08091B8
:102BE000E80085FD0AC08091E8008E778093E800B8
:102BF0000E94021A882381F307C089918093F10013
:102C000001501109E9CF80E0CDB7DEB7E6E00C94C2
:102C10008628AAE2B0E0EFE0F6E10C946D28EDEE34
:102C2000F2E085EF92E02091F10021938E179F074B
:102C3000D1F78091EE02833009F461C030F4813025
:102C400071F0823009F49DC0B4C08A3009F489C0A3
:102C50008B3009F46CC0893009F0ABC020C0809182
:102C6000ED02813A09F0A5C08091E800877F80934A
:102C7000E8008091F1029091F202892B21F460E248
:102C800089EC92E003C060E080E090E070E00E9498
:102C9000BB1B8091E8008B778093E8008AC080910D
:102CA000ED02813209F085C08091F1029091F2022B
:102CB000029708F07EC08091E800877F8093E8004B
:102CC0008091E80082FD05C08091EB028111F8CF70
:102CD00070C02091F3008091F20090E0922B029757
:102CE00031F48091F100813011F0863021F480912F
:102CF000F1008093C8028091E8008B7756C08091E4
:102D0000ED02813A09F055C08091F1029091F202F2
:102D1000892B09F04EC08091E800877F8093E800FE
:102D20008091E80080FFFCCF80910A0139C080913A
:102D3000ED028132F1F58091F1029091F202892B3E
:102D4000C1F58091E800877F8093E8000E94351AE2
:102D50008091EF0280930A011092C6020E946426BD
:102D600028C08091ED02813221F58091E800877FB3
:102D70008093E8000E94351A8091F0028093C70288
:102D800018C08091ED02813AA1F48091E800877F1C
:102D90008093E8008091E80080FFFCCF8091C7021B
:102DA0008093F1008091E8008E778093E8000E9484
:102DB000351A8091E80083FFCEC18091ED02909199
:102DC000EE02492F50E04A30510508F0C4C1FA0123
:102DD000EE59FF4F0C94652B803821F0823809F0B2
:102DE000BAC108C08091E9029091EA02992389F062
:102DF00082600FC08091F1028F70873008F0ABC104
:102E00008093E9008091EB0085FB882780F9109280
:102E1000E9009091E800977F9093E8008093F1009B
:102E20001092F10065C1282F2D7F09F094C18823ED
:102E300019F0823061F08FC18091EF02813009F08A
:102E40008AC1933009F080E08093EA022EC080911D
:102E5000EF0281112AC08091F1028F702FEF280FAD
:102E6000263008F078C18093E9002091EB0020FF24
:102E70001CC0933021F48091EB00806214C09091CB
:102E8000EB0090619093EB0021E030E0A90102C0DB
:102E9000440F551F8A95E2F74093EA001092EA002A
:102EA0008091EB0088608093EB001092E9008091A4
:102EB000E800877F20C181114EC11091EF021F777A
:102EC0008091E3008078812B8093E3008091E8007B
:102ED000877F8093E8000E94351A8091E80080FF88
:102EE000FCCF8091E30080688093E300111102C061
:102EF00082E001C083E08093EB022DC180588230D4
:102F000008F029C18091EF029091F0028C3D53E0CE
:102F1000950779F583E08A838AE289834FB7F8942D
:102F2000DE01139620E03EE051E2E32FF0E0509303
:102F30005700E49120FF03C0E295EF703F5FEF7010
:102F40008E2F90E0EA3010F0C79601C0C0968D93A6
:102F50009D932F5F243149F74FBF8091E800877F11
:102F60008093E8006AE270E0CE0101960E94BB1BEC
:102F7000AEC04091F1025091F202292F3327233045
:102F80003105A9F068F42130310509F4F3C022308D
:102F9000310509F0E0C08BE390E0E9E9F4E044C0DA
:102FA0002132310521F12232310571F1D4C0992746
:102FB00081309105A1F058F0029709F0CCC0E6EEFF
:102FC000F4E0E4918E2F90E0E6EEF4E02AC0E2E334
:102FD000F5E0E4918E2F90E0E2E3F5E022C0E8E036
:102FE000F5E0E4918E2F90E0E8E0F5E01AC041159D
:102FF000510509F4C4C04130510509F0ACC089E065
:1030000090E0E4ECF4E010C04115510509F4BCC0B7
:103010004130510509F09FC08DE690E0ECEEF3E001
:1030200003C0009709F497C02091E800277F209300
:10303000E8002091F3023091F4028217930708F41C
:103040009C0140E02115310589F18091EB02882334
:1030500009F43DC08530D9F18091E80083FD37C087
:103060008091E80082FD2FC08091E80080FFEACFC8
:103070004091F3008091F20090E0942B21153105EE
:1030800059F08830910540F444914093F100319615
:10309000215031090196F2CF41E0089709F040E054
:1030A0008091E8008E778093E800CCCF4111CDCF9E
:1030B0000AC08091EB02882351F0853041F0809165
:1030C000E80083FD04C08091E80082FFF2CF809188
:1030D000E8008B778093E8003EC08038E1F580916E
:1030E000E800877F8093E8008091EC028093F100F4
:1030F0008091E8008E778093E8000E94351A2BC0FB
:10310000811129C08091EF029091F00299270297D6
:1031100014F58091E800877F8093E8001091EF021A
:103120001093EC020E94351A111106C08091E30041
:1031300087FD02C081E001C084E08093EB0242E0A1
:1031400061EC81E00E94541A42E261EC82E00E944C
:10315000541A8091EB028091E80083FF1AC080919D
:10316000E800877F8093E8008091EB008062809385
:10317000EB000FC082E190E0E4EDF4E055CF89E090
:1031800090E0EBEAF4E050CF80E490E0E9E5F4E091
:103190004BCFAA96E3E00C94892808950895809176
:1031A000C80208958093690470936B0460936A0465
:1031B0008091EB02843001F582E08093E9008FEF8B
:1031C0009091E800815095FD06C095ED9A95F1F734
:1031D00000008111F5CF8091E80085FF0DC040E02F
:1031E00050E063E070E089E694E00E94DF15809192
:1031F000E8008E778093E8000895BC0184E00E9487
:10320000D2180895BC0183E00E94D2180895CF938C
:10321000DF9320910A01222339F02091670427FFD0
:1032200003C060E222E002C068E021E02093E900F0
:103230002FEF3091E800215035FD06C035ED3A956D
:10324000F1F700002111F5CF2091E80025FF1DC006
:10325000EC0180910A01811105C040E050E068E076
:1032600070E003C070E040E050E0CE010E94DF1546
:103270008091E8008E778093E80080E2FE01A9EC5F
:10328000B2E001900D928A95E1F7DF91CF91089518
:10329000A4E0B0E0EEE4F9E10C946B2880339105F2
:1032A00088F5122F042FF62EBC01660F771F660FCC
:1032B000771F6A5C7A4F44E050E0CE0101960E948D
:1032C000F128898183704A81282F30E050E9859F59
:1032D000C00111248A5E9C4FFC01E40FF11DB497DC
:1032E000F0824B81FC01E40FF11DB49700834C8107
:1032F000840F911DFC01B4971083F901EC5EFC4F23
:1033000081E080832496E5E00C948728FF920F9358
:103310001F93CF93DF93182F062FF42EC0E0D0E039
:103320002F2D402F612FCE010E9448192196C033C6
:10333000D105B1F7CDB7DEB7E5E00C9487281F9231
:103340000F920FB60F9211242F933F934F935F93D9
:103350006F937F938F939F93AF93BF93CF93DF939D
:10336000EF93FF93C091E900CF708091EC00D82FCC
:10337000D17080FDD0E81092E9008091F000877F45
:103380008093F00078940E9409161092E9008091D1
:10339000F00088608093F000CD2BCF70C093E900DF
:1033A000FF91EF91DF91CF91BF91AF919F918F915D
:1033B0007F916F915F914F913F912F910F900FBE31
:1033C0000F901F901895E8EDF0E080818E7F80834C
:1033D0001092E2001092DA001092E100A0EEB0E04C
:1033E0008C9181608C9380818F77808319BCA7ED4D
:1033F000B0E08C918E7F8C9380818F7E8083109241
:103400006C0408952091E4003091E50095E6409128
:10341000EC00842F817040FF23C08091E80080FD84
:103420001DC08091EB02882399F0853099F080913E
:10343000EB0085FD11C04091E4005091E500241798
:10344000350729F3915011F09A01E1CF84E00895F6
:1034500082E0089583E0089581E0089580E0089572
:103460004091E80042FFDDCF08958091ED0287FF93
:1034700011C08091E80082FD05C08091EB028111AE
:10348000F8CF11C08091E8008B770BC08091EB02E0
:10349000882349F08091E80080FFF8CF8091E80010
:1034A0008E778093E8000895982F973068F5909371
:1034B000E900981739F07091EC002091ED005091DF
:1034C000F00003C0242F762F50E021FD02C09F5F43
:1034D000ECCF3091EB003E7F3093EB003091ED006C
:1034E0003D7F3093ED003091EB0031603093EB0085
:1034F0007093EC002093ED005093F0002091EE00CB
:1035000027FDE5CF80E008958F708093E90081E08A
:103510000895A0E0B0E0EFE8FAE10C946828C8ED67
:10352000D0E088818F7E8883E7EDF0E08081816044
:10353000808384E082BF81E080936C0488818E7FE9
:10354000888302EE10E0F80110821092DA0081EE1A
:10355000C82ED12CF601108288818F7788838881CC
:103560008068888388818F7D888319BC1092EB02E4
:103570001092EC021092EA021092E90290EEE92E0B
:10358000F12CF70180818B7F808388818160888323
:1035900042E060E080E00E94541AF60180818E7F54
:1035A0008083F8018081816080838081886080834E
:1035B000F70180818E7F8083888180618883CDB789
:1035C000DEB7E8E00C9484281F920F920FB60F929A
:1035D00011242F933F934F935F936F937F938F9318
:1035E0009F93AF93BF93EF93FF938091E10082FF8E
:1035F00009C08091E20082FF05C08091E1008B7FCD
:103600008093E1008091DA0080FF2AC08091D80089
:1036100080FF26C08091DA008E7F8093DA0080914F
:10362000D90080FF18C080E189BD82E189BD09B45D
:1036300000FEFDCF81E08093EB0280916C0481114C
:103640000FC00E94E3190E94891A8091E2008460F1
:103650008093E20005C019BC1092EB0210926C043A
:103660008091E10080FF17C08091E20080FF13C0CD
:103670008091E2008E7F8093E2008091E200806181
:103680008093E2008091D80080628093D80019BCBA
:1036900085E08093EB028091E10084FF30C080914F
:1036A000E20084FF2CC080E189BD82E189BD09B4BC
:1036B00000FEFDCF8091D8008F7D8093D80080914F
:1036C000E1008F7E8093E1008091E2008F7E809305
:1036D000E2008091E20081608093E2008091EC0240
:1036E000882311F084E007C08091E30087FD02C0C9
:1036F00081E001C083E08093EB028091EB02809136
:10370000E10083FF27C08091E20083FF23C0809106
:10371000E100877F8093E10082E08093EB021092CA
:10372000EC028091E1008E7F8093E1008091E200C5
:103730008E7F8093E2008091E20080618093E200BE
:1037400042E060E080E00E94541A8091F0008860BE
:103750008093F000FF91EF91BF91AF919F918F9176
:103760007F916F915F914F913F912F910F900FBE7D
:103770000F901F9018952091F3023091F4022617B4
:10378000370748F06115710539F42091E8002E776C
:103790002093E80001C0B901FC0120E0611571052A
:1037A00079F18091EB028823F1F18530F1F180917C
:1037B000E80083FD3CC08091E80082FD2EC080912E
:1037C000E80080FFEBCF2091F3008091F20090E0C1
:1037D000922B6115710551F08830910538F42191D3
:1037E0002093F100615071090196F3CF21E0089711
:1037F00009F020E08091E8008E778093E800CECF3A
:103800002111CFCF0AC08091EB02882361F085306F
:1038100061F08091E80083FD0AC08091E80082FF9A
:10382000F2CF80E0089582E0089583E0089581E07A
:10383000089578941F920F920FB60F9211248F93D0
:103840009F93AF93BF938091630490916404A09180
:103850006504B09166040196A11DB11D80936304B7
:1038600090936404A0936504B0936604BF91AF91F4
:103870009F918F910F900FBE0F901F9018959C01F4
:103880004FB7F8948091630490916404A09165040B
:10389000B09166044FBF821B930B08952FB7F89425
:1038A0008091630490916404A0916504B0916604D2
:1038B0002FBF08951F920F920FB60F9211248F936E
:1038C0009F93AF93BF9380916204811113C0809145
:1038D000630490916404A0916504B09166044196DC
:1038E000A11DB11D8093630490936404A0936504AB
:1038F000B0936604BF91AF919F918F910F900FBECF
:103900000F901F90189520910A012223C9F0209151
:10391000670427FF15C0262F2695269526952E315C
:10392000C8F4FC01E20FF11D677081E090E001C076
:10393000880F6A95EAF7809592818923828308959A
:10394000FC0106962281621301C012823196E817AB
:10395000F907C1F708952091600430916104281798
:10396000390771F09093610480936004E0915E04E4
:10397000F0915F04309721F00084F185E02D0995E6
:10398000089520915C0430915D042817390771F087
:1039900090935D0480935C04E0915E04F0915F0479
:1039A000309721F00680F781E02D09950895E09188
:1039B0005E04F0915F04309729F00190F081E02DD2
:1039C0000995089580E00895882311F0FA0101C057
:1039D000FB0109950895A0E0B0E0E1EFFCE10C9453
:1039E0006928262F30E0A901465A5B4F7A01FA0177
:1039F0009081911107C0F7011082CDB7DEB7E7E0E3
:103A00000C948528D82EF2E16F9FE001112400E08C
:103A100010E0F801EC0FFD1FEA5CFB4F4081602FC6
:103A20008D2D0E94F1230F5F1F4F0231110589F781
:103A3000E2CFCF93DF93C82F4BE06DEF0E94F123CD
:103A400040E06AE08C2F0E94F1238FE39CE901970C
:103A5000F1F700C0000040E060E08C2F0E94F123ED
:103A600040E061E08C2F0E94F12340E066E08C2F63
:103A70000E94F12340E06DEF8C2F0E94F123D0E0F3
:103A800040E06D2F8C2F0E94F123DF5FD231C1F710
:103A900040E06D2F8C2F0E94F123DF5FD432C1F7FD
:103AA00040E06D2F8C2F0E94F123DF5FD43BC1F7E4
:103AB0004BE06DEF8C2F0E94F12341E06AE08C2FE8
:103AC0000E94F12340E06DEF8C2F0E94F123DF91E3
:103AD000CF9108950F931F93CF93DF93082F000F7B
:103AE000EB0114E210930003E1E0F3E0DE018D91BD
:103AF000819383E0E131F807D1F724E630E041E13A
:103B000050E060E073E0802F0E942528105F6096EF
:103B1000143B41F7DF91CF911F910F910895A7E1D9
:103B2000B0E0E5E9FDE10C946D284B8B5C8B6D8B6F
:103B30007E8B8F8B61111092BB0286E09E01235F0A
:103B40003F4FD901E82F1D92EA95E9F795E0FE0174
:103B50007396D90101900D929A95E1F79C894E894F
:103B60005F897B897D879E876F87598B488BF90199
:103B7000DE01179601900D928A95E1F7CE01079626
:103B80000E94F61181113EC086E0FE013796DE01EB
:103B9000119601900D928A95E1F7FF81E8856A857B
:103BA0007B856115710531F0EF3F31F481E0FF3F16
:103BB00019F403C081E001C080E080FD23C02091A2
:103BC000680230E0C90101968770992740919902F7
:103BD00050E08417950779F1F983EA837D836C833C
:103BE00096E0929FD001939FB00D1124A759BD4F2D
:103BF000FE01319601900D929A95E1F7809368024B
:103C00000E94831116E080919902909168028917B1
:103C100009F1189FC001112487599D4F0E94F61188
:103C20008823C1F08091990290E0019687709927CE
:103C300080939902E8CF1092C6020E9464261092E7
:103C4000680210929902E2E6F2E086E0DF011D923E
:103C50008A95E9F76796E3E00C948928CF92DF9282
:103C6000EF92FF926C01EE24FF24C114D104E10411
:103C7000F10421F0C701B60120E101C020E0C72E08
:103C8000D82EE92EFF24C114D104E104F10419F067
:103C9000285FC701B6016B017C0154E0F694E794FC
:103CA000D794C7945A95D1F7C114D104E104F10413
:103CB00019F02C5FC701B6016B017C0142E0F6945C
:103CC000E794D794C7944A95D1F7C114D104E1047D
:103CD000F10419F02E5FC701B601DC01CB01B695E6
:103CE000A79597958795892B8A2B8B2B09F02F5FAA
:103CF000822FFF90EF90DF90CF9008951092C60230
:103D00000E9464262FEF84E39CE021508040904085
:103D1000E1F700C000009AE088E10FB6F894A8959A
:103D2000809360000FBE90936000FFCFCF92DF9230
:103D3000EF92FF926B017C010E942E1E56985E98B6
:103D400025982D9826982E9827982F9890E0FC017A
:103D50003197E730F105A8F4E459FF4F0C94652B37
:103D6000259A2D9A0EC0259A2D9A269A2E9A09C028
:103D7000259A2D9A04C0259A2D9A269A2E9A279A2A
:103D80002F9AC701B601FF90EF90DF90CF90089572
:103D9000A0E0B0E0EEECFEE10C945F2820E9289F63
:103DA0007001299FF00C1124C0E0D0E000E010E089
:103DB00067018FEFC81AD80A570182E0A80EB11C1C
:103DC000F701EC0FFD1FEA50FA4F6491F601EC0F7A
:103DD000FD1FEA50FA4F7491F501EC0FFD1FEA50F8
:103DE000FA4F8491611107C0711105C0811103C0A0
:103DF00020E040E03CC00E943E0B962E372E882EDD
:103E00006091FD0270E080E090E00E94562A20E080
:103E100030E04FE753E40E94B5292B013C01682DA7
:103E200070E080E090E00E94582AA30192010E9475
:103E3000E42A0E94272A862E692D70E080E090E017
:103E40000E94582AA30192010E94E42A0E94272A74
:103E5000962E632D70E080E090E00E94582AA30126
:103E600092010E94E42A0E94272A282D492DC80188
:103E70000E949B0A0F5F1F4F2396C039D10509F09E
:103E80009FCFCDB7DEB7E1E10C947B2880E290E0D4
:103E900090931C0180931B0180916D0481110EC0D1
:103EA0000E94552781E080936D042FEF83ED90E30E
:103EB000215080409040E1F700C0000064E670E0CF
:103EC00080E40E945B2790931C0180931B01892B47
:103ED00009F04EC064E670E080E00E94D027909325
:103EE0001C0180931B01892B09F042C064E670E03D
:103EF00080E00E94D02790931C0180931B01892BA6
:103F0000B9F564E670E08FE30E94D02790931C011E
:103F100080931B01892B61F50E94462864E670E0BE
:103F200080E40E945B2790931C0180931B01892BE6
:103F3000F9F464E670E08CE00E94D02790931C01B5
:103F400080931B01892BA1F464E670E080E00E945D
:103F5000D02790931C0180931B01892B49F464E6C0
:103F600070E08FE30E94D02790931C0180931B0187
:103F70000E94462880911B010895CF93DF935698A5
:103F80005E9825982D9826982E9827982F98C8E8FF
:103F9000D0E08FEF90E099838883AAE8B0E0119693
:103FA0009C938E93ECE8F0E091838083259A2D9A80
:103FB0002FEF80E792E0215080409040E1F700C071
:103FC0000000269A2E9A2FEF80E792E02150804041
:103FD0009040E1F700C00000279A2F9A2FEF80E76A
:103FE00092E0215080409040E1F700C00000259809
:103FF0002D982FEF80E792E0215080409040E1F72C
:1040000000C0000026982E982FEF80E792E0215004
:1040100080409040E1F700C0000027982F988091E1
:10402000A40487702FEF829FC00111249595879576
:104030009595879599279983888311969C938E935C
:104040009183808356985E9825982D9826982E986F
:1040500027982F98DF91CF910895CF93E82F87303D
:1040600080F580911B0190911C01892B09F047C0BC
:10407000CE2F64E670E080E40E945B2790931C01E1
:1040800080931B01892BD1F464E670E082E10E94E9
:10409000D02790931C0180931B01892B79F481E038
:1040A00090E001C0880FCA95EAF764E670E0809559
:1040B0000E94D02790931C0180931B010E944628E8
:1040C0001EC090E0FC013797E730F105C0F4ED58D1
:1040D000FF4F0C94652B209A289811C0219A29989B
:1040E0000EC0229A2A980BC0239A2B9808C0529A85
:1040F0005A9805C0539A5B9802C03E9A4698CF9151
:104100000895209828982198299822982A982398E9
:104110002B9852985A9853985B983E9846980895D1
:10412000CF93873040F580911B0190911C01892B22
:1041300059F564E670E081E40E945B2790931C01CE
:1041400080931B01892B11F0C0E011C084E690E040
:104150000E94002897FF05C090931C0180931B01CB
:10416000F3CFC82FC09510921C0110921B010E9422
:1041700046288C2F0AC09FB18FB1807F8695869587
:104180009370892B809501C080E0CF91089580982D
:10419000889A8198899A84988C9A85988D9A86981D
:1041A0008E9A87988F9A0895AAE0B0E0EAEDF0E23F
:1041B0000C94672885B7806885BF85B7806885BF00
:1041C00084B7877F84BF0FB6F894A895809160006C
:1041D000886180936000109260000FBE90E080E8DC
:1041E0000FB6F89480936100909361000FBE85E84C
:1041F0009EE090934102809340020E94E3190E9446
:10420000891A8091E20084608093E2007894809122
:10421000EB028823A1F01091E9001F709091EC004F
:10422000892F817090FD80E8182B1092E900809111
:10423000E80083FD0E9409161F701093E90082E0D8
:1042400084BD93E095BD9AEF97BD80936E000E9468
:10425000461F90E090931C0180931B010E948120D7
:104260000E94C720E0E7F4E0AEE7B4E011921D92AF
:1042700024E0EE37F207D1F78EE090E00E946B2B3E
:1042800080936E0490936F04FC010E961192E817D0
:10429000F907E1F789EA8093800089E08093810043
:1042A00024982C983F988AB18F7C8AB96E98479A47
:1042B0008BB180638BB9769A8FE090E00E941229CF
:1042C0006093A4047093A5048093A6049093A7041C
:1042D00067708FEF689FB00111247595679575958C
:1042E00067957727709389006093880070938B009F
:1042F00060938A0070938D0060938C000E94BD1FB4
:1043000080E090E00E941829883E9E4F11F00E94A4
:104310006C1082E090E00E940A2980938C0484E073
:1043200090E00E940A29182F82E290E00E940A2958
:10433000212F30E0382B309368042093670483E00A
:1043400090E00E940A29682F70E080E090E00E94CF
:1043500039266091A0047091A1048091A2049091EB
:10436000A3040E94961E0E946A240E945D240E945B
:104370005D248091F90281608093F9028FE091E0E1
:1043800090935F0480935E0498E1C92ED12C20E4C1
:10439000E22EBB24B3948091EB02853009F06FC00C
:1043A00083E0F82E00E112E18091EB02853009F004
:1043B0005EC08091EB02843009F436C00E948824EC
:1043C0008091A80481110DC00E94C80B10921E019B
:1043D0008091FA02837080931D010E94D222F09294
:1043E0000E01B092A804109262040FB6F894A8953A
:1043F000C09260000FBEE092600083B7817F84604E
:1044000083BF83B7816083BF7894889583B78E7F9D
:1044100083BF0FB6F894A89580916000886180935F
:104420006000109260000FBE8091EA02882309F4B8
:10443000BBCF0E94461F90E090931C0180931B010C
:104440000E9481200E94C720EEE7F4E0119284E0F0
:10445000EC38F807D9F70E947D13EEE7F4E081917C
:1044600081116CC024E0EC38F207C9F79DCF10929F
:10447000C6020E9464260E94D71C1092A8040E94C3
:104480007D13882359F08FB7F894409163045091BD
:10449000640460916504709166048FBFEDE8F4E0F8
:1044A000AEE7B4E000E010E0302F2D91919192271B
:1044B00021F180E0FF24F394492F4F21D1F089832B
:1044C0003A832F2181E009F480E08B830E944E1C07
:1044D0008160782F9D838C8349815A816B818D8186
:1044E0000E948F1DF801E357FB4F8081F826F08270
:1044F00019C08F5FFF0C8630F9F60F5F1F4F0E302B
:10450000110591F68FEF8E838F8318860E944E1CC3
:104510008160782F9A8789874E815F8168858A8537
:104520000E948F1D0E9488240E94D71C90919B049A
:10453000891709F430CF80939B042DCF09BD19BD95
:1045400009B400FEFDCF8091D8008F7D8093D80004
:104550008091E00082608093E0008091E00081FD26
:10456000FCCF1092C6020E9464261ECFEAEFF2E052
:10457000248130E1231B08F420E024838091F90298
:1045800081608093F9020895EAEFF2E0248130E13E
:10459000230F08F42FEF24838091F9028160809328
:1045A000F902089580911403882329F066E173E0ED
:1045B00084E70E946A1D10921403809115038823DA
:1045C00029F066EA73E087E70E946A1D10921503DE
:1045D0000895A4E0B0E0EFEEF2E20C9462280E94AD
:1045E000552784E70E94191D87E70E94191D06E3DD
:1045F00015E072E1772EE8E0CE2ED12CEE24E39484
:10460000F12C6624639444E050E0B801CE01019699
:104610000E94F1282A8130E0C9018497AB80B12C37
:1046200044E2A41AB108EC81F0E0B497AC0197FF22
:1046300002C0495F5F4F63E0559547956A95E1F782
:104640002981237030E0729EB001739E700D112499
:104650006A5C7B4F4B01840E911CB6010E94512B6A
:10466000D70102C0AA0FBB1F8A95E2F7CD01D40182
:104670009C91892B8C93C501B7FC079653E09595C7
:1046800087955A95E1F7729EA001739E500D1124F3
:104690004A5C5B4F4A01880E911CC501B6010E941D
:1046A000512BA70102C0440F551F8A95E2F7CA019A
:1046B000D4019C91892B8C93CF01F7FD079643E0A1
:1046C000959587954A95E1F7729EA001739E500DCE
:1046D00011244A5C5B4F5A01A80EB11CCF01B601F0
:1046E0000E94512BF70102C0EE0FFF1F8A95E2F7DF
:1046F000CF01D5019C91892B8C93F901E65AFB4F90
:1047000060820C5F1F4FB5E0063F1B0709F07BCFAF
:1047100060E084E70E94EB1C61E087E70E94EB1CED
:104720002496EEE00C947E28EAEFF2E0438121E14A
:10473000421B08F440E08181628190E00E94CF1525
:104740000895EAEFF2E0438121E1420F08F44FEFD0
:104750008181628190E00E94CF150895EAEFF2E036
:10476000628120E1621B08F460E08181438190E076
:104770000E94CF150895EAEFF2E0628120E1620F16
:1047800008F46FEF8181438190E00E94CF15089576
:10479000EAEFF2E0818190E04381628108970E9414
:1047A000CF150895EAEFF2E0818190E043816281C4
:1047B00008960E94CF1508958091FA0286958695F5
:1047C000815009F487E10E94451408958091FA020E
:1047D000869586958F5F883108F081E00E944514A8
:1047E0000895E0E0F3E06083418324E630E042E0B6
:1047F00050E0BF01880F0E94252808951F93CF9392
:10480000DF93FC01E15FFD4F20816223B9F0EC01F1
:104810000E94E128182F0E94E1288F77782F20E846
:10482000720F08F47FEF612F8091FD020E943E0B12
:10483000462F282F672FCE010E949B0ADF91CF9130
:104840001F910895A0E0B0E0E8E2F4E20C9469283A
:10485000EC01FC01E15FFD4F9081692349F1D090AB
:10486000FC020091FD021091FB02E12EF12C0E944E
:10487000E128282FC7018C549F4F68E671E00E9401
:10488000512B8E199F0997FD0396959587959595C0
:1048900087952370612F289F600D11247D2D802F17
:1048A0000E943E0B462F282F672FCE010E949B0AA5
:1048B000CDB7DEB7E7E00C9485288091FA028370CB
:1048C00011F410920E018091FA028C7F8160809326
:1048D000FA0208950E94E92280E090E00E941829DF
:1048E000883E9E4F21F00E946C100E949E0A46E076
:1048F00050E06CE170E08AEF92E00E94FA2810929A
:10490000F9028091FA028C7F11F40E949E0A0895A8
:10491000CF938FB7F89440916304509164046091F1
:104920006504709166048FBF40939C0450939D046E
:1049300060939E0470939F048091A804811108C025
:10494000C091FA028C2F837019F0C695C69501C0EC
:10495000C0E080910E01813099F030F08230C9F1D1
:10496000833009F443C06DC010920B014093F502EF
:104970005093F6026093F7027093F80281E033C01F
:104980008C2F0E94C80BCC2309F45BC08091A40437
:1049900083FD57C06091A0047091A1048091A2048E
:1049A0009091A3040E942E1E813029F0823041F4A0
:1049B00082E090E002C081E090E00E94C81E41C009
:1049C0008091FF0281113DC040E060E00E94980AA2
:1049D00038C0C0931E018091FA02837080931D013C
:1049E0000E94D22283E080930E012BC08091F902B5
:1049F000882351F046E050E06CE170E08AEF92E0ED
:104A00000E941E291092F9024091F5025091F6027F
:104A10006091F7027091F8022FB7F89480916304C7
:104A200090916404A0916504B09166042FBF841B2B
:104A3000950BA60BB70B4A97A105B10510F0109284
:104A40000E01CF91089580E090E00E94C11C80E0AB
:104A500090E00E94AB1C1092BB020E94F5100895DA
:104A6000A0E0B0E0E6E3F5E20C9467288C01C0908A
:104A7000A004D090A104E090A204F090A30480913F
:104A8000BD029091BE02A091BF02B091C002C82A9F
:104A9000D92AEA2AFB2ACFE1D0E0D701C6010C2EA1
:104AA00004C0B695A795979587950A94D2F780FD8F
:104AB00004C0219790F7B12C09C0BC2EB8018C2FEF
:104AC0000E94CA0E0E94E30E019799F38B2DCDB779
:104AD000DEB7E9E00C948328CF93DF93EC010E94CA
:104AE0003025BE010E94CA0E0E94E30EDF91CF91D5
:104AF0000895292F9E3080F5863070F590E036E0DD
:104B0000239F800D911D1124682F677023E09695D7
:104B100087952A95E1F725E0289FF001299FF00D60
:104B20001124E755FB4F40E050E080E0219130E058
:104B3000062E02C0369527950A94E2F72170332796
:104B4000042E01C0220F0A94EAF7822B4F5F5F4FB9
:104B50004530510559F7089580E00895292F9E307A
:104B600090F5863080F590E036E0239F800D911D12
:104B70001124282F277051E001C0550F2A95EAF71C
:104B800023E0969587952A95E1F725E0289FF00187
:104B9000299FF00D1124E755FB4F20E030E070E035
:104BA0004081CB01022E02C0969587950A94E2F7C8
:104BB0008170819584278523842781932F5F3F4FC0
:104BC0002530310569F708950E94961E6093A00470
:104BD0007093A1048093A2049093A3040E942325C0
:104BE00008950F931F9341E050E060E070E004C02F
:104BF000440F551F661F771F8A95D2F74095509531
:104C0000609570958091A0049091A104A091A20458
:104C1000B091A3048A019B01082319232A233B2373
:104C2000C901B8010E94E4251F910F9108950F93C7
:104C30001F9341E050E060E070E004C0440F551F56
:104C4000661F771F8A95D2F78091A0049091A104E6
:104C5000A091A204B091A3048A019B01082B192BF7
:104C60002A2B3B2BC901B8010E94E4251F910F910B
:104C700008956093BD027093BE028093BF0290932B
:104C8000C0020E9423250895FC01808191810E9429
:104C90006C2592959F70963079F010F4925001C077
:104CA0009A50923068F4803F69F018F4883E40F4DE
:104CB00009C0843F29F406C0883E20F0813F11F0EE
:104CC00080E0089581E0089580910A01882331F001
:104CD0008091670487FF02C08EE101C086E0E4E4B2
:104CE000F2E0DF011D928A95E9F70E9423250895DD
:104CF000882321F00E94EE100E94F5100895882369
:104D000039F09091C602892B8093C6020E94F5105B
:104D10000895882349F1682F8CEF860F813A28F493
:104D200082E492E00E94831C0CC080E2860F8830EF
:104D300058F4677081E001C0880F6A95EAF70E9415
:104D4000EE100E94F51008958BE5860F833028F44D
:104D500080E090E00E94C11C0895685A673120F4F9
:104D600080E090E00E94AB1C0895CF93882309F463
:104D70009AC0C82F8CEF8C0F813A08F05EC08091EA
:104D80000A018823E1F08091670487FF18C0EC2FA7
:104D9000E695E695E695F0E0EE5BFD4F8281282FE3
:104DA00030E04C2F477081E090E002C0880F991FDF
:104DB0004A95E2F782239323892B59F411C0E4E446
:104DC000F2E08191C81729F082E0EA34F807C9F7C8
:104DD00007C06C2F82E492E00E94831C0E94F510B1
:104DE00080910A018823C9F08091670487FF15C06C
:104DF000AC2FA695A695A695B0E0AE5BBD4FC7704B
:104E000081E090E001C0880FCA95EAF712969C9164
:104E10001297892B12968C9320C0A4E4B2E0EFEF96
:104E200080E09D91C917C9F0EF3F19F4911101C0BD
:104E3000E82F8F5F8630A9F72DC080E28C0F883075
:104E400078F4C77081E090E001C0880FCA95EAF756
:104E50009091C602892B8093C6020E94F51023C050
:104E6000EBE5EC0FE33040F4F0E0E65DFE4F8081CF
:104E700090E00E94C11C17C0C85AC731A0F4EC2FA3
:104E8000F0E0EE0FFF1FE35DFE4F808191810E94F5
:104E9000AB1C09C0EF3F09F30E2E000CFF0BEE5BBD
:104EA000FD4FC283DACFCF9108951092B9008CE004
:104EB0008093B8000895A0E0B0E0E1E6F7E20C943A
:104EC0006528B82EEB010E944E1C6C01C431D1053F
:104ED00058F0CF3F8FEFD80759F0CE0164E170E072
:104EE0000E944A287B0107C0EE24E394F12C03C002
:104EF00025E0E22EF12C84E8A82E94EA992E109257
:104F0000BC009092BC000E944E1C8C018091BC00A1
:104F100087FD08C00E944E1C801B910B8E159F05BB
:104F2000A8F32AC08091B900887F883041F0809131
:104F3000B900887F803119F00FEF1FEF1FC0B092CA
:104F4000BB00A092BC000E944E1C8C018091BC0052
:104F500087FD08C00E944E1C801B910B8E159F057B
:104F6000A8F30AC08091B900887F883111F080349D
:104F700019F700E010E00EC00EEF1FEFCF3F8FEFEC
:104F8000D80709F4BCCFC6010E943F1C8C179D07AF
:104F900008F4B5CFC801CDB7DEB7EBE00C9481289B
:104FA0000F931F93CF93DF93EB018093BB0084E8B3
:104FB0008093BC000E944E1C8C018091BC0087FD38
:104FC0000EC0CF3F8FEFD807C1F30E944E1C801B4D
:104FD000910B8C179D0788F38EEF9FEF0CC02091EB
:104FE000B900287F81E090E0283211F480E090E061
:104FF000919581959109DF91CF911F910F9108951E
:105000000F931F93CF93DF93EC0184E88093BC0050
:105010000E944E1C8C018091BC0087FD0EC0CF3FCA
:105020008FEFD807C1F30E944E1C801B910B8C1789
:105030009D0788F38EEF9FEF03C08091BB0090E047
:10504000DF91CF911F910F910895A0E0B0E0EBE2C6
:10505000F8E20C9468286B018A017901B9010E9479
:105060005B27E6010C0D1D1DC017D10741F424E993
:105070002093BC00CDB7DEB7E8E00C94842897FD00
:10508000F6CFB70189910E94D027EECF84E98093B3
:10509000BC000895AA1BBB1B51E107C0AA1FBB1F80
:1050A000A617B70710F0A61BB70B881F991F5A95B4
:1050B000A9F780959095BC01CD0108952F923F925C
:1050C0004F925F926F927F928F929F92AF92BF9218
:1050D000CF92DF92EF92FF920F931F93CF93DF93C4
:1050E000CDB7DEB7CA1BDB0B0FB6F894DEBF0FBE21
:1050F000CDBF09942A88398848885F846E847D846E
:105100008C849B84AA84B984C884DF80EE80FD806F
:105110000C811B81AA81B981CE0FD11D0FB6F894E5
:10512000DEBF0FBECDBFED0108958F929F92AF926B
:10513000BF92CF92DF92EF92FF92CF93DF93EC0179
:10514000688179818A819B8161157105810591054D
:1051500021F464E279ED8BE597E02DE133EF41E056
:1051600050E00E94522949015A019B01AC01A7EA73
:10517000B1E40E9471296B017C01ACEEB4EFA50192
:1051800094010E947F29DC01CB018C0D9D1DAE1D79
:10519000BF1DB7FF03C00197A109B0488883998359
:1051A000AA83BB839F77DF91CF91FF90EF90DF9031
:1051B000CF90BF90AF909F908F9008950E949528B8
:1051C000089580E091E00E9495280895A0E0B0E065
:1051D0008093000190930101A0930201B093030119
:1051E0000895FB01DC0102C005900D924150504032
:1051F000D8F70895DC01CB01FC01F999FECF06C078
:10520000F2BDE1BDF89A319600B40D924150504084
:10521000B8F70895F999FECF92BD81BDF89A992704
:1052200080B50895A6E1B0E044E050E00C94FC287D
:10523000A8E1B0E042E050E00C94FC28DC01A40FAF
:10524000B51F4150504048F0CB01840F951F2E915F
:105250000E942F2941505040D0F70895262FF999E8
:10526000FECF92BD81BDF89A019700B4021639F0C5
:105270001FBA20BD0FB6F894FA9AF99A0FBE089596
:105280000396272F0E942F290E942E29252F0E9446
:105290002F29242F0C942F290196272F0E942F2984
:1052A0000C942E29052E97FB1EF400940E94692968
:1052B00057FD07D00E94842907FC03D04EF40C94BC
:1052C000692950954095309521953F4F4F4F5F4F3D
:1052D000089590958095709561957F4F8F4F9F4F62
:1052E00008950E94A629A59F900DB49F900DA49F9C
:1052F000800D911D11240895B7FF0C9471290E940F
:105300007129821B930B0895A1E21A2EAA1BBB1BC5
:10531000FD010DC0AA1FBB1FEE1FFF1FA217B30781
:10532000E407F50720F0A21BB30BE40BF50B661F97
:10533000771F881F991F1A9469F76095709580955B
:1053400090959B01AC01BD01CF010895A29FB001D2
:10535000B39FC001A39F700D811D1124911DB29FA9
:10536000700D811D1124911D08950E94C9290C946E
:10537000AA2A0E94A32A58F00E949C2A40F029F4ED
:105380005F3F29F00C94932A51110C94DE2A0C945F
:10539000992A0E94BB2A68F39923B1F3552391F30C
:1053A000951B550BBB27AA2762177307840738F094
:1053B0009F5F5F4F220F331F441FAA1FA9F335D0F1
:1053C0000E2E3AF0E0E832D091505040E695001CA5
:1053D000CAF72BD0FE2F29D0660F771F881FBB1F5F
:1053E000261737074807AB07B0E809F0BB0B802D3D
:1053F000BF01FF2793585F4F3AF09E3F510578F069
:105400000C94932A0C94DE2A5F3FE4F3983ED4F385
:10541000869577956795B795F7959F5FC9F7880F3C
:10542000911D9695879597F90895E1E0660F771F8E
:10543000881FBB1F621773078407BA0720F0621B1F
:10544000730B840BBA0BEE1F88F7E09508950E944A
:10545000C32A88F09F5798F0B92F9927B751B0F019
:10546000E1F0660F771F881F991F1AF0BA95C9F7E8
:1054700014C0B13091F00E94DD2AB1E008950C947F
:10548000DD2A672F782F8827B85F39F0B93FCCF332
:10549000869577956795B395D9F73EF49095809565
:1054A000709561957F4F8F4F9F4F0895E89409C085
:1054B00097FB3EF490958095709561957F4F8F4F47
:1054C0009F4F9923A9F0F92F96E9BB279395F6955D
:1054D000879577956795B795F111F8CFFAF4BB0FDB
:1054E00011F460FF1BC06F5F7F4F8F4F9F4F16C03F
:1054F000882311F096E911C0772321F09EE8872FC9
:10550000762F05C0662371F096E8862F70E060E084
:105510002AF09A95660F771F881FDAF7880F9695FD
:10552000879597F9089597F99F6780E870E060E0A4
:1055300008959FEF80EC089500240A94161617062C
:1055400018060906089500240A9412161306140674
:1055500005060895092E0394000C11F4882352F0D7
:10556000BB0F40F4BF2B11F460FF04C06F5F7F4F8F
:105570008F4F9F4F089557FD9058440F551F59F076
:105580005F3F71F04795880F97FB991F61F09F3F30
:1055900079F087950895121613061406551FF2CF59
:1055A0004695F1DF08C0161617061806991FF1CFA9
:1055B00086957105610508940895E894BB276627D0
:1055C0007727CB0197F908950E94F72A0C94AA2A0D
:1055D0000E949C2A38F00E94A32A20F0952311F003
:1055E0000C94932A0C94992A11240C94DE2A0E947C
:1055F000BB2A70F3959FC1F3950F50E0551F629F32
:10560000F001729FBB27F00DB11D639FAA27F00D1B
:10561000B11DAA1F649F6627B00DA11D661F829F42
:105620002227B00DA11D621F739FB00DA11D621F27
:10563000839FA00D611D221F749F3327A00D611D44
:10564000231F849F600D211D822F762F6A2F112426
:105650009F5750409AF0F1F088234AF0EE0FFF1F59
:10566000BB1F661F771F881F91505040A9F79E3FB0
:10567000510580F00C94932A0C94DE2A5F3FE4F3EA
:10568000983ED4F3869577956795B795F795E79506
:105690009F5FC1F7FE2B880F911D9695879597F90F
:1056A000089597FB072E16F4009407D077FD09D0D4
:1056B0000E944A2807FC05D03EF4909581959F4FA3
:1056C0000895709561957F4F0895EE0FFF1F059027
:1056D000F491E02D09940F931F93CF93DF938230C1
:1056E000910510F482E090E0E091E204F091E3048F
:1056F00020E030E0A0E0B0E0309719F14081518126
:105700000281138148175907C8F08417950769F477
:10571000109731F012960C93129713961C9327C092
:105720000093E2041093E30422C02115310519F01F
:105730004217530718F49A01BD01EF01DF01F80188
:10574000DBCF21153105F9F0281B390B2430310549
:1057500080F48A819B816115710521F0FB0193839F
:10576000828304C09093E3048093E204FE013296A6
:1057700044C0FE01E20FF31F81939193225031093F
:10578000398328833AC02091E0043091E104232B2F
:1057900041F420910601309107013093E1042093F8
:1057A000E00420910401309105012115310541F4F7
:1057B0002DB73EB74091080150910901241B350BCC
:1057C000E091E004F091E104E217F307A0F42E1B4E
:1057D0003F0B2817390778F0AC014E5F5F4F241755
:1057E000350748F04E0F5F1F5093E1044093E004EB
:1057F0008193919302C0E0E0F0E0CF01DF91CF917F
:105800001F910F910895CF93DF93009709F481C002
:10581000FC01329713821282A091E204B091E3045A
:10582000109781F420813181820F931F2091E00431
:105830003091E1042817390751F5F093E104E09322
:10584000E00467C0ED0120E030E0CE17DF0740F450
:105850004A815B819E0141155105F1F0EA01F5CFC6
:10586000D383C28340815181840F951FC817D90704
:1058700059F488819981840F951F029691838083C2
:105880008A819B81938382832115310529F4F093CA
:10589000E304E093E2043DC0E901FB83EA8349911C
:1058A0005991C40FD51FEC17FD0761F480819181D8
:1058B000840F951F0296E9019983888382819381E1
:1058C0009B838A83E0E0F0E012968D919C91139780
:1058D000009719F0FD01DC01F7CF8D919C91119794
:1058E0009D012E5F3F4F820F931F2091E004309166
:1058F000E1042817390769F4309729F41092E3047A
:105900001092E20402C013821282B093E104A093C9
:10591000E004DF91CF910895FB01DC0104C08D917B
:105920000190801921F441505040C8F7881B990B11
:065930000895F894FFCF7A
:10593600010000000000E40420000100FF0003CF86
:10594600180719CE180219FD18CD182000FFFF0000
:10595600FFFF003131295A1B750A818283E200E973
:1059660000EA00B500B600B700CD008301CC008A7E
:105976000192019401210223022402250226022714
:10598600022A02B300B4006F007000FFFFFFFFFFA2
:10599600FF1C21262B2FFF1B20252A2EFF1A1F2432
:1059A600292DFF191E23282CFF181D2227FFFFFF74
:1059B600FFFFFFFFFFFFFFFFFFFFFF00050A0FFFCF
:1059C600FF01060B1014FF02070C1115FF03080D4B
:1059D6001216FF04090E1317FFFFFFFFFFFFFF89D3
:1059E600009A00AC00BD00CE00890C9A0CAC0CBD30
:1059F6000CCE0C89199A19AC19BD19CE1989269A9B
:105A060026AC26BD26CE269A33AC33BD33CE3356CE
:105A1600004400330022001100560C440C330C22C3
:105A26000C110C561944193319221911195626440A
:105A360026332622261126443333332233113304E8
:105A46000404040404040404040404040404040410
:105A5600040404010101010404040404040404040C
:105A66000404040404040404040404010101010000
:00000001FF
