:100000000C9416020C9433020C9433020C943302B9
:100010000C9433020C9433020C9433020C9433028C
:100020000C9433020C9433020C94BA0D0C94FC0C17
:100030000C9490140C9433020C9433020C943302FD
:100040000C9433020C9433020C9433020C9433025C
:100050000C9433020C94910E0C9433020C943302E2
:100060000C9433020C9433020C9433020C9433023C
:100070000C9433020C9433020C9433020C9433022C
:100080000C9433020C9433020C9433020C9433021C
:100090000C9433020C9433020C9433020C9433020C
:1000A0000C9433020C9433020C9433024B03500330
:1000B0005A034E03530358035603AD04AD04DF0443
:1000C000DF044905EF06EF06EF0665054306540613
:1000D0005406450848084B084E085108540857086C
:1000E0001B0B420BDA0C420BDA0C8A0BAD0BDA0C51
:1000F0009C0CAF0C05010980A101850319012AB7E9
:1001000000150126B700950175108100C0050C0986
:1001100001A101850419012AA002150126A002955A
:100120000175108100C005010906A10185060507BA
:1001300019E029E7150025019508750181020507D9
:10014000190029EF1500250195F0750181020508B8
:100150001901290595057501910295017503910114
:10016000C005010906A101050719E029E7150025C9
:10017000019508750181029501750881010507192E
:100180000029FF150026FF00950675088100050867
:1001900019012905950575019102950175039101D4
:1001A000C009023B00020100A0FA0904000001039B
:1001B000010100092111010001224000070581030E
:1001C00008000109040100010300000009211101D8
:1001D0000001226D000705820320000112010002C8
:1001E0000000000897327449010001020001160363
:1001F0004500720067006F0044006F007800200027
:1002000045005A00000028035A0053004100200016
:1002100054006500630068006E006F006C006F00A2
:100220006700790020004C0061006200730000004C
:100230000403090429002B003500E100E000000060
:100240001E00140004001D00010002511F001A00CE
:1002500016001B000100E300200008000700060054
:1002600001002A002100150009001900E200010028
:10027000220017000A0005000000230201002F00E1
:1002800000000158000001000100300000002E00B5
:100290000000010023001C000B00110000002102DF
:1002A000240018000D0010006574010025000C00EA
:1002B0000E00360001002C00260012000F0037004F
:1002C0000100280027001300330038000100E4007B
:1002D0002D0031003400E500E400000000000000C3
:1002E000000000000000000000000000000000000E
:1002F00000000100000000000000000000000100FC
:100300003A003B003C003D00000001003E003F0081
:10031000400041000000010042004300440045004D
:1003200000000100000000000000010000000100CA
:1003300000000000000000000000010000000000BC
:100340000000000000000100240021001E00000049
:1003500000000100250022001F000000000027000F
:100360002600230020003700000001002E022D008F
:10037000250238000000010000000000000000001D
:100380000000000001000100010001000100000068
:1003900001000100010001000100010001004F0106
:1003A0000100010001000100010001000100010045
:1003B0000100010001000100010001000100010035
:1003C000010001000100500100004A00010001008D
:1003D0000000010000000100010001000000010018
:1003E00000000100010001005000010000004D006C
:1003F00001000100510001000100010001000100A5
:100400005200010001000100010001004F00010045
:1004100001000100010001000100010001000100D4
:100420004600010001000100C35C000011241FBE52
:10043000CFEFDAE0DEBFCDBF11E0A0E0B1E0EAE44B
:10044000F7E302C005900D92A634B107D9F722E078
:10045000A6E4B1E001C01D92AE37B207E1F70E94F9
:100460001A150C94A31B0C940000109253010E94C7
:1004700017182FEF84E39CE0215080409040E1F773
:1004800000C000009AE088E10FB6F894A895809328
:1004900060000FBE90936000FFCFA7E1B0E0E3E5FE
:1004A000F2E00C94FF194B8B5C8B6D8B7E8B8F8BEA
:1004B00061111092FB0186E09E01235F3F4FD9013D
:1004C000E82F1D92EA95E9F795E0FE017396D901B0
:1004D00001900D929A95E1F79C894E895F897B89FD
:1004E0007D879E876F87598B488BF901DE011796B0
:1004F00001900D928A95E1F7CE0107960E94431272
:1005000081113EC086E0FE013796DE011196019012
:100510000D928A95E1F7FF81E8856A857B856115F3
:10052000710531F0EF3F31F481E0FF3F19F403C072
:1005300081E001C080E080FD23C02091A80130E06F
:10054000C9010196877099274091D90150E084171D
:10055000950779F1F983EA837D836C8396E0929F16
:10056000D001939FB00D1124A755BE4FFE013196C7
:1005700001900D929A95E1F78093A8010E94D01105
:1005800016E08091D9019091A801891709F1189F6F
:10059000C001112487559E4F0E9443128823C1F049
:1005A0008091D90190E00196877099278093D901B5
:1005B000E8CF109253010E9417181092A8011092D0
:1005C000D901E2EAF1E086E0DF011D928A95E9F7C0
:1005D0006796E3E00C941B1ACF92DF92EF92FF92A2
:1005E0000F931F936C01EE24FF24C114D104E10486
:1005F000F10411F0E0E103C06B017C01E0E033277E
:100600002F2D1E2D0D2D011511052105310519F078
:10061000E85F6801790197018601F4E03695279536
:1006200017950795FA95D1F70115110521053105A3
:1006300019F0EC5F680179019701860152E0369567
:100640002795179507955A95D1F70115110521059D
:10065000310519F0EE5F6801790197018601369541
:10066000279517950795012B022B032B09F0EF5FB8
:1006700056985E9825982D9826982E9827982F980A
:100680000E2F10E0F8013197E730F105A8F4EA5A8F
:10069000FF4F0C946F1A259A2D9A0EC0259A2D9A09
:1006A000269A2E9A09C0259A2D9A04C0259A2D9A29
:1006B000269A2E9A279A2F9A1F910F91FF90EF90CA
:1006C000DF90CF900895AAE0B0E0E9E6F3E00C9463
:1006D000F619FC018081918123813481232B31F033
:1006E0009F3F31F491E08F3F19F403C091E001C0C6
:1006F00090E090FDA1C37F0185E0DE011696019098
:100700000D928A95E1F7F70122818E819F81222344
:1007100049F00E94E316182F682F8E819F810E9456
:10072000611703C00E942C17182F6E817F81812FC3
:100730000E94170F8C018F3A9D4509F040C0F701C8
:1007400082818823E1F19091080281E0890F87700E
:10075000987F853020F4892B8093080202C0909303
:100760000802809108028770FFEF8F9FC00111245B
:10077000959587959595879599279093890080936E
:10078000880090938B0080938A0090938D008093D3
:100790008C00409108025091090260910A02709108
:1007A0000B028FE090E00E944D1A60911A02709146
:1007B0001B0280911C0290911D020E94EC02F70125
:1007C0008281882309F47DC00C35FDE51F0709F4FB
:1007D00065C058F401153CE5130799F00F3D1C4521
:1007E00009F06FC00E94B9104FC00E359DE5190782
:1007F00009F44CC008F454C0093A1D4509F444C03A
:1008000060C0109253010E9417180FEF14E32CE000
:10081000015010402040E1F700C00000F89481E052
:100820008093E00080E28093D8001092C9008FE1AD
:100830009EE40197F1F700C000001DBA1092680015
:100840001CBC10BE1FBA10927A0010926E0010925B
:100850006F0010927100109272001092C9001092F5
:10086000BC0014B817B81AB81DB810BA1092BC0062
:1008700015B818B81BB81EB811BA0C94003F809177
:10088000DA01877089F4D8C20E94350280914E0146
:1008900082FB882780F991E0892703C081E001C0AD
:1008A00080E00E94B4110DC0F7018281882309F411
:1008B000C3C280914E0182FFBFC282E00E949711A5
:1008C000BBC2F701828100811181882349F0C801F0
:1008D0000E94E316D82E682FC8010E94611704C039
:1008E000C8010E942C17D82EB8018D2D0E94170F19
:1008F0000E94300F8C01982EF701D280A580A2941F
:100900009FE0A9228091DA018770B9F0DD20A9F07B
:10091000812F807F803421F080E2800F883068F062
:1009200080914E0182FF09C082E00E949711809160
:10093000DA018770CC24C3948111C12CB12EB294FA
:100940008FE0B8228B2D90E08C30910508F047C2E3
:10095000FC01E35AFF4F0C946F1A812F807F1F70A8
:10096000882311F01295107FDD20B9F0112309F4CE
:1009700023C280E2800F883010F0911006C0809171
:100980005301182B1093530105C08091FB01182BC4
:100990001093FB010E9442110FC2802F0E943C184D
:1009A000112309F41CC2005E083078F1992069F126
:1009B00010958091FB0118231093FB0129C0812F12
:1009C000807F1F70803211F01295107F992021F0E6
:1009D000F1E09F16D9F147C080914E0182FD1BC006
:1009E000DD2069F0112339F080915301182B109309
:1009F00053010E94421180E00E946818F0C180E01B
:100A00000E943C18112309F4EAC1812F0E943B1176
:100A10000E944211E4C1DD2081F08091FC01AA20F6
:100A200051F001E0A01207C0182B181709F4D7C124
:100A30001093FC01D4C1812B10C0AA2021F021E029
:100A4000A21609F4CCC10E9435111FC0DD2041F06F
:100A500031E03A1508F4C3C1812F0E943218BFC19A
:100A6000A110BDC112C0DD2019F0AA20A9F3A4C1B4
:100A7000AA2059F0093309F0AFC18FEF97EEE3E0F8
:100A800081509040E040E1F7A5C1812F0E942B18D2
:100A9000A6C1812F86958695837019F0813059F013
:100AA0009EC1DD2019F0C801937002C080E090E083
:100AB0000E94F7149AC1DD2019F0C801937002C09A
:100AC00080E090E00E94E11490C1812F837009F0D2
:100AD00069C0D11088C1902F929596959770990F03
:100AE000990F802F8F70882E912CA12CB12C092E5C
:100AF00004C0880C991CAA1CBB1C0A94D2F704FFE2
:100B000012C04FE050E060E070E004C0440F551F99
:100B1000661F771F9A95D2F7DB01CA0180959095E1
:100B2000A095B09503C080E090E0DC011695169585
:100B3000412F4370423019F1C8F40091FD0110912A
:100B4000FE012091FF0130910002413059F08829C7
:100B50009929AA29BB29BC01CD01602371238223D5
:100B600093230AC0802A912AA22AB32ABC01CD016C
:100B7000682979298A299B290E94EC1734C1882980
:100B80009929AA29BB290091FD011091FE0120910C
:100B9000FF0130910002BC01CD016027712782273F
:100BA0009327EACFDD2019F0812F817001C086954F
:100BB000882309F418C1902F929596959770990FF4
:100BC000990F802F8F70882E912CA12CB12C092E7B
:100BD00004C0880C991CAA1CBB1C0A94D2F704FF01
:100BE00012C04FE050E060E070E004C0440F551FB9
:100BF000661F771F9A95D2F7DB01CA018095909501
:100C0000A095B09503C080E090E0DC0116951695A4
:100C1000412F43704230D9F068F500911A021091CB
:100C20001B0220911C0230911D02413059F088298D
:100C30009929AA29BB29BC01CD01602371238223F4
:100C400093231EC0802A912AA22AB32A13C088297E
:100C50009929AA29BB2900911A0210911B022091FF
:100C60001C0230911D02BC01CD0160277127822733
:100C7000932706C0BC01CD01682979298A299B29BF
:100C80000E949717B0C01F70DD2039F0812F0E949D
:100C9000CA17802F0E943218A6C0802F0E942B18DE
:100CA000812F0E94A4179FC0802FF2EF9F1609F496
:100CB00041C0F91538F020EF921659F031EF931634
:100CC000A1F175C093EF9916E1F1E4EF9E1649F199
:100CD0006EC0DD2009F1A11082C01F7181E090E09B
:100CE000A0E0B0E0AC01BD0104C0440F551F661F79
:100CF000771F1A95D2F780911A0290911B02A0914A
:100D00001C02B0911D028A019B01082719272A277E
:100D10003B27C901B80129C021E02A1508F45FC0AA
:100D2000DCCF80914E0182FD23C0DD2029F0812F90
:100D30008F7130C0DD20D9F3812F8F710E94A417ED
:100D40004EC0DD2079F01F7181E090E0A0E0B0E0BE
:100D5000BC01CD0104C0660F771F881F991F1A952B
:100D6000D2F703C060E070E0CB010E94971737C054
:100D7000DD2099F01F71812F0E94CA1780914E01CA
:100D800082FF07C038E0139FC00111248360809365
:100D9000DA01812F0E94CA1722C081E00E949711B8
:100DA00081E08A15E0F482E00E94971118C0DD20EE
:100DB00029F0AA2009F4BBCF802F1ECEAA2009F467
:100DC000BBCF893349F49FEFE7EEF3E09150E04069
:100DD000F040E1F700C00000802F0E943C1888EF2F
:100DE0008B0D843010F40E940D15CC20A9F0809159
:100DF000DA0180FD11C0F7011282859585958595F0
:100E00000E94CA17C7010E9463038091DA01859589
:100E1000859585950E94A41785E0F701DE0111965E
:100E200001900D928A95E1F709811A81C8010E940B
:100E30002C17B8010E94170F2A96ECE00C94121A96
:100E400080E290E090931401809313018091480117
:100E500081110EC00E94081981E0809348012FEF94
:100E600083ED90E3215080409040E1F700C0000006
:100E700064E670E080E40E940E1990931401809360
:100E80001301892B09F04EC064E670E080E00E94F7
:100E900083199093140180931301892B09F042C0A8
:100EA00064E670E080E00E948319909314018093BF
:100EB0001301892BB9F564E670E08FE30E94831972
:100EC0009093140180931301892B61F50E94D81926
:100ED00064E670E080E40E940E1990931401809300
:100EE0001301892BF9F464E670E08CE00E94831909
:100EF0009093140180931301892BA1F464E670E0B0
:100F000080E00E9483199093140180931301892B30
:100F100049F464E670E08FE30E9483199093140112
:100F2000809313010E94D819809113010895CF93E3
:100F3000DF9356985E9825982D9826982E98279896
:100F40002F98C8E8D0E08FEF90E099838883AAE8D3
:100F5000B0E011969C938E93ECE8F0E0918380834F
:100F6000259A2D9A2FEF80E792E021508040904003
:100F7000E1F700C00000269A2E9A2FEF80E792E05A
:100F8000215080409040E1F700C00000279A2F9A3E
:100F90002FEF80E792E0215080409040E1F700C0C1
:100FA000000025982D982FEF80E792E02150804097
:100FB0009040E1F700C0000026982E982FEF80E7C0
:100FC00092E0215080409040E1F700C00000279857
:100FD0002F988091080287702FEF829FC001112403
:100FE00095958795959587959927998388831196E7
:100FF0009C938E939183808356985E9825982D9824
:1010000026982E9827982F98DF91CF910895CF9307
:10101000E82F873080F58091130190911401892B7E
:1010200009F047C0CE2F64E670E080E40E940E19FC
:101030009093140180931301892BD1F464E670E03E
:1010400082E10E9483199093140180931301892BEC
:1010500079F481E090E001C0880FCA95EAF764E670
:1010600070E080950E94831990931401809313017E
:101070000E94D8191EC090E0FC013797E730F105B7
:10108000C0F4E759FF4F0C946F1A209A289811C0AA
:10109000219A29980EC0229A2A980BC0239A2B983D
:1010A00008C0529A5A9805C0539A5B9802C03E9A5B
:1010B0004698CF91089520982898219829982298A9
:1010C0002A9823982B9852985A9853985B983E9850
:1010D00046980895CF93873040F580911301909101
:1010E0001401892B59F564E670E081E40E940E1921
:1010F0009093140180931301892B11F0C0E011C06B
:1011000084E690E00E94B31997FF05C09093140104
:1011100080931301F3CFC82FC09510921401109241
:1011200013010E94D8198C2F0AC09FB18FB1807F04
:10113000869586959370892B809501C080E0CF912C
:1011400008958098889A8198899A84988C9A85982D
:101150008D9A86988E9A87988F9A08952091E400A8
:101160003091E50095E64091EC00842F817040FFBE
:1011700023C08091E80080FD1DC080917801882304
:1011800099F0853099F08091EB0085FD11C0409178
:10119000E4005091E5002417350729F3915011F030
:1011A0009A01E1CF84E0089582E0089583E00895F4
:1011B00081E0089580E008954091E80042FFDDCF8E
:1011C0000895EF92FF920F931F93CF93DF937C01CB
:1011D0008B010E94AE08811119C0E70101151105AC
:1011E000A1F08091E80085FD0AC08091E8008E772B
:1011F0008093E8000E94AE08882381F307C089919C
:101200008093F10001501109E9CF80E0CDB7DEB73E
:10121000E6E00C94181A80917A0187FF11C0809142
:10122000E80082FD05C0809178018111F8CF11C0DE
:101230008091E8008B770BC080917801882349F07A
:101240008091E80080FFF8CF8091E8008E7780934E
:10125000E8000895982F973068F59093E900981763
:1012600039F07091EC002091ED005091F00003C036
:10127000242F762F50E021FD02C09F5FECCF3091EC
:10128000EB003E7F3093EB003091ED003D7F3093DB
:10129000ED003091EB0031603093EB007093EC0087
:1012A0002093ED005093F0002091EE0027FDE5CF54
:1012B00080E008958F708093E90081E00895209187
:1012C0008001309181012617370748F061157105BB
:1012D00039F42091E8002E772093E80001C0B9018D
:1012E000FC0120E06115710579F180917801882376
:1012F000F1F18530F1F18091E80083FD3CC08091EF
:10130000E80082FD2EC08091E80080FFEBCF2091A5
:10131000F3008091F20090E0922B6115710551F07D
:101320008830910538F421912093F10061507109C2
:101330000196F3CF21E0089709F020E08091E800C2
:101340008E778093E800CECF2111CFCF0AC0809155
:101350007801882361F0853061F08091E80083FD99
:101360000AC08091E80082FFF2CF80E0089582E019
:10137000089583E0089581E0089508950895809187
:101380005501089580934F0170935101609350016E
:1013900080917801843001F582E08093E9008FEF3D
:1013A0009091E800815095FD06C095ED9A95F1F772
:1013B00000008111F5CF8091E80085FF0DC040E06D
:1013C00050E063E070E08FE491E00E94E1088091DA
:1013D000E8008E778093E8000895BC0184E00E94C5
:1013E000C2090895BC0183E00E94C2090895CF9309
:1013F000DF9320910601222339F020914D0127FF30
:1014000003C060E222E002C068E021E02093E9002E
:101410002FEF3091E800215035FD06C035ED3A95AB
:10142000F1F700002111F5CF2091E80025FF1DC044
:10143000EC0180910601811105C040E050E068E0B8
:1014400070E003C070E040E050E0CE010E94E1088F
:101450008091E8008E778093E80080E2FE01A6E5A7
:10146000B1E001900D928A95E1F7DF91CF91089557
:10147000AAE2B0E0EEE3FAE00C94FF19EAE7F1E04B
:1014800082E891E02091F10021938E179F07D1F718
:1014900080917B01833009F461C030F4813071F0B8
:1014A000823009F49DC0B4C08A3009F489C08B3001
:1014B00009F46CC0893009F0ABC020C080917A017A
:1014C000813A09F0A5C08091E800877F8093E80009
:1014D00080917E0190917F01892B21F460E286E565
:1014E00091E003C060E080E090E070E00E945F095E
:1014F0008091E8008B778093E8008AC080917A0120
:10150000813209F085C080917E0190917F01029720
:1015100008F07EC08091E800877F8093E80080918A
:10152000E80082FD05C0809178018111F8CF70C07C
:101530002091F3008091F20090E0922B029731F419
:101540008091F100813011F0863021F48091F1001A
:10155000809355018091E8008B7756C080917A0185
:10156000813A09F055C080917E0190917F01892BCD
:1015700009F04EC08091E800877F8093E800809159
:10158000E80080FFFCCF8091060139C080917A018C
:101590008132F1F580917E0190917F01892BC1F517
:1015A0008091E800877F8093E8000E940B0980917A
:1015B0007C0180930601109253010E94171828C0E5
:1015C00080917A01813221F58091E800877F8093B4
:1015D000E8000E940B0980917D018093540118C09E
:1015E00080917A01813AA1F48091E800877F80930D
:1015F000E8008091E80080FFFCCF80915401809347
:10160000F1008091E8008E778093E8000E940B093A
:101610008091E80083FFCEC180917A0190917B0197
:10162000492F50E04A30510508F0C4C1FA01E05991
:10163000FF4F0C946F1A803821F0823809F0BAC13C
:1016400008C08091760190917701992389F082609A
:101650000FC080917E018F70873008F0ABC18093FE
:10166000E9008091EB0085FB882780F91092E90062
:101670009091E800977F9093E8008093F10010929A
:10168000F10065C1282F2D7F09F094C1882319F03E
:10169000823061F08FC180917C01813009F08AC174
:1016A000933009F080E0809377012EC080917C0117
:1016B00081112AC080917E018F702FEF280F263074
:1016C00008F078C18093E9002091EB0020FF1CC056
:1016D000933021F48091EB00806214C09091EB0074
:1016E00090619093EB0021E030E0A90102C0440F2B
:1016F000551F8A95E2F74093EA001092EA00809124
:10170000EB0088608093EB001092E9008091E80084
:10171000877F20C181114EC110917C011F7780917C
:10172000E3008078812B8093E3008091E800877F3D
:101730008093E8000E940B098091E80080FFFCCFB5
:101740008091E30080688093E300111102C082E081
:1017500001C083E0809378012DC18058823008F069
:1017600029C180917C0190917D018C3D53E09507CA
:1017700079F583E08A838AE289834FB7F894DE01A2
:10178000139620E03EE051E2E32FF0E05093570043
:10179000E49120FF03C0E295EF703F5FEF708E2F62
:1017A00090E0EA3010F0C79601C0C0968D939D93EB
:1017B0002F5F243149F74FBF8091E800877F8093E6
:1017C000E8006AE270E0CE0101960E945F09AEC0B7
:1017D00040917E0150917F01292F3327233031051D
:1017E000A9F068F42130310509F4F3C02230310545
:1017F00009F0E0C08BE390E0E1EAF1E044C021327F
:10180000310521F12232310571F1D4C0992781309F
:101810009105A1F058F0029709F0CCC0EEEEF1E08E
:10182000E4918E2F90E0EEEEF1E02AC0E0E3F2E0EA
:10183000E4918E2F90E0E0E3F2E022C0E6E0F2E0F7
:10184000E4918E2F90E0E6E0F2E01AC041155105D8
:1018500009F4C4C04130510509F0ACC089E090E002
:10186000ECECF1E010C04115510509F4BCC0413069
:10187000510509F09FC08DE690E0E4EFF0E003C071
:10188000009709F497C02091E800277F2093E80093
:1018900020918001309181018217930708F49C0107
:1018A00040E02115310589F180917801882309F400
:1018B0003DC08530D9F18091E80083FD37C080912B
:1018C000E80082FD2FC08091E80080FFEACF4091C0
:1018D000F3008091F20090E0942B2115310559F02E
:1018E0008830910540F444914093F10031962150A5
:1018F00031090196F2CF41E0089709F040E080916C
:10190000E8008E778093E800CCCF4111CDCF0AC09C
:1019100080917801882351F0853041F08091E80072
:1019200083FD04C08091E80082FFF2CF8091E8003F
:101930008B778093E8003EC08038E1F58091E80025
:10194000877F8093E800809179018093F1008091F6
:10195000E8008E778093E8000E940B092BC081116C
:1019600029C080917C0190917D019927029714F5FF
:101970008091E800877F8093E80010917C011093AC
:1019800079010E940B09111106C08091E30087FDC7
:1019900002C081E001C084E08093780142E061EC04
:1019A00081E00E942A0942E261EC82E00E942A0959
:1019B000809178018091E80083FF1AC08091E8004F
:1019C000877F8093E8008091EB0080628093EB003A
:1019D0000FC082E190E0ECEDF1E055CF89E090E0BE
:1019E000E3EBF1E050CF80E490E0E1E6F1E04BCFB3
:1019F000AA96E3E00C941B1A1F920F920FB60F9257
:101A000011242F933F934F935F936F937F938F9303
:101A10009F93AF93BF93CF93DF93EF93FF93C091C7
:101A2000E900CF708091EC00D82FD17080FDD0E814
:101A30001092E9008091F000877F8093F000789405
:101A40000E94380A1092E9008091F000886080932B
:101A5000F000CD2BCF70C093E900FF91EF91DF91A3
:101A6000CF91BF91AF919F918F917F916F915F9136
:101A70004F913F912F910F900FBE0F901F9018958F
:101A8000E8EDF0E080818E7F80831092E20010927A
:101A9000DA001092E100A0EEB0E08C9181608C93AE
:101AA00080818F77808319BCA7EDB0E08C918E7F09
:101AB0008C9380818F7E8083109252010895A0E0E4
:101AC000B0E0E5E6FDE00C94FA19C8EDD0E08881BD
:101AD0008F7E8883E7EDF0E080818160808384E001
:101AE00082BF81E08093520188818E7F888302EEDD
:101AF00010E0F80110821092DA0081EEC82ED12C8D
:101B0000F601108288818F77888388818068888336
:101B100088818F7D888319BC109278011092790199
:101B2000109277011092760190EEE92EF12CF701D8
:101B300080818B7F808388818160888342E060E040
:101B400080E00E942A09F60180818E7F8083F8015F
:101B5000808181608083808188608083F7018081BB
:101B60008E7F8083888180618883CDB7DEB7E8E08F
:101B70000C94161A1F920F920FB60F9211242F93E6
:101B80003F934F935F936F937F938F939F93AF9305
:101B9000BF93EF93FF938091E10082FF09C0809192
:101BA000E20082FF05C08091E1008B7F8093E1001D
:101BB0008091DA0080FF2AC08091D80080FF26C083
:101BC0008091DA008E7F8093DA008091D90080FFC7
:101BD00018C080E189BD82E189BD09B400FEFDCF56
:101BE00081E0809378018091520181110FC00E94A1
:101BF000400D0E945F0D8091E20084608093E200BE
:101C000005C019BC10927801109252018091E10038
:101C100080FF17C08091E20080FF13C08091E20036
:101C20008E7F8093E2008091E20080618093E200E9
:101C30008091D80080628093D80019BC85E08093A1
:101C400078018091E10084FF30C08091E20084FF40
:101C50002CC080E189BD82E189BD09B400FEFDCFC1
:101C60008091D8008F7D8093D8008091E1008F7E95
:101C70008093E1008091E2008F7E8093E20080916A
:101C8000E20081608093E20080917901882311F065
:101C900084E007C08091E30087FD02C081E001C0BD
:101CA00083E080937801809178018091E10083FF47
:101CB00027C08091E20083FF23C08091E100877FED
:101CC0008093E10082E08093780110927901809105
:101CD000E1008E7F8093E1008091E2008E7F80930F
:101CE000E2008091E20080618093E20042E060E0E7
:101CF00080E00E942A098091F00088608093F000C3
:101D0000FF91EF91BF91AF919F918F917F916F91D3
:101D10005F914F913F912F910F900FBE0F901F90A9
:101D2000189578941F920F920FB60F9211248F93EB
:101D30009F93AF93BF938091490190914A01A091E5
:101D40004B01B0914C010196A11DB11D8093490139
:101D500090934A01A0934B01B0934C01BF91AF9176
:101D60009F918F910F900FBE0F901F9018959C011F
:101D70004FB7F8948091490190914A01A0914B018D
:101D8000B0914C014FBF821B930B08952FB7F8946D
:101D90008091490190914A01A0914B01B0914C0171
:101DA0002FBF089580E0089590914D0192FF0DC0DE
:101DB000282F2871283019F4877F846006C0282FC7
:101DC0002471243011F48B7F886093FF0DC0282F7D
:101DD0002871283119F4877E846106C0282F247168
:101DE000243111F48B7E886120914E0120FF0DC0BB
:101DF000382F3871383019F4877F816006C0382F4A
:101E00003171313011F48E7F886021FF0DC0282F91
:101E10002871283119F4877E816106C0282F21712D
:101E2000213111F48E7E886194FD877E08957E3085
:101E3000A0F4663090F494E5899FF001112486E0C7
:101E4000789FE00DF11D1124E60FF11DEE0FFF1F2D
:101E5000EC5CFD4F85919491089580E090E00895A9
:101E6000CF93DF938238910569F1B0F48133910506
:101E700009F46FC048F48932910509F465C08A32CB
:101E8000910509F46BC08AC08533910509F457C0E8
:101E900089339105B9F082C0833E910571F138F420
:101EA000803E9105B1F0823E910511F177C0863EEA
:101EB0009105B9F1873E9105C9F1843E910509F07C
:101EC0006DC024C020914D0120FD53C021FD51C0A3
:101ED00065C080914D0180FD46C080914E0180FF1C
:101EE00048C080914D0184FD3FC183EE90E03EC12A
:101EF00080914D0182FF3AC0F4CF80914D0182FD67
:101F000035C080914E0180FD34C0EBCF80914E01F1
:101F100081FF35C080914D0184FD26C187EE90E0A0
:101F200025C180914D0183FF27C0F4CF80914D01E1
:101F300083FD22C080914E0181FD21C0EBCF8091B5
:101F40004D0185FD1FC021C080914D0185FD1DC043
:101F500019C080914D0186FD1BC01DC080914D01AF
:101F600086FD19C015C089E390E000C182EE90E0C3
:101F7000FDC080EE90E0FAC086EE90E0F7C084EEFF
:101F800090E0F4C089E290E0F1C085E390E0EEC01B
:101F90008AE290E0EBC081E390E0E8C0811532E591
:101FA000930708F069C0811541E5940728F0982F40
:101FB0008827816F906ADAC0883E910568F5803E77
:101FC000910508F0D3C0883A9105B8F4853A910597
:101FD00048F0855AE82FF0E0EB5EFE4F808190E0FC
:101FE0009064C4C08130910509F4BBC008F4BCC042
:101FF0008430910508F4B8C0B9C08F3B910508F052
:10200000B3C0885AE82FF0E0EE0FFF1FE85EFE4FE6
:10201000808191819464AAC0811520E59207F0F037
:102020009C0174E0369527957A95E1F7922F93708D
:10203000482F437021E030E002C0220F331F4A9541
:10204000E2F73C68392B8F70982F9695969540E271
:10205000949FC0011124822B932B88C0811530E4FA
:10206000930718F09F70906A81C09C013A952115E2
:102070003F4108F47BC078C0EC01C11586E5D80764
:10208000E8F5C11525E5D20748F08C2F0E94D40E43
:102090008F7190E0982F8827906268C0C11534E551
:1020A000D30728F09C2F8827846F906A5FC0AE0109
:1020B000437055272C2F26952695C115D34578F4C6
:1020C00081E090E002C0880F991F4A95E2F740E254
:1020D000249F90011124822B932B9C6847C081E0A0
:1020E00090E002C0880F991F4A95E2F740E2249FD2
:1020F00090011124822B932B9A6838C0C1152AE5D0
:10210000D207F8F4C11539E5D30790F08C2F8F7002
:102110000E94D40E94E0D695C7959A95E1F7CF70BA
:10212000D0E0DC2FCC27D0699E01282BC9011EC02E
:10213000C11548E5D407C0F09C2F8827806F906AAE
:1021400015C0CE0190568115904270F48D2F8F717D
:102150000E94D40E282F2F71CE0199279062922BC6
:1021600005C081E090E002C080E090E0DF91CF9177
:10217000089568EE7EEF80E090E00E94591A60E0DA
:1021800082E090E00E943B1A60E083E090E00E94D1
:102190003B1A1092FD011092FE011092FF01109265
:1021A000000260E084E090E00E943B1A64E082E27A
:1021B00090E00E943B1A60E085E090E00E943B1AAC
:1021C00060E086E090E00E943B1A6FEF87E090E0CD
:1021D0000E943B1A40E050E0BA0188E090E00E9483
:1021E0004D1A60E08DE090E00E943B1A40E050E024
:1021F000BA0188E190E00E944D1A60E087E190E02A
:102200000E943B1A40E050E0BA018CE190E00E944D
:102210004D1A60E070E080E290E00E94591A40E0C0
:1022200050E0BA0188E190E00E944D1A1092080235
:102230001092090210920A0210920B0284E080931D
:102240000802409108025091090260910A027091BF
:102250000B028FE090E00E944D1A40E050E0BA017E
:1022600083E190E00E944D1A08958091FC01811154
:102270001092FC01089580959091530189238093D9
:1022800053010895909153018091FB01982B9093F5
:1022900082018091FC018823D9F0892B80938201EF
:1022A00080910601882331F080914D0187FF02C0A3
:1022B0008EE101C086E0E4E8F1E090E0815028F092
:1022C00021912223D9F39F5FF9CF91110E943511FB
:1022D00040E250E06BED71E082E891E00E94961BD5
:1022E000892B21F180E2E2E8F1E0ABEDB1E0019071
:1022F0000D928A95E1F7E0913E02F0913F0230970E
:10230000A9F080910601882359F080914D0187FF43
:1023100007C0809182018093830186E080938201CF
:102320000280F381E02D82E891E0099508952091E3
:10233000DA01809582238093DA01982F977099F4BF
:1023400030E0482F082E000C550B2417350759F0A4
:1023500090914E0192FF07C08595859585950E94C5
:10236000A4171092DA010895CF93C0914E01C2FBD9
:10237000992790F9981791F080FBC2F9C0934E010C
:1023800060914D0184E090E00E943B1A6C2F82E244
:1023900090E00E943B1A82E00E949711CF9108952D
:1023A0008091D9019091A801891719F08F5F8770EA
:1023B000FBCF08950F931F93CF93DF938091A701D5
:1023C00082958F7009F05AC08091A401882309F486
:1023D00055C08091D9011091A8016091A20170911E
:1023E000A301C091A501D091A60191E06F3F09F032
:1023F00090E0292F06E0811709F440C0209721F0D2
:102400007F3F21F030E003C031E001C0322F90E087
:1024100030FD31C0089FF001099FF00D1124DF014C
:10242000A755BE4F11963C911197371324C03C918C
:10243000361321C012963C91129731111CC013968D
:102440004D915C9114974C1B5D0B483C510598F4E1
:102450008091A7018F7080618093A701E255FE4FA4
:1024600080818F708061808382EA91E00E946303A3
:102470000E94D01103C001968770BDCFDF91CF912C
:102480001F910F910895A1E1B0E0E9E4F2E10C940D
:10249000F7198C0185E0F801DE011D9601900D927F
:1024A0008A95E1F7F801E2809091A2016091A30181
:1024B0004091A5015091A6014115510531F06F3FA2
:1024C00031F481E09F3F19F403C081E001C080E056
:1024D000F82FF1709F2E80FD1BC1F8013081218102
:1024E000C380D48082EAA82E81E0B82EF090A401A7
:1024F000F601E41BF50BFF2009F4C7C08091A7018A
:10250000E83CF10508F092C0482F407F09F051C027
:10251000621311C093130FC0FE2CE1100CC08F701A
:1025200080618093A701C5010E9463038091A70188
:10253000F80185832AC1C114D10431F02F3F31F451
:1025400081E03F3F19F403C081E001C080E080FDDD
:1025500003C081E08E2502C080E090E0F82FF1708A
:10256000FF2E80FF1CC08091D9014091A80156E048
:10257000841709F4E8C090E0589FF001599FF00DCE
:102580001124E755FE4F6181261306C06081631355
:1025900003C06281E61203C001968770E9CFFE2C6A
:1025A000EE2009F4F2C08091A70181608093A70119
:1025B00049C0621306C0931304C0E11002C0F801C1
:1025C00086C0C8010E94F717882351F1EE2041F11F
:1025D0002091A701822F82958F7090E0029774F06E
:1025E0008091A2019091A30198878F831986DB8641
:1025F000CA862C87CE0107960E94630386E0F80105
:10260000A2EAB1E001900D928A95E1F70E94DA11F9
:102610000AC06217C9F0C8010E94F71781111EC0D5
:10262000C8010E946303FF24F394AFC0482F407F8A
:1026300081F782EA91E00E94630386E0F50111923E
:102640008A95E9F7F12CA1C09313E5CFE110E3CF10
:10265000F8018583C8010E94630354C0EE2001F392
:102660002091A701822F82958F7090E0029734F21B
:102670008091A2019091A3019A8389831B82DD82BC
:10268000CC822E83CE010196B7CFE83CF105D0F580
:10269000FE2CEE2029F2621327C0931325C020914F
:1026A000A70120FD18C0822F82958F70482F50E01F
:1026B0004115510581F0F80125834F30510541F056
:1026C0008F5F982F9295907F822F8F70892B8583B3
:1026D000C8010E94630386E0F801A2EAB1E001901C
:1026E0000D928A95E1F751C0C8010E94F717811138
:1026F00085CF8091A70181608093A701C8010E94C6
:10270000630343C086E0F50111928A95E9F73DC065
:10271000EE2009F485CFC8010E94F717F82E882310
:1027200009F47ECF86E0F801A2EAB1E001900D92B3
:102730008A95E1F78091A2019091A3010E941F1751
:102740000E94DA1122C03D872E878D859E850E94CA
:102750001F17292F22952F70223028F49F7039F0EF
:10276000811105C00BC0243028F49F7049F4805EAD
:10277000883020F0C8010E9463039F2CF92C05C00B
:10278000F8019581907F99F7F9CF8F2D6196EBE055
:102790000C94131AA0E0B0E0E0EDF3E10C94F91909
:1027A0008091130190911401892B91F08091010285
:1027B0008F5F8093010281110BC00E94200790E07F
:1027C0009093140180931301892B11F40E949707B1
:1027D0000CE012E07801B12CC0E087E0C82ECC0EEE
:1027E0008C2F0E9407088C2D0E9407088C2F0E94B6
:1027F0006A088F73F7019081891721F08083DD24A7
:10280000D39401C0D12C8C2D0E946A088F73F701DC
:102810009781891719F0878381E001C080E0D82A69
:10282000BD280E945B08CF5FFFEFEF1AFF0AC73099
:10283000A1F6C0910502CC23C9F10E94C60E2091D9
:10284000030230910402AC01421B530B9A01909396
:102850000402809303024F3F510509F020F4452BF9
:1028600009F454C002C02FEF30E01092050210921C
:102870000202E0910602F0910702AF01425F5F4F52
:1028800090E030E08081882341F0281718F0108212
:102890009C2F03C0821B80833C2F3196E417F507E1
:1028A00089F7309305029093020230C0BB2031F1CA
:1028B0000E94C60E9093040280930302E0910602E8
:1028C000F091070280910502AEE1B2E09F01225F24
:1028D0003F4F4EE1E80199918E015C91591731F01B
:1028E0005081511103C040839C9381E03196119631
:1028F000E217F30779F7809305020CC080E090910E
:102900000202992339F08111D9CFD2CFB110D6CF9D
:1029100081E0F5CF8B2DCDB7DEB7E9E00C94151A29
:102920001F920F920FB60F9211248F939F93AF9324
:10293000BF9380914202811113C08091490190910F
:102940004A01A0914B01B0914C014196A11DB11DCE
:102950008093490190934A01A0934B01B0934C019D
:10296000BF91AF919F918F910F900FBE0F901F90CD
:102970001895209106012223C9F020914D0127FFCF
:1029800015C0262F2695269526952E31C8F4FC01D4
:10299000E20FF11D677081E090E001C0880F6A9539
:1029A000EAF780959281892382830895FC01069637
:1029B0002281621301C012823196E817F907C1F72C
:1029C000089520914002309141022817390771F093
:1029D0009093410280934002E0913E02F0913F02C9
:1029E000309721F00084F185E02D0995089520911C
:1029F0003C0230913D022817390771F090933D0257
:102A000080933C02E0913E02F0913F02309721F02A
:102A10000680F781E02D09950895E0913E02F0913E
:102A20003F02309729F00190F081E02D099508953B
:102A300080E00895AAE0B0E0E0E2F5E10C94F71937
:102A400085B7806885BF85B7806885BF84B7877F75
:102A500084BF0FB6F894A895809160008861809338
:102A60006000109260000FBE90E080E80FB6F8940E
:102A700080936100909361000FBE82ED9EE0909381
:102A80004701809346010E94400D0E945F0D809196
:102A9000E20084608093E20078948091780188233A
:102AA000A1F01091E9001F709091EC00892F8170C6
:102AB00090FD80E8182B1092E9008091E80083FDDA
:102AC0000E94380A1F701093E90082E084BD93E0F1
:102AD00095BD9AEF97BD80936E000E94200790E00D
:102AE00090931401809313010E945B080E94A10837
:102AF000ECE0F2E0AEE1B2E011921D9222E0EA31A8
:102B0000F207D1F78EE090E00E94751A80930602DA
:102B100090930702FC010E961192E817F907E1F76E
:102B200089EA8093800089E08093810024982C9822
:102B30003F988AB18F7C8AB96E98479A8BB180632F
:102B40008BB9769A8FE090E00E942F1A609308026A
:102B50007093090280930A0290930B0267708FEFC3
:102B6000689FB001112475956795759567957727CE
:102B7000709389006093880070938B0060938A0043
:102B800070938D0060938C000E94970780E090E026
:102B90000E94351A883E9E4F11F00E94B91082E0C3
:102BA00090E00E94271A80932C0284E090E00E941B
:102BB000271A182F82E290E00E94271A212F30E076
:102BC000382B30934E0120934D0183E090E00E941A
:102BD000271A682F70E080E090E00E94EC17609167
:102BE0001A0270911B0280911C0290911D020E949A
:102BF000EC0287E091E090933F0280933E0288E1EF
:102C0000C82ED12C90E4992E2CE2A22E22E0B22ED6
:102C100030E1E32E80917801853009F052C012E155
:102C200080917801853009F046C080917801843028
:102C300009F1109242020FB6F894A895C092600074
:102C40000FBE9092600083B7817F846083BF83B79B
:102C5000816083BF7894889583B78E7F83BF0FB6DA
:102C6000F894A8958091600088618093600010922C
:102C700060000FBE80917701882391F20E942007A7
:102C800090E090931401809313010E945B080E94CE
:102C9000A108EEE1F2E0119282E0EC32F807D9F7F8
:102CA0000E94CA13EEE1F2E08191811167C0AE1675
:102CB000BF06D1F7B5CF109253010E9417180E949A
:102CC0000D150E94CA13882359F08FB7F8944091CC
:102CD000490150914A0160914B0170914C018FBFA5
:102CE000EDE2F2E0AEE1B2E000E010E0302F2D9135
:102CF0009191922721F180E0FF24F394492F4F21F5
:102D0000D1F089833A832F2181E009F480E08B831D
:102D10000E94C60E8160782F9D838C8349815A81E1
:102D20006B818D810E944D02F801E35DFD4F808132
:102D3000F826F08219C08F5FFF0C8630F9F60F5F1E
:102D40001F4F0E30110591F68FEF8E838F831886FB
:102D50000E94C60E8160782F9A8789874E815F8195
:102D600068858A850E944D020E940D1590913B0254
:102D7000891709F44FCF80933B024CCFE9BC19BDB2
:102D800009B400FEFDCF8091D8008F7D8093D800DC
:102D90008091E00082608093E0008091E00081FDFE
:102DA000FCCF109253010E9417183ACF80E090E0B8
:102DB0000E94F71480E090E00E94E1141092FB0161
:102DC0000E9442110895A0E0B0E0E9EEF6E10C9413
:102DD000F9198C01C0901A02D0901B02E0901C02DD
:102DE000F0901D028091FD019091FE01A091FF01E4
:102DF000B0910002C82AD92AEA2AFB2ACFE1D0E002
:102E0000D701C6010C2E04C0B695A7959795879556
:102E10000A94D2F780FD04C0219790F7B12C09C025
:102E2000BC2EB8018C2F0E94170F0E94300F019703
:102E300099F38B2DCDB7DEB7E9E00C94151ACF933B
:102E4000DF93EC010E94E316BE010E94170F0E945F
:102E5000300FDF91CF910895292F9E3080F5863075
:102E600070F590E036E0239F800D911D1124682FAE
:102E7000677023E0969587952A95E1F725E0289FCE
:102E8000F001299FF00D1124ED5BFD4F40E050E073
:102E900080E0219130E0062E02C0369527950A94F5
:102EA000E2F721703327042E01C0220F0A94EAF7BB
:102EB000822B4F5F5F4F4530510559F7089580E0F1
:102EC0000895292F9E3090F5863080F590E036E009
:102ED000239F800D911D1124282F277051E001C0E0
:102EE000550F2A95EAF723E0969587952A95E1F7FD
:102EF00025E0289FF001299FF00D1124ED5BFD4F87
:102F000020E030E070E04081CB01022E02C09695B7
:102F100087950A94E2F78170819584278523842719
:102F200081932F5F3F4F2530310569F708950E9447
:102F3000EC0260931A0270931B0280931C02909320
:102F40001D020E94D61608950F931F9341E050E092
:102F500060E070E004C0440F551F661F771F8A951C
:102F6000D2F7409550956095709580911A02909196
:102F70001B02A0911C02B0911D028A019B01082333
:102F800019232A233B23C901B8010E9497171F91D7
:102F90000F9108950F931F9341E050E060E070E0BF
:102FA00004C0440F551F661F771F8A95D2F7809182
:102FB0001A0290911B02A0911C02B0911D028A017D
:102FC0009B01082B192B2A2B3B2BC901B8010E940E
:102FD00097171F910F9108956093FD017093FE0163
:102FE0008093FF01909300020E94D6160895FC0181
:102FF000808191810E941F1792959F70963079F081
:1030000010F4925001C09A50923068F4803F69F0F9
:1030100018F4883E40F409C0843F29F406C0883E75
:1030200020F0813F11F080E0089581E008958091C3
:103030000601882331F080914D0187FF02C08EE1A7
:1030400001C086E0E4E8F1E0DF011D928A95E9F72E
:103050000E94D6160895882321F00E943B110E94F9
:1030600042110895882339F090915301892B809360
:1030700053010E9442110895882349F1682F8CEF73
:10308000860F813A28F482E891E00E94B9140CC0BE
:1030900080E2860F883058F4677081E001C0880FA5
:1030A0006A95EAF70E943B110E94421108958BE550
:1030B000860F833028F480E090E00E94F714089592
:1030C000685A673120F480E090E00E94E11408958E
:1030D000CF93882309F49AC0C82F8CEF8C0F813AC4
:1030E00008F05EC0809106018823E1F080914D01D7
:1030F00087FF18C0EC2FE695E695E695F0E0EE57D1
:10310000FE4F8281282F30E04C2F477081E090E005
:1031100002C0880F991F4A95E2F782239323892BD7
:1031200059F411C0E4E8F1E08191C81729F081E079
:10313000EA38F807C9F707C06C2F82E891E00E94CF
:10314000B9140E944211809106018823C9F0809130
:103150004D0187FF15C0AC2FA695A695A695B0E0AA
:10316000AE57BE4FC77081E090E001C0880FCA958E
:10317000EAF712969C911297892B12968C9320C095
:10318000A4E8B1E0EFEF80E09D91C917C9F0EF3FEF
:1031900019F4911101C0E82F8F5F8630A9F72DC077
:1031A00080E28C0F883078F4C77081E090E001C035
:1031B000880FCA95EAF790915301892B80935301A8
:1031C0000E94421123C0EBE5EC0FE33040F4F0E045
:1031D000EB5EFE4F808190E00E94F71417C0C85A42
:1031E000C731A0F4EC2FF0E0EE0FFF1FE85EFE4FBA
:1031F000808191810E94E11409C0EF3F09F30E2EF6
:10320000000CFF0BEE57FE4FC283DACFCF9108952B
:103210001092B9008CE08093B8000895A0E0B0E06F
:10322000E4E1F9E10C94F719B82EEB010E94C60E07
:103230006C01C431D10558F0CF3F8FEFD80759F05A
:10324000CE0164E170E00E94DC197B0107C0EE242E
:10325000E394F12C03C025E0E22EF12C84E8A82EA3
:1032600094EA992E1092BC009092BC000E94C60E67
:103270008C018091BC0087FD08C00E94C60E801B97
:10328000910B8E159F05A8F32AC08091B900887F05
:10329000883041F08091B900887F803119F00FEFBC
:1032A0001FEF1FC0B092BB00A092BC000E94C60ED0
:1032B0008C018091BC0087FD08C00E94C60E801B57
:1032C000910B8E159F05A8F30AC08091B900887FE5
:1032D000883111F0803419F700E010E00EC00EEFD5
:1032E0001FEFCF3F8FEFD80709F4BCCFC6010E9474
:1032F000B70E8C179D0708F4B5CFC801CDB7DEB760
:10330000EBE00C94131A0F931F93CF93DF93EB0111
:103310008093BB0084E88093BC000E94C60E8C01A1
:103320008091BC0087FD0EC0CF3F8FEFD807C1F35F
:103330000E94C60E801B910B8C179D0788F38EEFA1
:103340009FEF0CC02091B900287F81E090E02832E7
:1033500011F480E090E0919581959109DF91CF91F2
:103360001F910F9108950F931F93CF93DF93EC015B
:1033700084E88093BC000E94C60E8C018091BC0042
:1033800087FD0EC0CF3F8FEFD807C1F30E94C60E56
:10339000801B910B8C179D0788F38EEF9FEF03C066
:1033A0008091BB0090E0DF91CF911F910F91089524
:1033B00084E98093BC000895AA1BBB1B51E107C0A0
:1033C000AA1FBB1FA617B70710F0A61BB70B881FB5
:1033D000991F5A95A9F780959095BC01CD01089544
:1033E0002F923F924F925F926F927F928F929F9215
:1033F000AF92BF92CF92DF92EF92FF920F931F9303
:10340000CF93DF93CDB7DEB7CA1BDB0B0FB6F894B3
:10341000DEBF0FBECDBF09942A88398848885F84F3
:103420006E847D848C849B84AA84B984C884DF8064
:10343000EE80FD800C811B81AA81B981CE0FD11D48
:103440000FB6F894DEBF0FBECDBFED010895F99918
:10345000FECF92BD81BDF89A992780B50895A6E167
:10346000B0E044E050E00C94611AA8E1B0E042E022
:1034700050E00C94611A262FF999FECF92BD81BDC0
:10348000F89A019700B4021639F01FBA20BD0FB6A2
:10349000F894FA9AF99A0FBE08950396272F0E947E
:1034A0003C1A0E943B1A252F0E943C1A242F0C9490
:1034B0003C1A0196272F0E943C1A0C943B1ADC01FF
:1034C000CB01FC01F999FECF06C0F2BDE1BDF89A2F
:1034D000319600B40D9241505040B8F70895EE0F68
:1034E000FF1F0590F491E02D09940F931F93CF9344
:1034F000DF938230910510F482E090E0E0917C024D
:10350000F0917D0220E030E0A0E0B0E0309719F1CA
:10351000408151810281138148175907C8F08417EF
:10352000950769F4109731F012960C931297139641
:103530001C9327C000937C0210937D0222C02115AA
:10354000310519F04217530718F49A01BD01EF0134
:10355000DF01F801DBCF21153105F9F0281B390B0C
:103560002430310580F48A819B816115710521F039
:10357000FB019383828304C090937D0280937C023D
:10358000FE01329644C0FE01E20FF31F8193919336
:1035900022503109398328833AC020917A02309130
:1035A0007B02232B41F420910201309103013093DF
:1035B0007B0220937A0220910001309101012115B4
:1035C000310541F42DB73EB74091040150910501FA
:1035D000241B350BE0917A02F0917B02E217F3078E
:1035E000A0F42E1B3F0B2817390778F0AC014E5F73
:1035F0005F4F2417350748F04E0F5F1F50937B0233
:1036000040937A028193919302C0E0E0F0E0CF0111
:10361000DF91CF911F910F910895CF93DF93009782
:1036200009F481C0FC01329713821282A0917C02BE
:10363000B0917D02109781F420813181820F931F18
:1036400020917A0230917B022817390751F5F093C7
:103650007B02E0937A0267C0ED0120E030E0CE17F4
:10366000DF0740F44A815B819E0141155105F1F06D
:10367000EA01F5CFD383C28340815181840F951F26
:10368000C817D90759F488819981840F951F02962C
:10369000918380838A819B81938382832115310565
:1036A00029F4F0937D02E0937C023DC0E901FB83A5
:1036B000EA8349915991C40FD51FEC17FD0761F4B6
:1036C00080819181840F951F0296E90199838883F7
:1036D000828193819B838A83E0E0F0E012968D9152
:1036E0009C911397009719F0FD01DC01F7CF8D91A4
:1036F0009C9111979D012E5F3F4F820F931F209148
:103700007A0230917B022817390769F4309729F43F
:1037100010927D0210927C0202C013821282B0933A
:103720007B02A0937A02DF91CF910895FB01DC0127
:1037300004C08D910190801921F441505040C8F788
:0A374000881B990B0895F894FFCF41
:10374A0000007E02200001BF09F709BE09F209ED57
:10375A0009BD092000818283E200E900EA00B50080
:10376A00B600B700CD008301CC008A019201940112
:10377A002102230224022502260227022A02B3007A
:06378A00B4006F007000A6
:00000001FF
