:100000000C9437030C9454030C9454030C94540331
:100010000C9454030C9454030C9454030C94540304
:100020000C9454030C9454030C94361C0C94F11A45
:100030000C94AC1D0C9454030C9454030C94540372
:100040000C9454030C9454030C9454030C945403D4
:100050000C9454030C946B1D0C9454030C94540393
:100060000C9454030C9454030C9454030C945403B4
:100070000C9454030C9454030C9454030C945403A4
:100080000C9454030C9454030C9454030C94540394
:100090000C9454030C9454030C9454030C94540384
:1000A0000C9454030C9454030C94540337043C04F0
:1000B00046043A043F04440442046B066B069E0661
:1000C0009E06090726082608260827079B07AC076F
:1000D000AC078C098F099209950998099B099E091B
:1000E0003E186518FD196518FD19AD18D018FD19D1
:1000F000BF19D21900010101010101010101020230
:1001000002020202020202030303030303030304C5
:100110000404040404040505050505060606060690
:10012000070707070708080808090909090A0A0A4A
:100130000B0B0B0C0C0C0D0D0D0E0E0E0F0F0F10EC
:100140001011111112121313141415151616171776
:10015000181819191A1A1B1B1C1D1D1E1E1F2020E2
:10016000212222232424252626272829292A2B2C2C
:100170002D2D2E2F30313232333435363738393A4F
:100180003B3C3D3E3F404142434445464748494A47
:100190004C4D4E4F50515354555658595A5B5D5E15
:1001A0005F616264656668696B6C6D6F70727375B0
:1001B00077787A7B7D7E8082838587888A8C8E8F14
:1001C00091939596989A9C9EA0A2A3A5A7A9ABAD42
:1001D000AFB1B3B5B7BABCBEC0C2C4C6C9CBCDCF30
:1001E000D1D4D6D8DBDDDFE2E4E7E9EBEEF0F3F5DE
:1001F000F8FAFDFF29002B003500E100E0000000C7
:100200001E00140004001D0001002C411F001A00F4
:1002100016001B000100E300200008000700060094
:1002200001002A002100150009001900E200010068
:10023000220017000A00050000002302230001002D
:100240000000010000003E002400010000002E001C
:100250000000010025001C000B001100000021021D
:10026000260018000D0010006574010027000C0026
:100270000E00360001002C002F0012000F00370086
:100280000100280030001300330038000100010095
:100290002D0031003400E5000100000001000100E4
:1002A00001000100010000003A000100010001000E
:1002B000010001003B004F010100010001000100AD
:1002C0003C00010001000100010001003D000100AF
:1002D00001000100010001003E0001000100500189
:1002E000000001003F0001000000010000000100CB
:1002F0004000010000000100000001004100010079
:100300005000010000000100420001005100010006
:100310000100010043000100520001000100010042
:10032000440001004F0001000100010045000100F0
:100330000100010001000100460001000100010070
:10034000C35C000005010980A101850319012AB7DA
:1003500000150126B700950175108100C0050C0934
:1003600001A101850419012AA002150126A0029508
:100370000175108100C005010906A1018506050768
:1003800019E029E715002501950875018102050787
:10039000190029EF1500250195F075018102050866
:1003A00019012905950575019102950175039101C2
:1003B000C005010906A101050719E029E715002577
:1003C00001950875018102950175088101050719DC
:1003D0000029FF150026FF00950675088100050815
:1003E0001901290595057501910295017503910182
:1003F000C009023B00020100A0FA09040000010349
:1004000001010009211101000122400007058103BB
:100410000800010904010001030000000921110185
:100420000001226D00070582032000011201000275
:100430000000000897327649010001020001200304
:100440004500720067006F0044006F0078002000D4
:1004500045005A00200047006C006F007700000044
:1004600028035A0053004100200054006500630037
:1004700068006E006F006C006F006700790020005C
:100480004C00610062007300000004030904004492
:1004900034540074648400554565008575950036B4
:1004A000264600665676009686A6003727470077D0
:1004B00067870038284800887898003929490069FA
:1004C0005979009989A9003A2A4A006A5A7A003B68
:1004D0002B4B006B5B7B004C3C5C007C6C8C005DB0
:1004E0004D6D008D7D9D003E2E4E006E5E7E014462
:1004F0003454017464840155456501857595013650
:10050000264601665676019686A60137274701776B
:100510006787013828480188789801392949016995
:100520005979019989A9013A2A4A016A5A7A013B03
:100530002B4B016B5B7B014C3C5C017C6C8C015D4B
:100540004D6D018D7D9D013E2E4E016E5E7E000043
:10055000000000000000000000000000000000009B
:10056000000000000000000000000000000000008B
:10057000000000000000000000000000000000007B
:10058000000000000000000000000000000000006B
:10059000000000000000000000000000000000005B
:1005A000000000000000000000000000000000004B
:1005B000000000000000000000000000000000003B
:1005C000000000000000000000000000000000002B
:1005D000000000000000000000000000000029FFF3
:1005E000FF29FFFF29FFFF29FFFF29FFFF00000070
:1005F0000000000000000000000000005CDACC5C9D
:10060000DACC5CDACC5CDACC000000000000000040
:1006100000000000000000000000000000000000DA
:1006200000000000000029FFFF29FFFF29FFFF292C
:10063000FFFF29FFFF0000000000000000005CDA5F
:10064000CC000000000000000000000000000000DE
:100650000000005CDACC0000000000000000000098
:100660000000000000000000000000000000112455
:100670001FBECFEFDAE0DEBFCDBF12E0A0E0B1E0F9
:10068000EAEAF5E502C005900D92A034B107D9F76A
:1006900024E0A0E4B2E001C01D92A83CB207E1F75B
:1006A0000E94E11E0C94D32A0C940000982F92957E
:1006B0009F7019F0892F24E001C020E0982F9695B3
:1006C000969511F02E5F892F982F969509F02F5F40
:1006D000822F08951092C4020E949E242FEF84E37B
:1006E0009CE0215080409040E1F700C000009AE07B
:1006F00088E10FB6F894A895809360000FBE9093A0
:100700006000FFCFA7E1B0E0E8E8F3E00C94A72693
:100710004B8B5C8B6D8B7E8B8F8B61111092BC022F
:1007200086E09E01235F3F4FD901E82F1D92EA9595
:10073000E9F795E0FE017396D90101900D929A9523
:10074000E1F79C894E895F897B897D879E876F87CA
:10075000598B488BF901DE01179601900D928A950D
:10076000E1F7CE0107960E94481381113EC086E052
:10077000FE013796DE01119601900D928A95E1F700
:10078000FF81E8856A857B856115710531F0EF3F52
:1007900031F481E0FF3F19F403C081E001C080E043
:1007A00080FD23C02091690230E0C9010196877065
:1007B000992740919A0250E08417950779F1F983BF
:1007C000EA837D836C8396E0929FD001939FB00D66
:1007D0001124A659BD4FFE01319601900D929A95B4
:1007E000E1F7809369020E94D51216E080919A0287
:1007F00090916902891709F1189FC0011124865947
:100800009D4F0E9448138823C1F080919A0290E086
:1008100001968770992780939A02E8CF1092C402BC
:100820000E949E241092690210929A02E3E6F2E07E
:1008300086E0DF011D928A95E9F76796E3E00C9464
:10084000C326CF93C82F0E94560356985E982598CA
:100850002D9826982E9827982F9890E0FC01319794
:10086000E730F105A8F4EA5AFF4F0C949F29259A26
:100870002D9A0EC0259A2D9A269A2E9A09C0259A4D
:100880002D9A04C0259A2D9A269A2E9A279A2F9A45
:100890008C2FCF910895AAE0B0E0E1E5F4E00C944C
:1008A0009F26FC018081918123813481232B31F0AB
:1008B0009F3F31F491E08F3F19F403C091E001C0F4
:1008C00090E090FD00C47F0185E0DE011696019066
:1008D0000D928A95E1F7F70122818E819F81222373
:1008E00049F00E94B423182F682F8E819F810E94A7
:1008F000242403C00E94F023182F6E817F81812F52
:100900000E9422108C01F70182810F3AFDE51F073A
:1009100059F0003B2DE5120709F440C0033C9CE56B
:10092000190709F075C05CC0882309F47DC0909157
:100930009E0481E0890F8770987F853020F4892B91
:1009400080939E0402C090939E0480919E048770C1
:10095000EFEF8E9FC001112495958795959587950A
:100960009927909389008093880090938B008093BF
:100970008A0090938D0080938C0040919E0450914A
:100980009F046091A0047091A1048FE090E00E9408
:100990007A2780919D040E94210442C0882309F493
:1009A00043C080919E0483FB222720F991E0922787
:1009B00090FB83F980939E04992329F040E060E046
:1009C00080E00E94F00B40919E0450919F04609142
:1009D000A0047091A1048FE090E00E947A2720C0CB
:1009E000882309F461C39091FD028091F7029F3F33
:1009F00059F41092FD0281608093F70240E060E0BC
:100A000080E00E94F00B50C39FEF9093FD0272C0F4
:100A1000013BFDE51F0721F4882309F445C39DC070
:100A2000F701828181119FC08091C40282720B3CC8
:100A30002CE5120709F480C098F5063CECE51E078A
:100A400009F466C0B8F4043C2CE5120709F456C05A
:100A500008F059C0033CECE51E0709F0EFC0909187
:100A6000F80281E089278093F80210920E018091AC
:100A7000F70240C0083CFCE51F0709F453C008F426
:100A80004CC0093C9CE5190709F451C00A3CECE54F
:100A90001E0709F0D3C047E951E264EA71E25AC087
:100AA000003DFCE51F0709F45AC098F40D3C9CE595
:100AB000190709F44BC008F444C00E3CFCE51F07BD
:100AC00009F44BC00F3C2CE5120709F0B7C085E0D4
:100AD00047C0073D8CE5180738F4023D9CE519072F
:100AE00008F0E2C281E13CC00F35EDE51E0709F4D4
:100AF000DBC2A4C081608093F702D6C24FED51E201
:100B000069EE71E227C049EE51E26FED71E222C059
:100B10004BEC51E265ED71E21DC045ED51E26BEC2D
:100B200071E218C041EB51E26EEB71E213C04EEB83
:100B300051E261EB71E20EC044EA51E267E971E211
:100B400009C049EB50E267EC70E204C047EC50E2A8
:100B500069EB70E20E94361EA7C281E001C08CE002
:100B60000E949715A1C20C35FDE51F0709F461C06D
:100B700058F401158CE5180799F00F3D1C4509F054
:100B80005DC00E94C4114BC00E35EDE51E0709F48F
:100B900048C008F450C0093A1D4509F440C04EC091
:100BA0001092C4020E949E248FEF94E3ECE08150E7
:100BB0009040E040E1F700C00000F89481E08093AD
:100BC000E00080E28093D8001092C9008FE19EE49B
:100BD0000197F1F700C000001DBA109268001CBC1C
:100BE00010BE1FBA10927A0010926E0010926F0021
:100BF00010927100109272001092C9001092BC0005
:100C000014B817B81AB81DB810BA1092BC0015B8AD
:100C100018B81BB81EB811BA0C94003F45C20E9408
:100C20006A038091660482FB882780F991E0892716
:100C300003C081E001C080E00E94B912F701828107
:100C400000811181882349F0C8010E94B423D82E65
:100C5000682FC8010E94242404C0C8010E94F02308
:100C6000D82EB8018D2D0E9422100E943B10B82E64
:100C7000192F982EF7010281A580A2949FE0A92246
:100C800080919B028770B9F00023A9F0812F807FAB
:100C9000803421F080E28B0D883068F0809166040A
:100CA00082FF09C082E00E949C1280919B028770A3
:100CB000DD24D3948111D12CC12EC2948FE0C8229F
:100CC0008C2D90E08C30910508F0C0C1FC01E35AF6
:100CD000FF4F0C949F29812F807F1F70882311F074
:100CE0001295107F0023B9F0112309F49DC180E211
:100CF0008B0D883010F0911006C08091C402182B23
:100D00001093C40205C08091BC02182B1093BC0242
:100D10000E94471289C18B2D0E94C324112309F41C
:100D200095C180E28B0D883080F1992071F110958A
:100D30008091BC0218231093BC022AC0812F807FAF
:100D40001F70803211F01295107F8B2D992021F0A9
:100D5000F1E09F16D9F147C08091660482FD1BC067
:100D6000002369F0112339F08091C402182B1093ED
:100D7000C4020E94471280E00E94EF2467C180E015
:100D80000E94C324112309F461C1812F0E944012E3
:100D90000E9447125BC1002381F08091BD02AA200E
:100DA00051F021E0A21207C0182B181709F44EC108
:100DB0001093BD024BC1812B10C0AA2021F081E00D
:100DC000A81609F443C10E943A121FC0002341F043
:100DD00091E09A1508F43AC1812F0E94B92436C1D6
:100DE000A11034C112C0002319F0AA20A9F31CC11C
:100DF000AA2059F0893309F026C1EFEFF7EE23E07E
:100E0000E150F0402040E1F71CC1812F0E94B22444
:100E10001DC1812F86958695837019F0813061F010
:100E200015C1002321F08B2D912F937002C080E01B
:100E300090E00E94131E10C1002321F08B2D912FF2
:100E4000937002C080E090E00E94FD1D05C1812FDB
:100E50008370A9F50111FEC04B2D42954695477050
:100E6000440F440F8B2D8F7090E09C01042E01C025
:100E7000220F0A94EAF7B4FE08C08FE090E001C0A8
:100E8000880F4A95EAF7809501C080E0169516957F
:100E90001370123069F088F49091BE02113019F08D
:100EA000822B892302C0922B892B0E947924D2C0E5
:100EB000822B9091BE028927F8CF822BF6CF002398
:100EC00019F0812F817001C08695882309F4C2C072
:100ED0004B2D429546954770440F440F8B2D8F70D4
:100EE00090E09C01042E01C0220F0A94EAF7B4FEA0
:100EF00008C08FE090E001C0880F4A95EAF780951E
:100F000001C080E0169516951370123059F078F4F0
:100F100090919D04113019F0822B892309C0922BE6
:100F2000892B06C0822B90919D04892701C0822BBA
:100F30000E9459248FC01F70002339F0812F0E9416
:100F40006D248B2D0E94B92485C08B2D0E94B22464
:100F5000812F0E9460247EC08B2D92EF991669F13B
:100F6000991538F0E0EF9E1659F0F1EF9F1601F158
:100F700057C023EF921641F194EF9916A9F050C093
:100F8000002369F0A11062C01F7181E090E001C0F0
:100F9000880F1A95EAF790919D0489271FC0E1E018
:100FA000EA1508F453C0F0CF8091660482FD19C0A1
:100FB000002329F0812F8F7126C00023D9F3812FC0
:100FC0008F710E94602442C0002339F01F7181E0BC
:100FD00001C0880F1A95EAF701C080E00E945924E9
:100FE00035C0002399F01F71812F0E946D248091DC
:100FF000660482FF07C0F8E01F9FC00111248360D0
:1010000080939B02812F0E946D2420C081E00E946A
:101010009C1221E02A15D0F482E00E949C1216C096
:10102000002321F0AA2031F28B2DA6CEAA2039F27E
:10103000893349F48FEF97EEE3E081509040E04030
:10104000E1F700C000008B2D0E94C32488EF8C0DB7
:10105000843010F40E94291EDD20A9F080919B02AB
:1010600080FD11C0F70112828595859585950E94B6
:101070006D24C7010E944B0480919B028595859544
:1010800085950E94602485E0F701DE0111960190AC
:101090000D928A95E1F709811A81C8010E94F02317
:1010A000B8010E9422100FC080919B02877059F0F6
:1010B000F7018281882339F08091660482FF03C0A2
:1010C00082E00E949C122A96EBE00C94BB2680E200
:1010D00090E090931C0180931B018091420281114A
:1010E0000EC00E948F2581E0809342022FEF83ED96
:1010F00090E3215080409040E1F700C0000064E69A
:1011000070E080E40E94952590931C0180931B0160
:10111000892B09F04EC064E670E080E00E940A2648
:1011200090931C0180931B01892B09F042C064E657
:1011300070E080E00E940A2690931C0180931B01BE
:10114000892BB9F564E670E08FE30E940A2690933C
:101150001C0180931B01892B61F50E94802664E6A7
:1011600070E080E40E94952590931C0180931B0100
:10117000892BF9F464E670E08CE00E940A269093D3
:101180001C0180931B01892BA1F464E670E080E0D0
:101190000E940A2690931C0180931B01892B49F41D
:1011A00064E670E08FE30E940A2690931C0180930E
:1011B0001B010E94802680911B010895CF93DF932D
:1011C00056985E9825982D9826982E9827982F98AF
:1011D000C8E8D0E08FEF90E099838883AAE8B0E078
:1011E00011969C938E93ECE8F0E091838083259A8E
:1011F0002D9A2FEF80E792E0215080409040E1F758
:1012000000C00000269A2E9A2FEF80E792E021502E
:1012100080409040E1F700C00000279A2F9A2FEFFE
:1012200080E792E0215080409040E1F700C000004C
:1012300025982D982FEF80E792E021508040904034
:10124000E1F700C0000026982E982FEF80E792E08B
:10125000215080409040E1F700C0000027982F986F
:1012600080919E0487702FEF829FC0011124959575
:1012700087959595879599279983888311969C934F
:101280008E939183808356985E9825982D98269802
:101290002E9827982F98DF91CF910895CF93E82F1C
:1012A000873080F580911B0190911C01892B09F0FA
:1012B00047C0CE2F64E670E080E40E9495259093AD
:1012C0001C0180931B01892BD1F464E670E082E15C
:1012D0000E940A2690931C0180931B01892B79F4AC
:1012E00081E090E001C0880FCA95EAF764E670E0FB
:1012F00080950E940A2690931C0180931B010E94F6
:1013000080261EC090E0FC013797E730F105C0F45D
:10131000E759FF4F0C949F29209A289811C0219AD1
:1013200029980EC0229A2A980BC0239A2B9808C09D
:10133000529A5A9805C0539A5B9802C03E9A4698B2
:10134000CF910895209828982198299822982A9832
:1013500023982B9852985A9853985B983E984698A1
:101360000895CF93873040F580911B0190911C0127
:10137000892B59F564E670E081E40E9495259093ED
:101380001C0180931B01892B11F0C0E011C084E681
:1013900090E00E943A2697FF05C090931C0180932D
:1013A0001B01F3CFC82FC09510921C0110921B0196
:1013B0000E9480268C2F0AC09FB18FB1807F8695B6
:1013C00086959370892B809501C080E0CF91089518
:1013D0008098889A8198899A84988C9A85988D9A11
:1013E00086988E9A87988F9A08950F931F9310E08E
:1013F000F801EE0FFF1FE155FE4F9081905797FDCA
:101400009195000F111FF801E055FE4FE081F0E0CB
:10141000B097DF01AA0FBB1F8D010E0F1F1F200306
:10142000D001219FB00D1124E8E3F0E0E91BF109A0
:1014300097FDF3959F01220F331F89010E0F1F1F88
:1014400040039001419F300D11242A0F3B1F37FFAD
:1014500002C021583F4F220F232F221F330B620F50
:101460001F910F9108950F931F93522F10E0F801D1
:10147000EE0FFF1FE055FE4FE081F0E0B097EE0F5A
:10148000FF1F9F015203D001539FB00D1124000F85
:10149000111FF801E155FE4F008110E000571109BE
:1014A000000F111F40039001419F300D11242A0F9E
:1014B0003B1F37FF02C021583F4F220F232F221F0F
:1014C000330B620F1F910F9108950F931F93522FAB
:1014D00010E0F801EE0FFF1FE055FE4FE081F0E055
:1014E000B0979F015203D001539FB00D1124000FFC
:1014F000111FF801E155FE4F008110E0005711095E
:1015000040039001419F300D11242A0F3B1F37FFEC
:1015100002C021583F4F220F232F221F330B620F8F
:101520001F910F910895EF920F931F9393E0099FDE
:1015300080011124159507956E2D600F1F910F9155
:10154000EF900895A22F50E0FA01EE0FFF1FE05533
:10155000FE4F9081905297FD9195440F551FFA01CF
:10156000E155FE4F3081232F30E02A1B3109290F2E
:10157000311D97FD3A95620F0895E42FF0E0EE0FCC
:10158000FF1FE055FE4F6081621B0895E42FF0E0DD
:10159000EE0FFF1FE155FE4F6081621B0895E42F9F
:1015A000F0E0EE0FFF1FE155FE4F408134EE439F08
:1015B000412D1124E82FF0E050E0445E5F4FDA0146
:1015C000A21BB1099D01B7FF03C0319521953109D7
:1015D00093E0220F331F9A95E1F7AF01421B530BA3
:1015E0009A0157FF02C020E030E0582F259F212D9F
:1015F0001124822F0895E42FF0E0EE0FFF1FE15534
:10160000FE4F408134EE439F412D1124E72FF0E03F
:1016100050E0445E5F4FDA01A21BB1099D01B7FFA4
:1016200003C031952195310993E0220F331F9A951C
:10163000E1F7AF01421B530B9A0157FF02C020E0B4
:1016400030E0279F212D1124722F0895FC019B016A
:10165000009721F477FF2BC080E80895AC0197FF35
:1016600004C044275527481B590BB901640F751F47
:1016700037FD0CC0241B350BC901A5E0880F991F4D
:10168000AA95E1F70E948B2980E20CC0CB0165E0AE
:10169000880F991F6A95E1F7BA01621B730B0E94CC
:1016A0008B2980E6861BF7FF03C08195089580E0B3
:1016B0000895EF920F93CF93DF93D72FC82FC901CF
:1016C0000E19BA010E94260B602F681B7D2F8C2FEC
:1016D000DF91CF910F91EF9008950F93CF93DF9308
:1016E000D72FC82FC901BA010E94260B682F600F9F
:1016F0007D2F8C2FDF91CF910F910895EF920F9353
:101700001F93CF93DF93D62FC72F182FC9010E1920
:10171000010FBA010E94260B081B202F219F212DAB
:101720001124822F6D2F7C2FDF91CF911F910F916C
:10173000EF900895EF920F931F93CF93DF93D62FDF
:10174000172FC82FC9010E19070FBA010E94260BC7
:10175000702F781B719F712D11246D2F8C2FDF91AD
:10176000CF911F910F91EF900895FF920F931F93C8
:10177000CF93DF93F62ED72F182FC901C12FC01B8F
:10178000BA010E94260B982F990F890FC81B2C2F86
:10179000219F212D1124822F6F2D7D2FCDB7DEB7F4
:1017A000E5E00C94C126FF920F931F93CF93DF9334
:1017B000F62E172FD82FC901C72FC01BBA010E94C0
:1017C000260B982F990F890F7C2F781B719F712DF5
:1017D00011246F2D8D2FCDB7DEB7E5E00C94C12617
:1017E0000E94D81A08950E949A1A0895E8EFF2E02C
:1017F00081E3808380911F0190912001A0912101BC
:1018000081839283A3838CE384838FEF858346E077
:1018100050E06CE170E0CF010E9458271092F7026F
:101820000895482F982F46FD9095E92FEF739F70EC
:1018300046FD9F5FE295EF70EE0FF0E0EE5DFE4F2C
:101840002181299F802D212D112482958F70229531
:10185000207F822B3081982F930F892F47FD819510
:1018600080580895BC018230910508F40895613EC6
:101870008EE1780748F49B0195E0369527959A9577
:10188000E1F748E0420F01C04FEF91E0242F30E034
:10189000290F311D35952795229FF001239FF00DCB
:1018A000F00D11246E177F0718F44FEF420F04C09C
:1018B0002F3F39F091E0920F491740F78FEF890FD2
:1018C00008958FEF08950F93CF93DF93D72FC82FED
:1018D00047FD4195E8E3F0E0CF01841B910947FD06
:1018E0009395889FB001899F700D700D1124229FE0
:1018F000C001239F900D900D1124860F971F0E9409
:10190000320C682F660F860F682F600F7D2F8C2F8B
:10191000DF91CF910F91089520E030E0869F212D37
:10192000969F200D311D1124C9010895A0E0B0E05B
:10193000ECE9FCE00C94A226F62E472FE82FF0E00D
:10194000711106C0EC50FF4F8491782F682F73C03F
:10195000272F30E0EC50FF4FE491FE2F0E2F10E0C8
:1019600056E0659FC0011124CFEFD0E0BE010E9478
:1019700084265BEA5603C001579F900D11248F0DFA
:10198000911D8F0D911D982F990F980F7E01E21ACE
:10199000F30AE09ED001E19EB00DF09EB00D11243F
:1019A0008B2F499FA0011124452F55277E01E41A52
:1019B000F50AE09EA001E19E500DF09E500D11240D
:1019C0006E01C91AD108C29E7001C39EF00CD29E4E
:1019D000F00C11242F2D3327C21BD30BC09F900175
:1019E000C19F300DD09F300D1124932F62307105AF
:1019F00091F048F461157105E1F061307105B9F4B9
:101A00009E2FE52F16C06430710569F040F06630F6
:101A1000710579F00CC09E2FEB2F832F0AC0EB2F9E
:101A20008F2F952F06C09B2F8E2FE32F02C09B2F49
:101A3000852F7E2F692FCDB7DEB7E8E00C94BE2648
:101A4000A0E0B0E0E6E2FDE00C94A126C82F809172
:101A50001E018C130DC02091F802237030E04091DC
:101A60001D0150E081E02417350719F480E001C022
:101A700081E0817080930D018091FD0290910C01B5
:101A8000981739F080930C0140E060E080E00E94FC
:101A9000F00BCC3029F486EC9AE00E94D71639C0BE
:101AA000CD3008F097C1C53009F447C008F06FC1C8
:101AB000C23009F085C080910B01D82FDD0FDD0FFA
:101AC000D80FA5E0EA2EED0E20E32E1510F4F0E37A
:101AD000EF2E0091FA021091FB02F090F9026F2DA7
:101AE000702F812F0E94960CD62EC72EB82E609193
:101AF000FC026F0D702F812F0E94960C162F072F5E
:101B0000F82EDE1508F48CC081E03FE23E1508F4A3
:101B100085C090910B019F5F90930B01811148C28A
:101B200082E080930E0180910D01811141C2C111AB
:101B30003FC283E080930E013BC280910B01D82FFE
:101B4000DD0FDD0FD80F15E01D0F113308F010E386
:101B5000F090F9020091FA02E090FB026091FC0221
:101B60006695669566958091F3029091F4020E94C5
:101B70008C0C0E94110C805887FD8195880F282FAE
:101B80003E2D239F212D1124822F6F2D702F0E9417
:101B9000960C062FF72EE82ED11790F5ED2FF0E0DA
:101BA000DF01A15FBD4F8C9190910C01982331F022
:101BB0002E2D402F6F2DCF010E94F30BDF5FECCF56
:101BC000C33008F056C0CC2301F1C13009F058C031
:101BD00080910B01D82FDD0FDD0FD80F15E01D0F01
:101BE000113308F010E36091F9027091FA028091CC
:101BF000FB020E94960C062FF72EE82ED11738F123
:101C000081E0103308F485CF09C080910D0188234D
:101C100029F040E060E080E00E94F00B80E079CFA6
:101C20008D2F90E0FC01E15FFD4F308120910C0190
:101C3000232359F030FF04C02F2D412F602F03C004
:101C40002B2D4D2D6C2D0E94F30BDF5F5ACFED2F06
:101C5000F0E0DF01A15FBD4F8C9190910C019823C2
:101C600031F02E2D402F6F2DCF010E94F30BDF5F3F
:101C7000C5CF80910B01C33049F0C43009F44AC08C
:101C800080910B018F5F80930B014ACFD82FDD0F1E
:101C9000DD0FD80FE5E0FE2EFD0E80E38F1510F46A
:101CA00070E3F72ED090FA02C090FB022091FC0264
:101CB00060E4E62E3E2D329F312D1124E32EDF15F8
:101CC00018F50D2F10E0F801E15FFD4F9081809134
:101CD0000C018923B9F0F801EE0FFF1FE055FE4F0C
:101CE000808182958F706091F9028E9D600D112424
:101CF0007D2D8C2D0E94960C462F282F672FC80112
:101D00000E94F30BDF5FDBCF81E09FE29F1508F0BD
:101D100000CF84CFD82FDD0FDD0FD80F15E01D0FBA
:101D2000113308F010E3D090FA02C090FB0220912A
:101D3000FC0200E4029F012D1124D11708F060CFAE
:101D4000ED2EF12CF701E15FFD4F908180910C01A8
:101D50008923D9F0F701EE0FFF1FE155FE4F608197
:101D6000069FB001112445E0759567954A95E1F706
:101D70008091F902680F7D2D8C2D0E94960C462FC4
:101D8000282F672FC7010E94F30BDF5FD6CFC83023
:101D900051F483ED9BE004C0CB30B8F485EB9BE0BD
:101DA0000E948116B6CEC93058F4C63019F48BEFB4
:101DB0009AE073CEC73009F063CF8FEC9AE06DCE16
:101DC000CA3051F78AE99BE002C08EE79BE00E948F
:101DD00005169FCEC23119F489E59BE0F8CFC331D7
:101DE000E8F4CF3019F483E99AE0F1CFC03158F428
:101DF000CD3019F48DEB9AE050CECE3009F040CFC3
:101E000082EA9AE04ACEC03119F483E69CE0C8CF5A
:101E1000C13109F035CF8DE69BE0C2CFC53129F441
:101E200085EF99E00E94B01574CEC63158F4C331E5
:101E300019F485E69AE0F6CFC43109F021CF83E3A7
:101E40009AE0F0CFC73109F040C080910D018111B7
:101E50001EC06091FC0220E1620F08F46FEF8091D8
:101E6000F3029091F4020E948C0C65E070E00E94F5
:101E70008426892B09F0D2CE0E941B2760E370E0F4
:101E80000E948B2960910C010E940122C7CE809193
:101E90000B01082F000F000F080FD5E0D00FD13332
:101EA00008F0D0E310E0ED2EF12C0E151F0544F4E0
:101EB00060910C01C8010E9401220F5F1F4FF5CFF6
:101EC00081E0D03308F425CEA9CEC73108F03CC05C
:101ED00080910D0181111EC06091FC0220E1620F12
:101EE00008F46FEF8091F3029091F4020E948C0C41
:101EF0006AE070E00E948426892B09F08FCE0E9450
:101F00001B2760E370E00E948B2960910C010E9406
:101F1000252284CE80910B01082F000F000F080F9F
:101F2000D5E0D00FD13308F0D0E310E0ED2EF12C46
:101F30000E151F050CF0C4CF60910C01C8010E9462
:101F400025220F5F1F4FF4CFCF3F09F099CE80912C
:101F5000F3029091F402A091F502B091F602882765
:101F60009C70AA27BB272AE0B695A79597958795D9
:101F70002A95D1F782309105A105B10571F0833022
:101F80009105A105B10569F040E00197A105B105F2
:101F900011F060E008C064E102C044E160E080E06C
:101FA00003C044E164E184E10E94F00B82E0C2CD11
:101FB000CDB7DEB7E9E00C94BD2680E0089590919E
:101FC000650492FF0DC0282F2871283019F4877FEF
:101FD000846006C0282F2471243011F48B7F886020
:101FE00093FF0DC0282F2871283119F4877E846152
:101FF00006C0282F2471243111F48B7E8861209132
:10200000660420FF0DC0382F3871383019F4877FEF
:10201000816006C0382F3171313011F48E7F8860B5
:1020200021FF0DC0282F2871283119F4877E816186
:1020300006C0282F2171213111F48E7E886194FD14
:10204000877E08957E30A0F4663090F494E5899FF1
:10205000F001112486E0789FE00DF11D1124E60FB8
:10206000F11DEE0FFF1FEC50FE4F859194910895E6
:1020700080E090E00895CF93DF938238910569F175
:10208000B0F48133910509F46FC048F489329105A9
:1020900009F465C08A32910509F46BC08AC08533A2
:1020A000910509F457C089339105B9F082C0833E88
:1020B000910571F138F4803E9105B1F0823E9105B1
:1020C00011F177C0863E9105B9F1873E9105C9F1BE
:1020D000843E910509F06DC024C02091650420FD67
:1020E00053C021FD51C065C08091650480FD46C08C
:1020F0008091660480FF48C08091650484FD3FC1E3
:1021000083EE90E03EC18091650482FF3AC0F4CF37
:102110008091650482FD35C08091660480FD34C0E5
:10212000EBCF8091660481FF35C08091650484FD0A
:1021300026C187EE90E025C18091650483FF27C00A
:10214000F4CF8091650483FD22C08091660481FDF7
:1021500021C0EBCF8091650485FD1FC021C0809117
:10216000650485FD1DC019C08091650486FD1BC0F6
:102170001DC08091650486FD19C015C089E390E0FB
:1021800000C182EE90E0FDC080EE90E0FAC086EEE5
:1021900090E0F7C084EE90E0F4C089E290E0F1C0F6
:1021A00085E390E0EEC08AE290E0EBC081E390E04E
:1021B000E8C0811532E5930708F069C0811541E553
:1021C000940728F0982F8827816F906ADAC0883E9C
:1021D000910568F5803E910508F0D3C0883A9105D5
:1021E000B8F4853A910548F0855AE82FF0E0E65DAD
:1021F000FE4F808190E09064C4C08130910509F465
:10220000BBC008F4BCC08430910508F4B8C0B9C0A4
:102210008F3B910508F0B3C0885AE82FF0E0EE0F2D
:10222000FF1FE35DFE4F808191819464AAC08115F8
:1022300020E59207F0F09C0174E0369527957A9599
:10224000E1F7922F9370482F437021E030E002C0F5
:10225000220F331F4A95E2F73C68392B8F70982F75
:102260009695969540E2949FC0011124822B932B62
:1022700088C0811530E4930718F09F70906A81C080
:102280009C013A9521153F4108F47BC078C0EC01D0
:10229000C11586E5D807E8F5C11525E5D20748F050
:1022A0008C2F0E94DF0F8F7190E0982F882790620B
:1022B00068C0C11534E5D30728F09C2F8827846FA8
:1022C000906A5FC0AE01437055272C2F2695269546
:1022D000C115D34578F481E090E002C0880F991FC2
:1022E0004A95E2F740E2249F90011124822B932B20
:1022F0009C6847C081E090E002C0880F991F4A9512
:10230000E2F740E2249F90011124822B932B9A68DC
:1023100038C0C1152AE5D207F8F4C11539E5D3074D
:1023200090F08C2F8F700E94DF0F94E0D695C795A8
:102330009A95E1F7CF70D0E0DC2FCC27D0699E01D1
:10234000282BC9011EC0C11548E5D407C0F09C2F39
:102350008827806F906A15C0CE01905681159042F3
:1023600070F48D2F8F710E94DF0F282F2F71CE01F7
:1023700099279062922B05C081E090E002C080E036
:1023800090E0DF91CF91089568EE7EEF80E090E0DD
:102390000E94862760E082E090E00E94682760E06B
:1023A00083E090E00E9468271092BE0260E084E023
:1023B00090E00E94682764E082E290E00E94682733
:1023C00060E085E090E00E94682760E086E090E0B1
:1023D0000E9468276FEF87E090E00E94682740E046
:1023E00050E0BA0188E090E00E947A2760E08DE03A
:1023F00090E00E94682740E050E0BA0188E190E058
:102400000E947A2760E087E190E00E94682740E020
:1024100050E0BA018CE190E00E947A2760E070E021
:1024200080E290E00E94862740E050E0BA0188E117
:1024300090E00E947A2710929E0410929F041092BE
:10244000A0041092A10484E080939E0440919E0415
:1024500050919F046091A0047091A1048FE090E0DE
:102460000E947A2740E050E0BA0183E190E00E94A8
:102470007A2708958091BD0281111092BD020895BE
:1024800080959091C40289238093C402089590910D
:10249000C4028091BC02982B909343028091BD02AC
:1024A0008823D9F0892B8093430280910A018823E5
:1024B00031F08091650487FF02C08EE101C086E0A3
:1024C000E5E4F2E090E0815028F021912223D9F355
:1024D0009F5FF9CF91110E943A1240E250E06CE9FF
:1024E00072E083E492E00E94C62A892B21F180E207
:1024F000E3E4F2E0ACE9B2E001900D928A95E1F7F5
:10250000E0915C04F0915D043097A9F080910A019C
:10251000882359F08091650487FF07C080914302AA
:102520008093440286E0809343020280F381E02D91
:1025300083E492E00995089520919B02809582237F
:1025400080939B02982F977099F430E0482F082EC3
:10255000000C550B2417350759F09091660492FF33
:1025600007C08595859585950E94602410929B02F1
:102570000895CF93C0916604C2FB992790F99817EC
:1025800091F080FBC2F9C09366046091650484E019
:1025900090E00E9468276C2F82E290E00E946827FA
:1025A00082E00E949C12CF91089580919A029091AE
:1025B0006902891719F08F5F8770FBCF08950F9319
:1025C0001F93CF93DF938091680282958F7009F0FB
:1025D0005AC080916502882309F455C080919A02FF
:1025E000109169026091630270916402C091660269
:1025F000D091670291E06F3F09F090E0292F06E04B
:10260000811709F440C0209721F07F3F21F030E08E
:1026100003C031E001C0322F90E030FD31C0089F8F
:10262000F001099FF00D1124DF01A659BD4F11964D
:102630003C911197371324C03C91361321C0129658
:102640003C91129731111CC013964D915C911497D7
:102650004C1B5D0B483C510598F4809168028F70CB
:10266000806180936802E159FD4F80818F708061A5
:10267000808383E692E00E944B040E94D51203C03F
:1026800001968770BDCFDF91CF911F910F91089573
:10269000A1E1B0E0EEE4F3E10C949F268C0185E02B
:1026A000F801DE011D9601900D928A95E1F7F8017F
:1026B000E2809091630260916402409166025091C1
:1026C00067024115510531F06F3F31F481E09F3FC2
:1026D00019F403C081E001C080E0F82FF1709F2E53
:1026E00080FD1BC1F80130812181C380D48083E645
:1026F000A82E82E0B82EF0906502F601E41BF50BDF
:10270000FF2009F4C7C080916802E83CF10508F099
:1027100092C0482F407F09F051C0621311C093133B
:102720000FC0FE2CE1100CC08F7080618093680296
:10273000C5010E944B0480916802F80185832AC17B
:10274000C114D10431F02F3F31F481E03F3F19F43F
:1027500003C081E001C080E080FD03C081E08E25E0
:1027600002C080E090E0F82FF170FF2E80FF1CC0C7
:1027700080919A024091690256E0841709F4E8C0FA
:1027800090E0589FF001599FF00D1124E659FD4F3C
:102790006181261306C06081631303C06281E61263
:1027A00003C001968770E9CFFE2CEE2009F4F2C039
:1027B0008091680281608093680249C0621306C0FC
:1027C000931304C0E11002C0F80186C0C8010E9442
:1027D0007E24882351F1EE2041F120916802822F5E
:1027E00082958F7090E0029774F0809163029091CF
:1027F000640298878F831986DB86CA862C87CE0170
:1028000007960E944B0486E0F801A3E6B2E001902F
:102810000D928A95E1F70E94DF120AC06217C9F093
:10282000C8010E947E2481111EC0C8010E944B0471
:10283000FF24F394AFC0482F407F81F783E692E0F6
:102840000E944B0486E0F50111928A95E9F7F12C7C
:10285000A1C09313E5CFE110E3CFF8018583C80150
:102860000E944B0454C0EE2001F320916802822F95
:1028700082958F7090E0029734F28091630290917C
:1028800064029A8389831B82DD82CC822E83CE01EF
:102890000196B7CFE83CF105D0F5FE2CEE2029F2E9
:1028A000621327C0931325C02091680220FD18C031
:1028B000822F82958F70482F50E04115510581F08D
:1028C000F80125834F30510541F08F5F982F929585
:1028D000907F822F8F70892B8583C8010E944B04C3
:1028E00086E0F801A3E6B2E001900D928A95E1F747
:1028F00051C0C8010E947E24811185CF8091680259
:10290000816080936802C8010E944B0443C086E046
:10291000F50111928A95E9F73DC0EE2009F485CFC3
:10292000C8010E947E24F82E882309F47ECF86E019
:10293000F801A3E6B2E001900D928A95E1F780914B
:102940006302909164020E94E3230E94DF1222C07E
:102950003D872E878D859E850E94E323292F229512
:102960002F70223028F49F7039F0811105C00BC000
:10297000243028F49F7049F4805E883020F0C8012C
:102980000E944B049F2CF92C05C0F8019581907F83
:1029900099F7F9CF8F2D6196EBE00C94BB26A0E060
:1029A000B0E0E5EDF4E10C94A12680911B0190913B
:1029B0001C01892BA1F08091BF028F5F8093BF0221
:1029C00081110DC00E94670890E090931C018093D4
:1029D0001B01892B21F40E94DE080E946D220DE666
:1029E00014E07801B12CC0E087E0C82ECC0E8C2F0B
:1029F0000E944E098C2D0E944E098C2F0E94B10915
:102A00008F73F7019081891721F08083DD24D3949F
:102A100001C0D12C8C2D0E94B1098F73F7019781D1
:102A2000891719F0878381E001C080E0D82ABD288A
:102A30000E94A209CF5FFFEFEF1AFF0AC730A1F68D
:102A4000C091C302CC23C9F10E94A01D2091C102F4
:102A50003091C202AC01421B530B9A019093C20207
:102A60008093C1024F3F510509F020F4452B09F432
:102A700054C002C02FEF30E01092C3021092C00287
:102A8000E0916B04F0916C04AF01425F5F4F90E006
:102A900030E08081882341F0281718F010829C2FA5
:102AA00003C0821B80833C2F3196E417F50789F71A
:102AB0003093C3029093C00230C0BB2031F10E941A
:102AC000A01D9093C2028093C102E0916B04F0912B
:102AD0006C048091C302ABE7B4E09F01225F3F4FDB
:102AE0004EE1E80199918E015C91591731F05081C6
:102AF000511103C040839C9381E031961196E217F7
:102B0000F30779F78093C3020CC080E09091C00274
:102B1000992339F08111D9CFD2CFB110D6CF81E02E
:102B2000F5CF8B2DCDB7DEB7E9E00C94BD269091A3
:102B3000F8029370A1F0811102C0946007C088313F
:102B400010F09C6503C0880F880F982B9093F802B3
:102B500010920E018091F70281608093F702089530
:102B6000A0E0B0E0E6EBF5E10C949F266C018091CB
:102B70000B01C82FCC0FCC0FC80F15E01C0F113361
:102B800008F010E36091FC02669566958091F3026F
:102B90009091F4020E948C0CD82F80E48D0F0E943B
:102BA000110C90E8F92EF80E8D2F0E94110C20E8E0
:102BB000922E980EC11700F5AC2EB12CF501E15FF5
:102BC000FD4F908180910C018923A1F06091F90261
:102BD0007091FA028091FB02ED2E0C2F292D4F2DC2
:102BE000F60109950E94960C462F282F672FC501E4
:102BF0000E94F30BCF5FDECF81E0103308F080E05E
:102C0000CDB7DEB7EBE00C94BB266F927F928F922C
:102C10009F92AF92BF92CF92DF92EF920F931F934A
:102C2000CF93DF933C0180910B01C82FCC0FCC0FC9
:102C3000C80FD5E0DC0FD13308F0D0E36091FC027F
:102C400066958091F3029091F4020E948C0C182FEB
:102C5000CD1708F044C08C2E912CF401E15FFD4F9C
:102C6000908180910C018923C1F1F401EE0FFF1FC7
:102C7000E155FE4FC080D12C80E7C81AD108F4017D
:102C8000EE0FFF1FE055FE4FA080B12CE0E2AE1A20
:102C9000B108CC9C9001CD9C300D300D1124AA9C24
:102CA000C001AB9C900D900D1124820F931F0E94C8
:102CB000320C082F6091F9027091FA028091FB02A8
:102CC000E12E9501A601F30109950E94960C462F6D
:102CD000282F672FC4010E94F30BCF5FB9CF81E08B
:102CE000D03308F080E0DF91CF911F910F91EF90EA
:102CF000DF90CF90BF90AF909F908F907F906F901C
:102D00000895A0E0B0E0E7E8F6E10C94A2266C019B
:102D100080910B01C82FCC0FCC0FC80FD5E0DC0F72
:102D2000D13308F0D0E36091FC0266958091F30204
:102D30009091F4020E948C0C182FCD1778F5EC2E90
:102D4000F12CF701E15FFD4F908180910C01892307
:102D500019F1F701EE0FFF1FE055FE4F208130E023
:102D600020523109F701EE0FFF1FE155FE4F408160
:102D700050E0405751096091F9027091FA02809138
:102D8000FB02012FF60109950E94960C462F282F71
:102D9000672FC7010E94F30BCF5FCFCF81E0D03305
:102DA00008F080E0CDB7DEB7E8E00C94BE26A0E0E6
:102DB000B0E0EDEDF6E10C94A3268C0180910B01BF
:102DC000C82FCC0FCC0FC80FD5E0DC0FD13308F0E3
:102DD000D0E36091FC026695669521E0620F08F4ED
:102DE0006FEF8091F3029091F4020E948C0CD82E28
:102DF000CD17F0F4EC2EF12CF701E15FFD4F90813F
:102E000080910C01892391F06091F9027091FA028E
:102E10008091FB022D2D4C2FF80109950E94960CF4
:102E2000462F282F672FC7010E94F30BCF5FE0CFFB
:102E300081E0D03308F080E0CDB7DEB7E7E00C9456
:102E4000BF269091F802937059F08093F902609335
:102E5000FA024093FB028091F70281608093F702AF
:102E60000895EF92FF920F931F93CF93DF937C010E
:102E70008B010E94541B811119C0E7010115110536
:102E8000A1F08091E80085FD0AC08091E8008E776E
:102E90008093E8000E94541B882381F307C0899126
:102EA0008093F10001501109E9CF80E0CDB7DEB782
:102EB000E6E00C94C026AAE2B0E0E1E6F7E10C946B
:102EC000A726EBEEF2E083EF92E02091F100219350
:102ED0008E179F07D1F78091EC02833009F461C00F
:102EE00030F4813071F0823009F49DC0B4C08A3072
:102EF00009F489C08B3009F46CC0893009F0ABC08B
:102F000020C08091EB02813A09F0A5C08091E800D1
:102F1000877F8093E8008091EF029091F002892BE7
:102F200021F460E287EC92E003C060E080E090E092
:102F300070E00E940D1D8091E8008B778093E8007F
:102F40008AC08091EB02813209F085C08091EF0246
:102F50009091F002029708F07EC08091E800877F90
:102F60008093E8008091E80082FD05C08091E9022D
:102F70008111F8CF70C02091F3008091F20090E0B1
:102F8000922B029731F48091F100813011F086305C
:102F900021F48091F1008093C6028091E8008B7744
:102FA00056C08091EB02813A09F055C08091EF0242
:102FB0009091F002892B09F04EC08091E800877F44
:102FC0008093E8008091E80080FFFCCF80910A01A7
:102FD00039C08091EB028132F1F58091EF0290913E
:102FE000F002892BC1F58091E800877F8093E8008B
:102FF0000E94871B8091ED0280930A011092C40207
:103000000E949E2428C08091EB02813221F580919C
:10301000E800877F8093E8000E94871B8091EE0282
:103020008093C50218C08091EB02813AA1F480918F
:10303000E800877F8093E8008091E80080FFFCCF64
:103040008091C5028093F1008091E8008E77809393
:10305000E8000E94871B8091E80083FFCEC1809129
:10306000EB029091EC02492F50E04A30510508F0F4
:10307000C4C1FA01E059FF4F0C949F29803821F018
:10308000823809F0BAC108C08091E7029091E80245
:10309000992389F082600FC08091EF028F70873092
:1030A00008F0ABC18093E9008091EB0085FB882795
:1030B00080F91092E9009091E800977F9093E800E2
:1030C0008093F1001092F10065C1282F2D7F09F047
:1030D00094C1882319F0823061F08FC18091ED0294
:1030E000813009F08AC1933009F080E08093E802D2
:1030F0002EC08091ED0281112AC08091EF028F7065
:103100002FEF280F263008F078C18093E900209136
:10311000EB0020FF1CC0933021F48091EB00806213
:1031200014C09091EB0090619093EB0021E030E0AF
:10313000A90102C0440F551F8A95E2F74093EA00A7
:103140001092EA008091EB0088608093EB0010926F
:10315000E9008091E800877F20C181114EC1109164
:10316000ED021F778091E3008078812B8093E3004C
:103170008091E800877F8093E8000E94871B809100
:10318000E80080FFFCCF8091E30080688093E3003B
:10319000111102C082E001C083E08093E9022DC1D9
:1031A0008058823008F029C18091ED029091EE02A2
:1031B0008C3D53E0950779F583E08A838AE2898321
:1031C0004FB7F894DE01139620E03EE051E2E32F82
:1031D000F0E050935700E49120FF03C0E295EF70B8
:1031E0003F5FEF708E2F90E0EA3010F0C79601C07D
:1031F000C0968D939D932F5F243149F74FBF8091E7
:10320000E800877F8093E8006AE270E0CE010196D3
:103210000E940D1DAEC04091EF025091F002292F87
:10322000332723303105A9F068F42130310509F442
:10323000F3C02230310509F0E0C08BE390E0E1EF0C
:10324000F3E044C02132310521F12232310571F120
:10325000D4C0992781309105A1F058F0029709F068
:10326000CCC0EEE3F4E0E4918E2F90E0EEE3F4E0E6
:103270002AC0EAE8F4E0E4918E2F90E0EAE8F4E076
:1032800022C0E0E6F4E0E4918E2F90E0E0E6F4E086
:103290001AC04115510509F4C4C04130510509F067
:1032A000ACC089E090E0ECE1F4E010C041155105BC
:1032B00009F4BCC04130510509F09FC08DE690E093
:1032C000E4E4F3E003C0009709F497C02091E8001C
:1032D000277F2093E8002091F1023091F2028217BB
:1032E000930708F49C0140E02115310589F1809194
:1032F000E902882309F43DC08530D9F18091E800C6
:1033000083FD37C08091E80082FD2FC08091E800E6
:1033100080FFEACF4091F3008091F20090E0942B7F
:103320002115310559F08830910540F444914093BE
:10333000F1003196215031090196F2CF41E0089712
:1033400009F040E08091E8008E778093E800CCCFD0
:103350004111CDCF0AC08091E902882351F0853018
:1033600041F08091E80083FD04C08091E80082FF75
:10337000F2CF8091E8008B778093E8003EC08038E0
:10338000E1F58091E800877F8093E8008091EA0270
:103390008093F1008091E8008E778093E8000E948E
:1033A000871B2BC0811129C08091ED029091EE0204
:1033B0009927029714F58091E800877F8093E800B1
:1033C0001091ED021093EA020E94871B111106C0B2
:1033D0008091E30087FD02C081E001C084E080931A
:1033E000E90242E061EC81E00E94A61B42E261EC4E
:1033F00082E00E94A61B8091E9028091E80083FF91
:103400001AC08091E800877F8093E8008091EB00EC
:1034100080628093EB000FC082E190E0ECE2F4E088
:1034200055CF89E090E0E3E0F4E050CF80E490E015
:10343000E1EBF3E04BCFAA96E3E00C94C3260895AA
:1034400008958091C602089580936704709369047B
:10345000609368048091E902843001F582E08093F2
:10346000E9008FEF9091E800815095FD06C095ED41
:103470009A95F1F700008111F5CF8091E80085FF62
:103480000DC040E050E063E070E087E694E00E9409
:1034900031178091E8008E778093E8000895BC0191
:1034A00084E00E94241A0895BC0183E00E94241A3B
:1034B0000895CF93DF9320910A01222339F02091C0
:1034C000650427FF03C060E222E002C068E021E05B
:1034D0002093E9002FEF3091E800215035FD06C020
:1034E00035ED3A95F1F700002111F5CF2091E80074
:1034F00025FF1DC0EC0180910A01811105C040E04B
:1035000050E068E070E003C070E040E050E0CE01C1
:103510000E9431178091E8008E778093E80080E266
:10352000FE01A7ECB2E001900D928A95E1F7DF91E0
:10353000CF910895A4E0B0E0E0EAFAE10C94A5266A
:103540008033910588F5122F042FF62EBC01660FEB
:10355000771F660F771F62577B4F44E050E0CE0124
:1035600001960E942B27898183704A81282F30E0A1
:1035700050E9859FC00111248C5E9C4FFC01E40F33
:10358000F11DB497F0824B81FC01E40FF11DB4975B
:1035900000834C81840F911DFC01B4971083F901C5
:1035A000EE5EFC4F81E080832496E5E00C94C1261A
:1035B000FF920F931F93CF93DF93182F062FF42EB4
:1035C000C0E0D0E02F2D402F612FCE010E949A1A2B
:1035D0002196C033D105B1F7CDB7DEB7E5E00C9445
:1035E000C1261F920F920FB60F9211242F933F9373
:1035F0004F935F936F937F938F939F93AF93BF93FB
:10360000CF93DF93EF93FF93C091E900CF70809148
:10361000EC00D82FD17080FDD0E81092E9008091A5
:10362000F000877F8093F00078940E945B171092DF
:10363000E9008091F00088608093F000CD2BCF707E
:10364000C093E900FF91EF91DF91CF91BF91AF91CE
:103650009F918F917F916F915F914F913F912F91AA
:103660000F900FBE0F901F901895E8EDF0E080814D
:103670008E7F80831092E2001092DA001092E100B7
:10368000A0EEB0E08C9181608C9380818F778083F5
:1036900019BCA7EDB0E08C918E7F8C9380818F7EDA
:1036A000808310926A0408952091E4003091E5002F
:1036B00095E64091EC00842F817040FF23C08091FB
:1036C000E80080FD1DC08091E902882399F08530D3
:1036D00099F08091EB0085FD11C04091E40050917C
:1036E000E5002417350729F3915011F09A01E1CF35
:1036F00084E0089582E0089583E0089581E00895CC
:1037000080E008954091E80042FFDDCF0895809168
:10371000EB0287FF11C08091E80082FD05C0809117
:10372000E9028111F8CF11C08091E8008B770BC0BE
:103730008091E902882349F08091E80080FFF8CF6A
:103740008091E8008E778093E8000895982F973055
:1037500068F59093E900981739F07091EC0020918A
:10376000ED005091F00003C0242F762F50E021FD92
:1037700002C09F5FECCF3091EB003E7F3093EB00B7
:103780003091ED003D7F3093ED003091EB003160E2
:103790003093EB007093EC002093ED005093F00019
:1037A0002091EE0027FDE5CF80E008958F70809393
:1037B000E90081E00895A0E0B0E0E1EEFBE10C94C7
:1037C000A226C8EDD0E088818F7E8883E7EDF0E007
:1037D00080818160808384E082BF81E080936A047D
:1037E00088818E7F888302EE10E0F80110821092AB
:1037F000DA0081EEC82ED12CF601108288818F77F5
:10380000888388818068888388818F7D888319BCBC
:103810001092E9021092EA021092E8021092E70276
:1038200090EEE92EF12CF70180818B7F80838881D7
:103830008160888342E060E080E00E94A61BF60180
:1038400080818E7F8083F801808181608083808188
:1038500088608083F70180818E7F8083888180618A
:103860008883CDB7DEB7E8E00C94BE261F920F9296
:103870000FB60F9211242F933F934F935F936F9343
:103880007F938F939F93AF93BF93EF93FF93809119
:10389000E10082FF09C08091E20082FF05C08091B3
:1038A000E1008B7F8093E1008091DA0080FF2AC0E5
:1038B0008091D80080FF26C08091DA008E7F8093AF
:1038C000DA008091D90080FF18C080E189BD82E1D3
:1038D00089BD09B400FEFDCF81E08093E9028091AB
:1038E0006A0481110FC00E94351B0E94DB1B80916E
:1038F000E20084608093E20005C019BC1092E902E6
:1039000010926A048091E10080FF17C08091E2006C
:1039100080FF13C08091E2008E7F8093E20080914F
:10392000E20080618093E2008091D8008062809301
:10393000D80019BC85E08093E9028091E10084FF02
:1039400030C08091E20084FF2CC080E189BD82E11B
:1039500089BD09B400FEFDCF8091D8008F7D809392
:10396000D8008091E1008F7E8093E1008091E20099
:103970008F7E8093E2008091E20081608093E2007C
:103980008091EA02882311F084E007C08091E3006F
:1039900087FD02C081E001C083E08093E90280914D
:1039A000E9028091E10083FF27C08091E20083FF5C
:1039B00023C08091E100877F8093E10082E08093C3
:1039C000E9021092EA028091E1008E7F8093E1008B
:1039D0008091E2008E7F8093E2008091E20080611E
:1039E0008093E20042E060E080E00E94A61B8091AC
:1039F000F00088608093F000FF91EF91BF91AF914C
:103A00009F918F917F916F915F914F913F912F91F6
:103A10000F900FBE0F901F9018952091F1023091DA
:103A2000F2022617370748F06115710539F4209125
:103A3000E8002E772093E80001C0B901FC0120E0E6
:103A40006115710579F18091E9028823F1F18530E2
:103A5000F1F18091E80083FD3CC08091E80082FD97
:103A60002EC08091E80080FFEBCF2091F300809181
:103A7000F20090E0922B6115710551F088309105AC
:103A800038F421912093F100615071090196F3CF30
:103A900021E0089709F020E08091E8008E7780937C
:103AA000E800CECF2111CFCF0AC08091E902882350
:103AB00061F0853061F08091E80083FD0AC080915B
:103AC000E80082FFF2CF80E0089582E0089583E06D
:103AD000089581E0089578941F920F920FB60F9287
:103AE00011248F939F93AF93BF9380916104909122
:103AF0006204A0916304B09164040196A11DB11DFC
:103B00008093610490936204A0936304B09364046F
:103B1000BF91AF919F918F910F900FBE0F901F900B
:103B200018959C014FB7F8948091610490916204BC
:103B3000A0916304B09164044FBF821B930B08955E
:103B40002FB7F8948091610490916204A09163046E
:103B5000B09164042FBF08951F920F920FB60F9279
:103B600011248F939F93AF93BF9380916004811131
:103B700013C08091610490916204A0916304B0919C
:103B800064044196A11DB11D809361049093620469
:103B9000A0936304B0936404BF91AF919F918F9100
:103BA0000F900FBE0F901F90189520910A012223AD
:103BB000C9F02091650427FF15C0262F269526956C
:103BC00026952E31C8F4FC01E20FF11D677081E0EB
:103BD00090E001C0880F6A95EAF780959281892369
:103BE00082830895FC0106962281621301C012822D
:103BF0003196E817F907C1F7089520915E043091D6
:103C00005F042817390771F090935F0480935E0476
:103C1000E0915C04F0915D04309721F00084F1851F
:103C2000E02D0995089520915A0430915B042817DE
:103C3000390771F090935B0480935A04E0915C041F
:103C4000F0915D04309721F00680F781E02D099511
:103C50000895E0915C04F0915D04309729F00190A3
:103C6000F081E02D0995089580E00895882311F0F2
:103C7000FA0101C0FB0109950895A0E0B0E0E3E47A
:103C8000FEE10C94A326262F30E0A901485A5B4F91
:103C90007A01FA019081911107C0F7011082CDB726
:103CA000DEB7E7E00C94BF26D82EF2E16F9FE0016B
:103CB000112400E010E0F801EC0FFD1FEC5CFB4F5D
:103CC0004081602F8D2D0E94F4210F5F1F4F023124
:103CD000110589F7E2CFCF93DF93C82F4BE06DEF4B
:103CE0000E94F42140E06AE08C2F0E94F4218FE3CF
:103CF0009CE90197F1F700C0000040E060E08C2FE4
:103D00000E94F42140E061E08C2F0E94F42140E009
:103D100066E08C2F0E94F42140E06DEF8C2F0E9412
:103D2000F421D0E040E06D2F8C2F0E94F421DF5F62
:103D3000D231C1F740E06D2F8C2F0E94F421DF5F5C
:103D4000D432C1F740E06D2F8C2F0E94F421DF5F49
:103D5000D43BC1F74BE06DEF8C2F0E94F42141E082
:103D60006AE08C2F0E94F42140E06DEF8C2F0E94BE
:103D7000F421DF91CF9108950F931F93CF93DF9399
:103D8000082F000FEB0114E21093FE02EFEFF2E0B8
:103D9000DE018D91819383E0EF30F807D1F724E6BF
:103DA00030E041E150E06EEF72E0802F0E945F262C
:103DB000105F6096143B41F7DF91CF911F910F91F7
:103DC0000895AAE0B0E0E7EEFEE10C94A12685B7E5
:103DD000806885BF85B7806885BF84B7877F84BFCB
:103DE0000FB6F894A8958091600088618093600078
:103DF000109260000FBE90E080E80FB6F8948093B8
:103E00006100909361000FBE8DED9FE090934102A1
:103E1000809340020E94351B0E94DB1B8091E200D0
:103E200084608093E20078948091E9028823A1F075
:103E30001091E9001F709091EC00892F817090FD26
:103E400080E8182B1092E9008091E80083FD0E9421
:103E50005B171F701093E90082E084BD93E095BD6D
:103E60009AEF97BD80936E000E94670890E0909350
:103E70001C0180931B010E94A2090E94E809EDE643
:103E8000F4E0ABE7B4E011921D9224E0EB37F207C7
:103E9000D1F78EE090E00E94A52980936B04909367
:103EA0006C04FC010E961192E817F907E1F789EA14
:103EB0008093800089E08093810024982C983F981B
:103EC0008AB18F7C8AB96E98479A8BB180638BB91F
:103ED000769A8FE090E00E944C2760939E04709346
:103EE0009F048093A0049093A10467708FEF689F54
:103EF000B00111247595679575956795772770932F
:103F000089006093880070938B0060938A0070939F
:103F10008D0060938C000E94DE0880E090E00E949B
:103F20005227883E9E4F11F00E94C41182E090E01B
:103F30000E9444278093890484E090E00E944427F3
:103F4000182F82E290E00E944427212F30E0382B86
:103F5000309366042093650483E090E00E94442738
:103F60000E94792480919D040E9421040E946D2268
:103F70000E9460220E9460228091F70281608093FB
:103F8000F7028FE091E090935D0480935C0498E1E8
:103F9000C92ED12C20E4E22EBB24B3948091E902F7
:103FA000853009F06FC083E0F82E00E112E18091C6
:103FB000E902853009F05EC08091E902843009F49D
:103FC00036C00E948B228091A20481110DC00E94F4
:103FD000200D10921E018091F802837080931D01C4
:103FE0000E94D520F0920E01B092A20410926004BB
:103FF0000FB6F894A895C09260000FBEE0926000E2
:1040000083B7817F846083BF83B7816083BF7894E7
:10401000889583B78E7F83BF0FB6F894A89580915B
:104020006000886180936000109260000FBE8091F4
:10403000E802882309F4BBCF0E94670890E09093C0
:104040001C0180931B010E94A2090E94E809EBE772
:10405000F4E0119284E0E938F807D9F70E94CF1410
:10406000EBE7F4E0819181116CC024E0E938F207BC
:10407000C9F79DCF1092C4020E949E240E94291E5F
:104080001092A2040E94CF14882359F08FB7F8949D
:1040900040916104509162046091630470916404E2
:1040A0008FBFEAE8F4E0ABE7B4E000E010E0302FC7
:1040B0002D919191922721F180E0FF24F394492FD3
:1040C0004F21D1F089833A832F2181E009F480E0E8
:1040D0008B830E94A01D8160782F9D838C834981F2
:1040E0005A816B818D810E948203F801E657FB4F54
:1040F0008081F826F08219C08F5FFF0C8630F9F6B8
:104100000F5F1F4F0E30110591F68FEF8E838F8357
:1041100018860E94A01D8160782F9A8789874E811A
:104120005F8168858A850E9482030E948B220E949B
:10413000291E90919804891709F430CF8093980430
:104140002DCF09BD19BD09B400FEFDCF8091D80067
:104150008F7D8093D8008091E00082608093E000A2
:104160008091E00081FDFCCF1092C4020E949E2449
:104170001ECFE8EFF2E0248130E1231B08F420E0B9
:1041800024838091F70281608093F7020895E8EF1D
:10419000F2E0248130E1230F08F42FEF2483809193
:1041A000F70281608093F7020895809112038823BB
:1041B00029F064E173E084E70E94BC1E10921203B0
:1041C00080911303882329F064EA73E087E70E9453
:1041D000BC1E109213030895A4E0B0E0E2EFF0E2F9
:1041E0000C949C260E948F2584E70E946B1E87E713
:1041F0000E946B1E0EE814E072E1772EE8E0CE2EEE
:10420000D12CEE24E394F12C6624639444E050E036
:10421000B801CE0101960E942B272A8130E0C90106
:104220008497AB80B12C44E2A41AB108EC81F0E091
:10423000B497AC0197FF02C0495F5F4F63E05595AB
:1042400047956A95E1F72981237030E0729EB001AD
:10425000739E700D11246C5C7B4F4B01840E911C7E
:10426000B6010E948B29D70102C0AA0FBB1F8A95F5
:10427000E2F7CD01D4019C91892B8C93C501B7FC49
:10428000079653E0959587955A95E1F7729EA001A0
:10429000739E500D11244C5C5B4F4A01880E911C9B
:1042A000C501B6010E948B29A70102C0440F551F0A
:1042B0008A95E2F7CA01D4019C91892B8C93CF0196
:1042C000F7FD079643E0959587954A95E1F7729E2D
:1042D000A001739E500D11244C5C5B4F5A01A80E37
:1042E000B11CCF01B6010E948B29F70102C0EE0F6D
:1042F000FF1F8A95E2F7CF01D5019C91892B8C9302
:10430000F901E85AFB4F60820C5F1F4FB5E00E3495
:104310001B0709F07BCF60E084E70E943D1E61E04F
:1043200087E70E943D1E2496EEE00C94B826E8EF45
:10433000F2E0438121E1421B08F440E08181628187
:1043400090E00E9421170895E8EFF2E0438121E117
:10435000420F08F44FEF8181628190E00E942117A3
:104360000895E8EFF2E0628120E1621B08F460E06A
:104370008181438190E00E9421170895E8EFF2E0E7
:10438000628120E1620F08F46FEF8181438190E048
:104390000E9421170895E8EFF2E0818190E04381C7
:1043A000628108970E9421170895E8EFF2E0818169
:1043B00090E04381628108960E94211708958091C0
:1043C000F80286958695815009F487E10E94971539
:1043D00008958091F802869586958F5F883108F060
:1043E00081E00E9497150895EEEFF2E0608341832B
:1043F00024E630E042E050E0BF01880F0E945F26D3
:1044000008951F93CF93DF93FC01E15FFD4F20815F
:104410006223B9F0EC010E941B27182F0E941B2772
:104420008F77782F20E8720F08F47FEF612F80914B
:10443000FB020E94960C462F282F672FCE010E9468
:10444000F30BDF91CF911F910895A0E0B0E0EBE274
:10445000F2E20C94A326EC01FC01E15FFD4F908198
:10446000692349F1D090FA020091FB021091F90200
:10447000E12EF12C0E941B27282FC7018C549F4F3F
:1044800068E671E00E948B298E199F0997FD0396BB
:1044900095958795959587952370612F289F600D39
:1044A00011247D2D802F0E94960C462F282F672FD8
:1044B000CE010E94F30BCDB7DEB7E7E00C94BF2628
:1044C0008091F802837011F410920E018091F8022D
:1044D0008C7F81608093F80208950E94EC2080E038
:1044E00090E00E945227883E9E4F21F00E94C41106
:1044F0000E94F60B46E050E06CE170E088EF92E03D
:104500000E9434271092F7028091F8028C7F11F4F8
:104510000E94F60B0895A0E0B0E0E1E9F2E20C940D
:104520009F268FB7F8944091610450916204609186
:104530006304709164048FBF4093990450939A046C
:1045400060939B0470939C048091A204811108C025
:10455000C091F8028C2F837019F0C695C69501C0E2
:10456000C0E080910E018130A1F038F0823009F472
:10457000B1C0833009F4BBC0E5C010920B01409379
:10458000F3025093F4026093F5027093F60281E017
:10459000ABC08C2F0E94200DCC2309F4D3C0809196
:1045A0009E0483FDCFC040919D0450E060E070E028
:1045B000DB01CA01F4E0B695A79597958795FA9522
:1045C000D1F70097A105B10521F4DB01CA0120E074
:1045D00001C024E0AC01BD01E2E0769567955795F6
:1045E0004795EA95D1F7411551056105710519F017
:1045F0002E5FDB01CA01B695A79597958795892B04
:104600008A2B8B2B09F02F5F213009F05AC00EED59
:1046100015E0C0E0D0E0F8016491319674913196D4
:104620008491611107C0711105C0811103C020E0A0
:1046300040E03CC00E94960C962EB72EA82E6091AA
:10464000FB0270E080E090E00E94902820E030E0E3
:104650004FE753E40E94EF276B017C016A2D70E065
:1046600080E090E00E949228A70196010E941E29F6
:104670000E946128A62E692D70E080E090E00E94E3
:104680009228A70196010E941E290E946128962E59
:104690006B2D70E080E090E00E949228A7019601C7
:1046A0000E941E290E9461282A2D492DCE010E94B8
:1046B000F30B21960D5F1F4FC033D10509F0ABCF2F
:1046C00041C08091FD0281113DC040E060E00E9448
:1046D000F00B38C0C0931E018091F8028370809364
:1046E0001D010E94D52083E080930E012BC0809194
:1046F000F702882351F046E050E06CE170E088EF6B
:1047000092E00E9458271092F7024091F3025091D4
:10471000F4026091F5027091F6022FB7F89480913F
:10472000610490916204A0916304B09164042FBF6E
:10473000841B950BA60BB70B4A97A105B10510F08A
:1047400010920E01CDB7DEB7EBE00C94BB2680E0F3
:1047500090E00E94131E80E090E00E94FD1D1092E8
:10476000BC020E9447120895CF92DF92FF920F93EE
:104770001F93CF93DF936C0100919D048091BE0243
:10478000082BC7E0D0E010E0C8010C2E02C09595C0
:1047900087950A94E2F780FD04C02197A8F7F12CD1
:1047A00009C0FC2EB6018C2F0E9422100E943B10E3
:1047B000019799F38F2DDF91CF911F910F91FF906A
:1047C000DF90CF900895CF93DF93EC010E94B42344
:1047D000BE010E9422100E943B10DF91CF910895EC
:1047E000292F9E3078F5863068F590E036E0239FDB
:1047F000800D911D1124682F677023E09695879591
:104800002A95E1F7FC01EE0FFF1FE80FF91FED55A8
:10481000FB4F40E050E080E0219130E0062E02C0E6
:10482000369527950A94E2F721703327042E01C0AC
:10483000220F0A94EAF7822B4F5F5F4F43305105F6
:1048400059F7089580E00895292F9E3088F5863025
:1048500078F590E036E0239F800D911D1124282FDC
:10486000277051E001C0550F2A95EAF723E096958D
:1048700087952A95E1F7FC01EE0FFF1FE80FF91F5E
:10488000ED55FB4F20E030E070E04081CB01022E7F
:1048900002C0969587950A94E2F7817081958427E6
:1048A0008523842781932F5F3F4F2330310569F79C
:1048B00008950E94210480939D040E94A7230895D7
:1048C00021E030E001C0220F8A95EAF7209580911F
:1048D0009D0482230E945924089521E030E001C004
:1048E000220F8A95EAF780919D04822B0E94592419
:1048F00008958093BE020E94A7230895FC01808141
:1049000091810E94E32392959F70963079F010F484
:10491000925001C09A50923068F4803F69F018F4C8
:10492000883E40F409C0843F29F406C0883E20F048
:10493000813F11F080E0089581E0089580910A019F
:10494000882331F08091650487FF02C08EE101C0A9
:1049500086E0E5E4F2E0DF011D928A95E9F70E9426
:10496000A7230895882321F00E9440120E94471235
:104970000895882339F09091C402892B8093C40252
:104980000E9447120895882349F1682F8CEF860F03
:10499000813A28F483E492E00E94D51D0CC080E2A5
:1049A000860F883058F4677081E001C0880F6A95DF
:1049B000EAF70E9440120E94471208958BE5860F85
:1049C000833028F480E090E00E94131E0895685A16
:1049D000673120F480E090E00E94FD1D0895CF93A0
:1049E000882309F49AC0C82F8CEF8C0F813A08F005
:1049F0005EC080910A018823E1F08091650487FF01
:104A000018C0EC2FE695E695E695F0E0ED5BFD4FDE
:104A10008281282F30E04C2F477081E090E002C067
:104A2000880F991F4A95E2F782239323892B59F423
:104A300011C0E5E4F2E08191C81729F082E0EB347F
:104A4000F807C9F707C06C2F83E492E00E94D51DD8
:104A50000E94471280910A018823C9F08091650461
:104A600087FF15C0AC2FA695A695A695B0E0AD5BC7
:104A7000BD4FC77081E090E001C0880FCA95EAF78A
:104A800012969C911297892B12968C9320C0A5E4C4
:104A9000B2E0EFEF80E09D91C917C9F0EF3F19F444
:104AA000911101C0E82F8F5F8630A9F72DC080E2F9
:104AB0008C0F883078F4C77081E090E001C0880FD7
:104AC000CA95EAF79091C402892B8093C4020E9490
:104AD000471223C0EBE5EC0FE33040F4F0E0E65D75
:104AE000FE4F808190E00E94131E17C0C85AC73144
:104AF000A0F4EC2FF0E0EE0FFF1FE35DFE4F80818E
:104B000091810E94FD1D09C0EF3F09F30E2E000C9C
:104B1000FF0BED5BFD4FC283DACFCF91089510926A
:104B2000B9008CE08093B8000895A0E0B0E0EBE914
:104B3000F5E20C949F26B82EEB010E94A01D6C019B
:104B4000C431D10558F0CF3F8FEFD80759F0CE01CF
:104B500064E170E00E9484267B0107C0EE24E394A8
:104B6000F12C03C025E0E22EF12C84E8A82E94EA73
:104B7000992E1092BC009092BC000E94A01D8C0146
:104B80008091BC0087FD08C00E94A01D801B910B76
:104B90008E159F05A8F32AC08091B900887F8830C0
:104BA00041F08091B900887F803119F00FEF1FEF3D
:104BB0001FC0B092BB00A092BC000E94A01D8C013F
:104BC0008091BC0087FD08C00E94A01D801B910B36
:104BD0008E159F05A8F30AC08091B900887F88319F
:104BE00011F0803419F700E010E00EC00EEF1FEF57
:104BF000CF3F8FEFD80709F4BCCFC6010E94911DAB
:104C00008C179D0708F4B5CFC801CDB7DEB7EBE030
:104C10000C94BB260F931F93CF93DF93EB018093EC
:104C2000BB0084E88093BC000E94A01D8C01809191
:104C3000BC0087FD0EC0CF3F8FEFD807C1F30E94A5
:104C4000A01D801B910B8C179D0788F38EEF9FEFA3
:104C50000CC02091B900287F81E090E0283211F447
:104C600080E090E0919581959109DF91CF911F911E
:104C70000F9108950F931F93CF93DF93EC0184E876
:104C80008093BC000E94A01D8C018091BC0087FD18
:104C90000EC0CF3F8FEFD807C1F30E94A01D801B2D
:104CA000910B8C179D0788F38EEF9FEF03C08091C7
:104CB000BB0090E0DF91CF911F910F910895A0E08C
:104CC000B0E0E5E6F6E20C94A2266B018A017901D8
:104CD000B9010E949525E6010C0D1D1DC017D107D5
:104CE00041F424E92093BC00CDB7DEB7E8E00C9492
:104CF000BE2697FDF6CFB70189910E940A26EECF16
:104D000084E98093BC000895AA1BBB1B51E107C036
:104D1000AA1FBB1FA617B70710F0A61BB70B881F4B
:104D2000991F5A95A9F780959095BC01CD010895DA
:104D30002F923F924F925F926F927F928F929F92AB
:104D4000AF92BF92CF92DF92EF92FF920F931F9399
:104D5000CF93DF93CDB7DEB7CA1BDB0B0FB6F8944A
:104D6000DEBF0FBECDBF09942A88398848885F848A
:104D70006E847D848C849B84AA84B984C884DF80FB
:104D8000EE80FD800C811B81AA81B981CE0FD11DDF
:104D90000FB6F894DEBF0FBECDBFED0108958F9220
:104DA0009F92AF92BF92CF92DF92EF92FF92CF93FA
:104DB000DF93EC01688179818A819B81611571059E
:104DC0008105910521F464E279ED8BE597E02DE111
:104DD00033EF41E050E00E948C2749015A019B01CA
:104DE000AC01A7EAB1E40E94AB276B017C01ACEEF9
:104DF000B4EFA50194010E94B927DC01CB018C0D11
:104E00009D1DAE1DBF1DB7FF03C00197A109B0488E
:104E100088839983AA83BB839F77DF91CF91FF908B
:104E2000EF90DF90CF90BF90AF909F908F900895BC
:104E30000E94CF26089580E091E00E94CF26089539
:104E4000A0E0B0E08093000190930101A0930201E3
:104E5000B09303010895FB01DC0102C005900D929F
:104E600041505040D8F70895DC01CB01FC01F9997D
:104E7000FECF06C0F2BDE1BDF89A319600B40D92A6
:104E800041505040B8F70895F999FECF92BD81BDC9
:104E9000F89A992780B50895A6E1B0E044E050E083
:104EA0000C943627A8E1B0E042E050E00C9436279D
:104EB000DC01A40FB51F4150504048F0CB01840FD6
:104EC000951F2E910E94692741505040D0F70895B8
:104ED000262FF999FECF92BD81BDF89A019700B4B3
:104EE000021639F01FBA20BD0FB6F894FA9AF99A53
:104EF0000FBE08950396272F0E9469270E946827F6
:104F0000252F0E946927242F0C9469270196272FAB
:104F10000E9469270C946827052E97FB1EF40094C5
:104F20000E94A32757FD07D00E94BE2707FC03D08D
:104F30004EF40C94A32750954095309521953F4F02
:104F40004F4F5F4F089590958095709561957F4F75
:104F50008F4F9F4F08950E94E027A59F900DB49F0B
:104F6000900DA49F800D911D11240895B7FF0C94FE
:104F7000AB270E94AB27821B930B0895A1E21A2E48
:104F8000AA1BBB1BFD010DC0AA1FBB1FEE1FFF1FED
:104F9000A217B307E407F50720F0A21BB30BE40B3D
:104FA000F50B661F771F881F991F1A9469F7609584
:104FB0007095809590959B01AC01BD01CF0108953E
:104FC000A29FB001B39FC001A39F700D811D11244A
:104FD000911DB29F700D811D1124911D08950E9495
:104FE00003280C94E4280E94DD2858F00E94D6285B
:104FF00040F029F45F3F29F00C94CD2851110C9416
:1050000018290C94D3280E94F52868F39923B1F34A
:10501000552391F3951B550BBB27AA2762177307DE
:10502000840738F09F5F5F4F220F331F441FAA1F72
:10503000A9F335D00E2E3AF0E0E832D0915050402E
:10504000E695001CCAF72BD0FE2F29D0660F771FDC
:10505000881FBB1F261737074807AB07B0E809F0C2
:10506000BB0B802DBF01FF2793585F4F3AF09E3F47
:10507000510578F00C94CD280C9418295F3FE4F387
:10508000983ED4F3869577956795B795F7959F5F8A
:10509000C9F7880F911D9695879597F90895E1E0D6
:1050A000660F771F881FBB1F621773078407BA0735
:1050B00020F0621B730B840BBA0BEE1F88F7E09590
:1050C00008950E94FD2888F09F5798F0B92F9927DE
:1050D000B751B0F0E1F0660F771F881F991F1AF0E3
:1050E000BA95C9F714C0B13091F00E941729B1E008
:1050F00008950C941729672F782F8827B85F39F007
:10510000B93FCCF3869577956795B395D9F73EF47B
:1051100090958095709561957F4F8F4F9F4F089523
:10512000E89409C097FB3EF4909580957095619541
:105130007F4F8F4F9F4F9923A9F0F92F96E9BB27F7
:105140009395F695879577956795B795F111F8CF73
:10515000FAF4BB0F11F460FF1BC06F5F7F4F8F4FDE
:105160009F4F16C0882311F096E911C0772321F0D4
:105170009EE8872F762F05C0662371F096E8862F6C
:1051800070E060E02AF09A95660F771F881FDAF7C3
:10519000880F9695879597F9089597F99F6780E806
:1051A00070E060E008959FEF80EC089500240A9479
:1051B0001616170618060906089500240A941216F2
:1051C0001306140605060895092E0394000C11F425
:1051D000882352F0BB0F40F4BF2B11F460FF04C0D2
:1051E0006F5F7F4F8F4F9F4F089557FD9058440F2B
:1051F000551F59F05F3F71F04795880F97FB991F36
:1052000061F09F3F79F087950895121613061406F2
:10521000551FF2CF4695F1DF08C01616170618067F
:10522000991FF1CF86957105610508940895E8945A
:10523000BB2766277727CB0197F908950E9431296C
:105240000C94E4280E94D62838F00E94DD2820F033
:10525000952311F00C94CD280C94D32811240C9490
:1052600018290E94F52870F3959FC1F3950F50E01F
:10527000551F629FF001729FBB27F00DB11D639F08
:10528000AA27F00DB11DAA1F649F6627B00DA11DAE
:10529000661F829F2227B00DA11D621F739FB00D54
:1052A000A11D621F839FA00D611D221F749F3327C4
:1052B000A00D611D231F849F600D211D822F762F5D
:1052C0006A2F11249F5750409AF0F1F088234AF03A
:1052D000EE0FFF1FBB1F661F771F881F91505040A6
:1052E000A9F79E3F510580F00C94CD280C94182905
:1052F0005F3FE4F3983ED4F3869577956795B7952D
:10530000F795E7959F5FC1F7FE2B880F911D969546
:10531000879597F9089597FB072E16F4009407D008
:1053200077FD09D00E94842607FC05D03EF49095B5
:1053300081959F4F0895709561957F4F0895EE0F69
:10534000FF1F0590F491E02D09940F931F93CF93C5
:10535000DF938230910510F482E090E0E091C60482
:10536000F091C70420E030E0A0E0B0E0309719F100
:10537000408151810281138148175907C8F0841771
:10538000950769F4109731F012960C9312971396C3
:105390001C9327C00093C6041093C70422C0211594
:1053A000310519F04217530718F49A01BD01EF01B6
:1053B000DF01F801DBCF21153105F9F0281B390B8E
:1053C0002430310580F48A819B816115710521F0BB
:1053D000FB019383828304C09093C7048093C60427
:1053E000FE01329644C0FE01E20FF31F81939193B8
:1053F00022503109398328833AC02091C404309166
:10540000C504232B41F4209106013091070130930C
:10541000C5042093C4042091040130910501211595
:10542000310541F42DB73EB7409108015091090173
:10543000241B350BE091C404F091C504E217F30777
:10544000A0F42E1B3F0B2817390778F0AC014E5FF4
:105450005F4F2417350748F04E0F5F1F5093C50468
:105460004093C4048193919302C0E0E0F0E0CF0147
:10547000DF91CF911F910F910895CF93DF93009704
:1054800009F481C0FC01329713821282A091C604F4
:10549000B091C704109781F420813181820F931F4E
:1054A0002091C4043091C5042817390751F5F093B1
:1054B000C504E093C40467C0ED0120E030E0CE17DE
:1054C000DF0740F44A815B819E0141155105F1F0EF
:1054D000EA01F5CFD383C28340815181840F951FA8
:1054E000C817D90759F488819981840F951F0296AE
:1054F000918380838A819B819383828321153105E7
:1055000029F4F093C704E093C6043DC0E901FB838E
:10551000EA8349915991C40FD51FEC17FD0761F437
:1055200080819181840F951F0296E9019983888378
:10553000828193819B838A83E0E0F0E012968D91D3
:105540009C911397009719F0FD01DC01F7CF8D9125
:105550009C9111979D012E5F3F4F820F931F2091C9
:10556000C4043091C5042817390769F4309729F429
:105570001092C7041092C60402C013821282B09324
:10558000C504A093C404DF91CF910895FB01DC0111
:1055900004C08D910190801921F441505040C8F70A
:0A55A000881B990B0895F894FFCFC3
:1055AA00010000000000C80420000100FF000321E0
:1055BA001A591A201A541A4F1A1F1A2000FFFF00EC
:1055CA00FFFF003131295A1B750A818283E200E903
:1055DA0000EA00B500B600B700CD008301CC008A0E
:1055EA0001920194012102230224022502260227A4
:1055FA00022A02B300B4006F007000FFFFFFFFFF32
:10560A00FF1C21262B2FFF1B20252A2EFF1A1F24C1
:10561A00292DFF191E23282CFF181D2227FFFFFF03
:10562A00FFFFFFFFFFFFFFFFFFFFFF00050A0FFF5E
:10563A00FF01060B1014FF02070C1115FF03080DDA
:10564A001216FF04090E1317FFFFFFFFFFFFFF8962
:10565A00009A00AC00BD00CE00890C9A0CAC0CBDBF
:10566A000CCE0C89199A19AC19BD19CE1989269A2A
:10567A0026AC26BD26CE269A33AC33BD33CE33565E
:10568A00004400330022001100560C440C330C2253
:10569A000C110C561944193319221911195626449A
:1056AA002633262226112644333333223311330478
:1056BA0004040404040404040404040404040404A0
:1056CA00040404010101010404040404040404049C
:1056DA000404040404040404040404010101010090
:00000001FF
