:100000000C9416020C9433020C9433020C943302B9
:100010000C9433020C9433020C9433020C9433028C
:100020000C9433020C9433020C9441070C94830615
:100030000C948F160C9433020C9433020C943302FC
:100040000C9433020C9433020C9433020C9433025C
:100050000C9433020C9418080C9433020C94330261
:100060000C9433020C9433020C9433020C9433023C
:100070000C9433020C9433020C9433020C9433022C
:100080000C9433020C9433020C9433020C9433021C
:100090000C9433020C9433020C9433020C9433020C
:1000A0000C9433020C9433020C943302A204C9045E
:1000B0006106C9046106110534056106230636068A
:1000C00001100110301030109A10401240124012EE
:1000D000B6109411A511A511E914EE14F814EC143E
:1000E000F114F614F414261629162C162F163216AF
:1000F0003516381605010980A101850319012AB7B3
:1001000000150126B700950175108100C0050C0986
:1001100001A101850419012AA002150126A002955A
:100120000175108100C005010906A10185060507BA
:1001300019E029E7150025019508750181020507D9
:10014000190029EF1500250195F0750181020508B8
:100150001901290595057501910295017503910114
:10016000C005010906A101050719E029E7150025C9
:10017000019508750181029501750881010507192E
:100180000029FF150026FF00950675088100050867
:1001900019012905950575019102950175039101D4
:1001A000C009023B00020100A0FA0904000001039B
:1001B000010100092111010001224000070581030E
:1001C00008000109040100010300000009211101D8
:1001D0000001226D000705820320000112010002C8
:1001E0000000000897327449010001020001160363
:1001F0004500720067006F0044006F007800200027
:1002000045005A00000028035A0053004100200016
:1002100054006500630068006E006F006C006F00A2
:100220006700790020004C0061006200730000004C
:100230000403090429002B003500E100E000000060
:100240000100140004001D00010002511E001A00EC
:1002500016001B000100E3001F0008000700060055
:1002600001002A002000150009001900E200010029
:10027000210017000A0005000000005722002F008F
:1002800000003E00000001002300300000002E00AE
:100290000000010024001C000B00110000000157A9
:1002A000250018000D0010006574010026000C00E8
:1002B0000E00360001002C00270012000F0037004E
:1002C0000100280001001300330038000100E400A1
:1002D0002D0031003400E500E400000000000000C3
:1002E000000000000000000000000000000000000E
:1002F00000000100000000000000000000000100FC
:100300003A003B003C003D00000001003E003F0081
:10031000400041000000010042004300440045004D
:1003200000000100000000000000010000000100CA
:1003300000000000000000000000010000000000BC
:100340000000000000000100240021001E00000049
:1003500000000100250022001F000000000027000F
:100360002600230020003700000001002E022D008F
:10037000250238000000010000000000000000001D
:100380000000000001000100010001000100000068
:100390000100010001000100010001000100010055
:1003A0000100010001000100010001000100010045
:1003B0000100010001000100010001000100010035
:1003C000010001000100010000004A0001000100DD
:1003D0000000010000000100010001000000010018
:1003E00000000100010001005000010000004D006C
:1003F00001000100510001000100010001000100A5
:100400005200010001000100010001004F00010045
:1004100001000100010001000100010001000100D4
:100420004600010001000100C35C000011241FBE52
:10043000CFEFDAE0DEBFCDBF11E0A0E0B1E0EAEB44
:10044000FCE302C005900D92A437B107D9F722E072
:10045000A4E7B1E001C01D92A23BB207E1F70E9400
:100460007D170C945B1E0C9400002091E4003091E9
:10047000E50095E64091EC00842F817040FF23C099
:100480008091E80080FD1DC08091A501882399F02E
:10049000853099F08091EB0085FD11C04091E4001A
:1004A0005091E5002417350729F3915011F09A0176
:1004B000E1CF84E0089582E0089583E0089581E02B
:1004C000089580E008954091E80042FFDDCF08954F
:1004D000EF92FF920F931F93CF93DF937C018B01D9
:1004E0000E943502811119C0E70101151105A1F023
:1004F0008091E80085FD0AC08091E8008E778093A6
:10050000E8000E943502882381F307C08991809317
:10051000F10001501109E9CF80E0CDB7DEB7E6E088
:100520000C94D01C8091A70187FF11C08091E80036
:1005300082FD05C08091A5018111F8CF11C0809185
:10054000E8008B770BC08091A501882349F080914A
:10055000E80080FFF8CF8091E8008E778093E80074
:100560000895982F973068F59093E900981739F01F
:100570007091EC002091ED005091F00003C0242F09
:10058000762F50E021FD02C09F5FECCF3091EB0051
:100590003E7F3093EB003091ED003D7F3093ED00D6
:1005A0003091EB0031603093EB007093EC002093BE
:1005B000ED005093F0002091EE0027FDE5CF80E0A4
:1005C00008958F708093E90081E008952091AD0136
:1005D0003091AE012617370748F06115710539F4DF
:1005E0002091E8002E772093E80001C0B901FC01BA
:1005F00020E06115710579F18091A5018823F1F161
:100600008530F1F18091E80083FD3CC08091E800E5
:1006100082FD2EC08091E80080FFEBCF2091F30097
:100620008091F20090E0922B6115710551F08830B5
:10063000910538F421912093F100615071090196E0
:10064000F3CF21E0089709F020E08091E8008E7751
:100650008093E800CECF2111CFCF0AC08091A501B1
:10066000882361F0853061F08091E80083FD0AC045
:100670008091E80082FFF2CF80E0089582E0089543
:1006800083E0089581E0089508950895809182019E
:10069000089580937C0170937E0160937D01809129
:1006A000A501843001F582E08093E9008FEF9091FD
:1006B000E800815095FD06C095ED9A95F1F7000090
:1006C0008111F5CF8091E80085FF0DC040E050E03A
:1006D00063E070E08CE791E00E9468028091E8009E
:1006E0008E778093E8000895BC0184E00E9449035E
:1006F0000895BC0183E00E9449030895CF93DF93DE
:1007000020910601222339F020917A0127FF03C0AE
:1007100060E222E002C068E021E02093E9002FEFD0
:100720003091E800215035FD06C035ED3A95F1F7DE
:1007300000002111F5CF2091E80025FF1DC0EC013C
:1007400080910601811105C040E050E068E070E052
:1007500003C070E040E050E0CE010E94680280914A
:10076000E8008E778093E80080E2FE01A3E8B1E024
:1007700001900D928A95E1F7DF91CF910895AAE259
:10078000B0E0E5ECF3E00C94B71CE7EAF1E08FEAA7
:1007900091E02091F10021938E179F07D1F780916E
:1007A000A801833009F461C030F4813071F08230E7
:1007B00009F49DC0B4C08A3009F489C08B3009F4B3
:1007C0006CC0893009F0ABC020C08091A701813A8C
:1007D00009F0A5C08091E800877F8093E8008091B0
:1007E000AB019091AC01892B21F460E283E891E0A8
:1007F00003C060E080E090E070E00E94E60280913B
:10080000E8008B778093E8008AC08091A70181324D
:1008100009F085C08091AB019091AC01029708F07E
:100820007EC08091E800877F8093E8008091E80097
:1008300082FD05C08091A5018111F8CF70C0209183
:10084000F3008091F20090E0922B029731F48091B6
:10085000F100813011F0863021F48091F100809315
:1008600082018091E8008B7756C08091A701813A80
:1008700009F055C08091AB019091AC01892B09F032
:100880004EC08091E800877F8093E8008091E80067
:1008900080FFFCCF8091060139C08091A701813291
:1008A000F1F58091AB019091AC01892BC1F580915C
:1008B000E800877F8093E8000E9492028091A9015E
:1008C00080930601109280010E94BE1A28C0809178
:1008D000A701813221F58091E800877F8093E800AD
:1008E0000E9492028091AA018093810118C0809198
:1008F000A701813AA1F48091E800877F8093E80006
:100900008091E80080FFFCCF809181018093F1000D
:100910008091E8008E778093E8000E949202809197
:10092000E80083FFCEC18091A7019091A801492FD3
:1009300050E04A30510508F0C4C1FA01EA5AFF4FAD
:100940000C94271D803821F0823809F0BAC108C004
:100950008091A3019091A401992389F082600FC036
:100960008091AB018F70873008F0ABC18093E900B4
:100970008091EB0085FB882780F91092E900909127
:10098000E800977F9093E8008093F1001092F100C7
:1009900065C1282F2D7F09F094C1882319F082307A
:1009A00061F08FC18091A901813009F08AC1933033
:1009B00009F080E08093A4012EC08091A9018111EB
:1009C0002AC08091AB018F702FEF280F263008F0DE
:1009D00078C18093E9002091EB0020FF1CC0933088
:1009E00021F48091EB00806214C09091EB00906143
:1009F0009093EB0021E030E0A90102C0440F551FA5
:100A00008A95E2F74093EA001092EA008091EB00A9
:100A100088608093EB001092E9008091E800877F66
:100A200020C181114EC11091A9011F778091E3006F
:100A30008078812B8093E3008091E800877F80930A
:100A4000E8000E9492028091E80080FFFCCF809134
:100A5000E30080688093E300111102C082E001C0CE
:100A600083E08093A5012DC18058823008F029C110
:100A70008091A9019091AA018C3D53E0950779F5E9
:100A800083E08A838AE289834FB7F894DE01139664
:100A900020E03EE051E2E32FF0E050935700E49174
:100AA00020FF03C0E295EF703F5FEF708E2F90E064
:100AB000EA3010F0C79601C0C0968D939D932F5FCA
:100AC000243149F74FBF8091E800877F8093E80089
:100AD0006AE270E0CE0101960E94E602AEC040914B
:100AE000AB015091AC01292F332723303105A9F0F8
:100AF00068F42130310509F4F3C02230310509F0E2
:100B0000E0C08BE390E0E1EAF1E044C0213231053E
:100B100021F12232310571F1D4C09927813091053C
:100B2000A1F058F0029709F0CCC0EEEEF1E0E491AC
:100B30008E2F90E0EEEEF1E02AC0E0E3F2E0E491E7
:100B40008E2F90E0E0E3F2E022C0E6E0F2E0E491F4
:100B50008E2F90E0E6E0F2E01AC04115510509F44D
:100B6000C4C04130510509F0ACC089E090E0ECEC24
:100B7000F1E010C04115510509F4BCC041305105E8
:100B800009F09FC08DE690E0E4EFF0E003C000972D
:100B900009F497C02091E800277F2093E800209176
:100BA000AD013091AE018217930708F49C0140E03B
:100BB0002115310589F18091A501882309F43DC0F3
:100BC0008530D9F18091E80083FD37C08091E8003D
:100BD00082FD2FC08091E80080FFEACF4091F300B2
:100BE0008091F20090E0942B2115310559F0883066
:100BF000910540F444914093F10031962150310920
:100C00000196F2CF41E0089709F040E08091E800BA
:100C10008E778093E800CCCF4111CDCF0AC0809170
:100C2000A501882351F0853041F08091E80083FDD3
:100C300004C08091E80082FFF2CF8091E8008B77BA
:100C40008093E8003EC08038E1F58091E800877F1E
:100C50008093E8008091A6018093F1008091E800E4
:100C60008E778093E8000E9492022BC0811129C0E8
:100C70008091A9019091AA019927029714F580917A
:100C8000E800877F8093E8001091A9011093A601E6
:100C90000E949202111106C08091E30087FD02C0FC
:100CA00081E001C084E08093A50142E061EC81E035
:100CB0000E94B10242E261EC82E00E94B1028091A6
:100CC000A5018091E80083FF1AC08091E800877F2A
:100CD0008093E8008091EB0080628093EB000FC06E
:100CE00082E190E0ECEDF1E055CF89E090E0E3EBBC
:100CF000F1E050CF80E490E0E1E6F1E04BCFAA963E
:100D0000E3E00C94D31C1F920F920FB60F921124A4
:100D10002F933F934F935F936F937F938F939F9303
:100D2000AF93BF93CF93DF93EF93FF93C091E9000D
:100D3000CF708091EC00D82FD17080FDD0E8109258
:100D4000E9008091F000877F8093F00078940E9402
:100D5000BF031092E9008091F00088608093F0005A
:100D6000CD2BCF70C093E900FF91EF91DF91CF9130
:100D7000BF91AF919F918F917F916F915F914F91B3
:100D80003F912F910F900FBE0F901F901895E8ED97
:100D9000F0E080818E7F80831092E2001092DA0072
:100DA0001092E100A0EEB0E08C9181608C93808184
:100DB0008F77808319BCA7EDB0E08C918E7F8C93E8
:100DC00080818F7E808310927F010895A0E0B0E043
:100DD000ECEEF6E00C94B21CC8EDD0E088818F7E7A
:100DE0008883E7EDF0E080818160808384E082BFCA
:100DF00081E080937F0188818E7F888302EE10E0FE
:100E0000F80110821092DA0081EEC82ED12CF60182
:100E1000108288818F778883888180688883888121
:100E20008F7D888319BC1092A5011092A6011092A3
:100E3000A4011092A30190EEE92EF12CF70180811C
:100E40008B7F808388818160888342E060E080E0DE
:100E50000E94B102F60180818E7F8083F80180813B
:100E600081608083808188608083F70180818E7FAC
:100E70008083888180618883CDB7DEB7E8E00C94F9
:100E8000CE1C1F920F920FB60F9211242F933F93F7
:100E90004F935F936F937F938F939F93AF93BF9382
:100EA000EF93FF938091E10082FF09C08091E200FF
:100EB00082FF05C08091E1008B7F8093E1008091EB
:100EC000DA0080FF2AC08091D80080FF26C0809180
:100ED000DA008E7F8093DA008091D90080FF18C0FD
:100EE00080E189BD82E189BD09B400FEFDCF81E0CA
:100EF0008093A50180917F0181110FC00E94C706D8
:100F00000E94E6068091E20084608093E20005C0C2
:100F100019BC1092A50110927F018091E10080FF21
:100F200017C08091E20080FF13C08091E2008E7FA5
:100F30008093E2008091E20080618093E2008091E2
:100F4000D80080628093D80019BC85E08093A50109
:100F50008091E10084FF30C08091E20084FF2CC0CA
:100F600080E189BD82E189BD09B400FEFDCF809199
:100F7000D8008F7D8093D8008091E1008F7E809390
:100F8000E1008091E2008F7E8093E2008091E20098
:100F900081608093E2008091A601882311F084E0B3
:100FA00007C08091E30087FD02C081E001C083E0BB
:100FB0008093A5018091A5018091E10083FF27C066
:100FC0008091E20083FF23C08091E100877F8093BE
:100FD000E10082E08093A5011092A6018091E100DA
:100FE0008E7F8093E1008091E2008E7F8093E2000B
:100FF0008091E20080618093E20042E060E080E066
:101000000E94B1028091F00088608093F000FF910F
:10101000EF91BF91AF919F918F917F916F915F9170
:101020004F913F912F910F900FBE0F901F901895E9
:1010300078941F920F920FB60F9211248F939F9363
:10104000AF93BF938091760190917701A091780141
:10105000B09179010196A11DB11D80937601909305
:101060007701A0937801B0937901BF91AF919F91DF
:101070008F910F900FBE0F901F9018959C014FB746
:10108000F8948091760190917701A0917801B091C8
:1010900079014FBF821B930B08952FB7F89480916D
:1010A000760190917701A0917801B09179012FBFDD
:1010B000089580E0089590917A0192FF0DC0282F45
:1010C0002871283019F4877F846006C0282F247186
:1010D000243011F48B7F886093FF0DC0282F287176
:1010E000283119F4877E846106C0282F24712431A9
:1010F00011F48B7E886120917B0120FF0DC0382F79
:101100003871383019F4877F816006C0382F31710B
:10111000313011F48E7F886021FF0DC0282F287197
:10112000283119F4877E816106C0282F2171213171
:1011300011F48E7E886194FD877E08957E30A0F440
:10114000663090F494E5899FF001112486E0789F41
:10115000E00DF11D1124E60FF11DEE0FFF1FEC5CF9
:10116000FD4F85919491089580E090E00895CF938C
:10117000DF938238910569F1B0F48133910509F468
:101180006FC048F48932910509F465C08A3291052F
:1011900009F46BC08AC08533910509F457C08933BF
:1011A0009105B9F082C0833E910571F138F4803E1B
:1011B0009105B1F0823E910511F177C0863E91050F
:1011C000B9F1873E9105C9F1843E910509F06DC0E2
:1011D00024C020917A0120FD53C021FD51C065C07B
:1011E00080917A0180FD46C080917B0180FF48C0DC
:1011F00080917A0184FD3FC183EE90E03EC18091F1
:101200007A0182FF3AC0F4CF80917A0182FD35C025
:1012100080917B0180FD34C0EBCF80917B0181FF09
:1012200035C080917A0184FD26C187EE90E025C10A
:1012300080917A0183FF27C0F4CF80917A0183FDEA
:1012400022C080917B0181FD21C0EBCF80917A018A
:1012500085FD1FC021C080917A0185FD1DC019C088
:1012600080917A0186FD1BC01DC080917A0186FDA8
:1012700019C015C089E390E000C182EE90E0FDC086
:1012800080EE90E0FAC086EE90E0F7C084EE90E049
:10129000F4C089E290E0F1C085E390E0EEC08AE21C
:1012A00090E0EBC081E390E0E8C0811532E5930760
:1012B00008F069C0811541E5940728F0982F882728
:1012C000816F906ADAC0883E910568F5803E91058D
:1012D00008F0D3C0883A9105B8F4853A910548F0F2
:1012E000855AE82FF0E0ED5BFE4F808190E090643E
:1012F000C4C08130910509F4BBC008F4BCC084307F
:10130000910508F4B8C0B9C08F3B910508F0B3C08F
:10131000885AE82FF0E0EE0FFF1FEA5BFE4F808156
:1013200091819464AAC0811520E59207F0F09C0198
:1013300074E0369527957A95E1F7922F9370482FB0
:10134000437021E030E002C0220F331F4A95E2F7DC
:101350003C68392B8F70982F9695969540E2949F14
:10136000C0011124822B932B88C0811530E4930790
:1013700018F09F70906A81C09C013A9521153F41F9
:1013800008F47BC078C0EC01C11586E5D807E8F504
:10139000C11525E5D20748F08C2F0E945B088F719C
:1013A00090E0982F8827906268C0C11534E5D30774
:1013B00028F09C2F8827846F906A5FC0AE0143702D
:1013C00055272C2F26952695C115D34578F481E015
:1013D00090E002C0880F991F4A95E2F740E2249FEF
:1013E00090011124822B932B9C6847C081E090E0F0
:1013F00002C0880F991F4A95E2F740E2249F9001AE
:101400001124822B932B9A6838C0C1152AE5D20784
:10141000F8F4C11539E5D30790F08C2F8F700E9436
:101420005B0894E0D695C7959A95E1F7CF70D0E028
:10143000DC2FCC27D0699E01282BC9011EC0C11505
:1014400048E5D407C0F09C2F8827806F906A15C0AC
:10145000CE0190568115904270F48D2F8F710E94AD
:101460005B08282F2F71CE0199279062922B05C01F
:1014700081E090E002C080E090E0DF91CF9108959C
:1014800068EE7EEF80E090E00E94111D60E082E057
:1014900090E00E94F31C60E083E090E00E94F31C67
:1014A0001092290210922A0210922B0210922C0202
:1014B00060E084E090E00E94F31C64E082E290E04F
:1014C0000E94F31C60E085E090E00E94F31C60E065
:1014D00086E090E00E94F31C6FEF87E090E00E94AE
:1014E000F31C40E050E0BA0188E090E00E94051D46
:1014F00060E08DE090E00E94F31C40E050E0BA0113
:1015000088E190E00E94051D60E087E190E00E9484
:10151000F31C40E050E0BA018CE190E00E94051D10
:1015200060E070E080E290E00E94111D40E050E039
:10153000BA0188E190E00E94051D109239021092D4
:101540003A0210923B0210923C0284E080933902EE
:101550004091390250913A0260913B0270913C02F5
:101560008FE090E00E94051D40E050E0BA0183E169
:1015700090E00E94051D089580912802811110922B
:1015800028020895809590916F02892380936F02BD
:10159000089580959091800189238093800108951A
:1015A0009091800180916F02982B9093AF01809170
:1015B00028028823D9F0892B8093AF0180910601FE
:1015C000882331F080917A0187FF02C08EE101C04B
:1015D00086E0E1EBF1E090E0815028F021912223B8
:1015E000D9F39F5FF9CF91110E94BC0A40E250E00D
:1015F00068E072E08FEA91E00E944E1E892B21F193
:1016000080E2EFEAF1E0A8E0B2E001900D928A9565
:10161000E1F7E0917202F09173023097A9F08091A6
:101620000601882359F080917A0187FF07C08091D5
:10163000AF018093B00186E08093AF010280F38117
:10164000E02D8FEA91E00995089520910702809599
:10165000822380930702982F977099F430E0482FE7
:10166000082E000C550B2417350759F090917B017B
:1016700092FF07C08595859585950E944B1A10921B
:1016800007020895CF93C0917B01C2FB992790F97F
:10169000981791F080FBC2F9C0937B0160917A01A9
:1016A00084E090E00E94F31C6C2F82E290E00E94A4
:1016B000F31C82E00E94250BCF91089580910602D1
:1016C0009091D501891719F08F5F8770FBCF08952E
:1016D0000F931F93CF93DF938091D40182958F70E6
:1016E00009F05AC08091D101882309F455C0809136
:1016F00006021091D5016091CF017091D001C09187
:10170000D201D091D30191E06F3F09F090E0292FF1
:1017100006E0811709F440C0209721F07F3F21F0B7
:1017200030E003C031E001C0322F90E030FD31C025
:10173000089FF001099FF00D1124DF01AA52BE4F4E
:1017400011963C911197371324C03C91361321C058
:1017500012963C91129731111CC013964D915C91D9
:1017600014974C1B5D0B483C510598F48091D401B3
:101770008F7080618093D401E552FE4F80818F701D
:10178000806180838FEC91E00E941E0E0E945E0BB0
:1017900003C001968770BDCFDF91CF911F910F914C
:1017A0000895A1E1B0E0E7EDFBE00C94AF1C8C01E3
:1017B00085E0F801DE011D9601900D928A95E1F712
:1017C000F801E2809091CF016091D0014091D20167
:1017D0005091D3014115510531F06F3F31F481E053
:1017E0009F3F19F403C081E001C080E0F82FF17041
:1017F0009F2E80FD1BC1F80130812181C380D480E0
:101800008FECA82E81E0B82EF090D101F601E41BF8
:10181000F50BFF2009F4C7C08091D401E83CF10525
:1018200008F092C0482F407F09F051C0621311C0E8
:1018300093130FC0FE2CE1100CC08F708061809359
:10184000D401C5010E941E0E8091D401F801858348
:101850002AC1C114D10431F02F3F31F481E03F3F60
:1018600019F403C081E001C080E080FD03C081E085
:101870008E2502C080E090E0F82FF170FF2E80FFEF
:101880001CC0809106024091D50156E0841709F4EE
:10189000E8C090E0589FF001599FF00D1124EA52E2
:1018A000FE4F6181261306C06081631303C062810D
:1018B000E61203C001968770E9CFFE2CEE2009F4F2
:1018C000F2C08091D40181608093D40149C0621339
:1018D00006C0931304C0E11002C0F80186C0C8011D
:1018E0000E949E1A882351F1EE2041F12091D401EB
:1018F000822F82958F7090E0029774F08091CF01D3
:101900009091D00198878F831986DB86CA862C87B1
:10191000CE0107960E941E0E86E0F801AFECB1E002
:1019200001900D928A95E1F70E94680B0AC0621738
:10193000C9F0C8010E949E1A81111EC0C8010E94F0
:101940001E0EFF24F394AFC0482F407F81F78FEC29
:1019500091E00E941E0E86E0F50111928A95E9F74A
:10196000F12CA1C09313E5CFE110E3CFF8018583FB
:10197000C8010E941E0E54C0EE2001F32091D40134
:10198000822F82958F7090E0029734F28091CF0180
:101990009091D0019A8389831B82DD82CC822E8331
:1019A000CE010196B7CFE83CF105D0F5FE2CEE2034
:1019B00029F2621327C0931325C02091D40120FD82
:1019C00018C0822F82958F70482F50E04115510525
:1019D00081F0F80125834F30510541F08F5F982F3A
:1019E0009295907F822F8F70892B8583C8010E94EA
:1019F0001E0E86E0F801AFECB1E001900D928A95E1
:101A0000E1F751C0C8010E949E1A811185CF8091D3
:101A1000D40181608093D401C8010E941E0E43C08E
:101A200086E0F50111928A95E9F73DC0EE2009F4B0
:101A300085CFC8010E949E1AF82E882309F47ECF14
:101A400086E0F801AFECB1E001900D928A95E1F7E4
:101A50008091CF019091D0010E94C6190E94680B1D
:101A600022C03D872E878D859E850E94C619292F0D
:101A700022952F70223028F49F7039F0811105C013
:101A80000BC0243028F49F7049F4805E883020F029
:101A9000C8010E941E0E9F2CF92C05C0F8019581EB
:101AA000907F99F7F9CF8F2D6196EBE00C94CB1CCA
:101AB000A0E0B0E0EEE5FDE00C94B11C80911301D4
:101AC00090911401892B91F080912D028F5F80936A
:101AD0002D0281110BC00E94011590E0909314011A
:101AE00080931301892B11F40E9478150DE312E005
:101AF0007801B12CC0E087E0C82ECC0E8C2F0E945C
:101B0000E8158C2D0E94E8158C2F0E944B168F73C0
:101B1000F7019081891721F08083DD24D39401C0DF
:101B2000D12C8C2D0E944B168F73F701978189174A
:101B300019F0878381E001C080E0D82ABD280E9487
:101B40003C16CF5FFFEFEF1AFF0AC730A1F6C09136
:101B50003102CC23C9F10E944D0820912F0230910F
:101B60003002AC01421B530B9A01909330028093D8
:101B70002F024F3F510509F020F4452B09F454C0C2
:101B800002C02FEF30E01092310210922E02E0914D
:101B90003702F0913802AF01425F5F4F90E030E0D2
:101BA0008081882341F0281718F010829C2F03C0F1
:101BB000821B80833C2F3196E417F50789F7309319
:101BC000310290932E0230C0BB2031F10E944D08AB
:101BD0009093300280932F02E0913702F091380207
:101BE00080913102AFE4B2E09F01225F3F4F4EE1AE
:101BF000E80199918E015C91591731F05081511192
:101C000003C040839C9381E031961196E217F3075D
:101C100079F7809331020CC080E090912E029923D5
:101C200039F08111D9CFD2CFB110D6CF81E0F5CF25
:101C30008B2DCDB7DEB7E9E00C94CD1CAAE0B0E067
:101C4000E4E2FEE00C94AE1CFC01808191812381D2
:101C50003481232B31F09F3F31F491E08F3F19F411
:101C600003C091E001C090E090FD4FC47F0185E08A
:101C7000DE01169601900D928A95E1F7D701129632
:101C80002C918E819F81222349F00E948A19182F5E
:101C9000682F8E819F810E94081A03C00E94D31969
:101CA000182F6E817F81812F0E949E088C01F70181
:101CB0008281811106C00F3AFDE51F0709F442C079
:101CC00083C08091150190911601019609F417C403
:101CD00037E1C32E31E0D32EA12CB12C992493945B
:101CE00080911501909116018A159B0524F3D60168
:101CF00016968C9116978823F1F019968D919C91E8
:101D00001A978017910739F480916D0290916E02B5
:101D10008017910781F0F6019786148703878189E0
:101D2000811103C0C6010E941917C60106960E94C0
:101D3000381710926F02FFEFAF1ABF0A26E1C20EEA
:101D4000D11CCECFD70112968C91882309F497C06D
:101D50009091390281E0890F8770987F853020F457
:101D6000892B8093390202C0909339028091390205
:101D70008770BFEF8B9FC00111249595879595952E
:101D800087959927909389008093880090938B0082
:101D900080938A0090938D0080938C00409139024B
:101DA00050913A0260913B0270913C028FE090E0CA
:101DB0000E94051D60914B0270914C0280914D0272
:101DC00090914E020E948A14C80197558F3F910549
:101DD00011F008F054C02091150130911601281718
:101DE000390724F49093160180931501F70122819D
:101DF00036E1389F5001399FB00C1124C501895E2E
:101E00009E4F6C01DC0150962C9350979281169650
:101E10008C911697992341F11A961C930E9319975A
:101E20008F5F16968C930E944D08F60196878587E2
:101E300080912802878390916F0280918001892B85
:101E400080870190F081E02DC501835E9E4F309721
:101E500031F0D60154966D917C9155970995109368
:101E60006E0200936D020BC0882349F0F601818950
:101E7000882329F0C501835E9E4F0E943817D70141
:101E800012968C91882309F46EC00C35BDE51B07B2
:101E900009F464C060F40115FCE51F07A9F00F3DCB
:101EA0002CE5120709F05FC00E94400A4CC00E35B5
:101EB0003DE5130709F44AC008F452C0093A9DE50C
:101EC000190709F440C04FC0109280010E94BE1A49
:101ED000AFEFB4E3ECE0A150B040E040E1F700C068
:101EE0000000F89481E08093E00080E28093D800C5
:101EF0001092C9008FE19EE40197F1F700C0000045
:101F00001DBA109268001CBC10BE1FBA10927A0055
:101F100010926E0010926F00109271001092720079
:101F20001092C9001092BC0014B817B81AB81DB8A6
:101F300010BA1092BC0015B818B81BB81EB811BA68
:101F40000C94003FCBC20E947214C8C280917B01E6
:101F500082FB882780F991E0892703C081E001C0D6
:101F600080E00E94420BD70112968C9112970D913E
:101F70001C91882349F0C8010E948A19D82E682F25
:101F8000C8010E94081A04C0C8010E94D319D82EA3
:101F9000B8018D2D0E949E080E94B7088C01982ED2
:101FA000F701D280B580B2949FE0B92280910702F8
:101FB0008770B9F0DD20A9F0812F807F803421F077
:101FC00080E2800F883068F080917B0182FF09C039
:101FD00082E00E94250B809107028770CC24C39475
:101FE0008111C12CA12EA2948FE0A8228A2D90E00D
:101FF0008C30910508F044C2FC01E05AFF4F0C946C
:10200000271D812F807F1F70882311F01295107F6C
:10201000DD20B9F0112309F420C280E2800F88305E
:1020200010F0911006C080918001182B1093800150
:1020300005C080916F02182B10936F020E94D00A86
:102040000CC2802F0E94F41A112309F419C2005EF9
:10205000812F083060F1992051F10E94C20A29C0F5
:10206000812F807F1F70803211F01295107F992090
:1020700021F0F1E09F16D9F147C080917B0182FDEC
:102080001BC0DD2069F0112339F080918001182BED
:10209000109380010E94D00A80E00E94201BF0C1B2
:1020A00080E00E94F41A112309F4EAC1812F0E94F2
:1020B000C90A0E94D00AE4C1DD2081F08091280283
:1020C000BB2051F001E0B01207C0182B181709F41B
:1020D000D7C110932802D4C1812B10C0BB2021F09E
:1020E00021E0B21609F4CCC10E94BC0A1FC0DD2059
:1020F00041F031E03B1508F4C3C1812F0E94EA1A78
:10210000BFC1B110BDC112C0DD2019F0BB20A9F3C1
:10211000A4C1BB2059F0093309F0AFC18FEF97EE8E
:10212000A3E081509040A040E1F7A5C1812F0E941B
:10213000E31AA6C1812F86958695837019F08130A8
:1021400059F09EC1DD2019F0C801937002C080E0F3
:1021500090E00E94F6169AC1DD2019F0C801937034
:1021600002C080E090E00E94E01690C1812F837051
:1021700009F069C0D11088C1902F929596959770FB
:10218000990F990F802F8F70882E912CA12CB12C34
:10219000092E04C0880C991CAA1CBB1C0A94D2F7F7
:1021A00004FF12C04FE050E060E070E004C0440F54
:1021B000551F661F771F9A95D2F7DB01CA018095DC
:1021C0009095A095B09503C080E090E0DC01169555
:1021D0001695412F4370423019F1C8F4009129023D
:1021E00010912A0220912B0230912C02413059F09B
:1021F00088299929AA29BB29BC01CD016023712313
:10220000822393230AC0802A912AA22AB32ABC01DE
:10221000CD01682979298A299B290E94931A34C102
:1022200088299929AA29BB290091290210912A02FB
:1022300020912B0230912C02BC01CD016027712727
:1022400082279327EACFDD2019F0812F817001C00A
:102250008695882309F418C1902F929596959770CA
:10226000990F990F802F8F70882E912CA12CB12C53
:10227000092E04C0880C991CAA1CBB1C0A94D2F716
:1022800004FF12C04FE050E060E070E004C0440F73
:10229000551F661F771F9A95D2F7DB01CA018095FB
:1022A0009095A095B09503C080E090E0DC01169574
:1022B0001695412F43704230D9F068F500914B02DA
:1022C00010914C0220914D0230914E02413059F054
:1022D00088299929AA29BB29BC01CD016023712332
:1022E000822393231EC0802A912AA22AB32A13C0D4
:1022F00088299929AA29BB2900914B0210914C02E7
:1023000020914D0230914E02BC01CD016027712712
:102310008227932706C0BC01CD01682979298A2923
:102320009B290E943E1AB0C01F70DD2039F0812F1A
:102330000E94711A802F0E94EA1AA6C0802F0E9464
:10234000E31A812F0E944B1A9FC0802FB2EF9B1679
:1023500009F441C0B91538F0E0EF9E1659F0F1EFDD
:102360009F16A1F175C023EF9216E1F134EF931699
:1023700049F16EC0DD2009F1B11082C01F7181E00A
:1023800090E0A0E0B0E0AC01BD0104C0440F551FD7
:10239000661F771F1A95D2F780914B0290914C02DD
:1023A000A0914D02B0914E028A019B010827192786
:1023B0002A273B27C901B80129C021E02B1508F4C1
:1023C0005FC0DCCF80917B0182FD23C0DD2029F03E
:1023D000812F8F7130C0DD20D9F3812F8F710E9442
:1023E0004B1A4EC0DD2079F01F7181E090E0A0E033
:1023F000B0E0BC01CD0104C0660F771F881F991F94
:102400001A95D2F703C060E070E0CB010E943E1A3B
:1024100037C0DD2099F01F71812F0E94711A8091C1
:102420007B0182FF07C038E0139FC0011124836045
:1024300080930702812F0E94711A22C081E00E94BE
:10244000250B81E08B15E0F482E00E94250B18C07B
:10245000DD2029F0BB2009F4BBCF802F1ECEBB208E
:1024600009F4BBCF893349F49FEFA7EEB3E0915055
:10247000A040B040E1F700C00000802F0E94F41A95
:1024800088EF8A0D843010F40E940C17CC20A9F03C
:102490008091070280FD11C0F70112828595859514
:1024A00085950E94711AC7010E941E0E8091070235
:1024B0008595859585950E944B1A85E0F701DE018B
:1024C000119601900D928A95E1F709811A81C80150
:1024D0000E94D319B8010E949E0817C0809107027C
:1024E000877099F0D70112968C91882371F08091B2
:1024F0007B0182FF0AC082E00E94250B06C00F3AD2
:10250000BDE51B0709F424CC5FCC2A96ECE00C94C3
:10251000CA1C9C013A9521153F4130F5BC01662744
:102520007270AC01442754709C012227387094FFCC
:102530000FC090FF02C080E101C080E0672B09F06E
:102540008062452B09F08064232B79F08068089520
:10255000892F8170672B09F08260452B09F0846018
:10256000232B19F08860089580E00895FC01808194
:10257000813041F49185911114C09285992389F09D
:1025800082E00895823041F48185811107C08285FF
:10259000811106C083E0089586E0089585E00895DE
:1025A00084E00895CF93DF93EC010E94F41ACE01EA
:1025B000805E9109089710F0209731F4CE010E94B7
:1025C00089120E94E31A05C0CE010E9489120E945E
:1025D000D21ADF91CF910895CF93DF93EC01805E03
:1025E0009109089710F0209731F4CE010E948912CA
:1025F0000E94EA1A05C0CE010E9489120E94D91ACF
:102600008C2F0E94201BDF91CF910895CF93DF93F1
:10261000EC010E94EC12C933D10549F42FEF87EE8B
:1026200093E0215080409040E1F700C00000CE01CF
:102630000E94D212DF91CF910895CF93DF93EC01E6
:102640008881833061F481E292E00E94061381E286
:1026500092E00E94061381E292E00E9406138881B4
:10266000843020F081E292E00E940613DF91CF9146
:102670000895CF93DF93EC018881833061F483E286
:1026800092E00E94061383E292E00E94061383E226
:1026900092E00E9406138881843020F083E292E069
:1026A0000E940613DF91CF9108958FE39CE9019773
:1026B000F1F700C0000080913602823049F018F432
:1026C000813051F00DC0833039F0853029F008C0D9
:1026D00081E00E944B1A04C081E292E00E94D21273
:1026E0001092360208958FE39CE90197F1F700C03C
:1026F000000080913402823049F018F4813051F0AA
:102700000DC0833039F0853029F008C081E00E9487
:102710004B1A04C083E292E00E94D212109234025B
:1027200008950E94B61280933602823049F018F460
:10273000813099F00895833039F0853051F0089553
:1027400081E00E94711A089581E292E00E94EC12E9
:1027500004C081E292E00E94061381E292E00E94AE
:10276000EC1208950E94B61280933402823049F030
:1027700018F4813099F00895833039F0853051F0A4
:10278000089581E00E94711A089583E292E00E9408
:10279000EC1204C083E292E00E94061383E292E00E
:1027A0000E94EC120895A7E1B0E0E9EDF3E10C948A
:1027B000B71C4B8B5C8B6D8B7E8B8F8B611110925A
:1027C0006F0286E09E01235F3F4FD901E82F1D92E3
:1027D000EA95E9F795E0FE017396D90101900D9213
:1027E0009A95E1F79C894E895F897B897D879E87D1
:1027F0006F87598B488BF901DE01179601900D9276
:102800008A95E1F7CE0107960E94D10B81113EC057
:1028100086E0FE013796DE01119601900D928A95B1
:10282000E1F7FF81E8856A857B856115710531F0E7
:10283000EF3F31F481E0FF3F19F403C081E001C0B4
:1028400080E080FD23C02091D50130E0C9010196D0
:10285000877099274091060250E08417950779F117
:10286000F983EA837D836C8396E0929FD001939FE6
:10287000B00D1124AA52BE4FFE01319601900D9267
:102880009A95E1F78093D5010E945E0B16E0809146
:1028900006029091D501891709F1189FC0011124F2
:1028A0008A529E4F0E94D10B8823C1F0809106026C
:1028B00090E001968770992780930602E8CF1092E6
:1028C00080010E94BE1A1092D50110920602EFEC10
:1028D000F1E086E0DF011D928A95E9F76796E3E073
:1028E0000C94D31C109280010E94BE1A2FEF84E337
:1028F0009CE0215080409040E1F700C000009AE049
:1029000088E10FB6F894A895809360000FBE90936D
:102910006000FFCFCF92DF92EF92FF920F931F9351
:102920006C01EE24FF24C114D104E104F10411F080
:10293000E0E103C06B017C01E0E033272F2D1E2D69
:102940000D2D011511052105310519F0E85F68010C
:10295000790197018601F4E036952795179507953B
:10296000FA95D1F7011511052105310519F0EC5F34
:10297000680179019701860152E0369527951795F0
:1029800007955A95D1F7011511052105310519F063
:10299000EE5F6801790197018601369527951795B5
:1029A0000795012B022B032B09F0EF5F56985E98D9
:1029B00025982D9826982E9827982F980E2F10E05E
:1029C000F8013197E730F105A8F4E459FF4F0C9472
:1029D000271D259A2D9A0EC0259A2D9A269A2E9A51
:1029E00009C0259A2D9A04C0259A2D9A269A2E9AC6
:1029F000279A2F9A1F910F91FF90EF90DF90CF9021
:102A0000089580E290E090931401809313018091E7
:102A1000320281110EC00E94C01B81E080933202FD
:102A20002FEF83ED90E3215080409040E1F700C00C
:102A3000000064E670E080E40E94C61B90931401DD
:102A400080931301892B09F04EC064E670E080E0AA
:102A50000E943B1C9093140180931301892B09F071
:102A600042C064E670E080E00E943B1C9093140139
:102A700080931301892BB9F564E670E08FE30E941F
:102A80003B1C9093140180931301892B61F50E94E4
:102A9000901C64E670E080E40E94C61B90931401D1
:102AA00080931301892BF9F464E670E08CE00E94B6
:102AB0003B1C9093140180931301892BA1F464E6CD
:102AC00070E080E00E943B1C9093140180931301FE
:102AD000892B49F464E670E08FE30E943B1C9093DD
:102AE0001401809313010E94901C8091130108959A
:102AF000CF93DF9356985E9825982D9826982E9818
:102B000027982F98C8E8D0E08FEF90E099838883CA
:102B1000AAE8B0E011969C938E93ECE8F0E09183E4
:102B20008083259A2D9A2FEF80E792E021508040F4
:102B30009040E1F700C00000269A2E9A2FEF80E720
:102B400092E0215080409040E1F700C00000279AB9
:102B50002F9A2FEF80E792E0215080409040E1F7DC
:102B600000C0000025982D982FEF80E792E02150BB
:102B700080409040E1F700C0000026982E982FEF8B
:102B800080E792E0215080409040E1F700C00000D3
:102B900027982F988091390287702FEF829FC0016C
:102BA000112495958795959587959927998388837D
:102BB00011969C938E939183808356985E98259866
:102BC0002D9826982E9827982F98DF91CF910895C9
:102BD000CF93E82F873080F58091130190911401F5
:102BE000892B09F047C0CE2F64E670E080E40E9494
:102BF000C61B9093140180931301892BD1F464E6D2
:102C000070E082E10E943B1C9093140180931301B9
:102C1000892B79F481E090E001C0880FCA95EAF72A
:102C200064E670E080950E943B1C909314018093B1
:102C300013010E94901C1EC090E0FC013797E73002
:102C4000F105C0F4ED58FF4F0C94271D209A2898E9
:102C500011C0219A29980EC0229A2A980BC0239A53
:102C60002B9808C0529A5A9805C0539A5B9802C094
:102C70003E9A4698CF9108952098289821982998AF
:102C800022982A9823982B9852985A9853985B9890
:102C90003E9846980895CF93873040F58091130170
:102CA00090911401892B59F564E670E081E40E944B
:102CB000C61B9093140180931301892B11F0C0E07F
:102CC00011C084E690E00E946B1C97FF05C09093B2
:102CD000140180931301F3CFC82FC09510921401F3
:102CE000109213010E94901C8C2F0AC09FB18FB1CB
:102CF000807F869586959370892B809501C080E0B2
:102D0000CF9108958098889A8198899A84988C9A0E
:102D100085988D9A86988E9A87988F9A08951F9293
:102D20000F920FB60F9211248F939F93AF93BF937F
:102D300080917602811113C0809176019091770184
:102D4000A0917801B09179014196A11DB11D8093A8
:102D5000760190937701A0937801B0937901BF91A8
:102D6000AF919F918F910F900FBE0F901F9018956C
:102D7000209106012223C9F020917A0127FF15C076
:102D8000262F2695269526952E31C8F4FC01E20FB4
:102D9000F11D677081E090E001C0880F6A95EAF745
:102DA00080959281892382830895FC010696228171
:102DB000621301C012823196E817F907C1F708952E
:102DC00020917402309175022817390771F09093A1
:102DD000750280937402E0917202F0917302309751
:102DE00021F00084F185E02D09950895209170026D
:102DF000309171022817390771F090937102809316
:102E00007002E0917202F0917302309721F0068017
:102E1000F781E02D09950895E0917202F091730217
:102E2000309729F00190F081E02D0995089580E018
:102E30000895CF93DF93EC0181E0898B909180011D
:102E40008F81892B8093800190916F028885892BD7
:102E500080936F020E94D00AEA81FB81CE01069620
:102E6000309719F06C897D890995DF91CF9108958C
:102E7000EF92FF920F931F93CF93DF93FC01228574
:102E8000211136C0EC01E380F480F7E5FF1A26E15A
:102E90002E9DC0012F9D900D1124DC01A95EBE4F17
:102EA0001496ED91FC911597835E9E4F309729F013
:102EB00054966D917C915597099586E18E9D800180
:102EC0008F9D100D1124095E1E4FF80187810E940D
:102ED000C90AF80180850E94C20A0E94D00A18829D
:102EE00019861B861E821D8210926E0210926D0240
:102EF000CDB7DEB7E6E00C94D01CAAE0B0E0E3E882
:102F0000F7E10C94AB1C85B7806885BF85B78068F6
:102F100085BF84B7877F84BF0FB6F894A89580914A
:102F20006000886180936000109260000FBE90E0A6
:102F300080E80FB6F89480936100909361000FBE13
:102F400089E598E090937501809374010E94C7060B
:102F50000E94E6068091E20084608093E20078940B
:102F60008091A5018823A1F01091E9001F70909134
:102F7000EC00892F817090FD80E8182B1092E900F9
:102F80008091E80083FD0E94BF031F701093E90049
:102F900082E084BD93E095BD9AEF97BD80936E006B
:102FA0000E94011590E090931401809313010E94F8
:102FB0003C160E948216EDE3F2E0AFE4B2E011921B
:102FC0001D9222E0EB34F207D1F78EE090E00E94F0
:102FD0002D1D8093370290933802FC010E961192BA
:102FE000E817F907E1F789EA8093800089E0809388
:102FF000810024982C983F988AB18F7C8AB96E986A
:10300000479A8BB180638BB9769A8FE090E00E94EB
:10301000E71C6093390270933A0280933B029093CD
:103020003C0267708FEF689FB0011124759567951A
:1030300075956795772770938900609388007093E2
:103040008B0060938A0070938D0060938C000E94C7
:10305000781580E090E00E94ED1C883E9E4F11F0B4
:103060000E94400A82E090E00E94DF1C80935D0293
:1030700084E090E00E94DF1C182F82E290E00E9422
:10308000DF1C212F30E0382B30937B0120937A0115
:1030900083E090E00E94DF1C682F70E080E090E009
:1030A0000E94931A60914B0270914C0280914D02E4
:1030B00090914E020E948A1487E091E090937302EF
:1030C0008093720228E1C22ED12C30E4732E40E1AD
:1030D000842E52E1952E8091A501853009F052C0D1
:1030E0008091A501853009F047C08091A501843009
:1030F00009F1109276020FB6F894A895C09260007C
:103100000FBE7092600083B7817F846083BF83B7F6
:10311000816083BF7894889583B78E7F83BF0FB615
:10312000F894A89580916000886180936000109267
:1031300060000FBE8091A401882391F20E940115C6
:1031400090E090931401809313010E943C160E941A
:103150008216EFE4F2E0119222E0ED35F207D9F7A2
:103160000E94580DEFE4F2E081918111AEC082E03F
:10317000ED35F807C9F7B4CF109280010E94BE1A4E
:103180000E940C170E94580D882359F08FB7F894AD
:1031900040917601509177016091780170917901A9
:1031A0008FBFEEE5F2E0AFE4B2E000E010E0302FD8
:1031B0002D919191922721F180E0FF24F394492FE2
:1031C0004F21D1F089833A832F2181E009F480E0F7
:1031D0008B830E944D088160782F9D838C83498169
:1031E0005A816B818D810E94D313F801E25AFD4F01
:1031F0008081F826F08219C08F5FFF0C8630F9F6C7
:103200000F5F1F4F0E30110591F68FEF8E838F8366
:1032100018860E944D088160782F9A8789874E8191
:103220005F8168858A850E94D313809115019091F2
:103230001601019641F1612C96E1592E1BC05E9C4E
:10324000F0015F9CF00D1124E95EFE4FA288B38867
:10325000A114B10419F488ECA82EB12C5E9C800155
:103260005F9C100D1124095E1E4FF80186818111AB
:1032700014C06394E62CF12C8091150190911601F5
:103280008E159F05E4F60E940C1790916C02891729
:1032900009F421CF80936C021ECF858596850E940C
:1032A0003E08A816B90628F7F8018189811103C0E4
:1032B000C8010E9419175E9CC0015F9C900D1124EB
:1032C000835E9E4F0E943817D4CF89BC99BC09B445
:1032D00000FEFDCF8091D8008F7D8093D800809133
:1032E000E00082608093E0008091E00081FDFCCFEF
:1032F000109280010E94BE1AF3CE80E090E00E94FE
:10330000F61680E090E00E94E01610926F020E9494
:10331000D00A0895A0E0B0E0E0E9F9E10C94B11C16
:103320008C01C0904B02D0904C02E0904D02F09086
:103330004E028091290290912A02A0912B02B09115
:103340002C02C82AD92AEA2AFB2ACFE1D0E0D701E9
:10335000C6010C2E04C0B695A795979587950A943B
:10336000D2F780FD04C0219790F7B12C09C0BC2E84
:10337000B8018C2F0E949E080E94B708019799F30C
:103380008B2DCDB7DEB7E9E00C94CD1CCF93DF9346
:10339000EC010E948A19BE010E949E080E94B70893
:1033A000DF91CF910895292F9E3080F5863070F5FA
:1033B00090E036E0239F800D911D1124682F6770E7
:1033C00023E0969587952A95E1F725E0289FF0015F
:1033D000299FF00D1124E958FD4F40E050E080E0B6
:1033E000219130E0062E02C0369527950A94E2F727
:1033F00021703327042E01C0220F0A94EAF7822B92
:103400004F5F5F4F4530510559F7089580E00895AB
:10341000292F9E3090F5863080F590E036E0239F8E
:10342000800D911D1124282F277051E001C0550FE8
:103430002A95EAF723E0969587952A95E1F725E006
:10344000289FF001299FF00D1124E958FD4F20E03D
:1034500030E070E04081CB01022E02C09695879546
:103460000A94E2F7817081958427852384278193CC
:103470002F5F3F4F2530310569F708950E948A1468
:1034800060934B0270934C0280934D0290934E02D6
:103490000E947D1908950F931F9341E050E060E072
:1034A00070E004C0440F551F661F771F8A95D2F73E
:1034B000409550956095709580914B0290914C028B
:1034C000A0914D02B0914E028A019B01082319235D
:1034D0002A233B23C901B8010E943E1A1F910F9174
:1034E00008950F931F9341E050E060E070E004C046
:1034F000440F551F661F771F8A95D2F780914B02A4
:1035000090914C02A0914D02B0914E028A019B0114
:10351000082B192B2A2B3B2BC901B8010E943E1AFC
:103520001F910F9108956093290270932A0280934E
:103530002B0290932C020E947D190895FC0180813A
:1035400091810E94C61992959F70963079F010F47F
:10355000925001C09A50923068F4803F69F018F49C
:10356000883E40F409C0843F29F406C0883E20F01C
:10357000813F11F080E0089581E008958091060177
:10358000882331F080917A0187FF02C08EE101C06B
:1035900086E0E1EBF1E0DF011D928A95E9F70E94F8
:1035A0007D190895882321F00E94C20A0E94D00A42
:1035B0000895882339F090916F02892B80936F02D0
:1035C0000E94D00A0895882321F00E94C90A0E940F
:1035D000D00A0895882339F090918001892B809337
:1035E00080010E94D00A0895882349F1682F8CEF4A
:1035F000860F813A28F48FEA91E00E94B8160CC039
:1036000080E2860F883058F4677081E001C0880F2F
:103610006A95EAF70E94C90A0E94D00A08958BE5CC
:10362000860F833028F480E090E00E94F61608951B
:10363000685A673120F480E090E00E94E016089517
:10364000CF93882309F49AC0C82F8CEF8C0F813A4E
:1036500008F05EC0809106018823E1F080917A0134
:1036600087FF18C0EC2FE695E695E695F0E0E1556A
:10367000FE4F8281282F30E04C2F477081E090E090
:1036800002C0880F991F4A95E2F782239323892B62
:1036900059F411C0E1EBF1E08191C81729F081E004
:1036A000E73BF807C9F707C06C2F8FEA91E00E944B
:1036B000B8160E94D00A809106018823C9F0809133
:1036C0007A0187FF15C0AC2FA695A695A695B0E008
:1036D000A155BE4FC77081E090E001C0880FCA9528
:1036E000EAF712969C911297892B12968C9320C020
:1036F000A1EBB1E0EFEF80E09D91C917C9F0EF3F7A
:1037000019F4911101C0E82F8F5F8630A9F72DC001
:1037100080E28C0F883078F4C77081E090E001C0BF
:10372000880FCA95EAF790918001892B80938001D8
:103730000E94D00A23C0EBE5EC0FE33040F4F0E048
:10374000ED5BFE4F808190E00E94F61617C0C85ACC
:10375000C731A0F4EC2FF0E0EE0FFF1FEA5BFE4F45
:10376000808191810E94E01609C0EF3F09F30E2E7F
:10377000000CFF0BE155FE4FC283DACFCF910895C5
:103780001092B9008CE08093B8000895A0E0B0E0FA
:10379000ECECFBE10C94AF1CB82EEB010E944D0841
:1037A0006C01C431D10558F0CF3F8FEFD80759F0E5
:1037B000CE0164E170E00E94941C7B0107C0EE24FE
:1037C000E394F12C03C025E0E22EF12C84E8A82E2E
:1037D00094EA992E1092BC009092BC000E944D0871
:1037E0008C018091BC0087FD08C00E944D08801BA1
:1037F000910B8E159F05A8F32AC08091B900887F90
:10380000883041F08091B900887F803119F00FEF46
:103810001FEF1FC0B092BB00A092BC000E944D08D9
:103820008C018091BC0087FD08C00E944D08801B60
:10383000910B8E159F05A8F30AC08091B900887F6F
:10384000883111F0803419F700E010E00EC00EEF5F
:103850001FEFCF3F8FEFD80709F4BCCFC6010E94FE
:103860003E088C179D0708F4B5CFC801CDB7DEB769
:10387000EBE00C94CB1C0F931F93CF93DF93EB01E2
:103880008093BB0084E88093BC000E944D088C01AB
:103890008091BC0087FD0EC0CF3F8FEFD807C1F3EA
:1038A0000E944D08801B910B8C179D0788F38EEFAB
:1038B0009FEF0CC02091B900287F81E090E0283272
:1038C00011F480E090E0919581959109DF91CF917D
:1038D0001F910F9108950F931F93CF93DF93EC01E6
:1038E00084E88093BC000E944D088C018091BC004C
:1038F00087FD0EC0CF3F8FEFD807C1F30E944D0860
:10390000801B910B8C179D0788F38EEF9FEF03C0F0
:103910008091BB0090E0DF91CF911F910F910895AE
:1039200084E98093BC000895AA1BBB1B51E107C02A
:10393000AA1FBB1FA617B70710F0A61BB70B881F3F
:10394000991F5A95A9F780959095BC01CD010895CE
:103950002F923F924F925F926F927F928F929F929F
:10396000AF92BF92CF92DF92EF92FF920F931F938D
:10397000CF93DF93CDB7DEB7CA1BDB0B0FB6F8943E
:10398000DEBF0FBECDBF09942A88398848885F847E
:103990006E847D848C849B84AA84B984C884DF80EF
:1039A000EE80FD800C811B81AA81B981CE0FD11DD3
:1039B0000FB6F894DEBF0FBECDBFED010895F999A3
:1039C000FECF92BD81BDF89A992780B50895A6E1F2
:1039D000B0E044E050E00C94191DA8E1B0E042E0F2
:1039E00050E00C94191D262FF999FECF92BD81BD90
:1039F000F89A019700B4021639F01FBA20BD0FB62D
:103A0000F894FA9AF99A0FBE08950396272F0E9408
:103A1000F41C0E94F31C252F0E94F41C242F0C94EC
:103A2000F41C0196272F0E94F41C0C94F31CDC015B
:103A3000CB01FC01F999FECF06C0F2BDE1BDF89AB9
:103A4000319600B40D9241505040B8F70895EE0FF2
:103A5000FF1F0590F491E02D09940F931F93CF93CE
:103A6000DF938230910510F482E090E0E091B002A3
:103A7000F091B10220E030E0A0E0B0E0309719F121
:103A8000408151810281138148175907C8F084177A
:103A9000950769F4109731F012960C9312971396CC
:103AA0001C9327C00093B0021093B10222C02115CD
:103AB000310519F04217530718F49A01BD01EF01BF
:103AC000DF01F801DBCF21153105F9F0281B390B97
:103AD0002430310580F48A819B816115710521F0C4
:103AE000FB019383828304C09093B1028093B00260
:103AF000FE01329644C0FE01E20FF31F81939193C1
:103B000022503109398328833AC02091AE02309186
:103B1000AF02232B41F42091020130910301309335
:103B2000AF022093AE0220910001309101012115D6
:103B3000310541F42DB73EB7409104015091050184
:103B4000241B350BE091AE02F091AF02E217F307B0
:103B5000A0F42E1B3F0B2817390778F0AC014E5FFD
:103B60005F4F2417350748F04E0F5F1F5093AF0289
:103B70004093AE028193919302C0E0E0F0E0CF0168
:103B8000DF91CF911F910F910895CF93DF9300970D
:103B900009F481C0FC01329713821282A091B00215
:103BA000B091B102109781F420813181820F931F6F
:103BB0002091AE023091AF022817390751F5F093EA
:103BC000AF02E093AE0267C0ED0120E030E0CE1717
:103BD000DF0740F44A815B819E0141155105F1F0F8
:103BE000EA01F5CFD383C28340815181840F951FB1
:103BF000C817D90759F488819981840F951F0296B7
:103C0000918380838A819B819383828321153105EF
:103C100029F4F093B102E093B0023DC0E901FB83C7
:103C2000EA8349915991C40FD51FEC17FD0761F440
:103C300080819181840F951F0296E9019983888381
:103C4000828193819B838A83E0E0F0E012968D91DC
:103C50009C911397009719F0FD01DC01F7CF8D912E
:103C60009C9111979D012E5F3F4F820F931F2091D2
:103C7000AE023091AF022817390769F4309729F462
:103C80001092B1021092B00202C013821282B0935D
:103C9000AF02A093AE02DF91CF910895FB01DC014A
:103CA00004C08D910190801921F441505040C8F713
:0A3CB000881B990B0895F894FFCFCC
:103CBA000000B20220000146037E03450379037423
:103CCA000344032000FFFF3913B2137313000000EB
:103CDA00000000000000000000000000001D139119
:103CEA00135513000000000000000000000000004F
:103CFA00000000818283E200E900EA00B500B60014
:103D0A00B700CD008301CC008A01920194012102FF
:103D1A00230224022502260227022A02B300B40043
:043D2A006F007000B6
:00000001FF
