:100000000C945D040C947A040C947A040C947A0495
:100010000C947A040C947A040C947A040C947A0468
:100020000C947A040C947A040C94CC2D0C949E2E8F
:100030000C947F280C947A040C947A040C947A041F
:100040000C947A040C947A040C947A040C947A0438
:100050000C947A040C94E7280C947A040C947A0497
:100060000C947A040C947A040C947A040C947A0418
:100070000C947A040C947A040C947A040C947A0408
:100080000C947A040C947A040C947A040C947A04F8
:100090000C947A040C947A040C947A040C947A04E8
:1000A0000C947A040C947A040C947A04D204D50447
:1000B000D804DB04DE04E104E404CB07D007DA074C
:1000C000CE07D307D807D6071E0920092B09220916
:1000D0002409260928092A092D092F0931093C0973
:1000E00033093509370939093B093E09CB15CE15C6
:1000F000D115D415D715DA15DD15E015E315E6157C
:10010000E915F11DF11D231E231E5A1EFF1FA11FFD
:10011000FF1F7A1EFF1F271F271F981FFF1FFF1F8C
:10012000F91F341F341F341F341F341F341F341F72
:10013000341F341F341F341F341F341F341F341F27
:10014000341F451F521F591F601F6A1F86208620BB
:10015000982098208F20982098209820862086200C
:1001600094209820982094200B2F322F2430322F67
:1001700024307E2FA12F2430F72F063005A84CCD38
:10018000B2D44EB93836A9020C50B9918688083CD1
:10019000A6AAAA2ABE000000803F6572676F646F3E
:1001A000785F657A2F3033326635343061356230AE
:1001B000636666626135386633204020302E362E05
:1001C0003237332D31362D676234653462652D64E4
:1001D00069727479000000F0A100000000000000C6
:1001E000000000000000000000000000000000000F
:1001F00000000000000000000000000000000000FF
:1002000000000000000000000000000000000000EE
:1002100000000000000000000000000000000000DE
:1002200000000000000000000000000000000000CE
:1002300000000000000000000000000000000000BE
:1002400000000000000000000000000000000000AE
:10025000000000000000000000000000000000009E
:10026000000000000000000000000000000000008E
:10027000FFFF00FFFF00B7EE00000000FFFF00FFE0
:10028000FF00FFFF00FFFF00000000FFFF00FFFF77
:1002900000FFFF00FFFF00000000FFFF00FFFF0066
:1002A000FFFF00000000000000B7EE00B7EE000006
:1002B0000000FFFF00FFFF00FFFF00FFFF00FFFF48
:1002C00000FFFF00FFFF0000000000000000000032
:1002D000FFFF00FFFF00FFFF00FFFF000000000026
:1002E000000000000000000000000000000000000E
:1002F00000000000000000000000000000000000FE
:10030000000055CB9E55CB9E00000055CB9E0000B3
:100310000000000000000055CB9E55CB9E55CB9EA3
:1003200055CB9E000000000000000000000000000F
:1003300000000000000000000000000000000000BD
:1003400000000000000000000000000000000000AD
:1003500000000000000000000055CB9E00000000DF
:10036000000055CB9E55CB9E55CB9E00000055CB33
:100370009E00000000000055CB9E00000000000021
:1003800000000000000000000029002B003500E103
:1003900000E00000001E00140004001D0001000227
:1003A000511F001A0016001B000100E30020000886
:1003B000000700060001002A0021001500090019AD
:1003C00000E2000351220017000A0005000000238C
:1003D00002230050090000010000003E0024004FED
:1003E0000900002E000000015325001C000B001125
:1003F0000000002102260018000D001000657401A5
:100400000027000C000E00360001002C002F001207
:10041000000F0037000100280030001300330038BF
:1004200000010001512D0031003400E500E400001E
:10043000000000000000000000000000003A000082
:100440000000000000000001003B0000004200002E
:1004500000000001003C0000004300000000004CD0
:10046000003D00400044000000000001003E00414B
:100470000045000000000001003F000000000000F7
:10048000000000010000000000000000000000B2B9
:100490000000000000000000000000010000005FFC
:1004A000005C00590000000100540060005D005A2B
:1004B0000063002700550061005E0020006300011A
:1004C0000056005700570001000100010000000025
:1004D0000000000000010000000100010001000117
:1004E0000001000000010001000100010001000105
:1004F0000001004F01E0024C000100010001000179
:10050000004E0001000100010001000100E00001B7
:100510000001000100010001000100500100004A3B
:10052000000100010000003002000001004600014F
:100530000000000100000001000100010050000166
:100540000000004D0001004B0051000100010001BE
:10055000000100010052000100010001002F000114
:10056000004F000100010001003000010001000106
:1005700000010001002E0001000100010001000047
:100580000000000000000000002A2B2800000000EE
:100590000000000000000000000000002900000032
:1005A000002C1E3420212224342627252E362D37D8
:1005B00038271E1F202122232425263333362E37A9
:1005C000381F0405060708090A0B0C0D0E0F101141
:1005D00012131415161718191A1B1C1D2F3130234E
:1005E0002D350405060708090A0B0C0D0E0F101116
:1005F00012131415161718191A1B1C1D2F3130351C
:100600004C0000000000000000000000000000009E
:1006100000000000000000000000000000000000DA
:1006200000000101010101010001010101000000C0
:1006300000000000000000000000000100010001B7
:10064000010101010101010101010101010101019A
:10065000010101010101010101010101000000018D
:100660000100000000000000000000000000000089
:100670000000000000000000000000000101010176
:10068000000000000000010101010101010101025F
:100690000202020202020202030303030303030332
:1006A00004040404040405050505050606060606FB
:1006B00007070707080808080909090A0A0A0A0BB0
:1006C0000B0B0C0C0C0D0D0D0E0E0F0F0F1010114F
:1006D00011111212131314141515161617171818D2
:1006E00019191A1A1B1C1C1D1D1E1F1F2020212238
:1006F000222324252526272728292A2B2B2C2D2E7B
:100700002F2F30313233343536363738393A3B3C97
:100710003D3E3F4041424344464748494A4B4C4D89
:100720004F50515253555657585A5B5C5E5F60624A
:1007300063646667696A6C6D6E70717374767879DC
:100740007B7C7E8081838486888A8B8D8F91929436
:1007500096989A9B9D9FA1A3A5A7A9ABADAFB1B356
:10076000B5B7B9BBBDBFC1C4C6C8CACCCFD1D3D63B
:10077000D8DADCDFE1E4E6E8EBEDF0F2F5F7FAFCDD
:10078000FF04033000000016034500720067006F8D
:100790000044006F007800200045005A0000001659
:1007A000034500720067006F0044006F007800206E
:1007B0000045005A0000000403090409023B00023E
:1007C0000100A0FA09040000010301010009211140
:1007D0000100012240000705810308000A09040105
:1007E000000103000000092111010001227100072E
:1007F00005820320000A1201100100000008EDFE2E
:10080000071301000102030105010980A10185030D
:100810001601002603001A81002A83007510950135
:100820008100C0050C0901A1018504160100269C68
:10083000021A01002A9C02751095018100C0050171
:100840000906A1018505050719E029E7150025011D
:10085000950875018102050819012905950575019D
:1008600091029501750391010507190029EF150003
:10087000250195F075018102C005010906A1010558
:100880000719E029E71500250195087501810295F2
:100890000175088101050819012905950575019162
:1008A000029501750391010507190029FF1500261E
:1008B000FF00950675088100C00011241FBECFEF10
:1008C000DAE0DEBFCDBF13E0A0E0B1E0E8E6F8E695
:1008D00002C005900D92A634B107D9F726E0A6E430
:1008E000B3E001C01D92A935B207E1F70E94F02ADA
:1008F0000C9432340C94000080B38C7080BB81B3B4
:10090000836F81BB089584B1807F84B985B1807F76
:1009100085B98AB1837F8AB98BB1837F8BB93E98C1
:1009200046980895CF93E82F873090F58091040181
:1009300090910501892B09F049C0CE2F64E670E043
:1009400080E40E9491199093050180930401892B02
:10095000D1F464E670E082E10E94E8199093050109
:1009600080930401892B79F481E090E001C0880F25
:10097000CA95EAF764E670E080950E94E8199093C2
:1009800005018093040184E690E0CF910C943D1A18
:1009900090E0FC013797E730F105C0F4EA5AFF4FC9
:1009A0000C942533209A289811C0219A29980EC0BA
:1009B000229A2A980BC0239A2B9808C0529A5A98C8
:1009C00005C0539A5B9802C03E9A4698CF9108950D
:1009D000089508950C94E904CF93DF930E947B0659
:1009E00090E090930501809304010E9483040E948B
:1009F0007C04ABE9B3E027E433E0E9EAF3E04EE05E
:100A00004E0F11921D9280E090E0E901C80FD91FAE
:100A10001882019686309105C1F72A5F3F4F4E1329
:100A2000F0CFDF91CF910C9443080E947B0690E0B9
:100A300090930501809304010E9483040E947C042A
:100A4000E9EAF3E08EE08E0F11928E13FDCF089548
:100A5000CF93DF93E62FF0E0E556FC4F4081482727
:100A6000808386E0689FF0011124E95BFC4F20E061
:100A700030E080E061E070E050E0AAE0B22F9081C9
:100A8000992319F09150908307C0EB01022E01C009
:100A9000CC0F0A94EAF78C2BEA0102C0D595C795D2
:100AA000BA95E2F7C0FDA0832F5F3F4F3196263005
:100AB000310521F7DF91CF910895CF93DF93D82FA0
:100AC000873008F040C08091040190910501892B86
:100AD00009F042C064E670E080E40E9491199093AE
:100AE000050180930401892B11F0C0E027C064E662
:100AF00070E083E10E94E81990930501809304015E
:100B0000892B99F764E670E081E40E949119909333
:100B1000050180930401892B41F784E690E00E944F
:100B2000181A97FF05C09093050180930401DDCF4B
:100B3000C82FC095109205011092040184E690E040
:100B40000E943D1A0AC09FB1CFB1C07FC695C6951D
:100B50009370C92BC09501C0C0E06D2F8C2F0E94EF
:100B60002805282F2095ED2FF0E0E755FC4F9081C8
:100B700092238C23892BDF91CF910895EF92FF92DE
:100B80000F931F93CF93DF93809104019091050100
:100B9000892B91F0809146038F5F809346038111EA
:100BA0000BC00E947B0690E09093050180930401A6
:100BB000892B11F40E940D0689EAE82E83E0F82EB5
:100BC00000EB13E0C0E08C2F0E949204D7E0DC0F12
:100BD0008D2F0E9492048C2F0E945D05F701819356
:100BE0007F018D2F0E945D05F80181938F010E9486
:100BF0008304CF5FC73039F70E944F0881E0DF914F
:100C0000CF911F910F91FF90EF900895E82FF0E0A2
:100C1000E755FC4F80810895089556985E98259871
:100C20002D9826982E9827982F988FEF90E09093E4
:100C300089008093880090938B0080938A00909322
:100C40008D0080938C00259A2D9A2FEF80E792E0FB
:100C5000215080409040E1F700C00000269A2E9A73
:100C60002FEF80E792E0215080409040E1F700C0F4
:100C70000000279A2F9A2FEF80E792E021508040C2
:100C80009040E1F700C0000025982D982FEF80E7F5
:100C900092E0215080409040E1F700C0000026988B
:100CA0002E982FEF80E792E0215080409040E1F7AE
:100CB00000C0000027982F9856985E9825982D9888
:100CC00026982E9827982F98089589EA8093800077
:100CD00089E08093810024982C983F988AB18F7C7A
:100CE0008AB96E98479A8BB180638BB9769A0E94C5
:100CF0000D060C94E80480E290E090930501809347
:100D000004018091B70381110EC00E948B1981E00C
:100D10008093B7032FEF83ED90E321508040904004
:100D2000E1F700C0000064E670E080E40E949119E1
:100D30009093050180930401892B09F050C064E66B
:100D400070E080E00E94E81990930501809304010F
:100D5000892B09F044C064E670E080E00E94E81945
:100D60009093050180930401892BC9F564E670E036
:100D70008FE30E94E8199093050180930401892B69
:100D800071F584E690E00E943D1A64E670E080E42C
:100D90000E9491199093050180930401892BF9F425
:100DA00064E670E08CE00E94E8199093050180935E
:100DB0000401892BA1F464E670E080E00E94E81948
:100DC0009093050180930401892B49F464E670E057
:100DD0008FE30E94E819909305018093040184E653
:100DE00090E00E943D1A809104010895AF92BF9255
:100DF000CF92DF92EF92FF920F931F93CF93DF93E7
:100E0000EC0181E00E94561780E98C9F70018D9F54
:100E1000F00C1124C0E0D0E000E010E0670182E0B7
:100E2000C80ED11C57018FEFA81AB80AF601EC0FB3
:100E3000FD1FE752FE4F8491FE01EE0DFF1DE752AC
:100E4000FE4F6491F501EC0FFD1FE752FE4F7491C8
:100E5000882319F08091DC0401C080E00E94670EB5
:100E6000472F282FC8010E941C0F0F5F1F4F23968A
:100E700000331105D9F6DF91CF911F910F91FF90AB
:100E8000EF90DF90CF90BF90AF9008958091B8031E
:100E900081113FC06091870470918804809189041A
:100EA00090918A040E94DF26813061F118F082302F
:100EB00061F1089580E190E00E948F336093D9043E
:100EC0007093DA048093DB049093DC04862F86957C
:100ED0008F730E9456178091D904982F9E77923075
:100EE000C1F0881F8827881F9091DA04292F220FCC
:100EF00097FB992790F94091DC046091DB04822BE9
:100F00000C94651781E090E002C082E090E00C94C0
:100F1000F6060895611108C0FC018281882321F042
:100F20008AE991E00E94400880E090E00895863EC2
:100F30002CE5920721F0873E9C4541F010C0FB0153
:100F40008281882369F00E949D2707C0FB0182816E
:100F5000882331F081E00E94471780E0089581E006
:100F60000895CF92DF92EF92FF926B017C010E9475
:100F7000DF2656985E9825982D9826982E982798C3
:100F80002F9890E0FC013197E730F105A8F4E35A7F
:100F9000FF4F0C942533259A2D9A0EC0259A2D9A31
:100FA000269A2E9A09C0259A2D9A04C0259A2D9A20
:100FB000269A2E9A279A2F9AC701B601FF90EF9092
:100FC000DF90CF90089581E008950C949707CF9318
:100FD000282F30E0F901EF57FA4FC491F901EF5F84
:100FE000F94F2491222359F081EE0E94311C8C2F5D
:100FF0000E94311C8C2F0E94481D81EE04C08C2F52
:101000000E94311C8C2FCF910C94481D0F931F937D
:10101000CF93DF93EC01062FFE018491882359F1D1
:101020009E012F5F3F4F813041F4E901F901149196
:10103000812F0E94311C812F0DC0823031F4E901D3
:10104000F90184910E94311C0AC0833031F4E90116
:10105000F90184910E94481D02C00E94E707219671
:10106000802F8823C9F2EFE9FFE03197F1F700C044
:1010700000008150F6CFDF91CF911F910F9108951D
:1010800060E00C9406080E942F27811102C00E9484
:101090009D270E94ED150E94B70D0C9465060E94D5
:1010A0004F158091B903811102C00E94170F8091E2
:1010B000B90390E001966BE070E00E9411338093D9
:1010C000B9030C94EA04282F2F7041F0822F90E08E
:1010D0002A3010F44D9608950697089587E290E01F
:1010E000089508950C9471080C94720808950E9454
:1010F00076200E9476082FEF84E39CE02150804008
:101100009040E1F700C000000C940D29FF920F936E
:101110001F93CF93DF938C01FC01C081D18180911B
:101120001504811113C08281882349F0CE010E94E9
:10113000AC25F82E682FCE010E944F2504C0CE01A9
:101140000E947F25F82EBE018F2D04C0CE010E9483
:10115000AC25BE010E94210BEC01B8010E94E507FD
:10116000882309F466C2B801CE010E94320E88239A
:1011700009F45FC2CC3CFCE5DF0741F4F801828151
:10118000882309F456C20E942E1753C2CD3C8CE529
:10119000D80708F01EC1C43C9CE5D90761F4F801EA
:1011A0008281882309F445C20E942C268272E1F4D0
:1011B0000E9443163EC2C53CECE5DE0708F0C7C0FE
:1011C000C531FCE5DF0798F0C23CFCE5DF0709F418
:1011D0008CC008F492C0F8018281882309F429C2E6
:1011E0000E942C26827221F70E94291622C2C23048
:1011F0008CE5D80708F452C0F8018281882309F4ED
:1012000059C00E942F27811102C00E949D270E9471
:10121000422790E090934B0680934A06FE01E350EC
:10122000FC45E231F10530F4EC59FF4F80914A065C
:101230000C94253380914A06816027C0826025C0C6
:10124000846023C0806121C080621FC080641DC093
:1012500080681BC08460886018C08E7F16C08D7F38
:1012600014C08B7F12C08F7E10C08F7D0EC08F7B0D
:101270000CC08F770AC08B7F877F07C087FB222730
:1012800020F991E0922790FB87F980934A0680919C
:101290004A060E9446270E947620CBC1C1159CE5D4
:1012A000D90781F0C130DC45A9F081E08093BF030C
:1012B0008093C003C801DF91CF911F910F91FF90E0
:1012C0000C94E307F8018281882309F4B2C10E94DB
:1012D0007708AFC1F8018281882309F4AAC18091FF
:1012E000B40481608093B404A4C1F801828188238E
:1012F00009F49FC10E941B169CC1C631DC45A9F6AA
:101300000E942C26282FF8018281409108015091DB
:101310000901882379F02A7A91E009F490E090930A
:10132000BA03911102C069E201C065E3CA010E94DB
:1013300004280AC08091BA03811102C069E201C089
:1013400065E3CA010E940F280E947B2672C1F80142
:101350008281C83CFCE5DF0731F4882309F469C1C8
:101360000E94CF1666C1C93C9CE5D907C8F4C63CAB
:10137000ECE5DE0731F4882309F45BC10E9489168D
:1013800058C1C73CDC4530F4882309F452C10E949F
:101390005D164FC1882309F44CC10E94B91649C19A
:1013A000CA3C9CE5D90731F4882309F442C10E9464
:1013B000FF163FC1CB3CDC4530F4882309F439C12A
:1013C0000E94E91636C1882309F433C10E94191717
:1013D00030C1C43DFCE5DF0791F4F8018281882328
:1013E00009F427C10E946017893128F00E94601714
:1013F000823208F4F9CE89E10E9447171AC1C53D2F
:101400008CE5D80708F068C0F8018281C03DFCE592
:10141000DF0771F4882309F40CC10E94601789303A
:1014200028F00E9460178E3008F4DECE89E0E4CF09
:10143000C13D9CE5D90740F5CE3CECE5DE0771F4F3
:10144000882309F4F6C00E946017823028F00E94B9
:101450006017853008F4C8CE82E0CECFCF3CDC45A3
:1014600028F4882309F4E5C081E0C6CF882309F475
:10147000E0C00E946017863028F00E946017883014
:1014800008F4B2CE86E0B8CFC23D9CE5D90771F42E
:10149000882309F4CEC00E946017853128F00E948D
:1014A0006017873108F4A0CE85E1A6CFC33DDC45A7
:1014B00070F4882309F4BDC00E9460178F3028F0B3
:1014C0000E946017843108F48FCE8FE095CF882377
:1014D00009F4AFC088E190CFC83DFCE5DF0759F5BE
:1014E000F8018281882361F01092C0030E94B12824
:1014F0009093BE038093BD0380E20E94AF1D99C00C
:101500008091C003882321F080E20E94B61D91C023
:101510008091BD039091BE030E94BD28883C910537
:1015200098F780E20E94B61D88E20E94311C88E292
:101530000E94481D7EC0C93D8CE5D80708F058C000
:10154000F8018281C63DFCE5DF0751F5882351F0A3
:101550001092BF030E94B1289093BC038093BB03F9
:1015600082E0CBCF0E942C2685FF05C081E08093CE
:10157000BF038093C0038091BF0381110FC080918E
:10158000BB039091BC030E94BD28883C910530F4B8
:1015900086E20E94311C86E20E94481D82E0B5CF9F
:1015A000C73DDC4528F4882309F443C083E224CFF7
:1015B00081119ACF0E942C2681FF05C081E0809383
:1015C000BF038093C0038091C00381119DCF8091A0
:1015D000BD039091BE030E94BD28883C910508F090
:1015E00093CF87E20E94311C87E20E94481D8CCF76
:1015F000CC3DECE5DE0741F4F80182818823C9F097
:1016000082E00E948F2B15C0CD3DFCE5DF0739F449
:10161000F8018281882369F00E949D270AC0CB3D92
:10162000DC4509F042CEF8018281882311F080E088
:10163000E8CF80E0DF91CF911F910F91FF90089547
:10164000089596E0799FF001112494E5899FE00DBB
:10165000F11D1124E60FF11DEE0FFF1FE757FC4FA0
:10166000859194910895880F991FFC01EB52FE4FCC
:10167000859194910895CF93DF930E94210B0E944E
:10168000000DEC01811520E59207F0F5811530E49D
:10169000930708F029C1883E910500F5803E910529
:1016A00008F0AAC1883A910570F4853A910508F0CE
:1016B000A4C08130910509F49FC108F450C104977A
:1016C00008F09AC14CC18F3B910508F4A1C0803C41
:1016D000910508F444C1805C9109F9C0811540E28C
:1016E000940758F4C11581E0D80708F085C1C03FC0
:1016F000D10508F434C1D0657FC1811520E392077C
:1017000008F0E9C09F70E3C0811535E5930708F044
:1017100044C0811544E5940708F0FDC0C11582E579
:10172000D80708F5C11521E5D20708F0E0C08C2FD5
:10173000837021E030E002C0220F331F8A95E2F768
:101740003C68CE0174E0969587957A95E1F78370B1
:10175000382BCF70C695C69540E2C49FE001112496
:10176000C22BD32B49C12C2F26952695CE018370F1
:101770009927C115D34508F0BFC040E2249F9001CE
:101780001124C1E0D0E002C0CC0FDD1F8A95E2F742
:101790002C2B3D2BE901DC682FC181154AE594070C
:1017A000A0F4C11589E5D80708F0C4C0C11526E525
:1017B000D20708F4B5C0C11538E5D30708F4CFC087
:1017C000DC2FCC27C06FD06A17C181159B4508F468
:1017D000C6C0C1158CE5D80708F4BEC0CE0190562E
:1017E0008115904208F0BBC08D2F8F710E947D0D36
:1017F000DD27D0628F71D82BFFC0853A910509F49F
:10180000B1C0863A910509F0B0C0C2E8D0E4F4C096
:10181000883A910509F4ACC0893A910509F4ABC046
:101820008A3A910509F4AAC08B3A910509F4A9C036
:101830008C3A910509F4A8C08B3B910509F4A7C027
:101840008C3B910509F4A6C08D3A910509F4A5C019
:10185000803B910509F4A4C08E3A910509F4A3C018
:101860008F3A910509F4A2C0813B910509F4A1C00A
:10187000823B910509F4A0C0833B910509F49FC008
:10188000843B910509F49EC0853B910509F49DC0F8
:10189000863B910509F49CC0873B910509F49BC0E8
:1018A000883B910509F49AC0893B910509F499C0D8
:1018B0008D3B910509F498C08E3B910509F497C0C2
:1018C0008A3B910509F496C0C0E0D4E495C00E941B
:1018D000330BEC0191C09927D3FF03C0EC01D86C06
:1018E0008BC0EC01D06C88C0DF70D06A85C0DC2F63
:1018F000CC27C16FD06A80C040E2249F90011124A0
:10190000C1E0D0E002C0CC0FDD1F8A95E2F7C22B08
:10191000D32BDA6871C0D82FCC27C46FD06A6CC0C3
:101920008C2F0E947D0D8F71C82FD0E0DC2FCC272B
:10193000D06262C08C2F8F700E947D0D94E0D6958E
:10194000C7959A95E1F7CF70D0E0DC2FCC27D06A0D
:101950008F70806EC82B50C0DD27D0664DC0C0E0B0
:10196000D0E04AC0C1E8D0E447C0C3E8D0E444C0F6
:10197000C2EED4E441C0C9EED4E43EC0CAEED4E421
:101980003BC0C5EBD4E438C0C6EBD4E435C0C3EBF0
:10199000D4E432C0C4EBD4E42FC0C7EBD4E42CC0F1
:1019A000CCECD4E429C0CDECD4E426C0C3E8D5E423
:1019B00023C0CAE8D5E420C0C2E9D5E41DC0C4E90B
:1019C000D5E41AC0C1E2D6E417C0C3E2D6E414C01D
:1019D000C4E2D6E411C0C5E2D6E40EC0C6E2D6E445
:1019E0000BC0C7E2D6E408C0CFE6D4E405C0C0E728
:1019F000D4E402C0CAE2D6E4CE01DF91CF910895CB
:101A00008238910549F1B0F48133910509F458C049
:101A100048F48932910509F44EC08A32910509F4DF
:101A200054C008958533910509F440C08933910568
:101A300099F00895833E910529F138F4803E91058F
:101A400091F0823E9105A1F00895863E9105F9F04E
:101A5000873E910531F1089520914A0620FD3AC054
:101A600021FD38C0089580914A0680FD35C032C0FE
:101A700080914A0682FF32C080914A0684FD30C0C0
:101A800083EE39C080914A0682FD28C0F5CF80914F
:101A90004A0683FF27C080914A0684FD21C087EE55
:101AA0002AC080914A0683FD1DC0F5CF80914A0669
:101AB00085FD1AC01BC080914A0685FD17C014C061
:101AC00080914A0686FD14C015C080914A0686FDA5
:101AD00011C00EC080EE0FC089E30DC082EE0BC0B6
:101AE00080E009C086EE07C089E205C085E303C037
:101AF0008AE201C081E390E0089590914A0692FF46
:101B00000DC0282F2871283019F4877F846006C003
:101B1000282F2471243011F48B7F886093FF0DC02F
:101B2000282F2871283119F4877E846106C0282F58
:101B30002471243111F48B7E886194FD877E089591
:101B4000CF93DF93813020E8920768F0FB01228178
:101B5000222349F0EC010E94CD0DCE019F770E9417
:101B6000150E0E94020E81E0DF91CF9108958CE066
:101B700090E00E94873390E0A0E0B0E08093DE0424
:101B80009093DF04A093E004B093E1040895609182
:101B9000DE048CE090E00C949B330E942C26809312
:101BA000C1030E943F268091DE04813071F048F02D
:101BB0008230D9F08430F9F486EE0E94A71D88E1C6
:101BC00018C082EE0E94311C16C080EE0E94311CAB
:101BD00081EE0E94311C88E10E94A71D81EE0E94C7
:101BE000481D80EE0E94481D06C082EE0E94311CF6
:101BF00087E50E94A71D8FE39CE90197F1F700C0DC
:101C0000000008958091DE04813021F038F08230A8
:101C100029F007C08CE20E94A71D03C082EE0E943B
:101C2000481D8091C1030C943C260F931F93CF93C2
:101C3000DF938C01CCE0D0E0C8010C2E02C0969559
:101C400087950A94E2F78F700E9463080E94A71D8F
:101C50002497CC3F8FEFD80779F7DF91CF911F9171
:101C60000F9108950F931F93CF93DF93EC018B0196
:101C7000FB018281882319F1C23EFCE5DF07C1F038
:101C800050F4C03EECE5DE0781F0C13EFCE5DF0725
:101C9000B1F481E010C0C33E8CE5D80759F0C43ED2
:101CA000ECE5DE0761F484E006C01092DE0405C0B6
:101CB00082E001C083E08093DE040E94C70DB8017A
:101CC000CE01DF91CF911F910F910C94A00DCF9277
:101CD000DF92EF92FF920F931F93CF93DF93E82F42
:101CE000F82F711103C0682F782F7EC0062F10E0E7
:101CF000C72FD0E0E82EF12CC8016BE270E00E9403
:101D0000FD329B0145ED4203B001439F700D11244C
:101D1000060F171F86E0809FB001819F700D112470
:101D20004FEF50E0CA018C1B9D0B8E9DD0018F9D03
:101D3000B00D9E9DB00D11248B2F6C9F80016D9F67
:101D4000100D7C9F100D1124012F11276A01C01A5C
:101D5000D10ACE9C8001CF9C100DDE9C100D112469
:101D60006A01C61AD70ACC9EB001CD9E700DDC9ECA
:101D7000700D1124672F7727461B570B4E9DE001EE
:101D80004F9DD00D5E9DD00D11247D2F2230310549
:101D900099F04CF421153105C9F021303105A1F439
:101DA0007E2FE12F13C02330310551F0243031054F
:101DB00059F4ED2F7B2F06C0EB2F8D2F7F2F06C000
:101DC000712FEB2F8F2F02C07B2F812FF0E0EF5769
:101DD000F94F6491E72FF0E0EF57F94F7491E82F36
:101DE000F0E0EF57F94F8491DF91CF911F910F9160
:101DF000FF90EF90DF90CF90089580E190E00C94F9
:101E00008F33AB01BC0180E190E00C94AD33E9ED80
:101E1000F4E08DE080831092DA048FEF8283838375
:101E2000148260817181828193810C94010FE09111
:101E30004303F09144030994E0913F03F091400380
:101E40000994E0914103F0914203099440E060E07D
:101E500080E00C94210FE9EDF4E06081862F881F6B
:101E60008827881F6091DA04660F682B728183814E
:101E70000E94670E962F672F482F892F0C94210FF1
:101E8000DF92EF92FF920F931F93CF93DF93809196
:101E9000D904881F8827881F9091DA04492F440F9E
:101EA000242F282B97FB332730F9C9018C549F4FDF
:101EB00068E671E00E941133821B930B8038910514
:101EC00014F09A9505C081384FEF94070CF4939560
:101ED00097FD03969595879595958795C82F809141
:101EE000DB04281B310937FF02C02D5F3F4F3595BA
:101EF000279535952795D22FD090DC0497E1E92ED0
:101F000091E0F92E00E010E0F701208122952F707A
:101F10006091D904962F991F9927991F6091DA042F
:101F2000660F692B2C9F600D11247091DB042D9F8F
:101F3000700D11248D2D0E94670E472F282FC80188
:101F40000E941C0F0F5F1F4FF4E0EF0EF11C0033D7
:101F50001105D1F6DF91CF911F910F91FF90EF9076
:101F6000DF900895AF92BF92CF92DF92EF92FF92EF
:101F70000F931F93CF93DF931F92CDB7DEB7D82E69
:101F80002091D904221F2227221F8091DA04982F42
:101F9000990FB22EB92A87FB882780F9EB2DF82FED
:101FA000CF018C549F4F68E671E00E9411339C0171
:101FB0002E1B3F0B37FF02C02D5F3F4F35952795F6
:101FC00035952795A22EC090DB040091C80310918F
:101FD000C9032091CA033091CB039091DD0499236A
:101FE00059F0692F70E08AE090E00E941133CB0134
:101FF000770FAA0BBB0B04C08AE090E0A0E0B0E032
:1020000080239123A223B323892B8A2B8B2B41F48A
:102010000E94773360E370E00E941133082F01C003
:102020000FEFE12CF12C10E0D11003C0E016F10607
:10203000A9F40E94773383706B2D8A9D600D112463
:1020400069830E94773369817C2D8091DC040E9432
:10205000670E472F282FC7010E941C0F8FEFE81A29
:10206000F80A80E3E816F104F9F60F90DF91CF91BA
:102070001F910F91FF90EF90DF90CF90BF90AF90A6
:102080000895CF92DF92EF92FF921F93CF93DF9349
:102090008091C8039091C903A091CA03B091CB036A
:1020A0000090DD0404C0880F991FAA1FBB1F0A946B
:1020B000D2F7182F85E1C82E81E0D82EC0E0D0E0FD
:1020C0009FE3E92EF12CF60180818F3FE1F0FE01C4
:1020D000EE51FB4F8081F4E08F9FC00111248034CA
:1020E000910524F4B701681B790B02C060E070E031
:1020F000610F7FEF8091DC040E94670E472F282F2D
:10210000CE010E941C0F219624E0C20ED11CC033C8
:10211000D105C9F6DF91CF911F91FF90EF90DF902D
:10212000CF900895CF92DF92EF92FF920F931F937B
:10213000CF93DF938091C8039091C903A091CA0304
:10214000B091CB030090DD0404C0880F991FAA1F33
:10215000BB1F0A94D2F7D82EC090DC0405E111E031
:10216000C0E0D0E08FE3E82EF12CF80180818F3FB2
:10217000F9F0FE01EE51FB4F2081F4E02F9F90011A
:102180001124203431052CF4C701821B930B9C01D0
:1021900002C020E030E0F80161816D0D620F7FEF39
:1021A0008C2D0E94670E472F282FCE010E941C0FF6
:1021B00021960C5F1F4FC033D105B9F6DF91CF9147
:1021C0001F910F91FF90EF90DF90CF900895CF92E5
:1021D000DF92EF92FF920F931F93CF93DF93809143
:1021E000C8039091C903A091CA03B091CB0300909A
:1021F000DD0404C0880F991FAA1FBB1F0A94D2F7E1
:10220000D82EC090DC0405E111E0C0E0D0E08FE3FF
:10221000E82EF12CF80180818F3FF9F0FE01EE519C
:10222000FB4F2081F4E02F9F9001112420343105D1
:102230002CF4C701821B930B9C0102C020E030E00C
:10224000F80162816D0D620F7FEF8C2D0E94670E89
:10225000472F282FCE010E941C0F21960C5F1F4F85
:10226000C033D105B9F6DF91CF911F910F91FF9047
:10227000EF90DF90CF9008952F923F924F925F9210
:102280006F927F928F929F92AF92BF92CF92DF9286
:10229000EF92FF920F931F93CF93DF933090DB0465
:1022A0002090DC046091C8037091C9038091CA0337
:1022B0009091CB030E9472312BED3FE049E450E452
:1022C0000E943F3220E030E040E05CE30E943F3279
:1022D0006B017C010E94C53020E030E040E05DE30E
:1022E0000E943F322B013C01C701B6010E94AC3273
:1022F00020E030E040EE52E40E94CA304B015C0125
:10230000C7E1D1E000E010E0688170E080E090E09B
:102310000E94743120E030E040E052E40E945830E6
:10232000A30192010E943F326B017C01FE013197B3
:10233000608170E080E090E00E94743120E030E045
:1023400040EE52E40E945830A50194010E943F32B1
:102350009B01AC01C701B6010E94593020E030E07A
:1023600044E353E40E943F326B017C018091D90425
:10237000881F8827881F9091DA04292F220F622F47
:10238000682B97FB772770F9072E000C880B990BA9
:102390000E9474319B01AC01C701B6010E94593003
:1023A0000E944331732D822D0E94670E472F282FE4
:1023B000C8010E941C0F0F5F1F4F249600331105A8
:1023C00009F0A2CFDF91CF911F910F91FF90EF9075
:1023D000DF90CF90BF90AF909F908F907F906F9045
:1023E0005F904F903F902F9008952F923F924F9281
:1023F0005F926F927F928F929F92AF92BF92CF9295
:10240000DF92EF92FF920F931F93CF93DF93CDB79D
:10241000DEB728970FB6F894DEBF0FBECDBF809110
:10242000DB048D839091DC049E836091C8037091DE
:10243000C9038091CA039091CB030E9472312BEDA6
:102440003FE049E450E40E943F3220E030E040E0C9
:102450005CE30E943F326B017C010E94C5302B017E
:102460003C01C701B6010E94AC3269837A838B8339
:102470009C83E7E1F1E0F887EF8300E010E0EF8173
:10248000F88531972080EF81F885B0803090DD04A9
:10249000332079F0632D70E080E090E00E94743189
:1024A00020E030E040EC5FE30E943F326B017C01B2
:1024B00006C0C12CD12C90ECE92E9FE3F92E6B2D98
:1024C00070E080E090E00E94743120E030E040E075
:1024D00052E40E9458309B01AC01C701B6010E9432
:1024E0003F32A30192010E943F324B015C01332035
:1024F00079F0632D70E080E090E00E94743120E07C
:1025000030E040EC5FE30E943F326B017C0106C08B
:10251000C12CD12C80ECE82E8FE3F82E622D70E0D8
:1025200080E090E00E94743120E030E040EE52E420
:102530000E9458309B01AC01C701B6010E943F3296
:1025400029813A814B815C810E943F329B01AC0121
:10255000C501B4010E9459306B017C018091D904FE
:10256000881F8827881F9091DA04292F220F622F55
:10257000682B97FB772770F9072E000C880B990BB7
:102580000E9474319B01AC01C701B6010E94593011
:102590000E9443317D818E810E94670E472F282F34
:1025A000C8010E941C0F0F5F1F4F8F8198850496F2
:1025B00098878F830033110509F061CF28960FB6F5
:1025C000F894DEBF0FBECDBFDF91CF911F910F9169
:1025D000FF90EF90DF90CF90BF90AF909F908F9043
:1025E0007F906F905F904F903F902F9008952F9223
:1025F0003F924F925F926F927F928F929F92AF9293
:10260000BF92CF92DF92EF92FF920F931F93CF93DF
:10261000DF9300D000D01F92CDB7DEB72091DB044E
:102620002A838091DC048B836091C8037091C90375
:102630008091CA039091CB030E9472312BED3FE051
:1026400049E450E40E943F3220E030E040E05CE3A7
:102650000E943F326B017C010E94C5302B013C017E
:10266000C701B6010E94AC324B015C01A7E1B1E0A9
:10267000BD83AC8300E010E0EC81FD813197B08137
:10268000B983EC81FD8130802090DD04222069F047
:10269000622D70E0660F771F072E000C880B990BD8
:1026A0000E9474316B017C0105C0C12CD12CE12C3E
:1026B00020E4F22E632D70E080E090E00E947431FF
:1026C00020E030E040E052E40E9458309B01AC0131
:1026D000C701B6010E943F32A30192010E943F321E
:1026E0006B017C01222021F0312C220C331C03C011
:1026F00082E0282E312CF9816F2F70E080E090E08D
:102700000E94743120E030E040EE52E40E945830E4
:102710000E943C319B0177FF04C022273327261BF0
:10272000370B82E490E0821B930B289EB001299E18
:10273000700D389E700D1124072E000C880B990B1C
:102740000E947431A50194010E943F329B01AC01AB
:10275000C701B6010E9459306B017C018091D904F8
:10276000881F8827881F9091DA04292F220F622F53
:10277000682B97FB772770F9072E000C880B990BB5
:102780000E9474319B01AC01C701B6010E9459300F
:102790000E9443317A818B810E94670E472F282F38
:1027A000C8010E941C0F0F5F1F4F8C819D810496F2
:1027B0009D838C830033110509F05ECF0F900F903D
:1027C0000F900F900F90DF91CF911F910F91FF907D
:1027D000EF90DF90CF90BF90AF909F908F907F90C1
:1027E0006F905F904F903F902F9008952F923F925F
:1027F0004F925F926F927F928F929F92AF92BF9211
:10280000CF92DF92EF92FF920F931F93CF93DF93BC
:1028100000D01F92CDB7DEB72090DB048091DC049E
:1028200089836091C8037091C9038091CA03909114
:10283000CB030E94723120E030E040E85BE30E946D
:102840003F3220E030E040E653E40E943F322B016B
:102850003C01E7E1F1E0FB83EA8300E010E0EA817C
:10286000FB8131973080EA81FB81E080F090DD04CC
:10287000FF2079F06F2D70E080E090E00E947431CD
:1028800020E030E040EC5FE30E943F324B015C010E
:1028900006C0812C912C90ECA92E9FE3B92E6E2DB1
:1028A00070E080E090E00E94743120E030E040E091
:1028B00052E40E9458300E943C319B0177FF04C0D3
:1028C00022273327261B370BB901330F880B990BAF
:1028D0000E9474319B01AC01C501B4010E943F32DA
:1028E0002EE23DEB4BEB53EB0E943F324B015C0180
:1028F000FF2079F06F2D70E080E090E00E9474314D
:1029000020E030E040EC5FE30E943F326B017C014D
:1029100006C0C12CD12C80ECE82E8FE3F82E632D5D
:1029200070E080E090E00E947431A30192010E9467
:1029300058309B01AC01C701B6010E943F329B0198
:10294000AC01C501B4010E9458306B017C0180913B
:10295000D904881F8827881F9091DA04292F220F15
:10296000622F682B97FB772770F9072E000C880BD6
:10297000990B0E9474319B01AC01C701B6010E9402
:1029800059300E944331722D89810E94670E472F72
:10299000282FC8010E941C0F0F5F1F4F8A819B8147
:1029A00004969B838A830033110509F058CF0F905A
:1029B0000F900F90DF91CF911F910F91FF90EF90AB
:1029C000DF90CF90BF90AF909F908F907F906F904F
:1029D0005F904F903F902F900895CF92DF92FF929B
:1029E0000F931F93CF93DF931F92CDB7DEB7F82ECF
:1029F0000091C8031091C9032091CA033091CB0301
:102A00009091DD04992359F0692F70E08AE090E0FD
:102A10000E941133AB01770F660B770B04C04AE0BD
:102A200050E060E070E04023512362237323452B84
:102A3000462B472B39F40E94773360E370E00E9405
:102A4000113301C08FEF00E010E0C82ED12CF1103F
:102A500003C00C151D0581F40E94773389830E9401
:102A60007733782F69818091DC040E94670E472FAD
:102A7000282FC8010E941C0F0F5F1F4F0033110544
:102A800031F70F90DF91CF911F910F91FF90DF9061
:102A9000CF90089508950E944A150C9446074091DE
:102AA000D90440FD0AC00E94260F0E944B15809158
:102AB000D90481708093070108958091C203843105
:102AC00020F48F5F8093C20308958091C803909192
:102AD000C903A091CA03B091CB030196A11DB11DFA
:102AE0008093C8039093C903A093CA03B093CB0308
:102AF0008091C4039091C503A091C603B091C70310
:102B00008F3F2FEF9207A207B20759F00196A11D40
:102B1000B11D8093C4039093C503A093C603B093E3
:102B2000C7038091C303E2EEF4E090819F3F61F020
:102B30009E3F41F4282F30E02230310514F08150BF
:102B400001C080E09F5F9083319695E0E231F90704
:102B500061F78093C303E42FE695EF73809106013C
:102B6000E81307C081E090910701913019F480E0EB
:102B700001C081E08170E093060191E0909307012C
:102B80004E2F50E0FA013197EB30F10520F5EA586D
:102B9000FF4F0C9425330E942B0F1DC00E943C1147
:102BA0001AC00E94400F17C00E94B20F14C00E94AA
:102BB000411011C00E9492100EC00E94E7100BC07D
:102BC0000E94F51108C00E94F71205C00E94F6137A
:102BD00002C00E94ED140C944B15E0913D03F0915E
:102BE0003E030995E2EEF4E08FEF819395E0E23148
:102BF000F907D9F70E942F27811104C00E949D2751
:102C00000E94070F0E94FD0E6093D9047093DA04AE
:102C10008093DB049093DC046E7761F40E94070FCD
:102C20000E94FD0E6093D9047093DA048093DB0454
:102C30009093DC040895E9EDF4E08081982F90955D
:102C400090FB80F9808360817181828193810C94F3
:102C5000010F9091D904892F86958F5F8F7391789A
:102C60008C3018F4880F892B02C0892F82608093E2
:102C7000D9046091D9047091DA048091DB049091B9
:102C8000DC040C94010F9091D904892F8695815C06
:102C90008F739178882319F0880F892B02C0892FB0
:102CA00086618093D9046091D9047091DA0480918F
:102CB000DB049091DC040C94010F8091D904982FCF
:102CC000991F9927991F8091DA04880F892B90E02A
:102CD00008968F3F910519F014F08FEF90E0209146
:102CE000D90480FB27F92093D904282F26958091B9
:102CF000DA048078822B90FB87F98093DA04609164
:102D0000D9047091DA048091DB049091DC040C9476
:102D1000010F8091D904982F991F9927991F8091AD
:102D2000DA04880F892B90E0089797FF02C080E0B3
:102D300090E08F3F910519F014F08FEF90E0209113
:102D4000D90480FB27F92093D904282F2695809158
:102D5000DA048078822B90FB87F98093DA04609103
:102D6000D9047091DA048091DB049091DC040C9416
:102D7000010F8091DB0490E008968F3F910519F0D8
:102D800014F08FEF90E08093DB046091D904709190
:102D9000DA048091DB049091DC040C94010F8091A3
:102DA000DB0490E0089797FF02C080E090E08F3F3F
:102DB000910519F014F08FEF90E08093DB0460919F
:102DC000D9047091DA048091DB049091DC040C94B6
:102DD000010F8091DC0490E008968F3F910519F077
:102DE00014F08FEF90E08093DC046091D90470912F
:102DF000DA048091DB049091DC040C94010F809143
:102E0000DC0490E0089797FF02C080E090E08F3FDD
:102E1000910519F014F08FEF90E08093DC0460913D
:102E2000D9047091DA048091DB049091DC040C9455
:102E3000010F8091DD0490E001968430910514F03B
:102E400083E090E08093DD046091D9047091DA040E
:102E50008091DB049091DC040C94010F8091DD04DF
:102E600090E0019797FF02C080E090E084309105E8
:102E700014F083E090E08093DD046091D9047091B8
:102E8000DA048091DB049091DC040C94010FE9EDED
:102E9000F4E08F73982F990F80818178892B80833C
:102EA00060817181828193810C94010FE9EDF4E0DE
:102EB0008F73982F990F80818178892B8083089553
:102EC0008091D90486958F730895E9EDF4E020810F
:102ED00080FB27F92083AAEDB4E086952C91207819
:102EE000822B90FB87F98C9362834383089567E775
:102EF00084E70C944C19CF930E948B1984E70E94AD
:102F0000D11787E70E94D117C0E021E041E061E0DE
:102F10008C2F0E946318CF5FC033B9F767E784E74F
:102F2000CF910C945F19E2E3F6E06083418324E6DD
:102F300030E042E050E0BF01880F0C94611AEF923C
:102F4000FF921F93CF93DF937B01182F110FC0E0E7
:102F5000D0E08C2F8C5D8093320620E030E0F901C8
:102F6000EC0FFD1FEE0DFF1D8081F901EE5CF94FA6
:102F700081832F5F3F4F2031310589F724E630E010
:102F800041E150E062E376E0812F0E94611A609691
:102F9000C039D105F1F6DF91CF911F91FF90EF90ED
:102FA0000895CF93DF93C82F4BE06DEF0E949317E6
:102FB00040E06AE08C2F0E9493178FE39CE9019711
:102FC000F1F700C0000040E060E08C2F0E949317F2
:102FD00040E061E08C2F0E94931740E066E08C2F68
:102FE0000E94931740E06DEF8C2F0E949317D0E062
:102FF00040E06D2F8C2F0E949317DF5FD231C1F715
:1030000040E06D2F8C2F0E949317DF5FD432C1F701
:1030100040E06D2F8C2F0E949317DF5FD43BC1F7E8
:103020004BE06DEF8C2F0E94931741E06AE08C2FEC
:103030000E94931740E06DEF8C2FDF91CF910C949D
:1030400093178033910520F5880F991F880F991FDA
:10305000FC01EB52FE4F528133818081837071817C
:10306000E0E98E9FC00111248E5E9A4FFC01E70FAC
:10307000F11DB4976083FC01E50FF11DB497408307
:10308000830F911DFC01B497208381E08093F103AD
:103090000895FF920F931F93CF93DF93182F062F5E
:1030A000F42EC0E0D0E02F2D402F612FCE010E94E2
:1030B00021182196C033D105B1F7DF91CF911F912F
:1030C0000F91FF9008954F925F927F928F929F92FF
:1030D000AF92BF92CF92DF92EF92FF920F931F9326
:1030E000CF93DF93362F54E0859FC0011124FC015C
:1030F000EB52FE4FA081A3707A2E618170E0CB016C
:1031000084978C0197FF02C0095F1F4FA3E01595BC
:103110000795AA95E1F7628170E07B0154E2E51A18
:10312000F108E701F7FC279673E0D595C7957A95E6
:10313000E1F7638170E04B01E4E28E1A9108F4013B
:1031400097FC37962F0153E0559447945A95E1F731
:1031500068E0A62EB12CB5010E9411336C01C701A5
:10316000B5010E9411337C01C401B5010E941133E5
:10317000A72DB0E01127DD243323A1F032E13A9FDF
:10318000B0013B9F700D1124060F171F03531C4FF6
:1031900061E070E001C0660FCA94EAF7F80130817F
:1031A000632B14C032E13A9FB0013B9F700D112494
:1031B000060F171F03531C4F61E070E001C0660F3C
:1031C000CA94EAF76095F801308163236083DD27B4
:1031D000FF2432E1442391F03A9FA0013B9F500D20
:1031E0001124C40FD51FC353DC4F41E050E001C090
:1031F000440FEA94EAF73881432B12C03A9FA001AA
:103200003B9F500D1124C40FD51FC353DC4F41E029
:1032100050E001C0440FEA94EAF740953881432317
:103220004883A2015527992792E19A9FF0019B9F1D
:10323000F00D1124E40FF51FE353FC4F222361F03E
:1032400021E030E0A90102C0440F551F8A95E2F742
:10325000CA019081892B0CC021E030E0A90102C095
:10326000440F551F8A95E2F7CA0180959081892302
:10327000808381E08093CC03DF91CF911F910F91E8
:10328000FF90EF90DF90CF90BF90AF909F908F9086
:103290007F905F904F900895CF939091F103992381
:1032A00051F0C62F62E175E00E949F1762EA75E057
:1032B0008C2F0E949F171092F103CF910895EF92E7
:1032C000FF920F931F93CF93DF939091CC03992399
:1032D000D9F0162F082F8DECE82E83E0F82EC0E0F1
:1032E000D0E0F70141917F016C2F802F0E9493174E
:1032F000FE01E353FC4F42896C2F812F0E949317EC
:103300002196C231D10569F7DF91CF911F910F91BD
:10331000FF90EF9008951092B9008CE08093B80070
:103320000895EF92FF920F931F93CF93DF93182F7F
:10333000EB011092BC0084EA8093BC000E94B1288B
:103340007C019091BC0097FD0EC0CF3F8FEFD80756
:10335000C1F30E94B1288E199F098C179D0788F32D
:103360008EEF9FEF2EC09091B900987F983041F07A
:103370009091B900987F903119F08FEF9FEF21C0A5
:103380001093BB0084E88093BC000E94B1288C019C
:103390009091BC0097FD0CC0CF3F8FEFD807C1F3D1
:1033A0000E94B128801B910B8C179D0788F3D8CF02
:1033B0008091B900887F883111F08034F1F680E087
:1033C00090E0DF91CF911F910F91FF90EF900895C2
:1033D0000F931F93CF93DF93EB018093BB0084E89F
:1033E0008093BC000E94B1288C019091BC0097FD95
:1033F0000EC0CF3F8FEFD807C1F30E94B128801BCA
:10340000910B8C179D0788F38EEF9FEF0CC02091D6
:10341000B900287F81E090E0283211F480E090E04C
:10342000919581959109DF91CF911F910F91089509
:103430000F931F93CF93DF93EC0184E88093BC003C
:103440000E94B1288C019091BC0097FD0EC0CF3F27
:103450008FEFD807C1F30E94B128801B910B8C1706
:103460009D0788F38EEF9FEF03C08091BB0090E033
:10347000DF91CF911F910F9108950F931F93CF93D9
:10348000DF93EC0184E98093BC000E94B1288C0199
:103490009091BC0094FF0EC0CF3F8FEFD807C1F3CF
:1034A0000E94B128801B910B8C179D0788F38EEF2B
:1034B0009FEF02C080E090E0DF91CF911F910F91CC
:1034C0000895CF92DF92EF92FF920F931F93CF93C5
:1034D000DF936B017A018901B9010E949119FC0106
:1034E000892BC9F4E601EC0CFD1CCE15DF0541F07B
:1034F000B80189910E94E819FC01892BB1F30BC036
:10350000C801DF91CF911F910F91FF90EF90DF9055
:10351000CF900C943D1ACF01DF91CF911F910F9165
:10352000FF90EF90DF90CF9008959093F7038093F2
:10353000F6030895E091F603F091F703309721F038
:103540000190F081E02D099480E00895E091F60368
:10355000F091F703309799F020911401222359F04C
:1035600020914A0627FF07C0DC012C9111962C936D
:10357000119725E02C930280F381E02D09940895A2
:103580002091F4033091F5038217930771F0909323
:10359000F5038093F403E091F603F091F70330977D
:1035A00021F00680F781E02D099408952091F2031F
:1035B0003091F3038217930771F09093F303809394
:1035C000F203E091F603F091F703309721F00084C5
:1035D000F185E02D0994089585B7806885BF85B78A
:1035E000806885BF089508950E94EC1A0C94F31A20
:1035F00081E008950E94A8280E94EC040C943F29C1
:10360000CF92DF92EF92FF920F931F93CF93DF93AE
:10361000CDB7DEB72B970FB6F894DEBF0FBECDBF88
:103620000E94BE050E94F81A811111C08FEF898394
:103630008A831B820E94B1288160782F9D838C83AE
:1036400049815A816B818D810E94E21B56C089EFAE
:10365000C82E83E0D82E00E010E0E02E802F0E94DC
:103660000606F60141916F01F42EF82631F40F5F42
:103670001F4F0E30110589F7D9CF9091B40491FFF7
:1036800004C08B870E940C068B8520E030E04F2D14
:1036900050E0922FBA01022E02C0759567950A94E8
:1036A000E2F760FF24C02E83EF8221E030E0690161
:1036B00002C0CC0CDD1C9A95E2F790E08C219D2194
:1036C000892B09F420E028870E94B1288160782F97
:1036D0009A8789874E815F8168858A850E94E21B6F
:1036E000F801E750FC4F8081C826C08206C02F5FDA
:1036F0003F4F2630310569F6BACF1091F8030E948A
:103700009A1A1817A1F00E949A1A8093F8032B9620
:103710000FB6F894DEBF0FBECDBFDF91CF911F91E2
:103720000F91FF90EF90DF90CF900C9474082B9640
:103730000FB6F894DEBF0FBECDBFDF91CF911F91C2
:103740000F91FF90EF90DF90CF900895DC011196DC
:103750002C9111978C91682F70E041E050E001C0EE
:10376000440F8A95EAF712968C91129730E08823DD
:1037700029F0809117048823E9F006C0F901E95F78
:10378000FB4F90819423B1F086E0829FF001839FEC
:10379000F00D1124E60FF71FEE0FFF1FEB56FD4F44
:1037A000808191818D939C93F901E95FFB4F80812A
:1037B000482B06C0F901E95FFB4F40958081482303
:1037C00040830895CF93DF93CDB7DEB72B970FB625
:1037D000F894DEBF0FBECDBF942F4F83252F58879F
:1037E00069877A878B874A855B85452B21F02F3F38
:1037F00009F59F3FF9F4DE01119686E0FD01119273
:103800008A95E9F785E0FE01379601900D928A9539
:10381000E1F749815A816B817C818D819E810E9473
:1038200020232B960FB6F894DEBF0FBECDBFDF91DD
:10383000CF910895CE0107960E94A61BDCCFFC0114
:10384000808191810E94ED2592959F70963041F480
:103850008091170491E089278093170490931604B0
:103860000895882309F413C1682F8238C1F40E9497
:103870009A1A81FD0CC169E38091080190910901B8
:103880000E9404280E947B262FEF81EE94E02150B5
:1038900080409040E1F700C0000069E319C0833820
:1038A000F9F40E949A1A80FDF2C063E58091080144
:1038B000909109010E9404280E947B262FEF81EE3F
:1038C00094E0215080409040E1F700C0000063E5A3
:1038D00080910801909109010E940F280C947B2689
:1038E0008438C1F40E949A1A82FDD1C067E48091A5
:1038F0000801909109010E9404280E947B262FEF65
:1039000081EE94E0215080409040E1F700C000003B
:1039100067E4DECF8CEF860F813A38F4809108019E
:10392000909109010E940428D9CF80E2860F883047
:1039300048F4677081E001C0880F6A95EAF70E9439
:103940002F26CCCF8BE5860F833070F4653A29F0B3
:10395000663A31F083E890E005C081E890E002C06B
:1039600082E890E00C94C01A88E5860F873108F051
:103970008EC0683A09F445C0693A09F445C06A3A0C
:1039800009F445C06B3A09F445C06C3A09F445C0E6
:103990006B3B09F445C06C3B09F445C06D3A09F432
:1039A00045C0603B09F445C06E3A09F445C06F3A22
:1039B00009F445C0613B09F445C0623B09F445C0C8
:1039C000633B09F445C0643B09F445C0653B09F419
:1039D00045C0663B09F445C0673B09F445C0683BF8
:1039E00009F445C0693B09F445C06D3B09F445C085
:1039F0006E3B09F445C06A3B09F445C080E090E0A5
:103A000044C082EE90E041C089EE90E03EC08AEE74
:103A100090E03BC085EB90E038C086EB90E035C08D
:103A200083EB90E032C084EB90E02FC087EB90E016
:103A30002CC08CEC90E029C08DEC90E026C083E88F
:103A400091E023C08AE891E020C082E991E01DC0A6
:103A500084E991E01AC081E292E017C083E292E02B
:103A600014C084E292E011C085E292E00EC086E2CA
:103A700092E00BC087E292E008C08FE690E005C0BC
:103A800080E790E002C08AE292E00C94D61A089592
:103A9000882309F45BC0682F823879F40E949A1A4F
:103AA00081FF54C069E380910801909109010E944F
:103AB00004280E947B2669E310C08338B1F40E9479
:103AC0009A1A80FF43C063E5809108019091090133
:103AD0000E9404280E947B2663E580910801909152
:103AE00009010E940F280C947B26843879F40E94E7
:103AF0009A1A82FF2BC067E4809108019091090116
:103B00000E9404280E947B2667E4E7CF8CEF860F93
:103B1000813A18F380E2860F883048F4677081E0BC
:103B200001C0880F6A95EAF70E943526DCCF8BE545
:103B3000860F833020F480E090E00C94C01A685A1D
:103B4000673120F480E090E00C94D61A0895CF936A
:103B5000C82F0E94311C8C2FCF910C94481D8823B4
:103B600021F00E942F260C947B260895882321F0B3
:103B70000E9435260C947B2608958F929F92AF92D7
:103B8000BF92DF92EF92FF920F931F93CF93DF9339
:103B90007C01D62FC72FFC01058102950F70128181
:103BA00011110E944F260E942526882379F01123A7
:103BB00069F080E28D0F883048F082E00E94C626CE
:103BC0000E94252691E0D82ED92601C0D12CAC2EFA
:103BD000A2948FE0A822B12CF501EF57FF4F0C946F
:103BE00025338C2F807FCF70882311F0C295C07F42
:103BF000112399F0CC2309F486C180E28D0F88301F
:103C000010F0D11104C08C2F0E942F2603C08C2FDE
:103C10000E9442260E947B2676C18D2F0E94481D5D
:103C2000CC2309F4ECC180E28D0F883010F0D11163
:103C300004C08C2F0E94352603C08C2F0E9448267A
:103C40000E947B26DCC18C2F807FCF70803211F0E8
:103C5000C295C07FDD2319F0D130C9F021C01123F6
:103C600071F0002341F0013031F40E9462268C2B68
:103C70000E946826C4C10E9462268C2BFDC00023CE
:103C800019F0013009F4BBC10E94712611C0112343
:103C900021F0023008F0B3C107C00111B0C108C063
:103CA000112321F001112FC18C2FE6C001113CC15D
:103CB0008C2FE8C08C2F86958695837090E00097B6
:103CC00019F0019761F09BC1112321F08D2F9C2FDA
:103CD000937002C080E090E00E94C01AA0C111233E
:103CE00021F08D2F9C2F937002C080E090E00E9405
:103CF000D61A95C18C2F837009F050C011118BC159
:103D00008D2F829586958770880F880F9D2F9F70C5
:103D1000892E912CA12CB12C082E04C0880C991C42
:103D2000AA1CBB1C0A94D2F7D4FF14C00FE010E009
:103D300020E030E0B901A80104C0440F551F661F00
:103D4000771F8A95D2F7CB01BA016095709580955F
:103D5000909503C060E070E0CB01C695C695C37036
:103D6000D0E0C230D10561F0C330D10581F06829BF
:103D700079298A299B29219771F00E9465244BC1DA
:103D8000682979298A299B290E94772444C10E94A5
:103D90006524C501B4010E9453243DC1112319F0CB
:103DA0008C2F817001C08695882309F434C18D2F32
:103DB000829586958770880F880F9D2F9F70892E1A
:103DC000912CA12CB12C082E04C0880C991CAA1C83
:103DD000BB1C0A94D2F7D4FF14C00FE010E020E01F
:103DE00030E0B901A80104C0440F551F661F771FBA
:103DF0008A95D2F7CB01BA01609570958095909520
:103E000003C060E070E0CB01C695C695C3704C2F2F
:103E100050E04230510569F04330510589F068297E
:103E200079298A299B294130510571F00E942A2560
:103E3000F2C0682979298A299B290E943C25EBC078
:103E40000E942A25C501B4010E941825E4C08D2FC7
:103E500090E0FC01E05EF109E531F10508F04FC0AA
:103E6000EF56FF4F0C942533DF708C2F8F71112389
:103E700031F00E94B1248D2F0E94AF1DC0C00E945E
:103E8000D2248D2F0E94B61DBAC0112339F0011122
:103E9000B6C08C2F8F710E94F724B1C0023008F099
:103EA000AEC0F7CF112339F08C2F8F710E94B1244F
:103EB000A6C01123C9F38C2F8F710E94D2249FC0FA
:103EC000112329F08C2F8F710E949C2498C00E948E
:103ED000972495C0112349F0CF718C2F0E94B124F3
:103EE00063E08C2F0E94B1268AC081E00E94C62622
:103EF000023008F484C082E00E94C62680C01123EC
:103F000031F0002389F28D2F0E94311C78C00023EC
:103F100091F2D93349F45FEF67EE73E0515060409E
:103F20007040E1F700C000008D2F0E94481D67C05F
:103F30004C2F4F706D2FC7010E948A070E94C42327
:103F40006EC0D23FB1F028F4D03F49F0D13FF9F034
:103F500028C0D43FB9F058F0D53F71F022C01123EA
:103F600009F447C09091170481E0892708C081E0D7
:103F70001827109317043DC011113BC081E08093B6
:103F8000170437C0111135C01092170432C0112325
:103F900029F080911604882329F329C0002311F306
:103FA00028C0809116040023C1F0882341F090912D
:103FB000170481E0892780931704109216048D2F2F
:103FC000112319F00E94311C14C00E94481D86E084
:103FD000F70111928A95E9F70CC0882351F011116D
:103FE00008C09091170481E08927809317041092EC
:103FF00016044C2F4F706D2FC7010E94200BF8E064
:10400000AF16B10441F05CF04AE0A41AB10852E0E6
:10401000A516B10420F40E949A1A0E947408DD20AB
:10402000E1F00E94212680FD18C0F70112820E9453
:104030001B260E94B124C7010E9439200E941B2622
:10404000DF91CF911F910F91FF90EF90DF90BF9084
:10405000AF909F908F900C94D224DF91CF911F91BD
:104060000F91FF90EF90DF90BF90AF909F908F9057
:1040700008950F931F93CF93DF93EC01888199816B
:104080002B813C81232BB9F09F3F11F48F3F99F096
:10409000CE010E948608882371F0688179818A8127
:1040A0000E94F8258C010E944E250E945024B801E0
:1040B000CE010E94BD1DDF91CF911F910F910895F8
:1040C0000E944F260E945F260E947B2680E090E09F
:1040D0000E94C01A80E090E00C94D61A80910801EA
:1040E000909109010E941A280C9460200E943F269A
:1040F0000C946E20E92FE295EF70F0E03297EE30ED
:10410000F105B0F4EA55FF4F0C942533803F91F050
:1041100018F4803E68F40EC0843F51F40BC0803E1A
:1041200048F0813F29F406C093FB882780F9089561
:1041300080E0089581E008950E94ED250E947A2094
:104140000895CF93DF9300D000D01F92CDB7DEB794
:104150000F900F900F900F900F90DF91CF910895D7
:10416000CF93DF9300D000D000D0CDB7DEB7269636
:104170000FB6F894DEBF0FBECDBFDF91CF9108958B
:104180001F93CF93DF93C091180416E08091190418
:10419000C81799F0D0E01C9FF0011D9FF00D11246D
:1041A000E65EFB4F408151816281738184819581FC
:1041B0000E94B0202196C770E9CFDF91CF911F9167
:1041C000089540914A0450914B0460914C047091C1
:1041D0004D0480914E0490914F040C94B020809136
:1041E0004F0482958F7009F054C080914C0488234D
:1041F00009F44FC080911804A091190460914A04F9
:1042000070914B0440914D0450914E04B6E08A17D2
:1042100009F43FC090E041155105C1F17F3F11F411
:104220006F3FA1F1B89FF001B99FF00D1124E65E38
:10423000FB4F218172132AC02081621327C0228183
:10424000211124C0238134812417350710F4215013
:104250003109241B350B283C3105C0F420914F0453
:104260002F70206120934F0426E0289FF001299FA2
:10427000F00D1124E15EFB4F80818F70806180839F
:104280008AE494E00E9439200C94C0200196877043
:10429000BECF0895CF92DF92EF92FF920F931F93BC
:1042A000CF93DF93CDB7DEB762970FB6F894DEBF3A
:1042B0000FBECDBF8C0185E0F801DE011D96019097
:1042C0000D928A95E1F7D8014C9111965C91119766
:1042D00012966C9112971396CD90DC9014973091B2
:1042E0004A0470914B0480914D0490914E040097C4
:1042F00009F46BC17F3F19F43F3F09F466C1E090B8
:104300004C04EE2009F4C0C020914F04C816D90611
:1043100028F0F601E81BF90BCF0104C080959095B9
:104320008C0D9D1DFF24F394883C910578F0F12CB1
:10433000207F09F0C6C07C2DD98AC88A89890E944D
:10434000A1208AE494E00E943920B1C0822F807FAE
:1043500009F046C0751314C0341312C0611110C0A7
:104360002F70206120934F040E94E1208AE494E0A2
:104370000E94392080914F04D80115968C932EC04D
:10438000CD2819F15F3F11F44F3FF9F0F62E61117E
:104390001CC0809118042091190436E0821709F49A
:1043A0005AC090E0389FF001399FF00D1124E65E6D
:1043B000FB4F7181571306C07081471303C0728190
:1043C000711103C001968770E9CFF62E662309F4B8
:1043D00027C180914F04816080934F04F12C20C14C
:1043E000751308C0341306C0611104C080914F04D6
:1043F000D801C3C04D875E878D859E856A8B0E94DC
:104400009C206A898823E1F16623D1F120914F0431
:10441000822F82958F7090E0029774F080914A0409
:1044200090914B0498878F831986DB86CA862C87E8
:10443000CE0107960E94392086E0F801AAE4B4E094
:1044400001900D928A95E1F70E94EF200E94E120F1
:10445000FF24F394E5C04D875E878D859E850E947D
:10446000ED25292F22952F7030E0223031050CF0F8
:10447000CBC09F7009F0C5C0805E883008F4D0C002
:10448000C8010E943920E4CFC816D90608F453C0E9
:10449000F601E81BF90BCF01883C910508F450C0E8
:1044A000F12C7C2DD98AC88A89890E94A120EAE44E
:1044B000F4E086E0DF011D928A95E9F70E94E12091
:1044C000AFC0751314C0341312C0611110C08091B5
:1044D0004F04F8018583C8010E94392086E0EAE490
:1044E000F4E0DF011D928A95E9F7FE2C99C04D8713
:1044F0005E878D859E856A8B0E949C206A898823B1
:1045000009F4BECF662309F4BBCF20914F04822F5C
:1045100082958F7090E002970CF48ECF80914A04C0
:1045200090914B049A8389831B82DD82CC822E83F7
:10453000CE0101967FCF809590958C0D9D1DACCFBF
:10454000F62E662309F49CCF75132EC034132CC0AD
:1045500020914F0420FD1FC0822F82958F70D9F0CB
:10456000D80115962C9315978F3049F08F5F982FAF
:104570009295907F822F8F70892B15968C93C8010E
:104580000E94392086E0F801AAE4B4E001900D927F
:104590008A95E1F793CF86E0F801AAE4B4E00190B0
:1045A0000D928A95E1F73CC04D875E878D859E858B
:1045B0000E949C20811140CF80914F0481608093A4
:1045C0004F04C8010E9439202BC0662309F458CF3C
:1045D0004D875E878D859E850E949C20F82E8823BE
:1045E00009F44ECF86E0F801AAE4B4E001900D9200
:1045F0008A95E1F78AE494E00E941F1C0E94EF2054
:104600005DCF811139CF0CC0243031050CF038CF8B
:104610009F7009F431CFF8019581907F09F02CCF7C
:104620008F2D62960FB6F894DEBF0FBECDBFDF911F
:10463000CF911F910F91FF90EF90DF90CF90089551
:104640001F93CF93DF93CDB7DEB72C970FB6F894B7
:10465000DEBF0FBECDBF4F83588769877A878B87B0
:104660009C87CE0107960E944A21882369F08F819A
:1046700098852A853B85232BF1F19F3F09F063C084
:104680008F3F09F060C037C086E0FE013796DE013B
:10469000119601900D928A95E1F76F817885EA85F0
:1046A000FB85309741F17F3F11F46F3F21F120915D
:1046B000190430E0C90101968770992740911804C8
:1046C00050E08417950709F447C069837A83FD8316
:1046D000EC8396E0929FD001939FB00D1124A65ECB
:1046E000BB4FFE01319601900D929A95E1F78093B0
:1046F00019040E94C02016E08091180490911904BA
:104700008917C1F1189FC0011124865E9B4F0E943A
:104710004A21882379F1E09118041E9FF0011124A9
:10472000E65EFB4F40815181628173818481958176
:104730000E94B0208091180490E00196877099271C
:1047400080931804D9CF4F81588569857A858B85E8
:104750009C850E94B020CFCF0E9476201092190431
:1047600010921804EAE4F4E086E0DF011D928A95D5
:10477000E9F7C1CF2C960FB6F894DEBF0FBECDBFC0
:10478000DF91CF911F910895EF92FF920F931F93A6
:10479000CF93DF938C01892B09F46CC0F12CEE24AC
:1047A000E394E8012196F8018491843740F4843041
:1047B00008F051C0813081F0823019F15BC085373B
:1047C00009F444C0A8F19CE7980F903708F052C054
:1047D0008F770E94481D41C00E5F1F4FFE01C4919C
:1047E00080E28C0F883048F4C7708E2D01C0880F8E
:1047F000CA95EAF70E94522614C08C2F0E94311CE1
:104800002DC00E5F1F4FFE01C49180E28C0F8830D7
:1048100058F4C7708E2D01C0880FCA95EAF70E9420
:1048200058260E947B261AC08C2F0E94481D16C055
:104830000E5F1F4FFE01C491CC2381F08FE99FE0F2
:104840000197F1F700C00000C150F6CF0E5F1F4F77
:10485000FE01F49003C00E94311C8E018F2D88232D
:1048600009F49FCFEFE9FFE03197F1F700C00000B6
:104870008150F5CFDF91CF911F910F91FF90EF9075
:10488000089508950C9441240E94422460938B045F
:1048900070938C0480938D0490938E040C9460200C
:1048A00008950C9444240F931F9300918B0410914E
:1048B0008C0420918D0430918E04602B712B822BFF
:1048C000932B1F910F910C9444240F931F930091ED
:1048D0008B0410918C0420918D0430918E04602300
:1048E0007123822393231F910F910C9444240F93DF
:1048F0001F9300918B0410918C0420918D043091B2
:104900008E0460277127822793271F910F910C94A3
:1049100044240C94B1070E94892460938704709307
:1049200088048093890490938A040C94602060E04A
:1049300070E0CB010C948B240F931F9341E050E067
:1049400060E070E08A019B0104C0000F111F221F6C
:10495000331F8A95D2F7C901B8011F910F910C94AA
:104960008B240F931F9341E050E060E070E004C09F
:10497000440F551F661F771F8A95D2F780918704D1
:1049800090918804A0918904B0918A048A019B01C6
:10499000082B192B2A2B3B2BC901B8011F910F9112
:1049A0000C948B240F931F9341E050E060E070E083
:1049B00004C0440F551F661F771F8A95D2F7409594
:1049C0005095609570958091870490918804A0918E
:1049D0008904B0918A048A019B01082319232A23A0
:1049E0003B23C901B8011F910F910C948B240F93A5
:1049F0001F9341E050E060E070E004C0440F551F99
:104A0000661F771F8A95D2F780918704909188045A
:104A1000A0918904B0918A048A019B010827192773
:104A20002A273B27C901B8011F910F910C948B24B1
:104A30000F931F930091870410918804209189049B
:104A400030918A04602B712B822B932B1F910F9135
:104A50000C948B240F931F9300918704109188046A
:104A60002091890430918A04602371238223932347
:104A70001F910F910C948B240F931F930091870427
:104A8000109188042091890430918A04602771274D
:104A9000822793271F910F910C948B240895292F1F
:104AA000220F920F990F890FA82FA695A695A6956C
:104AB000877051E001C0550F8A95EAF785E0A89FFD
:104AC000D001112420E030E070E0F901EA0FFB1F73
:104AD000E05BFB4F4081CB01022E02C0969587958B
:104AE0000A94E2F78170992781958427852384278A
:104AF00080832F5F3F4F2530310539F70895292FE7
:104B0000220F920F990F890F682F6695669566950B
:104B1000982F977085E0689FB001112440E050E025
:104B200080E0FA01E60FF71FE05BFB4F208130E0E9
:104B3000092E02C0369527950A94E2F72170332793
:104B4000042E01C0220F0A94EAF7822B4F5F5F4FB9
:104B50004530510531F70895BF92CF92DF92EF9221
:104B6000FF920F931F93CF93DF938C01C0908B0420
:104B7000D0908C04E0908D04F0908E048091870496
:104B800090918804A0918904B0918A04C82AD92AF6
:104B9000EA2AFB2ACFE1D0E0D701C6010C2E04C0DF
:104BA000B695A795979587950A94D2F780FF07C089
:104BB000BC2EB8018C2F0E943B0B019719F4219752
:104BC00058F7B12C8B2DDF91CF911F910F91FF9052
:104BD000EF90DF90CF90BF900895CF93DF93EC01DB
:104BE0000E94AC25BE010E943B0BDF91CF9108953E
:104BF0001F93CF93DF93EB0190911504992321F03C
:104C0000CB010E94ED2513C0882349F0CB010E94FF
:104C1000AC25182F682FCE010E944F2504C0CB0170
:104C20000E947F25182FBE01812F0E943B0BDF9130
:104C3000CF911F91089580918F04859585958595D5
:104C4000089580918F048770089590918F049770D4
:104C500081E009F480E008958091B3040895909173
:104C6000B304892B8093B304089580959091B30485
:104C700089238093B30408958093B3040895109218
:104C8000B30408959091B204892B8093B2040895DF
:104C900080959091B20489238093B2040895109274
:104CA000B20408959091B104892B8093B1040895C2
:104CB00080959091B10489238093B1040895109256
:104CC000B104089580919004089508950C94652688
:104CD00090919004981721F0809390040C9466268C
:104CE000089580919004882329F01092900480E028
:104CF0000C9466260895E0910801F09109018091D5
:104D0000B3048083E0910801F091090190818091C2
:104D1000B204892B8083E0910801F0910901908110
:104D20008091B104892B808380919004882381F045
:104D3000E0910801F09109019081892B8083809195
:104D40000801909109010E949F2781110E947126FC
:104D500080910801909109010C94A61A08950C9471
:104D6000AE2698E0899F90011124262B20938F0472
:104D70000E94B12480918F048595859585950C942A
:104D8000AF2610928F0480E00C94AF2620918F0400
:104D90008095822380938F04982F977079F430E068
:104DA000482F082E000C550B2417350739F0859530
:104DB000859585950E94D2240C94C1260895CF92A2
:104DC000DF92EF92FF926C01EE24FF24C114D10414
:104DD000E104F10421F0C701B60120E101C020E0A7
:104DE000C72ED82EE92EFF24C114D104E104F1040A
:104DF00019F0285FC701B6016B017C0154E0F694FD
:104E0000E794D794C7945A95D1F7C114D104E1041B
:104E1000F10419F02C5FC701B6016B017C0142E07F
:104E2000F694E794D794C7944A95D1F7C114D10466
:104E3000E104F10419F02E5FC701B601DC01CB01DA
:104E4000B695A79597958795892B8A2B8B2B09F07B
:104E50002F5F822FFF90EF90DF90CF90089580E03A
:104E600090E00E94953321E08D3E9E4F09F020E0B6
:104E7000822F089582E090E00C94873383E090E0E5
:104E80000C94873384E090E00C948733682F84E09F
:104E900090E00C949B33AB01BC018FE090E00C944C
:104EA000AD33AB01BC0183E190E00C94AD3360E025
:104EB00070E0CB010C94512760E070E0CB010E94C0
:104EC0004B270C9457276DEE7EEF80E090E00E9418
:104ED000B93360E082E090E00E949B3360E083E0C1
:104EE00090E00E949B3310928B0410928C041092DD
:104EF0008D0410928E0460E084E090E00E949B3369
:104F000060E085E090E00E949B3360E086E090E006
:104F10000E949B336FEF87E090E00E949B3340E05C
:104F200050E0BA0188E090E00E94AD3360E08DE08F
:104F300090E00E949B330C945C270C946327FC0147
:104F4000329680911401882331F080914A0687FFC0
:104F500002C09EE101C096E080E0915028F02191CE
:104F60002223D9F38F5FF9CF08959C01FC0132967B
:104F70009FEF80E04191461789F09F3F19F441115E
:104F800001C0982F8F5F8630A9F79F3F39F0F90154
:104F9000E90FF11D97FDFA95628308950895FC01CC
:104FA000329608962081261301C010823196E817A8
:104FB000F907C1F70895262F2695269526952E31B7
:104FC00068F4FC01E20FF11D677021E030E001C0E0
:104FD000220F6A95EAF78281282B22830895262FD3
:104FE0002695269526952E3170F4FC01E20FF11DD1
:104FF000677021E030E001C0220F6A95EAF7209542
:10500000828128232283089520911401222329F0EC
:1050100020914A0627FD0C94DB270C94B52720919C
:105020001401222329F020914A0627FD0C94EF2732
:105030000C94CF2720911401FC013296222331F0E9
:1050400080914A0687FF02C08EE101C086E0DF0141
:105050001D928A95E9F7089508950C942C280E94D2
:105060002D2880915006843049F11092B50420E437
:1050700088E190E00FB6F894A895809360000FBE89
:105080002093600080E00E9474080E942D2883B75E
:10509000817F846083BF83B7816083BF7894889564
:1050A00083B78E7F83BF0FB6F894A8958091600078
:1050B000886180936000109260000FBE089508958B
:1050C000CF930E9415050E94BE050E945F28C0E094
:1050D0008C2F0E940606811104C0CF5FCE30C1F72D
:1050E00001C081E0CF91089508950C9474280E9426
:1050F00076200E949A1A0E9474080C9475281F92B8
:105100000F920FB60F9211248F939F93AF93BF937B
:105110008091B504811113C0809146069091470695
:10512000A0914806B09149064196A11DB11D8093FA
:10513000460690934706A0934806B0934906BF9150
:10514000AF919F918F910F900FBE0F901F90189568
:1051500082E084BD93E095BD9AEF97BD80936E0089
:1051600008952FB7F8948091460690914706A09134
:105170004806B09149062FBF0895CF92DF92EF9273
:10518000FF920F931F932FB7F894409146065091CA
:10519000470660914806709149062FBF6A017B015E
:1051A000EE24FF248C0120E030E0C016D106E20698
:1051B000F30610F4415051099A01281B390BC9011B
:1051C0001F910F91FF90EF90DF90CF90089578940A
:1051D0001F920F920FB60F9211248F939F93AF934C
:1051E000BF938091460690914706A0914806B091E2
:1051F00049060196A11DB11D80934606909347066E
:10520000A0934806B0934906BF91AF919F918F91AB
:105210000F900FBE0F901F901895F89481E0809327
:10522000E00080E28093D800E9ECF0E010828FE1AA
:105230009EE40197F1F700C000001DBA10926800CB
:105240001CBC10BE1FBA10927A0010926E00109211
:105250006F0010927100109272001082ECEBF0E07F
:10526000108214B817B81AB81DB810BA108215B841
:1052700018B81BB81EB811BA0C94003F08950E94CC
:105280002F27811102C00E949D270E943A278093F8
:10529000B4040E94422790E090934B0680934A0604
:1052A0000E943E27682F70E080E090E00C9451242B
:1052B0008091D604089508950F931F93CF93DF93A1
:1052C00000D01F92CDB7DEB78C010E949F2B823099
:1052D00011F0843021F584E089831B830A8382E006
:1052E0008093E9008FEF9091E800815095FD06C012
:1052F00095ED9A95F1F700008111F5CF8091E800C6
:1053000085FF0DC040E050E063E070E0CE01019603
:105310000E94BC2B8091E8008E778093E8000F906C
:105320000F900F90DF91CF911F910F910895CF9320
:10533000DF9300D01F92CDB7DEB720915006243006
:1053400031F523E02983805891099B838A8382E089
:105350008093E9008FEF9091E800815095FD06C0A1
:1053600095ED9A95F1F700008111F5CF8091E80055
:1053700085FF0DC040E050E063E070E0CE01019693
:105380000E94BC2B8091E8008E778093E8000F90FC
:105390000F900F90DF91CF910895CF93DF93EC01A1
:1053A0000E949F2B823011F08430D9F58091140136
:1053B000882339F080914A0687FF03C060E282E0CB
:1053C00002C068E081E08093E9008FEF9091E800EF
:1053D000815095FD06C095ED9A95F1F70000811179
:1053E000F5CF8091E80085FF1CC0809114018111E8
:1053F00005C040E050E068E070E003C070E040E0CD
:1054000050E0CE010E94BC2B8091E8008E77809303
:10541000E80080E2FE01A6EBB4E001900D928A95CF
:10542000E1F7DF91CF91089580914F06811109C076
:105430000E94512D0E94AE2D8091E20084608093E5
:10544000E200089510924F060895089508950C946F
:10545000772842E061EC81E00E94CB2C42E261ECD3
:1054600082E00C94CB2C80915206833009F460C00A
:1054700030F4813071F0823009F499C008958A3097
:1054800009F485C08B3009F46BC0893009F0A7C0DE
:1054900020C080915106813A09F0A1C08091E800B6
:1054A000877F8093E8008091550690915606892B5E
:1054B00021F460E286EB94E003C060E080E090E0DD
:1054C00070E00E94072C8091E8008B778093E800C1
:1054D000089580915106813209F081C0809155066E
:1054E00090915606029708F07AC08091E800877F75
:1054F0008093E8008091E80082FD05C0809150060D
:105500008111F8CF6CC02091F3008091F20090E0FF
:10551000922B029729F48091F1008B7F813021F446
:105520008091F1008093D6048091E8008B7753C07E
:1055300080915106813A09F052C0809155069091B0
:105540005606892B09F04BC08091E800877F809335
:10555000E8008091E80080FFFCCF8091140136C004
:10556000809151068132D9F5809155069091560669
:10557000892BA9F58091E800877F8093E8000E943D
:10558000002D80915306809314010C947620809115
:105590005106813221F58091E800877F8093E800F1
:1055A0000E94002D809154068093D7040895809125
:1055B0005106813AA1F48091E800877F8093E8004A
:1055C0008091E80080FFFCCF8091D7048093F100A8
:1055D0008091E8008E778093E8000C94002D089568
:1055E00084B7877F84BF0FB6F894A8958091600038
:1055F000886180936000109260000FBE80E8809305
:105600006100109261000E94F41A0E94512D0E94C4
:10561000AE2D8091E20084608093E20078940E9435
:105620003D300E94FA1A8AE091E00E94951A80911A
:105630005006853069F40E942F2880914E068823F9
:10564000B1F30E946028882391F30E94A62BEFCF2C
:105650000E94001BECCF0C942D2B292F33272330D5
:105660003105C9F064F42130310581F02230310573
:1056700009F04CC08BE390E02BEB37E04BC02132BC
:10568000310521F12232310589F140C082E190E0FB
:1056900026EF37E03FC099278130910571F02CF457
:1056A000892BA1F5E7EBF7E00DC08230910541F0C1
:1056B000039761F5E1E8F7E005C0EFE9F7E002C024
:1056C000E7E8F7E0849190E09F0124C0611571053F
:1056D00041F061307105D1F489E090E026EE37E0C9
:1056E00019C089E090E02DEC37E014C06115710518
:1056F00041F06130710551F481E790E028E038E035
:1057000009C080E490E029E738E004C080E090E040
:1057100020E030E0FA013183208308950895CF938B
:10572000C82F0E948E2BC093D804CF9108958091EA
:105730005006843011F081E0089582E00895809150
:10574000D804811102C00C94972B089580E189BD83
:1057500082E189BD09B400FEFDCF8091D8008F7D24
:105760008093D8008091E00082608093E000809177
:10577000E00081FDFCCF0895CF92DF92EF92FF927F
:105780000F931F93CF93DF93EC018B016A010E946B
:105790001F2D811133C0C114D10439F0F60180816D
:1057A0009181081B190BC80FD91FE12CF12C011591
:1057B000110519F18091E80085FD16C08091E8007F
:1057C0008E778093E800C114D10449F0F6018081FE
:1057D0009181E80EF91EF182E08285E00FC00E94FF
:1057E0001F2D882321F30AC089918093F100015075
:1057F0001109FFEFEF1AFF0ADACF80E0DF91CF91B6
:105800001F910F91FF90EF90DF90CF90089520911E
:105810005706309158062617370748F0611571056D
:1058200039F42091E8002E772093E80001C0B901F7
:1058300040E061157105A9F120915006222309F479
:1058400043C0253009F442C02091E80023FD40C048
:105850002091E80022FD32C02091E80020FFE9CF2E
:105860004091F3002091F20030E0342BFC01CF0195
:105870006115710559F02830310540F4819180930C
:10588000F100615071092F5F3F4FF1CF41E02830A7
:10589000310509F040E02091E8002E772093E800E0
:1058A000C8CF4111C9CF0AC080915006882361F04A
:1058B000853061F08091E80083FD0AC08091E800A6
:1058C00082FFF2CF80E0089582E0089583E008959A
:1058D00081E0089520915706309158062617370722
:1058E00048F06115710539F42091E8002E77209376
:1058F000E80001C0B901FC0120E06115710591F1DA
:1059000080915006882309F440C0853009F43FC0D7
:105910008091E80083FD3DC08091E80082FD2FC0AA
:105920008091E80080FFE9CF2091F3008091F200A0
:1059300090E0922B6115710559F08830910540F483
:1059400024912093F1003196615071090196F2CFB4
:1059500021E0089709F020E08091E8008E7780939D
:10596000E800CBCF2111CCCF0AC08091500688230C
:1059700061F0853061F08091E80083FD0AC080917C
:10598000E80082FFF2CF80E0089582E0089583E08E
:10599000089581E00895982F973058F59093E90085
:1059A000981739F07091EC002091ED005091F000C3
:1059B00003C0242F762F50E021FF19C03091EB0057
:1059C0003E7F3093EB003091ED003D7F3093ED0052
:1059D0003091EB0031603093EB007093EC0020933A
:1059E000ED005093F0002091EE0027FF07C09F5F6D
:1059F000D3CF8F708093E90081E0089580E008950F
:105A00008091510687FF11C08091E80082FD05C09A
:105A1000809150068111F8CF11C08091E8008B77FA
:105A20000BC080915006882349F08091E80080FFE8
:105A3000F8CF8091E8008E778093E8000895209158
:105A4000E4003091E50095E64091EC00842F8170F0
:105A500040FF22C08091E80080FD1CC0809150066C
:105A6000882391F0853091F08091EB0085FD10C086
:105A70004091E4005091E5004217530729F39A0141
:105A8000915011F784E0089582E0089583E008952D
:105A900081E0089580E008954091E80042FFDECF64
:105AA00008950E94BF2D0E94C72DE0EEF0E0808196
:105AB00081608083E8EDF0E080818F77808319BC7E
:105AC000A7EDB0E08C918E7F8C9380818F7E808358
:105AD00010924F0608950F931F93CF93DF930E9468
