:100000000C940B040C9428040C9428040C942804DD
:100010000C9428040C9428040C9428040C942804B0
:100020000C9428040C9428040C94B50E0C94F70D31
:100030000C94721C0C9428040C9428040C9428042E
:100040000C9428040C9428040C9428040C94280480
:100050000C9428040C94BF0F0C9428040C942804CE
:100060000C9428040C9428040C9428040C94280460
:100070000C9428040C9428040C9428040C94280450
:100080000C9428040C9428040C9428040C94280440
:100090000C9428040C9428040C9428040C94280430
:1000A0000C9428040C9428040C9428040F0C360C8F
:1000B000DF0D360CDF0D820CA50CDF0D9A0DAA0D9D
:1000C000F416021707170C17111716171B1720170E
:1000D00025172A172F17361738173A173C17FD1907
:1000E000FD19FD19FD19FD19FD19081808183B180F
:1000F0003B18B818D519D519D519D6184A195B194E
:100100005B1934223922432237223C2241223F22EA
:10011000EB23EE23F123F423F723FA23FD23050138
:100120000980A101850319012AB700150126B7002E
:10013000950175108100C0050C0901A10185041904
:10014000012AA002150126A002950175108100C0A8
:1001500005010906A1018506050719E029E7150033
:1001600025019508750181020507190029EF150081
:10017000250195F0750181020508190129059505EC
:1001800075019102950175039101C00660FF096137
:10019000A1010962150026FF00952075088102095A
:1001A00063150026FF00952075089102C00501091E
:1001B00006A101050719E029E71500250195087535
:1001C0000181029501750881010507190029FF15B4
:1001D0000026FF009506750881000508190129050C
:1001E0001500250195057501910295017503910191
:1001F000C009025B00030100A0FA0904000001032A
:1002000001010009211101000122440007058103B9
:100210000800010904010002030000000921110186
:1002200000012222000705820320000107050303C5
:10023000200001090402000103000000092111014E
:100240000001226D00070584032000011201000255
:1002500000000008973276490100010200012003E6
:100260004500720067006F0044006F0078002000B6
:1002700045005A00200047006C006F007700000026
:1002800028035A0053004100200054006500630019
:1002900068006E006F006C006F006700790020003E
:1002A0004C0061006200730000000403090429008F
:1002B0002B003500E100E00000001E0014000400E7
:1002C0001D00010021521F001A0016001B00010032
:1002D000E300200008000700060001002A002100BA
:1002E000150009001900E2002C00220017000A0086
:1002F00005000000230201000100000001000000D1
:100300003E000100010000002E000000010023005B
:100310001C000B00110000002102240018000D0039
:1003200010006534010025000C000E0036000100AD
:100330002C00260012000F003700010028002700C3
:10034000130033003800010022522D003100340028
:10035000E5000100000001000100010001000100B2
:100360000000010001002F02010001000100010056
:100370004F01260201000100010001002F002702A9
:100380000100010001000100300030020100010005
:100390000100010001000100500100004A000100BD
:1003A0000100000001000000010001000100000048
:1003B00001000000010001000100500001000000E8
:1003C0004D0000002F0251000100010001002F002C
:1003D00026025200010001000100300027024F00F8
:1003E00001000100010000003002010001000100D5
:1003F00001000100010001000100010000000100F6
:10040000010001000100010000003A0001000100AC
:100410000100010001003B003F004200010001001B
:1004200001003C0040004300010001004C003D0081
:10043000410044000100010001003E0001004500B0
:1004400001000000010001000100000001000000A7
:100450000100010001000000010000000100010096
:100460000100010001000000010001000100010085
:100470000100010001000100010001000100010074
:100480000100010001000100010001000100010064
:10049000010001000100010001000100010046000F
:1004A0002078010000000044345400746484005536
:1004B0004565008575950036264600665676009699
:1004C00086A60037274700776787003828480088C6
:1004D00078980039294900695979009989A9003A21
:1004E0002A4A006A5A7A003B2B4B006B5B7B004C1C
:1004F0003C5C007C6C8C005D4D6D008D7D9D003EF4
:100500002E4E006E5E7E01443454017464840155A5
:100510004565018575950136264601665676019634
:1005200086A6013727470177678701382848018861
:1005300078980139294901695979019989A9013ABC
:100540002A4A016A5A7A013B2B4B016B5B7B014CB7
:100550003C5C017C6C8C015D4D6D018D7D9D013E8F
:100560002E4E016E5E7E00000000000000000000C4
:10057000000000000000000000000000000000007B
:10058000000000000000000000000000000000006B
:10059000000000000000000000000000000000005B
:1005A000000000000000000000000000000000004B
:1005B000000000000000000000000000000000003B
:1005C000000000000000000000000000000000002B
:1005D000000000000000000000000000000000001B
:1005E000000000000000000000000000000000000B
:1005F00000000000000000000000000029FFFF29AB
:10060000FFFF00000000000029FFFF29FFFF29FF76
:10061000FF29FFFF5C9AD85C9AD85C9AD85C9AD87C
:1006200000000000000000000000000000000000CA
:1006300000000000000000000000000000000000BA
:1006400000000000000000000000000000000000AA
:1006500029FFFF29FFFF5C9AD80000000000002955
:10066000FFFF29FFFF29FFFF29FFFF5C9AD8000049
:10067000000000000000000000000000000000007A
:10068000000000000000000000000000000000006A
:10069000000000000000000000000000000000005A
:1006A000000000000000000000000000000000004A
:1006B000000000000000000000000000000000003A
:1006C000000000000000000000000000000011DA3F
:1006D000CC11DACC11DACC11DACC11DACC00000072
:1006E00011DACC11DACC11DACC00000011DACC111D
:1006F000DACC11DACC11DACC0000000000000000E6
:1007000000000000000000000000000000000000E9
:1007100000000000000000010101010101010101D0
:1007200002020202020202020203030303030303A2
:10073000030404040404040405050505050606066F
:100740000606070707070708080808090909090A2C
:100750000A0A0B0B0B0C0C0C0D0D0D0E0E0E0F0FD1
:100760000F1010111111121213131414151516165F
:100770001717181819191A1A1B1B1C1D1D1E1E1FCE
:100780002020212222232424252626272829292A1D
:100790002B2C2D2D2E2F3031323233343536373845
:1007A000393A3B3C3D3E3F40414243444546474841
:1007B000494A4C4D4E4F50515354555658595A5B17
:1007C0005D5E5F616264656668696B6C6D6F7072B7
:1007D000737577787A7B7D7E8082838587888A8C23
:1007E0008E8F91939596989A9C9EA0A2A3A5A7A957
:1007F000ABADAFB1B3B5B7BABCBEC0C2C4C6C9CB4E
:10080000CDCFD1D4D6D8DBDDDFE2E4E7E9EBEEF003
:10081000F3F5F8FAFDFF11241FBECFEFDAE0DEBFDB
:10082000CDBF12E0A0E0B1E0E6E6F0E602C0059040
:100830000D92AC35B107D9F725E0ACE5B2E001C0C7
:100840001D92A83BB207E1F70E94B81E0C9431300C
:100850000C940000E42FF0E0EE0FFF1FE453FE4F76
:100860009081921B97FD9195292F38E1239F212D8F
:100870001124620F08952091B00530E1230F08F490
:100880002FEF60E1822F90E00E942F29BC0188EBBE
:100890009BE00E94A12C80E090E008950F931F93AD
:1008A000CF93DF93D62F072F182FC42F822F0E94AC
:1008B0009F28EC2FF0E0EE0FFF1FE453FE4F9081D6
:1008C0009058890F87FD8195880F682F2CE0629FD3
:1008D000612D11246D0F702F812FDF91CF911F910A
:1008E0000F9108950E948A1A08950E942D1A089562
:1008F000A4E0B0E0EEE7F4E00C94B62C782E809102
:10090000080187110DC02091AC05237030E04091A3
:10091000070150E081E02417350719F480E001C099
:1009200081E08170809317018091B105909116014B
:10093000981739F08093160140E060E080E00E9453
:100940007204EFE07E125DC08FE497E20E942F2ACE
:100950008A8342C0F71508F49AC123E0721609F49D
:1009600059C0271508F4F7C031E0731609F497C091
:10097000371508F0B6C080911501382F330F330FAB
:10098000380F398375E0F72EF30E80E38F1510F4DE
:1009900060E3F62E1091AE059091AF059A83009119
:1009A000AD05B801892F0E943929E62ED72EC82E11
:1009B0006091B005600F712F8A810E9439296A8386
:1009C000172F082F29812F1508F4ABC031E03A8387
:1009D0008FE28F1508F48EC0809115018F5F809390
:1009E00015019A81911112C582E0809318018091BE
:1009F000170181110BC5711009C583E0809318019F
:100A000005C5E71508F46BC1F7E07F12A3CF8EE7A9
:100A100097E29CCF80911501982F990F990F980F0D
:100A200099839B5F9B83913310F0E0E3EB83E0902D
:100A3000AE05D090AF052091B00550E4F52E3F2DC6
:100A4000329F312D1124F32EE981FB81EF1708F03D
:100A500042C08981082F10E0F801E45DFD4F9081CC
:100A6000809116018923B9F0F801EE0FFF1FE353BF
:100A7000FE4F808182958F706091AD058F9D600DD6
:100A800011247E2D8D2D0E943929462F282F672F66
:100A9000C8010E94750499819F5F9983D5CF809189
:100AA0001501282F220F220F280F29832B5F2B835C
:100AB000213310F030E33B836091AD057091AE05BA
:100AC0008091AF050E943929162F072FF82EE98152
:100AD000FB81EF1788F021E02A83F03308F47CCF04
:100AE00009C080911701882329F040E060E080E090
:100AF0000E9472041A8270CF8981E82FF0E0DF0132
:100B0000A45DBD4F8C9190911601982331F02F2D4B
:100B1000412F602FCF010E94750499819F5F9983B7
:100B2000D6CFE9818E2F90E0FC01E45DFD4F30814E
:100B300020911601232359F030FF04C0202F4A8151
:100B4000612F03C02C2D4E2D6D2D0E947504F9814F
:100B5000FF5FF98337CF85E078124AC08091150195
:100B6000382F330F330F380F39833B5F3B833133DB
:100B700010F080E38B830091AD051091AE05F090ED
:100B8000AF056091B0056695669566958091A40560
:100B90009091A5050E942F290E949F28805887FDCB
:100BA0008195880F282F3F2D239F212D1124822FDF
:100BB000B8010E943929162F072FF82EE981FB81F1
:100BC000EF1708F088CF8981E82FF0E0DF01A45DFE
:100BD000BD4F8C9190911601982331F02F2D412F0C
:100BE000602FCF010E94750499819F5F9983E6CFA2
:100BF000871508F449C080911501382F330F330F42
:100C0000380F39833B5F3B83313310F080E38B83B4
:100C1000E090AE05D090AF052091B00530E4F32E02
:100C20003F2D329F312D1124F32EE981FB81EF17E7
:100C300008F051CF8981082F10E0F801E45DFD4FE5
:100C40009081809116018923D9F0F801EE0FFF1FE2
:100C5000E453FE4F6081F69EB001112495E0759536
:100C600067959A95E1F78091AD05680F7E2D8D2DE2
:100C70000E943929462F282F672FC8010E9475042A
:100C800099819F5F9983D1CF8AEA97E25FCE9BE0FB
:100C9000791208C08DE298E202C089E498E20E94CD
:100CA000CE2A56CE971568F0E9E07E1205C084E69C
:100CB00098E20E944A2B4CCEE71578F382E898E23E
:100CC000F8CFFDE07F1203C083E797E23FCEF71530
:100CD00018F08CE797E23ACE8AE697E237CE27E122
:100CE00072128DC080911501382F330F330F380FDA
:100CF0003983132F1B5F113308F010E38091170124
:100D0000811121C06091B00520E1620F08F46FEFFE
:100D10008091A4059091A5050E942F296AE070E0BA
:100D20000E94A12C892B41F50E94C02890E3899F45
:100D30009001112460911601832F932F990F990B25
:100D40000E948B1D19C0F981EF2FF0E0FC83EB832B
:100D5000E12EF12C8B819C818E159F056CF46091A6
:100D600016018B819C810E948B1D2B813C812F5F02
:100D70003F4F3C832B83EECF91E09A833CC0E71535
:100D800008F4D2C0F9E17F1609F467C0F71508F43A
:100D9000C8C080911501E82FEE0FEE0FE80FE98330
:100DA0001E2F1B5F113308F010E380911701811192
:100DB0009FC06091B00520E1620F08F46FEF809151
:100DC000A4059091A5050E942F2965E070E00E947E
:100DD000A12C892B71F40E94C028F0E38F9F900111
:100DE000112460911601832F932F990F990B0E9464
:100DF000671DF1E0FA83103308F4EECD7BCE2715A2
:100E000030F133E1731203C088E098E248CF371520
:100E100070F081E1781203C086E099E24ACF87152D
:100E200018F080E497E23BCF8CE198E242CF95E165
:100E3000791203C080EE96E204C0971528F082E193
:100E400097E20E94792A84CD82EA96E2FACFEBE11A
:100E50007E1295CF8AE294E079CD80911501282FFA
:100E6000220F220F280F29832B5F2B83213310F0B1
:100E700030E33B830091AE051091AF05F090AD05D6
:100E80006091B0056695669566958091A4059091F0
:100E9000A5050E942F290E949F28805887FD8195D3
:100EA000880F682F2CE0629F612D11246F0D702F29
:100EB000812F0E943929162F072FF82EE981FB81F7
:100EC000EF1708F008CE8981E82FF0E0DF01A45D7C
:100ED000BD4F8C9190911601982331F02F2D412F09
:100EE000602FCF010E94750499819F5F9983E6CF9F
:100EF0003981232F30E03C832B83E12EF12CEB81D1
:100F0000FC81EE15FF050CF074CF609116018B810A
:100F10009C810E94671D8B819C8101969C838B83A1
:100F2000EECF8EE494E012CD2DE17212EEC040912E
:100F3000F2025091F3026091F4027091F5028091F7
:100F4000A4059091A505A091A605B091A7058417C9
:100F50009507A607B70708F4CDCD80911701811139
:100F60000EC080911501382F330F330F380F39839E
:100F7000032F0B5F013308F45AC000E358C040E070
:100F800060E080E00E94720402E612E01C821B8294
:100F90000E94C02881FF05C0F801108211821282D0
:100FA00020C00E94C028D82E0E94C028F0E88F9F41
:100FB000C00111247FE7790F8B819C81880F991FD5
:100FC0002B813C81820F931FFC01EE59FD4F7F0165
:100FD0006D2D8091AF050E943929F70160837183DF
:100FE00082832B813C812F5F3F4F3C832B830D5F9E
:100FF0001F4F2033310561F6B4CF3981832F90E044
:10100000FC01E45DFD4F308120911601232361F046
:10101000FC01EE0FFF1FE80FF91FEE59FD4F228173
:10102000408161810E94750489818F5F89839981E4
:10103000901718F3E1E0EA83003308F01A820033D6
:1010400008F4CACC20E010E001501109822F90E092
:1010500080179107CCF4AC01440F551F480F591F5E
:101060004E595D4F0196FC01EE0FFF1F8E0F9F1F23
:10107000FC01EE59FD4F80819181A281FA018083AC
:101080009183A2832F5FE2CF0E94C0287801EE0CEB
:10109000FF1C81FF09C00E0D1F1DF801EE59FD4F09
:1010A00010821182128218C00E94C02889830E9477
:1010B000C028F0E88F9FC00111247FE7790F0E0D43
:1010C0001F1D0E591D4F69818091AF050E9439295E
:1010D000F8016083718382830E943B040091A40520
:1010E0001091A5052091A6053091A705DC01CB0143
:1010F000800F911FA21FB31F8093F2029093F302FF
:10110000A093F402B093F50267CC721608F07AC08F
:1011100080911501982F990F990F890F8B5F8B8301
:101120004091A4055091A5056091A6057091A70571
:1011300080915E0290915F02A0916002B091610285
:1011400084179507A607B70708F055C00E94C02866
:1011500030E3839FC0011124092F112707FD1A9541
:10116000F801E45DFD4F808190911601982309F408
:1011700042C00E94C02881FD0EC00E94C028898301
:101180000E94C028E0E88E9FC00111247FE7790FFC
:101190008091AF0503C080E070E0198269810E94F0
:1011A0003929462F282F672FC8010E9475042091E6
:1011B000B00530E1230F08F42FEF60E1822F90E0BB
:1011C0000E942F29BC0184EF91E00E94A12C809104
:1011D000A4059091A505A091A605B091A705860F3D
:1011E000971FA11DB11D80935E0290935F02A09393
:1011F0006002B0936102F1E0FA832B81203308F49E
:10120000EBCB78CC3EE17312C7C0809117018823E5
:1012100029F040E060E080E00E94720480911501B6
:10122000982F990F990F890F8B5F89834091A4059F
:101230005091A5056091A6057091A70580912003A6
:1012400090912103A0912203B09123038417950765
:10125000A607B70708F099C06091AD057091AE057B
:101260008091AF050E943929662E572E482E06EF31
:1012700012E028E731E03C832B834CEC842E41E0E4
:10128000942EAB80BC806501780132E0332EF701EB
:101290008081F601882369F08081242D462D652DFB
:1012A00090E00E947504F5018581242D462D652D61
:1012B0000CC0808120E040E060E090E00E94750476
:1012C000F501858120E040E060E090E00E94750437
:1012D000F701818181937F013A94FFEFCF1ADF0AF2
:1012E00021E0A21AB1083110D2CFF8018281EB813E
:1012F000FC81882371F08281242D462D652D90E09C
:101300000E947504EB81FC818381242D462D652D7F
:101310000DC0828120E040E060E090E00E94750412
:10132000EB81FC81838120E040E060E090E00E945E
:1013300075040E94C028837091E009F090E0F801E4
:1013400092830D5F1F4F2B813C812A5F3F4F3C836F
:101350002B838216930609F094CF0E943B040091E0
:10136000A4051091A5052091A6053091A705DC01E3
:10137000CB01800F911FA21FB31F80932003909376
:101380002103A0932203B093230331E03A838981A0
:10139000803308F421CBAECB8FEF781231C080912F
:1013A000A4059091A505A091A605B091A705882751
:1013B0009C70AA27BB272AE0B695A7959795879595
:1013C0002A95D1F782309105A105B10571F08330DE
:1013D0009105A105B10569F040E00197A105B105AE
:1013E00011F060E008C064E102C044E160E080E028
:1013F00003C044E164E184E10E94720482E0FECA19
:10140000809115018F5F80931501EECA2496E1E16A
:101410000C94D22CECEAF5E085E3808380911901ED
:1014200090911A01A0911B0181839283A3838FE77E
:1014300084838FEF858348E050E068E170E0CF015E
:101440000E94192D1092AB0508958091510387FFDA
:1014500011C08091E80082FD05C08091AA0581112C
:10146000F8CF11C08091E8008B770BC08091AA055E
:10147000882349F08091E80080FFF8CF8091E80050
:101480008E778093E8000895982F973068F59093B1
:10149000E900981739F07091EC002091ED0050911F
:1014A000F00003C0242F762F50E021FD02C09F5F83
:1014B000ECCF3091EB003E7F3093EB003091ED00AC
:1014C0003D7F3093ED003091EB0031603093EB00C5
:1014D0007093EC002093ED005093F0002091EE000B
:1014E00027FDE5CF80E008958F708093E90081E0CB
:1014F000089520915703309158032617370748F075
:101500006115710539F42091E8002E772093E800E9
:1015100001C0B901FC0120E06115710579F18091EC
:10152000AA058823F1F18530F1F18091E80083FD6F
:101530003CC08091E80082FD2EC08091E80080FFD1
:10154000EBCF2091F3008091F20090E0922B611597
:10155000710551F08830910538F421912093F10004
:10156000615071090196F3CF21E0089709F020E05E
:101570008091E8008E778093E800CECF2111CFCF05
:101580000AC08091AA05882361F0853061F08091BE
:10159000E80083FD0AC08091E80082FFF2CF80E07E
:1015A000089582E0089583E0089581E00895089504
:1015B00080912D0308959B019091AA059430F1F438
:1015C0008F708093E9008FEF9091E800815095FD36
:1015D00006C095ED9A95F1F700008111F5CF809145
:1015E000E80085FF0BC0BA01C90140E050E00E944D
:1015F000DC298091E8008E778093E800089543E02D
:1016000050E0BC0184E00E94DB0A0895CF93DF9391
:10161000EC0180910601811105C048E050E0BE0157
:1016200081E00BC08091280387FF03C040E284E083
:1016300002C048E081E050E0BE010E94DB0A80E287
:10164000FE01AEE2B3E001900D928A95E1F7DF91E1
:10165000CF910895AAE2B0E0E0E3FBE00C94C42C43
:10166000E1E5F3E089E593E02091F10021938E1705
:101670009F07D1F780915203833009F463C030F49F
:10168000813071F0823009F49FC0B6C08A3009F40D
:101690008BC08B3009F46EC0893009F0ADC020C01A
:1016A00080915103813A09F0A7C08091E800877FBB
:1016B0008093E8008091550390915603892B21F483
:1016C00060E28EE293E003C060E080E090E070E0D2
:1016D0000E94790A8091E8008B778093E8008CC0A3
:1016E00080915103813209F087C080915503909118
:1016F0005603009719F0029709F07EC08091E80028
:10170000877F8093E8008091E80082FD05C080918A
:10171000AA058111F8CF70C02091F3008091F200EA
:1017200090E0922B029731F48091F100813011F01A
:10173000863021F48091F10080932D038091E800A0
:101740008B7756C080915103813A09F055C0809142
:10175000550390915603892B09F04EC08091E80003
:10176000877F8093E8008091E80080FFFCCF809124
:10177000060139C0809151038132F1F58091550302
:1017800090915603892BC1F58091E800877F809363
:10179000E8000E94250A809153038093060110926D
:1017A0002B030E94602528C080915103813221F5CE
:1017B0008091E800877F8093E8000E94250A80914D
:1017C000540380932C0318C080915103813AA1F4F3
:1017D0008091E800877F8093E8008091E80080FF97
:1017E000FCCF80912C038093F1008091E8008E77EC
:1017F0008093E8000E94250A8091E80083FFDFC102
:101800008091510390915203492F50E04A30510585
:1018100008F0D5C1FA01EA5AFF4F0C94FD2E80382A
:1018200021F0823809F0CBC108C080914E0390911D
:101830004F03992389F082600FC0809155038F7008
:10184000873008F0BCC18093E9008091EB0085FBF4
:10185000882780F91092E9009091E800977F909393
:10186000E8008093F1001092F10070C1282F2D7FC5
:1018700009F0A5C1882319F0823061F0A0C18091E0
:101880005303813009F09BC1933009F080E08093CD
:101890004F032EC08091530381112AC080915503BC
:1018A0008F702FEF280F263008F089C18093E90050
:1018B0002091EB0020FF1CC0933021F48091EB00BD
:1018C000806214C09091EB0090619093EB0021E056
:1018D00030E0A90102C0440F551F8A95E2F74093FA
:1018E000EA001092EA008091EB0088608093EB00A0
:1018F0001092E9008091E800877F8093E8000E94C1
:10190000250A5DC181115BC1109153031F7780913E
:10191000E3008078812B8093E3008091E800877F4B
:101920008093E8000E94250A8091E80080FFFCCFA8
:101930008091E30080688093E300111102C082E08F
:1019400001C083E08093AA053AC18058823008F034
:1019500036C120915303309154032C3D53E0350799
:1019600079F583E08A838AE289834FB7F894DE01B0
:10197000139620E03EE051E2E32FF0E05093570051
:10198000E49120FF03C0E295EF703F5FEF708E2F70
:1019900090E0EA3010F0C79601C0C0968D939D93F9
:1019A0002F5F243149F74FBF8091E800877F8093F4
:1019B000E8006AE270E0CE0101960E94790AB4C0A4
:1019C0008091550390915603432F5527433051057D
:1019D000A9F068F44130510509F400C142305105C5
:1019E00009F0EDC08BE590E0E1EFF1E04BC0413252
:1019F000510529F14232510589F1E1C0C901992708
:101A000081309105A1F058F0029709F0D8C0EEE5B9
:101A1000F2E0E4918E2F90E0EEE5F2E030C0EAEAE9
:101A2000F2E0E4918E2F90E0EAEAF2E028C0E0E8EC
:101A3000F2E0E4918E2F90E0E0E8F2E020C0833005
:101A4000910508F0BCC0880F991FFC01EB5DFE4FAB
:101A50000190F081E02D89E090E014C08330910581
:101A600008F0ADC0FC01EE0FFF1FE15EFE4F0190DC
:101A7000F081E02DDC01A45EBE4F8C9190E00097D8
:101A800009F49DC02091E800277F2093E800209171
:101A90005703309158032817390708F4C90140E06B
:101AA000009789F12091AA05222309F43DC0253031
:101AB000D9F12091E80023FD37C02091E80022FDF4
:101AC0002FC02091E80020FFEBCF4091F300209140
:101AD000F20030E0342B009759F02830310540F403
:101AE00044914093F100319601972F5F3F4FF3CF20
:101AF00041E02830310509F040E02091E8002E77E0
:101B00002093E800CDCF4111CDCF0AC08091AA0526
:101B1000882351F0853041F08091E80083FD04C0B6
:101B20008091E80082FFF2CF8091E8008B7780936C
:101B3000E80045C0803809F042C08091E800877F06
:101B40008093E800809150038093F1008091E80039
:101B50008E77D3CE811133C080915303909154037B
:101B60009927029764F58091E800877F8093E800C9
:101B700010915303109350030E94250A111106C0BF
:101B80008091E30087FD02C081E001C084E0809382
:101B9000AA0542E061EC81E00E94440A42E261EC65
:101BA00084E00E94440A42E261EC82E00E94440A1E
:101BB00042E260EC83E00E94440A8091AA05809191
:101BC000E80083FF10C08091E800877F8093E800E1
:101BD0008091EB0080628093EB0005C082E190E091
:101BE000ECE4F2E04FCFAA96E3E00C94E02C1F92D5
:101BF0000F920FB60F9211242F933F934F935F9341
:101C00006F937F938F939F93AF93BF93CF93DF9304
:101C1000EF93FF93C091E900CF708091EC00D82F33
:101C2000D17080FDD0E81092E9008091F000877FAC
:101C30008093F00078940E942A0B1092E900809122
:101C4000F00088608093F000CD2BCF70C093E90046
:101C5000FF91EF91DF91CF91BF91AF919F918F91C4
:101C60007F916F915F914F913F912F910F900FBE98
:101C70000F901F901895E8EDF0E080818E7F8083B3
:101C80001092E2001092DA001092E100A0EEB0E0B3
:101C90008C9181608C9380818F77808319BCA7EDB4
:101CA000B0E08C918E7F8C9380818F7E80831092A8
:101CB0002A030895A0E0B0E0E0E6FEE00C94BF2C1B
:101CC000C8EDD0E088818F7E8883E7EDF0E08081E9
:101CD0008160808384E082BF81E080932A038881D1
:101CE0008E7F888302EE10E0F80110821092DA00F5
:101CF00081EEC82ED12CF601108288818F778883DF
:101D000088818068888388818F7D888319BC109240
:101D1000AA051092500310924F0310924E0390EEBA
:101D2000E92EF12CF70180818B7F8083888181608F
:101D3000888342E060E080E00E94440AF6018081EE
:101D40008E7F8083F80180818160808380818860BC
:101D50008083F70180818E7F808388818061888382
:101D6000CDB7DEB7E8E00C94DB2C1F920F920FB6D4
:101D70000F9211242F933F934F935F936F937F9311
:101D80008F939F93AF93BF93EF93FF938091E10065
:101D900082FF09C08091E20082FF05C08091E100CE
:101DA0008B7F8093E1008091DA0080FF2AC08091D0
:101DB000D80080FF26C08091DA008E7F8093DA0001
:101DC0008091D90080FF18C080E189BD82E189BD82
:101DD00009B400FEFDCF81E08093AA0580912A031B
:101DE00081110FC00E943B0E0E945A0E8091E200AA
:101DF00084608093E20005C019BC1092AA0510927D
:101E00002A038091E10080FF17C08091E20080FFEB
:101E100013C08091E2008E7F8093E2008091E20007
:101E200080618093E2008091D80080628093D80026
:101E300019BC85E08093AA058091E10084FF30C041
:101E40008091E20084FF2CC080E189BD82E189BDE0
:101E500009B400FEFDCF8091D8008F7D8093D8001B
:101E60008091E1008F7E8093E1008091E2008F7E7F
:101E70008093E2008091E20081608093E200809193
:101E80005003882311F084E007C08091E30087FDB0
:101E900002C081E001C083E08093AA058091AA0579
:101EA0008091E10083FF27C08091E20083FF23C07F
:101EB0008091E100877F8093E10082E08093AA0512
:101EC000109250038091E1008E7F8093E100809119
:101ED000E2008E7F8093E2008091E2008061809337
:101EE000E20042E060E080E00E94440A8091F0005D
:101EF00088608093F000FF91EF91BF91AF919F9127
:101F00008F917F916F915F914F913F912F910F90A2
:101F10000FBE0F901F9018952091E4003091E500BE
:101F200095E64091EC00842F817040FF23C08091A2
:101F3000E80080FD1DC08091AA05882399F08530B6
:101F400099F08091EB0085FD11C04091E400509123
:101F5000E5002417350729F3915011F09A01E1CFDC
:101F600084E0089582E0089583E0089581E0089573
:101F700080E008954091E80042FFDDCF0895789415
:101F80001F920F920FB60F9211248F939F93AF93CE
:101F9000BF938091240390912503A0912603B091D3
:101FA00027030196A11DB11D80932403909325035F
:101FB000A0932603B0932703BF91AF919F918F9178
:101FC0000F900FBE0F901F9018959C014FB7F8947B
:101FD0008091240390912503A0912603B0912703BB
:101FE0004FBF821B930B08952FB7F8946091240381
:101FF0007091250380912603909127032FBF0895A8
:102000002FB7F8948091240390912503A091260383
:10201000B09127032FBF089580E008959091280381
:1020200092FF10C041E0282F2471243009F040E0D5
:1020300031E0282F2871283009F030E0431711F0E3
:102040002CE0822793FF10C041E0282F2471243117
:1020500009F040E031E0282F2871283109F030E004
:10206000431711F02CE082273091290330FF10C074
:1020700051E0282F2171213009F050E041E0282F54
:102080002871283009F040E0541711F029E0822728
:1020900031FF10C041E0282F2171213109F040E0CB
:1020A00031E0282F2871283109F030E0431711F072
:1020B00029E0822794FD877E08958238910569F191
:1020C000B0F48133910509F475C048F48932910563
:1020D00009F467C08A32910509F471C00895853307
:1020E000910509F459C089339105B9F00895833EEB
:1020F000910589F138F4803E9105D1F0823E910539
:1021000029F10895863E9105C9F1873E9105D9F1DF
:10211000843E910509F06CC027C02091280320FD62
:1021200057C021FD55C02091290323FD5BC00895B0
:102130008091280380FD48C08091290380FF48C01A
:102140008091280384FD46C083EE51C0809128030E
:1021500082FF3CC0F5CF8091280382FD37C080917B
:10216000290380FD35C0ECCF8091290381FF36C063
:102170008091280384FD2EC087EE39C0809128030A
:1021800083FF2AC0F5CF8091280383FD25C080916D
:10219000290381FD23C0ECCF8091280385FD22C057
:1021A0001FC08091280385FD1BC08091290383FFF8
:1021B00019C00AC08091280386FD16C017C08091FF
:1021C000280386FD13C010C089E311C082EE0FC042
:1021D00080EE0DC080E00BC086EE09C084EE07C023
:1021E00085E305C089E203C08AE201C081E390E093
:1021F00008952091B9039091800357E02917A9F021
:1022000030E0529FF001539FF00D1124EF57FC4F27
:102210007181761306C07081781303C075817413C1
:1022200006C02F5F3F4F2770E9CF80E0089581E01F
:1022300008957E30B0F46630A0F48330A0F494E5C5
:10224000899FF001112486E0789FE00DF11D112493
:10225000E60FF11DEE0FFF1FE255FD4F85919491A2
:10226000089580E001C081E090E008951F93CF932E
:10227000DF930E945D10EC01C11580E5D807E8F5F9
:10228000C11590E4D90708F0A8C0C03ED10530F5CB
:10229000CD3CD10508F094C0C83AD10578F4C53AD0
:1022A000D10508F083C0C130D10509F47CC008F421
:1022B000F2C0C430D10508F0F1C0EDC0C33CD10577
:1022C00008F0E9C0C85AD0E0CC0FDD1FC25DDE4F78
:1022D0000990D881C02DCE019464E1C0C11580E27F
:1022E000D80708F0CBC0C11591E0D90708F06BC042
:1022F000C83ED10508F4D2C0CEC0C03682E5D807AA
:1023000028F5C03492E5D90708F079C0C03282E5DB
:10231000D80708F06CC0C11592E5D90708F481C050
:102320004C2F4695469580E2489FA0011124C3702A
:1023300021E030E0C90102C0880F991FCA95E2F779
:10234000EA01C82BD92BCE019D68A9C0C03A82E50D
:10235000D807B8F48C2F8F71C03892E5D90708F0F0
:102360007BC08695869590E2899F90011124C37069
:1023700081E090E002C0880F991FCA95E2F79A6841
:1023800068C0C03C82E5D80708F46DC0C03E92E545
:10239000D90708F080C0CF71DD27DC2FCC27CE0114
:1023A000806F906A7CC081E090E079C0C55AD0E02F
:1023B000C55DDE4F8881C82FD0E0CE0190646FC02C
:1023C000CE0190656CC08D2F0E940E10182FCE018B
:1023D00099270E945D101F715CC0CE0199270E9451
:1023E0005D10CC27DF70D06A8C2B9D2B58C0CF712D
:1023F000D0E0DC2FCC27CE01816F906A50C08C2FAB
:102400008F718695869590E2899F90011124C37003
:1024100081E090E002C0880F991FCA95E2F79C689E
:1024200018C08C2F8F710E940E1095E0D695C7951D
:102430009A95E1F7CF70D0E0DC2FCC27282F30E041
:1024400084FF05C084E0220F331F8A95E1F7D0692D
:10245000CE01822B932B23C090E0D82FCC27CE0126
:10246000846F906A1CC08C2F8F710E940E108F7128
:1024700090E0D82FCC27CE01906211C08D2F8F71A4
:102480000E940E10182FCE0199270E945D101F7117
:102490009062912B04C080E090E001C0CE01DF91FA
:1024A000CF911F910895A8E0B0E0E9E5F2E10C9426
:1024B000C52C66EE7EEF80E090E00E94472D60E044
:1024C00082E090E00E94292D60E083E090E00E948D
:1024D000292D1092DD0360E074E184E090E00E9419
:1024E000472D60E086E090E00E94292D6FEF87E0A5
:1024F00090E00E94292D40E050E0BA0188E090E091
:102500000E943B2D60E084E290E00E94292D60E073
:1025100087E190E00E94292D60E08CE090E00E942D
:10252000292D60E08DE090E00E94292D19821A8209
:102530001B821C821D821E821F82188648E050E08A
:1025400068E170E0CE0101960E94192D40E050E054
:10255000BA0180E290E00E943B2D1092EC031092B1
:10256000ED031092EE031092EF0384E08093EC03EE
:102570004091EC035091ED036091EE037091EF03F5
:102580008FE090E00E943B2D40E050E0BA0183E1F3
:1025900090E00E943B2D2896E2E00C94E12C80957F
:1025A00090912B03892380932B03089590912B0303
:1025B0008091DC03982B909359038091DB0388234F
:1025C000D9F0892B8093590380910601882331F03B
:1025D0008091280387FF02C08EE101C086E0EBE511
:1025E000F3E090E0815028F021912223D9F39F5FFE
:1025F000F9CF91111092DB0340E250E06BEB73E0F6
:1026000089E593E00E942430892B21F180E2E9E5FD
:10261000F3E0ABEBB3E001900D928A95E1F7E09126
:102620004F05F09150053097A9F08091060188235D
:1026300059F08091280387FF07C080915903809348
:102640005A0386E0809359030280F381E02D89E5E7
:1026500093E0099508959091BA038095892380931A
:10266000BA03282F277069F4981759F0909129031D
:1026700092FF07C08695869586950E942125109227
:10268000BA0308959091290392FB222720F9281775
:1026900079F080FB92F9909329036091280370915F
:1026A000290384E090E00E94472D82E00E942B13D2
:1026B00008958091B90390918003891719F08F5F75
:1026C0008770FBCF0895CF93DF9380917F0382952E
:1026D0008F7009F04EC080917E03882309F449C0B1
:1026E0008091B9034091800350917A0360917903FE
:1026F000C0917B03D0917C0377E08417D1F190E007
:10270000789FF001799FF00D1124DF01AF57BC4F86
:1027100014962C911497222349F111962C9111971C
:10272000251324C02C91261321C015962C911597A2
:1027300021111CC012962D913C9113972C1B3D0B1F
:10274000283C310598F480917F038F7080618093DD
:102750007F03E957FC4F80818F708061808389E718
:1027600093E00E9440160E94591303C0019687709F
:10277000C4CFDF91CF910895A4E1B0E0E2ECF3E1A2
:102780000C94BB2C8C0186E0F801DE011F960190B1
:102790000D928A95E1F7F8018481E58099E7892E09
:1027A00093E0992E90917D03911120C0882309F424
:1027B00063C1EE2009F442C0C8010E943D25F82EF5
:1027C0008823E1F187E0F801D40101900D928A9508
:1027D000E1F780917D03813031F48091790390910C
:1027E0007A030E9483240E94631348C1F801D080B9
:1027F000C180A280B380F0907E0320917B03309152
:102800007C03FF2009F4E7C0A501421B530B483CA1
:10281000510508F09DC0882309F430C180917F03E1
:10282000282F207F90917A03222361F09C1509F4D0
:1028300060C0C8010E943D25811163C0C8010E948B
:1028400040161AC19C1113C0909179039D110FC0BD
:10285000E1100DC08F70806180937F0389E793E062
:102860000E94401680917F03F801868303C1E11026
:102870003AC040E06C2D8D2D0E94F91040E06C2D87
:102880008D2D0E94F910E82E8111F4C0DF86C88AD0
:102890008F8598890E948324292F22952F702430B8
:1028A00020F49F70223028F009C02A50223080F096
:1028B00014C0992349F0811107C013C0992321F056
:1028C000F8019681907F69F0805E883030F409C00D
:1028D000803F38F0815F833020F0C8010E944016AD
:1028E000EF2CFE2CCBC080917F03816080937F030F
:1028F000C1C0909179039D119CCFE1109ACFF8014E
:1029000098C0EE2009F49ACF20917F03822F829500
:102910008F7090E002978CF08091790390917A0308
:1029200099878887BB86AA8680917D038C871D86C0
:102930002E87CE0108960E94401687E0F801A9E78D
:10294000B3E001900D928A95E1F70E94631394C061
:1029500090917F03292F207F51F489E793E00E9413
:10296000401687E0F40111928A95E9F783C0882325
:1029700009F484C080917A038C110CC08091790392
:102980008D1108C0E11006C0F8019683C8010E94AD
:1029900040166AC0C8010E943D25882309F44ECF25
:1029A000EE2009F44BCF20917F03822F82958F7008
:1029B00090E0029714F28091790390917A039A83C0
:1029C0008983BC82AB8280917D038D831E822F839D
:1029D000CE010196B0CFA21AB30AF8ECAF16B1043B
:1029E00008F042C0882309F447C0FE2CEE2009F409
:1029F00025CF80917A038C1129C0809179038D11A4
:102A000025C090917F0390FD18C0892F82958F700B
:102A1000282F30E02115310581F0F80196832F3001
:102A2000310541F08F5F982F9295907F86818F704E
:102A3000892B8683C8010E94401687E0F801A9E728
:102A4000B3E001900D928A95E1F718C0C8010E9489
:102A50003D25811172CF80917F03816080937F0338
:102A6000C8010E9440160AC087E0F40111928A95BD
:102A7000E9F704C0F12C02C0FF24F3948F2D649673
:102A8000ECE00C94D72CA0E0B0E0E9E4F5E10C9484
:102A9000BF2C8091110190911201892BA1F080919E
:102AA000E0038F5F8093E00381110DC00E94C62276
:102AB00090E09093120180931101892B21F40E94E0
:102AC0003D230E94D31D06E515E07801D0E0C0E06B
:102AD00087E0C82ECC0E8C2F0E94AD238C2D0E9437
:102AE000AD238C2F0E9410248F73F70190818917DA
:102AF00021F08083DD24D39401C0D12C8C2D0E9441
:102B000010248F73F7019781891719F0878381E06B
:102B100001C080E0D82ADD290E940124CF5FFFEFA9
:102B2000EF1AFF0AC730A1F61092E503C091E40343
:102B3000CC2309F47DC00E9400102091E203309163
:102B4000E303AC01421B530B9A019093E303809380
:102B5000E2034F3F510509F018F4452B19F102C06B
:102B60002FEF30E01092E4031092E103E09154055E
:102B7000F0915505AF01425F5F4F90E030E08081FA
:102B8000882341F0281718F010829C2F03C0821B65
:102B900080833C2F3196E417F50789F73093E403DF
:102BA0009093E103DD23B1F11092E103E09154052C
:102BB000F09155058091E5039091E403A4E6B5E01A
:102BC000AF01425F5F4F6EE1E80128813C9132170F
:102BD00079F0308131110CC060832C939881922759
:102BE000282F30E0292B81E0232B09F480E091E0AD
:102BF000319611960F5F1F4FE417F50729F7809361
:102C0000E5039093E4038091E503CDB7DEB7E8E0F8
:102C10000C94DB2C81E09091E1039923A1F38111C5
:102C2000C3CF0E9400109093E3038093E203BCCFD4
:102C3000D111F7CF80E0EFCFA6E0B0E0E2E2F6E11D
:102C40000C94C32C0E9400108C018091DE039091A3
:102C5000DF030817190781F019821A820E940010F9
:102C6000682F49815A81792F80E090E00E945F218E
:102C70001093DF030093DE032696E4E00C94DF2C30
:102C8000A0E0B0E0E6E4F6E10C94BE2CFC01848107
:102C9000882309F4C1C38F0121E040815181628101
:102CA000738195810E943A21EC01F8018581C1155B
:102CB000FEE7DF0759F0C1302EE7D20709F440C024
:102CC000C03298E7D90709F075C05CC0882309F4C1
:102CD0007DC09091EC0381E0890F8770987F8530EB
:102CE00020F4892B8093EC0302C09093EC03809135
:102CF000EC038770EFEF8E9FC001112495958795A7
:102D00009595879599279093890080938800909353
:102D10008B0080938A0090938D0080938C0040916B
:102D2000EC035091ED036091EE037091EF038FE09F
:102D300090E00E943B2D8091EB030E941E2242C036
:102D4000882309F443C08091EC0383FB222720F9F8
:102D500091E0922790FB83F98093EC03992329F06B
:102D600040E060E080E00E9472044091EC035091EA
:102D7000ED036091EE037091EF038FE090E00E940D
:102D80003B2D20C0882309F438C39091B105809170
:102D9000AB059F3F59F41092B10581608093AB055C
:102DA00040E060E080E00E94720427C39FEF9093B0
:102DB000B10524C0C230FEE7DF0721F4882309F4FF
:102DC0001CC354C0F801858181115AC080912B0326
:102DD0008272FE01E052F847E531F10508F0C2C009
:102DE000E05AFF4F0C94FD2E9091AC0581E08927AD
:102DF0008093AC05109218018091AB05816080939F
:102E0000AB05FBC24DE55CE167E67CE12CC047E623
:102E10005CE16DE57CE127C049E45CE163E57CE1D0
:102E200022C043E55CE169E47CE11DC04FE25CE166
:102E30006CE37CE118C04CE35CE16FE27CE113C021
:102E400045E15CE162E27CE10EC042E25CE165E109
:102E50007CE109C041E15AE16FE17AE104C04FE150
:102E60005AE161E17AE10E94601DC7C281E005C0BC
:102E700085E003C08DE001C082E10E94C329BDC28C
:102E8000C3302CE7D20709F459C048F4C1159CE7B8
:102E9000D907A9F0C130DC4709F456C063C0CB356F
:102EA000FCE7DF0709F45BC0CC352CE7D20709F457
:102EB0004EC0CA35DC4709F055C081E051C01092C0
:102EC0002B030E9460259FEFE4E3FCE09150E0407B
:102ED000F040E1F700C00000F89481E08093E0004A
:102EE00080E28093D8001092C9008FE19EE40197A0
:102EF000F1F700C000001DBA109268001CBC10BEA3
:102F00001FBA10927A0010926E0010926F00109209
:102F10007100109272001092C9001092BC0014B897
:102F200017B81AB81DB810BA1092BC0015B818B866
:102F30001BB81EB811BA0C94003F5FC26FEF7FEF51
:102F400080E090E00E94472D0E94062256C28091A8
:102F5000290382FB882780F991E0892701C080E05E
:102F60000E944213F8018581C081D181882349F0F4
:102F7000CE010E945424F82E682FCE010E94C42452
:102F800004C0CE010E949024F82EBE018F2D0E9415
:102F900019110E943611F82EC92FC82EF801D581BB
:102FA000E680E2949FE0E9228091BA03877001F104
:102FB000DD23F1F08C2F807F803469F080E28F0D6B
:102FC0008830B0F08C2F807E803229F4F1E0FF153C
:102FD00078F4EE2069F08091290382FF09C082E035
:102FE0000E942B138091BA038770DD24D394811142
:102FF000D12CBC2EB2948FE0B8228B2D90E08C3077
:10300000910508F0D2C1FC01EB58FF4F0C94FD2E46
:103010008C2F807FCF70882311F0C295C07FDD2375
:10302000B9F0CC2309F4AFC180E28F0D883010F0E5
:10303000C11006C090912B03C92BC0932B0305C070
:103040009091DC03C92BC093DC030E94D6129BC174
:103050008F2D0E948F25CC2309F4A7C180E28F0D0C
:10306000883088F1CC2079F1C0959091DC03C92398
:10307000C093DC032BC08C2F807FCF70803211F087
:10308000C295C07F8F2DCC2029F021E0C21609F413
:103090004CC055C08091290382FD1BC0DD2369F01F
:1030A000CC2339F090912B03C92BC0932B030E94A2
:1030B000D61280E00E94E82578C180E00E948F252A
:1030C000CC2309F472C18C2F0E94CF120E94D61219
:1030D0006CC1DD2381F0EE20B1F181E0E81265C121
:1030E0009091DB038C2F8923C81709F45EC1C92B8B
:1030F000C093DB035AC1E11058C18C2F0E947E257A
:103100008091DB039C2F982329F09C2F9095892395
:103110008093DB038091E6039C2F982309F445C13B
:10312000C0958C238093E60340C1DD2329F091E014
:103130009E1508F43AC107C0E11037C115C0DD2360
:1031400031F0E11020C18C2F0E9485252EC1EE2088
:1031500059F0893309F026C1EFEFF7EE23E0E15093
:10316000F0402040E1F71CC18C2F0E947E251DC13C
:103170008C2F86958695837019F0813061F015C18A
:10318000DD2321F08F2D9C2F937002C080E090E012
:103190000E941D1D10C1DD2321F08F2D9C2F9370E7
:1031A00002C080E090E00E94F81C05C18C2F837063
:1031B000A9F5D111FEC04F2D429546954770440F99
:1031C000440F8F2D8F7090E09C01042E01C0220FC0
:1031D0000A94EAF7F4FE08C08FE090E001C0880F7F
:1031E0004A95EAF7809501C080E0C695C695C37000
:1031F000C23069F088F49091DD03C13019F0822B60
:10320000892302C0922B892B0E943A25D2C0822B9F
:103210009091DD038927F8CF822BF6CFDD2319F0BB
:103220008C2F817001C08695882309F4C2C04F2D70
:10323000429546954770440F440F8F2D8F7090E054
:103240009C01042E01C0220F0A94EAF7F4FE08C084
:103250008FE090E001C0880F4A95EAF7809501C0A1
:1032600080E0C695C695C370C23059F078F490914D
:10327000EB03C13019F0822B892309C0922B892BD3
:1032800006C0822B9091EB03892701C0822B0E94FC
:10329000F9248FC0CF70DD2339F08C2F0E942E25AA
:1032A0008F2D0E94852585C08F2D0E947E258C2F15
:1032B0000E9421257EC08F2D92EFC91669F19C15C1
:1032C00038F0E0EFCE1659F0F1EFCF1601F157C00C
:1032D00023EFC21641F194EFC916A9F050C0DD23C7
:1032E00069F0E11062C0CF7181E090E001C0880F09
:1032F000CA95EAF79091EB0389271FC0E1E0EE152C
:1033000008F453C0F0CF8091290382FD19C0DD235A
:1033100029F08C2F8F7126C0DD23D9F38C2F8F716C
:103320000E94212542C0DD2339F0CF7181E001C028
:10333000880FCA95EAF701C080E00E94F92435C0E1
:10334000DD2399F0CF718C2F0E942E2580912903C7
:1033500082FF07C0F8E0CF9FC001112483608093F3
:10336000BA038C2F0E942E2520C081E00E942B13CF
:1033700021E02E15D0F482E00E942B1316C0DD232D
:1033800021F0EE2031F28F2D95CEEE2039F28933E7
:1033900049F48FEF97EEE3E081509040E040E1F791
:1033A00000C000008F2D0E948F2588EF8B0D843088
:1033B00010F40E94421DDD20A9F08091BA0380FD27
:1033C00011C0F80115828695869586950E942E2556
:1033D000C8010E9440168091BA038695869586950D
:1033E0000E94212520E0F801408151816281738192
:1033F000848195810E943A210FC08091BA03877021
:1034000059F0F8018581882339F08091290382FFE2
:1034100003C082E00E942B13CDB7DEB7E9E00C9425
:10342000DA2CECEAF5E0248130E1231B08F420E0FB
:1034300024838091AB0581608093AB050895ECEA0D
:10344000F5E0248130E1230F08F42FEF24838091ED
:10345000AB0581608093AB050895A4E0B0E0E3E3A1
:10346000FAE10C94C22C8033910508F04FC0122F62
:10347000042FF62EBC01660F771F660F771F6A5563
:103480007B4F44E050E0CE0101960E94EC2C8981F4
:1034900083704A8150E044525109282F30E060E99E
:1034A000869FC0011124895F9B4FFC01E40FF51F2B
:1034B000E0817B816C81EF110EC0FC01E70FF11DF3
:1034C000B497E081E01307C0860F911DFC01B4970B
:1034D00080818117D9F0E0E9E29FC001E39F900D60
:1034E0001124895F9B4FFC01E40FF51FF082FC0162
:1034F000E70FF11DB4970083860F911DFC01B4976F
:103500001083F901EB5FFB4F81E080832496E5E0B7
:103510000C94DE2CFF920F931F93CF93DF93182F01
:10352000062FF42EC0E0D0E02F2D402F612FCE01CA
:103530000E942D1A2196C033D105B1F7CDB7DEB761
:10354000E5E00C94DE2CE1EFF3E06083418323E0BF
:1035500030E042E050E0BF01880F0E947C2C0895CB
:10356000A0E0B0E0E6EBFAE10C94C02C262F30E0AE
:10357000A901455B5A4F7A01FA019081911107C068
:10358000F7011082CDB7DEB7E7E00C94DC2CD82E23
:10359000F2E16F9FE001112400E010E0F801EC0F70
:1035A000FD1FE95DFA4F4081602F8D2D0E94A31A07
:1035B0000F5F1F4F0231110589F7E2CFCF93DF93E1
:1035C000C82F4BE06DEF0E94A31A40E06AE08C2FF9
:1035D0000E94A31A8FE39CE90197F1F700C0000055
:1035E00040E060E08C2F0E94A31A40E061E08C2F45
:1035F0000E94A31A40E066E08C2F0E94A31A40E0CC
:103600006DEF8C2F0E94A31AD0E040E06D2F8C2F1D
:103610000E94A31ADF5FD231C1F740E06D2F8C2FDB
:103620000E94A31ADF5FD432C1F740E06D2F8C2FC8
:103630000E94A31ADF5FD43BC1F74BE06DEF8C2FE4
:103640000E94A31A41E06AE08C2F0E94A31A40E076
:103650006DEF8C2F0E94A31ADF91CF9108950F93E5
:103660001F93CF93DF93082F000FEB0114E2109309
:10367000F10380E1FE01A2EFB3E001900D928A9583
:10368000E1F723E030E041E150E061EF73E0802FAB
:103690000E947C2C105F6096143B49F7DF91CF911C
:1036A0001F910F91089580910504882329F067E008
:1036B00074E084E70E942F1B109205048091060499
:1036C000882329F067E974E087E70E942F1B109296
:1036D00006040895A4E0B0E0E0E7FBE10C94B92C07
:1036E0000E94B02B84E70E94DE1A87E70E94DE1A50
:1036F00006EA14E072E1772EE8E0CE2ED12CEE241B
:10370000E394F12C6624639444E050E0B801CE01C8
:1037100001960E94EC2C2A8130E0C9018497AB808D
:10372000B12C44E2A41AB108EC81F0E0B497AC01EA
:1037300097FF02C0495F5F4F63E0559547956A95D3
:10374000E1F72981237030E0729EB001739E700D05
:103750001124695D7A4F4B01840E911CB6010E94C1
:10376000E92ED70102C0AA0FBB1F8A95E2F7CD014F
:10377000D4019C91892B8C93C501B7FC079653E02B
:10378000959587955A95E1F7729EA001739E500D0D
:103790001124495D5A4F4A01880E911CC501B6019A
:1037A0000E94E92EA70102C0440F551F8A95E2F737
:1037B000CA01D4019C91892B8C93CF01F7FD079608
:1037C00043E0959587954A95E1F7729EA001739E17
:1037D000500D1124495D5A4F5A01A80EB11CCF015A
:1037E000B6010E94E92EF70102C0EE0FFF1F8A9575
:1037F000E2F7CF01D5019C91892B8C93F901E55B10
:10380000FA4F60820C5F1F4FB5E006361B0709F0C8
:103810007BCF60E084E70E94B01A61E087E70E94F6
:10382000B01A2496EEE00C94D52CECEAF5E0438136
:1038300021E1421B08F440E08181628190E00E9416
:10384000A02B0895ECEAF5E0438121E1420F08F452
:103850004FEF8181628190E00E94A02B0895ECEAF5
:10386000F5E0628120E1621B08F460E08181438120
:1038700090E00E94A02B0895ECEAF5E0628120E13F
:10388000620F08F46FEF8181438190E00E94A02BCA
:103890000895ECEAF5E0818190E043816281089728
:1038A0000E94A02B0895ECEAF5E0818190E043812D
:1038B000628108960E94A02B08958091AC058695A0
:1038C0008695815009F48EE10E94C3290895809164
:1038D000AC05869586958F5F8F3108F081E00E9458
:1038E000C32908951F920F920FB60F9211248F9340
:1038F0009F93AF93BF9380915305811113C0809123
:10390000240390912503A0912603B09127034196AB
:10391000A11DB11D8093240390932503A09326033A
:10392000B0932703BF91AF919F918F910F900FBEDE
:103930000F901F901895209106012223C9F0209125
:10394000280327FF15C0262F2695269526952E316C
:10395000C8F4FC01E20FF11D677081E090E001C046
:10396000880F6A95EAF7809592818923828308956A
:10397000FC0106962281621301C012823196E8177B
:10398000F907C1F70895209106012223C1F0209183
:10399000280327FF14C0262F2695269526952E311D
:1039A00030F5FC01E20FF11D677081E090E001C08D
:1039B000880F6A95EAF79281892B82830895FC012A
:1039C00032962FEF30E04191641789F02F3F19F4C0
:1039D000411101C0232F3F5F3630A9F72F3F39F047
:1039E000FC01E20FF11D27FDFA9562830895089509
:1039F000A3E0B0E0EEEFFCE10C94C52C2091510562
:103A00003091520528173907A1F090935205809301
:103A10005105E0914F05F0915005309751F024E0A9
:103A200029839B838A830680F781E02DCE0101964E
:103A300009952396E2E00C94E12CA3E0B0E0E3E2E8
:103A4000FDE10C94C52C20914D0530914E052817B1
:103A50003907A1F090934E0580934D05E0914F05F5
:103A6000F0915005309751F023E029839B838A839E
:103A70000680F781E02DCE01019609952396E2E0BC
:103A80000C94E12CE0914F05F0915005309729F00E
:103A90000190F081E02D0995089580E00895A0E25D
:103AA000B0E0E5E5FDE10C94C52C9FEF99838A8396
:103AB000CE0101960E94062AA096E2E00C94E12C29
:103AC000882311F0FA0101C0FB01099508951F93A5
:103AD000CF93DF93FC01E45DFD4F20816223B9F0B9
:103AE000EC010E94C028182F0E94C02820E8829F65
:103AF000C00111247FE7790F612F8091AF050E94EB
:103B00003929462F282F672FCE010E947504DF9197
:103B1000CF911F910895A0E0B0E0E1E9FDE10C94A0
:103B2000C02CEC01FC01E45DFD4F9081692349F15B
:103B3000D090AE050091AF051091AD05E12EF12CAE
:103B40000E94C028282FC7018C549F4F68E671E05F
:103B50000E94E92E8E199F0997FD039695958795EA
:103B6000959587952370612F289F600D11247D2DD9
:103B7000802F0E943929462F282F672FCE010E94BF
:103B80007504CDB7DEB7E7E00C94DC2C8091AC0572
:103B9000837011F4109218018091AC058C7F8160C4
:103BA0008093AC0508950E946A1B80E090E00E941B
:103BB000132D863E9E4F21F00E9453120E940A0A46
:103BC00081E08093AB0548E050E068E170E08CEA6A
:103BD00095E00E94F52C1092AB058091AC058C7F8E
:103BE00011F40E940A0A08950F931F93CF930E9425
:103BF000F40F6093E7037093E8038093E9039093D5
:103C0000EA032091F003211108C0C091AC052C2FCC
:103C1000237019F0C695C69501C0C0E02091180127
:103C20002130A1F038F0223009F466C0233009F4C5
:103C300070C09AC0109215016093A4057093A505F9
:103C40008093A6059093A70581E060C08C2F0E9409
:103C50007804CC2309F488C0809115018A3009F0DA
:103C600083C08091EC0383FD7FC08091EB0390E0E3
:103C7000A0E0B0E0AC01BD01F4E076956795579502
:103C80004795FA95D1F7411551056105710521F464
:103C9000AC01BD0180E001C084E08A019B01E2E04B
:103CA0003695279517950795EA95D1F701151105D2
:103CB0002105310519F08E5FB901A8017695679548
:103CC00057954795452B462B472B09F08F5F813041
:103CD00029F0823041F482E090E002C081E090E07F
:103CE0000E94482241C08091B10581113DC040E051
:103CF00060E00E94720438C0C09308018091AC0556
:103D00008370809307010E94531B83E08093180106
:103D10002BC08091AB05882351F048E050E068E16A
:103D200070E08CEA95E00E94192D1092AB0540914D
:103D3000A4055091A5056091A6057091A7052FB720
:103D4000F8948091240390912503A0912603B091CB
:103D500027032FBF841B950BA60BB70B4A97A10512
:103D6000B10510F010921801CF911F910F91089595
:103D7000A6E4B0E0EEEBFEE10C94B92C85B78068C8
:103D800085BF85B7806885BF84B7877F84BF0FB63E
:103D9000F894A895809160008861809360001092EB
:103DA00060000FBE90E080E80FB6F8948093610049
:103DB000909361000FBE8CE090E190935D02809340
:103DC0005C020E943B0E0E945A0E8091E2008460C9
:103DD0008093E20078948091AA058823A1F0109145
:103DE000E9001F709091EC00892F817090FD80E8B0
:103DF000182B1092E9008091E80083FD0E942A0BA5
:103E00001F701093E90082E084BD93E095BD9AEFA6
:103E100097BD80936E000E94C62290E0909312019D
:103E2000809311010E9401240E944724E6E5F5E0F9
:103E3000A4E6B5E011921D9225E0E436F207D1F731
:103E40008EE090E00E94032F8093540590935505D7
:103E5000FC010E961192E817F907E1F789EA8093C1
:103E6000800089E08093810024982C983F988AB143
:103E70008F7C8AB96E98479A8BB180638BB9769A9A
:103E80008FE090E00E940D2D6093EC037093ED03A2
:103E90008093EE039093EF0367708FEF689FB001FC
:103EA00011247595679575956795772770938900A7
:103EB0006093880070938B0060938A0070938D00EC
:103EC00060938C000E943D2380E090E00E94132DBF
:103ED000863E9E4F11F00E94531282E090E00E94B5
:103EE000052D8093720584E090E00E94132D90933D
:103EF00029038093280383E090E00E94052D0E940F
:103F00003A258091EB030E941E220E94D31D0E943D
:103F1000C61D0E94C61D8091AB0581608093AB05D4
:103F200089E091E09093500580934F0558E1E52E8C
:103F3000F12C8091AA05853009F074C020E4C22ECE
:103F400002E715E0BB24B39433E0A32E40E1D42E66
:103F50008091AA05853009F05DC08091AA05843062
:103F600009F436C00E94F41D8091F00381110DC048
:103F70000E947804109208018091AC0583708093B0
:103F800007010E94531BA0921801B092F0031092F7
:103F900053050FB6F894A895E09260000FBEC0924A
:103FA000600083B7817F846083BF83B7816083BFF4
:103FB0007894889583B78E7F83BF0FB6F894A895C1
:103FC00080916000886180936000109260000FBE55
:103FD00080914F03882309F4BBCF0E94C62290E052
:103FE00090931201809311010E9401240E944724A2
:103FF000E4E6F5E011920E171F07E1F70E94431562
:10400000E4E6F5E08191811108C125E0E237F2078D
:10401000C9F79ECF10922B030E9460250E94421D7B
:104020001092F0030E94431593E7C92E95E0D92E14
:10403000A4E6B5E0F60191918D91892795E0E138EC
:10404000F90719F08823B9F305C0811103C00E9454
:104050001C164BC084E6882E85E0982E10E0F401F3
:1040600071904F01F601A080A724B1F100E0BB24BC
:10407000B394662463948A2D8B2141F122960FAF6D
:10408000229723961FAF23970E94001025969FAF7B
:104090008EAF259726966FAE269791E08B2D8721C0
:1040A00009F490E027969FAF279722964FAD22976D
:1040B00023965FAD239724966FAD249725967FAD09
:1040C000259726968FAD26970E945F210F5FBB0C28
:1040D000063089F6F60170821F5FFFEFCF1ADF0A04
:1040E0001E3009F0BCCF0E94F40F0E94F41D0E9404
:1040F000421D90918105891721F0809381050E94CE
:10410000F40F8091AA05843009F013CF83E08093E7
:10411000E9008091E80082FF0CCF8091E80085FFE4
:1041200022C00E948C0F81111CC000E210E06E01C1
:1041300021E2C20ED11C08C08091F100F6018193EA
:104140006F010150110969F08091E80085FDF4CFFD
:104150008091E8008B778093E8000E948C0F882381
:1041600099F391E001C090E08091E8008B77809313
:10417000E800992309F4DDCE89A1853009F447C010
:1041800048F4813001F190F0823009F4D2CE8430CD
:1041900029F13FC08730C9F1D0F18830C1F18E3F9D
:1041A000C1F5898393E09A838B8313C019828CE0D5
:1041B000E4E6F1E0DE01129601900D928A95E1F7B6
:1041C0008EEF8D8706C08093A80584E089838EEFEB
:1041D0008A83CE0101960E94062AABCE8091A80563
:1041E000882309F4A6CE8AA1811104C08BA10E9464
:1041F00021259FCE81E090E00BA002C0880F991F7F
:104200000A94E2F70E94F92494CE85E003C084E08A
:1042100001C08FEF0E944F1D8CCED9BC82E189BDB9
:1042200009B400FEFDCF8091D8008F7D8093D80027
:104230008091E00082608093E0008091E00081FD49
:10424000FCCF10922B030E94602582CE982F92956E
:104250009F7019F0892F24E001C020E0982F9695D7
:10426000969511F02E5F892F982F969509F02F5F64
:10427000822F0895A6E0B0E0E0E4F1E20C94C42CB3
:1042800049835A8349815A81992361F0222351F04D
:10429000CA010E945424182F682F89819A810E9494
:1042A000C42404C0CA010E949024182F69817A8115
:1042B000812F0E9419112696E3E00C94E02CA4E3D0
:1042C000B0E0E5E6F1E20C94C12C4FA758AB69AB26
:1042D0007AAB8BAB9CAB192F91111092DC03DE01F2
:1042E000989687E0FD0111928A95E9F786E0FE0134
:1042F000BF9601900D928A95E1F7EFA4F8A80BA95B
:104300000023C9F021E0A7016AA57BA5C8010E948E
:104310003A218091A805882371F0111102C087E02D
:1043200001C086E08983EA82FB828EEF8C83CE0116
:1043300001960E94062AE8A6F9A60CA71DA787E009
:10434000FE01B896DE01919601900D928A95E1F7F3
:10435000CE0181960E94BC1381112CC087E0FE0122
:10436000B196DE01119601900D928A95E1F76DA14B
:10437000662301F12091800330E0C9010196877026
:1043800099274091B90350E08417950761F16D8337
:1043900097E0929FD001939FB00D1124AF57BC4F6F
:1043A000FE01319601900D929A95E1F7809380037A
:1043B0000E94591317E08091B903909180038917E7
:1043C00009F1189FC00111248F579C4F0E94BC1304
:1043D0008823C1F08091B90390E0019687709927F6
:1043E0008093B903E8CF10922B030E9460251092AE
:1043F00080031092B903E9E7F3E087E0DF011D9243
:104400008A95E9F7E496E6E00C94DD2C10922B03F4
:104410000E9460252FEF84E39CE021508040904073
:10442000E1F700C000009AE088E10FB6F894A89583
:10443000809360000FBE90936000FFCFCF93C82F92
:104440000E94262156985E9825982D9826982E9899
:1044500027982F9890E0FC013197E730F105A8F4F8
:10446000EF57FF4F0C94FD2E259A2D9A0EC0259ADA
:104470002D9A269A2E9A09C0259A2D9A04C0259A1B
:104480002D9A269A2E9A279A2F9A8C2FCF9108959B
:10449000A0E0B0E0EEE4F2E20C94B62C20E9289F14
:1044A0007001299FF00C1124C0E0D0E000E010E082
:1044B00067018FEFC81AD80A570182E0A80EB11C15
:1044C000F701EC0FFD1FEA59FA4F6491F601EC0F6A
:1044D000FD1FEA59FA4F7491F501EC0FFD1FEA59DF
:1044E000FA4F8491611107C0711105C0811103C099
:1044F00020E040E03CC00E943929962E372E882EBD
:104500006091AF0570E080E090E00E94EE2D20E029
:1045100030E04FE753E40E944D2D2B013C01682D04
:1045200070E080E090E00E94F02DA30192010E94D3
:104530007C2E0E94BF2D862E692D70E080E090E0D9
:104540000E94F02DA30192010E947C2E0E94BF2D9B
:10455000962E632D70E080E090E00E94F02DA30184
:1045600092010E947C2E0E94BF2D282D492DC8014A
:104570000E9475040F5F1F4F2396C039D10509F0C3
:104580009FCFCDB7DEB7E1E10C94D22C80E290E072
:1045900090931201809311018091820581110EC0C8
:1045A0000E94B02B81E0809382052FEF83ED90E392
:1045B000215080409040E1F700C0000060E570E0CD
:1045C00080E40E94B62B9093120180931101892BF5
:1045D00009F04EC060E570E080E00E94292C9093C5
:1045E000120180931101892B09F042C060E570E04F
:1045F00080E00E94292C9093120180931101892B55
:10460000B9F560E570E08FE30E94292C90931201C8
:1046100080931101892B61F50E949D2C60E570E06B
:1046200080E40E94B62B9093120180931101892B94
:10463000F9F460E570E08CE00E94292C909312015F
:1046400080931101892BA1F460E570E080E00E9465
:10465000292C9093120180931101892B49F460E574
:1046600070E08FE30E94292C909312018093110136
:104670000E949D2C809111010895CF93DF9356984D
:104680005E9825982D9826982E9827982F98C8E8F8
:10469000D0E08FEF90E099838883AAE8B0E011968C
:1046A0009C938E93ECE8F0E091838083259A2D9A79
:1046B0002FEF80E792E0215080409040E1F700C06A
:1046C0000000269A2E9A2FEF80E792E0215080403A
:1046D0009040E1F700C00000279A2F9A2FEF80E763
:1046E00092E0215080409040E1F700C00000259802
:1046F0002D982FEF80E792E0215080409040E1F725
:1047000000C0000026982E982FEF80E792E02150FD
:1047100080409040E1F700C0000027982F988091DA
:10472000EC0387702FEF829FC00111249595879528
:104730009595879599279983888311969C938E9355
:104740009183808356985E9825982D9826982E9868
:1047500027982F98DF91CF910895CF93E82F873036
:1047600080F58091110190911201892B09F047C0C9
:10477000CE2F60E570E080E40E94B62B909312018A
:1047800080931101892BD1F460E570E082E10E94F1
:10479000292C9093120180931101892B79F481E0E7
:1047A00090E001C0880FCA95EAF760E570E0809557
:1047B0000E94292C90931201809311010E949D2C3C
:1047C0001EC090E0FC013797E730F105C0F4E857D0
:1047D000FF4F0C94FD2E209A289811C0219A2998F9
:1047E0000EC0229A2A980BC0239A2B9808C0529A7E
:1047F0005A9805C0539A5B9802C03E9A4698CF914A
:104800000895209828982198299822982A982398E2
:104810002B9852985A9853985B983E9846980895CA
:10482000CF93873040F58091110190911201892B2F
:1048300059F560E570E081E40E94B62B9093120177
:1048400080931101892B11F0C0E011C080E590E048
:104850000E94582C97FF05C090931201809311017C
:10486000F3CFC82FC09510921201109211010E942F
:104870009D2C8C2F0AC09FB18FB1807F8695869525
:104880009370892B809501C080E0CF910895809826
:10489000889A8198899A84988C9A85988D9A869816
:1048A0008E9A87988F9A0895CF92DF92FF920F93F6
:1048B0001F93CF93DF936C010091EB038091DD0395
:1048C000082BC7E0D0E010E0C8010C2E02C095957F
:1048D00087950A94E2F780FD04C02197A8F7F12C90
:1048E00009C0FC2EB6018C2F0E9419110E943611AE
:1048F000019799F38F2DDF91CF911F910F91FF9029
:10490000DF90CF900895CF93DF93EC010E94542461
:10491000BE010E9419110E943611DF91CF910895B6
:10492000292F9E3078F5863068F590E036E0239F99
:10493000800D911D1124682F677023E0969587954F
:104940002A95E1F7FC01EE0FFF1FE80FF91FED5765
:10495000FA4F40E050E080E0219130E0062E02C0A6
:10496000369527950A94E2F721703327042E01C06B
:10497000220F0A94EAF7822B4F5F5F4F43305105B5
:1049800059F7089580E00895292F9E3088F58630E4
:1049900078F590E036E0239F800D911D1124282F9B
:1049A000277051E001C0550F2A95EAF723E096954C
:1049B00087952A95E1F7FC01EE0FFF1FE80FF91F1D
:1049C000ED57FA4F20E030E070E04081CB01022E3D
:1049D00002C0969587950A94E2F7817081958427A5
:1049E0008523842781932F5F3F4F2330310569F75B
:1049F0000895A0E2B0E0EFEFF4E20C94C42C0E9422
:104A00001E22182F8091A8058823A9F02FEF80E798
:104A100092E0215080409040E1F700C0000085E026
:104A20008983812F0E9426218A838EEF8B83CE017A
:104A300001960E94062A1093EB03A096E3E00C94E3
:104A4000E02C21E030E001C0220F8A95EAF72095A2
:104A50008091EB0382230E94F924089521E030E045
:104A600001C0220F8A95EAF78091EB03822B0E9406
:104A7000F92408958093DD030895FC012481222305
:104A8000D9F0808191810E94832492959F70963005
:104A900079F010F4925001C09A50923068F4803F3F
:104AA00069F018F4883E40F409C0843F29F406C038
:104AB000883E20F0813F11F080E0089581E0089564
:104AC00080910601882331F08091280387FF02C07E
:104AD0008EE101C086E0EBE5F3E0DF011D928A95EF
:104AE000E9F780E090E00E941D1D80E090E00E94C8
:104AF000F81C1092DC030E94D6120895882321F03E
:104B00000E94CF120E94D6120895882339F0909106
:104B10002B03892B80932B030E94D61208958823A0
:104B200009F455C0682F823869F40E94421D81FF44
:104B30004EC069E389E593E00E94C31C0E94D6122F
:104B400069E30EC0833899F40E94421D80FF3FC084
:104B500063E589E593E00E94C31C0E94D61263E5D9
:104B600089E593E00E949B1C0E94D6120895843828
:104B700069F40E94421D82FF2AC067E489E593E040
:104B80000E94C31C0E94D61267E4EACF8CEF860F06
:104B9000813A30F380E2860F883048F4677081E014
:104BA00001C0880F6A95EAF70E94CF12DDCF8BE52E
:104BB000860F833028F480E090E00E941D1D089548
:104BC000685A6B3120F480E090E00E94F81C089550
:104BD000CF93882309F4B4C0C82F8238B1F40E945F
:104BE000421D81FDADC069E389E593E00E94C31CCD
:104BF0000E94D6122FEF87EE93E021508040904024
:104C0000E1F700C0000069E317C08338E1F40E94B7
:104C1000421D80FD95C063E589E593E00E94C31CB9
:104C20000E94D6122FEF81EE94E0215080409040F8
:104C3000E1F700C0000063E589E593E00E949B1C5A
:104C40000E94D6127DC08438B1F40E94421D82FDBC
:104C500077C067E489E593E00E94C31C0E94D612E6
:104C60002FEF81EE94E0215080409040E1F700C0AA
:104C7000000067E4E1CF8CEF8C0F813AB8F58091AA
:104C800006018823E1F08091280387FF18C0EC2FEC
:104C9000E695E695E695F0E0E75AFC4F8281282FED
:104CA00030E04C2F477081E090E002C0880F991FE0
:104CB0004A95E2F782239323892B59F411C0EBE53F
:104CC000F3E08191C81729F023E0E136F207C9F734
:104CD00007C06C2F89E593E00E949B1C0E94D612AE
:104CE0006C2F89E593E00E94C31CAACF80E28C0F51
:104CF000883068F4C77081E090E001C0880FCA95E1
:104D0000EAF790912B03892B80932B0399CFEBE546
:104D1000EC0FE33040F4F0E0E55DFE4F808190E081
:104D20000E941D1D0DC0C85ACB3150F4EC2FF0E08D
:104D3000EE0FFF1FE25DFE4F808191810E94F81C03
:104D4000CF9108950F931F9310E0F801EE0FFF1F0E
:104D5000E453FE4F9081905797FD9195000F111FDE
:104D6000F801E353FE4FE081F0E0B097DF01AA0FB6
:104D7000BB1F8D010E0F1F1F2003D001219FB00DFF
:104D80001124E8E3F0E0E91BF10997FDF3959F0199
:104D9000220F331F89010E0F1F1F40039001419FF7
:104DA000300D11242A0F3B1F37FF02C021583F4FFF
:104DB000220F232F221F330B620F1F910F91089593
:104DC0000F931F93522F10E0F801EE0FFF1FE353D4
:104DD000FE4FE081F0E0B097EE0FFF1F9F015203FE
:104DE000D001539FB00D1124000F111FF801E4539F
:104DF000FE4F008110E000571109000F111F400302
:104E00009001419F300D11242A0F3B1F37FF02C034
:104E100021583F4F220F232F221F330B620F1F9168
:104E20000F9108950F931F93522F10E0F801EE0F8A
:104E3000FF1FE353FE4FE081F0E0B0979F01520364
:104E4000D001539FB00D1124000F111FF801E4533E
:104E5000FE4F008110E00057110940039001419F6F
:104E6000300D11242A0F3B1F37FF02C021583F4F3E
:104E7000220F232F221F330B620F1F910F910895D2
:104E8000EF920F931F9393E0099F800111241595D2
:104E900007956E2D600F1F910F91EF900895A22F2F
:104EA00050E0FA01EE0FFF1FE353FE4F9081905246
:104EB00097FD9195440F551FFA01E453FE4F308141
:104EC000232F30E02A1B3109290F311D97FD3A9518
:104ED000620F0895E42FF0E0EE0FFF1FE353FE4F43
:104EE0006081621B0895E42FF0E0EE0FFF1FE45392
:104EF000FE4F6081621B0895622F0895E42FF0E059
:104F0000EE0FFF1FE453FE4F408134EE439F412DCF
:104F10001124E82FF0E050E0445E5F4FDA01A21B5D
:104F2000B1099D01B7FF03C031952195310993E087
:104F3000220F331F9A95E1F7AF01421B530B9A01E1
:104F400057FF02C020E030E0582F259F212D11246B
:104F5000822F0895E42FF0E0EE0FFF1FE453FE4F81
:104F6000408134EE439F412D1124E72FF0E050E0C3
:104F7000445E5F4FDA01A21BB1099D01B7FF03C078
:104F800031952195310993E0220F331F9A95E1F76E
:104F9000AF01421B530B9A0157FF02C020E030E0E3
:104FA000279F212D1124722F0895FC019B0100974A
:104FB00021F477FF2BC080E80895AC0197FF04C06F
:104FC00044275527481B590BB901640F751F37FD3E
:104FD0000CC0241B350BC901A5E0880F991FAA95A9
:104FE000E1F70E94E92E80E20CC0CB0165E0880F5A
:104FF000991F6A95E1F7BA01621B730B0E94E92EB3
:1050000080E6861BF7FF03C08195089580E0089530
:10501000EF920F93CF93DF93D72FC82FC9010E19AB
:10502000BA010E94D527602F681B7D2F8C2FDF913E
:10503000CF910F91EF9008950F93CF93DF93D72FD8
:10504000C82FC901BA010E94D527682F600F7D2F94
:105050008C2FDF91CF910F910895EF920F931F93B3
:10506000CF93DF93D62FC72F182FC9010E19010F29
:10507000BA010E94D527081B202F219F212D112422
:10508000822F6D2F7C2FDF91CF911F910F91EF9089
:105090000895EF920F931F93CF93DF93D62F172F7F
:1050A000C82FC9010E19070FBA010E94D527702F0A
:1050B000781B719F712D11246D2F8C2FDF91CF9153
:1050C0001F910F91EF900895FF920F931F93CF932D
:1050D000DF93F62ED72F182FC901C12FC01BBA019D
:1050E0000E94D527982F990F890FC81B2C2F219F1D
:1050F000212D1124822F6F2D7D2FCDB7DEB7E5E056
:105100000C94DE2CFF920F931F93CF93DF93F62E18
:10511000172FD82FC901C72FC01BBA010E94D5274E
:10512000982F990F890F7C2F781B719F712D112457
:105130006F2D8D2FCDB7DEB7E5E00C94DE2C482F18
:10514000982F46FD9095E92FEF739F7046FD9F5F66
:10515000E295EF70EE0FF0E0E059FE4F2181299FBC
:10516000802D212D112482958F702295207F822BF6
:105170003081982F930F892F47FD8195805808958E
:10518000409113015091140125E038E0429FC00185
:10519000439F900D529F900D1124875E994C9093E0
:1051A000140180931301890F0895BC018230910589
:1051B00008F40895613E8EE1780748F49B0195E07C
:1051C000369527959A95E1F748E0420F01C04FEFD9
:1051D00091E0242F30E0290F311D35952795229F2E
:1051E000F001239FF00DF00D11246E177F0718F4C6
:1051F0004FEF420F04C02F3F39F091E0920F491753
:1052000040F78FEF890F08958FEF08950F93CF9395
:10521000DF93D72FC82F47FD4195E8E3F0E0CF019A
:10522000841B910947FD9395889FB001899F700D5C
:10523000700D1124229FC001239F900D900D112409
:10524000860F971F0E94D528682F660F860F682F3C
:10525000600F7D2F8C2FDF91CF910F91089520E06B
:1052600030E0869F212D969F200D311D1124C9010C
:105270000895A0E0B0E0EFE3F9E20C94BF2CF62E25
:10528000472FE82FF0E0711106C0EA5EF84F8491D5
:10529000782F682F73C0272F30E0EA5EF84FE49133
:1052A000FE2F0E2F10E056E0659FC0011124CFEFB6
:1052B000D0E0BE010E94A12C5BEA5603C001579FBB
:1052C000900D11248F0D911D8F0D911D982F990F09
:1052D000980F7E01E21AF30AE09ED001E19EB00D24
:1052E000F09EB00D11248B2F499FA0011124452F52
:1052F00055277E01E41AF50AE09EA001E19E500DBB
:10530000F09E500D11246E01C91AD108C29E700181
:10531000C39EF00CD29EF00C11242F2D3327C21BFC
:10532000D30BC09F9001C19F300DD09F300D112431
:10533000932F6230710591F048F461157105E1F029
:1053400061307105B9F49E2FE52F16C064307105E8
:1053500069F040F06630710579F00CC09E2FEB2F9C
:10536000832F0AC0EB2F8F2F952F06C09B2F8E2FD8
:10537000E32F02C09B2F852F7E2F692FCDB7DEB77D
:10538000E8E00C94DB2C9091AC059370A1F08111B6
:1053900002C0946007C08F3110F0986703C0880F77
:1053A000880F982B9093AC05109218018091AB0553
:1053B00081608093AB050895EF92FF920F931F9346
:1053C000CF93DF937C018B010E948C0F811119C058
:1053D000E70101151105A1F08091E80085FD0AC0E3
:1053E0008091E8008E778093E8000E948C0F8823DC
:1053F00081F307C089918093F10001501109E9CF31
:1054000080E0CDB7DEB7E6E00C94DD2CCF932091A1
:10541000AA05243011F5C091E900CF703091EC005D
:10542000232F217030FD20E8C22B22E02093E900D9
:105430002091E80020FF0EC040E050E060E270E004
:105440000E94DC2981111092A8058091E8008E77D6
:105450008093E800CF70C093E900CF910895A0E059
:10546000B0E0E5E3FAE20C94C02C8C0180911501C8
:10547000C82FCC0FCC0FC80FD5E0DC0FD13308F00C
:10548000D0E36091B0056695669521E0620F08F45F
:105490006FEF8091A4059091A5050E942F29D82E29
:1054A000CD17F0F4EC2EF12CF701E45DFD4F908167
:1054B00080911601892391F06091AD057091AE0540
:1054C0008091AF052D2D4C2FF80109950E943929A7
:1054D000462F282F672FC7010E947504CF5FE0CFAA
:1054E00081E0D03308F080E0CDB7DEB7E7E00C9480
:1054F000DC2CA0E0B0E0EFE7FAE20C94BC2C6C01ED
:1055000080911501C82FCC0FCC0FC80F15E01C0FD0
:10551000113308F010E36091B005669566958091AF
:10552000A4059091A5050E942F29D82F80E48D0F06
:105530000E949F2890E8F92EF80E8D2F0E949F2838
:1055400020E8922E980EC11700F5AC2EB12CF50173
:10555000E45DFD4F9081809116018923A1F0609157
:10556000AD057091AE058091AF05ED2E0C2F292D64
:105570004F2DF60109950E943929462F282F672FB4
:10558000C5010E947504CF5FDECF81E0103308F0C3
:1055900080E0CDB7DEB7EBE00C94D82C6F927F9211
:1055A0008F929F92AF92BF92CF92DF92EF920F9322
:1055B0001F93CF93DF933C0180911501C82FCC0F2F
:1055C000CC0FC80FD5E0DC0FD13308F0D0E36091E9
:1055D000B00566958091A4059091A5050E942F299C
:1055E000182FCD1708F044C08C2E912CF401E45DE7
:1055F000FD4F9081809116018923C1F1F401EE0FD6
:10560000FF1FE453FE4FC080D12C80E7C81AD10899
:10561000F401EE0FFF1FE353FE4FA080B12CE0E238
:10562000AE1AB108CC9C9001CD9C300D300D1124E8
:10563000AA9CC001AB9C900D900D1124820F931F6A
:105640000E94D528082F6091AD057091AE0580911C
:10565000AF05E12E9501A601F30109950E943929B4
:10566000462F282F672FC4010E947504CF5FB9CF42
:1056700081E0D03308F080E0DF91CF911F910F914E
:10568000EF90DF90CF90BF90AF909F908F907F90E2
:105690006F900895A0E0B0E0E0E5FBE20C94BF2C31
:1056A0006C0180911501C82FCC0FCC0FC80FD5E02D
:1056B000DC0FD13308F0D0E36091B005669580919E
:1056C000A4059091A5050E942F29182FCD1778F5D4
:1056D000EC2EF12CF701E45DFD4F908180911601D5
:1056E000892319F1F701EE0FFF1FE353FE4F2081CD
:1056F00030E020523109F701EE0FFF1FE453FE4F57
:10570000408150E0405751096091AD057091AE0560
:105710008091AF05012FF60109950E943929462F86
:10572000282F672FC7010E947504CF5FCFCF81E07C
:10573000D03308F080E0CDB7DEB7E8E00C94DB2C86
:105740009091AC05937059F08093AD056093AE05D0
:105750004093AF058091AB0581608093AB050895C0
:105760001092B9008CE08093B8000895A0E0B0E0FA
:10577000ECEBFBE20C94BC2CB82EEB010E94001069
:105780006C01C431D10558F0CF3F8FEFD80759F0E5
:10579000CE0164E170E00E94A12C7B0107C0EE24E1
:1057A000E394F12C03C025E0E22EF12C84E8A82E2E
:1057B00094EA992E1092BC009092BC000E940010B6
:1057C0008C018091BC0087FD07C0C8010E94E50FD5
:1057D000E816F906B0F729C08091B900887F8830B3
:1057E00041F08091B900887F803119F00FEF1FEFF1
:1057F0001EC0B092BB00A092BC000E9400108C01A1
:105800008091BC0087FD07C0C8010E94E50FE81623
:10581000F906B0F70AC08091B900887F883111F08D
:10582000803421F700E010E00EC00EEF1FEFCF3FF5
:105830008FEFD80709F4BECFC6010E94E50FC81745
:10584000D90708F0B7CFC801CDB7DEB7EBE00C94AD
:10585000D82C0F931F93CF93DF93EB018093BB0062
:1058600084E88093BC000E9400108C018091BC00F1
:1058700087FD0DC0CF3F8FEFD807C1F3C8010E944D
:10588000E50FC817D90790F78EEF9FEF0CC0209156
:10589000B900287F81E090E0283211F480E090E0A8
:1058A000919581959109DF91CF911F910F91089565
:1058B0000F931F93CF93DF93EC0184E88093BC0098
:1058C0000E9400108C018091BC0087FD0DC0CF3F6D
:1058D0008FEFD807C1F3C8010E94E50FC817D90799
:1058E00090F78EEF9FEF03C08091BB0090E0DF91B7
:1058F000CF911F910F910895A0E0B0E0E2E8FCE2A3
:105900000C94BF2C6B018A017901B9010E94B62B5E
:10591000E6010C0D1D1DC017D10741F424E92093A9
:10592000BC00CDB7DEB7E8E00C94DB2C97FDF6CFDA
:10593000B70189910E94292CEECF84E98093BC00A5
:105940000895AA1BBB1B51E107C0AA1FBB1FA617C6
:10595000B70710F0A61BB70B881F991F5A95A9F718
:1059600080959095BC01CD0108952F923F924F9262
:105970005F926F927F928F929F92AF92BF92CF92DF
:10598000DF92EF92FF920F931F93CF93DF93CDB7E8
:10599000DEB7CA1BDB0B0FB6F894DEBF0FBECDBF60
:1059A00009942A88398848885F846E847D848C8431
:1059B0009B84AA84B984C884DF80EE80FD800C813A
:1059C0001B81AA81B981CE0FD11D0FB6F894DEBF1D
:1059D0000FBECDBFED010895FB01DC0102C00590B3
:1059E0000D9241505040D8F70895DC01CB01FC01E5
:1059F000F999FECF06C0F2BDE1BDF89A319600B428
:105A00000D9241505040B8F70895F999FECF92BDDC
:105A100081BDF89A992780B50895A6E1B0E044E0E9
:105A200050E00C94F72CA8E1B0E042E050E00C9478
:105A3000F72CDC01A40FB51F4150504048F0CB01BA
:105A4000840F951F2E910E942A2D41505040D0F76F
:105A50000895262FF999FECF92BD81BDF89A01973E
:105A600000B4021639F01FBA20BD0FB6F894FA9AA6
:105A7000F99A0FBE08950396272F0E942A2D0E949F
:105A8000292D252F0E942A2D242F0C942A2D019692
:105A9000272F0E942A2D0C94292D0E94612D0C94F1
:105AA000422E0E943B2E58F00E94342E40F029F4E2
:105AB0005F3F29F00C942B2E51110C94762E0C94F0
:105AC000312E0E94532E68F39923B1F3552391F39D
:105AD000951B550BBB27AA2762177307840738F05D
