:100000000C94B4030C94D1030C94D1030C94D1033D
:100010000C94D1030C94D1030C94D1030C94D10310
:100020000C94D1030C94D1030C9418140C94ED127D
:100030000C9481170C94D1030C94D1030C94D1032C
:100040000C94D1030C94D1030C94D1030C94D103E0
:100050000C94D1030C9423170C94D1030C94D1036A
:100060000C94D1030C94D1030C94D1030C94D103C0
:100070000C94D1030C94D1030C94D1030C94D103B0
:100080000C94D1030C94D1030C94D1030C94D103A0
:100090000C94D1030C94D1030C94D1030C94D10390
:1000A0000C94D1030C94D1030C94D10373077507FE
:1000B0008007770779077B077D077F07820784071B
:1000C0008607910788078A078C078E079007930792
:1000D0003508350873087308AF08C80A6F0AC80ADC
:1000E000CF08C80ACC09CC09D909D909D909D90935
:1000F000D909D909D909D909D909D909D909D909F0
:10010000D909D909D909D909EA09120A170A1E0A0F
:10011000360AB90BBC0BBF0BC20BC50BC80BCB0B04
:10012000AC10C810F610321179117C117F118211B8
:10013000851188118B118E119111941199119C11B7
:100140009F11A411A911AC11AF11D019D519DF1944
:10015000D319D819DD19DB19E9261027B028102783
:10016000B02858277B27B02879288C28E828E82849
:10017000FB28FB28F128FB28FB28FB28E828E82897
:10018000F628FB28FB28F62829002B003500E10083
:10019000E00000001E00140004001D0001000251D8
:1001A0001F001A0016001B000100E30020000800D9
:1001B0000700060001002A002100150009001900AF
:1001C000E2000351220017000A000500000023028C
:1001D000230050090000010000003E0024004F09E8
:1001E00000002E000000015325001C000B00110030
:1001F00000002102260018000D00100065740100A7
:1002000027000C000E00360001002C002F00120009
:100210000F003700010028003000130033003800C1
:10022000010001512D0031003400E500E400000020
:100230000000000000000000000000003A00000084
:1002400000000000000001003B0000004200000030
:10025000000001003C0000004300000000004C00D2
:100260003D00400044000000000001003E0041004D
:1002700045000000000001003F00000000000000F9
:100280000000010000000000000000000000B200BB
:100290000000000000000000000001000000240039
:1002A00021001E00000001003800250022001F0070
:1002B00037002700550026002300200037000100EA
:1002C0002D002E022E02010001000100000000009E
:1002D0000000000001000000010001000100010019
:1002E0000100000001000100010001000100010007
:1002F00001004F01E0024C0001000100010001007B
:100300004E0001000100010001000100E0000100B9
:1003100001000100010001000100500100004A003D
:100320000100010000003002000001004600010051
:100330000000010000000100010001005000010068
:1003400000004D0001004B005100010001000100C0
:100350000100010052000100010001002F00010016
:100360004F00010001000100300001000100010008
:10037000010001002E00010001000100C25C00002C
:10038000000000000000000000000000000000006D
:10039000000000000000000000000000000000005D
:1003A000000000000000000000000000000000004D
:1003B000000000000000000000000000000000003D
:1003C000000000000000000000000000000000002D
:1003D000000000000000000000000000000000001D
:1003E000000000000000000000000000000000000D
:1003F00000000000000000000000000000000000FD
:1004000000000000000000000000000000000000EC
:10041000000000000000E6A6EAE6A6EAE6A6EA007A
:100420000000E6A6EAE6A6EAE6A6EAE6A6EA0000F4
:1004300000E6A6EAE6A6EAE6A6EAE6A6EA000000E4
:10044000E6A6EAE6A6EAE6A6EAE6A6EA000000E6EE
:10045000A6EAE6A6EA000000E6A6EAE6A6EAE6A61E
:10046000EAE6A6EAE6A6EAE6A6EAE6A6EA000000CA
:10047000000000000000E6A6EAE6A6EAE6A6EAE634
:10048000A6EA0000000000000000000000000000DC
:10049000000000000000000000000000000000005C
:1004A000000000000000000000B58899B5889900A0
:1004B0000000B58899000000000000000000B58829
:1004C00099B58899B58899B5889900000000000011
:1004D000000000000000000000000000000000001C
:1004E000000000000000000000000000000000000C
:1004F00000000000000000000000000000000000FC
:10050000B58899000000000000B58899B58899B5B4
:100510008899000000B58899000000000000B588A7
:100520009900000000000000000000000000000032
:1005300000000000000000000000010101010101B5
:100540000101010202020202020202030303030389
:100550000303040404040405050505050606060650
:100560000607070707080808080909090A0A0A0B05
:100570000B0B0C0C0C0D0D0D0E0E0E0F0F101010A2
:100580001111121213131414151516161717181823
:1005900019191A1A1B1C1C1D1D1E1F1F2021212288
:1005A000232324252526272828292A2B2C2C2D2EC9
:1005B0002F30313132333435363738393A3B3C3DE0
:1005C0003E3F404142434445464748494B4C4D4ECF
:1005D0004F50525354555758595A5C5D5E60616391
:1005E000646567686A6B6C6E6F7172747677797A1E
:1005F0007C7D7F8182848687898B8D8E9092949575
:1006000097999B9D9FA1A2A4A6A8AAACAEB0B2B494
:10061000B6B9BBBDBFC1C3C5C8CACCCED0D3D5D770
:10062000DADCDEE1E3E6E8EAEDEFF2F4F7F9FCFF0D
:1006300005010980A10185031601002603001A8126
:10064000002A8300751095018100C0050C0901A1E5
:10065000018504160100269C021A01002A9C0275DD
:100660001095018100C005010906A1018505050756
:1006700019E029E715002501950875018102050893
:1006800019012905950575019102950175039101DF
:100690000507190029EF1500250195F07501810264
:1006A000C005010906A101050719E029E715002584
:1006B00001950875018102950175088101050819E8
:1006C00001290595057501910295017503910105B3
:1006D00007190029FF150026FF00950675088100FF
:1006E000C009023B00020100A0FA09040000010356
:1006F00001010009211101000122400007058103C9
:1007000008000A0904010001030000000921110189
:1007100000012271000705820320000A1201100166
:1007200000000008EDFE07130100010203010403AD
:100730003000000016034500720067006F0044009F
:100740006F007800200045005A00000016034500A5
:10075000720067006F0044006F00780020004500C1
:100760005A0000000403090411241FBECFEFDAE091
:10077000DEBFCDBF13E0A0E0B1E0E4EBF8E502C0DE
:1007800005900D92AE36B107D9F726E0AEE6B3E09C
:1007900001C01D92A130B207E1F70E9456150C94DA
:1007A000582C0C9400008F929F92AF92BF92CF92E0
:1007B000DF92EF92FF920F931F93CF93DF93CDB70A
:1007C000DEB728970FB6F894DEBF0FBECDBFFC0191
:1007D000F080118183819481892B09F410C71F3F18
:1007E00021F40FEFF01609F40AC76F0185E0DE016E
:1007F000119601900D928A95E1F7F6012281898187
:100800009A81222349F00E940D19082F682F8981AF
:100810009A810E94861903C00E945919082F26E068
:10082000129FF001112434E5039FE00DF11D112406
:10083000EF0DF11DEE0FFF1FE857FE4F05911491CC
:10084000F6018281043FFCE51F0799F028F4023C81
:100850003CE5130791F0B3C0053F9CE51907B1F1E2
:10086000063FECE51E0709F0AAC0882309F4C7C6B5
:100870005CC0882309F4C3C673C0882309F4BFC6CB
:100880008091FB05882319F01092FB0503C08FEFC0
:100890008093FB056091F8057091F9058091FA0548
:1008A0009091FB0528960FB6F894DEBF0FBECDBF22
:1008B000DF91CF911F910F91FF90EF90DF90CF903C
:1008C000BF90AF909F908F900C94BB21882309F428
:1008D00096C690916E0381E0892780936E038FC640
:1008E00010927003F60192810A3CFCE51F0709F49F
:1008F00059C208F449C1013D2CE5120709F490C220
:1009000040F1053DECE51E0709F4B9C208F480C1C9
:100910000D3D8CE5180709F4BDC20E3DECE51E0740
:1009200009F07EC1992309F46AC628960FB6F89497
:10093000DEBF0FBECDBFDF91CF911F910F91FF9012
:10094000EF90DF90CF90BF90AF909F908F900C94DE
:1009500018180D3C8CE5180729F4992309F44FC6A3
:1009600081E019C00E3CECE51E0708F447C10F3CBE
:100970003CE5130709F438C208F044C2992309F48E
:100980003EC68091F80586958695825C8F7383308C
:1009900008F4C4C182E028960FB6F894DEBF0FBEFB
:1009A000CDBFDF91CF911F910F91FF90EF90DF901E
:1009B000CF90BF90AF909F908F900C94C1218823CF
:1009C00019F1033EFCE51F07C1F050F4013E3CE580
:1009D000130781F0023E8CE51807B1F481E010C0E6
:1009E000043E9CE5190759F0053EECE51E0761F44D
:1009F00084E006C01092800305C082E001C083E05D
:100A0000809380030E943C2317FF73C0F60182810C
:100A1000882309F46EC08091AD0580936F03109216
:100A2000AD0580918003813071F048F08230D1F0C3
:100A30008430F1F486EE0E94A22A88E117C082EE8B
:100A40000E94912915C082E29BE00E94A52588E1C1
:100A50000E94912988E10E94352982E19BE00E9451
:100A6000A52506C082EE0E94912987E50E94A22A50
:100A70008FE39CE90197F1F700C000007801E8944A
:100A8000F7F85CE0A52EB12CC7010A2C02C09695A0
:100A900087950A94E2F7282F2F7041F0822F90E07B
:100AA0002A3010F44D9604C0069702C087E290E009
:100AB0000E94A22A94E0A91AB108ECEFAE16EFEF5B
:100AC000BE0611F780918003813039F040F082300A
:100AD00031F0843051F488E206C08CE204C082EE2A
:100AE0000E94352902C00E94A22A80916F03809340
:100AF000AD05003FFCE51F07C1F188F4083D3CE56A
:100B00001307D9F0093D8CE51807D9F1073D9CE59D
:100B1000190709F0E5CE26E241EE61EE11C0023F71
:100B2000ECE51E0751F128F1033F2CE5120709F00F
:100B3000D7CE27E246EE66EE03C027E245EE65EE2D
:100B4000C60128960FB6F894DEBF0FBECDBFDF9169
:100B5000CF911F910F91FF90EF90DF90CF90BF90BA
:100B6000AF909F908F900C94032126E240EE60EEB0
:100B7000E7CF27E244EE64EEE3CF26E242EE62EEF8
:100B8000DFCF28E241E0DBCF033C3CE5130709F46B
:100B9000A3C0E0F40531ECE51E0770F40230FCE57B
:100BA0001F0708F07EC101152CE51207F1F1013095
:100BB0001C4509F47CC010C206318CE5180709F405
:100BC000D7C1023C1C4509F47BC006C2063CFCE5CB
:100BD0001F0709F4BEC050F4043C3CE5130709F4B8
:100BE00096C0053C1C4509F4ADC0F6C1083CECE5D7
:100BF0001E0709F4C1C008F4B5C0CAC00B3CFCE52F
:100C00001F0709F4DBC00C3C1C4509F4E1C0E4C13A
:100C1000033D2CE5120709F41FC108F40FC121C1DF
:100C20000C3D1C4509F0D8C12FC1992309F4E7C434
:100C30001092AD050E940D290FEF14E32CE0015036
:100C400010402040E1F700C00000F89481E080935C
:100C5000E00080E28093D8001092C9008FE19EE40A
:100C60000197F1F700C000001DBA109268001CBC8B
:100C700010BE1FBA10927A0010926E0010926F0090
:100C800010927100109272001092C9001092BC0074
:100C900014B817B81AB81DB810BA1092BC0015B81D
:100CA00018B81BB81EB811BA0C94003FA8C49923F9
:100CB00009F4A5C48091A60381608093A6039FC414
:100CC000992309F49CC49091F80581E089278093C9
:100CD000F80510920801DECD992309F490C48091A3
:100CE000AD058272D9F028960FB6F894DEBF0FBE1C
:100CF000CDBFDF91CF911F910F91FF90EF90DF90CB
:100D0000CF90BF90AF909F908F900C94D12199235A
:100D100009F475C48091AD05827229F328960FB647
:100D2000F894DEBF0FBECDBFDF91CF911F910F9121
:100D3000FF90EF90DF90CF90BF90AF909F908F90FB
:100D40000C94EF21992309F45AC48091F905885F26
:100D500006C0992309F453C48091F9058850809303
:100D6000F90598CD992309F44AC42091FA0530E198
:100D7000230F08F42FEF09C0992309F440C42091F0
:100D8000FA0530E1231B08F420E02093FA0582CD18
:100D9000992309F434C42091FB0530E1230F08F4B2
:100DA0002FEF09C0992309F42AC42091FB0530E1F3
:100DB000231B08F420E02093FB056CCD992309F454
:100DC0001EC42091FC0530E1230F08F42FEF09C069
:100DD000992309F414C42091FC0530E1231B08F485
:100DE00020E02093FC0556CD992309F408C4809196
:100DF000F80586958695865C8F73823008F48ECFD1
:100E000086E0C9CD992309F4FAC38091F805869547
:100E10008695895C8F73853008F480CF89E0BBCDDF
:100E2000992309F4ECC38091F805869586958F5C2B
:100E30008F73853008F472CF8FE0ADCD992309F41C
:100E4000DEC38091F80586958695855D8F73823027
:100E500008F464CF85E19FCD992309F4D0C388E1DC
:100E60009ACD992309F4CBC38091F8058695869590
:100E7000895D8F73893008F451CF89E18CCD992336
:100E800009F4BDC383E287CD992309F4B8C3109256
:100E90007D03B5C3992309F4B2C382E080937D0337
:100EA000AEC3992309F498C00E940D18811102C0A5
:100EB0000E94181884E090E00E94B52A90E0909378
:100EC000930380939203F801E350FC45E231F1056E
:100ED00030F4EA5AFF4F809192030C94252B8091B5
:100EE0009203816027C0826025C0846023C0806136
:100EF00021C080621FC080641DC080681BC08460E8
:100F0000886018C08E7F16C08D7F14C08B7F12C082
:100F10008F7E10C08F7D0EC08F7B0CC08F770AC074
:100F20008B7F877F07C087FB222720F991E09227DC
:100F300090FB87F9809392036091920384E090E0A4
:100F40000E94C92A1092AD0528960FB6F894DEBF0C
:100F50000FBECDBFDF91CF911F910F91FF90EF900A
:100F6000DF90CF90BF90AF909F908F900C940D2901
:100F70008091AD05992389F0982F9A7A81E009F440
:100F800080E080937103811102C069E201C065E3D2
:100F900086EB93E00E94D5170BC0809171038111FD
:100FA00002C069E201C065E386EB93E00E94AA17E4
:100FB00028960FB6F894DEBF0FBECDBFDF91CF915C
:100FC0001F910F91FF90EF90DF90CF90BF90AF9067
:100FD0009F908F900C94C718F6010081118199237E
:100FE00049F0C8010E940D19F82E682FC8010E940F
:100FF000861904C0C8010E945919F82EB8018F2D16
:101000000E94280C182F382FF601258122952F7069
:101010000281011110924D0480914B048770A9F058
:10102000002399F080E2810F883078F082E02F83EE
:1010300038879E830E94141A80914B048770EE2497
:10104000E3942F8138859E818111E12CA92EA294F1
:101050004FE0A422B12CFCE0AF16B10408F098C216
:10106000F501E859FF4F0C94252B892F807F9F7045
:10107000F92E882319F0F29480EFF8220023B9F0BA
:10108000FF2009F416C280E2810F883010F0311180
:1010900006C09091AD05F92AF092AD0505C090917A
:1010A0004D04F92AF0924D040E94C71802C2812F04
:1010B00038870E9435293885FF2009F469C2105EFF
:1010C000F094183010F0311106C09091AD05F9225E
:1010D000F092AD0505C090914D04F922F0924D04B7
:1010E0000E94C71855C2492F407F892F8F70403208
:1010F00011F08295807F332319F03130E9F025C05B
:10110000002381F030914E04222351F0213041F42C
:10111000982F932B391709F43BC290934E0438C291
:10112000832B4FC1222319F0213009F431C28E8361
:101130000E94C1188E814BC1002321F0223008F09B
:1011400027C23FC1211124C242C1002321F0222322
:1011500009F437C1AEC1222309F439C1BCC1292F1A
:1011600026952695237030E02115310521F0213098
:10117000310559F00DC2002319F0812F937002C080
:1011800080E090E00E94E12011C2002319F0812F3D
:10119000937002C080E090E00E94CB2007C2892FAC
:1011A000837009F079C00111FFC1812F8295869566
:1011B0008770880F880F412F4F7050E060E070E01B
:1011C0004A015B01082E04C0880C991CAA1CBB1C98
:1011D0000A94D2F714FF14C04FE050E060E070E0D2
:1011E0008A019B0104C0000F111F221F331F8A9523
:1011F000D2F7B901A801409550956095709503C04C
:1012000040E050E0BA01969596959370892F90E052
:1012100000914F04109150042091510430915204D8
:1012200082309105A9F083309105E9F0019759F0DA
:10123000482959296A297B29CB01BA0160237123E6
:101240008223932326C0802A912AA22AB32A1BC074
:10125000482959296A297B29CB01BA0160277127BE
:101260008227932716C0CB01BA0160237123822302
:1012700093230E944E1A40914F0450915004609164
:10128000510470915204CB01BA01682979298A2945
:101290009B290E944E1A88C1002319F0892F817062
:1012A00001C08695882309F47FC1812F8295869598
:1012B0008770880F880F412F4F7050E060E070E01A
:1012C0004A015B01082E04C0880C991CAA1CBB1C97
:1012D0000A94D2F714FF14C04FE050E060E070E0D1
:1012E0008A019B0104C0000F111F221F331F8A9522
:1012F000D2F7B901A801409550956095709503C04B
:1013000040E050E0BA01969596959370892F90E051
:1013100000914704109148042091490430914A04F7
:1013200082309105A9F083309105E9F0019759F0D9
:10133000482959296A297B29CB01BA0160237123E5
:101340008223932326C0802A912AA22AB32A1BC073
:10135000482959296A297B29CB01BA0160277127BD
:101360008227932716C0CB01BA0160237123822301
:1013700093230E94B619409147045091480460910C
:10138000490470914A04CB01BA01682979298A2954
:101390009B290E94B61908C1412F50E0FA01E05E76
:1013A000F109E531F10508F07FC0EC58FF4F0C94CE
:1013B000252B1F70892F8F71002331F00E942D1A69
:1013C000812F0E942B29E4C00E94EF19812F0E94D7
:1013D0002029DEC0002311F12111DAC0292F2F713D
:1013E00081E090E0A0E0B0E0AC01BD0104C0440F9A
:1013F000551F661F771F2A95D2F780914704909159
:101400004804A0914904B0914A048A019B0108272D
:1014100019272A273B27C901B80125C0223008F027
:10142000B7C0DCCF002329F0892F8F712EC0002395
:10143000D9F3892F8F710E94EF19AAC0002381F080
:10144000292F2F7181E090E0A0E0B0E0BC01CD0138
:1014500004C0660F771F881F991F2A95D2F703C013
:1014600060E070E0CB010E94B61992C0002381F0C9
:10147000192F1F71812F0E942D1A28E0129FC00181
:101480001124836080934B04812F0E942D1A80C009
:1014900081E02F830E94141A2F81223008F478C033
:1014A00082E00E94141A74C0002339F0222309F448
:1014B000BBCF812F0E9491296BC0222309F4B9CFA1
:1014C000193349F43FEF83EC99E03150804090406C
:1014D000E1F700C00000812F0E94352959C0323F3A
:1014E000B1F028F4303F49F0313FF9F028C0343FE3
:1014F000B9F058F0353F71F022C0002309F456C00E
:101500009091D70381E0892708C081E008270093E4
:10151000D7034CC001114AC081E08093D70346C075
:10152000011144C01092D70341C0002329F08091DB
:10153000D603882329F329C0222311F337C08091D1
:10154000D6032223C1F0882341F09091D70381E094
:1015500089278093D7031092D603812F002319F097
:101560000E94912923C00E94352986E0F60111923C
:101570008A95E9F71BC08823C9F0011117C0909123
:10158000D70381E089278093D7031092D6030EC03A
:10159000F8E0AF16B10441F04CF01AE0A11AB1081E
:1015A00022E0A216B10410F40E94F720EE2039F1D7
:1015B00080914B0480FD23C0F601128285958595AC
:1015C00085950E942D1AC6010E94D30380914B0479
:1015D00085958595859528960FB6F894DEBF0FBE44
:1015E000CDBFDF91CF911F910F91FF90EF90DF90D2
:1015F000CF90BF90AF909F908F900C94EF1928964A
:101600000FB6F894DEBF0FBECDBFDF91CF911F9113
:101610000F91FF90EF90DF90CF90BF90AF909F9091
:101620008F900895282F277081E090E001C0880FE7
:101630002A95EAF7809590914D04892380934D0473
:101640000C94C718282F277081E090E001C0880F04
:101650002A95EAF790914D04892B80934D040C94C0
:10166000C718AF92BF92CF92DF92EF92FF920F9383
:101670001F93CF93DF9320E9289F7001299FF00CDF
:101680001124C0E0D0E000E010E067018FEFC81A3D
:10169000D80A570182E0A80EB11CFE01EE0DFF1D15
:1016A000E058FC4F6491F601EC0FFD1FE058FC4F31
:1016B0007491F501EC0FFD1FE058FC4F849161110E
:1016C00007C0711105C0811103C020E040E004C0D3
:1016D0000E94A322472F282FC8010E94B9210F5F23
:1016E0001F4F2396C039D105C1F6DF91CF911F91CD
:1016F0000F91FF90EF90DF90CF90BF90AF90089543
:10170000CF93E82F873058F58091090190910A0115
:10171000892B09F042C0CE2F80E40E948C23909345
:101720000A0180930901892BB1F482E10E946523AB
:1017300090930A0180930901892B69F481E090E07C
:1017400001C0880FCA95EAF780950E94652390939F
:101750000A018093090184E98093BC001EC090E0D7
:10176000FC013797E730F105C0F4E757FF4F0C94C1
:10177000252B209A289811C0219A29980EC0229AC8
:101780002A980BC0239A2B9808C0529A5A9805C0E1
:10179000539A5B9802C03E9A4698CF910895CF9392
:1017A000DF93873008F047C08091090190910A01CA
:1017B000892B09F049C080E40E948C2390930A0190
:1017C00080930901892B11F080E031C083E10E94F0
:1017D000652390930A0180930901892BA9F781E47D
:1017E0000E948C2390930A0180930901892B61F751
:1017F00084E88093BC000E947517EC019091BC00B6
:1018000097FD0EC00E9475178C1B9D0B84369105A9
:10181000A8F38EEF9FEF90930A0180930901D4CF34
:101820008091BB00809510920A011092090194E901
:101830009093BC000AC09FB18FB1807F869586953A
:101840009370892B809501C080E0DF91CF9108953E
:10185000CF93DF9326E0729FF001112434E5839F3C
:10186000E00DF11D1124E60FF11DEE0FFF1FE857EB
:10187000FE4FC591D491CE01C238D10549F1B0F4E3
:10188000C133D10509F464C048F4C932D10509F463
:1018900058C0CA32D10509F462C068C0C533D10549
:1018A00009F448C0C933D10599F060C0C33ED105E1
:1018B00041F138F4C03ED10591F0C23ED105B1F0FE
:1018C00055C0C63ED10521F1C73ED10561F14EC0DC
:1018D0002091920320FD14C221FD12C213C2209157
:1018E000920320FF0FC289E390E00CC22091920383
:1018F00022FF08C28091920384FDB4C183EE90E080
:1019000001C28091920382FFF5CF82EE90E0FAC18E
:101910002091920323FFF6C18091920384FDA2C11E
:1019200087EE90E0EFC18091920383FFF5CF86EEC2
:1019300090E0E8C12091920325FFE4C189E290E0A4
:10194000E1C12091920325FFDDC185E390E0DAC17A
:101950002091920326FFD6C18AE290E0D3C1209164
:10196000920326FFCFC181E390E0CCC1C11520E5F1
:10197000D20708F047C0C11530E4D30708F034C1DE
:10198000C83ED10518F5C03ED10508F0BBC1C83A24
:10199000D10570F4C53AD10508F0B0C0C130D10509
:1019A00009F4B0C108F45EC1249708F45BC1AAC170
:1019B000CF3BD10508F4ADC0C03CD10508F452C1FD
:1019C000FE01EE0FFF1FE055FC4F02C1C11520E2E2
:1019D000D20760F4C11531E0D30708F093C1C03FCE
:1019E000D10508F43FC1CE0190658CC1C11580E3DB
:1019F000D80708F0F0C0FE01FF70EE0FFF1FE05D9A
:101A0000FA4FE6C0C11595E5D90708F044C0C115E5
:101A100024E5D20708F000C1C11532E5D30710F55F
:101A2000C11581E5D80708F0E3C02C2F237081E0B1
:101A300090E002C0880F991F2A95E2F79C689E01EA
:101A400074E0369527957A95E1F72370922BEC2F69
:101A5000EF70E695E69530E2E39FF00111248E2BBE
:101A60009F2B50C18C2F86958695AE0143705527CC
:101A7000C115D34508F0C1C090E2899F900111249F
:101A800081E090E002C0880F991F4A95E2F7822B0F
:101A9000932B9C6837C1C1152AE5D207A0F4C11564
:101AA00039E5D30708F0C6C0C11586E5D80708F4A4
:101AB000B8C0C11598E5D90708F4D4C09C2F882771
:101AC000806F906A1FC1C1152BE5D20708F4CAC008
:101AD000CE01C1153CE5D30708F4C1C0905681156D
:101AE000904208F0BFC08D2F8F710E944223FE01EB
:101AF000FF27F0628F719F01382BAFC0C53AD10527
:101B000009F4B3C0C63AD10509F0B2C082E890E446
:101B1000F9C0C83AD10509F4AEC0C93AD10509F4F3
:101B2000ADC0CA3AD10509F4ACC0CB3AD10509F42D
:101B3000ABC0CC3AD10509F4AAC0CB3BD10509F41E
:101B4000A9C0CC3BD10509F4A8C0CD3AD10509F410
:101B5000A7C0C03BD10509F4A6C0CE3AD10509F40F
:101B6000A5C0CF3AD10509F4A4C0C13BD10509F401
:101B7000A3C0C23BD10509F4A2C0C33BD10509F4FF
:101B8000A1C0C43BD10509F4A0C0C53BD10509F4EF
:101B90009FC0C63BD10509F49EC0C73BD10509F4DF
:101BA0009DC0C83BD10509F49CC0C93BD10509F4CF
:101BB0009BC0CD3BD10509F49AC0CE3BD10509F4B9
:101BC00099C0CA3BD10509F498C080E094E49AC05A
:101BD0008591949197C09E013327C901D3FF02C01C
:101BE000986C90C0906C8EC0CE019F70906A8AC035
:101BF0009C2F8827816F906A85C090E2899F900111
:101C0000112481E090E002C0880F991F4A95E2F705
:101C1000822B932B9A6876C09C2F8827846F906ABA
:101C200071C08C2F0E9442238F7190E0982F8827DB
:101C3000906268C08C2F8F700E944223FE0194E056
:101C4000F695E7959A95E1F7EF70F0E0FE2FEE2715
:101C5000F06A8F70806E9F01282BC90153C09927AD
:101C6000906650C080E090E04DC081E890E44AC0AA
:101C700083E890E447C082EE94E444C089EE94E4A3
:101C800041C08AEE94E43EC085EB94E43BC086EB11
:101C900094E438C083EB94E435C084EB94E432C020
:101CA00087EB94E42FC08CEC94E42CC08DEC94E48E
:101CB00029C083E895E426C08AE895E423C082E938
:101CC00095E420C084E995E41DC081E296E41AC041
:101CD00083E296E417C084E296E414C085E296E4B9
:101CE00011C086E296E40EC087E296E40BC08FE650
:101CF00094E408C080E794E405C08AE296E402C058
:101D000080EE90E0DF91CF91089580E290E0909393
:101D10000A018093090180917803811111C010920A
:101D2000B9008CE08093B80081E0809378032FEFB6
:101D300083ED90E3215080409040E1F700C0000027
:101D400080E40E948C2390930A0180930901892BDF
:101D500009F040C080E00E94652390930A018093BF
:101D60000901892BB9F580E00E94652390930A014F
:101D700080930901892B71F58FE30E94652390936D
:101D80000A0180930901892B29F584E98093BC001D
:101D900080E40E948C2390930A0180930901892B8F
:101DA000C9F48CE00E94652390930A018093090195
:101DB000892B81F480E00E94652390930A0180932F
:101DC0000901892B39F48FE30E94652390930A015E
:101DD0008093090184E98093BC00809109010895F2
:101DE00056985E9825982D9826982E9827982F9883
:101DF0008FEF90E0909389008093880090938B0000
:101E000080938A0090938D0080938C00259A2D9A60
:101E10002FEF80E792E0215080409040E1F700C032
:101E20000000269A2E9A2FEF80E792E02150804002
:101E30009040E1F700C00000279A2F9A2FEF80E72B
:101E400092E0215080409040E1F700C000002598CA
:101E50002D982FEF80E792E0215080409040E1F7ED
:101E600000C0000026982E982FEF80E792E02150C6
:101E700080409040E1F700C0000027982F985698C6
:101E80005E9825982D9826982E9827982F98089533
:101E900084B1807F84B985B1807F85B98AB1837F21
:101EA0008AB98BB1837F8BB93E984698089580B3E9
:101EB0008C7080BB81B3836F81BB08958F929F929A
:101EC000AF92BF92CF92DF92EF92FF920F931F9348
:101ED000CF93DF931F92CDB7DEB780910901909128
:101EE0000A01892B91F0809177038F5F80937703AC
:101EF00081110BC00E94850E90E090930A0180939F
:101F00000901892B11F40E94F00E04E813E06BE83C
:101F1000E62E63E0F62E6801812C912C57E0A52E69
:101F2000A80C882D0E94800B8A2D0E94800B882D82
:101F30000E94CF0BD6019C91981721F08C93BB2463
:101F4000B39401C0B12C8A2D0E94CF0BF701908170
:101F5000981719F0808381E001C080E0B82A9B289F
:101F60000E94480F8394FFEFCF1ADF0A2FEFE21A87
:101F7000F20A47E08412D2CF0E9475176AEF70E030
:101F80000E94FD2A9C01682F80917203882309F426
:101F90005BC010927203E0917E03F0917F03DF013A
:101FA0001E9690E07BEF4AEFE42EF12C80818B3F70
:101FB000A9F0482F50E0681728F06901C41AD50A23
:101FC000A60106C06701C41AD50AA601420F531F15
:101FD0004F30510514F0708301C091E03196EA173B
:101FE000FB0721F790937203911030C0992371F190
:101FF00060917303709174038091750390917603DF
:102000000E9449174FB7F8940091790310917A0311
:1020100020917B0330917C034FBF00937303109397
:10202000740320937503309376038090F4059090A9
:10203000F505A090F605B090F7054FEF84169406CD
:10204000A406B40619F543C0992091F2E0907E03EE
:10205000F0907F0380917203E7E9F3E02EE02E0F0A
:102060003081D8019D918D01D7014C914B3F29F4CE
:10207000391719F06C93908381E0BFEFEB1AFB0ADC
:1020800031962E13EDCF80937203B2CFAB01BC011A
:10209000662777276A017B01C094D094E094F0947E
:1020A000C814D904EA04FB0420F48FEF9FEFDC018D
:1020B00006C0DB01CA01880D991DAA1DBB1D8093B6
:1020C000F4059093F505A093F605B093F70580917C
:1020D000F805982F937021F0B82EB694B69401C0ED
:1020E000B12C909108019130A1F038F0923009F4B0
:1020F0004DC1933009F455C165C11092160100938A
:10210000F0051093F1052093F2053093F30581E07B
:1021100045C190910701B9120EC0837090E02091E3
:10212000060130E051E040E08217930709F450E0E7
:10213000852F942F02C081E090E0282F21702093FA
:1021400018014B2D50E04531510508F00DC1FA0141
:10215000E057FF4F0C94252B20911601892B09F491
:1021600003C1220F822F880F880F022F080F1AE059
:10217000100F113308F010E3011708F0B6C020E08B
:1021800040E060E0802F90E00E94B9210F5FF4CF23
:1021900080911601E82EEE0C8E2D880F880FE80E28
:1021A0001AE01E0D113308F010E36091F9057091EB
:1021B000FA058091FB050E94A322062FF82EE11656
:1021C00008F093C0EE2DF0E0DF01A35CBC4F8C91D2
:1021D00090911701982341F02F2D472F602FCF01A9
:1021E00079830E94B9217981E394E9CF8091160126
:1021F000A82EAA0C8A2D880F880FA80E1AE01A0D97
:10220000113308F010E3D090FA05C090FB0520913F
:10221000FC0500E4029F012D1124A11608F065C001
:10222000EA2CF12CF701E35CFC4F808190911701BF
:102230009823B1F0F701EE0FFF1FE252FD4F90819E
:1022400092959F706091F905099F600D11247D2D75
:102250008C2D0E94A322472F282FC7010E94B9214D
:10226000A394DBCF80911601E82EEE0C8E2D880F03
:10227000880FE80E1AE01E0D113308F010E360918C
:10228000FC056695669566958091F0059091F1053F
:102290000E9498220091FB050E941D22805887FD14
:1022A0008195880F282F209F212D1124822F609146
:1022B000F9057091FA050E94A322062FF82EE11667
:1022C000A0F4EE2DF0E0DF01A35CBC4F8C91909167
:1022D0001701982341F02F2D472F602FCF017983CD
:1022E0000E94B9217981E394EACF81E01033E8F1CB
:1022F0003BC085EB9DE11AC08DE89DE117C087E7E3
:102300009EE11FC083E69EE11CC08EE49EE11EC0DC
:1023100089E39EE11BC08AE89DE108C08FE79DE14B
:1023200005C084E79DE102C08CE59DE10E9448253F
:102330001CC080E59DE10AC080E792E202C083E212
:102340009EE10E94DB2411C081E19EE10E944B24AA
:102350000CC08FE19DE105C08EEE9CE102C08FEACA
:102360009CE10E94D62301C080E0909116019F5FFE
:1023700090931601811126C082E08093080180911C
:10238000180181111FC0BB2041F01CC0B092070191
:102390008370809306010E94B91E83E08093080138
:1023A00011C06091F0057091F1058091F205909156
:1023B000F3050E944917603171058105910510F000
:1023C0001092080180916E03811115C0609147043D
:1023D000709148048091490490914A040E947118B8
:1023E000813029F0823039F482E090E002C081E04F
:1023F00090E00E94310B81E00F90DF91CF911F910F
:102400000F91FF90EF90DF90CF90BF90AF909F9093
:102410008F900895E8EDF0E080818E7F80831092A8
:10242000E2001092DA001092E100A0EEB0E08C9190
:1024300081608C9380818F77808319BCA7EDB0E099
:102440008C918E7F8C9380818F7E80831092B503D8
:10245000089508958091AF050895CF93DF9300D03C
:102460001F92CDB7DEB79C0190917D03911105C0FD
:102470008091D205843049F504C0923011F0943037
:1024800021F584E089833B832A8382E08093E900FD
:102490008FEF9091E800815095FD06C095ED9A95DB
:1024A000F1F700008111F5CF8091E80085FF0DC0A4
:1024B00040E050E063E070E0CE0101960E94CC2540
:1024C0008091E8008E778093E8000F900F900F9036
:1024D000DF91CF910895CF93DF9300D01F92CDB7B6
:1024E000DEB72091D205243031F523E029838058CE
:1024F00091099B838A8382E08093E9008FEF90911A
:10250000E800815095FD06C095ED9A95F1F7000021
:102510008111F5CF8091E80085FF0DC040E050E0CB
:1025200063E070E0CE0101960E94CC258091E80026
:102530008E778093E8000F900F900F90DF91CF91EE
:102540000895CF93DF9320917D03211103C0209143
:10255000D20502C0223011F02430E1F5209115019E
:10256000222339F02091920327FF03C060E222E08A
:1025700002C068E021E02093E9002FEF3091E800ED
:10258000215035FD06C035ED3A95F1F700002111D7
:10259000F5CF2091E80025FF1DC0EC0180911501C9
:1025A000811105C040E050E068E070E003C070E0D9
:1025B00040E050E0CE010E94CC258091E8008E776B
:1025C0008093E80080E2FE01A0EBB5E001900D925F
:1025D0008A95E1F7DF91CF9108951F920F920FB680
:1025E0000F9211242F933F934F935F936F937F9399
:1025F0008F939F93AF93BF93CF93DF93EF93FF930B
:10260000C091E900CF708091EC00D82FD17080FD8F
:10261000D0E81092E9008091F000877F8093F0006D
:1026200078940E9403261092E9008091F00088605F
:102630008093F000CD2BCF70C093E900FF91EF9114
:10264000DF91CF91BF91AF919F918F917F916F91CA
:102650005F914F913F912F910F900FBE0F901F9060
:1026600018952091E4003091E50095E64091EC004A
:10267000842F817040FF22C08091E80080FD1CC043
:102680008091D205882391F0853091F08091EB0004
:1026900085FD10C04091E4005091E50042175307BA
:1026A00029F39A01915011F784E0089582E008958A
:1026B00083E0089581E0089580E008954091E80066
:1026C00042FFDECF08958091D40587FF11C080912D
:1026D000E80082FD05C08091D2058111F8CF11C0BC
:1026E0008091E8008B770BC08091D205882349F058
:1026F0008091E80080FFF8CF8091E8008E7780938A
:10270000E8000895982F973058F59093E9009817AE
:1027100039F07091EC002091ED005091F00003C071
:10272000242F762F50E021FF19C03091EB003E7F1F
:102730003093EB003091ED003D7F3093ED00309110
:10274000EB0031603093EB007093EC002093ED00D0
:102750005093F0002091EE0027FF07C09F5FD3CF7A
:102760008F708093E90081E0089580E00895CF9212
:10277000DF92EF92FF920F931F93CF93DF93C8EDF9
:10278000D0E088818F7E8883E7EDF0E080818160F2
:10279000808384E082BF81E08093B50388818E7F4F
:1027A000888302EE10E0F80110821092DA0081EEC8
:1027B000C82ED12CF601108288818F77888388817A
:1027C0008068888388818F7D888319BC1092D205A8
:1027D0001092D3051092D1051092D00590EEE92EFB
:1027E000F12CF70180818B7F8083888181608883D1
:1027F00042E060E080E00E948213F60180818E7FDB
:102800008083F801808181608083808188608083FB
:10281000F70180818E7F8083888180618883DF914A
:10282000CF911F910F91FF90EF90DF90CF9008957F
:102830001F920F920FB60F9211242F933F934F9335
:102840005F936F937F938F939F93AF93BF93EF9318
:10285000FF938091E10082FF09C08091E20082FF36
:1028600005C08091E1008B7F8093E1008091DA00C8
:1028700080FF2AC08091D80080FF26C08091DA00B6
:102880008E7F8093DA008091D90080FF18C080E1AC
:1028900089BD82E189BD09B400FEFDCF81E080934E
:1028A000D2058091B50381110FC00E940A120E94C7
:1028B000B7138091E20084608093E20005C019BCE8
:1028C0001092D2051092B5038091E10080FF17C0ED
:1028D0008091E20080FF13C08091E2008E7F8093A0
:1028E000E2008091E20080618093E2008091D80054
:1028F00080628093D80019BC85E08093D2058091D6
:10290000E10084FF34C08091E20084FF30C080E1A8
:1029100089BD82E189BD09B400FEFDCF8091D80058
:102920008F7D8093D8008091E1008F7E8093E100BD
:102930008091E2008F7E8093E2008091E2008160CE
:102940008093E2008091D305882311F084E007C0D2
:102950008091E30087FD02C081E001C083E08093A5
:10296000D2051092AD050E940D290E94F72080919A
:10297000E10083FF27C08091E20083FF23C08091A4
:10298000E100877F8093E10082E08093D20510927E
:10299000D3058091E1008E7F8093E1008091E20079
:1029A0008E7F8093E2008091E20080618093E2005C
:1029B00042E060E080E00E9482138091F000886035
:1029C0008093F000FF91EF91BF91AF919F918F9114
:1029D0007F916F915F914F913F912F910F900FBE1B
:1029E0000F901F9018952091DA053091DB0526177E
:1029F000370748F06115710539F42091E8002E770A
:102A00002093E80001C0B90140E061157105A9F10A
:102A10002091D205222309F443C0253009F442C095
:102A20002091E80023FD40C02091E80022FD32C043
:102A30002091E80020FFE9CF4091F3002091F200BF
:102A400030E0342BFC01CF016115710559F02830BD
:102A5000310540F481918093F100615071092F5F3D
:102A60003F4FF1CF41E02830310509F040E020919F
:102A7000E8002E772093E800C8CF4111C9CF0AC0E3
:102A80008091D205882361F0853061F08091E80063
:102A900083FD0AC08091E80082FFF2CF80E00895B4
:102AA00082E0089583E0089581E00895CF93DF9355
:102AB000CDB7DEB72A970FB6F894DEBF0FBECDBFF5
:102AC00084B7877F84BF0FB6F894A8958091600083
:102AD000886180936000109260000FBE80E8809350
:102AE00061001092610085B7806885BF85B78068F6
:102AF00085BF0E940A120E94B7138091E200846091
:102B00008093E20078948091D2058823A1F01091FF
:102B1000E9001F709091EC00892F817090FD80E892
:102B2000182B1092E9008091E80083FD0E94032693
:102B30001F701093E90082E084BD93E095BD9AEF89
:102B400097BD80936E000E94850E90E090930A01DD
:102B5000809309010E94480F0E94570FA4E8B3E038
:102B6000E7E9F3E05EE0F52EFE0E11921D92FE12F3
:102B7000FCCF8EE090E00E942B2B80937E039093FD
:102B80007F03FC010E962BEF2193E817F907E1F77D
:102B90000E940D18811102C00E9418180E94231F64
:102BA0000E940D18811104C00E9418180E940D2265
:102BB00080E190E00E94BD2A6093F8057093F905CA
:102BC0008093FA059093FB058FE78093FC056C7F5B
:102BD00071F40E940D2280E190E00E94BD2A609372
:102BE000F8057093F9058093FA059093FB058CE046
:102BF00090E00E94B52A90E0A0E0B0E080938003CE
:102C000090938103A0938203B093830389EA809316
:102C1000800089E08093810024982C983F988AB1A5
:102C20008F7C8AB96E98479A8BB180638BB9769AFC
:102C30000E94F00E0E940D18811102C00E94181807
:102C400082E090E00E94B52A8093A60384E090E0A1
:102C50000E94B52A90E0909393038093920383E0BF
:102C600090E00E94B52A682F70E080E090E00E941A
:102C70004E1A8091F805837011F41092080180912A
:102C8000F8058C7F81608093F8056091F80570915C
:102C9000F9058091FA059091FB050E94BB218BE01C
:102CA00091E09093950380939403EE24EA94CC24CE
:102CB000C394D12C90E1892E22E1522E38E1A32E2B
:102CC000B12C40E4942E8091D205853009F043C0A8
:102CD0008091D205843009F1109296030FB6F894D2
:102CE000A895A09260000FBE9092600083B7817F8C
:102CF000846083BF83B7816083BF7894889583B7EE
:102D00008E7F83BF0FB6F894A8958091600088618C
:102D100080936000109260000FBE8091D1058823DF
:102D200091F20E94850E90E090930A018093090130
:102D30000E94480F0E94570FE7E9F3E01192FE123C
:102D4000FDCF0E945E0FE7E9F3E08191811167C03A
:102D5000FE12FBCFB8CF0E945E0FE7EAF3E0A7E9CF
:102D6000B3E000E010E0702F6D9121912627B1F1C2
:102D700080E090E030E0782EA901082E02C0559541
:102D800047950A94E2F740FF25C089837A83C601FC
:102D900002C0880F991F7A94E2F73C01862F90E0D9
:102DA0008621972121E0892B09F420E02B830E94C2
:102DB00075178160782F9D838C8349815A816B813F
:102DC0008D810E94F51FF801E955FC4F808168262E
:102DD000608219C001968630910569F60F5F1F4F1A
:102DE0000E30110509F0BFCFEE82EF8218860E94E7
:102DF00075178160782F9A8789874E815F816885F2
:102E00008A850E94F51F1091A5030E94F7201817CC
:102E100009F459CF0E94F7208093A50354CF89BCB1
:102E200059BC09B400FEFDCF8091D8008F7D8093FE
:102E3000D8008091E00082608093E0008091E00003
:102E400081FDFCCF40CF78941F920F920FB60F9266
:102E500011248F939F93AF93BF93809179039091A7
:102E60007A03A0917B03B0917C030196A11DB11D53
:102E70008093790390937A03A0937B03B0937C03B0
:102E8000BF91AF919F918F910F900FBE0F901F90A8
:102E90001895CF92DF92EF92FF920F931F932FB767
:102EA000F894C0907903D0907A03E0907B03F0907F
:102EB0007C032FBF97018601061B170B280B390BCC
:102EC000C616D706E806F90618F0C901B80106C00B
:102ED000C901B80161507109810991091F910F91D0
:102EE000FF90EF90DF90CF9008952FB7F8948091E6
:102EF000790390917A03A0917B03B0917C032FBF5B
:102F000008951F920F920FB60F9211248F939F93E3
:102F1000AF93BF9380919603811113C08091790381
:102F200090917A03A0917B03B0917C034196A11DFF
:102F3000B11D8093790390937A03A0937B03B093A0
:102F40007C03BF91AF919F918F910F900FBE0F9017
:102F50001F90189520911501222321F020919203B2
:102F600027FD04C0FC013296089619C0262F26952D
:102F7000269526952E31C0F4FC01E20FF11D6770F5
:102F800081E090E001C0880F6A95EAF78095928110
:102F90008923828308953196E817F90729F0208163
:102FA0002613F9CF1082F7CF08952091150122231F
:102FB00021F02091920327FD05C0FC0132962FEFEE
:102FC00030E019C0262F2695269526952E3120F51E
:102FD000FC01E20FF11D677081E090E001C0880FF5
:102FE0006A95EAF79281892B828308952F3F39F001
:102FF0003F5F363041F041914613F8CF0DC041118B
:10300000F7CF232FF5CF2F3F39F0FC01E20FF11D51
:1030100027FDFA9562830895089580E090E00E946C
:10302000C32A21E08D3E9E4F09F020E0822F0895B3
:103030006DEE7EEF80E090E00E94E72A60E082E0A3
:1030400090E00E94C92A60E083E090E00E94C92AD3
:1030500010924F0410925004109251041092520496
:1030600060E084E090E00E94C92A60E085E090E0A2
:103070000E94C92A60E086E090E00E94C92A6FEFB2
:1030800087E090E00E94C92A40E050E0BA0188E061
:1030900090E00E94DB2A60E08DE090E00E94C92A67
:1030A00040E050E0BA0188E190E00E94DB2A60E055
:1030B00087E190E00E94C92A40E050E0BA0180E137
:1030C00090E00E94DB2A40E050E0BA018FE090E0FF
:1030D0000E94DB2A40E050E0BA0183E190E00C94CA
:1030E000DB2ACF92DF92EF92FF926C01EE24FF2455
:1030F000C114D104E104F10421F0C701B60120E1BB
:1031000001C020E0C72ED82EE92EFF24C114D1041F
:10311000E104F10419F0285FC701B6016B017C01DD
:1031200054E0F694E794D794C7945A95D1F7C11414
:10313000D104E104F10419F02C5FC701B6016B0161
:103140007C0142E0F694E794D794C7944A95D1F76E
:10315000C114D104E104F10419F02E5FC701B601D6
:10316000DC01CB01B695A79597958795892B8A2B7E
:103170008B2B09F02F5F822FFF90EF90DF90CF9085
:10318000089580914E04811110924E0408959091FB
:103190004D048091AD05892B20914C04982F922BE2
:1031A0009093B60380914E048823D9F0892B8093A5
:1031B000B60380911501882331F08091920387FF37
:1031C00002C08EE101C086E0E8EBF3E090E08150C0
:1031D00028F021912223D9F39F5FF9CF91110E940A
:1031E000C118E0919403F09195033097A9F0809174
:1031F0001501882359F08091920387FF07C08091C1
:10320000B6038093B70385E08093B6030280F38111
:10321000E02D86EB93E009940895BF92CF92DF9260
:10322000EF92FF920F931F93CF93DF938C01C09087
:103230004F04D0905004E0905104F09052048091DB
:10324000470490914804A0914904B0914A04C82AC7
:10325000D92AEA2AFB2ACFE1D0E0D701C6010C2EF9
:1032600004C0B695A795979587950A94D2F780FFE5
:1032700007C0BC2EB8018C2F0E94280C019719F4AE
:10328000219758F7B12C8B2DDF91CF911F910F9182
:10329000FF90EF90DF90CF90BF900895CF93DF9392
:1032A000EC010E940D19BE010E94280CDF91CF9104
:1032B0000895292F220F920F990F890F682F669575
:1032C00066956695982F977085E0689FB0011124E8
:1032D00040E050E080E0FA01E60FF71FE05FFB4FAF
:1032E000208130E0092E02C0369527950A94E2F736
:1032F00021703327042E01C0220F0A94EAF7822B93
:103300004F5F5F4F4530510531F70895292F220F48
:10331000920F990F890FA82FA695A695A69587704D
:1033200051E001C0550F8A95EAF785E0A89FD001CA
:10333000112420E030E070E0F901EA0FFB1FE05FAC
:10334000FB4F4081CB01022E02C0969587950A94CF
:10335000E2F78170992781958427852384278083CC
:103360002F5F3F4F2530310539F70895CF92DF9217
:10337000EF92FF926B017C010E94711856985E9843
:1033800025982D9826982E9827982F9890E0FC0144
:103390003197E730F105A8F4EB55FF4F0C94252B3E
:1033A000259A2D9A0EC0259A2D9A269A2E9A09C0F2
:1033B000259A2D9A04C0259A2D9A269A2E9A279AF4
:1033C0002F9AC0924704D0924804E0924904F092A8
:1033D0004A04FF90EF90DF90CF900C94FF280F935A
:1033E0001F9341E050E060E070E004C0440F551FBF
:1033F000661F771F8A95D2F7409550956095709516
:103400008091470490914804A0914904B0914A04E6
:103410008A019B01082319232A233B23C901B801F0
:103420001F910F910C94B61920914B048095822323
:1034300080934B04982F977079F430E0482F082E32
:10344000000C550B2417350739F085958595859522
:103450000E94EF1910924B0408950F931F9341E0BF
:1034600050E060E070E004C0440F551F661F771FF6
:103470008A95D2F78091470490914804A09149041D
:10348000B0914A048A019B01082B192B2A2B3B2B54
:10349000C901B8011F910F910C94B61960934F04A4
:1034A0007093500480935104909352040C94FF281D
:1034B00080910F049091DE03891719F08F5F877058
:1034C000FBCF08958091DD0382958F7009F054C081
:1034D0008091DA03882309F44FC080910F04A091F2
:1034E000DE036091D8037091D9034091DB035091C2
:1034F000DC03B6E08A1709F43FC090E0411551059E
:10350000C1F17F3F11F46F3FA1F1B89FF001B99F66
:10351000F00D1124E152FC4F218172132AC0208149
:10352000621327C02281211124C0238134812417F2
:10353000350710F421503109241B350B283C310587
:10354000C0F42091DD032F7020612093DD0326E07D
:10355000289FF001299FF00D1124EC51FC4F808130
:103560008F708061808388ED93E00E94D3030C9478
:10357000581A01968770BECF0895BF92CF92DF92FE
:10358000EF92FF920F931F93CF93DF93CDB7DEB7E8
:1035900061970FB6F894DEBF0FBECDBF8C0185E0FA
:1035A000F801DE011D9601900D928A95E1F7D80190
:1035B0003C9111962C9111971296EC9012971396BC
:1035C000CD90DC9014975091D8036091D9038091ED
:1035D000DB039091DC03009709F44FC16F3F19F4AE
:1035E0005F3F09F44AC1B090DA03BB2009F4ECC094
:1035F0004091DD03C816D90628F0F601E81BF90B47
:10360000CF0104C0809590958C0D9D1DFF24F394EF
:10361000883C910548F0F12C407F09F09FC088ED6F
:1036200093E00E94D30321C1842F807F09F044C01E
:10363000621312C0531310C0E1100EC04F704061EE
:103640004093DD0388ED93E00E94D3038091DD0376
:10365000D80115968C932EC0CD2819F12F3F11F467
:103660003F3FF9F0FE2CE1101CC080910F04409107
:10367000DE0356E0841709F458C090E0589FF0012B
:10368000599FF00D1124E152FC4F6181261306C0B1
:103690006081361303C06281611103C00196877097
:1036A000E9CFFE2CEE2009F421C18091DD03816079
:1036B0008093DD03F12C1AC162130AC0531308C0B2
:1036C000E11006C08091DD03D80115968C93B0C03F
:1036D0003D872E878D859E850E94D8288823D1F12D
:1036E000EE20C1F12091DD03822F82958F7090E052
:1036F000029774F08091D8039091D90398878F83B3
:103700001986DB86CA862C87CE0107960E94D303D2
:1037100086E0F801A8EDB3E001900D928A95E1F7FB
:103720000E94621AFF24F394E1C03D872E878D85A5
:103730009E850E944E19292F22952F7030E022304D
:1037400031050CF0C7C09F7009F0C1C0805E8830A1
:1037500008F4CCC0C8010E94D303E4CF621314C0A4
:10376000531312C0E11010C08091DD03F80185836E
:10377000C8010E94D30386E0E8EDF3E0DF011D926B
:103780008A95E9F7FB2CB2C03D872E878D859E85F3
:103790000E94D8288823F1F2EE20E1F22091DD0387
:1037A000822F82958F7090E002970CF4B1CF8091B8
:1037B000D8039091D9039A8389831B82DD82CC82BE
:1037C0002E83CE010196A2CFC816D90638F0C81AAA
:1037D000D90AB8ECCB16D10450F007C0809590956B
:1037E0008C0D9D1D883C910510F0F12C3EC0FE2CE7
:1037F000EE2009F4AFCF621327C0531325C02091E8
:10380000DD0320FD18C0822F82958F70482F50E075
:103810004115510581F0F80125834F30510541F0E4
:103820008F5F982F9295907F822F8F70892B858341
:10383000C8010E94D30386E0F801A8EDB3E001902F
:103840000D928A95E1F752C03D872E878D859E8522
:103850000E94D82881115CCF8091DD038160809324
:10386000DD03C8010E94D30341C0E8EDF3E086E028
:10387000DF011D928A95E9F739C0EE2009F46ACF7D
:103880003D872E878D859E850E94D828F82E882317
:1038900009F460CF86E0F801A8EDB3E001900D9245
:1038A0008A95E1F78091D8039091D9030E944E192F
:1038B00092959F70963041F48091D70391E08927CB
:1038C0008093D7039093D6030E94621A0FC0811190
:1038D0003DCF0CC0243031050CF03CCF9F7009F473
:1038E00035CFF8019581907F09F030CF8F2D61960B
:1038F0000FB6F894DEBF0FBECDBFDF91CF911F9101
:103900000F91FF90EF90DF90CF90BF90089580339C
:10391000910520F5880F991F880F991FFC01EF5D15
:10392000FE4F52813381808183707181E0E98E9FE7
:10393000C001112487589B4FFC01E70FF11DB4977C
:103940006083FC01E50FF11DB4974083830F911D47
:10395000FC01B497208381E0809378040895FC01F2
:1039600030E0D901AA0FBB1FA352BD4F9C919057C5
:1039700097FD9195220F331FD901A252BD4F2C9173
:1039800030E020523109D901AA0FBB1F2A0F3B1F7B
:103990004203D001439FB00D112448E350E09A0147
:1039A000291B310997FD3395C901220F331FA90146
:1039B000480F591F64039001659F300D11242A0F91
:1039C0003B1F37FF02C021583F4F220F232F221FDA
:1039D000330B8091F905280F20830895E22FF0E042
:1039E000DF01AA0FBB1FA252BD4F2C9130E0205225
:1039F0003109220F331F4203D001439FB00D112420
:103A0000EE0FFF1FE352FD4F408150E04057510938
:103A1000440F551F64039001659F300D11242A0F38
:103A20003B1F37FF02C021583F4F220F232F221F79
:103A3000330B3091F905230FFC01208308950F9378
:103A40001F93E22FF0E0DF01AA0FBB1FA252BD4F70
:103A50000C9110E0005211094003D001419FB00DBC
:103A60001124EE0FFF1FE352FD4F408150E04057FD
:103A7000510964039001659F300D11242A0F3B1FEB
:103A800037FF02C021583F4F220F232F221F330B35
:103A90003091F905230FFC0120831F910F910895A8
:103AA0000F9343E0249F9001112435952795200F13
:103AB000FC0120830F910895DC0170E0FB01EE0F03
:103AC000FF1FE252FD4F9081905297FD9195660F36
:103AD000771FFB01E352FD4F8091F9052081280FEC
:103AE000241B920F9C930895DC01E62FF0E0EE0F6B
:103AF000FF1FE252FD4F9081941B9C930895DC01BF
:103B0000E62FF0E0EE0FFF1FE352FD4F9081941B74
:103B10009C930895FC0140830895E62FF0E0EE0F9A
:103B2000FF1FE352FD4F208134EE239F212D1124EE
:103B30006091FB0570E030E0245E3F4F241B3109AB
:103B400037FF03C031952195310943E0220F331F20
:103B50004A95E1F7AB01421B530B9A0157FF02C094
:103B600020E030E0FC0122830895E62FF0E0EE0F24
:103B7000FF1FE352FD4F208134EE239F212D11249E
:103B80006091FA0570E030E0245E3F4F241B31095C
:103B900037FF03C031952195310943E0220F331FD0
:103BA0004A95E1F7AB01421B530B9A0157FF02C044
:103BB00020E030E0FC0121830895FC01CB01309727
:103BC00021F477FF2CC080E808959F01F7FF04C01F
:103BD000222733272E1B3F0BBC01621B730B280FC0
:103BE000391F97FD0DC0CB0145E0880F991F4A95FD
:103BF000E1F7B9010E94112B80E2861B682F09C0F2
:103C0000C90125E0880F991F2A95E1F70E94112B21
:103C1000605A862FF7FF02C081950895089580E0CD
:103C20000895EF92FF920F93CF937C01CA01C22FA8
:103C3000C01B0E94DD1DC81BF701C083CF910F91EF
:103C4000FF90EF9008950F931F93CF93DF931F92F0
:103C5000CDB7DEB78C01CA0129830E94DD1D298101
:103C6000820FF80180830F90DF91CF911F910F9108
:103C70000895EF92FF920F93CF937C01201B9091B8
:103C8000FB05C22FC90FCA010E94DD1DC81BF70129
:103C9000C283CF910F91FF90EF900895EF92FF9222
:103CA0000F93CF937C01201B9091FA05C22FC90F6F
:103CB000CA010E94DD1DC81BF701C183CF910F917E
:103CC000FF90EF9008950F931F93CF938C01CA013B
:103CD000C091FB05C21B0E94DD1D982F880F980F15
:103CE000C91BF801C283CF911F910F9108950F93C3
:103CF0001F93CF938C01CA01C091FA05C21B0E9489
:103D0000DD1D982F880F980FC91BF801C183CF9133
:103D10001F910F910895EF92FF921F93CF93DF931E
:103D20007B01182F110FC0E0D0E08C2F8C5D8093A9
:103D3000DC0520E030E0F901EC0FFD1FEE0DFF1D6A
:103D40008081F901E452FA4F81832F5F3F4F203188
:103D5000310589F761E170E0812F0E94B0256096FE
:103D6000C039D10511F7DF91CF911F91FF90EF90EE
:103D7000089580917804882351F069E774E084E71E
:103D80000E948B1E69E075E087E70E948B1E1092EF
:103D900078040895ECEDF5E06083418362E070E023
:103DA000880F0C94B025CF93DF93C82F4BE06DEFB5
:103DB0000E94CA1E40E06AE08C2F0E94CA1E8FE358
:103DC0009CE90197F1F700C0000040E060E08C2F13
:103DD0000E94CA1E40E061E08C2F0E94CA1E40E093
:103DE00066E08C2F0E94CA1E40E06DEF8C2F0E946F
:103DF000CA1ED0E040E06D2F8C2F0E94CA1EDF5FEC
:103E0000D231C1F740E06D2F8C2F0E94CA1EDF5FB8
:103E1000D432C1F740E06D2F8C2F0E94CA1EDF5FA5
:103E2000D43BC1F74BE06DEF8C2F0E94CA1E41E0DE
:103E30006AE08C2F0E94CA1E40E06DEF8C2FDF914C
:103E4000CF910C94CA1E7F928F929F92AF92BF9295
:103E5000CF92DF92EF92FF920F931F93CF93DF9356
:103E60001092B9008CE08093B80084E70E94D31EC2
:103E700087E70E94D31EE4E2EE2EE1E0FE2EC12C85
:103E8000D12CF2E17F2EA8E08A2E912CAA24A394B3
:103E9000B12CF7013297608170E0CB0184973196A5
:103EA000E081F0E0B497D7012C9130E02452310941
:103EB000D601AA0FBB1FAA0FBB1FAF5DBE4FCC918F
:103EC000C370D0E0AC0197FF02C0495F5F4F63E071
:103ED000559547956A95E1F77C9E80017D9E100D72
:103EE0001124040F111D0D5A1B4FB4010E94112BF8
:103EF000A50102C0440F551F8A95E2F7CA01D801F7
:103F00009C91892B8C93CF01F7FD079653E09595F3
:103F100087955A95E1F77C9E80017D9E100D1124B6
:103F2000080F111D0D5A1B4FCF01B4010E94112B18
:103F3000F50102C0EE0FFF1F8A95E2F7CF01D8010D
:103F40009C91892B8C93C90137FD079643E0959589
:103F500087954A95E1F77C9EF0017D9EF00D112436
:103F6000E80FF11DED5AFB4FC901B4010E94112B5E
:103F7000950102C0220F331F8A95E2F7C901908193
:103F8000892B80833FEFC31AD30A44E0E40EF11C6F
:103F900050E3C516D10409F07CCF81E0809377040B
:103FA00003E514E0C0E0D0E0D8014D918D016C2F05
:103FB00084E70E94CA1EFE01ED5AFB4F42896C2F16
:103FC00087E70E94CA1E2196C231D10569F7DF91A9
:103FD000CF911F910F91FF90EF90DF90CF90BF9006
:103FE000AF909F908F907F900895EF92FF920F93E4
:103FF0001F93CF93DF93CDB7DEB767970FB6F894D3
:10400000DEBF0FBECDBF4B8B5C8B6D8B7E8B8F8BE2
:104010000E891F8901151105C1F15F3F11F44F3F52
:10402000A1F1E42EF12CA1E0B0E0042E01C0AA0F12
:104030000A94EAF7852F90E0662319F02091D703C0
:1040400006C09C0121563A4FF90120812A232223E0
:10405000A9F046E0489F9001499F300D1124F701D7
:10406000E20FF31FEE0FFF1FEF51FE4F4081518112
:10407000FC01E156FA4F9081A92B06C0FC01E156E4
:10408000FA4FA0958081A823A08386E0FE013D968B
:10409000DF01982F1D929A95E9F74D875E876F870C
:1040A000198B088BDE01179601900D928A95E1F726
:1040B000CE0107960E94BD1A811137C086E0FE012D
:1040C0003796DE01119601900D928A95E1F7FF81F6
:1040D000E8856A857B856115710539F1EF3F11F43B
:1040E000FF3F19F12091DE0330E0C901019687708E
:1040F000992740910F0450E08417950779F1F983CF
:10410000EA837D836C8396E0929FD001939FB00DEC
:104110001124A152BC4FFE01319601900D929A9547
:10412000E1F78093DE030E94581A16E080910F0495
:104130009091DE03891711F1189FC001112481525B
:104140009C4F0E94BD1A8823C9F080910F0490E013
:1041500001968770992780930F04E8CF1092AD05E0
:104160000E940D291092DE0310920F04E8EDF3E097
:1041700086E0DF011D928A95E9F7D7CF67960FB6E3
:10418000F894DEBF0FBECDBFDF91CF911F910F918D
:10419000FF90EF90089520919D0530919E05821724
:1041A000930771F090939E0580939D05E091940391
:1041B000F0919503309721F00084F185E02D09946A
:1041C000089520919B0530919C058217930771F00B
:1041D00090939C0580939B05E0919403F091950347
:1041E000309721F00680F781E02D09940895E09141
:1041F0009403F0919503309721F00190F081E02D28
:10420000099480E008956F927F928F929F92AF926F
:10421000BF92CF92DF92EF92FF920F931F93CF93B3
:10422000DF931F92CDB7DEB7742E622EFC01828120
:10423000882331F16093700369830E94751790930E
:104240009A0580939905698180E2860F883008F08D
:1042500080C0677081E001C0880F6A95EAF70F900F
:10426000DF91CF911F910F91FF90EF90DF90CF9052
:10427000BF90AF909F908F907F906F900C942B2960
:104280009091700396134AC04091990550919A05F8
:104290008FB7F8940091790310917A0320917B03F2
:1042A00030917C038FBF48015901AA24BB246A01C5
:1042B000E12CF12C041B150B8C149D04AE04BF04DF
:1042C00010F401501109083C110540F510E2170DDA
:1042D0009715B9F080E2890F883040F4977081E03B
:1042E00001C0880F9A95EAF70E942029183048F4F7
:1042F00081E0972D977001C0880F9A95EAF70E9488
:104300002B29862D0E94A22A183018F5972D977018
:1043100081E001C0880F9A95EAF70AC080E2860F13
:104320008830B8F4677081E001C0880F6A95EAF7B9
:104330000F90DF91CF911F910F91FF90EF90DF9041
:10434000CF90BF90AF909F908F907F906F900C9484
:1043500020290F90DF91CF911F910F91FF90EF9047
:10436000DF90CF90BF90AF909F908F907F906F9095
:1043700008950C94871CAB01BC0180E190E00C9483
:10438000DB2AE8EFF5E0880F880F90819370892B86
:1043900080831092080160817181828193810C94E5
:1043A000BB219091F805892F86958695815C8F7346
:1043B0009370882321F0880F880F892B02C0892FE2
:1043C00080658093F805109208016091F80570915E
:1043D000F9058091FA059091FB050C94BB21909111
:1043E000F805892F869586958F5F8F739370853139
:1043F00020F4880F880F892B02C0892F8460809356
:10440000F805109208016091F8057091F905809106
:10441000FA059091FB050C94BB21E8EFF5E08DE2E5
:10442000808311828FEF828383838FE7848360810F
:104430007181828193810C94BB21482F982F46FD76
:104440009095E92FEF739F7046FD9F5FE295EF70A7
:10445000EE0FF0E0E75EFE4F2181299F802D212D98
:10446000112482958F702295207F822B3081982F86
:10447000930F892F47FD819580580895BC018230A4
:10448000910508F40895613E8EE1780748F49B0198
:1044900095E0369527959A95E1F748E0420F01C0DF
:1044A0004FEF91E0242F30E0290F311D35952795EE
:1044B000229FF001239FF00DF00D11246E177F074E
:1044C00018F44FEF420F05C02F3F310539F091E04E
:1044D000920F491738F78FEF890F08958FEF0895DE
:1044E0000F931F93CF938C01C22F67FD6195E8E373
:1044F000F0E0CF01861B910967FD9395889F90019D
:10450000899F300D300D1124449FC001459F900DAF
:10451000900D1124820F931F0E943E22982F880F26
:10452000980F9C0FF8019083CF911F910F910895E0
:1045300020E030E0A901869F412D969F400D511D3E
:104540001124CA010895CF92DF92EF92FF920F9348
:104550001F93CF93DF937B01282F382FE82FF0E0B4
:10456000F11006C0E05DFA4F6491762F862F7BC074
:104570000F2D10E046E0649FC0011124CFEFD0E082
:10458000BE010E94FD2AAB016BEA6403C001659F76
:10459000900D11248E0D911D8E0D911D982F990F48
:1045A000980FBE01601B710B6E9FD0016F9FB00D05
:1045B0007E9FB00D11248B2F9F9DB0011124672F7A
:1045C00077277E01E61AF70AB7016E9F70016F9F89
:1045D000F00C7E9FF00C11246E01C91AD108C09E08
:1045E000B001C19E700DD09E700D1124672F7727EA
:1045F000C61BD70BCE9F8001CF9F100DDE9F100DE5
:104600001124712F4230510591F04CF441155105A0
:10461000D9F041305105B1F4722F2F2D15C044301F
:10462000510561F044F04630510571F00BC02B2F5D
:10463000812F732F09C07F2D2B2F02C0212F7B2F9D
:10464000832F02C07B2F8F2DE22FF0E0E05DFA4F29
:104650006491E72FF0E0E05DFA4F7491E82FF0E00D
:10466000E05DFA4F8491DF91CF911F910F91FF9000
:10467000EF90DF90CF900895609180038CE090E000
:104680000C94C92A9091920392FF0DC0282F287193
:10469000283019F4877F846006C0282F24712430C5
:1046A00011F48B7F886093FF0DC0282F287128316B
:1046B00019F4877E846106C0282F2471243111F4F7
:1046C0008B7E886194FD877E0895CF93DF938093DE
:1046D000BB0084E88093BC000E947517EC019091A8
:1046E000BC0097FD0AC00E9475178C1B9D0B843679
:1046F0009105A8F38EEF9FEF0CC02091B900287FA1
:1047000081E090E0283211F480E090E0919581956D
:104710009109DF91CF9108950F931F93CF93DF936A
:10472000C82F1092BC0084EA8093BC000E947517C9
:104730008C019091BC0097FD0AC00E947517801BE8
:10474000910B84369105A8F38EEF9FEF2AC09091CC
:10475000B900987F983041F09091B900987F9031DE
:1047600019F08FEF9FEF1DC0C093BB0084E88093CA
:10477000BC000E947517EC019091BC0097FD08C029
:104780000E9475178C1B9D0B84369105A8F3DCCF16
:104790008091B900887F883111F0803411F780E072
:1047A00090E0DF91CF911F910F9108959F92AF926A
:1047B000BF92CF92DF92EF92FF920F931F93CF930E
:1047C000DF9300D000D0CDB7DEB76C011091160199
:1047D000110F812F880F880F180F3AE0310F3133F6
:1047E00008F030E38091F90589838091FA058A8386
:1047F0008091FB058B836091FC05669566958091A1
:10480000F0059091F1053C830E949822F82E80E4F7
:104810008F0D0E941D2290E8E92EE80E8F2D0E9438
:104820001D2220E8922E980E3C81131700F5A12E30
:10483000B12CF501E35CFC4F808190911701982326
:10484000A1F00F2D212F492D6E2DCE0101963C8315
:10485000F601099569817A818B810E94A322472FF5
:10486000282FC5010E94B9213C811F5FDECF81E066
:10487000303308F080E00F900F900F900F90DF9191
:10488000CF911F910F91FF90EF90DF90CF90BF904D
:10489000AF909F9008957F928F929F92AF92BF9218
:1048A000CF92DF92EF92FF920F931F93CF93DF93FC
:1048B00000D000D0CDB7DEB75C0110911601110F0A
:1048C000812F880F880F180F3AE0310F313308F02D
:1048D00030E38091F90589838091FA058A8380917C
:1048E000FB058B836091FC0566958091F0059091A6
:1048F000F1053C830E949822782E3C81131708F022
:1049000044C0812E912CF401E35CFC4F9081809196
:1049100017018923C1F1F401EE0FFF1FE352FD4F90
:10492000E080F12C80E7E81AF108F401EE0FFF1F98
:10493000E252FD4FC080D12CE0E2CE1AD108EE9CAD
:10494000A001EF9C500D500D1124CC9CC001CD9CBA
:10495000900D900D1124840F951F3C830E943E22E0
:10496000072D282FA601B701CE010196F501099563
:1049700069817A818B810E94A322472F282FC4014D
:104980000E94B9213C811F5FB9CF81E0303308F02C
:1049900080E00F900F900F900F90DF91CF911F91BB
:1049A0000F91FF90EF90DF90CF90BF90AF909F90CE
:1049B0008F907F900895BF92CF92DF92EF92FF92F7
:1049C0000F931F93CF93DF9300D01F92CDB7DEB725
:1049D0006C0110911601110F812F880F880F180F8D
:1049E0000AE0010F013308F000E38091F9058983A3
:1049F0008091FA058A838091FB058B836091FC0589
:104A000066958091F0059091F1050E949822B82E4C
:104A1000101768F5E12EF12CF701E35CFC4F908153
:104A200080911701892309F1F701EE0FFF1FE25270
:104A3000FD4F408150E040525109F701EE0FFF1F3A
:104A4000E352FD4F608170E0605771092B2DCE015C
:104A50000196F601099569817A818B810E94A322D2
:104A6000472F282FC7010E94B9211F5FD1CF81E0B6
:104A7000003308F080E00F900F900F90DF91CF91FE
:104A80001F910F91FF90EF90DF90CF90BF9008950E
:104A9000BF92CF92DF92EF92FF920F931F93CF932B
:104AA000DF9300D01F92CDB7DEB77C0110911601C5
:104AB000110F812F880F880F180F0AE0010F0133A3
:104AC00008F000E38091F90589838091FA058A83D3
:104AD0008091FB058B836091FC05669566958091BE
:104AE000F0059091F1050E949822B82E1017E0F47D
:104AF000C12ED12CF601E35CFC4F8081909117010F
:104B0000982381F04B2D612FCE010196F701099575
:104B100069817A818B810E94A322472F282FC601A9
:104B20000E94B9211F5FE2CF81E0003308F080E0EE
:104B30000F900F900F90DF91CF911F910F91FF90E9
:104B4000EF90DF90CF90BF900895CF93DF93EC016B
:104B500080EEFE01099581EEFE01DF91CF9109946F
:104B60000F931F93CF93DF938B010E948C23CCED87
:104B7000D5E004521A4FC017D10741F424E920931D
:104B8000BC00DF91CF911F910F91089597FDF6CF53
:104B900089910E946523EFCFCF92DF92FF920F930E
:104BA0001F93CF93DF931F92CDB7DEB7F82E8B0103
:104BB00099830E943113998181111CC0CF2CD92E69
:104BC00001151105B1F08091E80085FD0AC08091C2
:104BD000E8008E778093E8000E943113882381F3E8
:104BE00009C0F60181916F018093F1000150110914
:104BF000E7CF80E00F90DF91CF911F910F91FF9051
:104C0000DF90CF9008951F93CF93DF93CDB7DEB79A
:104C1000AA970FB6F894DEBF0FBECDBFE4EDF5E066
:104C200088E08E0F9091F10091938E13FBCF8091CD
:104C3000D505833009F460C030F4813071F08230E2
:104C400009F49CC0B3C08A3009F488C08B3009F4E1
:104C50006BC0893009F0AAC020C08091D405813A88
:104C600009F0A4C08091E800877F8093E8008091DC
:104C7000D8059091D905892B21F460E280EB95E06D
:104C800003C060E080E090E070E00E94F314809147
:104C9000E8008B778093E80089C08091D405813249
:104CA00009F084C08091D8059091D905029708F049
:104CB0007DC08091E800877F8093E8008091E800C4
:104CC00082FD05C08091D2058111F8CF6FC020917F
:104CD000F3008091F20090E0922B029729F48091EA
:104CE000F1008B7F813021F48091F1008093AF053A
:104CF0008091E8008B7756C08091D405813A09F005
:104D000055C08091D8059091D905892B09F04EC0E6
:104D10008091E800877F8093E8008091E80080FF21
:104D2000FCCF8091150139C08091D4058132F1F515
:104D30008091D8059091D905892BC1F58091E80023
:104D4000877F8093E8000E9463138091D60580934B
:104D500015011092AD050E940D2928C08091D4053F
:104D6000813221F58091E800877F8093E8000E94DE
:104D700063138091D7058093AE0518C08091D40548
:104D8000813AA1F48091E800877F8093E8008091C8
:104D9000E80080FFFCCF8091AE058093F100809108
:104DA000E8008E778093E8000E9463138091E8000A
:104DB00083FFD6C18091D4059091D505492F50E04D
:104DC0004A30510508F0CCC1FA01E455FF4F0C946C
:104DD000252B803821F0823809F0C2C108C08091AB
:104DE000D0059091D105992389F082600FC0809100
:104DF000D8058F70873008F0B3C18093E9008091A7
:104E0000EB0085FB882780F91092E9009091E8007B
:104E1000977F9093E8008093F1001092F10074C1A5
:104E2000282F2D7F09F09CC1882319F0823061F072
:104E300097C18091D605813009F092C1933009F075
:104E400080E08093D1052EC08091D60581112AC0C3
:104E50008091D8058F702FEF280F263008F080C181
:104E60008093E9002091EB0020FF1CC0933021F4D7
:104E70008091EB00806214C09091EB009061909360
:104E8000EB0021E030E0A90102C0440F551F8A95D4
:104E9000E2F74093EA001092EA008091EB0088600C
:104EA0008093EB001092E9008091E800877F2FC18A
:104EB000811156C11091D6051F778091E30080784B
:104EC000812B8093E3008091E800877F8093E80046
:104ED0000E9463138091E80080FFFCCF8091E30083
:104EE00080688093E300111102C082E001C083E07A
:104EF0008093D20535C18058823008F031C180914D
:104F0000D6059091D7058C3D53E0950779F583E060
:104F10008A838AE289834FB7F894DE01139620E0F2
:104F20003EE051E2E32FF0E050935700E49120FF80
:104F300003C0E295EF703F5FEF708E2F90E0EA3094
:104F400010F0C79601C0C0968D939D932F5F2431BA
:104F500049F74FBF8091E800877F8093E8006AE2BD
:104F600070E0CE0101960E94F314BDC04091D805B7
:104F70005091D905292F332723303105B9F06CF42E
:104F80002130310509F4FBC02230310509F0E8C0B9
:104F90008BE390E0E1EEF6E054C02132310509F4F4
:104FA00033C02232310509F43CC0DAC09927813080
:104FB0009105D1F05CF4892B09F0D2C0E4E6F7E06A
:104FC000E4918E2F90E0E4E6F7E038C0823091055E
:104FD00099F0039709F0C4C0EEE2F7E0E4918E2F58
:104FE00090E0EEE2F7E02AC0ECE4F7E0E4918E2FE7
:104FF00090E0ECE4F7E022C0E4E3F7E0E4918E2FE8
:1050000090E0E4E3F7E01AC04115510509F4BCC093
:105010004130510509F0A4C089E090E0ECE0F7E0F0
:1050200010C04115510509F4B4C04130510509F0D3
:1050300097C081E790E0E0E3F6E003C0009709F451
:105040008FC02091E800277F2093E8002091DA05A7
:105050003091DB052817390708F4C90140E00097B3
:1050600089F12091D205222309F43DC02530D9F1E0
:105070002091E80023FD37C02091E80022FD2FC0D9
:105080002091E80020FFEBCF4091F3002091F20047
:1050900030E0342B009759F02830310540F444912A
:1050A0004093F100319601972F5F3F4FF3CF41E0DE
:1050B0002830310509F040E02091E8002E77209358
:1050C000E800CDCF4111CDCF0AC08091D205882311
:1050D00051F0853041F08091E80083FD04C080915B
:1050E000E80082FFF2CF8091E8008B778093E800A0
:1050F00037C08038A9F58091E800877F8093E80069
:105100008091D3058093F1008091E8008E778093A1
:10511000E8000E94631324C0811122C01091D605BB
:105120001230F0F48091E800877F8093E8001093BC
:10513000D3050E946313111106C08091E30087FD1F
:1051400002C081E001C084E08093D20542E061ECBE
:1051500081E00E94821342E261EC82E00E948213AD
:105160008091E80083FF1AC08091E800877F8093D8
:10517000E8008091EB0080628093EB000FC082E139
:1051800090E0ECE1F7E05DCF89E090E0E3EFF6E05E
:1051900058CF80E490E0E1EAF6E053CFAA960FB64C
:1051A000F894DEBF0FBECDBFDF91CF911F91089560
:1051B0000E944E19292F2F7092959F70E92FF0E0D1
:1051C0003297EE30F105B8F4EA54FF4F0C94252BDA
:1051D000803F99F018F4803E70F40FC0843F59F47A
:1051E0000CC0803E50F0813F31F407C0822F86957D
:1051F00086958695089580E0089581E0089510923F
:105200004D0410924C040E94C71880E090E00E9468
:10521000E12080E090E00C94CB2080911501882360
:1052200031F08091920387FF02C08EE101C086E0D9
:10523000E8EBF3E0DF011D928A95E9F70C94FF2873
:10524000882341F080959091AD0589238093AD0529
:105250000C94C7180895882339F09091AD05892BD7
:105260008093AD050C94C7180895882309F458C09D
:10527000682F823869F40E94F72081FF51C069E3EA
:1052800086EB93E00E94D5170E94C71869E30EC011
:10529000833891F40E94F72080FF42C063E586EBDB
:1052A00093E00E94D5170E94C71863E586EB93E050
:1052B0000E94AA170C94C718843869F40E94F7203A
:1052C00082FF2EC067E486EB93E00E94D5170E9410
:1052D000C71867E4EBCF8CEF860F813A38F380E292
:1052E000860F883070F4677081E090E001C0880F0D
:1052F0006A95EAF780959091AD0589238093AD0575
:10530000D9CF8BE5860F833020F480E090E00C94B9
:10531000E120685A673120F480E090E00C94CB20C3
:105320000895882309F40DC1682F8238B1F40E94D2
:10533000F72081FD06C169E386EB93E00E94D51753
:105340000E94C7182FEF81EE94E0215080409040DA
:10535000E1F700C0000069E317C08338D9F40E9468
:10536000F72080FDEEC063E586EB93E00E94D51741
:105370000E94C7182FEF81EE94E0215080409040AA
:10538000E1F700C0000063E586EB93E00E94AA17F6
:105390000C94C7188438B1F40E94F72082FDD1C064
:1053A00067E486EB93E00E94D5170E94C7182FEFA1
:1053B00081EE94E0215080409040E1F700C0000071
:1053C00067E4E2CF8CEF860F813A28F486EB93E016
:1053D0000E94D517DDCF80E2860F883068F46770B1
:1053E00081E090E001C0880F6A95EAF79091AD05E1
:1053F000892B8093AD05CCCF8BE5860F833070F47D
:10540000653A29F0663A31F083E890E005C081E81A
:1054100090E002C082E890E00C94E12088E5860FDD
:10542000873108F08EC0683A09F445C0693A09F43A
:1054300045C06A3A09F445C06B3A09F445C06C3A74
:1054400009F445C06B3B09F445C06C3B09F445C009
:105450006D3A09F445C0603B09F445C06E3A09F461
:1054600045C06F3A09F445C0613B09F445C0623B51
:1054700009F445C0633B09F445C0643B09F445C0E9
:10548000653B09F445C0663B09F445C0673B09F438
:1054900045C0683B09F445C0693B09F445C06D3B14
:1054A00009F445C06E3B09F445C06A3B09F445C0A8
:1054B00080E090E044C082EE90E041C089EE90E050
:1054C0003EC08AEE90E03BC085EB90E038C086EBB2
:1054D00090E035C083EB90E032C084EB90E02FC0C9
:1054E00087EB90E02CC08CEC90E029C08DEC90E034
:1054F00026C083E891E023C08AE891E020C082E9D9
:1055000091E01DC084E991E01AC081E292E017C0E9
:1055100083E292E014C084E292E011C085E292E05E
:105520000EC086E292E00BC087E292E008C08FE6F0
:1055300090E005C080E790E002C08AE292E00C941F
:10554000CB200895CF93C82F0E949129C93349F4E5
:105550002FEF83EC99E0215080409040E1F700C0AC
:1055600000008C2FCF910C943529F999FECF92BD74
:1055700081BDF89A992780B50895A6E1B0E044E08E
:1055800050E00C94EF2AA8E1B0E042E050E00C9427
:10559000EF2A262FF999FECF92BD81BDF89A019787
:1055A00000B4021639F01FBA20BD0FB6F894FA9A6B
:1055B000F99A0FBE08950396272F0E94CA2A0E94C7
:1055C000C92A252F0E94CA2A242F0C94CA2A019680
:1055D000272F0E94CA2A0C94C92ADC01CB01FC01A6
:1055E000F999FECF06C0F2BDE1BDF89A319600B43C
:1055F0000D9241505040B8F70895AA1BBB1B51E1D2
:1056000007C0AA1FBB1FA617B70710F0A61BB70B32
:10561000881F991F5A95A9F780959095BC01CD01D7
:10562000089597FB072E16F4009407D077FD09D054
:105630000E94FD2A07FC05D03EF4909581959F4F6E
:105640000895709561957F4F0895EE0FFF1F0590A7
:10565000F491E02D0994CF93DF938230910510F4FB
:1056600082E090E0E091FF05F091000620E030E05C
:10567000C0E0D0E0309711F14081518148175907BF
:10568000C0F04817590761F482819381209719F07F
:105690009B838A832BC0909300068093FF0526C0CE
:1056A0002115310519F04217530718F49A01BE016C
:1056B000DF01EF010280F381E02DDCCF2115310500
:1056C00009F1281B390B2430310590F412968D9185
:1056D0009C9113976115710521F0FB0193838283DF
:1056E00004C0909300068093FF05FD01329644C0EC
:1056F000FD01E20FF31F81939193225031092D9305
:105700003C933AC02091FD053091FE05232B41F4D6
:1057100020910201309103013093FE052093FD0595
:1057200020910001309101012115310541F42DB77F
:105730003EB74091040150910501241B350BE091C7
:10574000FD05F091FE05E217F307A0F42E1B3F0BB9
:105750002817390778F0AC014E5F5F4F24173507E3
:1057600048F04E0F5F1F5093FE054093FD05819357
:10577000919302C0E0E0F0E0CF01DF91CF91089576
:105780000F931F93CF93DF93009709F48CC0FC0114
:105790003297138212820091FF05109100060115C5
:1057A000110581F420813181820F931F2091FD0525
:1057B0003091FE052817390779F5F093FE05E0933F
:1057C000FD0571C0D80140E050E0AE17BF0750F4AE
:1057D00012962D913C911397AD012115310509F1D8
:1057E000D901F3CF9D01DA01338322836081718176
:1057F000860F971F8217930769F4EC01288139817E
:10580000260F371F2E5F3F4F318320838A819B8174
:1058100093838283452B29F4F0930006E093FF05E0
:1058200042C01396FC93EE931297ED014991599162
:105830009E01240F351FE217F30771F480819181D7
:10584000840F951F029611969C938E93828193816B
:1058500013969C938E931297E0E0F0E0D801129695
:105860008D919C911397009719F0F8018C01F6CF58
:105870008D919C9198012E5F3F4F820F931F209135
:10588000FD053091FE052817390769F4309729F492
:10589000109200061092FF0502C01382128210932C
:1058A000FE050093FD05DF91CF911F910F910895A3
:0458B000F894FFCF9A
:1058B400000001062000FFFF0320002A12A1122984
:1058C400126B122D120100FF00003131295A1B7591
:1058D4000A00443454007464840055456500857599
:1058E400950036264600665676009686A60037272B
:1058F4004700776787003828480088789800392956
:105904004900695979009989A9003A2A4A006A5AD2
:105914007A003B2B4B006B5B7B004C3C5C007C6C4B
:105924008C005D4D6D008D7D9D003E2E4E006E5EA3
:105934007E014434540174648401554565018575C0
:10594400950136264601665676019686A6013727C6
:1059540047017767870138284801887898013929F1
:105964004901695979019989A9013A2A4A016A5A6E
:105974007A013B2B4B016B5B7B014C3C5C017C6CE7
:105984008C015D4D6D018D7D9D013E2E4E016E5E3F
:105994007E000D010D020D030D040D050D000C011B
:1059A4000C020C030C040C050C000B010B020B0382
:1059B4000B040B050B000A010A020A030A040A0578
:1059C4000A0009010902090309040905090008017B
:1059D4000802080308040805080007010702070372
:1059E4000704070507000601060206030604060568
:1059F400060005010502050305040505050004016B
:105A04000402040304040405040003010302030361
:105A14000304030503000201020202030204020557
:105A2400020001010102010301040105010000015A
:105A3400000200030004000500FFFFFFFFFFFF1C3E
:105A440021262B2FFF1B20252A2EFF1A1F24292D48
:105A5400FF191E23282CFF181D2227FFFFFFFFFF1D
:105A6400FFFFFFFFFFFFFFFFFF00050A0FFFFF011E
:105A7400060B1014FF02070C1115FF03080D121674
:105A8400FF04090E1317FFFFFFFFFFFFFF89009AB2
:105A940000AC00BD00CE00890C9A0CAC0CBD0CCE41
:105AA4000C89199A19AC19BD19CE1989269A26ACF4
:105AB40026BD26CE269A33AC33BD33CE33560044AE
:105AC40000330022001100560C440C330C220C113C
:105AD4000C56194419331922191119562644263320
