:100000000C940B040C9428040C9428040C942804DD
:100010000C9428040C9428040C9428040C942804B0
:100020000C9428040C9428040C94AD0F0C94EF0E3F
:100030000C94F3130C9428040C9428040C942804B6
:100040000C9428040C9428040C9428040C94280480
:100050000C9428040C94A6130C9428040C942804E3
:100060000C9428040C9428040C9428040C94280460
:100070000C9428040C9428040C9428040C94280450
:100080000C9428040C9428040C9428040C94280440
:100090000C9428040C9428040C9428040C94280430
:1000A0000C9428040C9428040C94280438053D056D
:1000B00047053B0540054505430500060E061306AA
:1000C00018061D06220627062C06310636063B06B4
:1000D0004206B806B806B806B806B806B806B806A6
:1000E000B806B8062007200753075307D007ED08C6
:1000F000ED08ED08EE07620873087308BC0ABF0A32
:10010000C20AC50AC80ACB0ACE0A070D2E0DD70EA1
:100110002E0DD70E7A0D9D0DD70E920EA20E000059
:1001200000000000000000000000000000000000CF
:1001300000000000000000000000000000000000BF
:1001400000000000000000000000000000000000AF
:10015000000000000000000000000000000000009F
:10016000000000000000000000000000000000008F
:10017000000000000000000000000000000000007F
:10018000000000000000000000000000000000006F
:10019000000000000000000000000000000000005F
:1001A000000000000000000000000000000000004F
:1001B000000000000000000000000000000000003F
:1001C0000000000000000000000000005C9AD85C05
:1001D0009AD85C9AD85C9AD8000000000000000011
:1001E000000000000000000000000000000000000F
:1001F00000000000000000000000000000000000FF
:10020000000000000000000029FFFF29FFFF5C9AAA
:10021000D800000000000029FFFF29FFFF000000B8
:100220000000005C9AD88BDBC08BDBC08BDBC0008E
:10023000000000000000000000000000000011DAD3
:10024000CC11DACC11DACC11DACC11DACC11DACC4F
:100250000000000000000000000000008BDBC00078
:1002600000008BDBC08BDBC08BDBC000000000001C
:10027000000000000000000000000000000000007E
:1002800000000000000011DACC11DACC11DACC1138
:10029000DACC11DACC11DACC00000000000000004A
:1002A000000000008BDBC00000008BDBC08BDBC0DC
:1002B0008BDBC00000000000000000000000000018
:1002C0000000000000000000000000000000050128
:1002D0000980A101850319012AB700150126B7007D
:1002E000950175108100C0050C0901A10185041953
:1002F000012AA002150126A002950175108100C0F7
:1003000005010906A1018506050719E029E7150081
:1003100025019508750181020507190029EF1500CF
:10032000250195F07501810205081901290595053A
:1003300075019102950175039101C00660FF096185
:10034000A1010962150026FF0095207508810209A8
:1003500063150026FF00952075089102C00501096C
:1003600006A101050719E029E71500250195087583
:100370000181029501750881010507190029FF1502
:100380000026FF009506750881000508190129055A
:1003900015002501950575019102950175039101DF
:1003A000C009025B00030100A0FA09040000010378
:1003B0000101000921110100012244000705810308
:1003C00008000109040100020300000009211101D5
:1003D0000001222200070582032000010705030314
:1003E000200001090402000103000000092111019D
:1003F0000001226D000705840320000112010002A4
:100400000000000897327649010001020001200334
:100410004500720067006F0044006F007800200004
:1004200045005A00200047006C006F007700000074
:1004300028035A0053004100200054006500630067
:1004400068006E006F006C006F006700790020008C
:100450004C00610062007300000004030904000105
:100460000101010101010101020202020202020274
:100470000203030303030303030404040404040446
:10048000050505050506060606060707070707080A
:10049000080808090909090A0A0A0B0B0B0C0C0CBD
:1004A0000D0D0D0E0E0E0F0F0F1010111111121257
:1004B00013131414151516161717181819191A1AD4
:1004C0001B1B1C1D1D1E1E1F202021222223242435
:1004D000252626272829292A2B2C2D2D2E2F303171
:1004E0003232333435363738393A3B3C3D3E3F4083
:1004F0004142434445464748494A4C4D4E4F50516E
:100500005354555658595A5B5D5E5F616264656627
:1005100068696B6C6D6F7072737577787A7B7D7EAE
:100520008082838587888A8C8E8F91939596989AFE
:100530009C9EA0A2A3A5A7A9ABADAFB1B3B5B7BA16
:10054000BCBEC0C2C4C6C9CBCDCFD1D4D6D8DBDDEA
:10055000DFE2E4E7E9EBEEF0F3F5F8FAFDFF004443
:1005600034540074648400554565008575950036E3
:10057000264600665676009686A6003727470077FF
:100580006787003828480088789800392949006929
:100590005979009989A9003A2A4A006A5A7A003B97
:1005A0002B4B006B5B7B004C3C5C007C6C8C005DDF
:1005B0004D6D008D7D9D003E2E4E006E5E7E014491
:1005C000345401746484015545650185759501367F
:1005D000264601665676019686A60137274701779B
:1005E00067870138284801887898013929490169C5
:1005F0005979019989A9013A2A4A016A5A7A013B33
:100600002B4B016B5B7B014C3C5C017C6C8C015D7A
:100610004D6D018D7D9D013E2E4E016E5E7E290049
:100620002B003500E100010000001E001400042230
:100630001D00010021521F001A0016241B0001009A
:100640002900200008000728060001002A002100D8
:1006500015000921190021520100220017000A008B
:10066000050000002302010001000000010000005D
:1006700001000100010000002E0000000100230025
:100680001C000B00110000002102240018000D3195
:1006900010002252010025000C000E383600010027
:1006A0002C00260012000F2437000100280027002C
:1006B000130033323800010022522D003100340083
:1006C000E50001000000010001000100010001003F
:1006D0000000010001000100010001000100010013
:1006E0004F0101001B010100010001002F002F023A
:1006F000060101004C000100300030021901010028
:100700000100010001000100500100004A00010049
:1007100001000000010000000100010001000000D4
:100720000100000001000100010050000100000074
:100730004D00010001005100010001000100010015
:1007400001005200010001000100010001004F0002
:100750000100010001000100010001000100010091
:100760000100010001000100010001000000010082
:10077000010001002078010000003A0001000100A2
:100780000100010001003B00010001000100010027
:1007900001003C0001000100010001004C003D008F
:1007A000010001000100010001003E0044000100C1
:1007B0000100000001000100010000000100000034
:1007C00001000100010000000100000001003F00E5
:1007D000450001000100000001004000010001008F
:1007E00001000100010041000100010001000100C1
:1007F000010042000100010001000100010043006E
:1008000001000100010001000100010001000100E0
:1008100001000100000011241FBECFEFDAE0DEBFAF
:10082000CDBF12E0A0E0B1E0E2E2FDE402C005903D
:100830000D92A235B107D9F724E0A2E5B2E001C0DC
:100840001D92A83EB207E1F70E94521D0C948F261C
:100850000C940000A6E0B0E0E0E3F4E00C94222366
:1008600049835A8349815A81992361F0222351F0A7
:10087000CA010E94C01F182F682F89819A810E9487
:10088000302004C0CA010E94FC1F182F69817A81A0
:10089000812F0E942B182696E3E00C943E231092A1
:1008A00059020E94CC202FEF84E39CE0215080402D
:1008B0009040E1F700C000009AE088E10FB6F8949C
:1008C000A895809360000FBE90936000FFCFA4E3D3
:1008D000B0E0EDE6F4E00C941F234FA758AB69ABF2
:1008E0007AAB8BAB9CAB192F911110928B04DE016C
:1008F000989687E0FD0111928A95E9F786E0FE015E
:10090000BF9601900D928A95E1F7EFA4F8A80BA984
:100910000023C9F021E0A7016AA57BA5C8010E94B8
:100920002A0480918702882371F0111102C087E0A8
:1009300001C086E08983EA82FB828EEF8C83CE0140
:1009400001960E94E110E8A6F9A60CA71DA787E072
:10095000FE01B896DE01919601900D928A95E1F71D
:10096000CE0181960E94CE1A81112CC087E0FE0133
:10097000B196DE01119601900D928A95E1F76DA175
:10098000662301F120912F0430E0C90101968770A0
:1009900099274091680450E08417950761F16D83B1
:1009A00097E0929FD001939FB00D1124A05DBB4FA3
:1009B000FE01319601900D929A95E1F780932F04F4
:1009C0000E946B1A17E08091680490912F04891798
:1009D00009F1189FC0011124805D9B4F0E94CE1A1F
:1009E0008823C1F08091680490E001968770992770
:1009F00080936804E8CF109259020E94CC20109294
:100A00002F0410926804E8E2F4E087E0DF011D9211
:100A10008A95E9F7E496E6E00C943B23982F9295AB
:100A20009F7019F0892F24E001C020E0982F96953F
:100A3000969511F02E5F892F982F969509F02F5FCC
:100A4000822F0895CF93C82F0E940E0556985E9866
:100A500025982D9826982E9827982F9890E0FC019D
:100A60003197E730F105A8F4EA5AFF4F0C945B2563
:100A7000259A2D9A0EC0259A2D9A269A2E9A09C04B
:100A8000259A2D9A04C0259A2D9A269A2E9A279A4D
:100A90002F9A8C2FCF910895A0E0B0E0E2E5F5E029
:100AA0000C941C23FC018481882309F4BDC38F01AD
:100AB00021E0408151816281738195810E942A04E5
:100AC000EC01F8018581C115FEE7DF0759F0C1305F
:100AD0002EE7D20709F440C0C03298E7D90709F0E1
:100AE00075C05CC0882309F47DC09091980281E0B4
:100AF000890F8770987F853020F4892B8093980226
:100B000002C090939802809198028770EFEF8E9FB9
:100B1000C001112495958795959587959927909370
:100B200089008093880090938B0080938A00909333
:100B30008D0080938C0040919802509199026091B1
:100B40009A0270919B028FE090E00E94992380911D
:100B500097020E94220542C0882309F443C0809175
:100B6000980283FB222720F991E0922790FB83F9DA
:100B700080939802992329F040E060E080E00E9491
:100B80001615409198025091990260919A027091C5
:100B90009B028FE090E00E94992320C0882309F4F3
:100BA000E7C09091900280918A029F3F59F4109281
:100BB0009002816080938A0240E060E080E00E94C1
:100BC0001615D6C09FEF9093900224C0C230FEE766
:100BD000DF0721F4882309F4CBC054C0F8018581D4
:100BE000811154C0809159028272FE01E052F8478F
:100BF000E531F10508F0CEC0E35AFF4F0C945B25B8
:100C000090918B0281E0892780938B0210920701DB
:100C100080918A02816080938A02AAC049E553E1EB
:100C200063E673E12CC043E653E169E573E127C055
:100C300045E453E16FE473E122C04FE453E165E41E
:100C400073E11DC04BE253E168E373E118C048E370
:100C500053E16BE273E113C041E153E16EE173E1F3
:100C60000EC04EE153E161E173E109C04DE051E195
:100C70006BE171E104C04BE151E16DE071E10E9473
:100C8000E11476C081E00E94030C72C0C3302CE7EF
:100C9000D20709F459C048F4C1159CE7D907A9F057
:100CA000C130DC4709F456C075C0CB35FCE7DF071F
:100CB00009F45AC0CC352CE7D20709F44DC0CA3527
:100CC000DC4709F067C081E050C0109259020E94D1
:100CD000CC209FEFE4E3FCE09150E040F040E1F7EE
:100CE00000C00000F89481E08093E00080E28093EF
:100CF000D8001092C9008FE19EE40197F1F700C07F
:100D000000001DBA109268001CBC10BE1FBA1092E1
:100D10007A0010926E0010926F0010927100109283
:100D200072001092C9001092BC0014B817B81AB81B
:100D30001DB810BA1092BC0015B818B81BB81EB870
:100D400011BA0C94003F14C06FEF7FEF80E090E089
:100D50000E94A5230E944F048091570282FB88279E
:100D600080F991E0892701C080E00E94541A12C0E6
:100D700080916904877009F457C2F801858188233E
:100D800009F452C28091570282FF4EC282E00E9453
:100D90003D1A4AC2F8018581C081D181882349F07A
:100DA000CE010E94C01FF82E682FCE010E94302075
:100DB00004C0CE010E94FC1FF82EBE018F2D0E94A0
:100DC0002B180E944818F82EC92FC82EF801D5817B
:100DD000E680E2949FE0E92280916904877001F146
:100DE000DD23F1F08C2F807F803469F080E28F0D5D
:100DF0008830B0F08C2F807E803229F4F1E0FF152E
:100E000078F4EE2069F08091570282FF09C082E0F9
:100E10000E943D1A809169048770DD24D39481116A
:100E2000D12CBC2EB2948FE0B8228B2D90E08C3068
:100E3000910508F0D2C1FC01EE58FF4F0C945B25E0
:100E40008C2F807FCF70882311F0C295C07FDD2367
:100E5000B9F0CC2309F4AFC180E28F0D883010F0D7
:100E6000C11006C090915902C92BC093590205C008
:100E700090918B04C92BC0938B040E94E8199BC1ED
:100E80008F2D0E94FB20CC2309F4A7C180E28F0D97
:100E9000883088F1CC2079F1C09590918B04C923DA
:100EA000C0938B042BC08C2F807FCF70803211F0C9
:100EB000C295C07F8F2DCC2029F021E0C21609F405
:100EC0004CC055C08091570282FD1BC0DD2369F0E4
:100ED000CC2339F090915902C92BC09359020E943A
:100EE000E81980E00E94542178C180E00E94FB2034
:100EF000CC2309F472C18C2F0E94E1190E94E819D9
:100F00006CC1DD2381F0EE20B1F181E0E81265C112
:100F100090918A048C2F8923C81709F45EC1C92BCC
:100F2000C0938A045AC1E11058C18C2F0E94EA2054
:100F300080918A049C2F982329F09C2F90958923D7
:100F400080938A04809155029C2F982309F445C10F
:100F5000C0958C238093550240C1DD2329F091E098
:100F60009E1508F43AC107C0E11037C115C0DD2352
:100F700031F0E11020C18C2F0E94F1202EC1EE2013
:100F800059F0893309F026C1EFEFF7EE23E0E15085
:100F9000F0402040E1F71CC18C2F0E94EA201DC1C7
:100FA0008C2F86958695837019F0813061F015C17C
:100FB000DD2321F08F2D9C2F937002C080E090E004
:100FC0000E949E1410C1DD2321F08F2D9C2F937061
:100FD00002C080E090E00E94791405C18C2F8370DC
:100FE000A9F5D111FEC04F2D429546954770440F8B
:100FF000440F8F2D8F7090E09C01042E01C0220FB2
:101000000A94EAF7F4FE08C08FE090E001C0880F70
:101010004A95EAF7809501C080E0C695C695C370F1
:10102000C23069F088F490918C04C13019F0822BA1
:10103000892302C0922B892B0E94A620D2C0822B2A
:1010400090918C048927F8CF822BF6CFDD2319F0FD
:101050008C2F817001C08695882309F4C2C04F2D62
:10106000429546954770440F440F8F2D8F7090E046
:101070009C01042E01C0220F0A94EAF7F4FE08C076
:101080008FE090E001C0880F4A95EAF7809501C093
:1010900080E0C695C695C370C23059F078F490913F
:1010A0009702C13019F0822B892309C0922B892B1A
:1010B00006C0822B90919702892701C0822B0E9443
:1010C00065208FC0CF70DD2339F08C2F0E949A20CD
:1010D0008F2D0E94F12085C08F2D0E94EA208C2F39
:1010E0000E948D207EC08F2D92EFC91669F19C154C
:1010F00038F0E0EFCE1659F0F1EFCF1601F157C0FE
:1011000023EFC21641F194EFC916A9F050C0DD23B8
:1011100069F0E11062C0CF7181E090E001C0880FFA
:10112000CA95EAF79091970289271FC0E1E0EE1572
:1011300008F453C0F0CF8091570282FD19C0DD231F
:1011400029F08C2F8F7126C0DD23D9F38C2F8F715E
:101150000E948D2042C0DD2339F0CF7181E001C0B3
:10116000880FCA95EAF701C080E00E94652035C06B
:10117000DD2399F0CF718C2F0E949A208091570225
:1011800082FF07C0F8E0CF9FC001112483608093E5
:1011900069048C2F0E949A2020C081E00E943D1A91
:1011A00021E02E15D0F482E00E943D1A16C0DD2306
:1011B00021F0EE2031F28F2D95CEEE2039F28933D9
:1011C00049F48FEF97EEE3E081509040E040E1F783
:1011D00000C000008F2D0E94FB2088EF8B0D843013
:1011E00010F40E94C314DD20A9F08091690480FDF1
:1011F00011C0F80115828695869586950E949A20E1
:10120000C8010E944C058091690486958695869553
:101210000E948D2020E0F80140815181628173811C
:10122000848195810E942A04CDB7DEB7E9E00C9451
:101230003823A0E0B0E0EFE1F9E00C94142320E9BA
:10124000289F7001299FF00C1124C0E0D0E000E03D
:1012500010E067018FEFC81AD80A570182E0A80E84
:10126000B11CF701EC0FFD1FE25EFE4F6491F60129
:10127000EC0FFD1FE25EFE4F7491F501EC0FFD1FB8
:10128000E25EFE4F8491611107C0711105C08111AA
:1012900003C020E040E03CC00E941915962E372E76
:1012A000882E60918E0270E080E090E00E944C24D5
:1012B00020E030E04FE753E40E94AB232B013C01D8
:1012C000682D70E080E090E00E944E24A30192011E
:1012D0000E94DA240E941D24862E692D70E080E091
:1012E00090E00E944E24A30192010E94DA240E9401
:1012F0001D24962E632D70E080E090E00E944E2425
:10130000A30192010E94DA240E941D24282D492D58
:10131000C8010E9429110F5F1F4F2396C039D105C4
:1013200009F09FCFCDB7DEB7E1E10C94302380E226
:1013300090E09093160180931501809154028111E1
:101340000EC00E940E2281E0809354022FEF83EDA5
:1013500090E3215080409040E1F700C0000060E53C
:1013600070E080E40E94142290931601809315018E
:10137000892B09F04EC060E570E080E00E94872272
:101380009093160180931501892B09F042C060E506
:1013900070E080E00E9487229093160180931501EF
:1013A000892BB9F560E570E08FE30E948722909366
:1013B000160180931501892B61F50E94FB2260E5DF
:1013C00070E080E40E94142290931601809315012E
:1013D000892BF9F460E570E08CE00E9487229093FD
:1013E000160180931501892BA1F460E570E080E07F
:1013F0000E9487229093160180931501892B49F44E
:1014000060E570E08FE30E9487229093160180933D
:1014100015010E94FB22809115010895CF93DF935F
:1014200056985E9825982D9826982E9827982F984C
:10143000C8E8D0E08FEF90E099838883AAE8B0E015
:1014400011969C938E93ECE8F0E091838083259A2B
:101450002D9A2FEF80E792E0215080409040E1F7F5
:1014600000C00000269A2E9A2FEF80E792E02150CC
:1014700080409040E1F700C00000279A2F9A2FEF9C
:1014800080E792E0215080409040E1F700C00000EA
:1014900025982D982FEF80E792E0215080409040D2
:1014A000E1F700C0000026982E982FEF80E792E029
:1014B000215080409040E1F700C0000027982F980D
:1014C0008091980287702FEF829FC001112495951B
:1014D00087959595879599279983888311969C93ED
:1014E0008E939183808356985E9825982D982698A0
:1014F0002E9827982F98DF91CF910895CF93E82FBA
:10150000873080F58091150190911601892B09F0A3
:1015100047C0CE2F60E570E080E40E9414229093D3
:10152000160180931501892BD1F460E570E082E10A
:101530000E9487229093160180931501892B79F4DC
:1015400081E090E001C0880FCA95EAF760E570E09D
:1015500080950E94872290931601809315010E9426
:10156000FB221EC090E0FC013797E730F105C0F484
:10157000E258FF4F0C945B25209A289811C0219ABD
:1015800029980EC0229A2A980BC0239A2B9808C03B
:10159000529A5A9805C0539A5B9802C03E9A469850
:1015A000CF910895209828982198299822982A98D0
:1015B00023982B9852985A9853985B983E9846983F
:1015C0000895CF93873040F58091150190911601D1
:1015D000892B59F560E570E081E40E941422909314
:1015E000160180931501892B11F0C0E011C080E530
:1015F00090E00E94B62297FF05C090931601809359
:101600001501F3CFC82FC095109216011092150145
:101610000E94FB228C2F0AC09FB18FB1807F8695DC
:1016200086959370892B809501C080E0CF910895B5
:101630008098889A8198899A84988C9A85988D9AAE
:1016400086988E9A87988F9A089580917F0287FF57
:1016500011C08091E80082FD05C08091890281114E
:10166000F8CF11C08091E8008B770BC08091890280
:10167000882349F08091E80080FFF8CF8091E8004E
:101680008E778093E8000895982F973068F59093AF
:10169000E900981739F07091EC002091ED0050911D
:1016A000F00003C0242F762F50E021FD02C09F5F81
:1016B000ECCF3091EB003E7F3093EB003091ED00AA
:1016C0003D7F3093ED003091EB0031603093EB00C3
:1016D0007093EC002093ED005093F0002091EE0009
:1016E00027FDE5CF80E008958F708093E90081E0C9
:1016F000089520918502309186022617370748F019
:101700006115710539F42091E8002E772093E800E7
:1017100001C0B901FC0120E06115710579F18091EA
:1017200089028823F1F18530F1F18091E80083FD91
:101730003CC08091E80082FD2EC08091E80080FFCF
:10174000EBCF2091F3008091F20090E0922B611595
:10175000710551F08830910538F421912093F10002
:10176000615071090196F3CF21E0089709F020E05C
:101770008091E8008E778093E800CECF2111CFCF03
:101780000AC080918902882361F0853061F08091E0
:10179000E80083FD0AC08091E80082FFF2CF80E07C
:1017A000089582E0089583E0089581E00895089502
:1017B00043E050E0BC0184E00E9482130895CF937F
:1017C000DF93EC0180910601811105C048E050E0F3
:1017D000BE0181E00BC08091560287FF03C040E24A
:1017E00084E002C048E081E050E0BE010E94821324
:1017F00080E2FE01ACE5B2E001900D928A95E1F73E
:10180000DF91CF91089580918B02837051F08460B5
:1018100080938B021092070180918A0281608093ED
:101820008A02089590918B02937059F080938C02F4
:1018300060938D0240938E0280918A028160809332
:101840008A020895AAE2B0E0E8E2FCE00C942223C8
:10185000EFE7F2E087E892E02091F10021938E1704
:101860009F07D1F780918002833009F463C030F480
:10187000813071F0823009F49FC0B6C08A3009F41B
:101880008BC08B3009F46EC0893009F0ADC020C028
:1018900080917F02813A09F0A7C08091E800877F9C
:1018A0008093E8008091830290918402892B21F437
:1018B00060E28CE592E003C060E080E090E070E0E0
:1018C0000E94790B8091E8008B778093E8008CC0B0
:1018D00080917F02813209F087C0809183029091CC
:1018E0008402009719F0029709F07EC08091E80009
:1018F000877F8093E8008091E80082FD05C0809199
:1019000089028111F8CF70C02091F3008091F2001C
:1019100090E0922B029731F48091F100813011F028
:10192000863021F48091F10080935B028091E80081
:101930008B7756C080917F02813A09F055C0809123
:10194000830290918402892B09F04EC08091E800B7
:10195000877F8093E8008091E80080FFFCCF809132
:10196000060139C080917F028132F1F580918302B6
:1019700090918402892BC1F58091E800877F809344
:10198000E8000E94250B809181028093060110924D
:1019900059020E94CC2028C080917F02813221F51B
:1019A0008091E800877F8093E8000E94250B80915A
:1019B000820280935A0218C080917F02813AA1F47A
:1019C0008091E800877F8093E8008091E80080FFA5
:1019D000FCCF80915A028093F1008091E8008E77CD
:1019E0008093E8000E94250B8091E80083FFDFC10F
:1019F00080917F0290918002492F50E04A3051053A
:101A000008F0D5C1FA01EB57FF4F0C945B258038E5
:101A100021F0823809F0CBC108C080917C029091FE
:101A20007D02992389F082600FC0809183028F70BC
:101A3000873008F0BCC18093E9008091EB0085FB02
:101A4000882780F91092E9009091E800977F9093A1
:101A5000E8008093F1001092F10070C1282F2D7FD3
:101A600009F0A5C1882319F0823061F0A0C18091EE
:101A70008102813009F09BC1933009F080E08093AE
:101A80007D022EC08091810281112AC08091830243
:101A90008F702FEF280F263008F089C18093E9005E
:101AA0002091EB0020FF1CC0933021F48091EB00CB
:101AB000806214C09091EB0090619093EB0021E064
:101AC00030E0A90102C0440F551F8A95E2F7409308
:101AD000EA001092EA008091EB0088608093EB00AE
:101AE0001092E9008091E800877F8093E8000E94CF
:101AF000250B5DC181115BC1109181021F7780911F
:101B0000E3008078812B8093E3008091E800877F59
:101B10008093E8000E94250B8091E80080FFFCCFB5
:101B20008091E30080688093E300111102C082E09D
:101B300001C083E0809389023AC18058823008F066
:101B400036C120918102309182022C3D53E035074D
:101B500079F583E08A838AE289834FB7F894DE01BE
:101B6000139620E03EE051E2E32FF0E0509357005F
:101B7000E49120FF03C0E295EF703F5FEF708E2F7E
:101B800090E0EA3010F0C79601C0C0968D939D9307
:101B90002F5F243149F74FBF8091E800877F809302
:101BA000E8006AE270E0CE0101960E94790BB4C0B1
:101BB0008091830290918402432F55274330510531
:101BC000A9F068F44130510509F400C142305105D3
:101BD00009F0EDC08BE590E0E1EAF3E04BC0413263
:101BE000510529F14232510589F1E1C0C901992716
:101BF00081309105A1F058F0029709F0D8C0EEE0CD
:101C0000F4E0E4918E2F90E0EEE0F4E030C0EAE5FD
:101C1000F4E0E4918E2F90E0EAE5F4E028C0E0E300
:101C2000F4E0E4918E2F90E0E0E3F4E020C0833014
:101C3000910508F0BCC0880F991FFC01ED5DFE4FB7
:101C40000190F081E02D89E090E014C0833091058F
:101C500008F0ADC0FC01EE0FFF1FE35EFE4F0190E8
:101C6000F081E02DDC01A65EBE4F8C9190E00097E4
:101C700009F49DC02091E800277F2093E80020917F
:101C80008502309186022817390708F4C90140E01F
:101C9000009789F120918902222309F43DC0253063
:101CA000D9F12091E80023FD37C02091E80022FD02
:101CB0002FC02091E80020FFEBCF4091F30020914E
:101CC000F20030E0342B009759F02830310540F411
:101CD00044914093F100319601972F5F3F4FF3CF2E
:101CE00041E02830310509F040E02091E8002E77EE
:101CF0002093E800CDCF4111CDCF0AC08091890259
:101D0000882351F0853041F08091E80083FD04C0C4
:101D10008091E80082FFF2CF8091E8008B7780937A
:101D2000E80045C0803809F042C08091E800877F14
:101D30008093E80080917E028093F1008091E8001A
:101D40008E77D3CE811133C080918102909182022F
:101D50009927029764F58091E800877F8093E800D7
:101D60001091810210937E020E94250B111106C072
:101D70008091E30087FD02C081E001C084E0809390
:101D8000890242E061EC81E00E94440B42E261EC96
:101D900084E00E94440B42E261EC82E00E94440B2A
:101DA00042E260EC83E00E94440B809189028091C2
:101DB000E80083FF10C08091E800877F8093E800EF
:101DC0008091EB0080628093EB0005C082E190E09F
:101DD000ECEFF3E04FCFAA96E3E00C943E231F9282
:101DE0000F920FB60F9211242F933F934F935F934F
:101DF0006F937F938F939F93AF93BF93CF93DF9313
:101E0000EF93FF93C091E900CF708091EC00D82F41
:101E1000D17080FDD0E81092E9008091F000877FBA
:101E20008093F00078940E94220C1092E900809137
:101E3000F00088608093F000CD2BCF70C093E90054
:101E4000FF91EF91DF91CF91BF91AF919F918F91D2
:101E50007F916F915F914F913F912F910F900FBEA6
:101E60000F901F901895E8EDF0E080818E7F8083C1
:101E70001092E2001092DA001092E100A0EEB0E0C1
:101E80008C9181608C9380818F77808319BCA7EDC2
:101E9000B0E08C918E7F8C9380818F7E80831092B6
:101EA00058020895A0E0B0E0E8E5FFE00C941D239F
:101EB000C8EDD0E088818F7E8883E7EDF0E08081F7
:101EC0008160808384E082BF81E0809358028881B2
:101ED0008E7F888302EE10E0F80110821092DA0003
:101EE00081EEC82ED12CF601108288818F778883ED
:101EF00088818068888388818F7D888319BC10924F
:101F0000890210927E0210927D0210927C0290EE65
:101F1000E92EF12CF70180818B7F8083888181609D
:101F2000888342E060E080E00E94440BF6018081FB
:101F30008E7F8083F80180818160808380818860CA
:101F40008083F70180818E7F808388818061888390
:101F5000CDB7DEB7E8E00C9439231F920F920FB68D
:101F60000F9211242F933F934F935F936F937F931F
:101F70008F939F93AF93BF93EF93FF938091E10073
:101F800082FF09C08091E20082FF05C08091E100DC
:101F90008B7F8093E1008091DA0080FF2AC08091DE
:101FA000D80080FF26C08091DA008E7F8093DA000F
:101FB0008091D90080FF18C080E189BD82E189BD90
:101FC00009B400FEFDCF81E0809389028091580220
:101FD00081110FC00E94330F0E94520F8091E200C6
:101FE00084608093E20005C019BC109289021092AF
:101FF00058028091E10080FF17C08091E20080FFCD
:1020000013C08091E2008E7F8093E2008091E20015
:1020100080618093E2008091D80080628093D80034
:1020200019BC85E0809389028091E10084FF30C073
:102030008091E20084FF2CC080E189BD82E189BDEE
:1020400009B400FEFDCF8091D8008F7D8093D80029
:102050008091E1008F7E8093E1008091E2008F7E8D
:102060008093E2008091E20081608093E2008091A1
:102070007E02882311F084E007C08091E30087FD91
:1020800002C081E001C083E08093890280918902CF
:102090008091E10083FF27C08091E20083FF23C08D
:1020A0008091E100877F8093E10082E08093890244
:1020B00010927E028091E1008E7F8093E1008091FA
:1020C000E2008E7F8093E2008091E2008061809345
:1020D000E20042E060E080E00E94440B8091F0006A
:1020E00088608093F000FF91EF91BF91AF919F9135
:1020F0008F917F916F915F914F913F912F910F90B1
:102100000FBE0F901F9018952091E4003091E500CC
:1021100095E64091EC00842F817040FF23C08091B0
:10212000E80080FD1DC080918902882399F08530E8
:1021300099F08091EB0085FD11C04091E400509131
:10214000E5002417350729F3915011F09A01E1CFEA
:1021500084E0089582E0089583E0089581E0089581
:1021600080E008954091E80042FFDDCF0895EF92AE
:10217000FF920F931F93CF93DF937C018B010E94FB
:102180008410811119C0E70101151105A1F080919A
:10219000E80085FD0AC08091E8008E778093E80012
:1021A0000E948410882381F307C089918093F100F5
:1021B00001501109E9CF80E0CDB7DEB7E6E00C941D
:1021C0003B23CF9320918902243011F5C091E9007F
:1021D000CF703091EC00232F217030FD20E8C22B0E
:1021E00022E02093E9002091E80020FF0EC040E0AB
:1021F00050E060E270E00E94B710811110928702F7
:102200008091E8008E778093E800CF70C093E9005A
:10221000CF91089580915B020895EBE8F2E024816C
:1022200030E1231B08F420E0248380918A0281603E
:1022300080938A020895EBE8F2E0248130E1230FD5
:1022400008F42FEF248380918A02816080938A02B0
:102250000895A4E0B0E0EFE2F1E10C942023803394
:10226000910508F04FC0122F042FF62EBC01660F07
:10227000771F660F771F625A7A4F44E050E0CE0115
:1022800001960E944A23898183704A8150E044521A
:102290005109282F30E060E9869FC001112489543C
:1022A0009D4FFC01E40FF51FE0817B816C81EF11F4
:1022B0000EC0FC01E70FF11DB497E081E01307C0E9
:1022C000860F911DFC01B49780818117D9F0E0E958
:1022D000E29FC001E39F900D112489549D4FFC01A2
:1022E000E40FF51FF082FC01E70FF11DB4970083A6
:1022F000860F911DFC01B4971083F901EB54FD4F3B
:1023000081E080832496E5E00C943C23FF920F93B8
:102310001F93CF93DF93182F062FF42EC0E0D0E049
:102320002F2D402F612FCE010E9429112196C033FD
:10233000D105B1F7CDB7DEB7E5E00C943C23E1EA77
:10234000F2E06083418323E030E042E050E0BF01EF
:10235000880F0E94DA220895A0E0B0E0E2EBF1E1FC
:102360000C941E23262F30E0A90145505C4F7A01C2
:10237000FA019081911107C0F7011082CDB7DEB745
:10238000E7E00C943A23D82EF2E16F9FE00111248C
:1023900000E010E0F801EC0FFD1FE952FC4F408116
:1023A000602F8D2D0E949F110F5F1F4F023111056D
:1023B00089F7E2CFCF93DF93C82F4BE06DEF0E94F8
:1023C0009F1140E06AE08C2F0E949F118FE39CE9EF
:1023D0000197F1F700C0000040E060E08C2F0E9400
:1023E0009F1140E061E08C2F0E949F1140E066E069
:1023F0008C2F0E949F1140E06DEF8C2F0E949F1147
:10240000D0E040E06D2F8C2F0E949F11DF5FD23112
:10241000C1F740E06D2F8C2F0E949F11DF5FD432F7
:10242000C1F740E06D2F8C2F0E949F11DF5FD43BDE
:10243000C1F74BE06DEF8C2F0E949F1141E06AE0E5
:102440008C2F0E949F1140E06DEF8C2F0E949F11F6
:10245000DF91CF9108950F931F93CF93DF93082FB0
:10246000000FEB0114E21093A10280E1FE01A2EA49
:10247000B2E001900D928A95E1F723E030E041E16E
:1024800050E061EA72E0802F0E94DA22105F6096CD
:10249000143B49F7DF91CF911F910F9108958091DF
:1024A000B502882329F067EB72E084E70E942B12C3
:1024B0001092B5028091B602882329F067E473E098
:1024C00087E70E942B121092B6020895A4E0B0E0B4
:1024D000ECE6F2E10C9417230E940E2284E70E949E
:1024E000DA1187E70E94DA110EE515E072E1772E26
:1024F000E8E0CE2ED12CEE24E394F12C66246394F4
:1025000044E050E0B801CE0101960E944A232A819E
:1025100030E0C9018497AB80B12C44E2A41AB10821
:10252000EC81F0E0B497AC0197FF02C0495F5F4FC8
:1025300063E0559547956A95E1F72981237030E06E
:10254000729EB001739E700D112469527C4F4B0135
:10255000840E911CB6010E944725D70102C0AA0F24
:10256000BB1F8A95E2F7CD01D4019C91892B8C93F6
:10257000C501B7FC079653E0959587955A95E1F705
:10258000729EA001739E500D112449525C4F4A0166
:10259000880E911CC501B6010E944725A70102C003
:1025A000440F551F8A95E2F7CA01D4019C91892BEB
:1025B0008C93CF01F7FD079643E0959587954A9553
:1025C000E1F7729EA001739E500D112449525C4F99
:1025D0005A01A80EB11CCF01B6010E944725F70190
:1025E00002C0EE0FFF1F8A95E2F7CF01D5019C9143
:1025F000892B8C93F901E550FC4F60820C5F1F4FD3
:10260000B6E00E311B0709F07BCF60E084E70E9443
:10261000AC1161E087E70E94AC112496EEE00C94C7
:102620003323EBE8F2E0438120E1421B08F440E071
:102630008181628190E00E94120C0895EBE8F2E043
:10264000438120E1420F08F44FEF8181628190E0E5
:102650000E94120C0895EBE8F2E0628120E1621B17
:1026600008F460E08181438190E00E94120C08959B
:10267000EBE8F2E0628120E1620F08F46FEF818104
:10268000438190E00E94120C0895EBE8F2E0818112
:1026900090E04381628108970E94120C0895EBE854
:1026A000F2E0818190E04381628108960E94120CE1
:1026B000089580918B0286958695815009F481E07A
:1026C0000E94030C089581E00E94030C0895EBE83A
:1026D000F2E085E080838091170190911801A0912C
:1026E000190181839283A3838FE784838FEF85838E
:1026F00048E050E068E170E0CF010E94772310923B
:102700008A0208959B01909189029430F1F48F70B0
:102710008093E9008FEF9091E800815095FD06C00D
:1027200095ED9A95F1F700008111F5CF8091E800C1
:1027300085FF0BC0BA01C90140E050E00E94B7100C
:102740008091E8008E778093E800089578941F9236
:102750000F920FB60F9211248F939F93AF93BF9355
:102760008091040490910504A0910604B09107049F
:102770000196A11DB11D8093040490930504A093BC
:102780000604B0930704BF91AF919F918F910F9072
:102790000FBE0F901F9018959C014FB7F894809131
:1027A000040490910504A0910604B09107044FBF62
:1027B000821B930B08952FB7F894609104047091D5
:1027C000050480910604909107042FBF08952FB748
:1027D000F8948091040490910504A0910604B091AE
:1027E00007042FBF08951F920F920FB60F92112466
:1027F0008F939F93AF93BF9380910304811113C074
:102800008091040490910504A0910604B0910704FE
:102810004196A11DB11D8093040490930504A093DB
:102820000604B0930704BF91AF919F918F910F90D1
:102830000FBE0F901F901895209106012223C9F01A
:102840002091560227FF15C0262F269526952695FE
:102850002E31C8F4FC01E20FF11D677081E090E0B9
:1028600001C0880F6A95EAF7809592818923828357
:102870000895FC0106962281621301C012823196EE
:10288000E817F907C1F70895209106012223C1F046
:102890002091560227FF14C0262F269526952695AF
:1028A0002E3130F5FC01E20FF11D677081E090E000
:1028B00001C0880F6A95EAF79281892B8283089577
:1028C000FC0132962FEF30E04191641789F02F3FE1
:1028D00019F4411101C0232F3F5F3630A9F72F3F74
:1028E00039F0FC01E20FF11D27FDFA95628308958E
:1028F0000895A3E0B0E0EFE7F4E10C9423232091E6
:1029000001043091020428173907A1F090930204C2
:1029100080930104E091FF03F0910004309751F09F
:1029200024E029839B838A830680F781E02DCE01F2
:10293000019609952396E2E00C943F23A3E0B0E0D2
:10294000E4EAF4E10C9423232091FD033091FE038B
:1029500028173907A1F09093FE038093FD03E091BF
:10296000FF03F0910004309751F023E029839B830B
:102970008A830680F781E02DCE0101960995239682
:10298000E2E00C943F23E091FF03F09100043097C4
:1029900029F00190F081E02D0995089580E00895D7
:1029A000A0E2B0E0E6EDF4E10C9423239FEF9983DD
:1029B0008A83CE0101960E94E110A096E2E00C9479
:1029C0003F23882311F0FA0101C0FB010995089506
:1029D00080918B02837011F41092070180918B0219
:1029E0008C7F816080938B0208950E94661280E044
:1029F00090E00E947123863E9E4F21F00E9465194F
:102A00000E94671381E080938A0248E050E068E109
:102A100070E08BE892E00E94532310928A0280912A
:102A20008B028C7F11F40E94671308950E94861117
:102A30000895A0E0B0E0EFE1F5E10C941D23F62E3F
:102A4000472FE82FF0E0711106C0E25AFB4F849146
:102A5000782F682F73C0272F30E0E25AFB4FE491A4
:102A6000FE2F0E2F10E056E0659FC0011124CFEF1E
:102A7000D0E0BE010E94FF225BEA5603C001579FCF
:102A8000900D11248F0D911D8F0D911D982F990F71
:102A9000980F7E01E21AF30AE09ED001E19EB00D8C
:102AA000F09EB00D11248B2F499FA0011124452FBA
:102AB00055277E01E41AF50AE09EA001E19E500D23
:102AC000F09E500D11246E01C91AD108C29E7001EA
:102AD000C39EF00CD29EF00C11242F2D3327C21B65
:102AE000D30BC09F9001C19F300DD09F300D11249A
:102AF000932F6230710591F048F461157105E1F092
:102B000061307105B9F49E2FE52F16C06430710550
:102B100069F040F06630710579F00CC09E2FEB2F04
:102B2000832F0AC0EB2F8F2F952F06C09B2F8E2F40
:102B3000E32F02C09B2F852F7E2F692FCDB7DEB7E5
:102B4000E8E00C943923EF92FF920F931F93CF93F9
:102B5000DF93D82F809109018D130DC020918B0236
:102B6000237030E04091080150E081E024173507E0
:102B700019F480E001C081E0817080930C018091A4
:102B8000900290910B01981739F080930B0140E06F
:102B900060E080E00E941615D13071F580910A0145
:102BA000C82FCC0FCC0FC80F15E01C0F113308F045
:102BB00010E360918C0270918D0280918E020E94D0
:102BC0001915062FF72EE82EC11790F4EC2FF0E020
:102BD000DF01A352BE4F8C9190910B01982331F0ED
:102BE0002E2D402F6F2DCF010E942911CF5FECCFEA
:102BF00081E0103368F00BC0D130F0F480910C010B
:102C0000882329F040E060E080E00E94161580E013
:102C100090910A019F5F90930A01811146C082E062
:102C20008093070180910C0181113FC0D1113DC0FB
:102C300083E08093070139C0DF3F89F580919C02D2
:102C400090919D02A0919E02B0919F0288279C7056
:102C5000AA27BB272AE0B695A795979587952A9529
:102C6000D1F782309105A105B10571F0833091054E
:102C7000A105B10569F040E00197A105B10511F08A
:102C800060E008C064E102C044E160E080E003C0AD
:102C900044E164E184E10E94161582E0CACF80918C
:102CA0000A018F5F80930A01BACFCDB7DEB7E6E0A5
:102CB0000C943B230F931F93CF930E94DB136093DD
:102CC00093027093940280939502909396022091C0
:102CD000A002211108C0C0918B022C2F237019F083
:102CE000C695C69501C0C0E0209107012130A1F032
:102CF00038F0223009F466C0233009F470C09AC05D
:102D000010920A0160939C0270939D0280939E0230
:102D100090939F0281E060C08C2F0E94A315CC236A
:102D200009F488C080910A018A3009F083C080913B
:102D3000980283FD7FC08091970290E0A0E0B0E010
:102D4000AC01BD01F4E07695679557954795FA95E6
:102D5000D1F7411551056105710521F4AC01BD01A3
:102D600080E001C084E08A019B01E2E0369527956E
:102D700017950795EA95D1F701151105210531053C
:102D800019F08E5FB901A80176956795579547951B
:102D9000452B462B472B09F08F5F813029F082307D
:102DA00041F482E090E002C081E090E00E941909C5
:102DB00041C08091900281113DC040E060E00E94DE
:102DC000161538C0C093090180918B0283708093DF
:102DD00008010E944F1283E0809307012BC080916D
:102DE0008A02882351F048E050E068E170E08BE807
:102DF00092E00E94772310928A0240919C025091A7
:102E00009D0260919E0270919F022FB7F89480916D
:102E1000040490910504A0910604B09107042FBF0B
:102E2000841B950BA60BB70B4A97A105B10510F0B3
:102E300010920701CF911F910F91089580E008959E
:102E40009091560292FF10C041E0282F2471243047
:102E500009F040E031E0282F2871283009F030E0F7
:102E6000431711F02CE0822793FF10C041E0282F78
:102E70002471243109F040E031E0282F28712831F5
:102E800009F030E0431711F02CE08227309157020F
:102E900030FF10C051E0282F2171213009F050E09F
:102EA00041E0282F2871283009F040E0541711F034
:102EB00029E0822731FF10C041E0282F2171213104
:102EC00009F040E031E0282F2871283109F030E086
:102ED000431711F029E0822794FD877E08958238F8
:102EE000910569F1B0F48133910509F475C048F496
:102EF0008932910509F467C08A32910509F471C0DD
:102F000008958533910509F459C089339105B9F0C5
:102F10000895833E910589F138F4803E9105D1F002
:102F2000823E910529F10895863E9105C9F1873EBB
:102F30009105D9F1843E910509F06CC027C020911C
:102F4000560220FD57C021FD55C02091570223FD98
:102F50005BC008958091560280FD48C08091570261
:102F600080FF48C08091560284FD46C083EE51C068
:102F70008091560282FF3CC0F5CF8091560282FDBF
:102F800037C08091570280FD35C0ECCF8091570249
:102F900081FF36C08091560284FD2EC087EE39C075
:102FA0008091560283FF2AC0F5CF8091560283FD9F
:102FB00025C08091570281FD23C0ECCF809156023D
:102FC00085FD22C01FC08091560285FD1BC08091E7
:102FD000570283FF19C00AC08091560286FD16C0B1
:102FE00017C08091560286FD13C010C089E311C03E
:102FF00082EE0FC080EE0DC080E00BC086EE09C0EF
:1030000084EE07C085E305C089E203C08AE201C0FF
:1030100081E390E008952091680490912F0457E097
:103020002917A9F030E0529FF001539FF00D1124B1
:10303000E05DFB4F7181761306C07081781303C089
:103040007581741306C02F5F3F4F2770E9CF80E072
:10305000089581E008957E30B0F46630A0F48330A6
:10306000A0F494E5899FF001112486E0789FE00D9B
:10307000F11D1124E60FF11DEE0FFF1FE25EF94F67
:1030800085919491089580E001C081E090E00895D9
:103090001F93CF93DF930E946F17EC01C11580E55A
:1030A000D807E8F5C11590E4D90708F0A8C0C03EDC
:1030B000D10530F5CD3CD10508F094C0C83AD10512
:1030C00078F4C53AD10508F083C0C130D10509F4C0
:1030D0007CC008F4F2C0C430D10508F0F1C0EDC0E6
:1030E000C33CD10508F0E9C0C85AD0E0CC0FDD1FC1
:1030F000C05FDD4F0990D881C02DCE019464E1C03E
:10310000C11580E2D80708F0CBC0C11591E0D907FE
:1031100008F06BC0C83ED10508F4D2C0CEC0C0369E
:1031200082E5D80728F5C03492E5D90708F079C0C0
:10313000C03282E5D80708F06CC0C11592E5D90706
:1031400008F481C04C2F4695469580E2489FA00127
:103150001124C37021E030E0C90102C0880F991F1B
:10316000CA95E2F7EA01C82BD92BCE019D68A9C008
:10317000C03A82E5D807B8F48C2F8F71C03892E539
:10318000D90708F07BC08695869590E2899F9001CB
:103190001124C37081E090E002C0880F991FCA9586
:1031A000E2F79A6868C0C03C82E5D80708F46DC0B1
:1031B000C03E92E5D90708F080C0CF71DD27DC2F33
:1031C000CC27CE01806F906A7CC081E090E079C00E
:1031D000C55AD0E0C35FDD4F8881C82FD0E0CE0153
:1031E00090646FC0CE0190656CC08D2F0E94201737
:1031F000182FCE0199270E946F171F715CC0CE0156
:1032000099270E946F17CC27DF70D06A8C2B9D2BDB
:1032100058C0CF71D0E0DC2FCC27CE01816F906AEF
:1032200050C08C2F8F718695869590E2899F900172
:103230001124C37081E090E002C0880F991FCA95E5
:10324000E2F79C6818C08C2F8F710E94201795E0C0
:10325000D695C7959A95E1F7CF70D0E0DC2FCC27B3
:10326000282F30E084FF05C084E0220F331F8A95A9
:10327000E1F7D069CE01822B932B23C090E0D82FA9
:10328000CC27CE01846F906A1CC08C2F8F710E9456
:1032900020178F7190E0D82FCC27CE01906211C0FB
:1032A0008D2F8F710E942017182FCE0199270E9411
:1032B0006F171F719062912B04C080E090E001C0F5
:1032C000CE01DF91CF911F910895A8E0B0E0EBE629
:1032D000F9E10C94232366EE7EEF80E090E00E94FB
:1032E000A52360E082E090E00E94872360E083E015
:1032F00090E00E94872310928C0460E074E184E0E7
:1033000090E00E94A52360E086E090E00E94872381
:103310006FEF87E090E00E94872340E050E0BA0121
:1033200088E090E00E94992360E084E290E00E94AF
:10333000872360E087E190E00E94872360E08CE0D3
:1033400090E00E94872360E08DE090E00E94872358
:1033500019821A821B821C821D821E821F8218867D
:1033600048E050E068E170E0CE0101960E947723CA
:1033700040E050E0BA0180E290E00E949923109270
:1033800098021092990210929A0210929B0284E085
:1033900080939802409198025091990260919A020C
:1033A00070919B028FE090E00E94992340E050E0F2
:1033B000BA0183E190E00E9499232896E2E00C9400
:1033C0003F23809590915902892380935902089553
:1033D0009091590280918B04982B909308048091CE
:1033E0008A048823D9F0892B8093080480910601F0
:1033F000882331F08091560287FF02C08EE101C020
:1034000086E0EAE0F4E090E0815028F02191222368
:10341000D9F39F5FF9CF911110928A0440E250E0F6
:103420006AE674E088E094E00E948226892B21F10C
:1034300080E2E8E0F4E0AAE6B4E001900D928A951B
:10344000E1F7E091FF03F09100043097A9F080913B
:103450000601882359F08091560287FF07C08091AA
:1034600008048093090486E0809308040280F381B5
:10347000E02D88E094E00995089590916904809585
:10348000892380936904282F277069F4981759F0CD
:103490009091570292FF07C08695869586950E9467
:1034A0008D201092690408959091570292FB222773
:1034B00020F9281779F080FB92F9909357026091D8
:1034C00056027091570284E090E00E94A52382E0AA
:1034D0000E943D1A08958091680490912F048917E5
:1034E00019F08F5F8770FBCF0895CF93DF938091A2
:1034F0002E0482958F7009F04EC080912D04882390
:1035000009F449C08091680440912F045091290426
:1035100060912804C0912A04D0912B0477E084178D
:10352000D1F190E0789FF001799FF00D1124DF0137
:10353000A05DBB4F14962C911497222349F111964C
:103540002C911197251324C02C91261321C0159678
:103550002C91159721111CC012962D913C91139717
:103560002C1B3D0B283C310598F480912E048F7064
:10357000806180932E04EA5CFB4F80818F708061B4
:10358000808388E294E00E944C050E946B1A03C07D
:1035900001968770C4CFDF91CF910895A4E1B0E088
:1035A000E4EDFAE10C9419238C0186E0F801DE01C8
:1035B0001F9601900D928A95E1F7F8018481E580CC
:1035C00098E2892E94E0992E90912C04911120C0BC
:1035D000882309F463C1EE2009F442C0C8010E94A7
:1035E000A920F82E8823E1F187E0F801D4010190A9
:1035F0000D928A95E1F780912C04813031F480910D
:103600002804909129040E94EF1F0E94751A48C156
:10361000F801D080C180A280B380F0902D04209169
:103620002A0430912B04FF2009F4E7C0A501421BB6
:10363000530B483C510508F09DC0882309F430C164
:1036400080912E04282F207F90912904222361F05D
:103650009C1509F460C0C8010E94A920811163C0B3
:10366000C8010E944C051AC19C1113C090912804F6
:103670009D110FC0E1100DC08F70806180932E04EA
:1036800088E294E00E944C0580912E04F801868324
:1036900003C1E1103AC040E06C2D8D2D0E940B1843
:1036A00040E06C2D8D2D0E940B18E82E8111F4C086
:1036B000DF86C88A8F8598890E94EF1F292F22955F
:1036C0002F70243020F49F70223028F009C02A5037
:1036D000223080F014C0992349F0811107C013C033
:1036E000992321F0F8019681907F69F0805E8830FF
:1036F00030F409C0803F38F0815F833020F0C8018A
:103700000E944C05EF2CFE2CCBC080912E048160D2
:1037100080932E04C1C0909128049D119CCFE1108C
:103720009ACFF80198C0EE2009F49ACF20912E0488
:10373000822F82958F7090E002978CF08091280400
:103740009091290499878887BB86AA8680912C044A
:103750008C871D862E87CE0108960E944C0587E037
:10376000F801A8E2B4E001900D928A95E1F70E9479
:10377000751A94C090912E04292F207F51F488E26D
:1037800094E00E944C0587E0F40111928A95E9F7D4
:1037900083C0882309F484C0809129048C110CC053
:1037A000809128048D1108C0E11006C0F8019683AD
:1037B000C8010E944C056AC0C8010E94A920882344
:1037C00009F44ECFEE2009F44BCF20912E04822F26
:1037D00082958F7090E0029714F280912804909166
:1037E00029049A838983BC82AB8280912C048D83C7
:1037F0001E822F83CE010196B0CFA21AB30AF8EC35
:10380000AF16B10408F042C0882309F447C0FE2C6B
:10381000EE2009F425CF809129048C1129C08091D4
:1038200028048D1125C090912E0490FD18C0892F79
:1038300082958F70282F30E02115310581F0F80135
:1038400096832F30310541F08F5F982F9295907FAE
:1038500086818F70892B8683C8010E944C0587E082
:10386000F801A8E2B4E001900D928A95E1F718C042
:10387000C8010E94A920811172CF80912E0481601D
:1038800080932E04C8010E944C050AC087E0F40111
:1038900011928A95E9F704C0F12C02C0FF24F39439
:1038A0008F2D6496ECE00C943523A0E0B0E0EBE5BE
:1038B000FCE10C941D238091150190911601892B38
:1038C000A1F080918F048F5F80938F0481110DC0D0
:1038D0000E94970990E09093160180931501892B1F
:1038E00021F40E940E0A0E94F51407E914E0780101
:1038F000D0E0C0E087E0C82ECC0E8C2F0E947E0A5C
:103900008C2D0E947E0A8C2F0E94E10A8F73F70192
:103910009081891721F08083DD24D39401C0D12CBC
:103920008C2D0E94E10A8F73F7019781891719F096
:10393000878381E001C080E0D82ADD290E94D20A75
:10394000CF5FFFEFEF1AFF0AC730A1F61092940481
:10395000C0919304CC2309F47DC00E94E713209109
:10396000910430919204AC01421B530B9A01909345
:103970009204809391044F3F510509F018F4452BB0
:1039800019F102C02FEF30E01092930410929004CE
:10399000E0919504F0919604AF01425F5F4F90E093
:1039A00030E08081882341F0281718F010829C2F86
:1039B00003C0821B80833C2F3196E417F50789F7FB
:1039C0003093930490939004DD23B1F1109290040E
:1039D000E0919504F0919604809194049091930461
:1039E000A5EAB4E0AF01425F5F4F6EE1E8012881D4
:1039F0003C91321779F0308131110CC060832C93E7
:103A000098819227282F30E0292B81E0232B09F47D
:103A100080E091E0319611960F5F1F4FE417F50794
:103A200029F7809394049093930480919404CDB7E4
:103A3000DEB7E8E00C94392381E09091900499235B
:103A4000A1F38111C3CF0E94E71390939204809356
:103A50009104BCCFD111F7CF80E0EFCFA6E0B0E06A
:103A6000E4E3FDE10C9421230E94E7138C01809193
:103A70008D0490918E040817190781F019821A821B
:103A80000E94E713682F49815A81792F80E090E0E6
:103A90000E94670410938E0400938D042696E4E040
:103AA0000C943D23A6E4B0E0E8E5FDE10C94172377
:103AB00085B7806885BF85B7806885BF84B7877FF5
:103AC00084BF0FB6F894A8958091600088618093B8
:103AD0006000109260000FBE90E080E80FB6F8948E
:103AE00080936100909361000FBE8EE197E1909307
:103AF0005302809352020E94330F0E94520F809112
:103B0000E20084608093E2007894809189028823A7
:103B1000A1F01091E9001F709091EC00892F817045
:103B200090FD80E8182B1092E9008091E80083FD59
:103B30000E94220C1F701093E90082E084BD93E084
:103B400095BD9AEF97BD80936E000E94970990E013
:103B500090931601809315010E94D20A0E94180BBF
:103B6000E7E9F4E0A5EAB4E011921D9224E0E53A19
:103B7000F207D1F78EE090E00E94612580939504D2
:103B800090939604FC010E961192E817F907E1F75D
:103B900089EA8093800089E08093810024982C98A2
:103BA0003F988AB18F7C8AB96E98479A8BB18063AF
:103BB0008BB9769A8FE090E00E946B236093980215
:103BC0007093990280939A0290939B0267708FEF93
:103BD000689FB0011124759567957595679577274E
:103BE000709389006093880070938B0060938A00C3
:103BF00070938D0060938C000E940E0A80E090E02C
:103C00000E947123863E9E4F11F00E94651982E04A
:103C100090E00E9463238093B30484E090E00E94CC
:103C20007123909357028093560283E090E00E94A4
:103C300063230E94A620809197020E9422050E9481
:103C4000F5140E94E8140E94E81480918A028160B1
:103C500080938A028DE091E0909300048093FF03AB
:103C600058E1E52EF12C80918902853009F074C06D
:103C700020E4C22E03EB14E0BB24B39433E0A32E64
:103C800040E1D42E80918902853009F05DC0809199
:103C90008902843009F436C00E945A168091A0022D
:103CA00081110DC00E94A3151092090180918B0211
:103CB0008370809308010E944F12A0920701B09276
:103CC000A002109203040FB6F894A895E092600049
:103CD0000FBEC092600083B7817F846083BF83B7CB
:103CE000816083BF7894889583B78E7F83BF0FB63A
:103CF000F894A8958091600088618093600010928C
:103D000060000FBE80917D02882309F4BBCF0E9422
:103D1000970990E090931601809315010E94D20AB2
:103D20000E94180BE5EAF4E011920E171F07E1F765
:103D30000E94551CE5EAF4E08191811108C124E05C
:103D4000E33BF207C9F79ECF109259020E94CC20A4
:103D50000E94C3141092A0020E94551C94EBC92E1D
:103D600094E0D92EA5EAB4E0F60191918D918927CE
:103D700094E0E23CF90719F08823B9F305C08111FA
:103D800003C00E942E1D4BC085EA882E84E0982E29
:103D900010E0F40171904F01F601A080A724B1F169
:103DA00000E0BB24B394662463948A2D8B2141F1F7
:103DB00022960FAF229723961FAF23970E94E713F7
:103DC00025969FAF8EAF259726966FAE269791E0EA
:103DD0008B2D872109F490E027969FAF2797229695
:103DE0004FAD229723965FAD239724966FAD24970E
:103DF00025967FAD259726968FAD26970E9467045E
:103E00000F5FBB0C063089F6F60170821F5FFFEF73
:103E1000CF1ADF0A1E3009F0BCCF0E94DB130E94CC
:103E20005A160E94C3149091C204891721F08093FE
:103E3000C2040E94DB1380918902843009F013CF01
:103E400083E08093E9008091E80082FF0CCF8091AD
:103E5000E80085FF22C00E94841081111CC000E28E
:103E600010E06E0121E2C20ED11C08C08091F10069
:103E7000F60181936F010150110969F08091E8000A
:103E800085FDF4CF8091E8008B778093E8000E9455
:103E90008410882399F391E001C090E08091E800BC
:103EA0008B778093E800992309F4DDCE89A18530D2
:103EB00009F447C048F4813001F190F0823009F4F0
:103EC000D2CE843029F13FC08730C9F1D0F188309B
:103ED000C1F18E3FC1F5898393E09A838B8313C030
:103EE00019828CE0E6E4F2E0DE01129601900D9278
:103EF0008A95E1F78EEF8D8706C08093870284E074
:103F000089838EEF8A83CE0101960E94E110ABCEA9
:103F100080918702882309F4A6CE8AA1811104C06A
:103F20008BA10E948D209FCE81E090E00BA002C06B
:103F3000880F991F0A94E2F70E94652094CE85E0CD
:103F400003C084E001C08FEF0E94D0148CCED9BC96
:103F500082E189BD09B400FEFDCF8091D8008F7D3C
:103F60008093D8008091E00082608093E00080918F
:103F7000E00081FDFCCF109259020E94CC2082CE3D
:103F8000CF92DF92FF920F931F93CF93DF936C0139
:103F90000091970280918C04082BC7E0D0E010E0DC
:103FA000C8010C2E02C0959587950A94E2F780FD12
:103FB00004C02197A8F7F12C09C0FC2EB6018C2F64
:103FC0000E942B180E944818019799F38F2DDF91BA
:103FD000CF911F910F91FF90DF90CF900895CF93D5
:103FE000DF93EC010E94C01FBE010E942B180E94AB
:103FF0004818DF91CF910895292F9E3078F58630AB
:1040000068F590E036E0239F800D911D1124682F04
:10401000677023E0969587952A95E1F7FC01EE0FEE
:10402000FF1FE80FF91FED53FB4F40E050E080E029
:10403000219130E0062E02C0369527950A94E2F7CA
:1040400021703327042E01C0220F0A94EAF7822B35
:104050004F5F5F4F4330510559F7089580E0089551
:10406000292F9E3088F5863078F590E036E0239F42
:10407000800D911D1124282F277051E001C0550F8C
:104080002A95EAF723E0969587952A95E1F7FC01B2
:10409000EE0FFF1FE80FF91FED53FB4F20E030E05C
:1040A00070E04081CB01022E02C0969587950A945C
:1040B000E2F78170819584278523842781932F5F80
:1040C0003F4F2330310569F70895A0E2B0E0EBE6F9
:1040D000F0E20C9422230E942205182F809187027F
:1040E0008823A9F02FEF80E792E021508040904094
:1040F000E1F700C0000085E08983812F0E940E0552
:104100008A838EEF8B83CE0101960E94E11010937B
:104110009702A096E3E00C943E2321E030E001C03A
:10412000220F8A95EAF720958091970282230E94B8
:104130006520089521E030E001C0220F8A95EAF75A
:1041400080919702822B0E946520089580938C04B1
:104150000895FC0124812223D9F0808191810E945D
:10416000EF1F92959F70963079F010F4925001C035
:104170009A50923068F4803F69F018F4883E40F419
:1041800009C0843F29F406C0883E20F0813F11F029
:1041900080E0089581E0089580910601882331F040
:1041A0008091560287FF02C08EE101C086E0EAE0FE
:1041B000F4E0DF011D928A95E9F780E090E00E942B
:1041C0009E1480E090E00E94791410928B040E946B
:1041D000E8190895882321F00E94E1190E94E81946
:1041E0000895882339F090915902892B80935902C0
:1041F0000E94E8190895882309F455C0682F823871
:1042000069F40E94C31481FF4EC069E388E094E022
:104210000E9444140E94E81969E30EC0833899F49F
:104220000E94C31480FF3FC063E588E094E00E94D1
:1042300044140E94E81963E588E094E00E941C148D
:104240000E94E8190895843869F40E94C31482FF1B
:104250002AC067E488E094E00E9444140E94E819B0
:1042600067E4EACF8CEF860F813A30F380E2860F65
:10427000883048F4677081E001C0880F6A95EAF7DA
:104280000E94E119DDCF8BE5860F833028F480E0B2
:1042900090E00E949E140895685A6B3120F480E0EB
:1042A00090E00E9479140895CF93882309F4B4C054
:1042B000C82F8238B1F40E94C31481FDADC069E3F8
:1042C00088E094E00E9444140E94E8192FEF87EEE2
:1042D00093E0215080409040E1F700C0000069E386
:1042E00017C08338E1F40E94C31480FD95C063E5D4
:1042F00088E094E00E9444140E94E8192FEF81EEB8
:1043000094E0215080409040E1F700C0000063E558
:1043100088E094E00E941C140E94E8197DC0843853
:10432000B1F40E94C31482FD77C067E488E094E092
:104330000E9444140E94E8192FEF81EE94E021506E
:1043400080409040E1F700C0000067E4E1CF8CEFCF
:104350008C0F813AB8F5809106018823E1F08091B5
:10436000560287FF18C0EC2FE695E695E695F0E03B
:10437000E85FFB4F8281282F30E04C2F477081E0AF
:1043800090E002C0880F991F4A95E2F78223932399
:10439000892B59F411C0EAE0F4E08191C81729F0A3
:1043A00024E0E031F207C9F707C06C2F88E094E001
:1043B0000E941C140E94E8196C2F88E094E00E946F
:1043C0004414AACF80E28C0F883068F4C77081E073
:1043D00090E001C0880FCA95EAF790915902892BA5
:1043E0008093590299CFEBE5EC0FE33040F4F0E015
:1043F000E35FFD4F808190E00E949E140DC0C85A7B
:10440000CB3150F4EC2FF0E0EE0FFF1FE05FFD4FDB
:10441000808191810E947914CF9108951092B90002
:104420008CE08093B8000895A0E0B0E0EAE1F2E209
:104430000C941A23B82EEB010E94E7136C01C431CF
:10444000D10558F0CF3F8FEFD80759F0CE0164E186
:1044500070E00E94FF227B0107C0EE24E394F12C60
:1044600003C025E0E22EF12C84E8A82E94EA992ED0
:104470001092BC009092BC000E94E7138C018091C6
:10448000BC0087FD07C0C8010E94CC13E816F906DE
:10449000B0F729C08091B900887F883041F08091C1
:1044A000B900887F803119F00FEF1FEF1EC0B09266
:1044B000BB00A092BC000E94E7138C018091BC005D
:1044C00087FD07C0C8010E94CC13E816F906B0F7B3
:1044D0000AC08091B900887F883111F0803421F7BB
:1044E00000E010E00EC00EEF1FEFCF3F8FEFD807B8
:1044F00009F4BECFC6010E94CC13C817D90708F033
:10450000B7CFC801CDB7DEB7EBE00C9436230F93DD
:104510001F93CF93DF93EB018093BB0084E88093DC
:10452000BC000E94E7138C018091BC0087FD0DC088
:10453000CF3F8FEFD807C1F3C8010E94CC13C81733
:10454000D90790F78EEF9FEF0CC02091B900287F1C
:1045500081E090E0283211F480E090E0919581951F
:104560009109DF91CF911F910F9108950F931F93A0
:10457000CF93DF93EC0184E88093BC000E94E713A3
:104580008C018091BC0087FD0DC0CF3F8FEFD80715
:10459000C1F3C8010E94CC13C817D90790F78EEF5A
:1045A0009FEF03C08091BB0090E0DF91CF911F91FE
:1045B0000F910895A0E0B0E0E0EEF2E20C941D232C
:1045C0006B018A017901B9010E941422E6010C0DE8
:1045D0001D1DC017D10741F424E92093BC00CDB7BD
:1045E000DEB7E8E00C94392397FDF6CFB701899147
:1045F0000E948722EECF84E98093BC000895AA1B15
:10460000BB1B51E107C0AA1FBB1FA617B70710F0BD
:10461000A61BB70B881F991F5A95A9F780959095EF
:10462000BC01CD0108952F923F924F925F926F92FD
:104630007F928F929F92AF92BF92CF92DF92EF9232
:10464000FF920F931F93CF93DF93CDB7DEB7CA1BB3
:10465000DB0B0FB6F894DEBF0FBECDBF09942A88DE
:10466000398848885F846E847D848C849B84AA8486
:10467000B984C884DF80EE80FD800C811B81AA8113
:10468000B981CE0FD11D0FB6F894DEBF0FBECDBFDE
:10469000ED010895FB01DC0102C005900D9241502F
:1046A0005040D8F70895DC01CB01FC01F999FECF09
:1046B00006C0F2BDE1BDF89A319600B40D924150AA
:1046C0005040B8F70895F999FECF92BD81BDF89A90
:1046D000992780B50895A6E1B0E044E050E00C943D
:1046E0005523A8E1B0E042E050E00C945523DC01F2
:1046F000A40FB51F4150504048F0CB01840F951FC7
:104700002E910E94882341505040D0F70895262FC3
:10471000F999FECF92BD81BDF89A019700B40216B7
:1047200039F01FBA20BD0FB6F894FA9AF99A0FBE65
:1047300008950396272F0E9488230E948723252F00
:104740000E948823242F0C9488230196272F0E94EF
:1047500088230C9487230E94BF230C94A0240E94DA
:10476000992458F00E94922440F029F45F3F29F0E8
:104770000C94892451110C94D4240C948F240E94FD
:10478000B12468F39923B1F3552391F3951B550B8D
:10479000BB27AA2762177307840738F09F5F5F4F14
:1047A000220F331F441FAA1FA9F335D00E2E3AF053
:1047B000E0E832D091505040E695001CCAF72BD06B
:1047C000FE2F29D0660F771F881FBB1F26173707BC
:1047D0004807AB07B0E809F0BB0B802DBF01FF27EE
:1047E00093585F4F3AF09E3F510578F00C9489241E
:1047F0000C94D4245F3FE4F3983ED4F386957795E8
:104800006795B795F7959F5FC9F7880F911D9695A6
:10481000879597F90895E1E0660F771F881FBB1F02
:10482000621773078407BA0720F0621B730B840BAF
:10483000BA0BEE1F88F7E09508950E94B92488F01E
:104840009F5798F0B92F9927B751B0F0E1F0660F54
:10485000771F881F991F1AF0BA95C9F714C0B13095
:1048600091F00E94D324B1E008950C94D324672FD3
:10487000782F8827B85F39F0B93FCCF386957795C4
:104880006795B395D9F73EF49095809570956195AD
:104890007F4F8F4F9F4F0895E89409C097FB3EF4D8
:1048A00090958095709561957F4F8F4F9F4F99237D
:1048B000A9F0F92F96E9BB279395F69587957795FB
:1048C0006795B795F111F8CFFAF4BB0F11F460FFBB
:1048D0001BC06F5F7F4F8F4F9F4F16C0882311F013
:1048E00096E911C0772321F09EE8872F762F05C027
:1048F000662371F096E8862F70E060E02AF09A95C2
:10490000660F771F881FDAF7880F9695879597F9B6
:10491000089597F99F6780E870E060E008959FEF41
:1049200080EC089500240A94161617061806090646
:10493000089500240A941216130614060506089515
:10494000092E0394000C11F4882352F0BB0F40F49D
:10495000BF2B11F460FF04C06F5F7F4F8F4F9F4FDD
:10496000089557FD9058440F551F59F05F3F71F05F
:104970004795880F97FB991F61F09F3F79F08795C6
:104980000895121613061406551FF2CF4695F1DF4F
:1049900008C0161617061806991FF1CF86957105DF
:1049A000610508940895E894BB2766277727CB0113
:1049B00097F908950E94ED240C94A0240E9492245B
:1049C00038F00E94992420F0952311F00C9489244A
:1049D0000C948F2411240C94D4240E94B12470F3DD
:1049E000959FC1F3950F50E0551F629FF001729F94
:1049F000BB27F00DB11D639FAA27F00DB11DAA1FA3
:104A0000649F6627B00DA11D661F829F2227B00DEF
:104A1000A11D621F739FB00DA11D621F839FA00D7A
:104A2000611D221F749F3327A00D611D231F849FCA
:104A3000600D211D822F762F6A2F11249F57504021
:104A40009AF0F1F088234AF0EE0FFF1FBB1F661F9C
:104A5000771F881F91505040A9F79E3F510580F065
:104A60000C9489240C94D4245F3FE4F3983ED4F34F
:104A7000869577956795B795F795E7959F5FC1F709
:104A8000FE2B880F911D9695879597F9089597FBB2
:104A9000072E16F4009407D077FD09D00E94FF225C
:104AA00007FC05D03EF4909581959F4F0895709531
:104AB00061957F4F0895EE0FFF1F0590F491E02D53
:104AC00009940F931F93CF93DF938230910510F4D5
:104AD00082E090E0E091E604F091E70420E030E02D
:104AE000A0E0B0E0309719F140815181028113813B
:104AF00048175907C8F08417950769F4109731F0E3
:104B000012960C93129713961C9327C00093E604F9
:104B10001093E70422C02115310519F042175307FD
:104B200018F49A01BD01EF01DF01F801DBCF211577
:104B30003105F9F0281B390B2430310580F48A81C6
:104B40009B816115710521F0FB019383828304C071
:104B50009093E7048093E604FE01329644C0FE0180
:104B6000E20FF31F819391932250310939832883F7
:104B70003AC02091E4043091E504232B41F42091C4
:104B80000201309103013093E5042093E404209165
:104B90000001309101012115310541F42DB73EB7D7
:104BA0004091040150910501241B350BE091E40470
:104BB000F091E504E217F307A0F42E1B3F0B281732
:104BC000390778F0AC014E5F5F4F2417350748F086
:104BD0004E0F5F1F5093E5044093E404819391933B
:104BE00002C0E0E0F0E0CF01DF91CF911F910F9183
:104BF0000895CF93DF93009709F481C0FC013297A9
:104C000013821282A091E604B091E704109781F418
:104C100020813181820F931F2091E4043091E504BB
:104C20002817390751F5F093E504E093E40467C0D1
:104C3000ED0120E030E0CE17DF0740F44A815B81D0
:104C40009E0141155105F1F0EA01F5CFD383C283EE
:104C500040815181840F951FC817D90759F4888165
:104C60009981840F951F0296918380838A819B810D
:104C7000938382832115310529F4F093E704E093AF
:104C8000E6043DC0E901FB83EA8349915991C40FD1
:104C9000D51FEC17FD0761F480819181840F951F6A
:104CA0000296E90199838883828193819B838A8319
:104CB000E0E0F0E012968D919C911397009719F027
:104CC000FD01DC01F7CF8D919C9111979D012E5F25
:104CD0003F4F820F931F2091E4043091E504281781
:104CE000390769F4309729F41092E7041092E6042A
:104CF00002C013821282B093E504A093E404DF9112
:104D0000CF910895FB01DC0104C08D9101908019C1
:104D100021F441505040C8F7881B990B0895F8942E
:024D2000FFCFC3
:104D22000000E80420000103FFFF00FF000A11DF7A
:104D32000BD70BD80B200000FFFF44226D5D033B15
:104D420003CE02B303CC03EC03FFFFFFFFFFFF1C04
:104D520021262B2FFF1B20252A2EFF1A1F24292D47
:104D6200FF191E23282CFF181D2227FFFFFFFFFF1C
:104D7200FFFFFFFFFFFFFFFFFF00050A0FFFFF011D
:104D8200060B1014FF02070C1115FF03080D121673
:104D9200FF04090E1317FFFFFFFFFFFFFF89009AB1
:104DA20000AC00BD00CE00890C9A0CAC0CBD0CCE40
:104DB2000C89199A19AC19BD19CE1989269A26ACF3
:104DC20026BD26CE269A33AC33BD33CE33560044AD
:104DD20000330022001100560C440C330C220C113B
:104DE2000C5619441933192219111956264426331F
:104DF200262226112644333333223311330404048A
:104E02000404040404040404040404040404040460
:104E1200040101010104040404040404040404045C
:104E220004040404040404040401010101818283D2
:104E3200E200E900EA00B500B600B700CD00830148
:104E4200CC008A019201940121022302240225024C
:104E5200260227022A02B300B4006F0070009F01ED
:104E6200CB019F02A0026A765039782F5644704DCA
:024E72004D00F1
:00000001FF
