:100000000C9416020C9433020C9433020C943302B9
:100010000C9433020C9433020C9433020C9433028C
:100020000C9433020C9433020C94F40C0C94360CA4
:100030000C94D1130C9433020C9433020C943302BD
:100040000C9433020C9433020C9433020C9433025C
:100050000C9433020C94CB0D0C9433020C943302A9
:100060000C9433020C9433020C9433020C9433023C
:100070000C9433020C9433020C9433020C9433022C
:100080000C9433020C9433020C9433020C9433021C
:100090000C9433020C9433020C9433020C9433020C
:1000A0000C9433020C9433020C94330216031B039A
:1000B000250319031E03230321036E046E04A10408
:1000C000A1040C052906290629062A059E05AF0567
:1000D000AF057F078207850788078B078E07910783
:1000E000550A7C0A140C7C0A140CC40AE70A140C86
:1000F000D60BE90B05010980A101850319012AB777
:1001000000150126B700950175108100C0050C0986
:1001100001A101850419012AA002150126A002955A
:100120000175108100C005010906A10185060507BA
:1001300019E029E7150025019508750181020507D9
:10014000190029EF1500250195F0750181020508B8
:100150001901290595057501910295017503910114
:10016000C005010906A101050719E029E7150025C9
:10017000019508750181029501750881010507192E
:100180000029FF150026FF00950675088100050867
:1001900019012905950575019102950175039101D4
:1001A000C009023B00020100A0FA0904000001039B
:1001B000010100092111010001224000070581030E
:1001C00008000109040100010300000009211101D8
:1001D0000001226D000705820320000112010002C8
:1001E0000000000897327449010001020001160363
:1001F0004500720067006F0044006F007800200027
:1002000045005A00000028035A0053004100200016
:1002100054006500630068006E006F006C006F00A2
:100220006700790020004C0061006200730000004C
:100230000403090429002B003500E100E000000060
:100240001E00140004001D00010001511F001A00CF
:1002500016001B000100E300200008000700060054
:1002600001002A002100150009001900E2004511D3
:10027000220017000A00050000002302010001000F
:100280000000010000003E000100010000002E00FF
:100290000000010023001C000B00110000002102DF
:1002A000240018000D0010006574010025000C00EA
:1002B0000E00360001002C00260012000F0037004F
:1002C000010028002700130033003800010002510C
:1002D0002D0031003400E5000100000001000100A4
:1002E0000100010046000000010000002F02010093
:1002F0000100010001004F11260201000100010070
:1003000001002F0027020100010001000100300060
:100310003002010001000100010000000100500155
:1003200000004A000100010000000100000001007F
:1003300001000100000001000000010001000100B7
:100340005000010000004D0000002F02510001008C
:10035000010001002F0026025200010001000100EF
:10036000300027024F0001000100010000003002B0
:100370000100010001000100010001000100010075
:10038000C35C000001000100010001000100000049
:100390003A00010001000100010001003B003F00A4
:1003A00042000100010001003C0040004300010048
:1003B00001004C003D00410044000100010001002B
:1003C0003E000100450001000000010001000100A5
:1003D0000000010000000100010001000000010018
:1003E0000000010001000100010001000000010007
:1003F00001000100010001000100010001000100F5
:1004000001000100010001000100010001000100E4
:1004100001000100010001000100010001000100D4
:1004200001000100010001000100000011241FBEB5
:10043000CFEFDAE0DEBFCDBF11E0A0E0B1E0ECE944
:10044000F5E302C005900D92A634B107D9F722E07A
:10045000A6E4B1E001C01D92A536B207E1F70E9403
:100460005B140C94CC1A0C940000982F92959F70FA
:1004700019F0892F24E001C020E0982F96959695D9
:1004800011F02E5F892F982F969509F02F5F822FFC
:100490000895109253010E9444172FEF84E39CE0CB
:1004A000215080409040E1F700C000009AE088E1D0
:1004B0000FB6F894A895809360000FBE90936000EB
:1004C000FFCFA7E1B0E0E7E6F2E00C9428194B8BF0
:1004D0005C8B6D8B7E8B8F8B61111092FB0186E0A4
:1004E0009E01235F3F4FD901E82F1D92EA95E9F75E
:1004F00095E0FE017396D90101900D929A95E1F76E
:100500009C894E895F897B897D879E876F87598B00
:10051000488BF901DE01179601900D928A95E1F75B
:10052000CE0107960E94751181113EC086E0FE0142
:100530003796DE01119601900D928A95E1F7FF81C1
:10054000E8856A857B856115710531F0EF3F31F4EF
:1005500081E0FF3F19F403C081E001C080E080FD2D
:1005600023C02091A80130E0C90101968770992726
:100570004091D90150E08417950779F1F983EA8316
:100580007D836C8396E0929FD001939FB00D1124E0
:10059000A755BE4FFE01319601900D929A95E1F755
:1005A0008093A8010E94021116E08091D9019091D8
:1005B000A801891709F1189FC001112487559E4F82
:1005C0000E9475118823C1F08091D90190E00196B5
:1005D000877099278093D901E8CF109253010E9428
:1005E00044171092A8011092D901E2EAF1E086E0E6
:1005F000DF011D928A95E9F76796E3E00C944419B0
:10060000CF93C82F0E94350256985E9825982D9852
:1006100026982E9827982F9890E0FC013197E73084
:10062000F105A8F4EA5AFF4F0C949819259A2D9ACF
:100630000EC0259A2D9A269A2E9A09C0259A2D9A8F
:1006400004C0259A2D9A269A2E9A279A2F9A8C2F93
:10065000CF910895AAE0B0E0E0E3F3E00C94201914
:10066000FC018081918123813481232B31F09F3FD4
:1006700031F491E08F3F19F403C091E001C090E0A4
:1006800090FD14C37F0185E0DE01169601900D9266
:100690008A95E1F7F70122818E819F81222349F01B
:1006A0000E944316182F682F8E819F810E94B316D7
:1006B00003C00E947F16182F6E817F81812F0E94B8
:1006C000510E8C01833B9D45D1F5F7018281882332
:1006D000B1F19091060281E0890F8770987F853093
:1006E00020F4892B8093060202C090930602809129
:1006F00006028770FFEF8F9FC001112495958795A3
:100700009595879599279093890080938800909379
:100710008B0080938A0090938D0080938C00409191
:1007200006025091070260910802709109028FE061
:1007300090E00E947619809118020E940003F70150
:100740008281882309F47DC00C35FDE51F0709F47B
:1007500065C058F401158CE5180799F00F3D1C454C
:1007600009F06FC00E94F10F4FC00E35EDE51E0776
:1007700009F44CC008F454C0093A1D4509F444C0BA
:1007800060C0109253010E9444178FEF94E3ECE095
:1007900081509040E040E1F700C00000F89481E013
:1007A0008093E00080E28093D8001092C9008FE12E
:1007B0009EE40197F1F700C000001DBA1092680096
:1007C0001CBC10BE1FBA10927A0010926E001092DC
:1007D0006F0010927100109272001092C900109276
:1007E000BC0014B817B81AB81DB810BA1092BC00E3
:1007F00015B818B81BB81EB811BA0C94003F8091F8
:10080000DA01877089F452C20E94490280914E0138
:1008100082FB882780F991E0892703C081E001C02D
:1008200080E00E94E6100DC0F7018281882309F460
:100830003DC280914E0182FF39C282E00E94C91000
:1008400035C2F701828100811181882349F0C801F6
:100850000E944316D82E682FC8010E94B31604C008
:10086000C8010E947F16D82EB8018D2D0E94510E0E
:100870000E946A0EB82E192F982EF7010281A580CA
:10088000A2949FE0A9228091DA018770B9F0002339
:10089000A9F0812F807F803421F080E28B0D883099
:1008A00068F080914E0182FF09C082E00E94C91069
:1008B0008091DA018770DD24D3948111D12CC12E6F
:1008C000C2948FE0C8228C2D90E08C30910508F006
:1008D000C0C1FC01E35AFF4F0C949819812F807F0F
:1008E0001F70882311F01295107F0023B9F0112397
:1008F00009F49DC180E28B0D883010F0911006C084
:1009000080915301182B1093530105C08091FB0176
:10091000182B1093FB010E94741089C18B2D0E942B
:100920006917112309F495C180E28B0D883080F19D
:10093000992071F110958091FB0118231093FB0110
:100940002AC0812F807F1F70803211F01295107F96
:100950008B2D992021F0F1E09F16D9F147C08091AD
:100960004E0182FD1BC0002369F0112339F08091F4
:100970005301182B109353010E94741080E00E94C1
:10098000951767C180E00E946917112309F461C1BE
:10099000812F0E946D100E9474105BC1002381F0B2
:1009A0008091FC01AA2051F021E0A21207C0182B6F
:1009B000181709F44EC11093FC014BC1812B10C0D4
:1009C000AA2021F081E0A81609F443C10E94671013
:1009D0001FC0002341F091E09A1508F43AC1812F1D
:1009E0000E945F1736C1A11034C112C0002319F054
:1009F000AA20A9F31CC1AA2059F0893309F026C105
:100A0000EFEFF7EE23E0E150F0402040E1F71CC1AA
:100A1000812F0E9458171DC1812F8695869583705E
:100A200019F0813061F015C1002321F08B2D912F39
:100A3000937002C080E090E00E94381410C100233F
:100A400021F08B2D912F937002C080E090E00E94E6
:100A5000221405C1812F8370A9F50111FEC04B2D11
:100A6000429546954770440F440F8B2D8F7090E050
:100A70009C01042E01C0220F0A94EAF7B4FE08C0BC
:100A80008FE090E001C0880F4A95EAF7809501C099
:100A900080E0169516951370123069F088F49091E5
:100AA000FD01113019F0822B892302C0922B892B72
:100AB0000E940817D2C0822B9091FD018927F8CFA0
:100AC000822BF6CF002319F0812F817001C086950B
:100AD000882309F4C2C04B2D429546954770440FB8
:100AE000440F8B2D8F7090E09C01042E01C0220FCB
:100AF0000A94EAF7B4FE08C08FE090E001C0880FC6
:100B00004A95EAF7809501C080E016951695137016
:100B1000123059F078F490911802113019F0822BAC
:100B2000892309C0922B892B06C0822B9091180231
:100B3000892701C0822B0E94E8168FC01F700023F6
:100B400039F0812F0E94FC168B2D0E945F1785C003
:100B50008B2D0E945817812F0E94EF167EC08B2D7F
:100B600092EF991669F1991538F0E0EF9E1659F059
:100B7000F1EF9F1601F157C023EF921641F194EF68
:100B80009916A9F050C0002369F0A11062C01F712E
:100B900081E090E001C0880F1A95EAF79091180261
:100BA00089271FC0E1E0EA1508F453C0F0CF809117
:100BB0004E0182FD19C0002329F0812F8F7126C0BC
:100BC0000023D9F3812F8F710E94EF1642C00023BA
:100BD00039F01F7181E001C0880F1A95EAF701C052
:100BE00080E00E94E81635C0002399F01F71812F24
:100BF0000E94FC1680914E0182FF07C0F8E01F9F03
:100C0000C001112483608093DA01812F0E94FC16B9
:100C100020C081E00E94C91021E02A15D0F482E0B2
:100C20000E94C91016C0002321F0AA2031F28B2D9A
:100C3000A6CEAA2039F2893349F48FEF97EEE3E08C
:100C400081509040E040E1F700C000008B2D0E94F1
:100C5000691788EF8C0D843010F40E944E14DD204B
:100C6000A9F08091DA0180FD11C0F701128285950B
:100C7000859585950E94FC16C7010E942A038091E4
:100C8000DA018595859585950E94EF1685E0F70137
:100C9000DE01119601900D928A95E1F709811A8182
:100CA000C8010E947F16B8010E94510E2A96EBE0FF
:100CB0000C943C1980E290E090931401809313010E
:100CC0008091480181110EC00E94351881E0809307
:100CD00048012FEF83ED90E3215080409040E1F7F1
:100CE00000C0000060E570E080E40E943B18909333
:100CF000140180931301892B09F04EC060E570E068
:100D000080E00E94AE189093140180931301892B08
:100D100009F042C060E570E080E00E94AE18909358
:100D2000140180931301892BB9F560E570E08FE31E
:100D30000E94AE189093140180931301892B61F5E2
:100D40000E94011960E570E080E40E943B189093D6
:100D5000140180931301892BF9F460E570E08CE0B5
:100D60000E94AE189093140180931301892BA1F473
:100D700060E570E080E00E94AE18909314018093CB
:100D80001301892B49F460E570E08FE30E94AE18EF
:100D900090931401809313010E9401198091130113
:100DA0000895CF93DF9356985E9825982D982698AE
:100DB0002E9827982F98C8E8D0E08FEF90E099837D
:100DC0008883AAE8B0E011969C938E93ECE8F0E05B
:100DD00091838083259A2D9A2FEF80E792E021500E
:100DE00080409040E1F700C00000269A2E9A2FEF35
:100DF00080E792E0215080409040E1F700C0000081
:100E0000279A2F9A2FEF80E792E021508040904060
:100E1000E1F700C0000025982D982FEF80E792E0C1
:100E2000215080409040E1F700C0000026982E98A5
:100E30002FEF80E792E0215080409040E1F700C022
:100E4000000027982F988091060287702FEF829FCD
:100E5000C001112495958795959587959927998334
:100E6000888311969C938E939183808356985E9885
:100E700025982D9826982E9827982F98DF91CF9116
:100E80000895CF93E82F873080F5809113019091DA
:100E90001401892B09F047C0CE2F60E570E080E493
:100EA0000E943B189093140180931301892BD1F475
:100EB00060E570E082E10E94AE1890931401809387
:100EC0001301892B79F481E090E001C0880FCA9565
:100ED000EAF760E570E080950E94AE1890931401E7
:100EE000809313010E9401191EC090E0FC01379706
:100EF000E730F105C0F4E759FF4F0C949819209A98
:100F0000289811C0219A29980EC0229A2A980BC0BD
:100F1000239A2B9808C0529A5A9805C0539A5B9806
:100F200002C03E9A4698CF9108952098289821981B
:100F3000299822982A9823982B9852985A9853982F
:100F40005B983E9846980895CF93873040F58091FE
:100F5000130190911401892B59F560E570E081E44B
:100F60000E943B189093140180931301892B11F078
:100F7000C0E011C080E590E00E94DD1897FF05C039
:100F80009093140180931301F3CFC82FC095109252
:100F90001401109213010E9401198C2F0AC09FB1F5
:100FA0008FB1807F869586959370892B809501C03F
:100FB00080E0CF9108958098889A8198899A849842
:100FC0008C9A85988D9A86988E9A87988F9A08958C
:100FD0002091E4003091E50095E64091EC00842FEB
:100FE000817040FF23C08091E80080FD1DC080918A
:100FF0007801882399F0853099F08091EB0085FD88
:1010000011C04091E4005091E5002417350729F301
:10101000915011F09A01E1CF84E0089582E00895A3
:1010200083E0089581E0089580E008954091E8000C
:1010300042FFDDCF0895EF92FF920F931F93CF935E
:10104000DF937C018B010E94E807811119C0E70141
:1010500001151105A1F08091E80085FD0AC080917D
:10106000E8008E778093E8000E94E807882381F3E8
:1010700007C089918093F10001501109E9CF80E008
:10108000CDB7DEB7E6E00C94411980917A0187FF75
:1010900011C08091E80082FD05C080917801811126
:1010A000F8CF11C08091E8008B770BC08091780158
:1010B000882349F08091E80080FFF8CF8091E80014
:1010C0008E778093E8000895982F973068F5909375
:1010D000E900981739F07091EC002091ED005091E3
:1010E000F00003C0242F762F50E021FD02C09F5F47
:1010F000ECCF3091EB003E7F3093EB003091ED0070
:101100003D7F3093ED003091EB0031603093EB0088
:101110007093EC002093ED005093F0002091EE00CE
:1011200027FDE5CF80E008958F708093E90081E08E
:10113000089520918001309181012617370748F0EA
:101140006115710539F42091E8002E772093E800AD
:1011500001C0B901FC0120E06115710579F18091B0
:1011600078018823F1F18530F1F18091E80083FD69
:101170003CC08091E80082FD2EC08091E80080FF95
:10118000EBCF2091F3008091F20090E0922B61155B
:10119000710551F08830910538F421912093F100C8
:1011A000615071090196F3CF21E0089709F020E022
:1011B0008091E8008E778093E800CECF2111CFCFC9
:1011C0000AC080917801882361F0853061F08091B8
:1011D000E80083FD0AC08091E80082FFF2CF80E042
:1011E000089582E0089583E0089581E008950895C8
:1011F000089580915501089580934F017093510196
:101200006093500180917801843001F582E08093F1
:10121000E9008FEF9091E800815095FD06C095EDB3
:101220009A95F1F700008111F5CF8091E80085FFD4
:101230000DC040E050E063E070E08FE491E00E9478
:101240001B088091E8008E778093E8000895BC0128
:1012500084E00E94FC080895BC0183E00E94FC0821
:101260000895CF93DF9320910601222339F0209136
:101270004D0127FF03C060E222E002C068E021E0E8
:101280002093E9002FEF3091E800215035FD06C092
:1012900035ED3A95F1F700002111F5CF2091E800E6
:1012A00025FF1DC0EC0180910601811105C040E0C1
:1012B00050E068E070E003C070E040E050E0CE0134
:1012C0000E941B088091E8008E778093E80080E2FE
:1012D000FE01A6E5B1E001900D928A95E1F7DF915C
:1012E000CF910895AAE2B0E0E8E7F9E00C9428195C
:1012F000EAE7F1E082E891E02091F10021938E1776
:101300009F07D1F780917B01833009F461C030F4ED
:10131000813071F0823009F49DC0B4C08A3009F484
:1013200089C08B3009F46CC0893009F0ABC020C093
:1013300080917A01813A09F0A5C08091E800877F09
:101340008093E80080917E0190917F01892B21F4A8
:1013500060E286E591E003C060E080E090E070E04C
:101360000E9499088091E8008B778093E8008AC0FA
:1013700080917A01813209F085C080917E0190913F
:101380007F01029708F07EC08091E800877F8093FC
:10139000E8008091E80082FD05C08091780181110C
:1013A000F8CF70C02091F3008091F20090E0922B72
:1013B000029731F48091F100813011F0863021F4F0
:1013C0008091F100809355018091E8008B7756C0A1
:1013D00080917A01813A09F055C080917E01909107
:1013E0007F01892B09F04EC08091E800877F8093B0
:1013F000E8008091E80080FFFCCF8091060139C0B1
:1014000080917A018132F1F580917E0190917F0186
:10141000892BC1F58091E800877F8093E8000E94C6
:10142000450880917C0180930601109253010E942F
:10143000441728C080917A01813221F58091E8001B
:10144000877F8093E8000E94450880917D0180930A
:10145000540118C080917A01813AA1F48091E8008A
:10146000877F8093E8008091E80080FFFCCF809127
:1014700054018093F1008091E8008E778093E8001A
:101480000E9445088091E80083FFCEC180917A01D7
:1014900090917B01492F50E04A30510508F0C4C1BA
:1014A000FA01E059FF4F0C949819803821F08238E6
:1014B00009F0BAC108C08091760190917701992313
:1014C00089F082600FC080917E018F70873008F0B4
:1014D000ABC18093E9008091EB0085FB882780F900
:1014E0001092E9009091E800977F9093E800809334
:1014F000F1001092F10065C1282F2D7F09F094C1F1
:10150000882319F0823061F08FC180917C01813095
:1015100009F08AC1933009F080E0809377012EC0F2
:1015200080917C0181112AC080917E018F702FEF04
:10153000280F263008F078C18093E9002091EB0055
:1015400020FF1CC0933021F48091EB00806214C016
:101550009091EB0090619093EB0021E030E0A901C5
:1015600002C0440F551F8A95E2F74093EA0010929B
:10157000EA008091EB0088608093EB001092E90014
:101580008091E800877F20C181114EC110917C01BC
:101590001F778091E3008078812B8093E300809116
:1015A000E800877F8093E8000E9445088091E8006A
:1015B00080FFFCCF8091E30080688093E3001111ED
:1015C00002C082E001C083E0809378012DC1805881
:1015D000823008F029C180917C0190917D018C3D81
:1015E00053E0950779F583E08A838AE289834FB7D0
:1015F000F894DE01139620E03EE051E2E32FF0E0A4
:1016000050935700E49120FF03C0E295EF703F5FD5
:10161000EF708E2F90E0EA3010F0C79601C0C096B0
:101620008D939D932F5F243149F74FBF8091E80040
:10163000877F8093E8006AE270E0CE0101960E9405
:101640009908AEC040917E0150917F01292F332728
:1016500023303105A9F068F42130310509F4F3C0D5
:101660002230310509F0E0C08BE390E0E1EAF1E0DF
:1016700044C02132310521F12232310571F1D4C04B
:10168000992781309105A1F058F0029709F0CCC05C
:10169000EEEEF1E0E4918E2F90E0EEEEF1E02AC064
:1016A000E0E3F2E0E4918E2F90E0E0E3F2E022C08C
:1016B000E6E0F2E0E4918E2F90E0E6E0F2E01AC07E
:1016C0004115510509F4C4C04130510509F0ACC0C1
:1016D00089E090E0ECECF1E010C04115510509F40F
:1016E000BCC04130510509F09FC08DE690E0E4EFA9
:1016F000F0E003C0009709F497C02091E800277F2D
:101700002093E80020918001309181018217930796
:1017100008F49C0140E02115310589F180917801A0
:10172000882309F43DC08530D9F18091E80083FD1C
:1017300037C08091E80082FD2FC08091E80080FFD3
:10174000EACF4091F3008091F20090E0942B2115B4
:10175000310559F08830910540F444914093F100EF
:101760003196215031090196F2CF41E0089709F0F6
:1017700040E08091E8008E778093E800CCCF411163
:10178000CDCF0AC080917801882351F0853041F097
:101790008091E80083FD04C08091E80082FFF2CFD1
:1017A0008091E8008B778093E8003EC08038E1F5B7
:1017B0008091E800877F8093E80080917901809391
:1017C000F1008091E8008E778093E8000E94450840
:1017D0002BC0811129C080917C0190917D019927B6
:1017E000029714F58091E800877F8093E8001091BC
:1017F0007C01109379010E944508111106C0809167
:10180000E30087FD02C081E001C084E0809378019D
:1018100042E061EC81E00E94640842E261EC82E017
:101820000E946408809178018091E80083FF1AC0CB
:101830008091E800877F8093E8008091EB008062D0
:101840008093EB000FC082E190E0ECEDF1E055CF2A
:1018500089E090E0E3EBF1E050CF80E490E0E1E656
:10186000F1E04BCFAA96E3E00C9444191F920F923B
:101870000FB60F9211242F933F934F935F936F9363
:101880007F938F939F93AF93BF93CF93DF93EF9308
:10189000FF93C091E900CF708091EC00D82FD170F8
:1018A00080FDD0E81092E9008091F000877F80935E
:1018B000F00078940E9472091092E9008091F00083
:1018C00088608093F000CD2BCF70C093E900FF912A
:1018D000EF91DF91CF91BF91AF919F918F917F91C8
:1018E0006F915F914F913F912F910F900FBE0F908D
:1018F0001F901895E8EDF0E080818E7F8083109234
:10190000E2001092DA001092E100A0EEB0E08C91BB
:1019100081608C9380818F77808319BCA7EDB0E0C4
:101920008C918E7F8C9380818F7E80831092520168
:101930000895A0E0B0E0EFE9FCE00C942319C8EDB5
:10194000D0E088818F7E8883E7EDF0E08081816040
:10195000808384E082BF81E08093520188818E7F02
:10196000888302EE10E0F80110821092DA0081EE16
:10197000C82ED12CF601108288818F7788838881C8
:101980008068888388818F7D888319BC1092780154
:1019900010927901109277011092760190EEE92E63
:1019A000F12CF70180818B7F80838881816088831F
:1019B00042E060E080E00E946408F60180818E7F52
:1019C0008083F8018081816080838081886080834A
:1019D000F70180818E7F8083888180618883CDB785
:1019E000DEB7E8E00C943F191F920F920FB60F92EA
:1019F00011242F933F934F935F936F937F938F9314
:101A00009F93AF93BF93EF93FF938091E10082FF89
:101A100009C08091E20082FF05C08091E1008B7FC8
:101A20008093E1008091DA0080FF2AC08091D80085
:101A300080FF26C08091DA008E7F8093DA0080914B
:101A4000D90080FF18C080E189BD82E189BD09B459
:101A500000FEFDCF81E080937801809152018111D9
:101A60000FC00E947A0C0E94990C8091E200846061
:101A70008093E20005C019BC1092780110925201C7
:101A80008091E10080FF17C08091E20080FF13C0C9
:101A90008091E2008E7F8093E2008091E20080617D
:101AA0008093E2008091D80080628093D80019BCB6
:101AB00085E0809378018091E10084FF30C08091BF
:101AC000E20084FF2CC080E189BD82E189BD09B4B8
:101AD00000FEFDCF8091D8008F7D8093D80080914B
:101AE000E1008F7E8093E1008091E2008F7E809301
:101AF000E2008091E20081608093E20080917901B0
:101B0000882311F084E007C08091E30087FD02C0C4
:101B100081E001C083E08093780180917801809119
:101B2000E10083FF27C08091E20083FF23C0809102
:101B3000E100877F8093E10082E08093780110923A
:101B400079018091E1008E7F8093E1008091E20035
:101B50008E7F8093E2008091E20080618093E200BA
:101B600042E060E080E00E9464088091F0008860BC
:101B70008093F000FF91EF91BF91AF919F918F9172
:101B80007F916F915F914F913F912F910F900FBE79
:101B90000F901F90189578941F920F920FB60F9286
:101BA00011248F939F93AF93BF938091490190919C
:101BB0004A01A0914B01B0914C010196A11DB11DAC
:101BC0008093490190934A01A0934B01B0934C013B
:101BD000BF91AF919F918F910F900FBE0F901F906B
:101BE00018959C014FB7F8948091490190914A0152
:101BF000A0914B01B0914C014FBF821B930B0895F4
:101C00002FB7F8948091490190914A01A0914B011E
:101C1000B0914C012FBF089580E0089590914D013F
:101C200092FF0DC0282F2871283019F4877F846017
:101C300006C0282F2471243011F48B7F886093FF15
:101C40000DC0282F2871283119F4877E846106C0C1
:101C5000282F2471243111F48B7E886120914E014C
:101C600020FF0DC0382F3871383019F4877F81601C
:101C700006C0382F3171313011F48E7F886021FF1A
:101C80000DC0282F2871283119F4877E816106C084
:101C9000282F2171213111F48E7E886194FD877E79
:101CA00008957E30A0F4663090F494E5899FF001A9
:101CB000112486E0789FE00DF11D1124E60FF11D3F
:101CC000EE0FFF1FEC5CFD4F85919491089580E02D
:101CD00090E00895CF93DF938238910569F1B0F4D5
:101CE0008133910509F477C048F48932910509F4EC
:101CF00069C08A32910509F473C092C08533910599
:101D000009F45BC089339105B9F08AC0833E91051F
:101D100091F138F4803E9105D1F0823E910531F188
:101D20007FC0863E9105D9F1873E9105E9F1843E59
:101D3000910509F075C028C020914D0120FD5BC0C0
:101D400021FD59C020914E0123FD61C069C08091E1
:101D50004D0180FD4AC080914E0180FF4CC08091B2
:101D60004D0184FD39C183EE90E038C180914D0171
:101D700082FF3EC0F4CF80914D0182FD39C0809139
:101D80004E0180FD38C0EBCF80914E0181FF39C0FC
:101D900080914D0184FD20C187EE90E01FC18091AC
:101DA0004D0183FF2BC0F4CF80914D0183FD26C0F0
:101DB00080914E0181FD25C0EBCF80914D0185FDC5
:101DC00026C022C080914D0185FD1EC080914E012C
:101DD00083FF1DC00AC080914D0186FD1BC01DC040
:101DE00080914D0186FD19C015C089E390E0F6C0D1
:101DF00082EE90E0F3C080EE90E0F0C086EE90E0DE
:101E0000EDC084EE90E0EAC085E390E0E7C089E2AF
:101E100090E0E4C08AE290E0E1C081E390E0DEC0BF
:101E2000811532E5930708F05FC0811541E59407FD
:101E300028F0982F8827816F906AD0C0883E91053E
:101E400068F5803E910508F0C9C0883A9105B8F45C
:101E5000853A910548F0855AE82FF0E0EB5EFE4F99
:101E6000808190E09064BAC08130910509F4B1C0DE
:101E700008F4B2C08430910508F4AEC0AFC08F3B07
:101E8000910508F0A9C0885AE82FF0E0EE0FFF1F77
:101E9000E85EFE4F808191819464A0C0811520E5A9
:101EA0009207A0F0AC014370552721E030E002C05A
:101EB000220F331F4A95E2F78695869540E2849F6C
:101EC000C0011124822B932B9D6888C0811530E4BA
:101ED000930718F09F70906A81C09C013A95211574
:101EE0003F4108F47BC078C0EC01C11586E5D807F6
:101EF000E8F5C11525E5D20748F08C2F0E940E0E9B
:101F00008F7190E0982F8827906268C0C11534E5E2
:101F1000D30728F09C2F8827846F906A5FC0AE019A
:101F2000437055272C2F26952695C115D34578F457
:101F300081E090E002C0880F991F4A95E2F740E2E5
:101F4000249F90011124822B932B9C6847C081E031
:101F500090E002C0880F991F4A95E2F740E2249F63
:101F600090011124822B932B9A6838C0C1152AE561
:101F7000D207F8F4C11539E5D30790F08C2F8F7094
:101F80000E940E0E94E0D695C7959A95E1F7CF7012
:101F9000D0E0DC2FCC27D0699E01282BC9011EC0C0
:101FA000C11548E5D407C0F09C2F8827806F906A40
:101FB00015C0CE0190568115904270F48D2F8F710F
:101FC0000E940E0E282F2F71CE0199279062922B1E
:101FD00005C081E090E002C080E090E0DF91CF9109
:101FE000089568EE7EEF80E090E00E94821960E044
:101FF00082E090E00E94641960E083E090E00E943B
:1020000064191092FD0160E084E090E00E94641980
:1020100064E082E290E00E94641960E085E090E074
:102020000E94641960E086E090E00E9464196FEFFE
:1020300087E090E00E94641940E050E0BA0188E037
:1020400090E00E94761960E08DE090E00E946419B3
:1020500040E050E0BA0188E190E00E94761960E02B
:1020600087E190E00E94641940E050E0BA018CE101
:1020700090E00E94761960E070E080E290E00E94BB
:10208000821940E050E0BA0188E190E00E947619A0
:102090001092060210920702109208021092090292
:1020A00084E08093060240910602509107026091FD
:1020B0000802709109028FE090E00E94761940E0DA
:1020C00050E0BA0183E190E00E9476190895809172
:1020D000FC0181111092FC010895809590915301AB
:1020E0008923809353010895909153018091FB01BE
:1020F000982B909382018091FC018823D9F0892B41
:102100008093820180910601882331F080914D01F6
:1021100087FF02C08EE101C086E0E4E8F1E090E0D4
:10212000815028F021912223D9F39F5FF9CF91119B
:102130000E94671040E250E06BED71E082E891E0B0
:102140000E94BF1A892B21F180E2E2E8F1E0ABEDB9
:10215000B1E001900D928A95E1F7E0913B02F09198
:102160003C023097A9F080910601882359F08091B4
:102170004D0187FF07C0809182018093830186E033
:10218000809382010280F381E02D82E891E009953D
:1021900008952091DA01809582238093DA01982FA7
:1021A000977099F430E0482F082E000C550B241737
:1021B000350759F090914E0192FF07C0859585959E
:1021C00085950E94EF161092DA010895CF93C09181
:1021D0004E01C2FB992790F9981791F080FBC2F944
:1021E000C0934E0160914D0184E090E00E9464191B
:1021F0006C2F82E290E00E94641982E00E94C91074
:10220000CF9108958091D9019091A801891719F073
:102210008F5F8770FBCF08950F931F93CF93DF934A
:102220008091A70182958F7009F05AC08091A40116
:10223000882309F455C08091D9011091A8016091BB
:10224000A2017091A301C091A501D091A60191E0D6
:102250006F3F09F090E0292F06E0811709F440C094
:10226000209721F07F3F21F030E003C031E001C032
:10227000322F90E030FD31C0089FF001099FF00D32
:102280001124DF01A755BE4F11963C9111973713CA
:1022900024C03C91361321C012963C911297311103
:1022A0001CC013964D915C9114974C1B5D0B483CE0
:1022B000510598F48091A7018F7080618093A701E8
:1022C000E255FE4F80818F708061808382EA91E0C9
:1022D0000E942A030E94021103C001968770BDCF9D
:1022E000DF91CF911F910F910895A1E1B0E0EBE74D
:1022F000F1E10C9420198C0185E0F801DE011D96B6
:1023000001900D928A95E1F7F801E2809091A20187
:102310006091A3014091A5015091A601411551057D
:1023200031F06F3F31F481E09F3F19F403C081E049
:1023300001C080E0F82FF1709F2E80FD1BC1F801D5
:1023400030812181C380D48082EAA82E81E0B82E1A
:10235000F090A401F601E41BF50BFF2009F4C7C0BF
:102360008091A701E83CF10508F092C0482F407F1A
:1023700009F051C0621311C093130FC0FE2CE1107D
:102380000CC08F7080618093A701C5010E942A0351
:102390008091A701F80185832AC1C114D10431F0CD
:1023A0002F3F31F481E03F3F19F403C081E001C0C9
:1023B00080E080FD03C081E08E2502C080E090E0D7
:1023C000F82FF170FF2E80FF1CC08091D901409141
:1023D000A80156E0841709F4E8C090E0589FF00186
:1023E000599FF00D1124E755FE4F6181261306C059
:1023F0006081631303C06281E61203C00196877097
:10240000E9CFFE2CEE2009F4F2C08091A701816093
:102410008093A70149C0621306C0931304C0E11062
:1024200002C0F80186C0C8010E940D17882351F12F
:10243000EE2041F12091A701822F82958F7090E0CC
:10244000029774F08091A2019091A30198878F83E5
:102450001986DB86CA862C87CE0107960E942A033E
:1024600086E0F801A2EAB1E001900D928A95E1F7C9
:102470000E940C110AC06217C9F0C8010E940D1712
:1024800081111EC0C8010E942A03FF24F394AFC02B
:10249000482F407F81F782EA91E00E942A0386E07C
:1024A000F50111928A95E9F7F12CA1C09313E5CFBC
:1024B000E110E3CFF8018583C8010E942A0354C0CC
:1024C000EE2001F32091A701822F82958F7090E07A
:1024D000029734F28091A2019091A3019A8389839B
:1024E0001B82DD82CC822E83CE010196B7CFE83CE1
:1024F000F105D0F5FE2CEE2029F2621327C09313CC
:1025000025C02091A70120FD18C0822F82958F70D1
:10251000482F50E04115510581F0F80125834F30D7
:10252000510541F08F5F982F9295907F822F8F7089
:10253000892B8583C8010E942A0386E0F801A2EA5C
:10254000B1E001900D928A95E1F751C0C8010E9457
:102550000D17811185CF8091A70181608093A7011C
:10256000C8010E942A0343C086E0F50111928A95B2
:10257000E9F73DC0EE2009F485CFC8010E940D1790
:10258000F82E882309F47ECF86E0F801A2EAB1E0B4
:1025900001900D928A95E1F78091A2019091A3019B
:1025A0000E9472160E940C1122C03D872E878D85D5
:1025B0009E850E947216292F22952F70223028F4B2
:1025C0009F7039F0811105C00BC0243028F49F7032
:1025D00049F4805E883020F0C8010E942A039F2CB5
:1025E000F92C05C0F8019581907F99F7F9CF8F2DCF
:1025F0006196EBE00C943C19A0E0B0E0E2E0F3E17E
:102600000C9423198091130190911401892B91F05E
:102610008091FE018F5F8093FE0181110BC00E94AB
:102620005A0690E09093140180931301892B11F4C2
:102630000E94D1060AE012E07801D0E0C0E087E015
:10264000C82ECC0E8C2F0E9441078C2D0E94410772
:102650008C2F0E94A4078F73F7019081891721F0B6
:102660008083DD24D39401C0D12C8C2D0E94A4073B
:102670008F73F7019781891719F0878381E001C073
:1026800080E0D82ADD290E949507CF5FFFEFEF1A7F
:10269000FF0AC730A1F610920302C0910202CC23B8
:1026A00009F47BC00E94000E2091000230910102CB
:1026B000AC01421B530B9A019093010280930002DC
:1026C0004F3F510509F018F4452B19F102C02FEFC7
:1026D00030E0109202021092FF01E0910402F091AA
:1026E0000502AF01425F5F4F90E030E080818823B8
:1026F00041F0281718F010829C2F03C0821B8083A2
:102700003C2F3196E417F50789F730930202909336
:10271000FF01DD23A1F1E0910402F0910502809117
:10272000030290910202ABE1B2E0AF01425F5F4F62
:102730006EE1E80128813C91321779F03081311146
:102740000CC060832C9398819227282F30E0292B8E
:1027500081E0232B09F480E091E0319611960F5F20
:102760001F4FE417F50729F78093030290930202A5
:1027700080910302CDB7DEB7E8E00C943F1981E009
:102780009091FF019923A1F38111C5CF0E94000E02
:102790009093010280930002BECFD111F7CF80E069
:1027A000EFCF1F920F920FB60F9211248F939F932A
:1027B000AF93BF9380913F02811113C08091490173
:1027C00090914A01A0914B01B0914C014196A11DFD
:1027D000B11D8093490190934A01A0934B01B0939E
:1027E0004C01BF91AF919F918F910F900FBE0F90B1
:1027F0001F901895209106012223C9F020914D01C8
:1028000027FF15C0262F2695269526952E31C8F42C
:10281000FC01E20FF11D677081E090E001C0880FBC
:102820006A95EAF780959281892382830895FC0155
:1028300006962281621301C012823196E817F907C9
:10284000C1F7089520913D0230913E0228173907C3
:1028500071F090933E0280933D02E0913B02F09133
:102860003C02309721F00084F185E02D0995089510
:102870002091390230913A022817390771F090936C
:102880003A0280933902E0913B02F0913C0230978A
:1028900021F00680F781E02D09950895E0913B0233
:1028A000F0913C02309729F00190F081E02D0995DC
:1028B000089580E00895AAE0B0E0E1E6F4E10C9428
:1028C0001A1985B7806885BF85B7806885BF84B7CA
:1028D000877F84BF0FB6F894A895809160008861C7
:1028E00080936000109260000FBE90E080E80FB609
:1028F000F89480936100909361000FBE8CE09EE09D
:1029000090934701809346010E947A0C0E94990C93
:102910008091E20084608093E20078948091780155
:102920008823A1F01091E9001F709091EC00892F8D
:10293000817090FD80E8182B1092E9008091E800EA
:1029400083FD0E9472091F701093E90082E084BD2C
:1029500093E095BD9AEF97BD80936E000E945A0652
:1029600090E090931401809313010E9495070E94B8
:10297000DB07EAE0F2E0ABE1B2E011921D9222E067
:10298000E831F207D1F78EE090E00E949E19809323
:10299000040290930502FC010E9611928E179F0778
:1029A000E1F789EA8093800089E080938100249890
:1029B0002C983F988AB18F7C8AB96E98479A8BB1D0
:1029C00080638BB9769A8FE090E00E9458196093EB
:1029D00006027093070280930802909309026770C1
:1029E0008FEF689FB0011124759567957595679570
:1029F0007727709389006093880070938B006093B1
:102A00008A0070938D0060938C000E94D10680E054
:102A100090E00E945E19883E9E4F11F00E94F10FD7
:102A200082E090E00E9450198093290284E090E0B7
:102A30000E945019182F82E290E00E945019212F15
:102A400030E0382B30934E0120934D0183E090E02D
:102A50000E9450190E940817809118020E940003DA
:102A600087E091E090933C0280933B0228E1C22EE4
:102A7000D12C30E4632E49E2E42E42E0F42E50E102
:102A8000552E80917801853009F051C012E1809176
:102A90007801853009F045C080917801843009F1D2
:102AA00010923F020FB6F894A895C09260000FBE36
:102AB0006092600083B7817F846083BF83B7816049
:102AC00083BF7894889583B78E7F83BF0FB6F894C1
:102AD000A8958091600088618093600010926000EA
:102AE0000FBE80917701882391F20E945A0690E0F0
:102AF00090931401809313010E9495070E94DB07B5
:102B0000EBE1F2E01192EE16FF06E1F70E94FC12F3
:102B1000EBE1F2E08191811191C0EE16FF06D1F751
:102B2000B6CF109253010E9444170E944E140E9487
:102B3000FC129AE2A92E92E0B92EABE1B2E0F501C7
:102B400091918D91892722E0E833F20719F08823CB
:102B5000B9F322C0811120C00E94000E8C01809127
:102B6000190290911A020817190709F452C08FEF41
:102B700089838A831B820E94000E8160782F9D8347
:102B80008C8349815A816B818D810E9461021093EF
:102B90001A02009319023DC08BE1882E82E0982E24
:102BA00010E0F40131904F01F5014080432401F120
:102BB00000E077247394872D8421A1F00E831F8376
:102BC00091E0872D832109F490E098870E94000E00
:102BD0008160782F9A8789874E815F8168858A8591
:102BE0000E9461020F5F770C063029F7F5013082F1
:102BF0001F5FFFEFAF1ABF0A1E3099F68FB7F89428
:102C00004091490150914A0160914B0170914C01F2
:102C10008FBF0E944E1490913802891709F431CF6A
:102C2000809338028FB7F8944091490150914A013E
:102C300060914B0170914C018FBF23CF59BC19BDDE
:102C400009B400FEFDCF8091D8008F7D8093D8001D
:102C50008091E00082608093E0008091E00081FD3F
:102C6000FCCF109253010E94441711CF80E090E0F6
:102C70000E94381480E090E00E9422141092FB0120
:102C80000E9474100895CF92DF92FF920F931F93CA
:102C9000CF93DF936C01009118028091FD01082B06
:102CA000C7E0D0E010E0C8010C2E02C095958795D2
:102CB0000A94E2F780FD04C02197A8F7F12C09C01F
:102CC000FC2EB6018C2F0E94510E0E946A0E0197B5
:102CD00099F38F2DDF91CF911F910F91FF90DF908E
:102CE000CF900895CF93DF93EC010E944316BE016D
:102CF0000E94510E0E946A0EDF91CF910895292FF4
:102D00009E3078F5863068F590E036E0239F800DA0
:102D1000911D1124682F677023E0969587952A9559
:102D2000E1F7FC01EE0FFF1FE80FF91FE05CFD4F1C
:102D300040E050E080E0219130E0062E02C0369560
:102D400027950A94E2F721703327042E01C0220F41
:102D50000A94EAF7822B4F5F5F4F4330510559F7D2
:102D6000089580E00895292F9E3088F5863078F503
:102D700090E036E0239F800D911D1124282F2770AD
:102D800051E001C0550F2A95EAF723E09695879503
:102D90002A95E1F7FC01EE0FFF1FE80FF91FE05C39
:102DA000FD4F20E030E070E04081CB01022E02C0F8
:102DB000969587950A94E2F78170819584278523FB
:102DC000842781932F5F3F4F2330310569F70895A2
:102DD0000E940003809318020E943616089521E095
:102DE00030E001C0220F8A95EAF720958091180201
:102DF00082230E94E816089521E030E001C0220FEE
:102E00008A95EAF780911802822B0E94E8160895AD
:102E10008093FD010E9436160895CF93FC018081B6
:102E2000918123813481232B31F09F3F31F491E054
:102E30008F3F19F403C091E001C090E0C92FC17029
:102E400090FD1CC0808191810E94721692959F70A6
:102E5000963079F010F4925001C09A50923088F474
:102E6000803F71F018F4883E60F40AC0843F49F452
:102E700007C0883E28F0813F21F402C0C0E001C0B5
:102E8000C1E08C2FCF91089580910601882331F005
:102E900080914D0187FF02C08EE101C086E0E4E829
:102EA000F1E0DF011D928A95E9F70E943616089538
:102EB000882321F00E946D100E94741008958823C9
:102EC00039F090915301892B809353010E94741023
:102ED0000895882349F1682F8CEF860F813A28F4F2
:102EE00082E891E00E94FA130CC080E2860F8830DD
:102EF00058F4677081E001C0880F6A95EAF70E9474
:102F00006D100E94741008958BE5860F833028F4AD
:102F100080E090E00E9438140895685A673120F4E8
:102F200080E090E00E9422140895CF93882309F452
:102F30009AC0C82F8CEF8C0F813A08F05EC0809148
:102F400006018823E1F080914D0187FF18C0EC2F26
:102F5000E695E695E695F0E0EE57FE4F8281282F44
:102F600030E04C2F477081E090E002C0880F991F3D
:102F70004A95E2F782239323892B59F411C0E4E8A0
:102F8000F1E08191C81729F081E0EA38F807C9F724
:102F900007C06C2F82E891E00E94FA130E9474101F
:102FA000809106018823C9F080914D0187FF15C0EB
:102FB000AC2FA695A695A695B0E0AE57BE4FC770AC
:102FC00081E090E001C0880FCA95EAF712969C91C3
:102FD0001297892B12968C9320C0A4E8B1E0EFEFF2
:102FE00080E09D91C917C9F0EF3F19F4911101C01C
:102FF000E82F8F5F8630A9F72DC080E28C0F8830D4
:1030000078F4C77081E090E001C0880FCA95EAF7B4
:1030100090915301892B809353010E94741023C017
:10302000EBE5EC0FE33040F4F0E0EB5EFE4F808127
:1030300090E00E94381417C0C85AC731A0F4EC2F92
:10304000F0E0EE0FFF1FE85EFE4F808191810E944D
:10305000221409C0EF3F09F30E2E000CFF0BEE57B0
:10306000FE4FC283DACFCF9108951092B9008CE061
:103070008093B8000895A0E0B0E0E1E4F8E10C949A
:103080002019B82EEB010E94000E6C01C431D1054D
:1030900058F0CF3F8FEFD80759F0CE0164E170E0D0
:1030A0000E9405197B0107C0EE24E394F12C03C0B4
:1030B00025E0E22EF12C84E8A82E94EA992E1092B5
:1030C000BC009092BC000E94000E8C018091BC005C
:1030D00087FD07C0C8010E94F10DE816F906B0F798
:1030E00029C08091B900887F883041F08091B90073
:1030F000887F803119F00FEF1FEF1EC0B092BB0028
:10310000A092BC000E94000E8C018091BC0087FD43
:1031100007C0C8010E94F10DE816F906B0F70AC011
:103120008091B900887F883111F0803421F700E068
:1031300010E00EC00EEF1FEFCF3F8FEFD80709F45E
:10314000BECFC6010E94F10DC817D90708F0B7CF4E
:10315000C801CDB7DEB7EBE00C943C190F931F9379
:10316000CF93DF93EB018093BB0084E88093BC0096
:103170000E94000E8C018091BC0087FD0DC0CF3FE6
:103180008FEFD807C1F3C8010E94F10DC817D90706
:1031900090F78EEF9FEF0CC02091B900287F81E05F
:1031A00090E0283211F480E090E0919581959109AA
:1031B000DF91CF911F910F9108950F931F93CF939C
:1031C000DF93EC0184E88093BC000E94000E8C0128
:1031D0008091BC0087FD0DC0CF3F8FEFD807C1F3B2
:1031E000C8010E94F10DC817D90790F78EEF9FEF25
:1031F00003C08091BB0090E0DF91CF911F910F91B0
:10320000089584E98093BC000895AA1BBB1B51E17B
:1032100007C0AA1FBB1FA617B70710F0A61BB70B46
:10322000881F991F5A95A9F780959095BC01CD01EB
:1032300008952F923F924F925F926F927F928F925A
:103240009F92AF92BF92CF92DF92EF92FF920F9335
:103250001F93CF93DF93CDB7DEB7CA1BDB0B0FB63F
:10326000F894DEBF0FBECDBF09942A8839884888FC
:103270005F846E847D848C849B84AA84B984C88492
:10328000DF80EE80FD800C811B81AA81B981CE0F89
:10329000D11D0FB6F894DEBF0FBECDBFED0108956E
:1032A000F999FECF92BD81BDF89A992780B508950E
:1032B000A6E1B0E044E050E00C948A19A8E1B0E047
:1032C00042E050E00C948A19262FF999FECF92BD66
:1032D00081BDF89A019700B4021639F01FBA20BDDB
:1032E0000FB6F894FA9AF99A0FBE08950396272F0D
:1032F0000E9465190E946419252F0E946519242FC8
:103300000C9465190196272F0E9465190C94641975
:10331000DC01CB01FC01F999FECF06C0F2BDE1BD95
:10332000F89A319600B40D9241505040B8F7089584
:10333000EE0FFF1F0590F491E02D09940F931F935A
:10334000CF93DF938230910510F482E090E0E0911A
:103350006302F091640220E030E0A0E0B0E030973A
:1033600019F1408151810281138148175907C8F032
:103370008417950769F4109731F012960C93129701
:1033800013961C9327C0009363021093640222C01B
:103390002115310519F04217530718F49A01BD01A0
:1033A000EF01DF01F801DBCF21153105F9F0281B12
:1033B000390B2430310580F48A819B8161157105B8
:1033C00021F0FB019383828304C090936402809375
:1033D0006302FE01329644C0FE01E20FF31F8193A7
:1033E000919322503109398328833AC02091610298
:1033F00030916202232B41F42091020130910301AC
:10340000309362022093610220910001309101010A
:103410002115310541F42DB73EB74091040150917B
:103420000501241B350BE0916102F0916202E21765
:10343000F307A0F42E1B3F0B2817390778F0AC01D7
:103440004E5F5F4F2417350748F04E0F5F1F5093B4
:103450006202409361028193919302C0E0E0F0E048
:10346000CF01DF91CF911F910F910895CF93DF93FB
:10347000009709F481C0FC01329713821282A09157
:103480006302B0916402109781F420813181820F30
:10349000931F20916102309162022817390751F57C
:1034A000F0936202E093610267C0ED0120E030E03A
:1034B000CE17DF0740F44A815B819E01411551051B
:1034C000F1F0EA01F5CFD383C28340815181840FAB
:1034D000951FC817D90759F488819981840F951FC2
:1034E0000296918380838A819B81938382832115B5
:1034F000310529F4F0936402E09363023DC0E901D1
:10350000FB83EA8349915991C40FD51FEC17FD073E
:1035100061F480819181840F951F0296E90199835E
:103520008883828193819B838A83E0E0F0E0129616
:103530008D919C911397009719F0FD01DC01F7CF55
:103540008D919C9111979D012E5F3F4F820F931F8C
:1035500020916102309162022817390769F430978F
:1035600029F4109264021092630202C01382128244
:10357000B0936202A0936102DF91CF910895FB01A5
:10358000DC0104C08D910190801921F4415050401C
:0C359000C8F7881B990B0895F894FFCF32
:10359C0000006502200001F9083109F8082C092700
:1035AC0009F7082000818283E200E900EA00B500F7
:1035BC00B600B700CD008301CC008A0192019401C2
:1035CC002102230224022502260227022A02B3002A
:0635DC00B4006F00700056
:00000001FF
