:100000000C94C2010C94DF010C94DF010C94DF010D
:100010000C94DF010C94DF010C94DF010C94DF01E0
:100020000C94DF010C94DF010C94ED060C942F0668
:100030000C947D160C94DF010C94DF010C94DF010D
:100040000C94DF010C94DF010C94DF010C94DF01B0
:100050000C94DF010C94C4070C94DF010C94DF01B5
:100060000C94DF010C94DF010C94DF010C94DF0190
:100070000C94DF010C94DF010C94DF010C94DF0180
:100080000C94DF010C94DF010C94DF010C94DF0170
:100090000C94DF010C94DF010C94DF010C94DF0160
:1000A0000C94DF010C94DF010C94DF014E04750405
:1000B0000D0675040D06BD04E0040D06CF05E2052E
:1000C000420B470B510B450B4A0B4F0B4D0B7B0C57
:1000D0007E0C810C840C870C8A0C8D0C801480148F
:1000E000AF14AF1419153416341634163515A91576
:1000F000BA15BA1505010980A101850319012AB7AE
:1001000000150126B700950175108100C0050C0986
:1001100001A101850419012AA002150126A002955A
:100120000175108100C005010906A10185060507BA
:1001300019E029E7150025019508750181020507D9
:10014000190029EF1500250195F0750181020508B8
:100150001901290595057501910295017503910114
:10016000C005010906A101050719E029E7150025C9
:10017000019508750181029501750881010507192E
:100180000029FF150026FF00950675088100050867
:1001900019012905950575019102950175039101D4
:1001A000C009023B00020100A0FA0904000001039B
:1001B000010100092111010001224000070581030E
:1001C00008000109040100010300000009211101D8
:1001D0000001226D000705820320000112010002C8
:1001E0000000000897327449010001020001160363
:1001F0004500720067006F0044006F007800200027
:1002000045005A00000028035A0053004100200016
:1002100054006500630068006E006F006C006F00A2
:100220006700790020004C0061006200730000004C
:100230000403090429002B003500E100E000000060
:100240001E00140004001D00010001511F001A00CF
:1002500016001B000100E300200008000700060054
:1002600001002A002100150009001900E2002C00FD
:10027000220017000A00050000002302010001000F
:100280000000010000003E000100010000002E00FF
:100290000000010023001C000B00110000002102DF
:1002A000240018000D0010006574010025000C00EA
:1002B0000E00360001002C00260012000F0037004F
:1002C000010028002700130033003800010001005E
:1002D0002D0031003400E5000100000001000100A4
:1002E0000100010046000000005701002F0201003C
:1002F0000100010001574F01260201000100010029
:1003000002572F00270201000100010003573000AF
:1003100030020100010001000457010001005001FA
:1003200000004A0005570100000001000000010024
:1003300001000100000001000000010001000100B7
:100340005000010000004D0000002F02510001008C
:10035000010001002F0026025200010001000100EF
:10036000300027024F0001000100010000003002B0
:100370000100010001000100010001000100010075
:10038000C35C000011241FBECFEFDAE0DEBFCDBF9B
:1003900011E0A0E0B1E0EEEEFBE302C005900D92AB
:1003A000AC3CB107D9F722E0ACECB1E001C01D9242
:1003B000A63FB207E1F70E946B170C94F51D0C9451
:1003C00000002091E4003091E50095E64091EC00BA
:1003D000842F817040FF23C08091E80080FD1DC004
:1003E0008091FD01882399F0853099F08091EB0090
:1003F00085FD11C04091E4005091E50024173507B8
:1004000029F3915011F09A01E1CF84E0089582E040
:10041000089583E0089581E0089580E00895409173
:10042000E80042FFDDCF0895EF92FF920F931F93F4
:10043000CF93DF937C018B010E94E101811119C0F0
:10044000E70101151105A1F08091E80085FD0AC0C2
:100450008091E8008E778093E8000E94E101882374
:1004600081F307C089918093F10001501109E9CF10
:1004700080E0CDB7DEB7E6E00C946A1C8091FF0106
:1004800087FF11C08091E80082FD05C08091FD01C9
:100490008111F8CF11C08091E8008B770BC080915B
:1004A000FD01882349F08091E80080FFF8CF80911A
:1004B000E8008E778093E8000895982F973068F5CC
:1004C0009093E900981739F07091EC002091ED00BD
:1004D0005091F00003C0242F762F50E021FD02C080
:1004E0009F5FECCF3091EB003E7F3093EB0030917B
:1004F000ED003D7F3093ED003091EB0031603093A3
:10050000EB007093EC002093ED005093F0002091ED
:10051000EE0027FDE5CF80E008958F708093E9001D
:1005200081E00895209105023091060226173707D1
:1005300048F06115710539F42091E8002E77209379
:10054000E80001C0B901FC0120E06115710579F1F5
:100550008091FD018823F1F18530F1F18091E8006F
:1005600083FD3CC08091E80082FD2EC08091E800B0
:1005700080FFEBCF2091F3008091F20090E0922B6E
:100580006115710551F08830910538F4219120935F
:10059000F100615071090196F3CF21E0089709F04D
:1005A00020E08091E8008E778093E800CECF211183
:1005B000CFCF0AC08091FD01882361F0853061F0C2
:1005C0008091E80083FD0AC08091E80082FFF2CFAD
:1005D00080E0089582E0089583E0089581E0089521
:1005E000089508958091DA0108958093D40170935D
:1005F000D6016093D5018091FD01843001F582E040
:100600008093E9008FEF9091E800815095FD06C03E
:1006100095ED9A95F1F700008111F5CF8091E800F2
:1006200085FF0DC040E050E063E070E084ED91E0B4
:100630000E9414028091E8008E778093E80008956C
:10064000BC0184E00E94F5020895BC0183E00E9491
:10065000F5020895CF93DF9320910601222339F00C
:100660002091D20127FF03C060E222E002C068E0CF
:1006700021E02093E9002FEF3091E800215035FD73
:1006800006C035ED3A95F1F700002111F5CF209124
:10069000E80025FF1DC0EC0180910601811105C015
:1006A00040E050E068E070E003C070E040E050E0FF
:1006B000CE010E9414028091E8008E778093E800BA
:1006C00080E2FE01ABEDB1E001900D928A95E1F779
:1006D000DF91CF910895AAE2B0E0E1E7F3E00C9456
:1006E000511CEFEFF1E087E092E02091F1002193BF
:1006F0008E179F07D1F780910002833009F461C003
:1007000030F4813071F0823009F49DC0B4C08A3079
:1007100009F489C08B3009F46CC0893009F0ABC092
:1007200020C08091FF01813A09F0A5C08091E800C6
:10073000877F8093E8008091030290910402892BC7
:1007400021F460E28BED91E003C060E080E090E096
:1007500070E00E9492028091E8008B778093E8001D
:100760008AC08091FF01813209F085C08091030227
:1007700090910402029708F07EC08091E800877F84
:100780008093E8008091E80082FD05C08091FD0122
:100790008111F8CF70C02091F3008091F20090E0B9
:1007A000922B029731F48091F100813011F0863064
:1007B00021F48091F1008093DA018091E8008B7739
:1007C00056C08091FF01813A09F055C08091030223
:1007D00090910402892B09F04EC08091E800877F38
:1007E0008093E8008091E80080FFFCCF80910601B3
:1007F00039C08091FF018132F1F58091030290911F
:100800000402892BC1F58091E800877F8093E8007E
:100810000E943E0280910102809306011092D8014D
:100820000E94581A28C08091FF01813221F58091E1
:10083000E800877F8093E8000E943E0280910202D8
:100840008093D90118C08091FF01813AA1F4809171
:10085000E800877F8093E8008091E80080FFFCCF6C
:100860008091D9018093F1008091E8008E77809388
:10087000E8000E943E028091E80083FFCEC1809193
:10088000FF0190910002492F50E04A30510508F0D5
:10089000C4C1FA01EA5AFF4F0C94C11C803821F000
:1008A000823809F0BAC108C08091FB019091FC0127
:1008B000992389F082600FC0809103028F70873086
:1008C00008F0ABC18093E9008091EB0085FB88279D
:1008D00080F91092E9009091E800977F9093E800EA
:1008E0008093F1001092F10065C1282F2D7F09F04F
:1008F00094C1882319F0823061F08FC18091010288
:10090000813009F08AC1933009F080E08093FC01C6
:100910002EC08091010281112AC0809103028F7044
:100920002FEF280F263008F078C18093E90020913E
:10093000EB0020FF1CC0933021F48091EB0080621B
:1009400014C09091EB0090619093EB0021E030E0B7
:10095000A90102C0440F551F8A95E2F74093EA00AF
:100960001092EA008091EB0088608093EB00109277
:10097000E9008091E800877F20C181114EC110916C
:1009800001021F778091E3008078812B8093E30040
:100990008091E800877F8093E8000E943E0280916A
:1009A000E80080FFFCCF8091E30080688093E30043
:1009B000111102C082E001C083E08093FD012DC1CE
:1009C0008058823008F029C1809101029091020282
:1009D0008C3D53E0950779F583E08A838AE2898329
:1009E0004FB7F894DE01139620E03EE051E2E32F8A
:1009F000F0E050935700E49120FF03C0E295EF70C0
:100A00003F5FEF708E2F90E0EA3010F0C79601C084
:100A1000C0968D939D932F5F243149F74FBF8091EE
:100A2000E800877F8093E8006AE270E0CE010196DB
:100A30000E949202AEC04091030250910402292FFD
:100A4000332723303105A9F068F42130310509F44A
:100A5000F3C02230310509F0E0C08BE390E0E1EA19
:100A6000F1E044C02132310521F12232310571F12A
:100A7000D4C0992781309105A1F058F0029709F070
:100A8000CCC0EEEEF1E0E4918E2F90E0EEEEF1E0DE
:100A90002AC0E0E3F2E0E4918E2F90E0E0E3F2E0A0
:100AA00022C0E6E0F2E0E4918E2F90E0E6E0F2E092
:100AB0001AC04115510509F4C4C04130510509F06F
:100AC000ACC089E090E0ECECF1E010C041155105BC
:100AD00009F4BCC04130510509F09FC08DE690E09B
:100AE000E4EFF0E003C0009709F497C02091E8001C
:100AF000277F2093E800209105023091060282179B
:100B0000930708F49C0140E02115310589F180919B
:100B1000FD01882309F43DC08530D9F18091E800BA
:100B200083FD37C08091E80082FD2FC08091E800EE
:100B300080FFEACF4091F3008091F20090E0942B87
:100B40002115310559F08830910540F444914093C6
:100B5000F1003196215031090196F2CF41E008971A
:100B600009F040E08091E8008E778093E800CCCFD8
:100B70004111CDCF0AC08091FD01882351F085300D
:100B800041F08091E80083FD04C08091E80082FF7D
:100B9000F2CF8091E8008B778093E8003EC08038E8
:100BA000E1F58091E800877F8093E8008091FE0165
:100BB0008093F1008091E8008E778093E8000E9496
:100BC0003E022BC0811129C0809101029091020246
:100BD0009927029714F58091E800877F8093E800B9
:100BE000109101021093FE010E943E02111106C0F5
:100BF0008091E30087FD02C081E001C084E0809322
:100C0000FD0142E061EC81E00E945D0242E261ECA4
:100C100082E00E945D028091FD018091E80083FFE7
:100C20001AC08091E800877F8093E8008091EB00F4
:100C300080628093EB000FC082E190E0ECEDF1E088
:100C400055CF89E090E0E3EBF1E050CF80E490E015
:100C5000E1E6F1E04BCFAA96E3E00C946D1C1F9205
:100C60000F920FB60F9211242F933F934F935F93E0
:100C70006F937F938F939F93AF93BF93CF93DF93A4
:100C8000EF93FF93C091E900CF708091EC00D82FD3
:100C9000D17080FDD0E81092E9008091F000877F4C
:100CA0008093F00078940E946B031092E900809189
:100CB000F00088608093F000CD2BCF70C093E900E6
:100CC000FF91EF91DF91CF91BF91AF919F918F9164
:100CD0007F916F915F914F913F912F910F900FBE38
:100CE0000F901F901895E8EDF0E080818E7F808353
:100CF0001092E2001092DA001092E100A0EEB0E053
:100D00008C9181608C9380818F77808319BCA7ED53
:100D1000B0E08C918E7F8C9380818F7E8083109247
:100D2000D7010895A0E0B0E0E8E9F6E00C944C1C8F
:100D3000C8EDD0E088818F7E8883E7EDF0E0808188
:100D40008160808384E082BF81E08093D7018881C5
:100D50008E7F888302EE10E0F80110821092DA0094
:100D600081EEC82ED12CF601108288818F7788837E
:100D700088818068888388818F7D888319BC1092E0
:100D8000FD011092FE011092FC011092FB0190EE09
:100D9000E92EF12CF70180818B7F8083888181602F
:100DA000888342E060E080E00E945D02F60180817D
:100DB0008E7F8083F801808181608083808188605C
:100DC0008083F70180818E7F808388818061888322
:100DD000CDB7DEB7E8E00C94681C1F920F920FB6F7
:100DE0000F9211242F933F934F935F936F937F93B1
:100DF0008F939F93AF93BF93EF93FF938091E10005
:100E000082FF09C08091E20082FF05C08091E1006D
:100E10008B7F8093E1008091DA0080FF2AC080916F
:100E2000D80080FF26C08091DA008E7F8093DA00A0
:100E30008091D90080FF18C080E189BD82E189BD21
:100E400009B400FEFDCF81E08093FD018091D701C0
:100E500081110FC00E9473060E9492068091E200E9
:100E600084608093E20005C019BC1092FD011092CD
:100E7000D7018091E10080FF17C08091E20080FFE0
:100E800013C08091E2008E7F8093E2008091E200A7
:100E900080618093E2008091D80080628093D800C6
:100EA00019BC85E08093FD018091E10084FF30C092
:100EB0008091E20084FF2CC080E189BD82E189BD80
:100EC00009B400FEFDCF8091D8008F7D8093D800BB
:100ED0008091E1008F7E8093E1008091E2008F7E1F
:100EE0008093E2008091E20081608093E200809133
:100EF000FE01882311F084E007C08091E30087FDA4
:100F000002C081E001C083E08093FD018091FD017A
:100F10008091E10083FF27C08091E20083FF23C01E
:100F20008091E100877F8093E10082E08093FD0162
:100F30001092FE018091E1008E7F8093E10080910C
:100F4000E2008E7F8093E2008091E20080618093D6
:100F5000E20042E060E080E00E945D028091F000EB
:100F600088608093F000FF91EF91BF91AF919F91C6
:100F70008F917F916F915F914F913F912F910F9042
:100F80000FBE0F901F90189578941F920F920FB676
:100F90000F9211248F939F93AF93BF938091CE01B3
:100FA0009091CF01A091D001B091D1010196A11DE6
:100FB000B11D8093CE019093CF01A093D001B09347
:100FC000D101BF91AF919F918F910F900FBE0F9064
:100FD0001F9018959C014FB7F8948091CE01909185
:100FE000CF01A091D001B091D1014FBF821B930BD3
:100FF00008952FB7F8948091CE019091CF01A091E0
:10100000D001B091D1012FBF0895982F92959F7074
:1010100019F0892F24E001C020E0982F969596952D
:1010200011F02E5F892F982F969509F02F5F822F50
:1010300008959C013A9521153F4130F5BC01662782
:101040007270AC01442754709C012227387094FFC1
:101050000FC090FF02C080E101C080E0672B09F063
:101060008062452B09F08064232B79F08068089515
:10107000892F8170672B09F08260452B09F084600D
:10108000232B19F08860089580E00895FC01808189
:10109000813041F49185911114C09285992389F092
:1010A00082E00895823041F48185811107C08285F4
:1010B000811106C083E0089586E0089585E00895D3
:1010C00084E00895CF93DF93EC010E948E1ACE0145
:1010D000805E9109089710F0209731F4CE010E94AC
:1010E00019080E947D1A05C0CE010E9419080E94AD
:1010F0006C1ADF91CF9108958FE39CE90197F1F786
:1011000000C0000080911302833029F0853031F057
:10111000813041F403C085E490E002C08FE390E0A9
:101120000E9462081092130208958FE39CE90197D0
:10113000F1F700C0000080911102833029F0853062
:1011400031F0813041F403C084E490E002C08EE3CA
:1011500090E00E9462081092110208958FE39CE9CA
:101160000197F1F700C0000080910F02833029F051
:10117000853031F0813041F403C083E490E002C057
:101180008DE390E00E94620810920F0208958FE3B1
:101190009CE90197F1F700C0000080910D028330B7
:1011A00029F0853031F0813041F403C082E490E0D1
:1011B00002C08CE390E00E94620810920D02089534
:1011C0008FE39CE90197F1F700C0000080910B02CA
:1011D000833029F0853031F0813041F403C081E45F
:1011E00090E002C08BE390E00E94620810920B0234
:1011F00008958FE39CE90197F1F700C0000080910A
:101200000902833029F0853031F0813041F403C088
:1012100080E490E002C08AE390E00E9462081092AD
:1012200009020895CF93DF93EC01805E910908973E
:1012300010F0209731F4CE010E9419080E94841A00
:1012400005C0CE010E9419080E94731A8C2F0E94BB
:10125000BA1ADF91CF910895CF93DF93EC010E94EA
:101260001209C933D10549F42FEF87EE93E02150DD
:1012700080409040E1F700C00000CE010E9462086B
:10128000DF91CF910895CF93DF93EC018881833074
:1012900061F48FE390E00E942C098FE390E00E94BC
:1012A0002C098FE390E00E942C098881843020F083
:1012B0008FE390E00E942C09DF91CF910895CF93A6
:1012C000DF93EC018881833061F48EE390E00E942B
:1012D0002C098EE390E00E942C098EE390E00E949E
:1012E0002C098881843020F08EE390E00E942C0944
:1012F000DF91CF910895CF93DF93EC018881833004
:1013000061F48DE390E00E942C098DE390E00E944F
:101310002C098DE390E00E942C098881843020F014
:101320008DE390E00E942C09DF91CF910895CF9337
:10133000DF93EC018881833061F48CE390E00E94BC
:101340002C098CE390E00E942C098CE390E00E9431
:101350002C098881843020F08CE390E00E942C09D5
:10136000DF91CF910895CF93DF93EC018881833093
:1013700061F48BE390E00E942C098BE390E00E94E3
:101380002C098BE390E00E942C098881843020F0A6
:101390008BE390E00E942C09DF91CF910895CF93C9
:1013A000DF93EC018881833061F48AE390E00E944E
:1013B0002C098AE390E00E942C098AE390E00E94C5
:1013C0002C098881843020F08AE390E00E942C0967
:1013D000DF91CF9108950E944608809313028330D5
:1013E00029F0853031F0813061F407C085E490E068
:1013F00006C08FE390E00E942C098FE390E00E94EA
:10140000120908950E94460880931102833029F042
:10141000853031F0813061F407C084E490E006C08B
:101420008EE390E00E942C098EE390E00E94120966
:1014300008950E94460880930F02833029F085307A
:1014400031F0813061F407C083E490E006C08DE3A1
:1014500090E00E942C098DE390E00E94120908950B
:101460000E94460880930D02833029F0853031F0C8
:10147000813061F407C082E490E006C08CE390E024
:101480000E942C098CE390E00E94120908950E94AA
:10149000460880930B02833029F0853031F081308B
:1014A00061F407C081E490E006C08BE390E00E9405
:1014B0002C098BE390E00E94120908950E944608CF
:1014C00080930902833029F0853031F0813061F456
:1014D00007C080E490E006C08AE390E00E942C09F7
:1014E0008AE390E00E9412090895A7E1B0E0EBE7DB
:1014F000FAE00C94511C4B8B5C8B6D8B7E8B8F8B2D
:1015000061111092C90286E09E01235F3F4FD9010D
:10151000E82F1D92EA95E9F795E0FE017396D9014F
:1015200001900D929A95E1F79C894E895F897B899C
:101530007D879E876F87598B488BF901DE0117964F
:1015400001900D928A95E1F7CE0107960E94561000
:1015500081113EC086E0FE013796DE0111960190B2
:101560000D928A95E1F7FF81E8856A857B85611593
:10157000710531F0EF3F31F481E0FF3F19F403C012
:1015800081E001C080E080FD23C020913A0230E07C
:10159000C90101968770992740916B0250E084172A
:1015A000950779F1F983EA837D836C8396E0929FB6
:1015B000D001939FB00D1124A55CBD4FFE01319663
:1015C00001900D929A95E1F780933A020E94E30F01
:1015D00016E080916B0290913A02891709F1189FE9
:1015E000C0011124855C9D4F0E9456108823C1F0D4
:1015F00080916B0290E001968770992780936B022F
:10160000E8CF1092D8010E94581A10923A02109214
:101610006B02E4E3F2E086E0DF011D928A95E9F7D0
:101620006796E3E00C946D1C1092D8010E94581A42
:101630002FEF84E39CE0215080409040E1F700C010
:1016400000009AE088E10FB6F894A89580936000B6
:101650000FBE90936000FFCFCF93C82F0E94050864
:1016600056985E9825982D9826982E9827982F980A
:1016700090E0FC013197E730F105A8F4E05AFF4F04
:101680000C94C11C259A2D9A0EC0259A2D9A269A43
:101690002E9A09C0259A2D9A04C0259A2D9A269A29
:1016A0002E9A279A2F9A8C2FCF91089580E290E05E
:1016B00090931401809313018091070281110EC051
:1016C0000E945A1B81E0809307022FEF83ED90E385
:1016D000215080409040E1F700C0000064E670E0D7
:1016E00080E40E94601B9093140180931301892B66
:1016F00009F04EC064E670E080E00E94D51B909334
:10170000140180931301892B09F042C064E670E054
:1017100080E00E94D51B9093140180931301892BC4
:10172000B9F564E670E08FE30E94D51B9093140135
:1017300080931301892B61F50E942A1C64E670E0F6
:1017400080E40E94601B9093140180931301892B05
:10175000F9F464E670E08CE00E94D51B90931401CC
:1017600080931301892BA1F464E670E080E00E946D
:10177000D51B9093140180931301892B49F464E6DF
:1017800070E08FE30E94D51B9093140180931301A6
:101790000E942A1C809113010895CF93DF935698DD
:1017A0005E9825982D9826982E9827982F98C8E807
:1017B000D0E08FEF90E099838883AAE8B0E011969B
:1017C0009C938E93ECE8F0E091838083259A2D9A88
:1017D0002FEF80E792E0215080409040E1F700C079
:1017E0000000269A2E9A2FEF80E792E02150804049
:1017F0009040E1F700C00000279A2F9A2FEF80E772
:1018000092E0215080409040E1F700C00000259810
:101810002D982FEF80E792E0215080409040E1F733
:1018200000C0000026982E982FEF80E792E021500C
:1018300080409040E1F700C0000027982F988091E9
:10184000960287702FEF829FC0011124959587958E
:101850009595879599279983888311969C938E9364
:101860009183808356985E9825982D9826982E9877
:1018700027982F98DF91CF910895CF93E82F873045
:1018800080F58091130190911401892B09F047C0D4
:10189000CE2F64E670E080E40E94601B90931401F8
:1018A00080931301892BD1F464E670E082E10E94F9
:1018B000D51B9093140180931301892B79F481E057
:1018C00090E001C0880FCA95EAF764E670E0809561
:1018D0000E94D51B90931401809313010E942A1C2F
:1018E0001EC090E0FC013797E730F105C0F4E959DC
:1018F000FF4F0C94C11C209A289811C0219A299856
:101900000EC0229A2A980BC0239A2B9808C0529A8C
:101910005A9805C0539A5B9802C03E9A4698CF9158
:101920000895209828982198299822982A982398F1
:101930002B9852985A9853985B983E9846980895D9
:10194000CF93873040F58091130190911401892B3A
:1019500059F564E670E081E40E94601B90931401E5
:1019600080931301892B11F0C0E011C084E690E050
:101970000E94051C97FF05C09093140180931301EA
:10198000F3CFC82FC09510921401109213010E943A
:101990002A1C8C2F0AC09FB18FB1807F86958695B7
:1019A0009370892B809501C080E0CF910895809835
:1019B000889A8198899A84988C9A85988D9A869825
:1019C0008E9A87988F9A089580E008959091D20119
:1019D00092FF0DC0282F2871283019F4877F84606A
:1019E00006C0282F2471243011F48B7F886093FF68
:1019F0000DC0282F2871283119F4877E846106C014
:101A0000282F2471243111F48B7E88612091D30119
:101A100020FF0DC0382F3871383019F4877F81606E
:101A200006C0382F3171313011F48E7F886021FF6C
:101A30000DC0282F2871283119F4877E816106C0D6
:101A4000282F2171213111F48E7E886194FD877ECB
:101A500008957E30A0F4663090F494E5899FF001FB
:101A6000112486E0789FE00DF11D1124E60FF11D91
:101A7000EE0FFF1FEC5CFD4F85919491089580E07F
:101A800090E00895CF93DF938238910569F1B0F427
:101A90008133910509F46FC048F48932910509F446
:101AA00065C08A32910509F46BC08AC085339105FF
:101AB00009F457C089339105B9F082C0833E91057E
:101AC00071F138F4803E9105B1F0823E910511F13B
:101AD00077C0863E9105B9F1873E9105C9F1843EF4
:101AE000910509F06DC024C02091D20120FD53C0A2
:101AF00021FD51C065C08091D20180FD46C080911A
:101B0000D30180FF48C08091D20184FD3FC183EEA4
:101B100090E03EC18091D20182FF3AC0F4CF809123
:101B2000D20182FD35C08091D30180FD34C0EBCF5E
:101B30008091D30181FF35C08091D20184FD26C1FF
:101B400087EE90E025C18091D20183FF27C0F4CFBA
:101B50008091D20183FD22C08091D30181FD21C0FB
:101B6000EBCF8091D20185FD1FC021C08091D201B1
:101B700085FD1DC019C08091D20186FD1BC01DC00E
:101B80008091D20186FD19C015C089E390E000C1A3
:101B900082EE90E0FDC080EE90E0FAC086EE90E02C
:101BA000F7C084EE90E0F4C089E290E0F1C085E3F4
:101BB00090E0EEC08AE290E0EBC081E390E0E8C004
:101BC000811532E5930708F069C0811541E5940756
:101BD00028F0982F8827816F906ADAC0883E910597
:101BE00068F5803E910508F0D3C0883A9105B8F4B5
:101BF000853A910548F0855AE82FF0E0E556FE4F0A
:101C0000808190E09064C4C08130910509F4BBC02C
:101C100008F4BCC08430910508F4B8C0B9C08F3B4B
:101C2000910508F0B3C0885AE82FF0E0EE0FFF1FCF
:101C3000E256FE4F808191819464AAC0811520E50F
:101C40009207F0F09C0174E0369527957A95E1F7BC
:101C5000922F9370482F437021E030E002C0220F92
:101C6000331F4A95E2F73C68392B8F70982F969571
:101C7000969540E2949FC0011124822B932B88C03B
:101C8000811530E4930718F09F70906A81C09C0121
:101C90003A9521153F4108F47BC078C0EC01C1158D
:101CA00086E5D807E8F5C11525E5D20748F08C2F61
:101CB0000E94E60C8F7190E0982F8827906268C090
:101CC000C11534E5D30728F09C2F8827846F906ACC
:101CD0005FC0AE01437055272C2F26952695C11560
:101CE000D34578F481E090E002C0880F991F4A95AF
:101CF000E2F740E2249F90011124822B932B9C68F1
:101D000047C081E090E002C0880F991F4A95E2F732
:101D100040E2249F90011124822B932B9A6838C0B3
:101D2000C1152AE5D207F8F4C11539E5D30790F0BB
:101D30008C2F8F700E94E60C94E0D695C7959A95EB
:101D4000E1F7CF70D0E0DC2FCC27D0699E01282BA3
:101D5000C9011EC0C11548E5D407C0F09C2F8827D3
:101D6000806F906A15C0CE0190568115904270F434
:101D70008D2F8F710E94E60C282F2F71CE0199278D
:101D80009062922B05C081E090E002C080E090E07C
:101D9000DF91CF91089568EE7EEF80E090E00E94A1
:101DA000AB1C60E082E090E00E948D1C60E083E06C
:101DB00090E00E948D1C10928E0260E084E090E022
:101DC0000E948D1C64E082E290E00E948D1C60E025
:101DD00085E090E00E948D1C60E086E090E00E942B
:101DE0008D1C6FEF87E090E00E948D1C40E050E07A
:101DF000BA0188E090E00E949F1C60E08DE090E0D6
:101E00000E948D1C40E050E0BA0188E190E00E9401
:101E10009F1C60E087E190E00E948D1C40E050E054
:101E2000BA018CE190E00E949F1C60E070E080E2CB
:101E300090E00E94AB1C40E050E0BA0188E190E0E5
:101E40000E949F1C10929602109297021092980284
:101E50001092990284E080939602409196025091EC
:101E6000970260919802709199028FE090E00E9431
:101E70009F1C40E050E0BA0183E190E00E949F1C6B
:101E8000089580918D02811110928D0208958095A0
:101E90009091C90289238093C902089580959091F9
:101EA000D80189238093D80108959091D801809119
:101EB000C902982B9093140280918D028823D9F047
:101EC000892B8093140280910601882331F0809140
:101ED000D20187FF02C08EE101C086E0E6E1F2E0B8
:101EE00090E0815028F021912223D9F39F5FF9CF10
:101EF00091110E94410F40E250E06DE672E084E1F2
:101F000092E00E94E81D892B21F180E2E4E1F2E0F9
:101F1000ADE6B2E001900D928A95E1F7E091CC0236
:101F2000F091CD023097A9F080910601882359F0F5
:101F30008091D20187FF07C080911402809315021F
:101F400086E0809314020280F381E02D84E192E028
:101F50000995089520916C028095822380936C02EC
:101F6000982F977099F430E0482F082E000C550BED
:101F70002417350759F09091D30192FF07C085953A
:101F8000859585950E941A1A10926C020895CF9338
:101F9000C091D301C2FB992790F9981791F080FB6B
:101FA000C2F9C093D3016091D20184E090E00E9415
:101FB0008D1C6C2F82E290E00E948D1C82E00E94BA
:101FC000AA0FCF91089580916B0290913A028917E0
:101FD00019F08F5F8770FBCF08950F931F93CF93F6
:101FE000DF938091390282958F7009F05AC08091F9
:101FF0003602882309F455C080916B0210913A0291
:102000006091340270913502C0913702D09138024C
:1020100091E06F3F09F090E0292F06E0811709F465
:1020200040C0209721F07F3F21F030E003C031E035
:1020300001C0322F90E030FD31C0089FF001099FB0
:10204000F00D1124DF01A55CBD4F11963C91119755
:10205000371324C03C91361321C012963C9112973D
:1020600031111CC013964D915C9114974C1B5D0B64
:10207000483C510598F4809139028F7080618093BB
:102080003902E05CFD4F80818F708061808384E342
:1020900092E00E94A3120E94E30F03C00196877092
:1020A000BDCFDF91CF911F910F910895A1E1B0E0D5
:1020B000ECE5F0E10C94491C8C0185E0F801DE01AF
:1020C0001D9601900D928A95E1F7F801E2809091BA
:1020D0003402609135024091370250913802411527
:1020E000510531F06F3F31F481E09F3F19F403C097
:1020F00081E001C080E0F82FF1709F2E80FD1BC1B0
:10210000F80130812181C380D48084E3A82E82E04D
:10211000B82EF0903602F601E41BF50BFF2009F40F
:10212000C7C080913902E83CF10508F092C0482F01
:10213000407F09F051C0621311C093130FC0FE2CF1
:10214000E1100CC08F70806180933902C5010E943C
:10215000A31280913902F80185832AC1C114D104E8
:1021600031F02F3F31F481E03F3F19F403C081E0AB
:1021700001C080E080FD03C081E08E2502C080E0C8
:1021800090E0F82FF170FF2E80FF1CC080916B0251
:1021900040913A0256E0841709F4E8C090E0589F55
:1021A000F001599FF00D1124E55CFD4F618126136C
:1021B00006C06081631303C06281E61203C001960A
:1021C0008770E9CFFE2CEE2009F4F2C0809139022D
:1021D00081608093390249C0621306C0931304C022
:1021E000E11002C0F80186C0C8010E94381A882395
:1021F00051F1EE2041F120913902822F82958F70AA
:1022000090E0029774F080913402909135029887A3
:102210008F831986DB86CA862C87CE0107960E949B
:10222000A31286E0F801A4E3B2E001900D928A9532
:10223000E1F70E94ED0F0AC06217C9F0C8010E94C1
:10224000381A81111EC0C8010E94A312FF24F39402
:10225000AFC0482F407F81F784E392E00E94A31231
:1022600086E0F50111928A95E9F7F12CA1C093134C
:10227000E5CFE110E3CFF8018583C8010E94A312E6
:1022800054C0EE2001F320913902822F82958F7085
:1022900090E0029734F280913402909135029A8353
:1022A00089831B82DD82CC822E83CE010196B7CF3B
:1022B000E83CF105D0F5FE2CEE2029F2621327C090
:1022C000931325C02091390220FD18C0822F8295DA
:1022D0008F70482F50E04115510581F0F80125839A
:1022E0004F30510541F08F5F982F9295907F822F4C
:1022F0008F70892B8583C8010E94A31286E0F801A4
:10230000A4E3B2E001900D928A95E1F751C0C801B3
:102310000E94381A811185CF8091390281608093A3
:102320003902C8010E94A31243C086E0F501119250
:102330008A95E9F73DC0EE2009F485CFC8010E94D7
:10234000381AF82E882309F47ECF86E0F801A4E33A
:10235000B2E001900D928A95E1F78091340290915C
:1023600035020E949D190E94ED0F22C03D872E87E5
:102370008D859E850E949D19292F22952F702230D0
:1023800028F49F7039F0811105C00BC0243028F467
:102390009F7049F4805E883020F0C8010E94A3122B
:1023A0009F2CF92C05C0F8019581907F99F7F9CF02
:1023B0008F2D6196EBE00C94651CA0E0B0E0E3EE9D
:1023C000F1E10C944B1C8091130190911401892B25
:1023D00091F080918F028F5F80938F0281110BC0EB
:1023E0000E94560B90E09093140180931301892B67
:1023F00011F40E94CD0B0AE912E07801B12CC0E083
:1024000087E0C82ECC0E8C2F0E943D0C8C2D0E9494
:102410003D0C8C2F0E94A00C8F73F70190818917BF
:1024200021F08083DD24D39401C0D12C8C2D0E9417
:10243000A00C8F73F7019781891719F0878381E0CA
:1024400001C080E0D82ABD280E94910CCF5FFFEF29
:10245000EF1AFF0AC730A1F6C0919302CC23C9F14D
:102460000E94F9072091910230919202AC01421B27
:10247000530B9A0190939202809391024F3F510522
:1024800009F020F4452B09F454C002C02FEF30E0CE
:102490001092930210929002E0919402F0919502B2
:1024A000AF01425F5F4F90E030E08081882341F0D0
:1024B000281718F010829C2F03C0821B80833C2FAA
:1024C0003196E417F50789F73093930290939002C1
:1024D00030C0BB2031F10E94F907909392028093A3
:1024E0009102E0919402F091950280919302A9EA01
:1024F000B2E09F01225F3F4F4EE1E80199918E01CA
:102500005C91591731F05081511103C040839C9365
:1025100081E031961196E217F30779F780939302E1
:102520000CC080E090919002992339F08111D9CFAD
:10253000D2CFB110D6CF81E0F5CF8B2DCDB7DEB79E
:10254000E9E00C94671CAAE0B0E0E9EAF2E10C943F
:10255000491CFC018081918123813481232B31F03E
:102560009F3F31F491E08F3F19F403C091E001C027
:1025700090E090FDBEC37F0185E0DE0116960190DC
:102580000D928A95E1F7D70112962C918E819F8149
:10259000222349F00E946E19182F682F8E819F8187
:1025A0000E94DE1903C00E94AA19182F6E817F8134
:1025B000812F0E94290D8C01F7018281811106C0B3
:1025C0000F3AFDE51F0709F442C07DC08091150157
:1025D00090911601019609F486C337E1C32E31E0CC
:1025E000D32EA12CB12C9924939480911501909114
:1025F00016018A159B0524F3D60116968C91169721
:102600008823F1F019968D919C911A978017910764
:1026100039F48091C7029091C8028017910781F028
:10262000F6019786148703878189811103C0C6014B
:102630000E940717C60106960E9426171092C9022B
:10264000FFEFAF1ABF0A26E1C20ED11CCECFD701D1
:1026500012968C91882309F491C09091960281E0A2
:10266000890F8770987F853020F4892B809396029C
:1026700002C090939602809196028770BFEF8B9F65
:10268000C0011124959587959595879599279093E5
:1026900089008093880090938B0080938A009093A8
:1026A0008D0080938C00409196025091970260912A
:1026B0009802709199028FE090E00E949F1C809197
:1026C000A8020E942C0BC80197558F3F910511F06D
:1026D00008F054C0209115013091160128173907D0
:1026E00024F49093160180931501F701228136E1BD
:1026F000389F5001399FB00C1124C501895E9E4F4F
:102700006C01DC0150962C935097928116968C9117
:102710001697992341F11A961C930E9319978F5F80
:1027200016968C930E94F907F6019687858780910B
:102730008D0287839091C9028091D801892B80876F
:102740000190F081E02DC501835E9E4F309731F0FE
:10275000D60154966D917C91559709951093C802B6
:102760000093C7020BC0882349F0F60181898823B2
:1027700029F0C501835E9E4F0E942617D70112964D
:102780008C91882309F46EC00C35BDE51B0709F454
:1027900064C060F40115FCE51F07A9F00F3D2CE5AE
:1027A000120709F05FC00E94CB0E4CC00E358DE5BC
:1027B000180709F44AC008F452C0093AADE51A07EF
:1027C00009F440C04FC01092D8010E94581ABFEFC0
:1027D000E4E3FCE0B150E040F040E1F700C000006D
:1027E000F89481E08093E00080E28093D80010921A
:1027F000C9008FE19EE40197F1F700C000001DBA07
:10280000109268001CBC10BE1FBA10927A00109281
:102810006E0010926F001092710010927200109270
:10282000C9001092BC0014B817B81AB81DB810BA75
:102830001092BC0015B818B81BB81EB811BA0C9489
:10284000003F40C20E94140B3DC28091D30182FB25
:10285000882780F991E0892703C081E001C080E0EA
:102860000E94C70FD70112968C9112970D911C915F
:10287000882349F0C8010E946E19D82E682FC8011C
:102880000E94DE1904C0C8010E94AA19D82EB801FE
:102890008D2D0E94290D0E94420D8C01982EF7016A
:1028A000D280C580C2949FE0C92280916C0287705B
:1028B000B9F0DD20A9F0812F807F803421F080E203
:1028C000800F883068F08091D30182FF09C082E0D8
:1028D0000E94AA0F80916C028770BB24B39481116F
:1028E000B12CA12EA2948FE0A8228A2D90E08C30EA
:1028F000910508F0B9C1FC01E259FF4F0C94C11CCD
:10290000812F807F1F70882311F01295107FDD20AA
:10291000B9F0112309F496C180E2800F883010F0DD
:10292000911006C08091D801182B1093D80105C0D2
:102930008091C902182B1093C9020E94550F82C1C1
:10294000802F0E948E1A112309F48EC1005E812F00
:10295000083060F1992051F10E94470F29C0812F62
:10296000807F1F70803211F01295107F992021F026
:10297000F1E09F16D9F147C08091D30182FD1BC0C1
:10298000DD2069F0112339F08091D801182B1093C4
:10299000D8010E94550F80E00E94BA1A65C180E0FC
:1029A0000E948E1A112309F45FC1812F0E944E0FDD
:1029B0000E94550F59C1DD2081F080918D02CC20FD
:1029C00051F021E0C21207C0182B181709F44CC1AE
:1029D00010938D0249C1812B10C0CC2021F081E0E1
:1029E000C81609F441C10E94410F1FC0DD2041F00B
:1029F00091E09C1508F438C1812F0E94841A34C1DB
:102A0000C11032C112C0DD2019F0CC20A9F31AC1C7
:102A1000CC2059F0093309F024C1AFEFB7EEE3E061
:102A2000A150B040E040E1F71AC1812F0E947D1A09
:102A30001BC1812F86958695837019F0813059F0DE
:102A400013C1DD2019F0C801937002C080E090E04E
:102A50000E94E4160FC1DD2019F0C801937002C076
:102A600080E090E00E94CE1605C1812F8370A9F509
:102A7000D110FEC0402F429546954770440F440F39
:102A8000802F8F7090E09C01042E01C0220F0A94C9
:102A9000EAF704FF08C08FE090E001C0880F4A9574
:102AA000EAF7809501C080E01695169513701230F4
:102AB00069F088F490918E02113019F0822B8923ED
:102AC00002C0922B892B0E94331AD2C0822B909184
:102AD0008E028927F8CF822BF6CFDD2019F0812FC7
:102AE000817001C08695882309F4C2C0402F4295A9
:102AF00046954770440F440F802F8F7090E09C01E3
:102B0000042E01C0220F0A94EAF704FF08C08FE0E8
:102B100090E001C0880F4A95EAF7809501C080E0F7
:102B2000169516951370123059F078F49091A8020A
:102B3000113019F0822B892309C0922B892B06C0F2
:102B4000822B9091A802892701C0822B0E94131A20
:102B50008FC01F70DD2039F0812F0E94271A802F2F
:102B60000E94841A85C0802F0E947D1A812F0E94A6
:102B70001A1A7EC0802FF2EF9F1669F1F91538F00E
:102B800020EF921659F091EF991601F157C0A3EF7B
:102B90009A1641F1B4EF9B16A9F050C0DD2069F000
:102BA000C11062C01F7181E090E001C0880F1A95CA
:102BB000EAF79091A80289271FC0E1E0EC1508F41C
:102BC00053C0F0CF8091D30182FD19C0DD2029F0E0
:102BD000812F8F7126C0DD20D9F3812F8F710E9444
:102BE0001A1A42C0DD2039F01F7181E001C0880F40
:102BF0001A95EAF701C080E00E94131A35C0DD2063
:102C000099F01F71812F0E94271A8091D30182FFB2
:102C100007C0F8E01F9FC0011124836080936C02FD
:102C2000812F0E94271A20C081E00E94AA0F21E074
:102C30002C15D0F482E00E94AA0F16C0DD2021F0EE
:102C4000CC2031F2802FA8CECC2039F2893349F440
:102C50008FEF97EEA3E081509040A040E1F700C0D5
:102C60000000802F0E948E1A88EF8A0D843010F4A5
:102C70000E94FA16BB20A9F080916C0280FD11C061
:102C8000F70112828595859585950E94271AC701BF
:102C90000E94A31280916C028595859585950E946E
:102CA0001A1A85E0F701DE01119601900D928A95BE
:102CB000E1F709811A81C8010E94AA19B8010E948E
:102CC000290D17C080916C02877099F0D701129678
:102CD0008C91882371F08091D30182FF0AC082E039
:102CE0000E94AA0F06C00F3ABDE51B0709F4B5CC38
:102CF000EACC2A96EBE00C94651C1F920F920FB65B
:102D00000F9211248F939F93AF93BF938091D00222
:102D1000811113C08091CE019091CF01A091D0017B
:102D2000B091D1014196A11DB11D8093CE01909328
:102D3000CF01A093D001B093D101BF91AF919F91EA
:102D40008F910F900FBE0F901F9018952091060144
:102D50002223C9F02091D20127FF15C0262F2695E6
:102D6000269526952E31C8F4FC01E20FF11D6770FF
:102D700081E090E001C0880F6A95EAF78095928122
:102D8000892382830895FC0106962281621301C083
:102D900012823196E817F907C1F708952091CE0203
:102DA0003091CF022817390771F09093CF028093AA
:102DB000CE02E091CC02F091CD02309721F0008458
:102DC000F185E02D099508952091CA023091CB023A
:102DD0002817390771F09093CB028093CA02E091D3
:102DE000CC02F091CD02309721F00680F781E02DE2
:102DF00009950895E091CC02F091CD02309729F029
:102E00000190F081E02D0995089580E00895CF9319
:102E1000DF93EC0181E0898B9091D8018F81892B20
:102E20008093D8019091C9028885892B8093C9022B
:102E30000E94550FEA81FB81CE010696309719F06A
:102E40006C897D890995DF91CF910895EF92FF926A
:102E50000F931F93CF93DF93FC012285211136C07E
:102E6000EC01E380F480F7E5FF1A26E12E9DC00116
:102E70002F9D900D1124DC01A95EBE4F1496ED919B
:102E8000FC911597835E9E4F309729F054966D9173
:102E90007C915597099586E18E9D80018F9D100D3F
:102EA0001124095E1E4FF80187810E944E0FF80120
:102EB00080850E94470F0E94550F188219861B8635
:102EC0001E821D821092C8021092C702CDB7DEB7D3
:102ED000E6E00C946A1CAAE0B0E0E1E7F7E10C94AC
:102EE000451C85B7806885BF85B7806885BF84B776
:102EF000877F84BF0FB6F894A895809160008861A1
:102F000080936000109260000FBE90E080E80FB6E2
:102F1000F89480936100909361000FBE84EE9CE072
:102F20009093CD018093CC010E9473060E9492067B
:102F30008091E20084608093E20078948091FD01AA
:102F40008823A1F01091E9001F709091EC00892F67
:102F5000817090FD80E8182B1092E9008091E800C4
:102F600083FD0E946B031F701093E90082E084BD13
:102F700093E095BD9AEF97BD80936E000E94560B2B
:102F800090E090931401809313010E94910C0E9491
:102F9000D70CEAE9F2E0A9EAB2E011921D9222E030
:102FA000E83AF207D1F78EE090E00E94C71C8093C8
:102FB000940290939502FC010E961192E817F9077E
:102FC000E1F789EA8093800089E08093810024986A
:102FD0002C983F988AB18F7C8AB96E98479A8BB1AA
:102FE00080638BB9769A8FE090E00E94811C609399
:102FF000960270939702809398029093990267705B
:103000008FEF689FB0011124759567957595679549
:103010007727709389006093880070938B0060938A
:103020008A0070938D0060938C000E94CD0B80E02D
:1030300090E00E94871C883E9E4F11F00E94CB0EAC
:1030400082E090E00E94791C8093B70284E090E0D7
:103050000E94791C182F82E290E00E94791C212F97
:1030600030E0382B3093D3012093D20183E090E0FD
:103070000E94791C0E94331A8091A8020E942C0B96
:1030800087E091E09093CD028093CC0228E1C22E9C
:10309000D12C30E4732E40E1842E52E1952E8091A4
:1030A000FD01853009F052C08091FD01853009F0A5
:1030B00047C08091FD01843009F11092D0020FB613
:1030C000F894A895C09260000FBE7092600083B71C
:1030D000817F846083BF83B7816083BF7894889544
:1030E00083B78E7F83BF0FB6F894A8958091600058
:1030F000886180936000109260000FBE8091FC0197
:10310000882391F20E94560B90E0909314018093D3
:1031100013010E94910C0E94D70CE9EAF2E011928F
:1031200022E0E73BF207D9F70E94DD11E9EAF2E07D
:1031300081918111AEC082E0E73BF807C9F7B4CFB7
:103140001092D8010E94581A0E94FA160E94DD11AE
:10315000882359F08FB7F8944091CE015091CF0158
:103160006091D0017091D1018FBFE8EBF2E0A9EA44
:10317000B2E000E010E0302F2D919191922721F1E3
:1031800080E0FF24F394492F4F21D1F089833A83C3
:103190002F2181E009F480E08B830E94F907816090
:1031A000782F9D838C8349815A816B818D810E9408
:1031B000750AF801E854FD4F8081F826F08219C0A5
:1031C0008F5FFF0C8630F9F60F5F1F4F0E30110531
:1031D00091F68FEF8E838F8318860E94F9078160A6
:1031E000782F9A8789874E815F8168858A850E94BA
:1031F000750A8091150190911601019641F1612C9B
:1032000096E1592E1BC05E9CF0015F9CF00D1124CD
:10321000E95EFE4FA288B388A114B10419F488ECCA
:10322000A82EB12C5E9C80015F9C100D1124095EBC
:103230001E4FF8018681811114C06394E62CF12C95
:1032400080911501909116018E159F05E4F60E945C
:10325000FA169091C602891709F421CF8093C6020D
:103260001ECF858596850E94EA07A816B90628F71D
:10327000F8018189811103C0C8010E9407175E9C73
:10328000C0015F9C900D1124835E9E4F0E94261703
:10329000D4CF89BC99BC09B400FEFDCF8091D80081
:1032A0008F7D8093D8008091E00082608093E00061
:1032B0008091E00081FDFCCF1092D8010E94581A45
:1032C000F3CE80E090E00E94E41680E090E00E945F
:1032D000CE161092C9020E94550F0895CF92DF9228
:1032E000FF920F931F93CF93DF936C010091A8027D
:1032F00080918E02082BC7E0D0E010E0C8010C2EB0
:1033000002C0959587950A94E2F780FD04C0219745
:10331000A8F7F12C09C0FC2EB6018C2F0E94290DB4
:103320000E94420D019799F38F2DDF91CF911F914C
:103330000F91FF90DF90CF900895CF93DF93EC0132
:103340000E946E19BE010E94290D0E94420DDF915C
:10335000CF910895292F9E3078F5863068F590E05A
:1033600036E0239F800D911D1124682F677023E0A4
:10337000969587952A95E1F7FC01EE0FFF1FE80F60
:10338000F91FEF52FD4F40E050E080E0219130E026
:10339000062E02C0369527950A94E2F7217033274E
:1033A000042E01C0220F0A94EAF7822B4F5F5F4F71
:1033B0004330510559F7089580E00895292F9E3034
:1033C00088F5863078F590E036E0239F800D911DDA
:1033D0001124282F277051E001C0550F2A95EAF7D4
:1033E00023E0969587952A95E1F7FC01EE0FFF1FE4
:1033F000E80FF91FEF52FD4F20E030E070E0408110
:10340000CB01022E02C0969587950A94E2F781704F
:10341000819584278523842781932F5F3F4F233015
:10342000310569F708950E942C0B8093A8020E9431
:103430006119089521E030E001C0220F8A95EAF772
:1034400020958091A80282230E94131A089521E0FA
:1034500030E001C0220F8A95EAF78091A802822B02
:103460000E94131A089580938E020E946119089594
:10347000FC01808191810E949D1992959F709630E8
:1034800079F010F4925001C09A50923068F4803F65
:1034900069F018F4883E40F409C0843F29F406C05E
:1034A000883E20F0813F11F080E0089581E008958A
:1034B00080910601882331F08091D20187FF02C0FC
:1034C0008EE101C086E0E6E1F2E0DF011D928A951F
:1034D000E9F70E9461190895882321F00E94470F9F
:1034E0000E94550F0895882339F09091C902892BC5
:1034F0008093C9020E94550F0895882321F00E94ED
:103500004E0F0E94550F0895882339F09091D801ED
:10351000892B8093D8010E94550F0895882349F183
:10352000682F8CEF860F813A28F484E192E00E94A4
:10353000A6160CC080E2860F883058F4677081E0D0
:1035400001C0880F6A95EAF70E944E0F0E94550F3E
:1035500008958BE5860F833028F480E090E00E9488
:10356000E4160895685A673120F480E090E00E94E4
:10357000CE160895CF93882309F49AC0C82F8CEFF4
:103580008C0F813A08F05EC0809106018823E1F03B
:103590008091D20187FF18C0EC2FE695E695E6955D
:1035A000F0E0EC5EFD4F8281282F30E04C2F477019
:1035B00081E090E002C0880F991F4A95E2F78223CC
:1035C0009323892B59F411C0E6E1F2E08191C817E9
:1035D00029F082E0EC31F807C9F707C06C2F84E1CD
:1035E00092E00E94A6160E94550F80910601882342
:1035F000C9F08091D20187FF15C0AC2FA695A69582
:10360000A695B0E0AC5EBD4FC77081E090E001C010
:10361000880FCA95EAF712969C911297892B1296F9
:103620008C9320C0A6E1B2E0EFEF80E09D91C91736
:10363000C9F0EF3F19F4911101C0E82F8F5F863078
:10364000A9F72DC080E28C0F883078F4C77081E034
:1036500090E001C0880FCA95EAF79091D801892BB4
:103660008093D8010E94550F23C0EBE5EC0FE330A7
:1036700040F4F0E0E556FE4F808190E00E94E416B1
:1036800017C0C85AC731A0F4EC2FF0E0EE0FFF1FAF
:10369000E256FE4F808191810E94CE1609C0EF3F15
:1036A00009F30E2E000CFF0BEC5EFD4FC283DACF48
:1036B000CF9108951092B9008CE08093B8000895DE
:1036C000A0E0B0E0E6E6FBE10C94491CB82EEB016B
:1036D0000E94F9076C01C431D10558F0CF3F8FEF3C
:1036E000D80759F0CE0164E170E00E942E1C7B01E6
:1036F00007C0EE24E394F12C03C025E0E22EF12C68
:1037000084E8A82E94EA992E1092BC009092BC00F6
:103710000E94F9078C018091BC0087FD08C00E94BF
:10372000F907801B910B8E159F05A8F32AC0809185
:10373000B900887F883041F08091B900887F80315E
:1037400019F00FEF1FEF1FC0B092BB00A092BC009A
:103750000E94F9078C018091BC0087FD08C00E947F
:10376000F907801B910B8E159F05A8F30AC0809165
:10377000B900887F883111F0803419F700E010E03B
:103780000EC00EEF1FEFCF3F8FEFD80709F4BCCF6D
:10379000C6010E94EA078C179D0708F4B5CFC8013F
:1037A000CDB7DEB7EBE00C94651C0F931F93CF935E
:1037B000DF93EB018093BB0084E88093BC000E9400
:1037C000F9078C018091BC0087FD0EC0CF3F8FEFC1
:1037D000D807C1F30E94F907801B910B8C179D0736
:1037E00088F38EEF9FEF0CC02091B900287F81E015
:1037F00090E0283211F480E090E091958195910954
:10380000DF91CF911F910F9108950F931F93CF9345
:10381000DF93EC0184E88093BC000E94F9078C01DF
:103820008091BC0087FD0EC0CF3F8FEFD807C1F35A
:103830000E94F907801B910B8C179D0788F38EEF70
:103840009FEF03C08091BB0090E0DF91CF911F916B
:103850000F91089584E98093BC000895AA1BBB1BB7
:1038600051E107C0AA1FBB1FA617B70710F0A61B80
:10387000B70B881F991F5A95A9F780959095BC01A1
:10388000CD0108952F923F924F925F926F927F9257
:103890008F929F92AF92BF92CF92DF92EF92FF9260
:1038A0000F931F93CF93DF93CDB7DEB7CA1BDB0B0C
:1038B0000FB6F894DEBF0FBECDBF09942A883988B1
:1038C00048885F846E847D848C849B84AA84B984B8
:1038D000C884DF80EE80FD800C811B81AA81B981C4
:1038E000CE0FD11D0FB6F894DEBF0FBECDBFED01D8
:1038F0000895F999FECF92BD81BDF89A992780B5B8
:103900000895A6E1B0E044E050E00C94B31CA8E1B7
:10391000B0E042E050E00C94B31C262FF999FECFA2
:1039200092BD81BDF89A019700B4021639F01FBA12
:1039300020BD0FB6F894FA9AF99A0FBE089503962F
:10394000272F0E948E1C0E948D1C252F0E948E1CEA
:10395000242F0C948E1C0196272F0E948E1C0C94F1
:103960008D1CDC01CB01FC01F999FECF06C0F2BD34
:10397000E1BDF89A319600B40D9241505040B8F72D
:103980000895EE0FFF1F0590F491E02D09940F9319
:103990001F93CF93DF938230910510F482E090E083
:1039A000E091F402F091F50220E030E0A0E0B0E018
:1039B000309719F1408151810281138148175907CD
:1039C000C8F08417950769F4109731F012960C939C
:1039D000129713961C9327C00093F4021093F502DC
:1039E00022C02115310519F04217530718F49A0126
:1039F000BD01EF01DF01F801DBCF21153105F9F041
:103A0000281B390B2430310580F48A819B81611594
:103A1000710521F0FB019383828304C09093F5022A
:103A20008093F402FE01329644C0FE01E20FF31FC0
:103A30008193919322503109398328833AC0209190
:103A4000F2023091F302232B41F4209102013091D4
:103A500003013093F3022093F20220910001309190
:103A600001012115310541F42DB73EB74091040104
:103A700050910501241B350BE091F202F091F30205
:103A8000E217F307A0F42E1B3F0B2817390778F035
:103A9000AC014E5F5F4F2417350748F04E0F5F1F94
:103AA0005093F3024093F2028193919302C0E0E0BD
:103AB000F0E0CF01DF91CF911F910F910895CF9347
:103AC000DF93009709F481C0FC01329713821282C0
:103AD000A091F402B091F502109781F42081318118
:103AE000820F931F2091F2023091F30228173907B9
:103AF00051F5F093F302E093F20267C0ED0120E08C
:103B000030E0CE17DF0740F44A815B819E0141150A
:103B10005105F1F0EA01F5CFD383C2834081518191
:103B2000840F951FC817D90759F488819981840F8C
:103B3000951F0296918380838A819B8193838283E0
:103B40002115310529F4F093F502E093F4023DC00C
:103B5000E901FB83EA8349915991C40FD51FEC1702
:103B6000FD0761F480819181840F951F0296E90120
:103B700099838883828193819B838A83E0E0F0E04C
:103B800012968D919C911397009719F0FD01DC011D
:103B9000F7CF8D919C9111979D012E5F3F4F820F22
:103BA000931F2091F2023091F3022817390769F42C
:103BB000309729F41092F5021092F40202C0138299
:103BC0001282B093F302A093F202DF91CF91089595
:103BD000FB01DC0104C08D910190801921F441505A
:0E3BE0005040C8F7881B990B0895F894FFCF4A
:103BEE000000F602200001F2022A03F10225032052
:103BFE0003F0022000FFFFCF095E0AF90800000063
:103C0E0000000000000000000000000000B30947A3
:103C1E000AE00800000000000000000000000000A4
:103C2E000000009709300AC70800000000000000DD
:103C3E000000000000000000007B09190AAE080019
:103C4E000000000000000000000000000000005F07
:103C5E0009020A95080000000000000000000000A4
:103C6E0000000000004309EB097C08000000000082
:103C7E000000000000000000000000818283E200CE
:103C8E00E900EA00B500B600B700CD008301CC0014
:103C9E008A019201940121022302240225022602A6
:0C3CAE0027022A02B300B4006F0070006F
:00000001FF
