:100000000C9439020C9456020C9456020C9456022D
:100010000C9456020C9456020C9456020C94560200
:100020000C9456020C9456020C949A0C0C94DC0B13
:100030000C94700E0C9456020C9456020C945602BA
:100040000C9456020C9456020C9456020C945602D0
:100050000C9456020C942F0E0C9456020C945602DB
:100060000C9456020C9456020C9456020C945602B0
:100070000C9456020C9456020C9456020C945602A0
:100080000C9456020C9456020C9456020C94560290
:100090000C9456020C9456020C9456020C94560280
:1000A0000C9456020C9456020C94560266036B0391
:1000B000750369036E0373037103AA04AA04DD04C4
:1000C000DD045A057706770677067805EC05FD0509
:1000D000FD05C807CB07CE07D107D407D707DA0736
:1000E000F4091B0AC40B1B0AC40B670A8A0AC40B57
:1000F0007F0B8F0B05010980A101850319012AB728
:1001000000150126B700950175108100C0050C0986
:1001100001A101850419012AA002150126A002955A
:100120000175108100C005010906A10185060507BA
:1001300019E029E7150025019508750181020507D9
:10014000190029EF1500250195F0750181020508B8
:100150001901290595057501910295017503910114
:10016000C00660FF0961A1010962150026FF009524
:1001700020750881020963150026FF009520750887
:100180009102C005010906A101050719E029E7153B
:100190000025019508750181029501750881010509
:1001A00007190029FF150026FF0095067508810034
:1001B000050819012905150025019505750191020C
:1001C000950175039101C009025B00030100A0FACB
:1001D00009040000010301010009211101000122AD
:1001E000440007058103080001090401000203001F
:1001F00000000921110100012222000705820320CD
:1002000000010705030320000109040200010300A7
:100210000000092111010001226D0007058403205F
:100220000001120100020000000897327449010029
:100230000102000116034500720067006F004400D0
:100240006F007800200045005A00000028035A0083
:1002500053004100200054006500630068006E00F8
:100260006F006C006F006700790020004C00610097
:100270006200730000000403090401002B00350034
:10028000E100010000001E00140004001D00010038
:1002900021521F001A0016241B0001002900200013
:1002A00008000728060001002A0021001500092186
:1002B000190021520100220017000A000500000069
:1002C00001000100010000002D00000001000100FC
:1002D000010000002E000000010023001C000B00A4
:1002E000110000000100240018000D3110002252FE
:1002F000010025000C000E38360001002C002600FD
:1003000012000F24370001002800270013003300DB
:10031000380001002252010031003400E5000100E4
:1003200000000100440001000100010000003A004B
:10033000010001000100010001003B00010001007B
:100340000100010001003C002F002F02010001000C
:100350004C003D00300030020100010001003E0071
:100360000100010001000000010001000100000087
:100370000100000001000100010000000100000078
:1003800001003F000100500001000000010040009A
:100390000100510001000100010041000100520074
:1003A000010001000100420001004F0001000100B6
:1003B00001004300010001000100010001000100F3
:1003C00045000100010001000000010001000100E2
:1003D0000100010000000100010001000100010016
:1003E0000100010001000100010001000100010005
:1003F00001000100010001004C0001000100230286
:1004000001000100010001000100010001000000E5
:1004100001000100010000000100000001000100D6
:100420000100000001000000010065000100010062
:100430000100000001000100010021020100010093
:10044000010046000100010001000100010001005F
:100450000100010001000100010001000100010094
:100460000100010001000100010001000100010084
:10047000000011241FBECFEFDAE0DEBFCDBF11E0D8
:10048000A0E0B1E0E6E8F9E302C005900D92A636DF
:10049000B107D9F722E0A6E6B1E001C01D92AE385F
:1004A000B207E1F70E944D0F0C94C11C0C940000A0
:1004B000A6E0B0E0EEE5F2E00C940D1B49835A8310
:1004C00049815A81992361F0222351F0CA010E9487
:1004D000CC17182F682F89819A810E943C1804C07C
:1004E000CA010E940818182F69817A81812F0E9401
:1004F00023132696E3E00C94291B10926D010E94B1
:10050000D8182FEF84E39CE0215080409040E1F721
:1005100000C000009AE088E10FB6F894A895809397
:1005200060000FBE90936000FFCFA4E3B0E0EBE962
:10053000F2E00C940A1B4FA758AB69AB7AAB8BABBC
:100540009CAB192F911110926002DE01989687E002
:10055000FD0111928A95E9F786E0FE01BF960190B0
:100560000D928A95E1F7EFA4F8A80BA90023C9F032
:1005700021E0A7016AA57BA5C8010E9458028091CD
:100580009B01882371F0111102C087E001C086E051
:100590008983EA82FB828EEF8C83CE0101960E94D2
:1005A000CE0DE8A6F9A60CA71DA787E0FE01B89618
:1005B000DE01919601900D928A95E1F7CE01819628
:1005C0000E944A1581112CC087E0FE01B196DE0120
:1005D000119601900D928A95E1F76DA1662301F1C4
:1005E0002091040230E0C90101968770992740915B
:1005F0003D0250E08417950761F16D8397E0929F6B
:10060000D001939FB00D1124AB5FBD4FFE01319619
:1006100001900D929A95E1F7809304020E94E714ED
:1006200017E080913D0290910402891709F1189F0B
:10063000C00111248B5F9D4F0E944A158823C1F091
:1006400080913D0290E001968770992780933D024A
:10065000E8CF10926D010E94D818109204021092F7
:100660003D02EDEFF1E087E0DF011D928A95E9F7A9
:10067000E496E6E00C94261B982F92959F7019F053
:10068000892F24E001C020E0982F9695969511F0CF
:100690002E5F892F982F969509F02F5F822F08954E
:1006A000CF93C82F0E943C0356985E9825982D98AA
:1006B00026982E9827982F9890E0FC013197E730E4
:1006C000F105A8F4EA5AFF4F0C948D1B259A2D9A38
:1006D0000EC0259A2D9A269A2E9A09C0259A2D9AEF
:1006E00004C0259A2D9A269A2E9A279A2F9A8C2FF3
:1006F000CF910895A0E0B0E0E0E8F3E00C94071B90
:10070000FC018481882309F419C38F0121E0408111
:1007100051816281738195810E945802EC0181159B
:100720009E47D1F5F80185818823B1F19091AE0102
:1007300081E0890F8770987F853020F4892B809322
:10074000AE0102C09093AE018091AE018770FFEFC1
:100750008F9FC00111249595879595958795992729
:10076000909389008093880090938B0080938A00F7
:1007700090938D0080938C004091AE015091AF0119
:100780006091B0017091B1018FE090E00E946B1B0D
:100790008091B3010E945003F8018581882309F4F8
:1007A00083C0C330FCE7DF0709F45DC048F4C1151E
:1007B0008CE7D807A9F0C130DC4709F45AC074C0EF
:1007C000CB35ECE7DE0709F45EC0CC35FCE7DF078C
:1007D00009F451C0CA35DC4709F066C081E054C055
:1007E00010926D010E94D8188FEF94E3ECE08150D5
:1007F0009040E040E1F700C00000F89481E0809371
:10080000E00080E28093D8001092C9008FE19EE45E
:100810000197F1F700C000001DBA109268001CBCDF
:1008200010BE1FBA10927A0010926E0010926F00E4
:1008300010927100109272001092C9001092BC00C8
:1008400014B817B81AB81DB810BA1092BC0015B871
:1008500018B81BB81EB811BA0C94003F80913E0224
:100860008770A9F46BC26FEF7FEF80E090E00E9489
:10087000771B0E947D0280916B0182FB882780F9A3
:1008800091E0892701C080E00E94D0140DC0F801DA
:100890008581882309F452C280916B0182FF4EC288
:1008A00082E00E94B9144AC2F8018581C081D181D9
:1008B000882349F0CE010E94CC17F82E682FCE0174
:1008C0000E943C1804C0CE010E940818F82EBE01F8
:1008D0008F2D0E9423130E944013F82EC92FC82E7B
:1008E000F801D581E680E2949FE0E92280913E0202
:1008F000877001F1DD23F1F08C2F807F803469F067
:1009000080E28F0D8830B0F08C2F807E803229F409
:10091000F1E0FF1578F4EE2069F080916B0182FF21
:1009200009C082E00E94B91480913E028770DD24E4
:10093000D3948111D12CBC2EB2948FE0B8228B2D90
:1009400090E08C30910508F0D2C1FC01E35AFF4FD2
:100950000C948D1B8C2F807FCF70882311F0C29553
:10096000C07FDD23B9F0CC2309F4AFC180E28F0D45
:10097000883010F0C11006C090916D01C92BC09352
:100980006D0105C090916002C92BC09360020E9466
:1009900064149BC18F2D0E940719CC2309F4A7C1B1
:1009A00080E28F0D883088F1CC2079F1C09590914C
:1009B0006002C923C09360022BC08C2F807FCF7050
:1009C000803211F0C295C07F8F2DCC2029F021E01C
:1009D000C21609F44CC055C080916B0182FD1BC04A
:1009E000DD2369F0CC2339F090916D01C92BC093C0
:1009F0006D010E94641480E00E94601978C180E05B
:100A00000E940719CC2309F472C18C2F0E945D1437
:100A10000E9464146CC1DD2381F0EE20B1F181E00D
:100A2000E81265C190915F028C2F8923C81709F4E1
:100A30005EC1C92BC0935F025AC1E11058C18C2F0F
:100A40000E94F61880915F029C2F982329F09C2F1A
:100A50009095892380935F02809169019C2F982350
:100A600009F445C1C0958C238093690140C1DD2301
:100A700029F091E09E1508F43AC107C0E11037C192
:100A800015C0DD2331F0E11020C18C2F0E94FD182C
:100A90002EC1EE2059F0893309F026C1EFEFF7EEB1
:100AA00023E0E150F0402040E1F71CC18C2F0E9470
:100AB000F6181DC18C2F86958695837019F08130AC
:100AC00061F015C1DD2321F08F2D9C2F937002C0A2
:100AD00080E090E00E941B0F10C1DD2321F08F2DDC
:100AE0009C2F937002C080E090E00E94F60E05C13A
:100AF0008C2F8370A9F5D111FEC04F2D42954695DC
:100B00004770440F440F8F2D8F7090E09C01042E8E
:100B100001C0220F0A94EAF7F4FE08C08FE090E0CB
:100B200001C0880F4A95EAF7809501C080E0C6951C
:100B3000C695C370C23069F088F49091B201C1309B
:100B400019F0822B892302C0922B892B0E94B218A4
:100B5000D2C0822B9091B2018927F8CF822BF6CF99
:100B6000DD2319F08C2F817001C08695882309F44C
:100B7000C2C04F2D429546954770440F440F8F2DAC
:100B80008F7090E09C01042E01C0220F0A94EAF7B6
:100B9000F4FE08C08FE090E001C0880F4A95EAF7A4
:100BA000809501C080E0C695C695C370C23059F0EB
:100BB00078F49091B301C13019F0822B892309C0D8
:100BC000922B892B06C0822B9091B301892701C0FB
:100BD000822B0E9471188FC0CF70DD2339F08C2FCB
:100BE0000E94A6188F2D0E94FD1885C08F2D0E948F
:100BF000F6188C2F0E9499187EC08F2D92EFC9167F
:100C000069F19C1538F0E0EFCE1659F0F1EFCF16F0
:100C100001F157C023EFC21641F194EFC916A9F0B4
:100C200050C0DD2369F0E11062C0CF7181E090E037
:100C300001C0880FCA95EAF79091B30189271FC0B8
:100C4000E1E0EE1508F453C0F0CF80916B0182FD16
:100C500019C0DD2329F08C2F8F7126C0DD23D9F335
:100C60008C2F8F710E94991842C0DD2339F0CF710B
:100C700081E001C0880FCA95EAF701C080E00E94B8
:100C8000711835C0DD2399F0CF718C2F0E94A61802
:100C900080916B0182FF07C0F8E0CF9FC001112453
:100CA000836080933E028C2F0E94A61820C081E0B2
:100CB0000E94B91421E02E15D0F482E00E94B914EC
:100CC00016C0DD2321F0EE2031F28F2D95CEEE20DF
:100CD00039F2893349F48FEF97EEE3E08150904089
:100CE000E040E1F700C000008F2D0E94071988EF57
:100CF0008B0D843010F40E94400FDD20A9F080910C
:100D00003E0280FD11C0F801158286958695869574
:100D10000E94A618C8010E947A0380913E0286951F
:100D2000869586950E94991820E0F80140815181AE
:100D300062817381848195810E945802CDB7DEB7AC
:100D4000E9E00C94231B80E290E0909310018093E3
:100D50000F018091680181110EC00E941A1A81E072
:100D6000809368012FEF83ED90E321508040904005
:100D7000E1F700C0000060E570E080E40E94201A06
:100D80009093100180930F01892B09F04EC060E50C
:100D900070E080E00E94931A9093100180930F01FD
:100DA000892B09F042C060E570E080E00E94931A50
:100DB0009093100180930F01892BB9F560E570E0E5
:100DC0008FE30E94931A9093100180930F01892B57
:100DD00061F50E94E61A60E570E080E40E94201A46
:100DE0009093100180930F01892BF9F460E570E076
:100DF0008CE00E94931A9093100180930F01892B2D
:100E0000A1F460E570E080E00E94931A90931001D5
:100E100080930F01892B49F460E570E08FE30E9415
:100E2000931A9093100180930F010E94E61A80910B
:100E30000F010895CF93DF9356985E9825982D98CB
:100E400026982E9827982F98C8E8D0E08FEF90E04A
:100E500099838883AAE8B0E011969C938E93ECE87E
:100E6000F0E091838083259A2D9A2FEF80E792E01E
:100E7000215080409040E1F700C00000269A2E9A51
:100E80002FEF80E792E0215080409040E1F700C0D2
:100E90000000279A2F9A2FEF80E792E021508040A0
:100EA0009040E1F700C0000025982D982FEF80E7D3
:100EB00092E0215080409040E1F700C00000269869
:100EC0002E982FEF80E792E0215080409040E1F78C
:100ED00000C0000027982F988091AE0187702FEFF7
:100EE000829FC0011124959587959595879599279F
:100EF0009983888311969C938E93918380835698CF
:100F00005E9825982D9826982E9827982F98DF91EF
:100F1000CF910895CF93E82F873080F580910F010E
:100F200090911001892B09F047C0CE2F60E570E049
:100F300080E40E94201A9093100180930F01892B66
:100F4000D1F460E570E082E10E94931A9093100161
:100F500080930F01892B79F481E090E001C0880F24
:100F6000CA95EAF760E570E080950E94931A909325
:100F7000100180930F010E94E61A1EC090E0FC0150
:100F80003797E730F105C0F4E759FF4F0C948D1BFC
:100F9000209A289811C0219A29980EC0229A2A983E
:100FA0000BC0239A2B9808C0529A5A9805C0539A9E
:100FB0005B9802C03E9A4698CF9108952098289851
:100FC0002198299822982A9823982B9852985A98D1
:100FD00053985B983E9846980895CF93873040F594
:100FE00080910F0190911001892B59F560E570E017
:100FF00081E40E94201A9093100180930F01892BA5
:1010000011F0C0E011C080E590E00E94C21A97FF85
:1010100005C09093100180930F01F3CFC82FC095A6
:101020001092100110920F010E94E61A8C2F0AC034
:101030009FB18FB1807F869586959370892B80951F
:1010400001C080E0CF9108958098889A8198899A0C
:1010500084988C9A85988D9A86988E9A87988F9A7C
:1010600008958091930187FF11C08091E80082FD6F
:1010700005C080919D018111F8CF11C08091E800D9
:101080008B770BC080919D01882349F08091E80007
:1010900080FFF8CF8091E8008E778093E800089574
:1010A000982F973068F59093E900981739F0709170
:1010B000EC002091ED005091F00003C0242F762F1A
:1010C00050E021FD02C09F5FECCF3091EB003E7FEE
:1010D0003093EB003091ED003D7F3093ED00309187
:1010E000EB0031603093EB007093EC002093ED0047
:1010F0005093F0002091EE0027FDE5CF80E00895A9
:101100008F708093E90081E00895209199013091DA
:101110009A012617370748F06115710539F42091B7
:10112000E8002E772093E80001C0B901FC0120E01F
:101130006115710579F180919D018823F1F1853068
:10114000F1F18091E80083FD3CC08091E80082FDD0
:101150002EC08091E80080FFEBCF2091F3008091BA
:10116000F20090E0922B6115710551F088309105E5
:1011700038F421912093F100615071090196F3CF69
:1011800021E0089709F020E08091E8008E778093B5
:10119000E800CECF2111CFCF0AC080919D018823D6
:1011A00061F0853061F08091E80083FD0AC0809194
:1011B000E80082FFF2CF80E0089582E0089583E0A6
:1011C000089581E00895089543E050E0BC0184E073
:1011D0000E940B0E0895CF93DF93EC0180910601DE
:1011E000811105C048E050E0BE0181E00BC0809154
:1011F0006A0187FF03C040E284E002C048E081E06A
:1012000050E0BE010E940B0E80E2FE01A0E7B1E0BB
:1012100001900D928A95E1F7DF91CF910895AAE2AE
:10122000B0E0E5E1F9E00C940D1BE3E9F1E08BE9B6
:1012300091E02091F10021938E179F07D1F78091C3
:101240009401833009F463C030F4813071F082304E
:1012500009F49FC0B6C08A3009F48BC08B3009F402
:101260006EC0893009F0ADC020C080919301813AF1
:1012700009F0A7C08091E800877F8093E800809103
:10128000970190919801892B21F460E280E791E029
:1012900003C060E080E090E070E00E9485088091EB
:1012A000E8008B778093E8008CC0809193018132B5
:1012B00009F087C08091970190919801009719F0EB
:1012C000029709F07EC08091E800877F8093E80054
:1012D0008091E80082FD05C080919D018111F8CFC9
:1012E00070C02091F3008091F20090E0922B029761
:1012F00031F48091F100813011F0863021F4809139
:10130000F10080936F018091E8008B7756C0809147
:101310009301813A09F055C080919701909198010D
:10132000892B09F04EC08091E800877F8093E80008
:101330008091E80080FFFCCF8091060139C0809148
:1013400093018132F1F58091970190919801892B59
:10135000C1F58091E800877F8093E8000E94310802
:10136000809195018093060110926D010E94D8181A
:1013700028C080919301813221F58091E800877F18
:101380008093E8000E9431088091960180936E015D
:1013900018C080919301813AA1F48091E800877F81
:1013A0008093E8008091E80080FFFCCF80916E017F
:1013B0008093F1008091E8008E778093E8000E948E
:1013C00031088091E80083FFDFC180919301909103
:1013D0009401492F50E04A30510508F0D5C1FA0177
:1013E000E059FF4F0C948D1B803821F0823809F0B2
:1013F000CBC108C08091900190919101992389F00F
:1014000082600FC0809197018F70873008F0BCC157
:101410008093E9008091EB0085FB882780F910928A
:10142000E9009091E800977F9093E8008093F100A5
:101430001092F10070C1282F2D7F09F0A5C18823DB
:1014400019F0823061F0A0C180919501813009F0DE
:101450009BC1933009F080E0809391012EC0809170
:10146000950181112AC0809197018F702FEF280F6D
:10147000263008F089C18093E9002091EB0020FF1D
:101480001CC0933021F48091EB00806214C09091D5
:10149000EB0090619093EB0021E030E0A90102C0E5
:1014A000440F551F8A95E2F74093EA001092EA0034
:1014B0008091EB0088608093EB001092E9008091AE
:1014C000E800877F8093E8000E9431085DC18111A8
:1014D0005BC1109195011F778091E3008078812B8B
:1014E0008093E3008091E800877F8093E8000E946A
:1014F00031088091E80080FFFCCF8091E300806894
:101500008093E300111102C082E001C083E0809368
:101510009D013AC18058823008F036C12091950172
:10152000309196012C3D53E0350779F583E08A83AD
:101530008AE289834FB7F894DE01139620E03EE0FB
:1015400051E2E32FF0E050935700E49120FF03C0F5
:10155000E295EF703F5FEF708E2F90E0EA3010F071
:10156000C79601C0C0968D939D932F5F243149F794
:101570004FBF8091E800877F8093E8006AE270E0C7
:10158000CE0101960E948508B4C080919701909188
:101590009801432F552743305105A9F068F4413095
:1015A000510509F400C14230510509F0EDC08BE549
:1015B00090E0E7ECF1E04BC04132510529F14232B5
:1015C000510589F1E1C0C901992781309105A1F048
:1015D00058F0029709F0D8C0E4E3F2E0E4918E2FCE
:1015E00090E0E4E3F2E030C0E6E7F2E0E4918E2F31
:1015F00090E0E6E7F2E028C0ECE4F2E0E4918E2F20
:1016000090E0ECE4F2E020C08330910508F0BCC02B
:10161000880F991FFC01E65EFE4F0190F081E02DDE
:1016200089E090E014C08330910508F0ADC0FC0162
:10163000EE0FFF1FEC5EFE4F0190F081E02DDC010C
:10164000AF5EBE4F8C9190E0009709F49DC0209151
:10165000E800277F2093E8002091990130919A01BA
:101660002817390708F4C90140E0009789F1209153
:101670009D01222309F43DC02530D9F12091E800D5
:1016800023FD37C02091E80022FD2FC02091E80003
:1016900020FFEBCF4091F3002091F20030E0342B9B
:1016A000009759F02830310540F444914093F100FF
:1016B000319601972F5F3F4FF3CF41E0283031053E
:1016C00009F040E02091E8002E772093E800CDCF8C
:1016D0004111CDCF0AC080919D01882351F0853002
:1016E00041F08091E80083FD04C08091E80082FF12
:1016F000F2CF8091E8008B778093E80045C0803876
:1017000009F042C08091E800877F8093E8008091D3
:1017100092018093F1008091E8008E77D3CE811101
:1017200033C080919501909196019927029764F5B5
:101730008091E800877F8093E800109195011093D5
:1017400092010E943108111106C08091E30087FDCB
:1017500002C081E001C084E080939D0142E061EC21
:1017600081E00E94500842E261EC84E00E9450084F
:1017700042E261EC82E00E94500842E260EC83E0C9
:101780000E94500880919D018091E80083FF10C065
:101790008091E800877F8093E8008091EB00806271
:1017A0008093EB0005C082E190E0E2E2F2E04FCFEF
:1017B000AA96E3E00C94291B1F920F920FB60F928A
:1017C00011242F933F934F935F936F937F938F9346
:1017D0009F93AF93BF93CF93DF93EF93FF93C0910A
:1017E000E900CF708091EC00D82FD17080FDD0E857
:1017F0001092E9008091F000877F8093F000789448
:101800000E940F091092E9008091F0008860809397
:10181000F000CD2BCF70C093E900FF91EF91DF91E5
:10182000CF91BF91AF919F918F917F916F915F9178
:101830004F913F912F910F900FBE0F901F901895D1
:10184000E8EDF0E080818E7F80831092E2001092BC
:10185000DA001092E100A0EEB0E08C9181608C93F0
:1018600080818F77808319BCA7EDB0E08C918E7F4B
:101870008C9380818F7E808310926C010895A0E00C
:10188000B0E0E5E4FCE00C94081BC8EDD0E08881F2
:101890008F7E8883E7EDF0E080818160808384E043
:1018A00082BF81E080936C0188818E7F888302EE05
:1018B00010E0F80110821092DA0081EEC82ED12CCF
:1018C000F601108288818F77888388818068888379
:1018D00088818F7D888319BC10929D01109292019E
:1018E000109291011092900190EEE92EF12CF701E7
:1018F00080818B7F808388818160888342E060E083
:1019000080E00E945008F60180818E7F8083F8017C
:10191000808181608083808188608083F7018081FD
:101920008E7F8083888180618883CDB7DEB7E8E0D1
:101930000C94241B1F920F920FB60F9211242F9319
:101940003F934F935F936F937F938F939F93AF9347
:10195000BF93EF93FF938091E10082FF09C08091D4
:10196000E20082FF05C08091E1008B7F8093E1005F
:101970008091DA0080FF2AC08091D80080FF26C0C5
:101980008091DA008E7F8093DA008091D90080FF09
:1019900018C080E189BD82E189BD09B400FEFDCF98
:1019A00081E080939D0180916C0181110FC00E94A4
:1019B000200C0E943F0C8091E20084608093E20042
:1019C00005C019BC10929D0110926C018091E1003C
:1019D00080FF17C08091E20080FF13C08091E20079
:1019E0008E7F8093E2008091E20080618093E2002C
:1019F0008091D80080628093D80019BC85E08093E4
:101A00009D018091E10084FF30C08091E20084FF5D
:101A10002CC080E189BD82E189BD09B400FEFDCF03
:101A20008091D8008F7D8093D8008091E1008F7ED7
:101A30008093E1008091E2008F7E8093E2008091AC
:101A4000E20081608093E20080919201882311F08E
:101A500084E007C08091E30087FD02C081E001C0FF
:101A600083E080939D0180919D018091E10083FF3F
:101A700027C08091E20083FF23C08091E100877F2F
:101A80008093E10082E080939D0110929201809109
:101A9000E1008E7F8093E1008091E2008E7F809351
:101AA000E2008091E20080618093E20042E060E029
:101AB00080E00E9450088091F00088608093F000E0
:101AC000FF91EF91BF91AF919F918F917F916F9116
:101AD0005F914F913F912F910F900FBE0F901F90EC
:101AE00018952091E4003091E50095E64091EC00D6
:101AF000842F817040FF23C08091E80080FD1DC0CD
:101B000080919D01882399F0853099F08091EB00B8
:101B100085FD11C04091E4005091E5002417350780
:101B200029F3915011F09A01E1CF84E0089582E009
:101B3000089583E0089581E0089580E0089540913C
:101B4000E80042FFDDCF0895EF92FF920F931F93BD
:101B5000CF93DF937C018B010E94710D811119C01D
:101B6000E70101151105A1F08091E80085FD0AC08B
:101B70008091E8008E778093E8000E94710D8823A1
:101B800081F307C089918093F10001501109E9CFD9
:101B900080E0CDB7DEB7E6E00C94261BCF93209112
:101BA0009D01243011F5C091E900CF703091EC0017
:101BB000232F217030FD20E8C22B22E02093E90082
:101BC0002091E80020FF0EC040E050E060E270E0AD
:101BD0000E94A40D811110929B018091E8008E77E4
:101BE0008093E800CF70C093E900CF910895809171
:101BF0006F010895A0E2B0E0E0E0FEE00C940E1B5F
:101C00009FEF99838A83CE0101960E94CE0DA09604
:101C1000E2E00C942A1B9B0190919D019430F1F419
:101C20008F708093E9008FEF9091E800815095FDCF
:101C300006C095ED9A95F1F700008111F5CF8091DE
:101C4000E80085FF0BC0BA01C90140E050E00E94E6
:101C5000A40D8091E8008E778093E8000895789431
:101C60001F920F920FB60F9211248F939F93AF93F1
:101C7000BF938091D9019091DA01A091DB01B091DD
:101C8000DC010196A11DB11D8093D9019093DA0169
:101C9000A093DB01B093DC01BF91AF919F918F9135
:101CA0000F900FBE0F901F9018959C014FB7F8949E
:101CB0008091D9019091DA01A091DB01B091DC0112
:101CC0004FBF821B930B08952FB7F8948091D901D1
:101CD0009091DA01A091DB01B091DC012FBF089552
:101CE0001F920F920FB60F9211248F939F93AF9371
:101CF000BF938091D801811113C08091D901909137
:101D0000DA01A091DB01B091DC014196A11DB11D6A
:101D10008093D9019093DA01A093DB01B093DC01A9
:101D2000BF91AF919F918F910F900FBE0F901F9019
:101D30001895209106012223C9F020916A0127FFFE
:101D400015C0262F2695269526952E31C8F4FC0120
:101D5000E20FF11D677081E090E001C0880F6A9585
:101D6000EAF780959281892382830895FC01069683
:101D70002281621301C012823196E817F907C1F778
:101D80000895209106012223C1F020916A0127FFC6
:101D900014C0262F2695269526952E3130F5FC0168
:101DA000E20FF11D677081E090E001C0880F6A9535
:101DB000EAF79281892B82830895FC0132962FEFF6
:101DC00030E04191641789F02F3F19F4411101C0AF
:101DD000232F3F5F3630A9F72F3F39F0FC01E20F88
:101DE000F11D27FDFA95628308950895A3E0B0E000
:101DF000ECEFFEE00C940E1B2091D6013091D70140
:101E000028173907A1F09093D7018093D601E0916C
:101E1000D401F091D501309751F024E029839B83C0
:101E20008A830680F781E02DCE01019609952396DD
:101E3000E2E00C942A1BA3E0B0E0E1E2FFE00C94A6
:101E40000E1B2091D2013091D30128173907A1F040
:101E50009093D3018093D201E091D401F091D50108
:101E6000309751F023E029839B838A830680F78192
:101E7000E02DCE01019609952396E2E00C942A1BF1
:101E8000E091D401F091D501309729F00190F081D3
:101E9000E02D0995089580E00895A6E4B0E0E3E51B
:101EA000FFE00C94021B85B7806885BF85B780680A
:101EB00085BF84B7877F84BF0FB6F894A8958091BB
:101EC0006000886180936000109260000FBE90E017
:101ED00080E80FB6F89480936100909361000FBE84
:101EE00086E192E190936701809366010E94200C45
:101EF0000E943F0C8091E20084608093E20078941D
:101F000080919D018823A1F01091E9001F709091AC
:101F1000EC00892F817090FD80E8182B1092E90069
:101F20008091E80083FD0E940F091F701093E90063
:101F300082E084BD93E095BD9AEF97BD80936E00DB
:101F40000E94A30690E09093100180930F010E94DD
:101F5000DE070E942408E0EAF1E0A4EBB1E0119270
:101F60001D9221E0EE3AF207D1F78EE090E00E9458
:101F7000931B80939E0190939F01FC010E961192FA
:101F80008E179F07E1F789EA8093800089E08093AC
:101F9000810024982C983F988AB18F7C8AB96E98DA
:101FA000479A8BB180638BB9769A8FE090E00E945C
:101FB0003D1B6093AE017093AF018093B00190938D
:101FC000B10167708FEF689FB00111247595679517
:101FD0007595679577277093890060938800709353
:101FE0008B0060938A0070938D0060938C000E9438
:101FF0001A0780E090E00E94431B863E9E4F09F442
:1020000072C066EE7EEF80E090E00E94771B60E099
:1020100082E090E00E94591B60E083E090E00E9423
:10202000591B1092B20160E074E184E090E00E94DC
:10203000771B60E086E090E00E94591B6FEF87E01D
:1020400090E00E94591B40E050E0BA0188E090E027
:102050000E946B1B60E084E290E00E94591B60E0EC
:1020600087E190E00E94591B60E08CE090E00E94C4
:10207000591B60E08DE090E00E94591B19821A8282
:102080001B821C821D821E821F82188648E050E03F
:1020900068E170E0CE0101960E94491B40E050E0EB
:1020A000BA0180E290E00E946B1B1092AE01109288
:1020B000AF011092B0011092B10184E08093AE01A3
:1020C0004091AE015091AF016091B0017091B101AA
:1020D0008FE090E00E946B1B40E050E0BA0183E18A
:1020E00090E00E946B1B82E090E00E94351B809381
:1020F000C20184E090E00E94431B90936B018093A7
:102100006A0183E090E00E94351B0E94B218809122
:10211000B3010E94500387E091E09093D501809332
:10212000D40158E1E52EF12C80919D01853009F014
:1021300059C020E4B22E02EC11E030E1C32E42E19E
:10214000D42E80919D01853009F046C080919D017B
:10215000843009F11092D8010FB6F894A895E09256
:1021600060000FBEB092600083B7817F846083BF40
:1021700083B7816083BF7894889583B78E7F83BF50
:102180000FB6F894A89580916000886180936000F4
:10219000109260000FBE80919101882391F20E94FD
:1021A000A30690E09093100180930F010E94DE0738
:1021B0000E942408E4EBF1E011920E171F07E1F7EB
:1021C0000E94D116E4EBF1E08191811117C121E069
:1021D000E23CF207C9F7B5CF10926D010E94D81802
:1021E0000E94400F0E94D11693ECC92E91E0D92E87
:1021F00021ED31E0A4EBB1E0F60191918D918927B9
:102200002E173F0719F08823C1F305C0811103C0C1
:102210000E94A81754C084EB882E81E0982E10E00D
:10222000F40171904F01F601A080A724B1F100E004
:10223000BB24B394662463948A2D8B2141F12296AA
:102240000FAF229723961FAF23970E94640E259607
:102250009FAF8EAF259726966FAE269791E0872D7C
:102260008B2109F490E027969FAF279722964FADD8
:10227000229723965FAD239724966FAD24972596DA
:102280007FAD259726968FAD26970E9495020F5F0A
:10229000BB0C063089F6F60170821F5FFFEFCF1A84
:1022A000DF0A1E3009F0BCCF8FB7F8944091D901F6
:1022B0005091DA016091DB017091DC018FBF0E94C7
:1022C000400F9091D101891769F08093D1018FB7A8
:1022D000F8944091D9015091DA016091DB0170913D
:1022E000DC018FBF80919D01843009F01DCF83E018
:1022F0008093E9008091E80082FF16CF8091E8008A
:1023000085FF22C00E94710D81111CC000E210E007
:102310006E0121E2C20ED11C08C08091F100F601CD
:1023200081936F010150110969F08091E80085FDEA
:10233000F4CF8091E8008B778093E8000E94710DC4
:10234000882399F391E001C090E08091E8008B77B9
:102350008093E800992309F4E7CE89A1853009F438
:1023600047C048F4813001F190F0823009F4DCCEAE
:10237000843029F13FC08730C9F1D0F18830C1F1F4
:102380008E3FC1F5898393E09A838B8313C01982B2
:102390008CE0E0E2F1E0DE01129601900D928A9568
:1023A000E1F78EEF8D8706C080939B0184E08983DF
:1023B0008EEF8A83CE0101960E94CE0DB5CE80911C
:1023C0009B01882309F4B0CE8AA1811104C08BA19E
:1023D0000E949918A9CE81E090E00BA002C0880F5E
:1023E000991F0A94E2F70E9471189ECE85E003C0FF
:1023F00084E001C08FEF0E94FA0D96CEC9BCD9BC13
:1024000009B400FEFDCF8091D8008F7D8093D80065
:102410008091E00082608093E0008091E00081FD87
:10242000FCCF10926D010E94D8188BCE80E00895E9
:1024300090916A0192FF10C041E0282F247124304E
:1024400009F040E031E0282F2871283009F030E011
:10245000431711F02CE0822793FF10C041E0282F92
:102460002471243109F040E031E0282F287128310F
:1024700009F030E0431711F02CE0822730916B0116
:1024800030FF10C051E0282F2171213009F050E0B9
:1024900041E0282F2871283009F040E0541711F04E
:1024A00029E0822731FF10C041E0282F217121311E
:1024B00009F040E031E0282F2871283109F030E0A0
:1024C000431711F029E0822794FD877E0895823812
:1024D000910569F1B0F48133910509F475C048F4B0
:1024E0008932910509F467C08A32910509F471C0F7
:1024F00008958533910509F459C089339105B9F0E0
:102500000895833E910589F138F4803E9105D1F01C
:10251000823E910529F10895863E9105C9F1873ED5
:102520009105D9F1843E910509F06CC027C0209136
:102530006A0120FD57C021FD55C020916B0123FD8C
:102540005BC0089580916A0180FD48C080916B0155
:1025500080FF48C080916A0184FD46C083EE51C06F
:1025600080916A0182FF3CC0F5CF80916A0182FDB3
:1025700037C080916B0180FD35C0ECCF80916B013D
:1025800081FF36C080916A0184FD2EC087EE39C07C
:1025900080916A0183FF2AC0F5CF80916A0183FD93
:1025A00025C080916B0181FD23C0ECCF80916A0131
:1025B00085FD22C01FC080916A0185FD1BC08091EE
:1025C0006B0183FF19C00AC080916A0186FD16C0A5
:1025D00017C080916A0186FD13C010C089E311C045
:1025E00082EE0FC080EE0DC080E00BC086EE09C009
:1025F00084EE07C085E305C089E203C08AE201C01A
:1026000081E390E0089520913D029091040257E00B
:102610002917A9F030E0529FF001539FF00D1124CB
:10262000EB5FFD4F7181761306C07081781303C094
:102630007581741306C02F5F3F4F2770E9CF80E08C
:10264000089581E008957E30B0F46630A0F48330C0
:10265000A0F494E5899FF001112486E0789FE00DB5
:10266000F11D1124E60FF11DEE0FFF1FE658FD4F7F
:1026700085919491089580E001C081E090E00895F3
:102680001F93CF93DF930E946712EC01C11580E581
:10269000D807E8F5C11590E4D90708F0A8C0C03EF6
:1026A000D10530F5CD3CD10508F094C0C83AD1052C
:1026B00078F4C53AD10508F083C0C130D10509F4DA
:1026C0007CC008F4F2C0C430D10508F0F1C0EDC000
:1026D000C33CD10508F0E9C0C85AD0E0CC0FDD1FDB
:1026E000C15DDE4F0990D881C02DCE019464E1C058
:1026F000C11580E2D80708F0CBC0C11591E0D90719
:1027000008F06BC0C83ED10508F4D2C0CEC0C036B8
:1027100082E5D80728F5C03492E5D90708F079C0DA
:10272000C03282E5D80708F06CC0C11592E5D90720
:1027300008F481C04C2F4695469580E2489FA00141
:102740001124C37021E030E0C90102C0880F991F35
:10275000CA95E2F7EA01C82BD92BCE019D68A9C022
:10276000C03A82E5D807B8F48C2F8F71C03892E553
:10277000D90708F07BC08695869590E2899F9001E5
:102780001124C37081E090E002C0880F991FCA95A0
:10279000E2F79A6868C0C03C82E5D80708F46DC0CB
:1027A000C03E92E5D90708F080C0CF71DD27DC2F4D
:1027B000CC27CE01806F906A7CC081E090E079C028
:1027C000C55AD0E0C45DDE4F8881C82FD0E0CE016D
:1027D00090646FC0CE0190656CC08D2F0E9418125E
:1027E000182FCE0199270E9467121F715CC0CE017D
:1027F00099270E946712CC27DF70D06A8C2B9D2B03
:1028000058C0CF71D0E0DC2FCC27CE01816F906A09
:1028100050C08C2F8F718695869590E2899F90018C
:102820001124C37081E090E002C0880F991FCA95FF
:10283000E2F79C6818C08C2F8F710E94181295E0E7
:10284000D695C7959A95E1F7CF70D0E0DC2FCC27CD
:10285000282F30E084FF05C084E0220F331F8A95C3
:10286000E1F7D069CE01822B932B23C090E0D82FC3
:10287000CC27CE01846F906A1CC08C2F8F710E9470
:1028800018128F7190E0D82FCC27CE01906211C022
:102890008D2F8F710E941812182FCE0199270E9438
:1028A00067121F719062912B04C080E090E001C01C
:1028B000CE01DF91CF911F910895809590916D0188
:1028C000892380936D01089590916D01809160023C
:1028D000982B9093DD0180915F028823D9F0892B9A
:1028E0008093DD0180910601882331F080916A0197
:1028F00087FF02C08EE101C086E0EFEDF1E090E0DD
:10290000815028F021912223D9F39F5FF9CF9111B3
:1029100010925F0240E250E06FE372E08DED91E0D3
:102920000E94B41C892B21F180E2EDEDF1E0AFE3D0
:10293000B2E001900D928A95E1F7E091D401F09117
:10294000D5013097A9F080910601882359F0809134
:102950006A0187FF07C08091DD018093DE0186E078
:102960008093DD010280F381E02D8DED91E00995EA
:10297000089590913E028095892380933E02282FEE
:10298000277069F4981759F090916B0192FF07C076
:102990008695869586950E94991810923E02089514
:1029A00090916B0192FB222720F9281779F080FB88
:1029B00092F990936B0160916A0170916B0184E0D0
:1029C00090E00E94771B82E00E94B91408958091E4
:1029D0003D0290910402891719F08F5F8770FBCF39
:1029E0000895CF93DF938091030282958F7009F051
:1029F0004EC080910202882309F449C080913D02B3
:102A0000409104025091FE016091FD01C091FF01CF
:102A1000D091000277E08417D1F190E0789FF00127
:102A2000799FF00D1124DF01AB5FBD4F14962C91FF
:102A30001497222349F111962C911197251324C044
:102A40002C91261321C015962C91159721111CC08D
:102A500012962D913C9113972C1B3D0B283C310570
:102A600098F4809103028F70806180930302E55F88
:102A7000FD4F80818F70806180838DEF91E00E9497
:102A80007A030E94E71403C001968770C4CFDF91D8
:102A9000CF910895A4E1B0E0E0E5F5E10C94041BCA
:102AA0008C0186E0F801DE011F9601900D928A9557
:102AB000E1F7F8018481E5809DEF892E91E0992E60
:102AC00090910102911120C0882309F463C1EE2086
:102AD00009F442C0C8010E94B518F82E8823E1F11C
:102AE00087E0F801D40101900D928A95E1F7809179
:102AF0000102813031F48091FD019091FE010E942C
:102B0000FB170E94F11448C1F801D080C180A28057
:102B1000B380F09002022091FF0130910002FF206B
:102B200009F4E7C0A501421B530B483C510508F0CE
:102B30009DC0882309F430C180910302282F207F93
:102B40009091FE01222361F09C1509F460C0C80138
:102B50000E94B518811163C0C8010E947A031AC18E
:102B60009C1113C09091FD019D110FC0E1100DC08B
:102B70008F708061809303028DEF91E00E947A0351
:102B800080910302F801868303C1E1103AC040E05E
:102B90006C2D8D2D0E94031340E06C2D8D2D0E9415
:102BA0000313E82E8111F4C0DF86C88A8F859889C7
:102BB0000E94FB17292F22952F70243020F49F703C
:102BC000223028F009C02A50223080F014C0992306
:102BD00049F0811107C013C0992321F0F8019681B3
:102BE000907F69F0805E883030F409C0803F38F013
:102BF000815F833020F0C8010E947A03EF2CFE2C05
:102C0000CBC080910302816080930302C1C0909188
:102C1000FD019D119CCFE1109ACFF80198C0EE20E4
:102C200009F49ACF20910302822F82958F7090E051
:102C300002978CF08091FD019091FE019987888721
:102C4000BB86AA86809101028C871D862E87CE01C5
:102C500008960E947A0387E0F801ADEFB1E0019099
:102C60000D928A95E1F70E94F11494C090910302AD
:102C7000292F207F51F48DEF91E00E947A0387E0A5
:102C8000F40111928A95E9F783C0882309F484C07E
:102C90008091FE018C110CC08091FD018D1108C046
:102CA000E11006C0F8019683C8010E947A036AC049
:102CB000C8010E94B518882309F44ECFEE2009F40C
:102CC0004BCF20910302822F82958F7090E0029764
:102CD00014F28091FD019091FE019A838983BC8258
:102CE000AB82809101028D831E822F83CE010196DB
:102CF000B0CFA21AB30AF8ECAF16B10408F042C084
:102D0000882309F447C0FE2CEE2009F425CF8091DA
:102D1000FE018C1129C08091FD018D1125C090917B
:102D2000030290FD18C0892F82958F70282F30E004
:102D30002115310581F0F80196832F30310541F0DE
:102D40008F5F982F9295907F86818F70892B8683D5
:102D5000C8010E947A0387E0F801ADEFB1E001906D
:102D60000D928A95E1F718C0C8010E94B51881112B
:102D700072CF80910302816080930302C8010E9498
:102D80007A030AC087E0F40111928A95E9F704C03A
:102D9000F12C02C0FF24F3948F2D6496ECE00C9488
:102DA000201BA0E0B0E0E7EDF6E10C94081B809159
:102DB0000F0190911001892B91F0809163028F5F38
:102DC0008093630281110BC00E94A30690E0909350
:102DD000100180930F01892B11F40E941A0700EA59
:102DE00011E07801D0E0C0E087E0C82ECC0E8C2F37
:102DF0000E948A078C2D0E948A078C2F0E94ED0763
:102E00008F73F7019081891721F08083DD24D3949B
:102E100001C0D12C8C2D0E94ED078F73F701978193
:102E2000891719F0878381E001C080E0D82ADD2965
:102E30000E94DE07CF5FFFEFEF1AFF0AC730A1F64F
:102E400010926802C0916702CC2309F47DC00E94F1
:102E5000640E2091650230916602AC01421B530B57
:102E60009A0190936602809365024F3F510509F0E5
:102E700018F4452B19F102C02FEF30E010926702D1
:102E800010926402E0919E01F0919F01AF01425FB8
:102E90005F4F90E030E08081882341F0281718F0E0
:102EA00010829C2F03C0821B80833C2F3196E41735
:102EB000F50789F73093670290936402DD23B1F13F
:102EC00010926402E0919E01F0919F01809168024E
:102ED00090916702A4EBB1E0AF01425F5F4F6EE1FA
:102EE000E80128813C91321779F0308131110CC012
:102EF00060832C9398819227282F30E0292B81E042
:102F0000232B09F480E091E0319611960F5F1F4F5B
:102F1000E417F50729F78093680290936702809180
:102F20006802CDB7DEB7E8E00C94241B81E09091F5
:102F300064029923A1F38111C3CF0E94640E909380
:102F4000660280936502BCCFD111F7CF80E0EFCF4E
:102F5000A6E0B0E0EEEAF7E10C940C1B0E94640ED0
:102F60008C0180916102909162020817190781F02B
:102F700019821A820E94640E682F49815A81792F22
:102F800080E090E00E94950210936202009361023B
:102F90002696E4E00C94281BCF92DF92FF920F93C9
:102FA0001F93CF93DF936C010091B3018091B20125
:102FB000082BC7E0D0E010E0C8010C2E02C09595A8
:102FC00087950A94E2F780FD04C02197A8F7F12CB9
:102FD00009C0FC2EB6018C2F0E9423130E944013BF
:102FE000019799F38F2DDF91CF911F910F91FF9052
:102FF000DF90CF900895CF93DF93EC010E94CC1720
:10300000BE010E9423130E944013DF91CF910895C7
:10301000292F9E3078F5863068F590E036E0239FC2
:10302000800D911D1124682F677023E09695879578
:103030002A95E1F7FC01EE0FFF1FE80FF91FE75992
:10304000FD4F40E050E080E0219130E0062E02C0CC
:10305000369527950A94E2F721703327042E01C094
:10306000220F0A94EAF7822B4F5F5F4F43305105DE
:1030700059F7089580E00895292F9E3088F586300D
:1030800078F590E036E0239F800D911D1124282FC4
:10309000277051E001C0550F2A95EAF723E0969575
:1030A00087952A95E1F7FC01EE0FFF1FE80FF91F46
:1030B000E759FD4F20E030E070E04081CB01022E67
:1030C00002C0969587950A94E2F7817081958427CE
:1030D0008523842781932F5F3F4F2330310569F784
:1030E0000895A0E2B0E0E7E7F8E10C940D1B0E9420
:1030F0005003182F80919B018823A9F02FEF80E7C0
:1031000092E0215080409040E1F700C0000085E04F
:103110008983812F0E943C038A838EEF8B83CE01AB
:1031200001960E94CE0D1093B301A096E3E00C949B
:10313000291B21E030E001C0220F8A95EAF7209593
:103140008091B30182230E947118089521E030E03C
:1031500001C0220F8A95EAF78091B301822B0E9469
:10316000711808958093B2010895FC0124812223EF
:10317000D9F0808191810E94FB1792959F709630C3
:1031800079F010F4925001C09A50923068F4803F68
:1031900069F018F4883E40F409C0843F29F406C061
:1031A000883E20F0813F11F080E0089581E008958D
:1031B00080910601882331F080916A0187FF02C067
:1031C0008EE101C086E0EFEDF1E0DF011D928A950E
:1031D000E9F780E090E00E941B0F80E090E00E9401
:1031E000F60E109260020E9464140895882321F064
:1031F0000E945D140E9464140895882339F0909110
:103200006D01892B80936D010E94641408958823B9
:1032100009F455C0682F823869F40E94400F81FF7D
:103220004EC069E38DED91E00E94C10E0E946414CE
:1032300069E30EC0833899F40E94400F80FF3FC0BD
:1032400063E58DED91E00E94C10E0E94641463E578
:103250008DED91E00E94990E0E94641408958438C7
:1032600069F40E94400F82FF2AC067E48DED91E06F
:103270000E94C10E0E94641467E4EACF8CEF860FAF
:10328000813A30F380E2860F883048F4677081E03D
:1032900001C0880F6A95EAF70E945D14DDCF8BE5C7
:1032A000860F833028F480E090E00E941B0F089581
:1032B000685A6B3120F480E090E00E94F60E089589
:1032C000CF93882309F4B4C0C82F8238B1F40E9488
:1032D000400F81FDADC069E38DED91E00E94C10E0C
:1032E0000E9464142FEF87EE93E0215080409040BD
:1032F000E1F700C0000069E317C08338E1F40E94E1
:10330000400F80FD95C063E58DED91E00E94C10EF8
:103310000E9464142FEF81EE94E021508040904091
:10332000E1F700C0000063E58DED91E00E94990E89
:103330000E9464147DC08438B1F40E94400F82FD65
:1033400077C067E48DED91E00E94C10E0E94641485
:103350002FEF81EE94E0215080409040E1F700C0D3
:10336000000067E4E1CF8CEF8C0F813AB8F58091D3
:1033700006018823E1F080916A0187FF18C0EC2FD5
:10338000E695E695E695F0E0E352FE4F8281282F20
:1033900030E04C2F477081E090E002C0880F991F09
:1033A0004A95E2F782239323892B59F411C0EFED5C
:1033B000F1E08191C81729F021E0E53EF207C9F755
:1033C00007C06C2F8DED91E00E94990E0E9464144D
:1033D0006C2F8DED91E00E94C10EAACF80E28C0F80
:1033E000883068F4C77081E090E001C0880FCA950A
:1033F000EAF790916D01892B80936D0199CFEBE5F0
:10340000EC0FE33040F4F0E0E45DFE4F808190E0AB
:103410000E941B0F0DC0C85ACB3150F4EC2FF0E0C6
:10342000EE0FFF1FE15DFE4F808191810E94F60E3D
:10343000CF9108951092B9008CE08093B800089560
:10344000A0E0B0E0E6E2FAE10C94051BB82EEB0137
:103450000E94640E6C01C431D10558F0CF3F8FEF4C
:10346000D80759F0CE0164E170E00E94EA1A7B01AE
:1034700007C0EE24E394F12C03C025E0E22EF12CEA
:1034800084E8A82E94EA992E1092BC009092BC0079
:103490000E94640E8C018091BC0087FD07C0C801AA
:1034A0000E94550EE816F906B0F729C08091B900C0
:1034B000887F883041F08091B900887F803119F091
:1034C0000FEF1FEF1EC0B092BB00A092BC000E9485
:1034D000640E8C018091BC0087FD07C0C8010E946A
:1034E000550EE816F906B0F70AC08091B900887F3A
:1034F000883111F0803421F700E010E00EC00EEFAB
:103500001FEFCF3F8FEFD80709F4BECFC6010E944F
:10351000550EC817D90708F0B7CFC801CDB7DEB729
:10352000EBE00C94211B0F931F93CF93DF93EB01E0
:103530008093BB0084E88093BC000E94640E8C01E1
:103540008091BC0087FD0DC0CF3F8FEFD807C1F33E
:10355000C8010E94550EC817D90790F78EEF9FEF4C
:103560000CC02091B900287F81E090E0283211F44E
:1035700080E090E0919581959109DF91CF911F9125
:103580000F9108950F931F93CF93DF93EC0184E87D
:103590008093BC000E94640E8C018091BC0087FD6A
:1035A0000DC0CF3F8FEFD807C1F3C8010E94550E61
:1035B000C817D90790F78EEF9FEF03C08091BB002B
:1035C00090E0DF91CF911F910F91089584E980934E
:1035D000BC000895AA1BBB1B51E107C0AA1FBB1F5B
:1035E000A617B70710F0A61BB70B881F991F5A958F
:1035F000A9F780959095BC01CD0108952F923F9237
:103600004F925F926F927F928F929F92AF92BF92F2
:10361000CF92DF92EF92FF920F931F93CF93DF939E
:10362000CDB7DEB7CA1BDB0B0FB6F894DEBF0FBEFB
:10363000CDBF09942A88398848885F846E847D8448
:103640008C849B84AA84B984C884DF80EE80FD804A
:103650000C811B81AA81B981CE0FD11D0FB6F894C0
:10366000DEBF0FBECDBFED010895F999FECF92BD2B
:1036700081BDF89A992780B50895A6E1B0E044E0AD
:1036800050E00C947F1BA8E1B0E042E050E00C94C5
:103690007F1BDC01A40FB51F4150504048F0CB0107
:1036A000840F951F2E910E945A1B41505040D0F715
:1036B0000895262FF999FECF92BD81BDF89A019702
:1036C00000B4021639F01FBA20BD0FB6F894FA9A6A
:1036D000F99A0FBE08950396272F0E945A1B0E9445
:1036E000591B252F0E945A1B242F0C945A1B0196FC
:1036F000272F0E945A1B0C94591BDC01CB01FC01A3
:10370000F999FECF06C0F2BDE1BDF89A319600B43A
:103710000D9241505040B8F70895EE0FFF1F0590ED
:10372000F491E02D09940F931F93CF93DF93823090
:10373000910510F482E090E0E0918C02F0918D020E
:1037400020E030E0A0E0B0E0309719F140815181F5
:103750000281138148175907C8F08417950769F447
:10376000109731F012960C93129713961C9327C062
:1037700000938C0210938D0222C02115310519F09F
:103780004217530718F49A01BD01EF01DF01F80158
:10379000DBCF21153105F9F0281B390B2430310519
:1037A00080F48A819B816115710521F0FB0193836F
:1037B000828304C090938D0280938C02FE01329626
:1037C00044C0FE01E20FF31F81939193225031090F
:1037D000398328833AC020918A0230918B02232BAF
:1037E00041F4209102013091030130938B02209328
:1037F0008A0220910001309101012115310541F427
:103800002DB73EB74091040150910501241B350BA3
:10381000E0918A02F0918B02E217F307A0F42E1BCD
:103820003F0B2817390778F0AC014E5F5F4F241724
:10383000350748F04E0F5F1F50938B0240938A026A
:103840008193919302C0E0E0F0E0CF01DF91CF914E
:103850001F910F910895CF93DF93009709F481C0D2
:10386000FC01329713821282A0918C02B0918D02DA
:10387000109781F420813181820F931F20918A0259
:1038800030918B022817390751F5F0938B02E093A2
:103890008A0267C0ED0120E030E0CE17DF0740F478
:1038A0004A815B819E0141155105F1F0EA01F5CF96
:1038B000D383C28340815181840F951FC817D907D4
:1038C00059F488819981840F951F02969183808392
:1038D0008A819B81938382832115310529F4F0939A
:1038E0008D02E0938C023DC0E901FB83EA8349919C
:1038F0005991C40FD51FEC17FD0761F480819181A8
:10390000840F951F0296E9019983888382819381B0
:103910009B838A83E0E0F0E012968D919C9113974F
:10392000009719F0FD01DC01F7CF8D919C91119763
:103930009D012E5F3F4F820F931F20918A0230918D
:103940008B022817390769F4309729F410928D02F9
:1039500010928C0202C013821282B0938B02A09349
:103960008A02DF91CF910895FB01DC0104C08D91A3
:103970000190801921F441505040C8F7881B990BE1
:063980000895F894FFCF4A
:1039860000008E02200001F70DEB08E308E4082092
:103996000044226D83016101F400D901F201120293
:1039A600786D4F70332F424D61457600818283E2F8
:1039B60000E900EA00B500B600B700CD008301CCEF
:1039C600008A019201940121022302240225022683
:1039D6000227022A02B300B4006F0070009F01CBD9
:0639E600019F02A0020097
:00000001FF
