:100000000C94C2010C94DF010C94DF010C94DF010D
:100010000C94DF010C94DF010C94DF010C94DF01E0
:100020000C94DF010C94DF010C94A00C0C94E20BF7
:100030000C9470130C94DF010C94DF010C94DF011D
:100040000C94DF010C94DF010C94DF010C94DF01B0
:100050000C94DF010C94770D0C94DF010C94DF01FC
:100060000C94DF010C94DF010C94DF010C94DF0190
:100070000C94DF010C94DF010C94DF010C94DF0180
:100080000C94DF010C94DF010C94DF010C94DF0170
:100090000C94DF010C94DF010C94DF010C94DF0160
:1000A0000C94DF010C94DF010C94DF01C202C70243
:1000B000D102C502CA02CF02CD021A041A044D04AD
:1000C0004D04B804D505D505D505D6044A055B050C
:1000D0005B052B072E073107340737073A073D0723
:1000E000010A280AC00B280AC00B700A930AC00B29
:1000F000820B950B05010980A101850319012AB71F
:1001000000150126B700950175108100C0050C0986
:1001100001A101850419012AA002150126A002955A
:100120000175108100C005010906A10185060507BA
:1001300019E029E7150025019508750181020507D9
:10014000190029EF1500250195F0750181020508B8
:100150001901290595057501910295017503910114
:10016000C005010906A101050719E029E7150025C9
:10017000019508750181029501750881010507192E
:100180000029FF150026FF00950675088100050867
:1001900019012905950575019102950175039101D4
:1001A000C009023B00020100A0FA0904000001039B
:1001B000010100092111010001224000070581030E
:1001C00008000109040100010300000009211101D8
:1001D0000001226D000705820320000112010002C8
:1001E0000000000897327449010001020001160363
:1001F0004500720067006F0044006F007800200027
:1002000045005A00000028035A0053004100200016
:1002100054006500630068006E006F006C006F00A2
:100220006700790020004C0061006200730000004C
:100230000403090429002B003500E100E000000060
:100240001E00140004001D00010001511F001A00CF
:1002500016001B000100E300200008000700060054
:1002600001002A002100150009001900E2002C00FD
:10027000220017000A0005000000230223000100ED
:100280000000010000003E002400010000002E00DC
:100290000000010025001C000B00110000002102DD
:1002A000260018000D0010006574010027000C00E6
:1002B0000E00360001002C002F0012000F00370046
:1002C0000100280030001300330038000100010055
:1002D0002D0031003400E5000100000001000100A4
:1002E00001000100010000003A00010001000100CE
:1002F000010001003B004F0101000100010001006D
:100300003C00010001000100010001003D0001006E
:1003100001000100010001003E0001000100500148
:1003200000004A003F000100000001000000010041
:100330004000010000000100000001004100010038
:100340005000010000004D0042000100510001007A
:100350000100010043000100520001000100010002
:10036000440001004F0001000100010045000100B0
:100370000100010001000100460001000100010030
:10038000C35C000011241FBECFEFDAE0DEBFCDBF9B
:1003900011E0A0E0B1E0E2E6F4E302C005900D92C6
:1003A000A634B107D9F722E0A6E4B1E001C01D925E
:1003B000A236B207E1F70E94FA130C942F1A0C949C
:1003C0000000982F92959F7019F0892F24E001C0AA
:1003D00020E0982F9695969511F02E5F892F982FF3
:1003E000969509F02F5F822F0895109253010E9475
:1003F000A3162FEF84E39CE0215080409040E1F76A
:1004000000C000009AE088E10FB6F894A8958093A8
:1004100060000FBE90936000FFCFA7E1B0E0E3E182
:10042000F2E00C948B184B8B5C8B6D8B7E8B8F8BDF
:1004300061111092FB0186E09E01235F3F4FD901BD
:10044000E82F1D92EA95E9F795E0FE017396D90130
:1004500001900D929A95E1F79C894E895F897B897D
:100460007D879E876F87598B488BF901DE01179630
:1004700001900D928A95E1F7CE0107960E94231113
:1004800081113EC086E0FE013796DE011196019093
:100490000D928A95E1F7FF81E8856A857B85611574
:1004A000710531F0EF3F31F481E0FF3F19F403C0F3
:1004B00081E001C080E080FD23C02091A80130E0F0
:1004C000C9010196877099274091D90150E084179E
:1004D000950779F1F983EA837D836C8396E0929F97
:1004E000D001939FB00D1124A755BE4FFE01319648
:1004F00001900D929A95E1F78093A8010E94B010A7
:1005000016E08091D9019091A801891709F1189FEF
:10051000C001112487559E4F0E9423118823C1F0EA
:100520008091D90190E00196877099278093D90135
:10053000E8CF109253010E94A3161092A8011092C6
:10054000D901E2EAF1E086E0DF011D928A95E9F740
:100550006796E3E00C94A718CF93C82F0E94E1019F
:1005600056985E9825982D9826982E9827982F981B
:1005700090E0FC013197E730F105A8F4EA5AFF4F0B
:100580000C94FB18259A2D9A0EC0259A2D9A269A1E
:100590002E9A09C0259A2D9A04C0259A2D9A269A3A
:1005A0002E9A279A2F9A8C2FCF910895AAE0B0E027
:1005B000ECEDF2E00C948318FC01808191812381A1
:1005C0003481232B31F09F3F31F491E08F3F19F4B8
:1005D00003C091E001C090E090FD14C37F0185E06D
:1005E000DE01169601900D928A95E1F7F7012281BE
:1005F0008E819F81222349F00E94B915182F682F00
:100600008E819F810E94291603C00E94F515182F24
:100610006E817F81812F0E94FD0D8C018F3A9D4557
:10062000D1F5F70182818823B1F19091050281E033
:10063000890F8770987F853020F4892B809305027D
:1006400002C090930502809105028770FFEF8F9F93
:10065000C001112495958795959587959927909335
:1006600089008093880090938B0080938A009093F8
:100670008D0080938C00409105025091060260919C
:100680000702709108028FE090E00E94D9188091D3
:1006900017020E94AC02F7018281882309F47DC011
:1006A0000C35FDE51F0709F465C058F401158CE50C
:1006B000180799F00F3D1C4509F06FC00E949F0F6D
:1006C0004FC00E35EDE51E0709F44CC008F454C0C8
:1006D000093A1D4509F444C060C0109253010E94BC
:1006E000A3168FEF94E3ECE081509040E040E1F7F7
:1006F00000C00000F89481E08093E00080E28093E5
:10070000D8001092C9008FE19EE40197F1F700C074
:1007100000001DBA109268001CBC10BE1FBA1092D7
:100720007A0010926E0010926F0010927100109279
:1007300072001092C9001092BC0014B817B81AB811
:100740001DB810BA1092BC0015B818B81BB81EB866
:1007500011BA0C94003F8091DA01877089F452C27B
:100760000E94F50180914E0182FB882780F991E07B
:10077000892703C081E001C080E00E9494100DC071
:10078000F7018281882309F43DC280914E0182FFE6
:1007900039C282E00E94771035C2F7018281008160
:1007A0001181882349F0C8010E94B915D82E682FFD
:1007B000C8010E94291604C0C8010E94F515D82E50
:1007C000B8018D2D0E94FD0D0E94160EB82E192F16
:1007D000982EF7010281A580A2949FE0A922809122
:1007E000DA018770B9F00023A9F0812F807F80346F
:1007F00021F080E28B0D883068F080914E0182FFFD
:1008000009C082E00E9477108091DA018770DD24B0
:10081000D3948111D12CC12EC2948FE0C8228C2D8B
:1008200090E08C30910508F0C0C1FC01E35AFF4F05
:100830000C94FB18812F807F1F70882311F0129574
:10084000107F0023B9F0112309F49DC180E28B0DC4
:10085000883010F0911006C080915301182B10932E
:10086000530105C08091FB01182B1093FB010E94DE
:10087000221089C18B2D0E94C816112309F495C13D
:1008800080E28B0D883080F1992071F11095809174
:10089000FB0118231093FB012AC0812F807F1F705A
:1008A000803211F01295107F8B2D992021F0F1E00C
:1008B0009F16D9F147C080914E0182FD1BC00023D5
:1008C00069F0112339F080915301182B10935301D3
:1008D0000E94221080E00E94F41667C180E00E940E
:1008E000C816112309F461C1812F0E941B100E94B8
:1008F00022105BC1002381F08091FC01AA2051F0FD
:1009000021E0A21207C0182B181709F44EC110934A
:10091000FC014BC1812B10C0AA2021F081E0A81658
:1009200009F443C10E9415101FC0002341F091E05B
:100930009A1508F43AC1812F0E94BE1636C1A11043
:1009400034C112C0002319F0AA20A9F31CC1AA20A7
:1009500059F0893309F026C1EFEFF7EE23E0E150BB
:10096000F0402040E1F71CC1812F0E94B7161DC145
:10097000812F86958695837019F0813061F015C1BD
:10098000002321F08B2D912F937002C080E090E026
:100990000E94D71310C1002321F08B2D912F93704B
:1009A00002C080E090E00E94C11305C1812F8370D6
:1009B000A9F50111FEC04B2D429546954770440F95
:1009C000440F8B2D8F7090E09C01042E01C0220FEC
:1009D0000A94EAF7B4FE08C08FE090E001C0880FE7
:1009E0004A95EAF7809501C080E016951695137038
:1009F000123069F088F49091FD01113019F0822BCA
:100A0000892302C0922B892B0E947E16D2C0822B92
:100A10009091FD018927F8CF822BF6CF002319F0A2
:100A2000812F817001C08695882309F4C2C04B2DA7
:100A3000429546954770440F440F8B2D8F7090E080
:100A40009C01042E01C0220F0A94EAF7B4FE08C0EC
:100A50008FE090E001C0880F4A95EAF7809501C0C9
:100A600080E0169516951370123059F078F4909135
:100A70001702113019F0822B892309C0922B892B80
:100A800006C0822B90911702892701C0822B0E94F9
:100A90005E168FC01F70002339F0812F0E947216DE
:100AA0008B2D0E94BE1685C08B2D0E94B716812FFC
:100AB0000E9465167EC08B2D92EF991669F19915EB
:100AC00038F0E0EF9E1659F0F1EF9F1601F157C094
:100AD00023EF921641F194EF9916A9F050C000232C
:100AE00069F0A11062C01F7181E090E001C0880F21
:100AF0001A95EAF79091170289271FC0E1E0EA15DD
:100B000008F453C0F0CF80914E0182FD19C000233C
:100B100029F0812F8F7126C00023D9F3812F8F7187
:100B20000E94651642C0002339F01F7181E001C0A8
:100B3000880F1A95EAF701C080E00E945E1635C062
:100B4000002399F01F71812F0E94721680914E012F
:100B500082FF07C0F8E01F9FC001112483608093CB
:100B6000DA01812F0E94721620C081E00E94771066
:100B700021E02A15D0F482E00E94771016C00023ED
:100B800021F0AA2031F28B2DA6CEAA2039F289338A
:100B900049F48FEF97EEE3E081509040E040E1F7B9
:100BA00000C000008B2D0E94C81688EF8C0D843089
:100BB00010F40E94ED13DD20A9F08091DA0180FD90
:100BC00011C0F70112828595859585950E94721650
:100BD000C7010E94D6028091DA0185958595859599
:100BE0000E94651685E0F701DE01119601900D92D5
:100BF0008A95E1F709811A81C8010E94F515B801AB
:100C00000E94FD0D2A96EBE00C949F1880E290E084
:100C100090931401809313018091480181110EC0BB
:100C20000E94941781E0809348012FEF83ED90E3B9
:100C3000215080409040E1F700C0000064E670E081
:100C400080E40E949A179093140180931301892BDA
:100C500009F04EC064E670E080E00E940F189093A7
:100C6000140180931301892B09F042C064E670E0FF
:100C700080E00E940F189093140180931301892B38
:100C8000B9F564E670E08FE30E940F1890931401A9
:100C900080931301892B61F50E94641864E670E06B
:100CA00080E40E949A179093140180931301892B7A
:100CB000F9F464E670E08CE00E940F189093140140
:100CC00080931301892BA1F464E670E080E00E9418
:100CD0000F189093140180931301892B49F464E653
:100CE00070E08FE30E940F1890931401809313011A
:100CF0000E946418809113010895CF93DF93569852
:100D00005E9825982D9826982E9827982F98C8E8B1
:100D1000D0E08FEF90E099838883AAE8B0E0119645
:100D20009C938E93ECE8F0E091838083259A2D9A32
:100D30002FEF80E792E0215080409040E1F700C023
:100D40000000269A2E9A2FEF80E792E021508040F3
:100D50009040E1F700C00000279A2F9A2FEF80E71C
:100D600092E0215080409040E1F700C000002598BB
:100D70002D982FEF80E792E0215080409040E1F7DE
:100D800000C0000026982E982FEF80E792E02150B7
:100D900080409040E1F700C0000027982F98809194
:100DA000050287702FEF829FC001112495958795CA
:100DB0009595879599279983888311969C938E930F
:100DC0009183808356985E9825982D9826982E9822
:100DD00027982F98DF91CF910895CF93E82F8730F0
:100DE00080F58091130190911401892B09F047C07F
:100DF000CE2F64E670E080E40E949A17909314016D
:100E000080931301892BD1F464E670E082E10E94A3
:100E10000F189093140180931301892B79F481E0CA
:100E200090E001C0880FCA95EAF764E670E080950B
:100E30000E940F1890931401809313010E9464186C
:100E40001EC090E0FC013797E730F105C0F4E75988
:100E5000FF4F0C94FB18209A289811C0219A2998CA
:100E60000EC0229A2A980BC0239A2B9808C0529A37
:100E70005A9805C0539A5B9802C03E9A4698CF9103
:100E80000895209828982198299822982A9823989C
:100E90002B9852985A9853985B983E984698089584
:100EA000CF93873040F58091130190911401892BE5
:100EB00059F564E670E081E40E949A17909314015A
:100EC00080931301892B11F0C0E011C084E690E0FB
:100ED0000E943F1897FF05C090931401809313015F
:100EE000F3CFC82FC09510921401109213010E94E5
:100EF00064188C2F0AC09FB18FB1807F869586952C
:100F00009370892B809501C080E0CF9108958098DF
:100F1000889A8198899A84988C9A85988D9A8698CF
:100F20008E9A87988F9A08952091E4003091E50079
:100F300095E64091EC00842F817040FF23C08091A2
:100F4000E80080FD1DC080917801882399F08530EC
:100F500099F08091EB0085FD11C04091E400509123
:100F6000E5002417350729F3915011F09A01E1CFDC
:100F700084E0089582E0089583E0089581E0089573
:100F800080E008954091E80042FFDDCF0895EF92A0
:100F9000FF920F931F93CF93DF937C018B010E94ED
:100FA0009407811119C0E70101151105A1F0809185
:100FB000E80085FD0AC08091E8008E778093E80004
:100FC0000E949407882381F307C089918093F100E0
:100FD00001501109E9CF80E0CDB7DEB7E6E00C940F
:100FE000A41880917A0187FF11C08091E80082FDEA
:100FF00005C0809178018111F8CF11C08091E8007F
:101000008B770BC080917801882349F08091E800AC
:1010100080FFF8CF8091E8008E778093E8000895F4
:10102000982F973068F59093E900981739F07091F0
:10103000EC002091ED005091F00003C0242F762F9A
:1010400050E021FD02C09F5FECCF3091EB003E7F6E
:101050003093EB003091ED003D7F3093ED00309107
:10106000EB0031603093EB007093EC002093ED00C7
:101070005093F0002091EE0027FDE5CF80E0089529
:101080008F708093E90081E0089520918001309174
:1010900081012617370748F06115710539F4209151
:1010A000E8002E772093E80001C0B901FC0120E0A0
:1010B0006115710579F1809178018823F1F185300E
:1010C000F1F18091E80083FD3CC08091E80082FD51
:1010D0002EC08091E80080FFEBCF2091F30080913B
:1010E000F20090E0922B6115710551F08830910566
:1010F00038F421912093F100615071090196F3CFEA
:1011000021E0089709F020E08091E8008E77809335
:10111000E800CECF2111CFCF0AC08091780188237B
:1011200061F0853061F08091E80083FD0AC0809114
:10113000E80082FFF2CF80E0089582E0089583E026
:10114000089581E0089508950895809155010895C6
:1011500080934F0170935101609350018091780109
:10116000843001F582E08093E9008FEF9091E800F0
:10117000815095FD06C095ED9A95F1F7000081111B
:10118000F5CF8091E80085FF0DC040E050E063E0BE
:1011900070E08FE491E00E94C7078091E8008E77AD
:1011A0008093E8000895BC0184E00E94A808089597
:1011B000BC0183E00E94A8080895CF93DF9320919B
:1011C0000601222339F020914D0127FF03C060E280
:1011D00022E002C068E021E02093E9002FEF309187
:1011E000E800215035FD06C035ED3A95F1F70000D5
:1011F0002111F5CF2091E80025FF1DC0EC01809161
:101200000601811105C040E050E068E070E003C0D5
:1012100070E040E050E0CE010E94C7078091E800F6
:101220008E778093E80080E2FE01A6E5B1E00190B0
:101230000D928A95E1F7DF91CF910895AAE2B0E08F
:10124000E4E2F9E00C948B18EAE7F1E082E891E03F
:101250002091F10021938E179F07D1F780917B0198
:10126000833009F461C030F4813071F0823009F4C8
:101270009DC0B4C08A3009F489C08B3009F46CC0B9
:10128000893009F0ABC020C080917A01813A09F021
:10129000A5C08091E800877F8093E80080917E015F
:1012A00090917F01892B21F460E286E591E003C0F3
:1012B00060E080E090E070E00E9445088091E800E6
:1012C0008B778093E8008AC080917A01813209F09F
:1012D00085C080917E0190917F01029708F07EC0C9
:1012E0008091E800877F8093E8008091E80082FD8C
:1012F00005C0809178018111F8CF70C02091F30072
:101300008091F20090E0922B029731F48091F100ED
:10131000813011F0863021F48091F10080935501E5
:101320008091E8008B7756C080917A01813A09F06C
:1013300055C080917E0190917F01892B09F04EC0AC
:101340008091E800877F8093E8008091E80080FF2B
:10135000FCCF8091060139C080917A018132F1F58C
:1013600080917E0190917F01892BC1F58091E800E9
:10137000877F8093E8000E94F10780917C01809331
:101380000601109253010E94A31628C080917A0191
:10139000813221F58091E800877F8093E8000E94E8
:1013A000F10780917D018093540118C080917A01EA
:1013B000813AA1F48091E800877F8093E8008091D2
:1013C000E80080FFFCCF809154018093F100809170
:1013D000E8008E778093E8000E94F1078091E80092
:1013E00083FFCEC180917A0190917B01492F50E01B
:1013F0004A30510508F0C4C1FA01E059FF4F0C947E
:10140000FB18803821F0823809F0BAC108C08091F9
:10141000760190917701992389F082600FC08091C5
:101420007E018F70873008F0ABC18093E900809116
:10143000EB0085FB882780F91092E9009091E80085
:10144000977F9093E8008093F1001092F10065C1BE
:10145000282F2D7F09F094C1882319F0823061F084
:101460008FC180917C01813009F08AC1933009F0ED
:1014700080E0809377012EC080917C0181112AC089
:1014800080917E018F702FEF280F263008F078C1F1
:101490008093E9002091EB0020FF1CC0933021F4E1
:1014A0008091EB00806214C09091EB00906190936A
:1014B000EB0021E030E0A90102C0440F551F8A95DE
:1014C000E2F74093EA001092EA008091EB00886016
:1014D0008093EB001092E9008091E800877F20C1A3
:1014E00081114EC110917C011F778091E3008078BB
:1014F000812B8093E3008091E800877F8093E80050
:101500000E94F1078091E80080FFFCCF8091E3000A
:1015100080688093E300111102C082E001C083E083
:10152000809378012DC18058823008F029C18091C4
:101530007C0190917D018C3D53E0950779F583E026
:101540008A838AE289834FB7F894DE01139620E0FC
:101550003EE051E2E32FF0E050935700E49120FF8A
:1015600003C0E295EF703F5FEF708E2F90E0EA309E
:1015700010F0C79601C0C0968D939D932F5F2431C4
:1015800049F74FBF8091E800877F8093E8006AE2C7
:1015900070E0CE0101960E944508AEC040917E01E8
:1015A00050917F01292F332723303105A9F068F4AA
:1015B0002130310509F4F3C02230310509F0E0C0D3
:1015C0008BE390E0E1EAF1E044C02132310521F102
:1015D0002232310571F1D4C0992781309105A1F0F3
:1015E00058F0029709F0CCC0EEEEF1E0E4918E2FB6
:1015F00090E0EEEEF1E02AC0E0E3F2E0E4918E2F1D
:1016000090E0E0E3F2E022C0E6E0F2E0E4918E2F29
:1016100090E0E6E0F2E01AC04115510509F4C4C0BB
:101620004130510509F0ACC089E090E0ECECF1E00C
:1016300010C04115510509F4BCC04130510509F0F5
:101640009FC08DE690E0E4EFF0E003C0009709F45E
:1016500097C02091E800277F2093E8002091800127
:10166000309181018217930708F49C0140E0211515
:10167000310589F180917801882309F43DC08530D6
:10168000D9F18091E80083FD37C08091E80082FDA8
:101690002FC08091E80080FFEACF4091F300809155
:1016A000F20090E0942B2115310559F08830910516
:1016B00040F444914093F100319621503109019654
:1016C000F2CF41E0089709F040E08091E8008E7782
:1016D0008093E800CCCF4111CDCF0AC08091780132
:1016E000882351F0853041F08091E80083FD04C0EB
:1016F0008091E80082FFF2CF8091E8008B778093A1
:10170000E8003EC08038E1F58091E800877F809353
:10171000E800809179018093F1008091E8008E7754
:101720008093E8000E94F1072BC0811129C08091AD
:101730007C0190917D019927029714F58091E80032
:10174000877F8093E80010917C01109379010E94BB
:10175000F107111106C08091E30087FD02C081E00E
:1017600001C084E08093780142E061EC81E00E9456
:10177000100842E261EC82E00E941008809178013A
:101780008091E80083FF1AC08091E800877F8093F2
:10179000E8008091EB0080628093EB000FC082E153
:1017A00090E0ECEDF1E055CF89E090E0E3EBF1E083
:1017B00050CF80E490E0E1E6F1E04BCFAA96E3E081
:1017C0000C94A7181F920F920FB60F9211242F930B
:1017D0003F934F935F936F937F938F939F93AF93B9
:1017E000BF93CF93DF93EF93FF93C091E900CF7046
:1017F0008091EC00D82FD17080FDD0E81092E900E4
:101800008091F000877F8093F00078940E941E09F9
:101810001092E9008091F00088608093F000CD2B59
:10182000CF70C093E900FF91EF91DF91CF91BF910D
:10183000AF919F918F917F916F915F914F913F9168
:101840002F910F900FBE0F901F901895E8EDF0E0CC
:1018500080818E7F80831092E2001092DA001092D5
:10186000E100A0EEB0E08C9181608C9380818F7755
:10187000808319BCA7EDB0E08C918E7F8C93808122
:101880008F7E8083109252010895A0E0B0E0EBE4D7
:10189000FCE00C948618C8EDD0E088818F7E8883A8
:1018A000E7EDF0E080818160808384E082BF81E0A9
:1018B0008093520188818E7F888302EE10E0F801C8
:1018C00010821092DA0081EEC82ED12CF60110821F
:1018D00088818F77888388818068888388818F7DDD
:1018E000888319BC109278011092790110927701C7
:1018F0001092760190EEE92EF12CF70180818B7F1A
:10190000808388818160888342E060E080E00E947B
:101910001008F60180818E7F8083F80180818160CC
:101920008083808188608083F70180818E7F8083BF
:10193000888180618883CDB7DEB7E8E00C94A21877
:101940001F920F920FB60F9211242F933F934F9334
:101950005F936F937F938F939F93AF93BF93EF9317
:10196000FF938091E10082FF09C08091E20082FF35
:1019700005C08091E1008B7F8093E1008091DA00C7
:1019800080FF2AC08091D80080FF26C08091DA00B5
:101990008E7F8093DA008091D90080FF18C080E1AB
:1019A00089BD82E189BD09B400FEFDCF81E080934D
:1019B00078018091520181110FC00E94260C0E9473
:1019C000450C8091E20084608093E20005C019BC60
:1019D00010927801109252018091E10080FF17C0AF
:1019E0008091E20080FF13C08091E2008E7F80939F
:1019F000E2008091E20080618093E2008091D80053
:101A000080628093D80019BC85E080937801809132
:101A1000E10084FF30C08091E20084FF2CC080E1AF
:101A200089BD82E189BD09B400FEFDCF8091D80057
:101A30008F7D8093D8008091E1008F7E8093E100BC
:101A40008091E2008F7E8093E2008091E2008160CD
:101A50008093E20080917901882311F084E007C02F
:101A60008091E30087FD02C081E001C083E08093A4
:101A70007801809178018091E10083FF27C08091F7
:101A8000E20083FF23C08091E100877F8093E10023
:101A900082E080937801109279018091E1008E7F3D
:101AA0008093E1008091E2008E7F8093E20080913C
:101AB000E20080618093E20042E060E080E00E940A
:101AC00010088091F00088608093F000FF91EF9102
:101AD000BF91AF919F918F917F916F915F914F9146
:101AE0003F912F910F900FBE0F901F9018957894F3
:101AF0001F920F920FB60F9211248F939F93AF9363
:101B0000BF938091490190914A01A0914B01B091FE
:101B10004C010196A11DB11D8093490190934A018A
:101B2000A0934B01B0934C01BF91AF919F918F91C6
:101B30000F900FBE0F901F9018959C014FB7F8940F
:101B40008091490190914A01A0914B01B0914C01C3
:101B50004FBF821B930B08952FB7F89480914901D2
:101B600090914A01A0914B01B0914C012FBF089573
:101B700080E0089590914D0192FF0DC0282F2871AB
:101B8000283019F4877F846006C0282F2471243000
:101B900011F48B7F886093FF0DC0282F28712831A6
:101BA00019F4877E846106C0282F2471243111F432
:101BB0008B7E886120914E0120FF0DC0382F387137
:101BC000383019F4877F816006C0382F3171313089
:101BD00011F48E7F886021FF0DC0282F28712831D5
:101BE00019F4877E816106C0282F2171213111F4FB
:101BF0008E7E886194FD877E08957E30A0F46630E5
:101C000090F494E5899FF001112486E0789FE00D1F
:101C1000F11D1124E60FF11DEE0FFF1FEC5CFD4FCF
:101C200085919491089580E090E00895CF93DF939B
:101C30008238910569F1B0F48133910509F46FC0E0
:101C400048F48932910509F465C08A32910509F496
:101C50006BC08AC08533910509F457C0893391055B
:101C6000B9F082C0833E910571F138F4803E910550
:101C7000B1F0823E910511F177C0863E9105B9F130
:101C8000873E9105C9F1843E910509F06DC024C0DD
:101C900020914D0120FD53C021FD51C065C08091B0
:101CA0004D0180FD46C080914E0180FF48C080916B
:101CB0004D0184FD3FC183EE90E03EC180914D0116
:101CC00082FF3AC0F4CF80914D0182FD35C08091F2
:101CD0004E0180FD34C0EBCF80914E0181FF35C0B5
:101CE00080914D0184FD26C187EE90E025C1809151
:101CF0004D0183FF27C0F4CF80914D0183FD22C0A9
:101D000080914E0181FD21C0EBCF80914D0185FD79
:101D10001FC021C080914D0185FD1DC019C080915B
:101D20004D0186FD1BC01DC080914D0186FD19C06F
:101D300015C089E390E000C182EE90E0FDC080EE26
:101D400090E0FAC086EE90E0F7C084EE90E0F4C038
:101D500089E290E0F1C085E390E0EEC08AE290E095
:101D6000EBC081E390E0E8C0811532E5930708F00D
:101D700069C0811541E5940728F0982F8827816F65
:101D8000906ADAC0883E910568F5803E910508F0BA
:101D9000D3C0883A9105B8F4853A910548F0855A40
:101DA000E82FF0E0EB5EFE4F808190E09064C4C0CD
:101DB0008130910509F4BBC008F4BCC084309105A2
:101DC00008F4B8C0B9C08F3B910508F0B3C0885A79
:101DD000E82FF0E0EE0FFF1FE85EFE4F808191815B
:101DE0009464AAC0811520E59207F0F09C0174E08C
:101DF000369527957A95E1F7922F9370482F437087
:101E000021E030E002C0220F331F4A95E2F73C6820
:101E1000392B8F70982F9695969540E2949FC0012C
:101E20001124822B932B88C0811530E4930718F07E
:101E30009F70906A81C09C013A9521153F4108F43A
:101E40007BC078C0EC01C11586E5D807E8F5C1155F
:101E500025E5D20748F08C2F0E94BA0D8F7190E0D3
:101E6000982F8827906268C0C11534E5D30728F001
:101E70009C2F8827846F906A5FC0AE0143705527FE
:101E80002C2F26952695C115D34578F481E090E056
:101E900002C0880F991F4A95E2F740E2249F900103
:101EA0001124822B932B9C6847C081E090E002C0F4
:101EB000880F991F4A95E2F740E2249F9001112470
:101EC000822B932B9A6838C0C1152AE5D207F8F403
:101ED000C11539E5D30790F08C2F8F700E94BA0D91
:101EE00094E0D695C7959A95E1F7CF70D0E0DC2FB6
:101EF000CC27D0699E01282BC9011EC0C11548E519
:101F0000D407C0F09C2F8827806F906A15C0CE013F
:101F100090568115904270F48D2F8F710E94BA0DEA
:101F2000282F2F71CE0199279062922B05C081E056
:101F300090E002C080E090E0DF91CF91089568EEDC
:101F40007EEF80E090E00E94E51860E082E090E0A3
:101F50000E94C71860E083E090E00E94C7181092CA
:101F6000FD0160E084E090E00E94C71864E082E236
:101F700090E00E94C71860E085E090E00E94C718DA
:101F800060E086E090E00E94C7186FEF87E090E085
:101F90000E94C71840E050E0BA0188E090E00E943B
:101FA000D91860E08DE090E00E94C71840E050E052
:101FB000BA0188E190E00E94D91860E087E190E0E2
:101FC0000E94C71840E050E0BA018CE190E00E9406
:101FD000D91860E070E080E290E00E94E51840E0EF
:101FE00050E0BA0188E190E00E94D91810920502F1
:101FF00010920602109207021092080284E0809369
:10200000050240910502509106026091070270910D
:1020100008028FE090E00E94D91840E050E0BA0139
:1020200083E190E00E94D91808958091FC0181110C
:102030001092FC010895809590915301892380931B
:1020400053010895909153018091FB01982B909337
:1020500082018091FC018823D9F0892B8093820131
:1020600080910601882331F080914D0187FF02C0E5
:102070008EE101C086E0E4E8F1E090E0815028F0D4
:1020800021912223D9F39F5FF9CF91110E9415105E
:1020900040E250E06BED71E082E891E00E94221A8C
:1020A000892B21F180E2E2E8F1E0ABEDB1E00190B3
:1020B0000D928A95E1F7E0913802F091390230975C
:1020C000A9F080910601882359F080914D0187FF86
:1020D00007C0809182018093830186E08093820112
:1020E0000280F381E02D82E891E009950895209126
:1020F000DA01809582238093DA01982F977099F402
:1021000030E0482F082E000C550B2417350759F0E6
:1021100090914E0192FF07C08595859585950E9407
:1021200065161092DA010895CF93C0914E01C2FB5B
:10213000992790F9981791F080FBC2F9C0934E014E
:1021400060914D0184E090E00E94C7186C2F82E2FC
:1021500090E00E94C71882E00E947710CF91089506
:102160008091D9019091A801891719F08F5F87702C
:10217000FBCF08950F931F93CF93DF938091A70117
:1021800082958F7009F05AC08091A401882309F4C8
:1021900055C08091D9011091A8016091A201709160
:1021A000A301C091A501D091A60191E06F3F09F074
:1021B00090E0292F06E0811709F440C0209721F014
:1021C0007F3F21F030E003C031E001C0322F90E0CA
:1021D00030FD31C0089FF001099FF00D1124DF018F
:1021E000A755BE4F11963C911197371324C03C91CF
:1021F000361321C012963C91129731111CC01396D0
:102200004D915C9114974C1B5D0B483C510598F423
:102210008091A7018F7080618093A701E255FE4FE6
:1022200080818F708061808382EA91E00E94D60273
:102230000E94B01003C001968770BDCFDF91CF918F
:102240001F910F910895A1E1B0E0E9E2F1E10C9452
:1022500083188C0185E0F801DE011D9601900D9236
:102260008A95E1F7F801E2809091A2016091A301C3
:102270004091A5015091A6014115510531F06F3FE4
:1022800031F481E09F3F19F403C081E001C080E098
:10229000F82FF1709F2E80FD1BC1F8013081218144
:1022A000C380D48082EAA82E81E0B82EF090A401E9
:1022B000F601E41BF50BFF2009F4C7C08091A701CC
:1022C000E83CF10508F092C0482F407F09F051C06A
:1022D000621311C093130FC0FE2CE1100CC08F705D
:1022E00080618093A701C5010E94D6028091A70159
:1022F000F80185832AC1C114D10431F02F3F31F494
:1023000081E03F3F19F403C081E001C080E080FD1F
:1023100003C081E08E2502C080E090E0F82FF170CC
:10232000FF2E80FF1CC08091D9014091A80156E08A
:10233000841709F4E8C090E0589FF001599FF00D10
:102340001124E755FE4F6181261306C06081631397
:1023500003C06281E61203C001968770E9CFFE2CAC
:10236000EE2009F4F2C08091A70181608093A7015B
:1023700049C0621306C0931304C0E11002C0F80103
:1023800086C0C8010E948316882351F1EE2041F1D6
:102390002091A701822F82958F7090E0029774F0B0
:1023A0008091A2019091A30198878F831986DB8683
:1023B000CA862C87CE0107960E94D60286E0F801D5
:1023C000A2EAB1E001900D928A95E1F70E94BA105D
:1023D0000AC06217C9F0C8010E94831681111EC08D
:1023E000C8010E94D602FF24F394AFC0482F407F5B
:1023F00081F782EA91E00E94D60286E0F50111920F
:102400008A95E9F7F12CA1C09313E5CFE110E3CF52
:10241000F8018583C8010E94D60254C0EE2001F362
:102420002091A701822F82958F7090E0029734F25D
:102430008091A2019091A3019A8389831B82DD82FE
:10244000CC822E83CE010196B7CFE83CF105D0F5C2
:10245000FE2CEE2029F2621327C0931325C0209191
:10246000A70120FD18C0822F82958F70482F50E061
:102470004115510581F0F80125834F30510541F098
:102480008F5F982F9295907F822F8F70892B8583F5
:10249000C8010E94D60286E0F801A2EAB1E00190EC
:1024A0000D928A95E1F751C0C8010E9483168111EF
:1024B00085CF8091A70181608093A701C8010E9408
:1024C000D60243C086E0F50111928A95E9F73DC036
:1024D000EE2009F485CFC8010E948316F82E8823C8
:1024E00009F47ECF86E0F801A2EAB1E001900D92F6
:1024F0008A95E1F78091A2019091A3010E94E815CD
:102500000E94BA1022C03D872E878D859E850E942D
:10251000E815292F22952F70223028F49F7039F06A
:10252000811105C00BC0243028F49F7049F4805EEF
:10253000883020F0C8010E94D6029F2CF92C05C0DB
:10254000F8019581907F99F7F9CF8F2D6196EBE097
:102550000C949F18A0E0B0E0E0EBF2E10C94851839
:102560008091130190911401892B91F08091FE01CB
:102570008F5F8093FE0181110BC00E94060690E0E0
:102580009093140180931301892B11F40E947D060E
:1025900009E012E07801B12CC0E087E0C82ECC0E33
:1025A0008C2F0E94ED068C2D0E94ED068C2F0E9430
:1025B00050078F73F7019081891721F08083DD2404
:1025C000D39401C0D12C8C2D0E9450078F73F7013A
:1025D0009781891719F0878381E001C080E0D82AAC
:1025E000BD280E944107CF5FFFEFEF1AFF0AC730F7
:1025F000A1F6C0910202CC23C9F10E94AC0D20913A
:10260000000230910102AC01421B530B9A019093DE
:102610000102809300024F3F510509F020F4452B41
:1026200009F454C002C02FEF30E010920202109261
:10263000FF01E0910302F0910402AF01425F5F4F9E
:1026400090E030E08081882341F0281718F0108254
:102650009C2F03C0821B80833C2F3196E417F50723
:1026600089F7309302029093FF0130C0BB2031F113
:102670000E94AC0D9093010280930002E09103024E
:10268000F091040280910202A8E1B2E09F01225F72
:102690003F4F4EE1E80199918E015C91591731F05D
:1026A0005081511103C040839C9381E03196119673
:1026B000E217F30779F7809302020CC080E0909153
:1026C000FF01992339F08111D9CFD2CFB110D6CFE4
:1026D00081E0F5CF8B2DCDB7DEB7E9E00C94A118E2
:1026E0001F920F920FB60F9211248F939F93AF9367
:1026F000BF9380913C02811113C080914901909158
:102700004A01A0914B01B0914C014196A11DB11D10
:102710008093490190934A01A0934B01B0934C01DF
:10272000BF91AF919F918F910F900FBE0F901F900F
:102730001895209106012223C9F020914D0127FF11
:1027400015C0262F2695269526952E31C8F4FC0116
:10275000E20FF11D677081E090E001C0880F6A957B
:10276000EAF780959281892382830895FC01069679
:102770002281621301C012823196E817F907C1F76E
:10278000089520913A0230913B022817390771F0E1
:1027900090933B0280933A02E0913802F091390223
:1027A000309721F00084F185E02D0995089520915E
:1027B0003602309137022817390771F090933702AB
:1027C00080933602E0913802F0913902309721F07F
:1027D0000680F781E02D09950895E0913802F09187
:1027E0003902309729F00190F081E02D0995089584
:1027F00080E00895AAE0B0E0E0E0F4E10C948318F2
:1028000085B7806885BF85B7806885BF84B7877FB7
:1028100084BF0FB6F894A89580916000886180937A
:102820006000109260000FBE90E080E80FB6F89450
:1028300080936100909361000FBE88EB9DE09093C0
:102840004701809346010E94260C0E94450C80910E
:10285000E20084608093E20078948091780188237C
:10286000A1F01091E9001F709091EC00892F817008
:1028700090FD80E8182B1092E9008091E80083FD1C
:102880000E941E091F701093E90082E084BD93E04E
:1028900095BD9AEF97BD80936E000E94060690E06A
:1028A00090931401809313010E9441070E948707AF
:1028B000E9E0F2E0A8E1B2E011921D9222E0E731F6
:1028C000F207D1F78EE090E00E9401198093030295
:1028D00090930402FC010E961192E817F907E1F7B4
:1028E00089EA8093800089E08093810024982C9865
:1028F0003F988AB18F7C8AB96E98479A8BB1806372
:102900008BB9769A8FE090E00E94BB186093050225
:1029100070930602809307029093080267708FEF0E
:10292000689FB00111247595679575956795772710
:10293000709389006093880070938B0060938A0085
:1029400070938D0060938C000E947D0680E090E083
:102950000E94C118883E9E4F11F00E949F0F82E096
:1029600090E00E94B3188093260284E090E00E94D9
:10297000B318182F82E290E00E94B318212F30E0A4
:10298000382B30934E0120934D0183E090E00E945C
:10299000B3180E947E16809117020E94AC0287E055
:1029A00091E0909339028093380288E1C82ED12CAF
:1029B00090E4992E26E2A22E22E0B22E30E1E32E00
:1029C00080917801853009F052C012E18091780140
:1029D000853009F046C080917801843009F1109269
:1029E0003C020FB6F894A895C09260000FBE90927A
:1029F000600083B7817F846083BF83B7816083BFBA
:102A00007894889583B78E7F83BF0FB6F894A89586
:102A100080916000886180936000109260000FBE1A
:102A200080917701882391F20E94060690E09093AE
:102A30001401809313010E9441070E948707E8E177
:102A4000F2E0119282E0E632F807D9F70E94AA126A
:102A5000E8E1F2E08191811167C0AE16BF06D1F7BF
:102A6000B5CF109253010E94A3160E94ED130E944D
:102A7000AA12882359F08FB7F894409149015091D8
:102A80004A0160914B0170914C018FBFE7E2F2E087
:102A9000A8E1B2E000E010E0302F2D919191922753
:102AA00021F180E0FF24F394492F4F21D1F0898355
:102AB0003A832F2181E009F480E08B830E94AC0DE2
:102AC0008160782F9D838C8349815A816B818D81B0
:102AD0000E940D02F801E95DFD4F8081F826F08229
:102AE00019C08F5FFF0C8630F9F60F5F1F4F0E3055
:102AF000110591F68FEF8E838F8318860E94AC0D9F
:102B00008160782F9A8789874E815F8168858A8561
:102B10000E940D020E94ED1390913502891709F46D
:102B20004FCF809335024CCFE9BC19BD09B400FEEC
:102B3000FDCF8091D8008F7D8093D8008091E000F8
:102B400082608093E0008091E00081FDFCCF1092D4
:102B500053010E94A3163ACF80E090E00E94D71361
:102B600080E090E00E94C1131092FB010E942210AD
:102B70000895CF92DF92FF920F931F93CF93DF932D
:102B80006C01009117028091FD01082BC7E0D0E095
:102B900010E0C8010C2E02C0959587950A94E2F7C3
:102BA00080FD04C02197A8F7F12C09C0FC2EB601C6
:102BB0008C2F0E94FD0D0E94160E019799F38F2D08
:102BC000DF91CF911F910F91FF90DF90CF900895EB
:102BD000CF93DF93EC010E94B915BE010E94FD0D59
:102BE0000E94160EDF91CF910895292F9E3078F51F
:102BF000863068F590E036E0239F800D911D11240A
:102C0000682F677023E0969587952A95E1F7FC0178
:102C1000EE0FFF1FE80FF91FE35CFD4F40E050E0AF
:102C200080E0219130E0062E02C0369527950A9467
:102C3000E2F721703327042E01C0220F0A94EAF72D
:102C4000822B4F5F5F4F4330510559F7089580E065
:102C50000895292F9E3088F5863078F590E036E08B
:102C6000239F800D911D1124282F277051E001C052
:102C7000550F2A95EAF723E0969587952A95E1F76F
:102C8000FC01EE0FFF1FE80FF91FE35CFD4F20E092
:102C900030E070E04081CB01022E02C0969587950E
:102CA0000A94E2F781708195842785238427819394
:102CB0002F5F3F4F2330310569F708950E94AC0222
:102CC000809317020E94AC15089521E030E001C006
:102CD000220F8A95EAF720958091170282230E949D
:102CE0005E16089521E030E001C0220F8A95EAF7D0
:102CF00080911702822B0E945E1608958093FD0139
:102D00000E94AC150895FC01808191810E94E81514
:102D100092959F70963079F010F4925001C09A50BD
:102D2000923068F4803F69F018F4883E40F409C09E
:102D3000843F29F406C0883E20F0813F11F080E0F6
:102D4000089581E0089580910601882331F08091F3
:102D50004D0187FF02C08EE101C086E0E4E8F1E0AA
:102D6000DF011D928A95E9F70E94AC15089588232A
:102D700021F00E941B100E9422100895882339F030
:102D800090915301892B809353010E942210089542
:102D9000882349F1682F8CEF860F813A28F482E866
:102DA00091E00E9499130CC080E2860F883058F49D
:102DB000677081E001C0880F6A95EAF70E941B10D6
:102DC0000E94221008958BE5860F833028F480E05E
:102DD00090E00E94D7130895685A673120F480E08C
:102DE00090E00E94C1130895CF93882309F49AC0FC
:102DF000C82F8CEF8C0F813A08F05EC080910601DD
:102E00008823E1F080914D0187FF18C0EC2FE695F3
:102E1000E695E695F0E0EE57FE4F8281282F30E0F0
:102E20004C2F477081E090E002C0880F991F4A95AF
:102E3000E2F782239323892B59F411C0E4E8F1E0EF
:102E40008191C81729F081E0EA38F807C9F707C06F
:102E50006C2F82E891E00E9499130E9422108091C9
:102E600006018823C9F080914D0187FF15C0AC2F62
:102E7000A695A695A695B0E0AE57BE4FC77081E067
:102E800090E001C0880FCA95EAF712969C911297BC
:102E9000892B12968C9320C0A4E8B1E0EFEF80E07C
:102EA0009D91C917C9F0EF3F19F4911101C0E82FA6
:102EB0008F5F8630A9F72DC080E28C0F883078F4C0
:102EC000C77081E090E001C0880FCA95EAF7909141
:102ED0005301892B809353010E94221023C0EBE5FC
:102EE000EC0FE33040F4F0E0EB5EFE4F808190E0C9
:102EF0000E94D71317C0C85AC731A0F4EC2FF0E0D6
:102F0000EE0FFF1FE85EFE4F808191810E94C1138A
:102F100009C0EF3F09F30E2E000CFF0BEE57FE4FDA
:102F2000C283DACFCF9108951092B9008CE08093DC
:102F3000B8000895A0E0B0E0E0EAF7E10C9483184F
:102F4000B82EEB010E94AC0D6C01C431D10558F0D4
:102F5000CF3F8FEFD80759F0CE0164E170E00E94B7
:102F600068187B0107C0EE24E394F12C03C025E030
:102F7000E22EF12C84E8A82E94EA992E1092BC003F
:102F80009092BC000E94AC0D8C018091BC0087FD2A
:102F900008C00E94AC0D801B910B8E159F05A8F3F5
:102FA0002AC08091B900887F883041F08091B900B3
:102FB000887F803119F00FEF1FEF1FC0B092BB0068
:102FC000A092BC000E94AC0D8C018091BC0087FDDA
:102FD00008C00E94AC0D801B910B8E159F05A8F3B5
:102FE0000AC08091B900887F883111F0803419F7C8
:102FF00000E010E00EC00EEF1FEFCF3F8FEFD807BD
:1030000009F4BCCFC6010E949D0D8C179D0708F4E2
:10301000B5CFC801CDB7DEB7EBE00C949F180F9386
:103020001F93CF93DF93EB018093BB0084E88093E1
:10303000BC000E94AC0D8C018091BC0087FD0EC0CD
:10304000CF3F8FEFD807C1F30E94AC0D801B910BCF
:103050008C179D0788F38EEF9FEF0CC02091B9006D
:10306000287F81E090E0283211F480E090E0919593
:1030700081959109DF91CF911F910F9108950F9341
:103080001F93CF93DF93EC0184E88093BC000E94F0
:10309000AC0D8C018091BC0087FD0EC0CF3F8FEF3F
:1030A000D807C1F30E94AC0D801B910B8C179D07B4
:1030B00088F38EEF9FEF03C08091BB0090E0DF911B
:1030C000CF911F910F91089584E98093BC000895DA
:1030D000AA1BBB1B51E107C0AA1FBB1FA617B7073E
:1030E00010F0A61BB70B881F991F5A95A9F780955A
:1030F0009095BC01CD0108952F923F924F925F921F
:103100006F927F928F929F92AF92BF92CF92DF92F7
:10311000EF92FF920F931F93CF93DF93CDB7DEB75C
:10312000CA1BDB0B0FB6F894DEBF0FBECDBF0994F0
:103130002A88398848885F846E847D848C849B8447
:10314000AA84B984C884DF80EE80FD800C811B8155
:10315000AA81B981CE0FD11D0FB6F894DEBF0FBE84
:10316000CDBFED010895F999FECF92BD81BDF89ACA
:10317000992780B50895A6E1B0E044E050E00C94B2
:10318000ED18A8E1B0E042E050E00C94ED18262FD5
:10319000F999FECF92BD81BDF89A019700B402164D
:1031A00039F01FBA20BD0FB6F894FA9AF99A0FBEFB
:1031B00008950396272F0E94C8180E94C718252F2C
:1031C0000E94C818242F0C94C8180196272F0E941B
:1031D000C8180C94C718DC01CB01FC01F999FECF8B
:1031E00006C0F2BDE1BDF89A319600B40D9241508F
:1031F0005040B8F70895EE0FFF1F0590F491E02DB1
:1032000009940F931F93CF93DF938230910510F4AD
:1032100082E090E0E0916002F091610220E030E015
:10322000A0E0B0E0309719F1408151810281138113
:1032300048175907C8F08417950769F4109731F0BB
:1032400012960C93129713961C9327C0009360025A
:103250001093610222C02115310519F0421753075E
:1032600018F49A01BD01EF01DF01F801DBCF211550
:103270003105F9F0281B390B2430310580F48A819F
:103280009B816115710521F0FB019383828304C04A
:103290009093610280936002FE01329644C0FE0169
:1032A000E20FF31F819391932250310939832883D0
:1032B0003AC020915E0230915F02232B41F42091AD
:1032C00002013091030130935F0220935E0220914E
:1032D0000001309101012115310541F42DB73EB7B0
:1032E0004091040150910501241B350BE0915E02D1
:1032F000F0915F02E217F307A0F42E1B3F0B281793
:10330000390778F0AC014E5F5F4F2417350748F05E
:103310004E0F5F1F50935F0240935E028193919323
:1033200002C0E0E0F0E0CF01DF91CF911F910F915B
:103330000895CF93DF93009709F481C0FC01329781
:1033400013821282A0916002B0916102109781F401
:1033500020813181820F931F20915E0230915F02A4
:103360002817390751F5F0935F02E0935E0267C0BA
:10337000ED0120E030E0CE17DF0740F44A815B81A9
:103380009E0141155105F1F0EA01F5CFD383C283C7
:1033900040815181840F951FC817D90759F488813E
:1033A0009981840F951F0296918380838A819B81E6
:1033B000938382832115310529F4F0936102E09310
:1033C00060023DC0E901FB83EA8349915991C40F32
:1033D000D51FEC17FD0761F480819181840F951F43
:1033E0000296E90199838883828193819B838A83F2
:1033F000E0E0F0E012968D919C911397009719F000
:10340000FD01DC01F7CF8D919C9111979D012E5FFD
:103410003F4F820F931F20915E0230915F02281769
:10342000390769F4309729F4109261021092600212
:1034300002C013821282B0935F02A0935E02DF91FA
:10344000CF910895FB01DC0104C08D91019080199A
:1034500021F441505040C8F7881B990B0895F89407
:02346000FFCF9C
:1034620000006202200001A508DD08A408D808D3E4
:1034720008A3082000818283E200E900EA00B50087
:10348200B600B700CD008301CC008A0192019401FD
:103492002102230224022502260227022A02B30065
:0634A200B4006F00700091
:00000001FF
