:100000000C9429040C9446040C9446040C94460465
:100010000C9446040C9446040C9446040C94460438
:100020000C9446040C9446040C9432170C94071656
:100030000C94F4210C9446040C9446040C9446044D
:100040000C9446040C9446040C9446040C94460408
:100050000C9446040C9472180C9446040C944604B8
:100060000C9446040C9446040C9446040C944604E8
:100070000C9446040C9446040C9446040C944604D8
:100080000C9446040C9446040C9446040C944604C8
:100090000C9446040C9446040C9446040C944604B8
:1000A0000C9446040C9446040C944604AC09AC0928
:1000B000EA09EA09330A3E0CE50B3E0C530A3F0BF2
:1000C000510B510B3D0E400E430E460E490E4C0E89
:1000D0004F0E35113A11441138113D1142114011A2
:1000E000AB13C513F1132E1479147C147F148214EE
:1000F000851488148B148E149114941499149C14E0
:100100009F14A414A914AC14AF14A429CB296B2BED
:10011000CB296B2B132A362A6B2B342B472BA32B83
:10012000A32BB62BB62BAC2BB62BB62BB62BA32BF7
:10013000A32BB12BB62BB62BB12B29002B003500EE
:10014000E100E00000001E00140004001D0001009A
:1001500002511F001A0016001B000100E3002000DE
:1001600008000700060001002A0021001500090010
:100170001900E2000351220017000A0005000000E8
:100180002302230050090000010000003E0024006B
:100190004F0900002E000000015325001C000B0039
:1001A000110000002102260018000D0010006574E7
:1001B000010027000C000E00360001002C002F006B
:1001C00012000F0037000100280030001300330038
:1001D0003800010001512D0031003400E500E40039
:1001E00000000000000000000000000000003A00D5
:1001F000000000000000000001003B000000420081
:100200000000000001003C0000004300000000006E
:100210004C003D00400044000000000001003E0092
:10022000410045000000000001003F000000000008
:1002300000000000010000000000000000000000BD
:10024000B2000000000000000000000001000000FB
:100250000100010001000000010001000100010097
:100260000100010027000100010001000100010060
:100270000100010001000100010001000100000077
:10028000000000000000010000000100010001006A
:100290000100010000000100010001000100010057
:1002A000010001004F01E0024C00010001000100CB
:1002B00001004E0001000100010001000100E0000A
:1002C00001000100010001000100010050010000D7
:1002D0004A00010001000000300200000100460059
:1002E00001000000010000000100010001005000B9
:1002F000010000004D0001004B0051000100010011
:1003000001000100010052000100010001002F0066
:1003100001004F0001000100010030000100010058
:100320000100010001002E00010001000100C25C7B
:1003300000000100010001000100010000000100B7
:1003400001000100010001000100010001000100A5
:100350000100010001000100010001000100010095
:100360000100010001000100010001000100010085
:100370000100010001000000010001000100000077
:100380000100000001000000010000000100000069
:10039000010000000000000000000000010000005B
:1003A000240021001E00000001003800250022006A
:1003B0001F003700270025022600230020003700F9
:1003C00001002D002E022E02380000000100000066
:1003D000000000000000000000000000000000001D
:1003E000000000000000000000000000000000000D
:1003F00000000000000000000000000000000000FD
:1004000000000000000000000000000000000000EC
:1004100000000000000000000000000000000000DC
:1004200000000000000000000000000000000000CC
:1004300000000000000000000000000000000000BC
:1004400000000000000000000000000000000000AC
:10045000000000000000000000000000000000009C
:10046000000000000000000000000000000000008C
:10047000000000000000000000000000000000007C
:10048000000000000000000000000000000000006C
:10049000000000000000000000000000000000005C
:1004A000000000000000000000000000000000004C
:1004B0000000E6A6EAE6A6EAE6A6EAE6A6EAE6A6D8
:1004C000EAE6A6EAE6A6EA00000000000000000056
:1004D000E6A6EAE6A6EAE6A6EAE6A6EA0000000044
:1004E000000000000000000000000000000000000C
:1004F00000000000000000000000000000000000FC
:10050000000000B58899B58899000000B588990069
:100510000000000000000000B58899B58899B588F2
:1005200099B588990000000000000000000000005C
:1005300000000000000000000000000000000000BB
:1005400000000000000000000000000000000000AB
:1005500000000000000000000000B58899000000C5
:10056000000000B58899B58899B58899000000B554
:100570008899000000000000B58899000000000084
:10058000000000000000000000000000000000006B
:1005900055CB9E55CB9E55CB9E00000055CB9E550E
:1005A000CB9E55CB9E55CB9E00000055CB9E55CB88
:1005B0009E55CB9E55CB9E00000055CB9E55CB9EA5
:1005C00055CB9E55CB9E00000055CB9E55CB9E0033
:1005D000000000000000000000000000000000001B
:1005E000000000000000000000000000000000000B
:1005F00000000000000000000000000000000000FB
:1006000000000000000000000000000000000000EA
:1006100000000000000000000000000000000000DA
:1006200000000000010101010101010101020202BB
:10063000020202020203030303030303040404048B
:10064000040505050505060606060607070707084B
:100650000808080909090A0A0A0B0B0B0C0C0C0DF7
:100660000D0D0E0E0E0F0F1010101111121213138C
:100670001414151516161717181819191A1A1B1C01
:100680001C1D1D1E1F1F202121222323242525265A
:10069000272828292A2B2C2C2D2E2F30313132338C
:1006A0003435363738393A3B3C3D3E3F4041424392
:1006B0004445464748494B4C4D4E4F505253545574
:1006C0005758595A5C5D5E606163646567686A6B20
:1006D0006C6E6F7172747677797A7C7D7F8182849B
:1006E0008687898B8D8E9092949597999B9D9FA1DB
:1006F000A2A4A6A8AAACAEB0B2B4B6B9BBBDBFC1E5
:10070000C3C5C8CACCCED0D3D5D7DADCDEE1E3E6A8
:10071000E8EAEDEFF2F4F7F9FCFF05010980A10129
:1007200085031601002603001A81002A8300751034
:1007300095018100C0050C0901A101850416010085
:10074000269C021A01002A9C02751095018100C0A6
:1007500005010906A1018505050719E029E715002E
:1007600025019508750181020508190129059505DE
:10077000750191029501750391010507190029EF93
:100780001500250195F075018102C005010906A13A
:1007900001050719E029E715002501950875018174
:1007A000029501750881010508190129059505754E
:1007B0000191029501750391010507190029FF15A3
:1007C0000026FF00950675088100C009023B000263
:1007D0000100A0FA09040000010301010009211130
:1007E0000100012240000705810308000A090401F5
:1007F000000103000000092111010001227100071E
:1008000005820320000A1201100100000008EDFE1D
:100810000713010001020301040330000000160366
:100820004500720067006F0044006F0078002000F0
:1008300045005A00000016034500720067006F0073
:1008400044006F007800200045005A0000000403B7
:10085000090411241FBECFEFDAE0DEBFCDBF13E0E5
:10086000A0E0B1E0ECE3F3E602C005900D92AE36F5
:10087000B107D9F726E0AEE6B3E001C01D92A6307D
:10088000B207E1F70E94C4180C949C310C9400004C
:100890008F929F92AF92BF92CF92DF92EF92FF9290
:1008A0000F931F93CF93DF93CDB7DEB728970FB683
:1008B000F894DEBF0FBECDBFFC01F08011818381B3
:1008C0009481892B11F40C94310D1F3F29F40FEF03
:1008D000F01611F40C94310D6F0185E0DE011196D4
:1008E00001900D928A95E1F7F601228189819A8122
:1008F000222349F00E94AC23082F682F89819A8116
:100900000E94252403C00E94F823082F26E0129F8E
:10091000F001112434E5039FE00DF11D1124EF0DCA
:10092000F11DEE0FFF1FE65CFE4F05911491F601DD
:1009300082810E3FFCE51F0759F00F3F2CE512079F
:1009400009F446C0023C3CE5130709F09CC062C0B4
:10095000882309F49CC09091840381E0890F8770FB
:10096000987F853020F4892B8093840302C0909374
:100970008403809184038770EFEF8E9FC001112460
:10098000959587959595879599279093890080935C
:10099000880090938B0080938A0090938D008093C1
:1009A0008C0040918403509185036091860370917F
:1009B00087038FE090E00E94932E6091BA057091BA
:1009C000BB058091BC059091BD050E941B115FC0C5
:1009D000882309F45CC08091840383FB222720F9DB
:1009E00091E0922790FB83F980938403992329F067
:1009F00040E060E080E00E94731F409184035091CA
:100A0000850360918603709187038FE090E00E94D8
:100A1000932E3DC0882311F40C94310D9091170151
:100A2000809184039F3F59F4109217018F7E809329
:100A3000840340E060E080E00E94731F06C09FEFE7
:100A400090931701806180938403409184035091B7
:100A5000850360918603709187038FE090E028966C
:100A60000FB6F894DEBF0FBECDBFDF91CF911F91BF
:100A70000F91FF90EF90DF90CF90BF90AF909F903D
:100A80008F900C94932E0115FDE51F07A9F1F60137
:100A90008281882381F0033E2CE5120709F46AC0A5
:100AA00008F05DC0013E8CE5180709F051C01092B6
:100AB00080030E94E92017FFD1C0F60182818111D5
:100AC0005FC00B3CFCE51F0709F41DC108F448C1D9
:100AD000033D9CE5190709F473C308F078C30F3C84
:100AE000FCE51F0709F45AC708F068C70D3C3CE550
:100AF000130739F4F6018281882309F4B2C781E033
:100B000013C00E3C1C4508F40AC1F60182818823FB
:100B100009F4A7C78091FD0586958695825C8F7341
:100B2000833008F459C182E028960FB6F894DEBFEE
:100B30000FBECDBFDF91CF911F910F91FF90EF902E
:100B4000DF90CF90BF90AF909F908F900C947F1FBD
:100B5000023E9CE5190709F0AECF81E00EC0043ECD
:100B6000ECE51E0749F0053EFCE51F0709F0A3CFA1
:100B700084E003C082E001C083E08093800399CFCA
:100B80008091C60580936E031092C6058091800304
:100B9000813071F048F08230D1F08430F1F486EE8B
:100BA0000E945D2D88E117C082EE0E944C2C15C07A
:100BB00084E59DE00E947C2888E10E944C2C88E11D
:100BC0000E94F02B84E49DE00E947C2806C082EE07
:100BD0000E944C2C87E50E945D2D8FE39CE90197D4
:100BE000F1F700C000007801E894F7F85CE0A52E6A
:100BF000B12CC7010A2C02C0969587950A94E2F79A
:100C0000282F2F7041F0822F90E02A3010F44D965B
:100C100004C0069702C087E290E00E945D2D94E038
:100C2000A91AB108ECEFAE16EFEFBE0611F78091EE
:100C30008003813039F040F0823031F0843051F45B
:100C400088E206C08CE204C082EE0E94F02B02C053
:100C50000E945D2D80916E038093C605003FFCE5E8
:100C60001F07B1F180F4083D3CE51307C9F0093DC9
:100C70008CE51807C9F1073D9CE51907C1F526E287
:100C800041EE61EE10C0023FECE51E0749F120F194
:100C9000033F2CE5120759F527E245EE66EE03C047
:100CA00027E245EE65EEC60128960FB6F894DEBF42
:100CB0000FBECDBFDF91CF911F910F91FF90EF90AD
:100CC000DF90CF90BF90AF909F908F900C94322187
:100CD00026E241EE60EEE7CF27E245EE64EEE3CF99
:100CE00026E241EE62EEDFCF28E241E0DBCFF60103
:100CF0008281882319F010926F03E3CE0B3CFCE550
:100D00001F0709F053C2F6018281882309F4A9C69E
:100D10002091010630E1230F08F42FEF0BC0F601FC
:100D20008281882309F49DC62091010630E1231BAE
:100D300008F420E02093010628960FB6F894DEBF51
:100D40000FBECDBFDF91CF911F910F91FF90EF901C
:100D5000DF90CF90BF90AF909F908F900C94771FB3
:100D6000033C3CE51307E9F4F6018281882309F48A
:100D700078C68091C605827279F128960FB6F894EC
:100D8000DEBF0FBECDBFDF91CF911F910F91FF90BE
:100D9000EF90DF90CF90BF90AF909F908F900C948A
:100DA0008B1F043C8CE5180758F1073C9CE519079C
:100DB00009F4A1C508F0ABC5053CFCE51F0709F423
:100DC000B9C508F0C0C5F6018281882309F449C677
:100DD0008091C605827289F228960FB6F894DEBF1C
:100DE0000FBECDBFDF91CF911F910F91FF90EF907C
:100DF000DF90CF90BF90AF909F908F900C94A11FE9
:100E000006319CE5190708F086C10230ECE51E07A3
:100E100008F429C1F6018281882309F436C20E94B0
:100E20009122811102C00E949C220E9480229093F4
:100E30009703809396030F30FCE51F0709F4CDC09C
:100E400008F042C008303CE5130709F4A8C0F0F4EC
:100E500004309CE5190709F490C068F40230FCE501
:100E60001F0709F486C003301C4509F0D9C08091E2
:100E700096038260D3C006303CE5130709F487C0AF
:100E800008F089C0809196038860C8C00B309CE54B
:100E9000190709F493C068F40930FCE51F0709F449
:100EA00082C00A301C4509F0BBC08091960388605F
:100EB0007EC00D303CE5130709F484C008F085C0FE
:100EC000809196038D7FAAC0073F9CE5190709F41E
:100ED00057C050F50231FCE51F0709F486C068F4DD
:100EE00000313CE5130709F47CC001311C4509F0D1
:100EF00097C0809196038F7B91C004319CE51907C0
:100F000009F483C008F475C005311C4509F088C098
:100F10008091960382FB222720F991E0922790FB93
:100F200082F990FB83F97AC00A3F2CE5120709F495
:100F300050C058F4083F8CE5180729F1093F1C45BB
:100F400009F06EC0809197035CC00C3FECE51E0772
:100F500009F454C070F10D3F1C4509F061C0809147
:100F60009703982F909591708E7F892B90FB81F934
:100F700049C080919603816051C08091960317C04B
:100F80008091970319C08091970382603BC0809144
:100F90009603806143C08091960380623FC0809138
:100FA000960380643BC080919603806837C084605C
:100FB00035C0809197038260816024C08091960340
:100FC0008E7F2CC08091960317C080919603877FF7
:100FD00025C0809197038D7F15C0809196038F7EE9
:100FE0001DC0809196038F7D19C0809196038F77E5
:100FF00015C080919603877F8B7F10C080919703E7
:101000008D7F8E7F809397030BC08091960387FB23
:10101000222720F991E0922790FB87F9809396038D
:10102000609196031091970384E090E00E94812ED6
:10103000612F81E290E00E94812E1092C6052896D1
:101040000FB6F894DEBF0FBECDBFDF91CF911F91D9
:101050000F91FF90EF90DF90CF90BF90AF909F9057
:101060008F900C94C82B0115FCE51F0709F044C0B4
:10107000F6018281882309F4F4C41092C6050E9407
:10108000C82BFFEF04E31CE0F15000401040E1F7F3
:1010900000C00000F89481E08093E00080E280933B
:1010A000D8001092C9008FE19EE40197F1F700C0CB
:1010B00000001DBA109268001CBC10BE1FBA10922E
:1010C0007A0010926E0010926F00109271001092D0
:1010D00072001092C9001092BC0014B817B81AB868
:1010E0001DB810BA1092BC0015B818B81BB81EB8BD
:1010F00011BA0C94003FB5C401301C4509F0C5C0BD
:10110000F6018281882309F4ACC48091AA0381602E
:101110008093AA03A6C406313CE51307A9F5909174
:10112000C605F6018281882381F09A7A81E009F46C
:1011300080E080937003811102C069E201C065E321
:1011400089E295E00E9448220BC0809170038111D2
:1011500002C069E201C065E389E295E00E941D22B8
:1011600028960FB6F894DEBF0FBECDBFDF91CF91AA
:101170001F910F91FF90EF90DF90CF90BF90AF90B5
:101180009F908F900C946623023C1C4509F07DC013
:10119000F6018281882309F464C49091FD0581E001
:1011A00089278093FD0510920601C6CD0C3C2CE5E5
:1011B000120708F479C0033D9CE5190709F0E8C35C
:1011C000F6018281882309F44CC488E1ADCC0D3D41
:1011D000FCE51F0749F4F6018281882309F441C424
:1011E00082E080937D033DC40E3D2CE5120750F54F
:1011F000053D3CE5130739F4F6018281882309F4A3
:1012000030C483E291CC053D8CE5180780F4F601EB
:101210008281882309F425C48091FD0586958695F1
:10122000895D8F73893008F4D7CD89E17DCC0C3D81
:101230001C4559F5F6018281882309F412C41092E5
:101240007D030FC40E3DECE51E07C9F4F601828153
:10125000882309F406C428960FB6F894DEBF0FBEA3
:10126000CDBFDF91CF911F910F91FF90EF90DF9055
:10127000CF90BF90AF909F908F900C949C22C8010C
:10128000875F9C45079708F4C5CDF60182810081F0
:101290001181882331F1C8010E94AC23F82E682FF8
:1012A000C8010E94252421C0033C3CE5130709F432
:1012B0005BCD08F07ACD06319CE5190708F011C323
:1012C0000230ECE51E0708F0A5CD0115FCE51F076F
:1012D00009F4CECE01301C4509F412CFF60100818D
:1012E0001181C8010E94F823F82EB8018F2D0E94A9
:1012F000A20E182F382FF601258122952F7002811A
:1013000001111092C0058091BE058770A9F00023DD
:1013100099F080E2810F883078F082E02F8338875F
:101320009E830E9486248091BE058770EE24E394FC
:101330002F8138859E818111E12CA92EA2944FE046
:10134000A422B12CFCE0AF16B10408F097C2F5015D
:10135000EA5AFF4F0C946930892F807F9F70F92ED5
:10136000882319F0F29480EFF8220023B9F0FF20CF
:1013700009F415C280E2810F883010F0311106C0E7
:101380009091C605F92AF092C60505C09091C00556
:10139000F92AF092C0050E94662301C2812F388786
:1013A0000E94F02B3885FF2009F468C2105EF0948B
:1013B000183010F0311106C09091C605F922F09254
:1013C000C60505C09091C005F922F092C0050E94A3
:1013D000662354C2492F407F892F8F70403211F00D
:1013E0008295807F332319F03130E9F025C0002346
:1013F00081F03091C105222351F0213041F4982F22
:10140000932B391709F43AC29093C10537C2832B45
:1014100017C0222319F0213009F430C28E830E94B4
:1014200060238E811DC0002321F0223008F026C2E7
:1014300007C0211123C214C0002329F02111AFC11C
:101440000E94E62B1BC2222359F0193309F0B9C1BF
:101450000FEF27EE33E0015020403040E1F7AFC1FD
:101460000E94DB2B0BC2292F26952695237030E096
:101470002115310521F02130310559F0FFC100233C
:1014800019F0812F937002C080E090E00E94441F09
:10149000FEC1002319F0812F937002C080E090E01C
:1014A0000E942E1FF4C1892F837009F070C00111B2
:1014B000ECC1812F829586958770880F880F412F08
:1014C0004F7050E060E070E04A015B01082E04C0FC
:1014D000880C991CAA1CBB1C0A94D2F714FF12C0DA
:1014E0000FE010E020E030E004C0000F111F221FC9
:1014F000331F8A95D2F7B901A801409550956095A0
:10150000709503C040E050E0BA01969596959370AF
:10151000892F90E08230910529F183309105C9F03F
:101520000091C2051091C3052091C4053091C505F5
:10153000019759F0482959296A297B29CB01BA0119
:1015400060237123822393230AC0802A912AA22A2E
:10155000B32ACB01BA01682979298A299B290E94DB
:10156000C02493C1482959296A297B298091C20541
:101570009091C305A091C405B091C5058A019B0156
:10158000082719272A273B27C901B801E8CF0023DC
:1015900019F0892F817001C08695882309F475C1DF
:1015A000812F829586958770880F880F412F4F7005
:1015B00050E060E070E04A015B01082E04C0880C36
:1015C000991CAA1CBB1C0A94D2F714FF12C00FE08E
:1015D00010E020E030E004C0000F111F221F331F75
:1015E0008A95D2F7B901A8014095509560957095FC
:1015F00003C040E050E0BA01969596959370892F0C
:1016000090E082309105E9F08330910579F1009105
:10161000BA051091BB052091BC053091BD0501971D
:1016200059F0482959296A297B29CB01BA0160233D
:1016300071238223932320C0802A912AA22AB32ACD
:1016400015C0482959296A297B298091BA059091AA
:10165000BB05A091BC05B091BD058A019B0108277F
:1016600019272A273B27C901B80106C0CB01BA01B7
:10167000682979298A299B290E94552406C19F70CF
:10168000F92E002339F0892F0E949F24812F0E9478
:10169000E62BFBC0812F0E94DB2B8F2D0E94612443
:1016A000F4C0812F323FC9F128F4303F49F0313F77
:1016B00079F170C0333FC1F1343F09F44DC06AC0C5
:1016C000002311F12111DAC0292F2F7181E090E060
:1016D000A0E0B0E0AC01BD0104C0440F551F661F7F
:1016E000771F2A95D2F78091BA059091BB05A091FA
:1016F000BC05B091BD058A019B01082719272A273F
:101700003B27C901B80125C0223008F0B7C0DCCFA3
:10171000002329F0892F8F712EC00023D9F3892F40
:101720008F710E946124AAC0002381F0292F2F719C
:1017300081E090E0A0E0B0E0BC01CD0104C0660F04
:10174000771F881F991F2A95D2F703C060E070E0C9
:10175000CB010E94552492C0002381F0192F1F71E4
:10176000812F0E949F2428E0129FC00111248360D2
:101770008093BE05812F0E949F2480C081E02F832B
:101780000E9486242F81223008F478C082E00E94D3
:10179000862474C0002339F0222309F4BBCF812FA3
:1017A0000E944C2C6BC0222309F4B9CF893349F431
:1017B0003FEF87EE93E0315080409040E1F700C06A
:1017C0000000812F0E94F02B59C0323FB1F028F465
:1017D000303F49F0313FF9F028C0343FB9F058F0BC
:1017E000353F71F022C0002309F451C090914A05A1
:1017F00081E0892708C081E0082700934A0547C097
:10180000011145C081E080934A0541C001113FC0EC
:1018100010924A053CC0002329F080914905882395
:1018200029F329C0222311F332C0809149052223D4
:10183000C1F0882341F090914A0581E08927809387
:101840004A0510924905812F002319F00E944C2C63
:101850001EC00E94F02B86E0F60111928A95E9F7EE
:1018600016C08823A1F0011112C090914A0581E0B1
:10187000892780934A051092490509C0F8E0AF1AFC
:10188000B10804E0A016B10410F40E945A1FEE2023
:1018900009F4E7C08091BE0580FDE3C0F601128225
:1018A0008595859585950E949F24C6010E944804D0
:1018B0008091BE0585958595859528960FB6F894F7
:1018C000DEBF0FBECDBFDF91CF911F910F91FF9073
:1018D000EF90DF90CF90BF90AF909F908F900C943F
:1018E000612406313CE5130709F419CC023C1C4580
:1018F00009F44ECCF3CCF6018281882309F4B1C0FF
:101900002091FF0530E1230F08F42FEF10C0093CB0
:101910003CE5130719F170F5F6018281882309F47B
:10192000A0C02091FF0530E1231B08F420E02093A4
:10193000FF0502CAF6018281882309F492C08091D2
:10194000FE05885F08C0F6018281882309F489C0FA
:101950008091FE0588508093FE05EEC9F6018281D4
:10196000882309F47EC02091000630E1230F08F49B
:101970002FEF0BC0F6018281882309F472C02091F9
:10198000000630E1231B08F420E020930006D4C9B0
:10199000043DECE51E0708F4A2C845C0F6018281AB
:1019A000882309F45EC08091FD0586958695865C46
:1019B0008F73823008F410CA86E0B6C8013D9CE5FA
:1019C000190781F4F6018281882309F44AC08091C5
:1019D000FD05869586958F5C8F73853008F4FCC96C
:1019E0008FE0A2C8023D1C4578F4F601828188236D
:1019F000C1F18091FD0586958695895C8F73853050
:101A000008F4EAC989E090C8F6018281882349F187
:101A10008091FD0586958695855D8F73823008F4EB
:101A2000DBC985E181C80D3DFCE51F0709F4D3CB77
:101A300060F4053D3CE5130709F4DECB08F4E7CB81
:101A40000C3D1C4509F4F6CB49CC0E3DECE51E07D8
:101A500009F4FCCBC801875F9C45079708F4DAC9F5
:101A60003DCC28960FB6F894DEBF0FBECDBFDF91F8
:101A7000CF911F910F91FF90EF90DF90CF90BF908B
:101A8000AF909F908F900895282F277081E090E06D
:101A900001C0880F2A95EAF780959091C0058923A7
:101AA0008093C0050C946623282F277081E090E076
:101AB00001C0880F2A95EAF79091C005892B809381
:101AC000C0050C9466233F924F925F926F927F9273
:101AD0008F929F92AF92BF92CF92DF92EF92FF923E
:101AE0000F931F93CF93DF9320E9289F7001299FC5
:101AF000F00C1124C0E0D0E000E010E067018FEFAF
:101B0000C81AD80A570182E0A80EB11CFE01EE0DDA
:101B1000FF1DE652FC4F6491F601EC0FFD1FE652EB
:101B2000FC4F7491F501EC0FFD1FE652FC4F8491C0
:101B3000611107C0711105C0811103C020E040E0B0
:101B400042C00E945020962E372E882E60910006AB
:101B500070E080E090E00E94462F20E030E04FE708
:101B600053E40E94A52E2B013C01682D70E080E01B
:101B700090E00E94482F9B01AC01C301B2010E947A
:101B8000D42F0E94172F862E692D70E080E090E000
:101B90000E94482F9B01AC01C301B2010E94D42FC7
:101BA0000E94172F962E632D70E080E090E00E9437
:101BB000482F9B01AC01C301B2010E94D42F0E94A7
:101BC000172F282D492DC8010E94751F0F5F1F4F29
:101BD0002396C039D10509F099CFDF91CF911F919C
:101BE0000F91FF90EF90DF90CF90BF90AF909F90BC
:101BF0008F907F906F905F904F903F900895CF931C
:101C0000E82F873080F58091090190910A01892B96
:101C100009F047C0CE2F64E670E080E40E94762D84
:101C200090930A0180930901892BD1F464E670E056
:101C300082E10E94CD2D90930A0180930901892BA6
:101C400079F481E090E001C0880FCA95EAF764E674
:101C500070E080950E94CD2D90930A018093090138
:101C6000CF910C94492E90E0FC013797E730F105B5
:101C7000C0F4EE59FF4F0C946930209A289811C097
:101C8000219A29980EC0229A2A980BC0239A2B9841
:101C900008C0529A5A9805C0539A5B9802C03E9A5F
:101CA0004698CF910895CF93873008F03FC0809138
:101CB000090190910A01892B09F041C064E670E0A6
:101CC00080E40E94762D90930A0180930901892B6C
:101CD00011F0C0E027C064E670E083E10E94CD2DE2
:101CE00090930A0180930901892B99F764E670E0CB
:101CF00081E40E94762D90930A0180930901892B3B
:101D000041F784E690E00E94FD2D97FF05C0909377
:101D10000A0180930901DDCFC82FC09510920A01F6
:101D2000109209010E94492E8C2F0AC09FB18FB1D9
:101D3000807F869586959370892B809501C080E081
:101D4000CF910895CF93DF9326E0729FF001112485
:101D500034E5839FE00DF11D1124E60FF11DEE0F18
:101D6000FF1FE65CFE4FC591D491CE01C238D1056C
:101D700069F1B0F4C133D10509F475C048F4C93232
:101D8000D10509F469C0CA32D10509F473C079C01C
:101D9000C533D10509F459C0C933D105B9F071C0B3
:101DA000C33ED10571F138F4C03ED105B1F0C23E59
:101DB000D10511F166C0C63ED105B9F1C73ED105C6
:101DC000C9F1C43ED10509F05CC024C0209196033E
:101DD00020FD29C221FD27C22BC22091960320FDA0
:101DE0001CC22091970320FF23C28091960384FD9B
:101DF000C6C183EE90E01CC22091960322FF18C258
:101E0000F4CF8091960382FD0BC28091970380FDF1
:101E10000AC2EBCF2091970321FF0AC2809196035B
:101E200084FDADC187EE90E003C22091960323FFAD
:101E3000FFC1F4CF8091960383FDF8C18091970391
:101E400081FFECCF84EE90E0F3C12091960325FF53
:101E5000EFC189E290E0ECC12091960325FFE8C133
:101E600085E390E0E5C12091960326FFE1C18AE277
:101E700090E0DEC12091960326FFDAC181E390E075
:101E8000D7C1C11540E5D40708F047C0C11520E40B
:101E9000D20708F034C1C83ED10518F5C03ED105BF
:101EA00008F0C6C1C83AD10570F4C53AD10508F0AA
:101EB000B1C0C130D10509F4BBC108F460C1249799
:101EC00008F45DC1B5C1CF3BD10508F4AEC0C03C3C
:101ED000D10508F454C1FE01EE0FFF1FE656FB4F7B
:101EE00003C1C11530E2D30760F4C11541E0D40746
:101EF00008F09EC1C03FD10508F441C1CE019065F4
:101F000097C1C11580E3D80708F0F1C0FE01FF704A
:101F1000EE0FFF1FE65EF94FE7C0C11595E5D90743
:101F200008F044C0C11524E5D20708F002C1C1156C
:101F300032E5D30710F5C11541E5D40708F0E4C038
:101F40008C2F837021E030E002C0220F331F8A956E
:101F5000E2F73C68CE0174E0969587957A95E1F7B3
:101F60008370382BEC2FEF70E695E69540E2E49F06
:101F7000C0011124822B932B5BC12C2F2695269513
:101F8000AE0143705527C115D34508F0C3C080E2A8
:101F9000289F9001112481E090E002C0880F991FD2
:101FA0004A95E2F7822B932B9C6842C1C1159AE5B2
:101FB000D907A8F4C11529E5D20708F0C9C0C11591
:101FC00036E5D30708F4BBC0C11548E5D40708F4CB
:101FD000D6C0FC2FEE27CF01806F906A29C1C115B2
:101FE0008BE5D80708F4CBC0C1159CE5D90708F4E8
:101FF000C2C0CE0190568115904208F0C0C08D2F0E
:102000008F710E94EF20FE01FF27F0628F719F0108
:10201000382BAFC0C53AD10509F4B4C0C63AD105D2
:1020200009F0B3C082E890E403C1C83AD10509F4CD
:10203000AFC0C93AD10509F4AEC0CA3AD10509F416
:10204000ADC0CB3AD10509F4ACC0CC3AD10509F406
:10205000ABC0CB3BD10509F4AAC0CC3BD10509F4F8
:10206000A9C0CD3AD10509F4A8C0C03BD10509F4F7
:10207000A7C0CE3AD10509F4A6C0CF3AD10509F4DC
:10208000A5C0C13BD10509F4A4C0C23BD10509F4E8
:10209000A3C0C33BD10509F4A2C0C43BD10509F4D8
:1020A000A1C0C53BD10509F4A0C0C63BD10509F4C8
:1020B0009FC0C73BD10509F49EC0C83BD10509F4B8
:1020C0009DC0C93BD10509F49CC0CD3BD10509F4A5
:1020D0009BC0CE3BD10509F49AC0CA3BD10509F497
:1020E00099C080E094E4A4C085919491A1C0CE01F0
:1020F0009927D3FF02C0986C9BC0906C99C0FE01D9
:10210000FF70CF01906A94C0FC2FEE27CF01816F42
:10211000906A8EC090E2299F9001112481E090E0A6
:1021200002C0880F991F4A95E2F7822B932B9A6879
:102130007FC0FC2FEE27CF01846F906A79C08C2F6F
:102140000E94EF208F7190E0982F8827906270C0D6
:102150008C2F8F700E94EF20FE0194E0F695E7959A
:102160009A95E1F7EF70F0E0FE2FEE27F0699F01FE
:10217000282BC9015DC0CE019927906659C080E027
:1021800090E056C081E890E453C083E890E450C0EA
:1021900082EE94E44DC089EE94E44AC08AEE94E461
:1021A00047C085EB94E444C086EB94E441C083EBE4
:1021B00094E43EC084EB94E43BC087EB94E438C0E5
:1021C0008CEC94E435C08DEC94E432C083E895E463
:1021D0002FC08AE895E42CC082E995E429C084E9FF
:1021E00095E426C081E296E423C083E296E420C011
:1021F00084E296E41DC085E296E41AC086E296E485
:1022000017C087E296E414C08FE694E411C080E71B
:1022100094E40EC08AE296E40BC089E390E008C023
:1022200082EE90E005C080EE90E002C086EE90E085
:10223000DF91CF910895CF92DF92EF92FF926B01E1
:102240007C010E94102356985E9825982D98269818
:102250002E9827982F9890E0FC013197E730F105F0
:10226000A8F4E759FF4F0C946930259A2D9A0EC0B7
:10227000259A2D9A269A2E9A09C0259A2D9A04C03D
:10228000259A2D9A269A2E9A279A2F9AC701B60137
:10229000FF90EF90DF90CF90089580E290E09093D0
:1022A0000A01809309018091780381110EC00E9478
:1022B000702D81E0809378032FEF83ED90E3215020
:1022C00080409040E1F700C0000064E670E080E4E8
:1022D0000E94762D90930A0180930901892B09F0C1
:1022E0004EC064E670E080E00E94CD2D90930A011C
:1022F00080930901892B09F042C064E670E080E018
:102300000E94CD2D90930A0180930901892BB9F584
:1023100064E670E08FE30E94CD2D90930A018093D4
:102320000901892B61F50E94492E64E670E080E482
:102330000E94762D90930A0180930901892BF9F46C
:1023400064E670E08CE00E94CD2D90930A018093AA
:102350000901892BA1F464E670E080E00E94CD2D94
:1023600090930A0180930901892B49F464E670E097
:102370008FE30E94CD2D90930A01809309010E9462
:10238000492E809109010895CF93DF9356985E9866
:1023900025982D9826982E9827982F98C8E8D0E051
:1023A0008FEF90E099838883AAE8B0E011969C9320
:1023B0008E93ECE8F0E091838083259A2D9A2FEF9D
:1023C00080E792E0215080409040E1F700C000009B
:1023D000269A2E9A2FEF80E792E02150804090407D
:1023E000E1F700C00000279A2F9A2FEF80E792E0D4
:1023F000215080409040E1F700C0000025982D98C2
:102400002FEF80E792E0215080409040E1F700C03C
:10241000000026982E982FEF80E792E02150804010
:102420009040E1F700C0000027982F988091840326
:1024300087702FEF829FC001112495958795959500
:10244000879599279983888311969C938E9391837E
:10245000808356985E9825982D9826982E982798D0
:102460002F98DF91CF91089584B1807F84B985B191
:10247000807F85B98AB1837F8AB98BB1837F8BB91D
:102480003E984698089580B38C7080BB81B3836F6B
:1024900081BB08954F925F926F927F928F929F922D
:1024A000AF92BF92CF92DF92EF92FF920F931F9362
:1024B000CF93DF931F92CDB7DEB780910901909142
:1024C0000A01892B91F0809177038F5F80937703C6
:1024D00081110BC00E944D1190E090930A018093EE
:1024E0000901892B11F40E94C41138E8E32E33E06E
:1024F000F32E4FE8C42E43E0D42E5701912C10E068
:1025000007E0090D892D0E94FF0D802F0E94FF0D0D
:10251000892D0E94530ED5019C91981721F08C9320
:102520008824839401C0812C802F0E94530EF601D1
:102530009081981719F0808381E001C080E088299C
:10254000182B0E9434129394FFEFAF1ABF0A2FEF9B
:10255000C21AD20A37E09312D3CF0E94E8216AEF61
:1025600070E00E944130BC01482F809172038823A3
:10257000D9F110927203E0917E03F0917F03DF01A5
:102580001E9690E08BEF2AEFA22EB12C20812B3FDC
:1025900099F0C22ED12C421720F09B012C193D0935
:1025A00005C095012C193D09260F371F2F30310525
:1025B00014F0808301C091E03196EA17FB0731F7F0
:1025C00090937203111102C0911110C01092710307
:1025D00060917E0370917F0390917203EBE9F3E0C9
:1025E00080E03EE03E0F32C01111F0CF80917103C8
:1025F0008111ECCF60917303709174038091750326
:10260000909176030E9498182FB7F894C0907903A0
:10261000D0907A03E0907B03F0907C032FBFC092B0
:102620007303D0927403E0927503F09276034090A6
:10263000F9055090FA056090FB057090FC05AFEF2E
:102640004A165A066A067A06D1F43AC0D7012D9185
:102650007D015081521749F0DB015C915B3F21F411
:102660004C93208391E001C081E06F5F7F4F3196F2
:102670003E13ECCF9093720380937103BBCFAB01F9
:10268000BC01662777274A015B0180949094A0944F
:10269000B09484149504A604B70420F48FEF9FEF40
:1026A000DC0106C0DB01CA01840D951DA61DB71D06
:1026B0008093F9059093FA05A093FB05B093FC0570
:1026C000B090BA03B11009C09091FD05892F8370B5
:1026D00021F0A92EA694A69401C0A12C80910601F8
:1026E0008130A1F038F0823009F450C1833009F410
:1026F0005AC16AC110921601C092F505D092F60532
:10270000E092F705F092F80581E04AC18091080156
:10271000A81210C08091FD05837090E02091070100
:1027200030E051E040E08217930709F450E0252F94
:10273000342F02C021E030E0822F81708093180195
:102740008A2D90E08531910508F00EC1FC01E05919
:10275000FF4F0C94693090911601232B09F404C1AA
:10276000F92EFF0CFF0CF90E05E00F0D013308F0F8
:1027700000E3F01608F0B9C020E040E060E08F2DE3
:1027800090E00E94751FF394F4CF90911601D92E1A
:10279000DD0CDD0CD90E05E00D0D013308F000E372
:1027A0006091FE057091FF05809100060E94502007
:1027B000F62EE82ED01608F098C0ED2DF0E0DF01DF
:1027C000A35CBC4F8C9190911701982341F02E2D62
:1027D0004F2D672FCF0179830E94751F7981D39484
:1027E000E9CF80911601982E990C990C980E05E06E
:1027F000090D013308F000E3D090FF05C0900006FA
:102800002091010630E4329F312D1124901608F0FA
:102810006CC0E92CF12CF701E35CFC4F80819091B6
:1028200017019823C9F0F701EE0FFF1FE252FD4F89
:10283000908192959F706091FE05399F600D1124E3
:102840007D2D8C2D39830E945020462F282F672FF5
:10285000C7010E94751F39819394D8CF80911601CA
:10286000D82EDD0CDD0CD80E05E00D0D013308F07F
:1028700000E3F090FE057091FF05E0900006809166
:102880000106682F6695669566958091F50590918D
:10289000F60579830E9445200E94C31F8058982F17
:1028A00097FD9195990F292F3E2D239F212D1124BE
:1028B0006F2D7981822F0E945020F62EE82ED0169F
:1028C000A0F4ED2DF0E0DF01A35CBC4F8C91909162
:1028D0001701982341F02E2D4F2D672FCF017983BB
:1028E0000E94751F7981D394EACF81E00033E8F12B
:1028F0003BC083EF9BE11AC087EC9BE117C08CECD7
:102900009CE11FC08DEA9CE11CC082E99CE11EC0D5
:1029100087E79CE11BC085EC9BE108C08CEB9BE149
:1029200005C083EB9BE102C088E99BE10E9432284D
:102930001CC089E89BE10AC086E190E202C086E6FD
:102940009CE10E94D62711C082E59CE10E945A2793
:102950000CC08BE59BE105C089E29BE102C08BEED8
:102960009AE10E94F92601C080E0909116019F5FD4
:1029700090931601811128C082E080930601809116
:102980001801811121C0AA2051F01EC0A092080197
:102990008091FD058370809307010E941C1D83E0D8
:1029A0008093060111C06091F5057091F605809144
:1029B000F7059091F8050E9498186A317105810514
:1029C000910510F010920601B1102BC08091BA034E
:1029D000811127C08091840383FD23C06091BA05D3
:1029E0007091BB058091BC059091BD050E9410239C
:1029F000823039F0833041F0813059F481E090E049
:102A000005C082E090E002C083E090E00E94630D88
:102A100008C080911701811104C040E060E00E946D
:102A2000731F812F0F90DF91CF911F910F91FF9016
:102A3000EF90DF90CF90BF90AF909F908F907F905E
:102A40006F905F904F900895E8EDF0E080818E7F69
:102A500080831092E2001092DA001092E100A0EE62
:102A6000B0E08C9181608C9380818F77808319BCDA
:102A7000A7EDB0E08C918E7F8C9380818F7E8083D8
:102A80001092B903089508958091C8050895CF93D1
:102A9000DF9300D01F92CDB7DEB79C0190917D03EC
:102AA000911105C08091EB05843049F504C0923046
:102AB00011F0943021F584E089833B832A8382E0FE
:102AC0008093E9008FEF9091E800815095FD06C05A
:102AD00095ED9A95F1F700008111F5CF8091E8000E
:102AE00085FF0DC040E050E063E070E0CE0101964C
:102AF0000E9487288091E8008E778093E8000F90ED
:102B00000F900F90DF91CF910895CF93DF9300D076
:102B10001F92CDB7DEB72091EB05243031F523E0CD
:102B20002983805891099B838A8382E08093E900FE
:102B30008FEF9091E800815095FD06C095ED9A9534
:102B4000F1F700008111F5CF8091E80085FF0DC0FD
:102B500040E050E063E070E0CE0101960E948728DB
:102B60008091E8008E778093E8000F900F900F908F
:102B7000DF91CF910895CF93DF9320917D032111B1
:102B800003C02091EB0502C0223011F02430E1F5A2
:102B900020911501222339F02091960327FF03C0CD
:102BA00060E222E002C068E021E02093E9002FEF1C
:102BB0003091E800215035FD06C035ED3A95F1F72A
:102BC00000002111F5CF2091E80025FF1DC0EC0188
:102BD00080911501811105C040E050E068E070E08F
:102BE00003C070E040E050E0CE010E948728809151
:102BF000E8008E778093E80080E2FE01A9ECB5E062
:102C000001900D928A95E1F7DF91CF9108951F927F
:102C10000F920FB60F9211242F933F934F935F9310
:102C20006F937F938F939F93AF93BF93CF93DF93D4
:102C3000EF93FF93C091E900CF708091EC00D82F03
:102C4000D17080FDD0E81092E9008091F000877F7C
:102C50008093F00078940E94BE281092E900809141
:102C6000F00088608093F000CD2BCF70C093E90016
:102C7000FF91EF91DF91CF91BF91AF919F918F9194
:102C80007F916F915F914F913F912F910F900FBE68
:102C90000F901F9018952091E4003091E50095E683
:102CA0004091EC00842F817040FF22C08091E800A9
:102CB00080FD1CC08091EB05882391F0853091F058
:102CC0008091EB0085FD10C04091E4005091E5003B
:102CD0004217530729F39A01915011F784E00895A0
:102CE00082E0089583E0089581E0089580E00895EA
:102CF0004091E80042FFDECF08958091ED0587FF07
:102D000011C08091E80082FD05C08091EB05811122
:102D1000F8CF11C08091E8008B770BC08091EB0554
:102D2000882349F08091E80080FFF8CF8091E80087
:102D30008E778093E8000895982F973058F59093F8
:102D4000E900981739F07091EC002091ED00509156
:102D5000F00003C0242F762F50E021FF19C03091DE
:102D6000EB003E7F3093EB003091ED003D7F3093E0
:102D7000ED003091EB0031603093EB007093EC008C
:102D80002093ED005093F0002091EE0027FF07C044
:102D90009F5FD3CF8F708093E90081E0089580E03A
:102DA0000895CF92DF92EF92FF920F931F93CF93EC
:102DB000DF93C8EDD0E088818F7E8883E7EDF0E077
:102DC00080818160808384E082BF81E08093B90349
:102DD00088818E7F888302EE10E0F80110821092C5
:102DE000DA0081EEC82ED12CF601108288818F770F
:102DF000888388818068888388818F7D888319BCD7
:102E00001092EB051092EC051092EA051092E9057C
:102E100090EEE92EF12CF70180818B7F80838881F1
:102E20008160888342E060E080E00E949C16F601A9
:102E300080818E7F8083F8018081816080838081A2
:102E400088608083F70180818E7F808388818061A4
:102E50008883DF91CF911F910F91FF90EF90DF90CA
:102E6000CF9008951F920F920FB60F9211242F93B7
:102E70003F934F935F936F937F938F939F93AF9302
:102E8000BF93EF93FF938091E10082FF09C080918F
:102E9000E20082FF05C08091E1008B7F8093E1001A
:102EA0008091DA0080FF2AC08091D80080FF26C080
:102EB0008091DA008E7F8093DA008091D90080FFC4
:102EC00018C080E189BD82E189BD09B400FEFDCF53
:102ED00081E08093EB058091B90381110FC00E94BE
:102EE00024150E94D1168091E20084608093E20054
:102EF00005C019BC1092EB051092B9038091E10056
:102F000080FF17C08091E20080FF13C08091E20033
:102F10008E7F8093E2008091E20080618093E200E6
:102F20008091D80080628093D80019BC85E080939E
:102F3000EB058091E10084FF36C08091E20084FFC0
:102F400032C080E189BD82E189BD09B400FEFDCFB8
:102F50008091D8008F7D8093D8008091E1008F7E92
:102F60008093E1008091E2008F7E8093E200809167
:102F7000E20081608093E2008091EC05882311F0EB
:102F800084E007C08091E30087FD02C081E001C0BA
:102F900083E08093EB051092C6050E94C82B0E9427
:102FA0005A1F1092BA038091E10083FF27C08091DD
:102FB000E20083FF23C08091E100877F8093E100DE
:102FC00082E08093EB051092EC058091E1008E7F0A
:102FD0008093E1008091E2008E7F8093E2008091F7
:102FE000E20080618093E20042E060E080E00E94C5
:102FF0009C168091F00088608093F000FF91EF9123
:10300000BF91AF919F918F917F916F915F914F9100
:103010003F912F910F900FBE0F901F901895209108
:10302000F3053091F4052617370748F0611571054F
:1030300039F42091E8002E772093E80001C0B9010F
:1030400040E061157105A9F12091EB05222309F4F7
:1030500043C0253009F442C02091E80023FD40C060
:103060002091E80022FD32C02091E80020FFE9CF46
:103070004091F3002091F20030E0342BFC01CF01AD
:103080006115710559F02830310540F48191809324
:10309000F100615071092F5F3F4FF1CF41E02830BF
:1030A000310509F040E02091E8002E772093E800F8
:1030B000C8CF4111C9CF0AC08091EB05882361F0C8
:1030C000853061F08091E80083FD0AC08091E800BE
:1030D00082FFF2CF80E0089582E0089583E00895B2
:1030E00081E0089578941F920F920FB60F921124E9
:1030F0008F939F93AF93BF938091790390917A03BD
:10310000A0917B03B0917C030196A11DB11D80931A
:10311000790390937A03A0937B03B0937C03BF91D0
:10312000AF919F918F910F900FBE0F901F901895A8
:10313000CF92DF92EF92FF920F931F932FB7F894E5
:10314000C0907903D0907A03E0907B03F0907C03E9
:103150002FBF97018601061B170B280B390BC616CC
:10316000D706E806F90618F0C901B80106C0C9017A
:10317000B80161507109810991091F910F91FF9068
:10318000EF90DF90CF900895CF93DF93CDB7DEB768
:103190002A970FB6F894DEBF0FBECDBF84B7877FE6
:1031A00084BF0FB6F894A8958091600088618093E1
:1031B0006000109260000FBE80E880936100109262
:1031C000610085B7806885BF85B7806885BF0E942C
:1031D00024150E94D1168091E20084608093E20061
:1031E00078948091EB058823A1F01091E9001F707D
:1031F0009091EC00892F817090FD80E8182B10923F
:10320000E9008091E80083FD0E94BE281F701093A2
:10321000E90082E084BD93E095BD9AEF97BD80936D
:103220006E000E944D1190E090930A018093090175
:103230000E9434120E944312A8E8B3E0EBE9F3E0E5
:103240006EE0F62EFE0E11921D92FE12FCCF8EE065
:1032500090E00E946F3080937E0390937F03FC0187
:103260000E962BEF2193E817F907E1F70E949122C0
:10327000811102C00E949C220E94891D0E949122FD
:10328000811104C00E949C220E94B71F45E050E0BB
:103290006CE170E08DEF95E00E944D2E8091FD0570
:1032A0008C7F11F40E94B71F8CE090E00E945D2E8D
:1032B00090E0A0E0B0E08093800390938103A0931E
:1032C0008203B093830389EA8093800089E080932E
:1032D000810024982C983F988AB18F7C8AB96E9887
:1032E000479A8BB180638BB9769A8FE090E00E9409
:1032F000652E609384037093850380938603909377
:10330000870367708FEF869FB001112475956795CD
:1033100075956795772770938900609388007093FF
:103320008B0060938A0070938D0060938C00909165
:10333000840394FF03C08093170102C01092170109
:103340000E94C4110E949122811102C00E949C22FD
:1033500082E090E00E945D2E8093AA030E9480226A
:10336000909397038093960383E090E00E945D2EF4
:10337000682F70E080E090E00E94C0240E94661FE9
:103380000E94661F0E94771F8BE091E09093990343
:103390008093980399249A94CC24C394D12CEE243E
:1033A000E39490E1592E22E1422E38E1A32EB12C74
:1033B00040E4842E8091EB05853009F052C040E056
:1033C00060E080E00E94731FE092BA038091EB05F9
:1033D000843041F110929A030FB6F894A895A09208
:1033E00060000FBE8092600040E060E080E00E94DC
:1033F000731FE092BA0383B7817F846083BF83B772
:10340000816083BF7894889583B78E7F83BF0FB622
:10341000F894A89580916000886180936000109274
:1034200060000FBE8091EA05882309F4C3CF0E9493
:103430004D1190E090930A01809309010E9434128B
:103440000E944312EBE9F3E01192FE12FDCF0E94BD
:103450004A12EBE9F3E08191811167C0FE12FBCFC4
:10346000A9CF0E944A12EBEAF3E0ABE9B3E000E037
:1034700010E0702F6D9121912627B1F180E090E04E
:1034800030E0782EA901082E02C0559547950A9480
:10349000E2F740FF25C089837A83C60102C0880F06
:1034A000991F7A94E2F73C01862F90E086219721BC
:1034B00021E0892B09F420E02B830E94E821816020
:1034C000782F9D838C8349815A816B818D810E94E5
:1034D000581EF801E555FC4F80816826608219C0AE
:1034E00001968630910569F60F5F1F4F0E3011056A
:1034F00009F0BFCF9E829F8218860E94E8218160DA
:10350000782F9A8789874E815F8168858A850E9496
:10351000581E1091A9030E945A1F181709F44ACF88
:103520000E945A1F8093A90345CF59BC49BC09B4D6
:1035300000FEFDCF8091D8008F7D8093D8008091D0
:10354000E00082608093E0008091E00081FDFCCF8C
:1035500031CF8033910520F5880F991F880F991F6F
:10356000FC01EF5DFE4F5281338180818370718158
:10357000E0E98E9FC00111248B509C4FFC01E70FA6
:10358000F11DB4976083FC01E50FF11DB4974083F2
:10359000830F911DFC01B497208381E08093F40395
:1035A0000895FF920F931F93CF93DF93182F062F49
:1035B000F42EC0E0D0E02F2D402F612FCE010E94CD
:1035C000A91A2196C033D105B1F7DF91CF911F9190
:1035D0000F91FF9008950F931F9310E0F801EE0FE5
:1035E000FF1FE352FD4F9081905797FD9195000F7B
:1035F000111FF801E252FD4FE081F0E0B097DF01CA
:10360000AA0FBB1F8D010E0F1F1F2003D001219F8A
:10361000B00D1124E8E3F0E0E91BF10997FDF39503
:103620009F01220F331F89010E0F1F1F40039001BE
:10363000419F300D11242A0F3B1F37FF02C0215834
:103640003F4F220F232F221F330B620F1F910F9129
:1036500008950F931F93522F10E0F801EE0FFF1FF4
:10366000E252FD4FE081F0E0B097EE0FFF1F9F01A7
:103670005203D001539FB00D1124000F111FF80108
:10368000E352FD4F008110E000571109000F111F98
:1036900040039001419F300D11242A0F3B1F37FF3B
:1036A00002C021583F4F220F232F221F330B620FDE
:1036B0001F910F9108950F931F93522F10E0F8015F
:1036C000EE0FFF1FE252FD4FE081F0E0B0979F0147
:1036D0005203D001539FB00D1124000F111FF801A8
:1036E000E352FD4F008110E00057110940039001A3
:1036F000419F300D11242A0F3B1F37FF02C0215874
:103700003F4F220F232F221F330B620F1F910F9168
:103710000895EF920F931F9393E0099F8001112466
:10372000159507956E2D600F1F910F91EF900895DD
:1037300050E0FA01EE0FFF1FE252FD4F90819052D0
:1037400097FD9195440F551FFA01E352FD4F4081BB
:1037500050E0FA01E21BF1099F01290F311D97FD8D
:103760003A95620F0895E42FF0E0EE0FFF1FE2524A
:10377000FD4F6081621B0895E42FF0E0EE0FFF1F04
:10378000E352FD4F6081621B0895622F0895E42F7C
:10379000F0E0EE0FFF1FE352FD4F408134EE439FF8
:1037A000412D1124E82FF0E050E0445E5F4FDA0134
:1037B000A21BB1099D01B7FF03C0319521953109C5
:1037C00093E0220F331F9A95E1F7AF01421B530B91
:1037D0009A0157FF02C020E030E0582F259F212D8D
:1037E0001124822F0895E42FF0E0EE0FFF1FE35223
:1037F000FD4F408134EE439F412D1124E72FF0E02F
:1038000050E0445E5F4FDA01A21BB1099D01B7FF92
:1038100003C031952195310993E0220F331F9A950A
:10382000E1F7AF01421B530B9A0157FF02C020E0A2
:1038300030E0279F212D1124722F0895FC01CB0128
:10384000309721F477FF2CC080E808959F01F7FF9F
:1038500004C0222733272E1B3F0BBC01621B730BB6
:10386000280F391F97FD0DC0CB0145E0880F991F28
:103870004A95E1F7B9010E94553080E2861B682F16
:1038800009C0C90125E0880F991F2A95E1F70E9418
:103890005530605A862FF7FF02C08195089508952C
:1038A00080E00895EF920F93CF93DF93D72FC82F27
:1038B000C9010E19BA010E941E1C602F681B7D2FC2
:1038C0008C2FDF91CF910F91EF9008950F93CF93AD
:1038D000DF93D72FC82FC901BA010E941E1C682F81
:1038E000600F7D2F8C2FDF91CF910F910895EF9274
:1038F0000F931F93CF93DF93D62FC72F182FC90194
:103900000E19010FBA010E941E1C081B019F012DF8
:1039100011246D2F7C2F802FDF91CF911F910F915C
:10392000EF900895EF920F931F93CF93DF93D62FCD
:10393000172FC82FC9010E19070FBA010E941E1CAC
:10394000081B702F719F712D11246D2F8C2FDF910B
:10395000CF911F910F91EF900895FF920F931F93B6
:10396000CF93DF93F62ED72F182FC901C12FC01B7D
:10397000BA010E941E1C982F880F980F2C2F291B0C
:10398000219F212D11246F2D7D2F822FDF91CF912B
:103990001F910F91FF900895FF920F931F93CF9364
:1039A000DF93F62E172FD82FC901C72FC01BBA01DE
:1039B0000E941E1C982F880F980FC91B7C2F719F87
:1039C000712D11246F2D8D2FDF91CF911F910F91AC
:1039D000FF900895EF92FF921F93CF93DF937B01A7
:1039E000182F110FC0E0D0E08C2F8C5D8093E00386
:1039F00020E030E0F901EC0FFD1FEE0DFF1D80818E
:103A0000F901E052FC4F81832F5F3F4F2031310598
:103A100089F724E630E041E150E060EE73E0812F69
:103A20000E94222E6096C039D105F1F6DF91CF9128
:103A30001F91FF90EF9008958091F403882351F037
:103A400065EF73E084E70E94EA1C65E874E087E7AD
:103A50000E94EA1C1092F4030895E0EEF3E0608304
:103A6000418324E630E042E050E0BF01880F0C942F
:103A7000222ECF93DF93C82F4BE06DEF0E942D1DB8
:103A800040E06AE08C2F0E942D1D8FE39CE9019796
:103A9000F1F700C0000040E060E08C2F0E942D1D77
:103AA00040E061E08C2F0E942D1D40E066E08C2FED
:103AB0000E942D1D40E06DEF8C2F0E942D1DD0E047
:103AC00040E06D2F8C2F0E942D1DDF5FD231C1F79A
:103AD00040E06D2F8C2F0E942D1DDF5FD432C1F787
:103AE00040E06D2F8C2F0E942D1DDF5FD43BC1F76E
:103AF0004BE06DEF8C2F0E942D1D41E06AE08C2F72
:103B00000E942D1D40E06DEF8C2FDF91CF910C9422
:103B10002D1D7F928F929F92AF92BF92CF92DF9294
:103B2000EF92FF920F931F93CF93DF930E94702D1C
:103B300084E70E94391D87E70E94391DE4E2EE2EDA
:103B4000E1E0FE2EC12CD12CF2E17F2EA8E08A2EDE
:103B5000912CAA24A394B12CF7013297608170E0D4
:103B6000CB0184973196E081F0E0B497D7012C9196
:103B700030E024523109D601AA0FBB1FAA0FBB1F88
:103B8000AF5DBE4FCC91C370D0E0AC0197FF02C0D7
:103B9000495F5F4F63E0559547956A95E1F77C9ED5
:103BA00080017D9E100D1124040F111D05541C4F22
:103BB000B4010E945530A50102C0440F551F8A95DB
:103BC000E2F7CA01D8019C91892B8C93CF01F7FDB4
:103BD000079653E0959587955A95E1F77C9E80016D
:103BE0007D9E100D1124080F111D05541C4FCF018F
:103BF000B4010E945530F50102C0EE0FFF1F8A95F7
:103C0000E2F7CF01D8019C91892B8C93C90137FD34
:103C1000079643E0959587954A95E1F77C9EF001DC
:103C20007D9EF00D1124E80FF11DE554FC4FC901F4
:103C3000B4010E945530950102C0220F331F8A95AE
:103C4000E2F7C9019081892B80833FEFC31AD30A21
:103C500044E0E40EF11C50E3C516D10409F07CCF1A
:103C600081E08093DF030BEB13E0C0E0D0E0D801EC
:103C70004D918D016C2F84E70E942D1DFE01E554AE
:103C8000FC4F42896C2F87E70E942D1D2196C2317F
:103C9000D10569F7DF91CF911F910F91FF90EF90C0
:103CA000DF90CF90BF90AF909F908F907F900895BE
:103CB000EF92FF920F931F93CF93DF93CDB7DEB7B1
:103CC00067970FB6F894DEBF0FBECDBF4B8B5C8BF2
:103CD0006D8B7E8B8F8B0E891F8901151105C1F1AC
:103CE0005F3F11F44F3FA1F1E42EF12CA1E0B0E0D1
:103CF000042E01C0AA0F0A94EAF7852F90E06623EC
:103D000019F020914A0506C09C01255E3A4FF90141
:103D100020812A232223A9F046E0489F9001499F51
:103D2000300D1124F701E20FF31FEE0FFF1FEF51CB
:103D3000FE4F40815181FC01E55EFA4F9081A92B35
:103D400006C0FC01E55EFA4FA0958081A823A08300
:103D500086E0FE013D96DF01982F1D929A95E9F7C6
:103D60004D875E876F87198B088BDE011796019050
:103D70000D928A95E1F7CE0107960E942F258111B9
:103D800037C086E0FE013796DE01119601900D9254
:103D90008A95E1F7FF81E8856A857B856115710564
:103DA00039F1EF3F11F4FF3F19F12091510530E057
:103DB000C9010196877099274091820550E08417C8
:103DC000950779F1F983EA837D836C8396E0929F6E
:103DD000D001939FB00D1124AE5ABA4FFE01319617
:103DE00001900D929A95E1F7809351050E94CA24A3
:103DF00016E08091820590915105891711F1189F65
:103E0000C00111248E5A9A4F0E942F258823C9F091
:103E10008091820590E001968770992780938205B2
:103E2000E8CF1092C6050E94C82B1092510510923F
:103E30008205EBE4F5E086E0DF011D928A95E9F763
:103E4000D7CF67960FB6F894DEBF0FBECDBFDF9118
:103E5000CF911F910F91FF90EF9008952091190538
:103E600030911A058217930771F090931A05809389
:103E70001905E0919803F0919903309721F000849F
:103E8000F185E02D099408952091170530911805CA
:103E90008217930771F09093180580931705E091AE
:103EA0009803F0919903309721F00680F781E02D77
:103EB00009940895E0919803F0919903309721F0C7
:103EC0000190F081E02D099480E008958091FD0536
:103ED000837011F4109206018091FD058C7F816042
:103EE0008093FD0508950C94D11A0C94A91A45E00D
:103EF00050E06CE170E08DEF95E00C94712EEDEFE9
:103F0000F5E0880F880F90819370892B8083109241
:103F100006010C94771F9091FD05892F8695869553
:103F2000815C8F739370882321F0880F880F892B11
:103F300002C0892F80658093FD05109206010C94C4
:103F4000771F9091FD05892F869586958F5F8F73DA
:103F50009370853120F4880F880F892B02C0892F38
:103F600084608093FD05109206010C94771FEDEF9D
:103F7000F5E08DE2808311828FEF828383838FE768
:103F800084830C94771F482F982F46FD9095E92F36
:103F9000EF739F7046FD9F5FE295EF70EE0FF0E0CC
:103FA000E75EFE4F2181299F802D212D11248295CE
:103FB0008F702295207F822B3081982F930F892F2D
:103FC00047FD819580580895BC018230910508F421
:103FD0000895613E8EE1780748F49B0195E036959F
:103FE00027959A95E1F748E0420F01C04FEF91E025
:103FF000242F30E0290F311D35952795229FF001A0
:10400000239FF00DF00D11246E177F0718F44FEF6A
:10401000420F05C02F3F310539F091E0920F49174B
:1040200038F78FEF890F08958FEF08950F931F933F
:10403000CF93DF931F92CDB7DEB7182F47FD419581
:10404000E8E3F0E0CF01841B910947FD9395889F39
:10405000F001899FF00DF00D1124229FC001239FD4
:10406000900D900D11248E0F9F1F79830E94E41FE5
:10407000982F880F980F692F600F7981812F0F90EB
:10408000DF91CF911F910F91089520E030E0A901B9
:10409000869F412D969F400D511D1124CA01089500
:1040A000CF92DF92EF92FF920F931F93CF93DF9304
:1040B0007B01282F382FE82FF0E0F11006C0E65ED4
:1040C000F94F6491762F862F7BC00F2D10E046E0CC
:1040D000649FC0011124CFEFD0E0BE010E944130A7
:1040E000AB016BEA6403C001659F900D11248E0D36
:1040F000911D8E0D911D982F990F890FBE01601B88
:10410000710B6E9FD0016F9FB00D7E9FB00D11247B
:104110009B2F8F9DB0011124672F77277E01E61A10
:10412000F70AEE9EB001EF9E700DFE9E700D1124F9
:104130006E01C81AD108C09E7001C19EF00CD09EBD
:10414000F00C11240F2D1127C01BD10BCE9F800125
:10415000CF9F100DDE9F100D1124812F423051058D
:1041600091F04CF441155105E1F041305105B9F49D
:10417000822F272F16C04430510569F044F0463095
:10418000510579F00CC0822F2B2F912F0AC02B2FB5
:10419000932F872F06C08B2F922F212F02C08B2F9A
:1041A000972FE22FF0E0E65EF94F7491E82FF0E0F0
:1041B000E65EF94F6491E92FF0E0E65EF94F8491F5
:1041C000DF91CF911F910F91FF90EF90DF90CF90F3
:1041D0000895609180038CE090E00C94812E909182
:1041E000960392FF0DC0282F2871283019F4877F7D
:1041F000846006C0282F2471243011F48B7F8860DE
:1042000093FF0DC0282F2871283119F4877E84610F
:1042100006C0282F2471243111F48B7E88612091EF
:10422000970320FF0DC0382F3871383019F4877F7D
:10423000816006C0382F3171313011F48E7F886073
:1042400021FF0DC0282F2871283119F4877E816144
:1042500006C0282F2171213111F48E7E886194FDD2
:10426000877E08956F927F928F929F92AF92BF92B6
:10427000CF92DF92EF92FF920F931F93CF93DF9332
:104280001F92CDB7DEB7742E622EFC018281882387
:1042900031F160936F0369830E94E82190931605C2
:1042A00080931505698180E2860F883008F080C010
:1042B000677081E001C0880F6A95EAF70F90DF917F
:1042C000CF911F910F91FF90EF90DF90CF90BF9013
:1042D000AF909F908F907F906F900C94E62B909171
:1042E0006F0396134AC040911505509116058FB77C
:1042F000F8940091790310917A0320917B03309117
:104300007C038FBF48015901AA24BB246A01E12C18
:10431000F12C041B150B8C149D04AE04BF0410F487
:1043200001501109083C110540F510E2170D9715D1
:10433000B9F080E2890F883040F4977081E001C0C5
:10434000880F9A95EAF70E94DB2B183048F481E039
:10435000972D977001C0880F9A95EAF70E94E62B77
:10436000862D0E945D2D183018F5972D977081E0ED
:1043700001C0880F9A95EAF70AC080E2860F88305C
:10438000B8F4677081E001C0880F6A95EAF70F9072
:10439000DF91CF911F910F91FF90EF90DF90CF9021
:1043A000BF90AF909F908F907F906F900C94DB2B7D
:1043B0000F90DF91CF911F910F91FF90EF90DF90C1
:1043C000CF90BF90AF909F908F907F906F90089507
:1043D0002FB7F8948091790390917A03A0917B0391
:1043E000B0917C032FBF08951F920F920FB60F92CA
:1043F00011248F939F93AF93BF9380919A03811160
:1044000013C08091790390917A03A0917B03B091BE
:104410007C034196A11DB11D8093790390937A038B
:10442000A0937B03B0937C03BF91AF919F918F9139
:104430000F900FBE0F901F90189520911501222309
:1044400021F02091960327FD04C0FC0132960896C6
:1044500019C0262F2695269526952E31C0F4FC01ED
:10446000E20FF11D677081E090E001C0880F6A954E
:10447000EAF7809592818923828308953196E8171F
:10448000F90729F020812613F9CF1082F7CF08957C
:1044900020911501222321F02091960327FD05C0CC
:1044A000FC0132962FEF30E019C0262F2695269575
:1044B00026952E3120F5FC01E20FF11D677081E099
:1044C00090E001C0880F6A95EAF79281892B828378
:1044D00008952F3F39F03F5F363041F04191461348
:1044E000F8CF0DC04111F7CF232FF5CF2F3F39F073
:1044F000FC01E20FF11D27FDFA95628308950895EE
:10450000CF9384E090E00E945D2EC82F81E290E07E
:104510000E945D2E2C2F30E0A901582BCA01CF91AB
:10452000089580E090E00E946B2E21E08F3E9E4F28
:1045300009F020E0822F08956FEE7EEF80E090E09A
:104540000E949F2E60E082E090E00E94812E60E059
:1045500083E090E00E94812E1092C2051092C30564
:104560001092C4051092C50560E084E090E00E94BE
:10457000812E60E081E290E00E94812E60E085E083
:1045800090E00E94812E60E086E090E00E94812E03
:104590006FEF87E090E00E94812E40E050E0BA018A
:1045A00088E090E00E94932E60E08DE090E00E9411
:1045B000812E40E050E0BA0188E190E00E94932E05
:1045C00060E087E190E00E94812E40E050E0BA0177
:1045D0008CE190E00E94932E60E080E290E00E94E7
:1045E000812E1092840310928503109286031092FC
:1045F000870384E080618093840340918403509119
:10460000850360918603709187038FE090E00E949C
:10461000932E40E050E0BA0183E190E00C94932E99
:10462000CF92DF92EF92FF926C01EE24FF24C1142F
:10463000D104E104F10421F0C701B60120E101C079
:1046400020E0C72ED82EE92EFF24C114D104E104A6
:10465000F10419F0285FC701B6016B017C0154E039
:10466000F694E794D794C7945A95D1F7C114D1041E
:10467000E104F10419F02C5FC701B6016B017C0164
:1046800042E0F694E794D794C7944A95D1F7C114C1
:10469000D104E104F10419F02E5FC701B601DC0179
:1046A000CB01B695A79597958795892B8A2B8B2B50
:1046B00009F02F5F822FFF90EF90DF90CF90089549
:1046C0008091C10581111092C10508959091C00596
:1046D0008091C605892B2091BF05982F922B90932E
:1046E00029058091C1058823D9F0892B809329055C
:1046F00080911501882331F08091960387FF02C0D5
:104700008EE101C086E0EBE2F5E090E0815028F018
:1047100021912223D9F39F5FF9CF91110E94602349
:10472000E0919803F09199033097A9F080911501D9
:10473000882359F08091960387FF07C0809129054F
:1047400080932A0585E0809329050280F381E02D7E
:1047500089E295E009940895BF92CF92DF92EF929B
:10476000FF920F931F93CF93DF938C01C090C205EC
:10477000D090C305E090C405F090C5058091BA05BE
:104780009091BB05A091BC05B091BD05C82AD92A5E
:10479000EA2AFB2ACFE1D0E0D701C6010C2E04C0E3
:1047A000B695A795979587950A94D2F780FF07C08D
:1047B000BC2EB8018C2F0E94A20E019719F42197EC
:1047C00058F7B12C8B2DDF91CF911F910F91FF9056
:1047D000EF90DF90CF90BF900895CF93DF93EC01DF
:1047E0000E94AC23BE010E94A20EDF91CF910895DA
:1047F000292F220F920F990F890F682F66956695C2
:104800006695982F977085E0689FB001112440E06D
:1048100050E080E0FA01E60FF71FED57FA4F2081D4
:1048200030E0092E02C0369527950A94E2F72170F0
:104830003327042E01C0220F0A94EAF7822B4F5F20
:104840005F4F4530510531F70895292F220F920F00
:10485000990F890FA82FA695A695A695877051E068
:1048600001C0550F8A95EAF785E0A89FD001112471
:1048700020E030E070E0F901EA0FFB1FED57FA4F3E
:104880004081CB01022E02C0969587950A94E2F7EB
:1048900081709927819584278523842780832F5FC2
:1048A0003F4F2530310539F708950E941B11609361
:1048B000BA057093BB058093BC059093BD050C941D
:1048C000BA2B0F931F9341E050E060E070E004C00A
:1048D000440F551F661F771F8A95D2F74095509554
:1048E000609570958091BA059091BB05A091BC052B
:1048F000B091BD058A019B01082319232A233B237C
:10490000C901B8011F910F910C9455242091BE0547
:10491000809582238093BE05982F977079F430E0BC
:10492000482F082E000C550B2417350739F08595B4
:10493000859585950E9461241092BE0508950F9378
:104940001F9341E050E060E070E004C0440F551F49
:10495000661F771F8A95D2F78091BA059091BB05A3
:10496000A091BC05B091BD058A019B01082B192BB4
:104970002A2B3B2BC901B8011F910F910C94552490
:104980006093C2057093C3058093C4059093C505D9
:104990000C94BA2B8091820590915105891719F0DA
:1049A0008F5F8770FBCF08958091500582958F703F
:1049B00009F054C080914D05882309F44FC08091BF
:1049C0008205A091510560914B0570914C05409175
:1049D0004E0550914F05B6E08A1709F43FC090E0AC
:1049E00041155105C1F17F3F11F46F3FA1F1B89F0F
:1049F000F001B99FF00D1124EE5AFA4F2181721384
:104A00002AC02081621327C02281211124C0238162
:104A100034812417350710F421503109241B350B3C
:104A2000283C3105C0F4209150052F70206120935F
:104A3000500526E0289FF001299FF00D1124E95A26
:104A4000FA4F80818F70806180838BE495E00E94B3
:104A500048040C94CA2401968770BECF0895BF9273
:104A6000CF92DF92EF92FF920F931F93CF93DF933A
:104A7000CDB7DEB761970FB6F894DEBF0FBECDBFDE
:104A80008C0185E0F801DE011D9601900D928A955A
:104A9000E1F7D8013C9111962C9111971296EC9068
:104AA00012971396CD90DC90149750914B0560911E
:104AB0004C0580914E0590914F05009709F44FC128
:104AC0006F3F19F45F3F09F44AC1B0904D05BB2018
:104AD00009F4ECC040915005C816D90628F0F6013B
:104AE000E81BF90BCF0104C0809590958C0D9D1D9E
:104AF000FF24F394883C910548F0F12C407F09F0A5
:104B00009FC08BE495E00E94480421C1842F807FE0
:104B100009F044C0621312C0531310C0E1100EC05C
:104B20004F704061409350058BE495E00E9448042B
:104B300080915005D80115968C932EC0CD2819F17F
:104B40002F3F11F43F3FF9F0FE2CE1101CC0809183
:104B500082054091510556E0841709F458C090E051
:104B6000589FF001599FF00D1124EE5AFA4F6181C0
:104B7000261306C06081361303C06281611103C031
:104B800001968770E9CFFE2CEE2009F421C18091B7
:104B90005005816080935005F12C1AC162130AC040
:104BA000531308C0E11006C080915005D801159636
:104BB0008C93B0C03D872E878D859E850E94932B58
:104BC0008823D1F1EE20C1F120915005822F8295EA
:104BD0008F7090E0029774F080914B0590914C0596
:104BE00098878F831986DB86CA862C87CE01079625
:104BF0000E94480486E0F801ABE4B5E001900D9214
:104C00008A95E1F70E94D424FF24F394E1C03D8704
:104C10002E878D859E850E94ED23292F22952F704A
:104C200030E0223031050CF0C7C09F7009F0C1C0E0
:104C3000805E883008F4CCC0C8010E944804E4CFEC
:104C4000621314C0531312C0E11010C080915005BC
:104C5000F8018583C8010E94480486E0EBE4F5E092
:104C6000DF011D928A95E9F7FB2CB2C03D872E87A4
:104C70008D859E850E94932B8823F1F2EE20E1F230
:104C800020915005822F82958F7090E002970CF44E
:104C9000B1CF80914B0590914C059A8389831B82FB
:104CA000DD82CC822E83CE010196A2CFC816D90612
:104CB00038F0C81AD90AB8ECCB16D10450F007C0A6
:104CC000809590958C0D9D1D883C910510F0F12CE0
:104CD0003EC0FE2CEE2009F4AFCF621327C0531361
:104CE00025C02091500520FD18C0822F82958F701D
:104CF000482F50E04115510581F0F80125834F30D0
:104D0000510541F08F5F982F9295907F822F8F7081
:104D1000892B8583C8010E94480486E0F801ABE432
:104D2000B5E001900D928A95E1F752C03D872E873C
:104D30008D859E850E94932B81115CCF80915005BB
:104D4000816080935005C8010E94480441C0EBE493
:104D5000F5E086E0DF011D928A95E9F739C0EE2083
:104D600009F46ACF3D872E878D859E850E94932BFF
:104D7000F82E882309F460CF86E0F801ABE4B5E0B3
:104D800001900D928A95E1F780914B0590914C0529
:104D90000E94ED2392959F70963041F480914A05D0
:104DA00091E0892780934A05909349050E94D42475
:104DB0000FC081113DCF0CC0243031050CF03CCF29
:104DC0009F7009F435CFF8019581907F09F030CFBD
:104DD0008F2D61960FB6F894DEBF0FBECDBFDF9169
:104DE000CF911F910F91FF90EF90DF90CF90BF90E8
:104DF00008959F92AF92BF92CF92DF92EF92FF926F
:104E00000F931F93CF93DF936C0180911601C82FEE
:104E1000CC0FCC0FC80FD5E0DC0FD13308F0D0E3B6
:104E200060910106669566958091F5059091F6056D
:104E30000E944520182F80E4810F0E94C31F90E834
:104E4000F92EF80E812F0E94C31F20E8922E980E93
:104E5000CD1700F5AC2EB12CF501E35CFC4F808141
:104E6000909117019823A1F06091FE057091FF05C4
:104E700080910006E12E0C2F292D4F2DF60109956A
:104E80000E945020462F282F672FC5010E94751FB2
:104E9000CF5FDECF81E0D03308F080E0DF91CF91AB
:104EA0001F910F91FF90EF90DF90CF90BF90AF9048
:104EB0009F9008956F927F928F929F92AF92BF9230
:104EC000CF92DF92EF920F931F93CF93DF934C011A
:104ED00080911601C82FCC0FCC0FC80FD5E0DC0F86
:104EE000D13308F0D0E36091010666958091F50515
:104EF0009091F6050E944520182FCD1708F044C068
:104F00006C2E712CF301E35CFC4F908180911701B2
:104F10008923C1F1F301EE0FFF1FE352FD4FC08063
:104F2000D12C80E7C81AD108F301EE0FFF1FE2521F
:104F3000FD4FA080B12CE0E2AE1AB108CC9C9001EC
:104F4000CD9C300D300D1124AA9CC001AB9C900D5E
:104F5000900D1124820F931F0E94E41F082F60916F
:104F6000FE057091FF0580910006E12E9501A601D6
:104F7000F40109950E945020462F282F672FC30166
:104F80000E94751FCF5FB9CF81E0D03308F080E079
:104F9000DF91CF911F910F91EF90DF90CF90BF9055
:104FA000AF909F908F907F906F900895CF92DF92F7
:104FB000EF92FF920F931F93CF93DF937C01809129
:104FC0001601C82FCC0FCC0FC80FD5E0DC0FD133A2
:104FD00008F0D0E36091010666958091F505909107
:104FE000F6050E944520182FCD1778F5CC2ED12C30
:104FF000F601E35CFC4F908180911701892319F140
:10500000F601EE0FFF1FE252FD4F208130E02052EB
:105010003109F601EE0FFF1FE352FD4F408150E0D2
:10502000405751096091FE057091FF05809100067F
:10503000012FF70109950E945020462F282F672F36
:10504000C6010E94751FCF5FCFCF81E0D03308F03B
:1050500080E0DF91CF911F910F91FF90EF90DF9053
:10506000CF900895DF92EF92FF920F931F93CF930B
:10507000DF937C0190911601C92FCC0FCC0FC90F83
:10508000D5E0DC0FD13308F0D0E3609101066695DE
:1050900066958091F5059091F6050E944520D82EE1
:1050A000CD17F0F40C2F10E0F801E35CFC4F808189
:1050B00090911701982391F06091FE057091FF0582
:1050C000809100062D2D4C2FF70109950E9450204C
:1050D000462F282F672FC8010E94751FCF5FE0CF92
:1050E00081E0D03308F080E0DF91CF911F910F91E4
:1050F000FF90EF90DF900895CF93DF93EC0180EE67
:10510000FE01099581EEFE01DF91CF910994CF92C6
:10511000DF92FF920F931F93CF93DF931F92CDB730
:10512000DEB7F82E8B0199830E944B16998181116D
:105130001CC0CF2CD92E01151105B1F08091E800CB
:1051400085FD0AC08091E8008E778093E8000E9478
:105150004B16882381F309C0F60181916F0180937A
:10516000F10001501109E7CF80E00F90DF91CF915E
:105170001F910F91FF90DF90CF9008951F93CF93D1
:10518000DF93CDB7DEB7AA970FB6F894DEBF0FBE98
:10519000CDBFEDEEF5E088E08E0F9091F100919398
:1051A0008E13FBCF8091EE05833009F460C030F49C
:1051B000813071F0823009F49CC0B3C08A3009F4A8
:1051C00088C08B3009F46BC0893009F0AAC020C0B8
:1051D0008091ED05813A09F0A4C08091E800877FB5
:1051E0008093E8008091F1059091F205892B21F4DC
:1051F00060E289EC95E003C060E080E090E070E060
:105200000E940F188091E8008B778093E80089C096
:105210008091ED05813209F084C08091F105909173
:10522000F205029708F07DC08091E800877F8093A7
:10523000E8008091E80082FD05C08091EB058111B6
:10524000F8CF6FC02091F3008091F20090E0922B94
:10525000029729F48091F1008B7F813021F48091B5
:10526000F1008093C8058091E8008B7756C080914B
:10527000ED05813A09F055C08091F1059091F20554
:10528000892B09F04EC08091E800877F8093E80069
:105290008091E80080FFFCCF8091150139C080919A
:1052A000ED058132F1F58091F1059091F205892BA0
:1052B000C1F58091E800877F8093E8000E947D1609
:1052C0008091EF05809315011092C6050E94C82BAE
:1052D00028C08091ED05813221F58091E800877F1B
:1052E0008093E8000E947D168091F0058093C705A9
:1052F00018C08091ED05813AA1F48091E800877F84
:105300008093E8008091E80080FFFCCF8091C70582
:105310008093F1008091E8008E778093E8000E94EE
:105320007D168091E80083FFD6C18091ED059091B4
:10533000EE05492F50E04A30510508F0CCC1FA0182
:10534000EB57FF4F0C946930803821F0823809F018
:10535000C2C108C08091E9059091EA05992389F0BE
:1053600082600FC08091F1058F70873008F0B3C163
:105370008093E9008091EB0085FB882780F91092EB
:10538000E9009091E800977F9093E8008093F10006
:105390001092F10074C1282F2D7F09F09CC1882341
:1053A00019F0823061F097C18091EF05813009F0EA
:1053B00092C1933009F080E08093EA052EC080917D
:1053C000EF0581112AC08091F1058F702FEF280F12
:1053D000263008F080C18093E9002091EB0020FF87
:1053E0001CC0933021F48091EB00806214C0909136
:1053F000EB0090619093EB0021E030E0A90102C046
:10540000440F551F8A95E2F74093EA001092EA0094
:105410008091EB0088608093EB001092E90080910E
:10542000E800877F2FC1811156C11091EF051F77CA
:105430008091E3008078812B8093E3008091E800E5
:10544000877F8093E8000E947D168091E80080FFAE
:10545000FCCF8091E30080688093E300111102C0CB
:1054600082E001C083E08093EB0535C18058823033
:1054700008F031C18091EF059091F0058C3D53E02B
:10548000950779F583E08A838AE289834FB7F89498
:10549000DE01139620E03EE051E2E32FF0E050936E
:1054A0005700E49120FF03C0E295EF703F5FEF707B
:1054B0008E2F90E0EA3010F0C79601C0C0968D9311
:1054C0009D932F5F243149F74FBF8091E800877F7C
:1054D0008093E8006AE270E0CE0101960E940F1806
:1054E000BDC04091F1055091F205292F332723309B
:1054F0003105B9F06CF42130310509F4FBC02230DC
:10550000310509F0E8C08BE390E0EBECF7E054C024
:105510002132310509F433C02232310509F43CC08F
:10552000DAC0992781309105D1F05CF4892B09F01C
:10553000D2C0EEE4F8E0E4918E2F90E0EEE4F8E0E3
:1055400038C08230910599F0039709F0C4C0E8E1B2
:10555000F8E0E4918E2F90E0E8E1F8E02AC0E6E37D
:10556000F8E0E4918E2F90E0E6E3F8E022C0EEE16F
:10557000F8E0E4918E2F90E0EEE1F8E01AC04115DA
:10558000510509F4BCC04130510509F0A4C089E0BF
:1055900090E0E6EFF7E010C04115510509F4B4C002
:1055A0004130510509F097C081E790E0EAE1F7E06A
:1055B00003C0009709F48FC02091E800277F209353
:1055C000E8002091F3053091F4052817390708F415
:1055D000C90140E0009789F12091EB05222309F4ED
:1055E0003DC02530D9F12091E80023FD37C020913E
:1055F000E80022FD2FC02091E80020FFEBCF409172
:10560000F3002091F20030E0342B009759F028305D
:10561000310540F444914093F100319601972F5F9A
:105620003F4FF3CF41E02830310509F040E02091B1
:10563000E8002E772093E800CDCF4111CDCF0AC0EE
:105640008091EB05882351F0853041F08091E8008E
:1056500083FD04C08091E80082FFF2CF8091E800D2
:105660008B778093E80037C08038A9F58091E800F7
:10567000877F8093E8008091EC058093F100809112
:10568000E8008E778093E8000E947D1624C0811187
:1056900022C01091EF051230F0F48091E800877F6E
:1056A0008093E8001093EC050E947D16111106C04E
:1056B0008091E30087FD02C081E001C084E0809317
:1056C000EB0542E061EC81E00E949C1642E261EC55
:1056D00082E00E949C168091E80083FF1AC08091AE
:1056E000E800877F8093E8008091EB0080628093E0
:1056F000EB000FC082E190E0E6E0F8E05DCF89E0EA
:1057000090E0EDEDF7E058CF80E490E0EBE8F7E0D3
:1057100053CFAA960FB6F894DEBF0FBECDBFDF9170
:10572000CF911F9108950E94ED23292F2F709295FC
:105730009F70E92FF0E03297EE30F105B8F4E157B1
:10574000FF4F0C946930803F99F018F4883E70F454
:105750000FC0843F59F40CC0883E50F0813F31F4B3
:1057600007C0822F869586958695089580E00895D6
:1057700081E008951092C0051092BF050E94662333
:1057800080E090E00E94441F80E090E00C942E1F87
:1057900080911501882331F08091960387FF02C024
:1057A0008EE101C086E0EBE2F5E0DF011D928A9513
:1057B000E9F70C94BA2B882341F080959091C605A7
:1057C00089238093C6050C9466230895882339F0B5
:1057D0009091C605892B8093C6050C946623089585
:1057E000882309F458C0682F823869F40E945A1F30
:1057F00081FF51C069E389E295E00E9448220E943E
:10580000662369E30EC0833891F40E945A1F80FF1B
:1058100042C063E589E295E00E9448220E94662327
:1058200063E589E295E00E941D220C94662384388A
:1058300069F40E945A1F82FF2EC067E489E295E056
:105840000E9448220E94662367E4EBCF8CEF860F0C
:10585000813A38F380E2860F883070F4677081E017
:1058600090E001C0880F6A95EAF780959091C6058F
:1058700089238093C605D9CF8BE5860F833020F42A
:1058800080E090E00C94441F685A673120F480E077
:1058900090E00C942E1F0895882309F40DC1682F01
:1058A0008238B1F40E945A1F81FD06C169E389E282
:1058B00095E00E9448220E9466232FEF81EE94E03B
:1058C000215080409040E1F700C0000069E317C01C
:1058D0008338D9F40E945A1F80FDEEC063E589E247
:1058E00095E00E9448220E9466232FEF81EE94E00B
:1058F000215080409040E1F700C0000063E589E25C
:1059000095E00E941D220C9466238438B1F40E9415
:105910005A1F82FDD1C067E489E295E00E944822C7
:105920000E9466232FEF81EE94E02150804090404A
:10593000E1F700C0000067E4E2CF8CEF860F813A08
:1059400028F489E295E00E944822DDCF80E2860FAC
:10595000883068F4677081E090E001C0880F6A9534
:10596000EAF79091C605892B8093C605CCCF8BE5CD
:10597000860F833070F4653A29F0663A31F083E897
:1059800090E005C081E890E002C082E890E00C94CD
:10599000441F88E5860F873108F08EC0683A09F405
:1059A00045C0693A09F445C06A3A09F445C06B3A02
:1059B00009F445C06C3A09F445C06B3B09F445C095
:1059C0006C3B09F445C06D3A09F445C0603B09F4ED
:1059D00045C06E3A09F445C06F3A09F445C0613BD1
:1059E00009F445C0623B09F445C0633B09F445C076
:1059F000643B09F445C0653B09F445C0663B09F4C6
:105A000045C0673B09F445C0683B09F445C0693BA4
:105A100009F445C06D3B09F445C06E3B09F445C02F
:105A20006A3B09F445C080E090E044C082EE90E01B
:105A300041C089EE90E03EC08AEE90E03BC085EB2D
:105A400090E038C086EB90E035C083EB90E032C048
:105A500084EB90E02FC087EB90E02CC08CEC90E0C2
:105A600029C08DEC90E026C083E891E023C08AE84D
:105A700091E020C082E991E01DC084E991E01AC064
:105A800081E292E017C083E292E014C084E292E0E7
:105A900011C085E292E00EC086E292E00BC087E280
:105AA00092E008C08FE690E005C080E790E002C079
:105AB0008AE292E00C942E1F0895CF93C82F0E9483
:105AC0004C2CC93349F42FEF87EE93E021508040EE
:105AD0009040E1F700C000008C2FCF910C94F02B88
