:100000000C94D3030C94F0030C94F0030C94F003C1
:100010000C94F0030C94F0030C94F0030C94F00394
:100020000C94F0030C94F0030C94BB1B0C94761A04
:100030000C94311D0C94F0030C94F0030C94F00319
:100040000C94F0030C94F0030C94F0030C94F00364
:100050000C94F0030C94F01C0C94F0030C94F0033B
:100060000C94F0030C94F0030C94F0030C94F00344
:100070000C94F0030C94F0030C94F0030C94F00334
:100080000C94F0030C94F0030C94F0030C94F00324
:100090000C94F0030C94F0030C94F0030C94F00314
:1000A0000C94F0030C94F0030C94F003D406D406E3
:1000B000030703076D071309130913098907670865
:1000C00078087808801785178F17831788178D177A
:1000D0008B173B193E194119441947194A194D19F3
:1000E00071219821302398213023E02103223023ED
:1000F000F222052301002B003500E100E0000000A2
:100100002900140004001D00010002511E001A0005
:1001100016001B0001002C681F00080007000600E5
:1001200001002A002000150009001900E20001006A
:10013000210017000A0005000000005722002F00D0
:1001400000003E00000001002300300000002E00EF
:100150000000010024001C000B00110000000157EA
:10016000250018000D0010006574010026000C0029
:100170000E00360001002C00270012000F0037008F
:10018000010028002D001300330038000100E400B6
:10019000010031003400E500E40000000000000030
:1001A000000000000000000000000000000000004F
:1001B000000001000000000000000000000001003D
:1001C0003A003B003C003D00000001003E003F00C3
:1001D000400041000000010042004300440045008F
:1001E000000001000000000000000100000001000C
:1001F00000000000000000000000010000000000FE
:100200000000000000000100240021001E0000008A
:1002100000000100250022001F0000000000270050
:100220002600230020003700000001002E022D00D0
:10023000250238000000010000000000000000005E
:1002400000000000010001000100010001000000A9
:100250000100010001000100010001000100010096
:100260000100010001000100010001000100010086
:100270000100010001000100010001000100010076
:10028000010001000100010000004A00010001001E
:100290000000010000000100010001000000010059
:1002A00000000100010001005000010000004D00AD
:1002B00001000100510001000100010001000100E6
:1002C0005200010001000100010001004F00010087
:1002D0000100010001000100010001000100010016
:1002E0004600010001000100C35C000000010101A3
:1002F00001010101010102020202020202020203E3
:1003000003030303030303040404040404040505B2
:100310000505050606060606070707070708080875
:1003200008090909090A0A0A0B0B0B0C0C0C0D0D24
:100330000D0E0E0E0F0F0F101011111112121313BC
:100340001414151516161717181819191A1A1B1B35
:100350001C1D1D1E1E1F2020212222232424252691
:1003600026272829292A2B2C2D2D2E2F30313232C9
:10037000333435363738393A3B3C3D3E3F404142D5
:10038000434445464748494A4C4D4E4F50515354BB
:10039000555658595A5B5D5E5F616264656668696F
:1003A0006B6C6D6F7072737577787A7B7D7E8082EF
:1003B000838587888A8C8E8F91939596989A9C9E38
:1003C000A0A2A3A5A7A9ABADAFB1B3B5B7BABCBE48
:1003D000C0C2C4C6C9CBCDCFD1D4D6D8DBDDDFE215
:1003E000E4E7E9EBEEF0F3F5F8FAFDFF00000000BA
:1003F00000000000000000000000000000000000FD
:1004000000000000000000000000000000000000EC
:1004100000000000000000000000000000000000DC
:1004200000000000000000000000000000000000CC
:1004300000000000000000000000000000000000BC
:1004400000000000000000000000000000000000AC
:10045000000000000000000000000000000000009C
:10046000000000000000000000000000000000008C
:100470000000000000000000000000000000003A42
:10048000A6EB3AA6EB3AA6EB29FFFF0000003AA63E
:10049000EB00A6EB3AA6EB29FFFF0000003AA6EB23
:1004A0003AA6EB3AA6EB29FFFF000000000000008F
:1004B000000029FFFF29FFFF0000000000000000EE
:1004C0000000000000A6EB00A6EB00A6EB00000079
:1004D00000000000A6EB00A6EB00A6EB0000000069
:1004E000000000A6EB00A6EB00A6EB000000000059
:1004F0000000A6EB00A6EB00A6EB00000000000049
:1005000000000000000000000000000000000000EB
:1005100000000000000000000000000000000000DB
:1005200000000000000000000000B58899B588991F
:10053000B58899B58899000000000000000000000F
:1005400000000000000000000000000000000000AB
:10055000000000000000000000000000000000009B
:10056000000000000000000000000000000000008B
:10057000000000000000000000000000000000007B
:10058000000000000000000000000000000000006B
:10059000000000000000000000000000004434548F
:1005A00000746484005545650085759500362646BF
:1005B00000665676009686A600372747007767873D
:1005C0000038284800887898003929490069597905
:1005D000009989A9003A2A4A006A5A7A003B2B4BB3
:1005E000006B5B7B004C3C5C007C6C8C005D4D6D5B
:1005F000008D7D9D003E2E4E006E5E7E0144345483
:10060000017464840155456501857595013626465A
:1006100001665676019686A60137274701776787D8
:1006200001382848018878980139294901695979A0
:10063000019989A9013A2A4A016A5A7A013B2B4B4E
:10064000016B5B7B014C3C5C017C6C8C015D4D6DF6
:10065000018D7D9D013E2E4E016E5E7E050109805D
:10066000A101850319012AB700150126B7009501DC
:1006700075108100C0050C0901A101850419012A2A
:10068000A002150126A002950175108100C0050188
:100690000906A1018506050719E029E715002501CE
:1006A0009508750181020507190029EF150025013C
:1006B00095F0750181020508190129059505750157
:1006C0009102950175039101C005010906A101057B
:1006D0000719E029E71500250195087501810295A4
:1006E00001750881010507190029FF150026FF0083
:1006F00095067508810005081901290595057501FC
:100700009102950175039101C009023B00020100AD
:10071000A0FA0904000001030101000921110100F0
:1007200001224000070581030800010904010001BE
:1007300003000000092111010001226D000705825C
:1007400003200001120100020000000897327649E0
:1007500001000102000120034500720067006F00E4
:1007600044006F007800200045005A002000470038
:100770006C006F007700000028035A00530041000E
:10078000200054006500630068006E006F006C007C
:100790006F006700790020004C0061006200730068
:1007A00000000403090411241FBECFEFDAE0DEBF0E
:1007B000CDBF12E0A0E0B1E0E0EEFEE502C00590A2
:1007C0000D92AE36B107D9F725E0AEE6B2E001C032
:1007D0001D92A831B207E1F70E9452230C946E2FAC
:1007E0000C940000AAE0B0E0E8EFF3E00C94392BA1
:1007F000FC018081918123813481232B31F09F3F43
:1008000031F491E08F3F19F403C091E001C090E012
:1008100090FD58C57F0185E0DE01169601900D928E
:100820008A95E1F7D70112962C918E819F81222320
:1008300049F00E94F427182F682F8E819F810E9413
:10084000722803C00E943D28182F6E817F81812F5E
:100850000E94AB098C01F7018281882309F450C002
:100860008091490190914A01019609F41BC53AE033
:10087000C32E31E0D32EA12CB12C992493948091D6
:10088000490190914A018A159B055CF1D6011696A3
:100890008C9116978823F1F019968D919C911A9757
:1008A0008017910739F48091540490915504801772
:1008B000910781F0F601978614870387818981115A
:1008C00003C0C6010E94BB1DC60106960E94DA1D28
:1008D00010925604FFEFAF1ABF0A26E1C20ED11CD8
:1008E000CECF0F3A3DE5130781F0003B8DE51807A9
:1008F00009F453C0033C9CE5190709F092C071C08C
:100900000F3ABDE51B0709F043C0D70112968C9141
:10091000882309F490C09091D80481E0890F8770F2
:10092000987F853020F4892B8093D80402C090935F
:10093000D8048091D8048770BFEF8B9FC001112429
:10094000959587959595879599279093890080939C
:10095000880090938B0080938A0090938D00809301
:100960008C004091D8045091D9046091DA047091C0
:10097000DB048FE090E00E94152C6091D40470910C
:10098000D5048091D6049091D7040E94661753C075
:10099000003BEDE51E0709F03FC0F7018281882387
:1009A00009F449C08091D80483FB222720F991E003
:1009B000922790FB83F98093D804992329F040E093
:1009C00060E080E00E9428114091D8045091D90441
:1009D0006091DA047091DB048FE090E00E94152CA6
:1009E0002AC0D70112968C91882309F44AC49091A9
:1009F000A10480919B049F3F59F41092A10481604F
:100A000080939B0440E060E080E00E94281139C49C
:100A10009FEF9093A1048AC0033CFCE51F0709F4F3
:100A200030C4013BBDE51B0731F4F7018281882307
:100A300009F427C490C0C80197558F3F910511F064
:100A400008F049C02091490130914A01281739071F
:100A500024F490934A0180934901D70112962C9176
:100A6000129736E1389F5001399FB00C1124F501DF
:100A7000E65FFE4F6F01208B12969C918681992331
:100A800009F474C0128701878F5F86830E94251D39
:100A9000D6011E969C938E931D978091E90217961E
:100AA0008C9317979091560480916804892B18961F
:100AB0008C931897ED91FC911197C501805F9E4F23
:100AC000309729F054966D917C9155970995109324
:100AD000550400935404D70112968C918111A8C03B
:100AE0008091680482720B3CBCE51B0709F48DC041
:100AF00008F5063CFCE51F0709F473C008F043C085
:100B0000043C3CE5130709F462C008F065C0033CEF
:100B1000ACE51A0709F0FAC090919C0481E089279E
:100B200080939C0410923A0180919B048160809391
:100B30009B04A7C3003D3CE5130709F477C0B0F55B
:100B40000D3CACE51A0709F46AC008F463C00E3C1A
:100B5000ECE51E0711F481E006C00F3CFCE51F0721
:100B600009F0D4C085E00E94CA1E8BC3882309F413
:100B7000B2CF8189882309F4AECFC501805F9E4F33
:100B80000E94DA1DA8CF083CBCE51B07A1F170F15B
:100B9000093CFCE51F07A1F10A3C2CE5120709F00E
:100BA000B5C048E556E265E676E23DC0073D2CE576
:100BB000120738F4023D3CE5130708F062C381E1F7
:100BC000D2CF0F358DE5180709F45BC39FC040EA0B
:100BD00056E26AEA76E227C04AEA56E260EA76E23C
:100BE00022C04CE856E266E976E21DC046E956E2CC
:100BF0006CE876E218C042E756E26FE776E213C08F
:100C00004FE756E262E776E20EC045E656E268E557
:100C100076E209C04AE755E268E875E204C048E8B0
:100C200055E26AE775E20E941F1E2BC38CE09BCF42
:100C30000C359DE5190709F464C060F40115BCE5A5
:100C40001B07A9F00F3DECE51E0709F05FC00E94ED
:100C50004D0B4CC00E35FDE51F0709F44AC008F4E2
:100C600052C0093A3DE5130709F440C04FC0109245
:100C700068040E9428298FEF94E3ACE081509040F3
:100C8000A040E1F700C00000F89481E08093E0000C
:100C900080E28093D8001092C900EFE1FEE4319722
:100CA000F1F700C000001DBA109268001CBC10BE15
:100CB0001FBA10927A0010926E0010926F0010927C
:100CC0007100109272001092C9001092BC0014B80A
:100CD00017B81AB81DB810BA1092BC0015B818B8D9
:100CE0001BB81EB811BA0C94003FCBC20E944E171D
:100CF000C8C28091630482FB882780F991E089272C
:100D000003C081E001C080E00E944F0CD701129621
:100D10008C9112970D911C91882349F0C8010E9473
:100D2000F427D82E682FC8010E94722804C0C80179
:100D30000E943D28D82EB8018D2D0E94AB090E943B
:100D4000C4098C01982EF701D280B580B2949FE03F
:100D5000B9228091C8028770B9F0DD20A9F0812FF7
:100D6000807F803421F080E2800F883068F08091AD
:100D7000630482FF09C082E00E94320C8091C802A5
:100D80008770CC24C3948111C12CA12EA2948FE032
:100D9000A8228A2D90E08C30910508F044C2FC0115
:100DA000EA5AFF4F0C943A2E812F807F1F708823C0
:100DB00011F01295107FDD20B9F0112309F420C243
:100DC00080E2800F883010F0911006C08091680496
:100DD000182B1093680405C080915604182B1093AB
:100DE00056040E94DD0B0CC2802F0E945E29112345
:100DF00009F419C2005E812F083060F1992051F189
:100E00000E94CF0B29C0812F807F1F70803211F08C
:100E10001295107F992021F0F1E09F16D9F147C07B
:100E20008091630482FD1BC0DD2069F0112339F03D
:100E300080916804182B109368040E94DD0B80E0F9
:100E40000E948A29F0C180E00E945E29112309F4E2
:100E5000EAC1812F0E94D60B0E94DD0BE4C1DD2088
:100E600081F08091E902BB2051F001E0B01207C08F
:100E7000182B181709F4D7C11093E902D4C1812B9C
:100E800010C0BB2021F021E0B21609F4CCC10E94B1
:100E9000C90B1FC0DD2041F031E03B1508F4C3C190
:100EA000812F0E945429BFC1B110BDC112C0DD20E5
:100EB00019F0BB20A9F3A4C1BB2059F0093309F0F4
:100EC000AFC18FEF97EEA3E081509040A040E1F7D3
:100ED000A5C1812F0E944D29A6C1812F8695869597
:100EE000837019F0813059F09EC1DD2019F0C801DE
:100EF000937002C080E090E00E94981D9AC1DD20AE
:100F000019F0C801937002C080E090E00E94821D39
:100F100090C1812F837009F069C0D11088C1902FD2
:100F2000929596959770990F990F802F8F70882EB4
:100F3000912CA12CB12C092E04C0880C991CAA1C40
:100F4000BB1C0A94D2F704FF12C04FE050E060E0EF
:100F500070E004C0440F551F661F771F9A95D2F7A3
:100F6000DB01CA0180959095A095B09503C080E003
:100F700090E0DC0116951695412F4370423019F12F
:100F8000C8F40091EA021091EB022091EC0230913A
:100F9000ED02413059F088299929AA29BB29BC01C1
:100FA000CD0160237123822393230AC0802A912AD2
:100FB000A22AB32ABC01CD01682979298A299B2953
:100FC0000E94FD2834C188299929AA29BB290091AA
:100FD000EA021091EB022091EC023091ED02BC018B
:100FE000CD016027712782279327EACFDD2019F0F2
:100FF000812F817001C08695882309F418C1902F34
:10100000929596959770990F990F802F8F70882ED3
:10101000912CA12CB12C092E04C0880C991CAA1C5F
:10102000BB1C0A94D2F704FF12C04FE050E060E00E
:1010300070E004C0440F551F661F771F9A95D2F7C2
:10104000DB01CA0180959095A095B09503C080E022
:1010500090E0DC0116951695412F43704230D9F08F
:1010600068F50091D4041091D5042091D6043091F4
:10107000D704413059F088299929AA29BB29BC01F4
:10108000CD0160237123822393231EC0802A912ADD
:10109000A22AB32A13C088299929AA29BB29009119
:1010A000D4041091D5042091D6043091D704BC010A
:1010B000CD01602771278227932706C0BC01CD018F
:1010C000682979298A299B290E94A828B0C01F7005
:1010D000DD2039F0812F0E94DB28802F0E945429C7
:1010E000A6C0802F0E944D29812F0E94B5289FC045
:1010F000802FB2EF9B1609F441C0B91538F0E0EF2C
:101100009E1659F0F1EF9F16A1F175C023EF9216CC
:10111000E1F134EF931649F16EC0DD2009F1B11011
:1011200082C01F7181E090E0A0E0B0E0AC01BD01A1
:1011300004C0440F551F661F771F1A95D2F7809180
:10114000D4049091D504A091D604B091D7048A011B
:101150009B01082719272A273B27C901B80129C065
:1011600021E02B1508F45FC0DCCF8091630482FD81
:1011700023C0DD2029F0812F8F7130C0DD20D9F30D
:10118000812F8F710E94B5284EC0DD2079F01F712C
:1011900081E090E0A0E0B0E0BC01CD0104C0660FAA
:1011A000771F881F991F1A95D2F703C060E070E07F
:1011B000CB010E94A82837C0DD2099F01F71812F34
:1011C0000E94DB288091630482FF07C038E0139FF0
:1011D000C001112483608093C802812F0E94DB2804
:1011E00022C081E00E94320C81E08B15E0F482E0A5
:1011F0000E94320C18C0DD2029F0BB2009F4BBCFBF
:10120000802F1ECEBB2009F4BBCF893349F49FEF5A
:10121000A7EEB3E09150A040B040E1F700C000005D
:10122000802F0E945E2988EF8A0D843010F40E947E
:10123000AE1DCC20A9F08091C80280FD11C0F7013D
:1012400012828595859585950E94DB28C7010E94AD
:10125000F2038091C8028595859585950E94B528F1
:1012600085E0F701DE01119601900D928A95E1F774
:1012700009811A81C8010E943D28B8010E94AB096A
:1012800021C08091C8028770E9F0D70112968C9135
:101290008823C1F08091630482FF14C082E00E9421
:1012A000320C10C00F3A2DE5120709F42ECB003B8B
:1012B0003DE5130709F471CB033C8CE5180709F0F1
:1012C000B0CB95CB2A96ECE00C94552B80E008959A
:1012D0009091620492FF0DC0282F2871283019F4D4
:1012E000877F846006C0282F2471243011F48B7FFF
:1012F000886093FF0DC0282F2871283119F4877E4C
:10130000846106C0282F2471243111F48B7E8861FA
:101310002091630420FF0DC0382F3871383019F444
:10132000877F816006C0382F3171313011F48E7F94
:10133000886021FF0DC0282F2871283119F4877E7D
:10134000816106C0282F2171213111F48E7E8861C0
:1013500094FD877E08957E30A0F4663090F494E585
:10136000899FF001112486E0789FE00DF11D112482
:10137000E60FF11DEE0FFF1FEC50FF4F859194918A
:10138000089580E090E00895CF93DF93823891052F
:1013900069F1B0F48133910509F46FC048F48932E2
:1013A000910509F465C08A32910509F46BC08AC0C1
:1013B0008533910509F457C089339105B9F082C08E
:1013C000833E910571F138F4803E9105B1F0823E83
:1013D000910511F177C0863E9105B9F1873E9105DF
:1013E000C9F1843E910509F06DC024C020916204CA
:1013F00020FD53C021FD51C065C08091620480FD75
:1014000046C08091630480FF48C08091620484FDDF
:101410003FC183EE90E03EC18091620482FF3AC0FA
:10142000F4CF8091620482FD35C08091630480FD19
:1014300034C0EBCF8091630481FF35C0809162049A
:1014400084FD26C187EE90E025C18091620483FF70
:1014500027C0F4CF8091620483FD22C08091630491
:1014600081FD21C0EBCF8091620485FD1FC021C0AA
:101470008091620485FD1DC019C08091620486FDC3
:101480001BC01DC08091620486FD19C015C089E390
:1014900090E000C182EE90E0FDC080EE90E0FAC0E6
:1014A00086EE90E0F7C084EE90E0F4C089E290E030
:1014B000F1C085E390E0EEC08AE290E0EBC081E30A
:1014C00090E0E8C0811532E5930708F069C0811506
:1014D00041E5940728F0982F8827816F906ADAC039
:1014E000883E910568F5803E910508F0D3C0883AA2
:1014F0009105B8F4853A910548F0855AE82FF0E057
:10150000E05BFE4F808190E09064C4C08130910523
:1015100009F4BBC008F4BCC08430910508F4B8C01D
:10152000B9C08F3B910508F0B3C0885AE82FF0E0AE
:10153000EE0FFF1FED5AFE4F808191819464AAC087
:10154000811520E59207F0F09C0174E0369527950F
:101550007A95E1F7922F9370482F437021E030E0A5
:1015600002C0220F331F4A95E2F73C68392B8F7077
:10157000982F9695969540E2949FC0011124822B56
:10158000932B88C0811530E4930718F09F70906A00
:1015900081C09C013A9521153F4108F47BC078C079
:1015A000EC01C11586E5D807E8F5C11525E5D20798
:1015B00048F08C2F0E9468098F7190E0982F88273F
:1015C000906268C0C11534E5D30728F09C2F8827A6
:1015D000846F906A5FC0AE01437055272C2F26950B
:1015E0002695C115D34578F481E090E002C0880FBC
:1015F000991F4A95E2F740E2249F90011124822B23
:10160000932B9C6847C081E090E002C0880F991F2F
:101610004A95E2F740E2249F90011124822B932BFC
:101620009A6838C0C1152AE5D207F8F4C11539E522
:10163000D30790F08C2F8F700E94680994E0D695A4
:10164000C7959A95E1F7CF70D0E0DC2FCC27D06911
:101650009E01282BC9011EC0C11548E5D407C0F062
:101660009C2F8827806F906A15C0CE0190568115F7
:10167000904270F48D2F8F710E946809282F2F716E
:10168000CE0199279062922B05C081E090E002C0C4
:1016900080E090E0DF91CF91089568EE7EEF80E0EA
:1016A00090E00E94212C60E082E090E00E94032CF8
:1016B00060E083E090E00E94032C1092EA02109216
:1016C000EB021092EC021092ED0260E084E090E0F8
:1016D0000E94032C64E082E290E00E94032C60E010
:1016E00085E090E00E94032C60E086E090E00E949C
:1016F000032C6FEF87E090E00E94032C40E050E065
:10170000BA0188E090E00E94152C60E08DE090E046
:101710000E94032C40E050E0BA0188E190E00E9472
:10172000152C60E087E190E00E94032C40E050E03F
:10173000BA018CE190E00E94152C60E070E080E23C
:1017400090E00E94212C40E050E0BA0188E190E056
:101750000E94152C1092D8041092D9041092DA0429
:101760001092DB0484E08093D8044091D804509117
:10177000D9046091DA047091DB048FE090E00E945C
:10178000152C40E050E0BA0183E190E00E94152C56
:1017900008958091E90281111092E90208958095DF
:1017A00090915604892380935604089580959091D2
:1017B0006804892380936804089590916804809157
:1017C0005604982B909370028091E9028823D9F0F7
:1017D000892B8093700280913601882331F08091AB
:1017E000620487FF02C08EE101C086E0E2E7F2E01A
:1017F00090E0815028F021912223D9F39F5FF9CF07
:1018000091110E94C90B40E250E069EC72E080E760
:1018100092E00E94612F892B21F180E2E0E7F2E063
:10182000A9ECB2E001900D928A95E1F7E09159049C
:10183000F0915A043097A9F080913601882359F02D
:101840008091620487FF07C08091700280937102CB
:1018500086E0809370020280F381E02D80E792E0C1
:10186000099508952091C802809582238093C8022B
:10187000982F977099F430E0482F082E000C550BE4
:101880002417350759F09091630492FF07C085959E
:10189000859585950E94B5281092C8020895CF932A
:1018A000C0916304C2FB992790F9981791F080FBCF
:1018B000C2F9C09363046091620484E090E00E94E6
:1018C000032C6C2F82E290E00E94032C82E00E94A5
:1018D000320CCF9108958091C7029091960289179A
:1018E00019F08F5F8770FBCF08950F931F93CF93ED
:1018F000DF938091950282958F7009F05AC0809194
:101900009202882309F455C08091C7021091960273
:101910006091900270919102C0919302D0919402D3
:1019200091E06F3F09F090E0292F06E0811709F45C
:1019300040C0209721F07F3F21F030E003C031E02C
:1019400001C0322F90E030FD31C0089FF001099FA7
:10195000F00D1124DF01A956BD4F11963C9111974E
:10196000371324C03C91361321C012963C91129734
:1019700031111CC013964D915C9114974C1B5D0B5B
:10198000483C510598F4809195028F708061809356
:101990009502E456FD4F80818F708061808380E9DD
:1019A00092E00E94F2030E946B0C03C001968770C4
:1019B000BDCFDF91CF911F910F910895A1E1B0E0CC
:1019C000E4EEFCE00C943A2B8C0185E0F801DE019A
:1019D0001D9601900D928A95E1F7F801E2809091B1
:1019E00090026091910240919302509194024115AE
:1019F000510531F06F3F31F481E09F3F19F403C08E
:101A000081E001C080E0F82FF1709F2E80FD1BC1A6
:101A1000F80130812181C380D48080E9A82E82E042
:101A2000B82EF0909202F601E41BF50BFF2009F4AA
:101A3000C7C080919502E83CF10508F092C0482F9C
:101A4000407F09F051C0621311C093130FC0FE2CE8
:101A5000E1100CC08F70806180939502C5010E94D7
:101A6000F20380919502F80185832AC1C114D10443
:101A700031F02F3F31F481E03F3F19F403C081E0A2
:101A800001C080E080FD03C081E08E2502C080E0BF
:101A900090E0F82FF170FF2E80FF1CC08091C702EC
:101AA0004091960256E0841709F4E8C090E0589FF0
:101AB000F001599FF00D1124E956FD4F6181261365
:101AC00006C06081631303C06281E61203C0019601
:101AD0008770E9CFFE2CEE2009F4F2C080919502C8
:101AE00081608093950249C0621306C0931304C0BD
:101AF000E11002C0F80186C0C8010E9408298823AD
:101B000051F1EE2041F120919502822F82958F7044
:101B100090E0029774F080919002909191029887E2
:101B20008F831986DB86CA862C87CE0107960E9492
:101B3000F20386E0F801A0E9B2E001900D928A95E7
:101B4000E1F70E94750C0AC06217C9F0C8010E9433
:101B5000082981111EC0C8010E94F203FF24F394DA
:101B6000AFC0482F407F81F780E992E00E94F203E6
:101B700086E0F50111928A95E9F7F12CA1C0931343
:101B8000E5CFE110E3CFF8018583C8010E94F2039D
:101B900054C0EE2001F320919502822F82958F7020
:101BA00090E0029734F280919002909191029A8392
:101BB00089831B82DD82CC822E83CE010196B7CF32
:101BC000E83CF105D0F5FE2CEE2029F2621327C087
:101BD000931325C02091950220FD18C0822F829575
:101BE0008F70482F50E04115510581F0F801258391
:101BF0004F30510541F08F5F982F9295907F822F43
:101C00008F70892B8583C8010E94F20386E0F8015A
:101C1000A0E9B2E001900D928A95E1F751C0C801A8
:101C20000E940829811185CF80919502816080935F
:101C30009502C8010E94F20343C086E0F5011192AB
:101C40008A95E9F73DC0EE2009F485CFC8010E94CE
:101C50000829F82E882309F47ECF86E0F801A0E950
:101C6000B2E001900D928A95E1F7809190029091F7
:101C700091020E9430280E94750C22C03D872E8759
:101C80008D859E850E943028292F22952F70223025
:101C900028F49F7039F0811105C00BC0243028F45E
:101CA0009F7049F4805E883020F0C8010E94F203E2
:101CB0009F2CF92C05C0F8019581907F99F7F9CFF9
:101CC0008F2D6196EBE00C94562BA0E0B0E0EBE694
:101CD000FEE00C943C2B8091470190914801892BA8
:101CE000A1F08091EE028F5F8093EE0281110DC012
:101CF0000E94161890E09093480180934701892B29
:101D000021F40E948D180E942E2704EA14E0780125
:101D1000B12CC0E087E0C82ECC0E8C2F0E94FD189D
:101D20008C2D0E94FD188C2F0E9460198F73F70173
:101D30009081891721F08083DD24D39401C0D12CB8
:101D40008C2D0E9460198F73F7019781891719F004
:101D5000878381E001C080E0D82ABD280E94511904
:101D6000CF5FFFEFEF1AFF0AC730A1F6C091F20272
:101D7000CC23C9F10E94251D2091F0023091F1027F
:101D8000AC01421B530B9A019093F1028093F00235
:101D90004F3F510509F020F4452B09F454C002C00F
:101DA0002FEF30E01092F2021092EF02E091A204C5
:101DB000F091A304AF01425F5F4F90E030E080817B
:101DC000882341F0281718F010829C2F03C0821B33
:101DD00080833C2F3196E417F50789F73093F202A0
:101DE0009093EF0230C0BB2031F10E94251D9093EB
:101DF000F1028093F002E091A204F091A30480919B
:101E0000F202A2EBB4E09F01225F3F4F4EE1E801F6
:101E100099918E015C91591731F05081511103C095
:101E200040839C9381E031961196E217F30779F78E
:101E30008093F2020CC080E09091EF02992339F078
:101E40008111D9CFD2CFB110D6CF81E0F5CF8B2D74
:101E5000CDB7DEB7E9E00C94582B0F931F9310E039
:101E6000F801EE0FFF1FE352FE4F9081905797FD50
:101E70009195000F111FF801E252FE4FE081F0E052
:101E8000B097DF01AA0FBB1F8D010E0F1F1F20038C
:101E9000D001219FB00D1124E8E3F0E0E91BF10926
:101EA00097FDF3959F01220F331F89010E0F1F1F0E
:101EB00040039001419F300D11242A0F3B1F37FF33
:101EC00002C021583F4F220F232F221F330B620FD6
:101ED0001F910F9108950F931F93522F10E0F80157
:101EE000EE0FFF1FE252FE4FE081F0E0B097EE0FE1
:101EF000FF1F9F015203D001539FB00D1124000F0B
:101F0000111FF801E352FE4F008110E00057110944
:101F1000000F111F40039001419F300D11242A0F23
:101F20003B1F37FF02C021583F4F220F232F221F94
:101F3000330B620F1F910F9108950F931F93522F30
:101F400010E0F801EE0FFF1FE252FE4FE081F0E0DB
:101F5000B0979F015203D001539FB00D1124000F81
:101F6000111FF801E352FE4F008110E000571109E4
:101F700040039001419F300D11242A0F3B1F37FF72
:101F800002C021583F4F220F232F221F330B620F15
:101F90001F910F910895EF920F931F9393E0099F64
:101FA00080011124159507956E2D600F1F910F91DB
:101FB000EF900895A22F50E0FA01EE0FFF1FE252BA
:101FC000FE4F9081905297FD9195440F551FFA0155
:101FD000E352FE4F3081232F30E02A1B3109290FB5
:101FE000311D97FD3A95620F0895E42FF0E0EE0F52
:101FF000FF1FE252FE4F6081621B0895E42FF0E064
:10200000EE0FFF1FE352FE4F6081621B0895E42F25
:10201000F0E0EE0FFF1FE352FE4F408134EE439F8E
:10202000412D1124E82FF0E050E0445E5F4FDA01CB
:10203000A21BB1099D01B7FF03C03195219531095C
:1020400093E0220F331F9A95E1F7AF01421B530B28
:102050009A0157FF02C020E030E0582F259F212D24
:102060001124822F0895E42FF0E0EE0FFF1FE352BA
:10207000FE4F408134EE439F412D1124E72FF0E0C5
:1020800050E0445E5F4FDA01A21BB1099D01B7FF2A
:1020900003C031952195310993E0220F331F9A95A2
:1020A000E1F7AF01421B530B9A0157FF02C020E03A
:1020B00030E0279F212D1124722F0895FC019B01F0
:1020C000009721F477FF2BC080E80895AC0197FFBB
:1020D00004C044275527481B590BB901640F751FCD
:1020E00037FD0CC0241B350BC901A5E0880F991FD3
:1020F000AA95E1F70E94262E80E20CC0CB0165E094
:10210000880F991F6A95E1F7BA01621B730B0E9451
:10211000262E80E6861BF7FF03C08195089580E098
:102120000895EF920F93CF93DF93D72FC82FC90154
:102130000E19BA010E945E10602F681B7D2F8C2F34
:10214000DF91CF910F91EF9008950F93CF93DF938D
:10215000D72FC82FC901BA010E945E10682F600FE7
:102160007D2F8C2FDF91CF910F910895EF920F93D8
:102170001F93CF93DF93D62FC72F182FC9010E19A6
:10218000010FBA010E945E10081B202F219F212DF4
:102190001124822F6D2F7C2FDF91CF911F910F91F2
:1021A000EF900895EF920F931F93CF93DF93D62F65
:1021B000172FC82FC9010E19070FBA010E945E1010
:1021C000702F781B719F712D11246D2F8C2FDF9133
:1021D000CF911F910F91EF900895FF920F931F934E
:1021E000CF93DF93F62ED72F182FC901C12FC01B15
:1021F000BA010E945E10982F990F890FC81B2C2FCF
:10220000219F212D1124822F6F2D7D2FCDB7DEB779
:10221000E5E00C945C2BFF920F931F93CF93DF9319
:10222000F62E172FD82FC901C72FC01BBA010E9445
:102230005E10982F990F890F7C2F781B719F712D3D
:1022400011246F2D8D2FCDB7DEB7E5E00C945C2BFC
:102250000E945D1A08950E941F1A0895ECE9F4E0A7
:1022600081E3808380914D0190914E01A0914F01B7
:1022700081839283A3838CE384838FEF858346E0FD
:1022800050E06CE170E0CF010E94F32B10929B04B0
:102290000895482F982F46FD9095E92FEF739F7072
:1022A00046FD9F5FE295EF70EE0FF0E0EF57FE4FB7
:1022B0002181299F802D212D112482958F702295B7
:1022C000207F822B3081982F930F892F47FD819596
:1022D00080580895BC018230910508F40895613E4C
:1022E0008EE1780748F49B0195E0369527959A95FD
:1022F000E1F748E0420F01C04FEF91E0242F30E0BA
:10230000290F311D35952795229FF001239FF00D50
:10231000F00D11246E177F0718F44FEF420F04C021
:102320002F3F39F091E0920F491740F78FEF890F57
:1023300008958FEF08950F93CF93DF93D72FC82F72
:1023400047FD4195E8E3F0E0CF01841B910947FD8B
:102350009395889FB001899F700D700D1124229F65
:10236000C001239F900D900D1124860F971F0E948E
:102370006A11682F660F860F682F600F7D2F8C2FD4
:10238000DF91CF910F91089520E030E0869F212DBD
:10239000969F200D311D1124C9010895A0E0B0E0E1
:1023A000E4EDF1E10C943D2BF62E472FE82FF0E001
:1023B000711106C0E451FD4F8491782F682F73C0CE
:1023C000272F30E0E451FD4FE491FE2F0E2F10E057
:1023D00056E0659FC0011124CFEFD0E0BE010E94FE
:1023E0001F2B5BEA5603C001579F900D11248F0DE0
:1023F000911D8F0D911D982F990F980F7E01E21A54
:10240000F30AE09ED001E19EB00DF09EB00D1124C4
:102410008B2F499FA0011124452F55277E01E41AD7
:10242000F50AE09EA001E19E500DF09E500D112492
:102430006E01C91AD108C29E7001C39EF00CD29ED3
:10244000F00C11242F2D3327C21BD30BC09F9001FA
:10245000C19F300DD09F300D1124932F6230710534
:1024600091F048F461157105E1F061307105B9F43E
:102470009E2FE52F16C06430710569F040F066307C
:10248000710579F00CC09E2FEB2F832F0AC0EB2F24
:102490008F2F952F06C09B2F8E2FE32F02C09B2FCF
:1024A000852F7E2F692FCDB7DEB7E8E00C94592B2E
:1024B000A0E0B0E0EEE5F2E10C943C2BC82F809157
:1024C0004C018C130DC020919C04237030E040918E
:1024D0004B0150E081E02417350719F480E001C07A
:1024E00081E08170809339018091A104909138013D
:1024F000981739F08093380140E060E080E00E9456
:102500002811CC3029F48EEF9FE00E940A2039C0B8
:10251000CD3008F097C1C53009F447C008F06FC14D
:10252000C23009F085C080913701D82FDD0FDD0F53
:10253000D80FA5E0EA2EED0E20E32E1510F4F0E3FF
:10254000EF2E00919E0410919F04F0909D046F2D3A
:10255000702F812F0E94CE11D62EC72EB82E6091DB
:10256000A0046F0D702F812F0E94CE11162F072F00
:10257000F82EDE1508F48CC081E03FE23E1508F429
:1025800085C0909137019F5F90933701811148C2B8
:1025900082E080933A0180913901811141C2C111D9
:1025A0003FC283E080933A013BC280913701D82F2C
:1025B000DD0FDD0FD80F15E01D0F113308F010E30C
:1025C000F0909D0400919E04E0909F046091A0040F
:1025D00066956695669580919704909198040E94FF
:1025E000C4110E944911805887FD8195880F282FBA
:1025F0003E2D239F212D1124822F6F2D702F0E949D
:10260000CE11062FF72EE82ED11790F5ED2FF0E022
:10261000DF01A35CBD4F8C9190913801982331F07C
:102620002E2D402F6F2DCF010E942B11DF5FECCF9D
:10263000C33008F056C0CC2301F1C13009F058C0B6
:1026400080913701D82FDD0FDD0FD80F15E01D0F5A
:10265000113308F010E360919D0470919E04809105
:102660009F040E94CE11062FF72EE82ED11738F1C5
:1026700081E0103308F485CF09C0809139018823A7
:1026800029F040E060E080E00E94281180E079CFEE
:102690008D2F90E0FC01E35CFD4F308120913801EB
:1026A000232359F030FF04C02F2D412F602F03C08A
:1026B0002B2D4D2D6C2D0E942B11DF5F5ACFED2F4E
:1026C000F0E0DF01A35CBD4F8C919091380198231D
:1026D00031F02E2D402F6F2DCF010E942B11DF5F87
:1026E000C5CF80913701C33049F0C43009F44AC0E6
:1026F000809137018F5F809337014ACFD82FDD0F4C
:10270000DD0FD80FE5E0FE2EFD0E80E38F1510F4EF
:1027100070E3F72ED0909E04C0909F042091A004F7
:1027200060E4E62E3E2D329F312D1124E32EDF157D
:1027300018F50D2F10E0F801E35CFD4F90818091BA
:1027400038018923B9F0F801EE0FFF1FE252FE4F66
:10275000808182958F7060919D048E9D600D112403
:102760007D2D8C2D0E94CE11462F282F672FC8015A
:102770000E942B11DF5FDBCF81E09FE29F1508F005
:1027800000CF84CFD82FDD0FDD0FD80F15E01D0F40
:10279000113308F010E3D0909E04C0909F04209164
:1027A000A00400E4029F012D1124D11708F060CF8E
:1027B000ED2EF12CF701E35CFD4F90818091380103
:1027C0008923D9F0F701EE0FFF1FE352FE4F60811E
:1027D000069FB001112445E0759567954A95E1F78C
:1027E00080919D04680F7D2D8C2D0E94CE11462F67
:1027F000282F672FC7010E942B11DF5FD6CFC8306B
:1028000051F48BE091E104C0CB30B8F48DEE90E14F
:102810000E94B41FB6CEC93058F4C63019F483E311
:1028200090E173CEC73009F063CF87E090E16DCEC1
:10283000CA3051F782ED90E102C086EB90E10E9430
:10284000381F9FCEC23119F481E990E1F8CFC3312E
:10285000E8F4CF3019F48BEC9FE0F1CFC03158F49D
:10286000CD3019F485EF9FE050CECE3009F040CF47
:102870008AED9FE04ACEC03119F48BE991E1C8CFCF
:10288000C13109F035CF85EA90E1C2CFC53129F4D5
:102890008DE29FE00E94E31E74CEC63158F4C3312E
:1028A00019F48DE99FE0F6CFC43109F021CF8BE612
:1028B0009FE0F0CFC73109F040C08091390181110C
:1028C0001EC06091A00420E1620F08F46FEF8091B8
:1028D0009704909198040E94C41165E070E00E94F2
:1028E0001F2B892B09F0D2CE0E94B62B60E370E03B
:1028F0000E94262E609138010E94C226C7CE809188
:102900003701082F000F000F080FD5E0D00FD1338B
:1029100008F0D0E310E0ED2EF12C0E151F0544F465
:1029200060913801C8010E94C2260F5F1F4FF5CF8A
:1029300081E0D03308F425CEA9CEC73108F03CC0E1
:102940008091390181111EC06091A00420E1620FC5
:1029500008F46FEF80919704909198040E94C4113D
:102960006AE070E00E941F2B892B09F08FCE0E9435
:10297000B62B60E370E00E94262E609138010E9421
:10298000E62684CE80913701082F000F000F080F34
:10299000D5E0D00FD13308F0D0E310E0ED2EF12CCC
:1029A0000E151F050CF0C4CF60913801C8010E94BC
:1029B000E6260F5F1F4FF4CFCF3F09F099CE8091ED
:1029C000970490919804A0919904B0919A04882753
:1029D0009C70AA27BB272AE0B695A795979587955F
:1029E0002A95D1F782309105A105B10571F08330A8
:1029F0009105A105B10569F040E00197A105B10578
:102A000011F060E008C064E102C044E160E080E0F1
:102A100003C044E164E184E10E94281182E0C2CD58
:102A2000CDB7DEB7E9E00C94582B9C013A952115FF
:102A30003F4130F5BC0166277270AC0144275470E9
:102A40009C012227387094FF0FC090FF02C080E1E4
:102A500001C080E0672B09F08062452B09F080649B
:102A6000232B79F080680895892F8170672B09F0F6
:102A70008260452B09F08460232B19F0886008954B
:102A800080E00895FC018081813041F491859111AD
:102A900014C09285992389F082E00895823041F430
:102AA0008185811107C08285811106C083E0089568
:102AB00086E0089585E0089584E00895CF93DF933C
:102AC000EC010E945E29CE01805E9109089710F00A
:102AD000209731F4CE010E9415150E944D2905C0A2
:102AE000CE010E9415150E943C29DF91CF910895D7
:102AF000CF93DF93EC01805E9109089710F0209747
:102B000031F4CE010E9415150E94542905C0CE0152
:102B10000E9415150E9443298C2F0E948A29DF915B
:102B2000CF910895CF93DF93EC010E947815C933BC
:102B3000D10549F42FEF87EE93E02150804090407B
:102B4000E1F700C00000CE010E945E15DF91CF9139
:102B50000895CF93DF93EC018881833061F481E2A3
:102B600092E00E94921581E292E00E94921581E229
:102B700092E00E9492158881843020F081E292E0F8
:102B80000E949215DF91CF910895CF93DF93EC01CE
:102B90008881833061F483E292E00E94921583E29F
:102BA00092E00E94921583E292E00E949215888141
:102BB000843020F083E292E00E949215DF91CF9161
:102BC00008958FE39CE90197F1F700C00000809120
:102BD000F702823049F018F4813051F00DC0833093
:102BE00039F0853029F008C081E00E94B52804C082
:102BF00081E292E00E945E151092F70208958FE341
:102C00009CE90197F1F700C000008091F502823045
:102C100049F018F4813051F00DC0833039F085301F
:102C200029F008C081E00E94B52804C083E292E048
:102C30000E945E151092F50208950E94421580933D
:102C4000F702823049F018F4813099F0089583300A
:102C500039F0853051F0089581E00E94DB28089515
:102C600081E292E00E94781504C081E292E00E9425
:102C7000921581E292E00E94781508950E94421513
:102C80008093F502823049F018F4813099F008956C
:102C9000833039F0853051F0089581E00E94DB28BF
:102CA000089583E292E00E94781504C083E292E0E6
:102CB0000E94921583E292E00E9478150895A7E1A0
:102CC000B0E0E5E6F6E10C94422B4B8B5C8B6D8B10
:102CD0007E8B8F8B61111092560486E09E01235FDC
:102CE0003F4FD901E82F1D92EA95E9F795E0FE01E3
:102CF0007396D90101900D929A95E1F79C894E89BE
:102D00005F897B897D879E876F87598B488BF90107
:102D1000DE01179601900D928A95E1F7CE01079694
:102D20000E94DE0C81113EC086E0FE013796DE0176
:102D3000119601900D928A95E1F7FF81E8856A85E9
:102D40007B856115710531F0EF3F31F481E0FF3F84
:102D500019F403C081E001C080E080FD23C0209110
:102D6000960230E0C9010196877099274091C70209
:102D700050E08417950779F1F983EA837D836C83AA
:102D800096E0929FD001939FB00D1124A956BD4F9C
:102D9000FE01319601900D929A95E1F7809396028B
:102DA0000E946B0C16E08091C702909196028917E1
:102DB00009F1189FC001112489569D4F0E94DE0C15
:102DC0008823C1F08091C70290E00196877099270F
:102DD0008093C702E8CF109268040E9428291092BD
:102DE00096021092C702E0E9F2E086E0DF011D9250
:102DF0008A95E9F76796E3E00C945E2BCF92DF9219
:102E0000EF92FF926C01EE24FF24C114D104E1047F
:102E1000F10421F0C701B60120E101C020E0C72E76
:102E2000D82EE92EFF24C114D104E104F10419F0D5
:102E3000285FC701B6016B017C0154E0F694E7946A
:102E4000D794C7945A95D1F7C114D104E104F10481
:102E500019F02C5FC701B6016B017C0142E0F694CA
:102E6000E794D794C7944A95D1F7C114D104E104EB
:102E7000F10419F02E5FC701B601DC01CB01B69554
:102E8000A79597958795892B8A2B8B2B09F02F5F18
:102E9000822FFF90EF90DF90CF90089510926804FA
:102EA0000E9428292FEF84E39CE02150804090402D
:102EB000E1F700C000009AE088E10FB6F894A89509
:102EC000809360000FBE90936000FFCFCF92DF929F
:102ED000EF92FF926B017C010E94FE1656985E985D
:102EE00025982D9826982E9827982F9890E0FC01E9
:102EF0003197E730F105A8F4EE59FF4F0C943A2EC4
:102F0000259A2D9A0EC0259A2D9A269A2E9A09C096
:102F1000259A2D9A04C0259A2D9A269A2E9A279A98
:102F20002F9AC701B601FF90EF90DF90CF900895E0
:102F3000A0E0B0E0EEE9F7E10C94342B20E9289F03
:102F40007001299FF00C1124C0E0D0E000E010E0F7
:102F500067018FEFC81AD80A570182E0A80EB11C8A
:102F6000F701EC0FFD1FE451FC4F6491F601EC0FEB
:102F7000FD1FE451FC4F7491F501EC0FFD1FE4516E
:102F8000FC4F8491611107C0711105C0811103C00C
:102F900020E040E03CC00E94CE11962E372E882EB5
:102FA00060919F0470E080E090E00E942B2D20E073
:102FB00030E04FE753E40E948A2C2B013C01682D3E
:102FC00070E080E090E00E942D2DA30192010E940C
:102FD000B92D0E94FC2C862E692D70E080E090E0D7
:102FE0000E942D2DA30192010E94B92D0E94FC2C5C
:102FF000962E632D70E080E090E00E942D2DA301BD
:1030000092010E94B92D0E94FC2C282D492DC80147
:103010000E942B110F5F1F4F2396C039D10509F075
:103020009FCFCDB7DEB7E1E10C94502B80E290E06A
:1030300090934801809347018091F30281110EC063
:103040000E942A2A81E08093F3022FEF83ED90E320
:10305000215080409040E1F700C0000064E670E03D
:1030600080E40E94302A9093480180934701892B85
:1030700009F04EC064E670E080E00E94A52A9093BB
:10308000480180934701892B09F042C064E670E053
:1030900080E00E94A52A9093480180934701892BE4
:1030A000B9F564E670E08FE30E94A52A9093480189
:1030B00080934701892B61F50E941B2B64E670E029
:1030C00080E40E94302A9093480180934701892B25
:1030D000F9F464E670E08CE00E94A52A9093480120
:1030E00080934701892BA1F464E670E080E00E94A0
:1030F000A52A9093480180934701892B49F464E6FF
:1031000070E08FE30E94A52A9093480180934701C5
:103110000E941B2B809147010895CF93DF9356980F
:103120005E9825982D9826982E9827982F98C8E86D
:10313000D0E08FEF90E099838883AAE8B0E0119601
:103140009C938E93ECE8F0E091838083259A2D9AEE
:103150002FEF80E792E0215080409040E1F700C0DF
:103160000000269A2E9A2FEF80E792E021508040AF
:103170009040E1F700C00000279A2F9A2FEF80E7D8
:1031800092E0215080409040E1F700C00000259877
:103190002D982FEF80E792E0215080409040E1F79A
:1031A00000C0000026982E982FEF80E792E0215073
:1031B00080409040E1F700C0000027982F98809150
:1031C000D80487702FEF829FC001112495958795B1
:1031D0009595879599279983888311969C938E93CB
:1031E0009183808356985E9825982D9826982E98DE
:1031F00027982F98DF91CF910895CF93E82F8730AC
:1032000080F58091470190914801892B09F047C0D2
:10321000CE2F64E670E080E40E94302A909348014B
:1032200080934701892BD1F464E670E082E10E942B
:10323000A52A9093480180934701892B79F481E076
:1032400090E001C0880FCA95EAF764E670E08095C7
:103250000E94A52A90934801809347010E941B2B4E
:103260001EC090E0FC013797E730F105C0F4E75944
:10327000FF4F0C943A2E209A289811C0219A299831
:103280000EC0229A2A980BC0239A2B9808C0529AF3
:103290005A9805C0539A5B9802C03E9A4698CF91BF
:1032A0000895209828982198299822982A98239858
:1032B0002B9852985A9853985B983E984698089540
:1032C000CF93873040F58091470190914801892B39
:1032D00059F564E670E081E40E94302A9093480139
:1032E00080934701892B11F0C0E011C084E690E083
:1032F0000E94D52A97FF05C090934801809347010B
:10330000F3CFC82FC09510924801109247010E9438
:103310001B2B8C2F0AC09FB18FB1807F869586951D
:103320009370892B809501C080E0CF91089580989B
:10333000889A8198899A84988C9A85988D9A86988B
:103340008E9A87988F9A08950895089580916A04B7
:10335000089580936404709366046093650480917B
:103360008D04843001F582E08093E9008FEF909125
:10337000E800815095FD06C095ED9A95F1F70000A3
:103380008111F5CF8091E80085FF0DC040E050E04D
:1033900063E070E084E694E00E9464208091E8009D
:1033A0008E778093E8000895BC0184E00E94A919FB
:1033B0000895BC0183E00E94A9190895CF93DF937B
:1033C00020913601222339F02091620427FF03C0A7
:1033D00060E222E002C068E021E02093E9002FEFE4
:1033E0003091E800215035FD06C035ED3A95F1F7F2
:1033F00000002111F5CF2091E80025FF1DC0EC0150
:1034000080913601811105C040E050E068E070E035
:1034100003C070E040E050E0CE010E946420809143
:10342000E8008E778093E80080E2FE01ABE6B4E02E
:1034300001900D928A95E1F7DF91CF910895A4E074
:10344000B0E0E5E2FAE10C94402B8033910588F579
:10345000122F042FF62EBC01660F771F660F771F01
:1034600064567A4F44E050E0CE0101960E94C62B8C
:10347000898183704A81282F30E050E9859FC001FF
:103480001124825F9C4FFC01E40FF11DB497F08280
:103490004B81FC01E40FF11DB49700834C81840F34
:1034A000911DFC01B4971083F901E45FFC4F81E0AA
:1034B00080832496E5E00C945C2BFF920F931F937E
:1034C000CF93DF93182F062FF42EC0E0D0E02F2DDE
:1034D000402F612FCE010E941F1A2196C033D105C3
:1034E000B1F7CDB7DEB7E5E00C945C2B1F920F92DD
:1034F0000FB60F9211242F933F934F935F936F93C7
:103500007F938F939F93AF93BF93CF93DF93EF936B
:10351000FF93C091E900CF708091EC00D82FD1705B
:1035200080FDD0E81092E9008091F000877F8093C1
:10353000F00078940E948E201092E9008091F000B3
:1035400088608093F000CD2BCF70C093E900FF918D
:10355000EF91DF91CF91BF91AF919F918F917F912B
:103560006F915F914F913F912F910F900FBE0F90F0
:103570001F901895E8EDF0E080818E7F8083109297
:10358000E2001092DA001092E100A0EEB0E08C911F
:1035900081608C9380818F77808319BCA7EDB0E028
:1035A0008C918E7F8C9380818F7E808310926704B4
:1035B00008952091E4003091E50095E64091EC00FB
:1035C000842F817040FF23C08091E80080FD1DC0E2
:1035D00080918D04882399F0853099F08091EB00DB
:1035E00085FD11C04091E4005091E5002417350796
:1035F00029F3915011F09A01E1CF84E0089582E01F
:10360000089583E0089581E0089580E00895409151
:10361000E80042FFDDCF089580918F0487FF11C03D
:103620008091E80082FD05C080918D048111F8CF62
:1036300011C08091E8008B770BC080918D048823A6
:1036400049F08091E80080FFF8CF8091E8008E7704
:103650008093E8000895982F973068F59093E900DB
:10366000981739F07091EC002091ED005091F00026
:1036700003C0242F762F50E021FD02C09F5FECCFC6
:103680003091EB003E7F3093EB003091ED003D7FB9
:103690003093ED003091EB0031603093EB0070938C
:1036A000EC002093ED005093F0002091EE0027FDF8
:1036B000E5CF80E008958F708093E90081E0089560
:1036C000A0E0B0E0E6E6FBE10C943D2BC8EDD0E0D5
:1036D00088818F7E8883E7EDF0E080818160808340
:1036E00084E082BF81E08093670488818E7F888335
:1036F00002EE10E0F80110821092DA0081EEC82E7E
:10370000D12CF601108288818F7788838881806828
:10371000888388818F7D888319BC10928D041092D4
:103720008E0410928C0410928B0490EEE92EF12CF2
:10373000F70180818B7F808388818160888342E06C
:1037400060E080E00E942B1BF60180818E7F8083E9
:10375000F801808181608083808188608083F701A7
:1037600080818E7F8083888180618883CDB7DEB73A
:10377000E8E00C94592B1F920F920FB60F92112470
:103780002F933F934F935F936F937F938F939F9369
:10379000AF93BF93EF93FF938091E10082FF09C045
:1037A0008091E20082FF05C08091E1008B7F8093D1
:1037B000E1008091DA0080FF2AC08091D80080FF6C
:1037C00026C08091DA008E7F8093DA008091D90044
:1037D00080FF18C080E189BD82E189BD09B400FE87
:1037E000FDCF81E080938D048091670481110FC02B
:1037F0000E94BA1A0E94601B8091E200846080934C
:10380000E20005C019BC10928D04109267048091EB
:10381000E10080FF17C08091E20080FF13C080911B
:10382000E2008E7F8093E2008091E20080618093CD
:10383000E2008091D80080628093D80019BC85E0B6
:1038400080938D048091E10084FF30C08091E2007C
:1038500084FF2CC080E189BD82E189BD09B400FEEE
:10386000FDCF8091D8008F7D8093D8008091E100BA
:103870008F7E8093E1008091E2008F7E8093E20052
:103880008091E20081608093E20080918E04882321
:1038900011F084E007C08091E30087FD02C081E061
:1038A00001C083E080938D0480918D048091E100BC
:1038B00083FF27C08091E20083FF23C08091E10055
:1038C000877F8093E10082E080938D0410928E04C4
:1038D0008091E1008E7F8093E1008091E2008E7FF5
:1038E0008093E2008091E20080618093E20042E0F8
:1038F00060E080E00E942B1B8091F0008860809344
:10390000F000FF91EF91BF91AF919F918F917F91C7
:103910006F915F914F913F912F910F900FBE0F903C
:103920001F9018952091950430919604261737071B
:1039300048F06115710539F42091E8002E77209345
:10394000E80001C0B901FC0120E06115710579F1C1
:1039500080918D048823F1F18530F1F18091E800A8
:1039600083FD3CC08091E80082FD2EC08091E8007C
:1039700080FFEBCF2091F3008091F20090E0922B3A
:103980006115710551F08830910538F4219120932B
:10399000F100615071090196F3CF21E0089709F019
:1039A00020E08091E8008E778093E800CECF21114F
:1039B000CFCF0AC080918D04882361F0853061F0FB
:1039C0008091E80083FD0AC08091E80082FFF2CF79
:1039D00080E0089582E0089583E0089581E00895ED
:1039E00078941F920F920FB60F9211248F939F938A
:1039F000AF93BF9380915E0490915F04A0916004A7
:103A0000B09161040196A11DB11D80935E04909355
:103A10005F04A0936004B0936104BF91AF919F9144
:103A20008F910F900FBE0F901F9018959C014FB76C
:103A3000F89480915E0490915F04A0916004B0912D
:103A400061044FBF821B930B08952FB7F8948091A8
:103A50005E0490915F04A0916004B09161042FBF57
:103A600008951F920F920FB60F9211248F939F9378
:103A7000AF93BF9380915D04811113C080915E0468
:103A800090915F04A0916004B09161044196A11DE2
:103A9000B11D80935E0490935F04A0936004B09383
:103AA0006104BF91AF919F918F910F900FBE0F90C6
:103AB0001F901895209136012223C9F020916204AD
:103AC00027FF15C0262F2695269526952E31C8F45A
:103AD000FC01E20FF11D677081E090E001C0880FEA
:103AE0006A95EAF780959281892382830895FC0183
:103AF00006962281621301C012823196E817F907F7
:103B0000C1F7089520915B0430915C0428173907B0
:103B100071F090935C0480935B04E0915904F09100
:103B20005A04309721F00084F185E02D099508951D
:103B300020915704309158042817390771F0909359
:103B4000580480935704E0915904F0915A04309737
:103B500021F00680F781E02D09950895E091590440
:103B6000F0915A04309729F00190F081E02D0995E9
:103B7000089580E00895CF93DF93EC0181E0898B75
:103B8000909168048F81892B8093680490915604EA
:103B90008885892B809356040E94DD0BEA81FB8186
:103BA000CE010696309719F06C897D890995DF91D1
:103BB000CF910895EF92FF920F931F93CF93DF93CE
:103BC000FC012285211136C0EC01E380F480F7E589
:103BD000FF1A26E12E9DC0012F9D900D1124DC01BE
:103BE000A65FBE4F1496ED91FC911597805F9E4F96
:103BF000309729F054966D917C915597099586E1FF
:103C00008E9D80018F9D100D1124065F1E4FF801BF
:103C100087810E94D60BF80180850E94CF0B0E94FD
:103C2000DD0B188219861B861E821D821092550498
:103C300010925404CDB7DEB7E6E00C945B2B8823DA
:103C400011F0FA0101C0FB0109950895A0E0B0E070
:103C5000ECE2FEE10C943E2B262F30E0A9014E5AF7
:103C60005B4F7A01FA019081911107C0F701108230
:103C7000CDB7DEB7E7E00C945A2BD82EF2E16F9F58
:103C8000E001112400E010E0F801EC0FFD1FE25DFF
:103C9000FB4F4081602F8D2D0E94B5260F5F1F4F77
:103CA0000231110589F7E2CFCF93DF93C82F4BE0A4
:103CB0006DEF0E94B52640E06AE08C2F0E94B52689
:103CC0008FE39CE90197F1F700C0000040E060E05D
:103CD0008C2F0E94B52640E061E08C2F0E94B52613
:103CE00040E066E08C2F0E94B52640E06DEF8C2FFF
:103CF0000E94B526D0E040E06D2F8C2F0E94B526A3
:103D0000DF5FD231C1F740E06D2F8C2F0E94B526C6
:103D1000DF5FD432C1F740E06D2F8C2F0E94B526B3
:103D2000DF5FD43BC1F74BE06DEF8C2F0E94B526CF
:103D300041E06AE08C2F0E94B52640E06DEF8C2FA9
:103D40000E94B526DF91CF9108950F931F93CF93D3
:103D5000DF93082F000FEB0114E21093F802E9EF54
:103D6000F2E0DE018D91819383E0E930F807D1F72D
:103D700024E630E041E150E068EF72E0802F0E94DD
:103D8000FA2A105F6096143B41F7DF91CF911F91A3
:103D90000F91089590919C049370A1F0811102C03D
:103DA000946007C0883110F09C6503C0880F880FAD
:103DB000982B90939C0410923A0180919B0481600F
:103DC00080939B040895A0E0B0E0E9EEFEE10C943E
:103DD0003A2B6C0180913701C82FCC0FCC0FC80F44
:103DE00015E01C0F113308F010E36091A0046695F4
:103DF000669580919704909198040E94C411D82FE1
:103E000080E48D0F0E94491190E8F92EF80E8D2F55
:103E10000E94491120E8922E980EC11700F5AC2E91
:103E2000B12CF501E35CFD4F90818091380189232D
:103E3000A1F060919D0470919E0480919F04ED2EED
:103E40000C2F292D4F2DF60109950E94CE11462FDA
:103E5000282F672FC5010E942B11CF5FDECF81E095
:103E6000103308F080E0CDB7DEB7EBE00C94562BB2
:103E70006F927F928F929F92AF92BF92CF92DF927A
:103E8000EF920F931F93CF93DF933C018091370103
:103E9000C82FCC0FCC0FC80FD5E0DC0FD13308F002
:103EA000D0E36091A0046695809197049091980466
:103EB0000E94C411182FCD1708F044C08C2E912CED
:103EC000F401E35CFD4F9081809138018923C1F1B9
:103ED000F401EE0FFF1FE352FE4FC080D12C80E7AC
:103EE000C81AD108F401EE0FFF1FE252FE4FA08066
:103EF000B12CE0E2AE1AB108CC9C9001CD9C300D03
:103F0000300D1124AA9CC001AB9C900D900D112482
:103F1000820F931F0E946A11082F60919D04709177
:103F20009E0480919F04E12E9501A601F30109955D
:103F30000E94CE11462F282F672FC4010E942B11FB
:103F4000CF5FB9CF81E0D03308F080E0DF91CF912F
:103F50001F910F91EF90DF90CF90BF90AF909F9007
:103F60008F907F906F900895A0E0B0E0EAEBFFE1C2
:103F70000C943D2B6C0180913701C82FCC0FCC0FD6
:103F8000C80FD5E0DC0FD13308F0D0E36091A00476
:103F9000669580919704909198040E94C411182FFF
:103FA000CD1778F5EC2EF12CF701E35CFD4F9081F5
:103FB00080913801892319F1F701EE0FFF1FE252BA
:103FC000FE4F208130E020523109F701EE0FFF1F34
:103FD000E352FE4F408150E04057510960919D04EB
:103FE00070919E0480919F04012FF60109950E9413
:103FF000CE11462F282F672FC7010E942B11CF5FAC
:10400000CFCF81E0D03308F080E0CDB7DEB7E8E075
:104010000C94592BA0E0B0E0E0E1F0E20C943E2BD0
:104020008C0180913701C82FCC0FCC0FC80FD5E081
:10403000DC0FD13308F0D0E36091A004669566955B
:1040400021E0620F08F46FEF80919704909198043B
:104050000E94C411D82ECD17F0F4EC2EF12CF701EC
:10406000E35CFD4F908180913801892391F060914C
:104070009D0470919E0480919F042D2D4C2FF8017A
:1040800009950E94CE11462F282F672FC7010E9445
:104090002B11CF5FE0CF81E0D03308F080E0CDB7C7
:1040A000DEB7E7E00C945A2B90919C04937059F082
:1040B00080939D0460939E0440939F0480919B0491
:1040C000816080939B040895EF92FF920F931F935A
:1040D000CF93DF937C018B010E94D91A811119C003
:1040E000E70101151105A1F08091E80085FD0AC0E6
:1040F0008091E8008E778093E8000E94D91A882387
:1041000081F307C089918093F10001501109E9CF33
:1041100080E0CDB7DEB7E6E00C945B2BAAE2B0E01E
:10412000E4E9F0E20C94422BEFE8F4E087E994E054
:104130002091F10021938E179F07D1F78091900471
:10414000833009F461C030F4813071F0823009F4B9
:104150009DC0B4C08A3009F489C08B3009F46CC0AA
:10416000893009F0ABC020C080918F04813A09F0FA
:10417000A5C08091E800877F8093E8008091930438
:1041800090919404892B21F460E28BE694E003C0C3
:1041900060E080E090E070E00E94921C8091E80076
:1041A0008B778093E8008AC080918F04813209F078
:1041B00085C08091930490919404029708F07EC08A
:1041C0008091E800877F8093E8008091E80082FD7D
:1041D00005C080918D048111F8CF70C02091F3004B
:1041E0008091F20090E0922B029731F48091F100DF
:1041F000813011F0863021F48091F10080936A04BF
:104200008091E8008B7756C080918F04813A09F045
:1042100055C08091930490919404892B09F04EC06D
:104220008091E800877F8093E8008091E80080FF1C
:10423000FCCF8091360139C080918F048132F1F535
:104240008091930490919404892BC1F58091E800AA
:10425000877F8093E8000E940C1B809191048093DB
:104260003601109268040E94282928C080918F048A
:10427000813221F58091E800877F8093E8000E94D9
:104280000C1B809192048093690418C080918F0464
:10429000813AA1F48091E800877F8093E8008091C3
:1042A000E80080FFFCCF809169048093F100809149
:1042B000E8008E778093E8000E940C1B8091E80054
:1042C00083FFCEC180918F0490919004492F50E0DC
:1042D0004A30510508F0C4C1FA01E059FF4F0C946F
:1042E0003A2E803821F0823809F0BAC108C0809196
:1042F0008B0490918C04992389F082600FC0809187
:1043000093048F70873008F0ABC18093E9008091EF
:10431000EB0085FB882780F91092E9009091E80076
:10432000977F9093E8008093F1001092F10065C1AF
:10433000282F2D7F09F094C1882319F0823061F075
:104340008FC180919104813009F08AC1933009F0C6
:1043500080E080938C042EC08091910481112AC04A
:10436000809193048F702FEF280F263008F078C1CA
:104370008093E9002091EB0020FF1CC0933021F4D2
:104380008091EB00806214C09091EB00906190935B
:10439000EB0021E030E0A90102C0440F551F8A95CF
:1043A000E2F74093EA001092EA008091EB00886007
:1043B0008093EB001092E9008091E800877F20C194
:1043C00081114EC1109191041F778091E300807894
:1043D000812B8093E3008091E800877F8093E80041
:1043E0000E940C1B8091E80080FFFCCF8091E300CD
:1043F00080688093E300111102C082E001C083E075
:1044000080938D042DC18058823008F029C180919D
:104410009104909192048C3D53E0950779F583E0E7
:104420008A838AE289834FB7F894DE01139620E0ED
:104430003EE051E2E32FF0E050935700E49120FF7B
:1044400003C0E295EF703F5FEF708E2F90E0EA308F
:1044500010F0C79601C0C0968D939D932F5F2431B5
:1044600049F74FBF8091E800877F8093E8006AE2B8
:1044700070E0CE0101960E94921CAEC04091930460
:1044800050919404292F332723303105A9F068F483
:104490002130310509F4F3C02230310509F0E0C0C4
:1044A0008BE390E0E9E0F7E044C02132310521F1EF
:1044B0002232310571F1D4C0992781309105A1F0E4
:1044C00058F0029709F0CCC0E6E5F7E0E4918E2FB2
:1044D00090E0E6E5F7E02AC0E2EAF7E0E4918E2F0B
:1044E00090E0E2EAF7E022C0E8E7F7E0E4918E2FFF
:1044F00090E0E8E7F7E01AC04115510509F4C4C09F
:104500004130510509F0ACC089E090E0E4E3F7E008
:1045100010C04115510509F4BCC04130510509F0E6
:104520009FC08DE690E0ECE5F6E003C0009709F44B
:1045300097C02091E800277F2093E8002091950400
:10454000309196048217930708F49C0140E02115EE
:10455000310589F180918D04882309F43DC08530AF
:10456000D9F18091E80083FD37C08091E80082FD99
:104570002FC08091E80080FFEACF4091F300809146
:10458000F20090E0942B2115310559F08830910507
:1045900040F444914093F100319621503109019645
:1045A000F2CF41E0089709F040E08091E8008E7773
:1045B0008093E800CCCF4111CDCF0AC080918D040B
:1045C000882351F0853041F08091E80083FD04C0DC
:1045D0008091E80082FFF2CF8091E8008B77809392
:1045E000E8003EC08038E1F58091E800877F809345
:1045F000E80080918E048093F1008091E8008E772E
:104600008093E8000E940C1B2BC0811129C080916F
:104610009104909192049927029714F58091E800F3
:10462000877F8093E8001091910410938E040E947C
:104630000C1B111106C08091E30087FD02C081E0D0
:1046400001C084E080938D0442E061EC81E00E942F
:104650002B1B42E261EC82E00E942B1B80918D04B7
:104660008091E80083FF1AC08091E800877F8093E3
:10467000E8008091EB0080628093EB000FC082E144
:1046800090E0E4E4F7E055CF89E090E0EBE1F7E07B
:1046900050CF80E490E0E9ECF6E04BCFAA96E3E05F
:1046A0000C945E2BAAE0B0E0E8E5F3E20C94372B23
:1046B00085B7806885BF85B7806885BF84B7877FE9
:1046C00084BF0FB6F894A8958091600088618093AC
:1046D0006000109260000FBE90E080E80FB6F89482
:1046E00080936100909361000FBE86E699E09093FD
:1046F0006F0280936E020E94BA1A0E94601B809122
:10470000E20084608093E200789480918D04882395
:10471000A1F01091E9001F709091EC00892F817039
:1047200090FD80E8182B1092E9008091E80083FD4D
:104730000E948E201F701093E90082E084BD93E0F8
:1047400095BD9AEF97BD80936E000E94161890E079
:1047500090934801809347010E9451190E94971934
:10476000E4EAF4E0A2EBB4E011921D9224E0E23B13
:10477000F207D1F78EE090E00E94402E8093A204D1
:104780009093A304FC010E961192E817F907E1F744
:1047900089EA8093800089E08093810024982C9896
:1047A0003F988AB18F7C8AB96E98479A8BB18063A3
:1047B0008BB9769A8FE090E00E94E72B6093D80443
:1047C0007093D9048093DA049093DB0467708FEFC1
:1047D000689FB00111247595679575956795772742
:1047E000709389006093880070938B0060938A00B7
:1047F00070938D0060938C000E948D1880E090E093
:104800000E94ED2B883E9E4F11F00E944D0B82E0DE
:1048100090E00E94DF2B8093C00484E090E00E942F
:10482000DF2B182F82E290E00E94DF2B212F30E057
:10483000382B309363042093620483E090E00E945D
:10484000DF2B682F70E080E090E00E94FD286091EF
:10485000D4047091D5048091D6049091D7040E941D
:1048600066170E942E270E9421270E9421278091EF
:104870009B04816080939B048BE391E090935A04A6
:104880008093590438E1C32ED12C40E4B42EAA24DD
:10489000A39480918D04853009F06FC023E0F22E3F
:1048A00000E112E180918D04853009F05EC08091B5
:1048B0008D04843009F436C00E944C278091DC04BA
:1048C00081110DC00E94581210924C0180919C04DD
:1048D000837080934B010E949625F0923A01A0923A
:1048E000DC0410925D040FB6F894A895C0926000A5
:1048F0000FBEB092600083B7817F846083BF83B7AF
:10490000816083BF7894889583B78E7F83BF0FB60D
:10491000F894A8958091600088618093600010925F
:1049200060000FBE80918C04882309F4BBCF0E94E5
:10493000161890E090934801809347010E94511906
:104940000E949719E2EBF4E0119224E0E03CF207B8
:10495000D9F70E94650EE2EBF4E081918111B2C0BB
:1049600084E0E03CF807C9F79DCF109268040E94EC
:1049700028290E94AE1D1092DC040E94650E882337
:1049800059F08FB7F89440915E0450915F046091A4
:104990006004709161048FBFE1ECF4E0A2EBB4E03D
:1049A00000E010E0302F2D919191922721F180E0CD
:1049B000FF24F394492F4F21D1F089833A832F218B
:1049C00081E009F480E08B830E94251D8160782FAF
:1049D0009D838C8349815A816B818D810E945F16F2
:1049E000F801EF53FB4F8081F826F08219C08F5FEA
:1049F000FF0C8630F9F60F5F1F4F0E30110591F650
:104A00008FEF8E838F8318860E94251D8160782FFB
:104A10009A8789874E815F8168858A850E945F16A3
:104A20008091490190914A01019641F1712C96E1E2
:104A3000692E1BC06E9CF0016F9CF00D1124E65F87
:104A4000FE4F828893888114910419F488EC882E93
:104A5000912C6E9C80016F9C100D1124065F1E4FDF
:104A6000F8018681811116C07394E72CF12C809196
:104A7000490190914A018E159F05E4F60E944C274A
:104A80000E94AE1D9091CF04891709F402CF809344
:104A9000CF04FFCE858596850E94161D881699063F
:104AA00018F7F8018189811103C0C8010E94BB1D5C
:104AB0006E9CC0016F9C900D1124805F9E4F0E94E0
:104AC000DA1DD2CF09BD19BD09B400FEFDCF80911A
:104AD000D8008F7D8093D8008091E0008260809321
:104AE000E0008091E00081FDFCCF109268040E94FC
:104AF0002829D8CEECE9F4E0248130E1231B08F426
:104B000020E0248380919B04816080939B0408951E
:104B1000ECE9F4E0248130E1230F08F42FEF248343
:104B200080919B04816080939B04089580910C0385
:104B3000882329F06EE073E084E70E94A51E10929E
:104B40000C0380910D03882329F06EE973E087E759
:104B50000E94A51E10920D030895A4E0B0E0E3EBBF
:104B6000F5E20C94372B0E942A2A84E70E94541EF7
:104B700087E70E94541E0CE915E072E1772EE8E009
:104B8000CE2ED12CEE24E394F12C6624639444E0E1
:104B900050E0B801CE0101960E94C62B2A8130E078
:104BA000C9018497AB80B12C44E2A41AB108EC810E
:104BB000F0E0B497AC0197FF02C0495F5F4F63E03C
:104BC000559547956A95E1F72981237030E0729EEB
:104BD000B001739E700D1124625D7B4F4B01840EFA
:104BE000911CB6010E94262ED70102C0AA0FBB1F3E
:104BF0008A95E2F7CD01D4019C91892B8C93C50154
:104C0000B7FC079653E0959587955A95E1F7729E04
:104C1000A001739E500D1124425D5B4F4A01880E26
:104C2000911CC501B6010E94262EA70102C0440FA7
:104C3000551F8A95E2F7CA01D4019C91892B8C9368
:104C4000CF01F7FD079643E0959587954A95E1F7E3
:104C5000729EA001739E500D1124425D5B4F5A015C
:104C6000A80EB11CCF01B6010E94262EF70102C08A
:104C7000EE0FFF1F8A95E2F7CF01D5019C91892B9A
:104C80008C93F901EE5AFB4F60820C5F1F4FB6E028
:104C90000C351B0709F07BCF60E084E70E94261EDD
:104CA00061E087E70E94261E2496EEE00C94532BC9
:104CB000ECE9F4E0438121E1421B08F440E081810A
:104CC000628190E00E9454200895ECE9F4E0438171
:104CD00021E1420F08F44FEF8181628190E00E9450
:104CE00054200895ECE9F4E0628120E1621B08F4AD
:104CF00060E08181438190E00E9454200895ECE9B6
:104D0000F4E0628120E1620F08F46FEF818143815A
:104D100090E00E9454200895ECE9F4E0818190E055
:104D20004381628108970E9454200895ECE9F4E0E1
:104D3000818190E04381628108960E945420089509
:104D400080919C0486958695815009F487E10E94A4
:104D5000CA1E089580919C04869586958F5F883140
:104D600008F081E00E94CA1E0895E8EFF2E0608337
:104D7000418324E630E042E050E0BF01880F0E940A
:104D8000FA2A08951F93CF93DF93FC01E35CFD4F54
:104D900020816223B9F0EC010E94B62B182F0E94EB
:104DA000B62B8F77782F20E8720F08F47FEF612FF2
:104DB00080919F040E94CE11462F282F672FCE018D
:104DC0000E942B11DF91CF911F910895A0E0B0E0D8
:104DD000ECEEF6E20C943E2BEC01FC01E35CFD4FA3
:104DE0009081692349F1D0909E0400919F04109115
:104DF0009D04E12EF12C0E94B62B282FC7018C5464
:104E00009F4F68E671E00E94262E8E199F0997FD3C
:104E1000039695958795959587952370612F289F83
:104E2000600D11247D2D802F0E94CE11462F282F3A
:104E3000672FCE010E942B11CDB7DEB7E7E00C94AF
:104E40005A2B80919C04837011F410923A01809146
:104E50009C048C7F816080939C0408950E94AD2502
:104E600080E090E00E94ED2B883E9E4F21F00E9452
:104E70004D0B0E942E1146E050E06CE170E08CE991
:104E800094E00E94CF2B10929B0480919C048C7F15
:104E900011F40E942E110895CF938FB7F89440918A
:104EA0005E0450915F0460916004709161048FBF53
:104EB0004093D0045093D1046093D2047093D304F0
:104EC0008091DC04811108C0C0919C048C2F8370F8
:104ED00019F0C695C69501C0C0E080913A018130B5
:104EE00099F030F08230C9F1833009F443C06DC0CD
:104EF000109237014093970450939804609399045B
:104F000070939A0481E033C08C2F0E945812CC23F6
:104F100009F45BC08091D80483FD57C06091D4042C
:104F20007091D5048091D6049091D7040E94FE160A
:104F3000813029F0823041F482E090E002C081E0CB
:104F400090E00E94981741C08091A10481113DC05A
:104F500040E060E00E94281138C0C0934C0180916D
:104F60009C04837080934B010E94962583E080937C
:104F70003A012BC080919B04882351F046E050E019
:104F80006CE170E08CE994E00E94F32B10929B049A
:104F900040919704509198046091990470919A04FB
:104FA0002FB7F89480915E0490915F04A091600403
:104FB000B09161042FBF841B950BA60BB70B4A97CA
:104FC000A105B10510F010923A01CF91089580E04B
:104FD00090E00E94981D80E090E00E94821D109257
:104FE00056040E94DD0B0895A0E0B0E0EAEFF7E27E
:104FF0000C943C2B8C01C090D404D090D504E0904C
:10500000D604F090D7048091EA029091EB02A0912F
:10501000EC02B091ED02C82AD92AEA2AFB2ACFE194
:10502000D0E0D701C6010C2E04C0B695A795979580
:1050300087950A94D2F780FD04C0219790F7B12C90
:1050400009C0BC2EB8018C2F0E94AB090E94C40974
:10505000019799F38B2DCDB7DEB7E9E00C94582B6F
:10506000CF93DF93EC010E94F427BE010E94AB09AD
:105070000E94C409DF91CF910895292F9E3080F5B9
:10508000863070F590E036E0239F800D911D11244D
:10509000682F677023E0969587952A95E1F725E0BC
:1050A000289FF001299FF00D1124E352FB4F40E0AF
:1050B00050E080E0219130E0062E02C03695279521
:1050C0000A94E2F721703327042E01C0220F0A94BC
:1050D000EAF7822B4F5F5F4F4530510559F708952E
:1050E00080E00895292F9E3090F5863080F590E07D
:1050F00036E0239F800D911D1124282F277051E049
:1051000001C0550F2A95EAF723E0969587952A95D1
:10511000E1F725E0289FF001299FF00D1124E352CB
:10512000FB4F20E030E070E04081CB01022E02C056
:10513000969587950A94E2F7817081958427852357
:10514000842781932F5F3F4F2530310569F70895FC
:105150000E9466176093D4047093D5048093D6049C
:105160009093D7040E94E72708950F931F9341E07F
:1051700050E060E070E004C0440F551F661F771FC9
:105180008A95D2F740955095609570958091D4049A
:105190009091D504A091D604B091D7048A019B01C7
:1051A000082319232A233B23C901B8010E94A828F8
:1051B0001F910F9108950F931F9341E050E060E01D
:1051C00070E004C0440F551F661F771F8A95D2F701
:1051D0008091D4049091D504A091D604B091D704C5
:1051E0008A019B01082B192B2A2B3B2BC901B801E3
:1051F0000E94A8281F910F9108956093EA0270936E
:10520000EB028093EC029093ED020E94E727089551
:10521000FC01808191810E94302892959F70963088
:1052200079F010F4925001C09A50923068F4803FA7
:1052300069F018F4883E40F409C0843F29F406C0A0
:10524000883E20F0813F11F080E0089581E00895CC
:1052500080913601882331F08091620487FF02C07B
:105260008EE101C086E0E2E7F2E0DF011D928A955F
:10527000E9F70E94E7270895882321F00E94CF0BC9
:105280000E94DD0B0895882339F090915604892BF4
:10529000809356040E94DD0B0895882321F00E941C
:1052A000D60B0E94DD0B0895882339F09091680495
:1052B000892B809368040E94DD0B0895882349F1AF
:1052C000682F8CEF860F813A28F480E792E00E94E5
:1052D0005A1D0CC080E2860F883058F4677081E058
:1052E00001C0880F6A95EAF70E94D60B0E94DD0B79
:1052F00008958BE5860F833028F480E090E00E94CB
:10530000981D0895685A673120F480E090E00E946B
:10531000821D0895CF93882309F49AC0C82F8CEF7B
:105320008C0F813A08F05EC0809136018823E1F04D
:105330008091620487FF18C0EC2FE695E695E6950C
:10534000F0E0E059FD4F8281282F30E04C2F47706C
:1053500081E090E002C0880F991F4A95E2F782230E
:105360009323892B59F411C0E2E7F2E08191C81729
:1053700029F082E0E837F807C9F707C06C2F80E70B
:1053800092E00E945A1D0E94DD0B80913601882315
:10539000C9F08091620487FF15C0AC2FA695A69531
:1053A000A695B0E0A059BD4FC77081E090E001C064
:1053B000880FCA95EAF712969C911297892B12963C
:1053C0008C9320C0A2E7B2E0EFEF80E09D91C91777
:1053D000C9F0EF3F19F4911101C0E82F8F5F8630BB
:1053E000A9F72DC080E28C0F883078F4C77081E077
:1053F00090E001C0880FCA95EAF790916804892B64
:10540000809368040E94DD0B23C0EBE5EC0FE330D2
:1054100040F4F0E0E05BFE4F808190E00E94981D38
:1054200017C0C85AC731A0F4EC2FF0E0EE0FFF1FF1
:10543000ED5AFE4F808191810E94821D09C0EF3F8D
:1054400009F30E2E000CFF0BE059FD4FC283DACF9B
:10545000CF9108951092B9008CE08093B800089520
:10546000A0E0B0E0E6E3FAE20C943A2BB82EEB01B0
:105470000E94251D6C01C431D10558F0CF3F8FEF3C
:10548000D80759F0CE0164E170E00E941F2B7B0128
:1054900007C0EE24E394F12C03C025E0E22EF12CAA
:1054A00084E8A82E94EA992E1092BC009092BC0039
:1054B0000E94251D8C018091BC0087FD08C00E94C0
:1054C000251D801B910B8E159F05A8F32AC0809186
:1054D000B900887F883041F08091B900887F8031A1
:1054E00019F00FEF1FEF1FC0B092BB00A092BC00DD
:1054F0000E94251D8C018091BC0087FD08C00E9480
:10550000251D801B910B8E159F05A8F30AC0809165
:10551000B900887F883111F0803419F700E010E07D
:105520000EC00EEF1FEFCF3F8FEFD80709F4BCCFAF
:10553000C6010E94161D8C179D0708F4B5CFC8013F
:10554000CDB7DEB7EBE00C94562B0F931F93CF93A0
:10555000DF93EB018093BB0084E88093BC000E9442
:10556000251D8C018091BC0087FD0EC0CF3F8FEFC1
:10557000D807C1F30E94251D801B910B8C179D0736
:1055800088F38EEF9FEF0CC02091B900287F81E057
:1055900090E0283211F480E090E091958195910996
:1055A000DF91CF911F910F9108950F931F93CF9388
:1055B000DF93EC0184E88093BC000E94251D8C01E0
:1055C0008091BC0087FD0EC0CF3F8FEFD807C1F39D
:1055D0000E94251D801B910B8C179D0788F38EEF71
:1055E0009FEF03C08091BB0090E0DF91CF911F91AE
:1055F0000F910895A0E0B0E0E0E0FBE20C943D2BB9
:105600006B018A017901B9010E94302AE6010C0D73
:105610001D1DC017D10741F424E92093BC00CDB76C
:10562000DEB7E8E00C94592B97FDF6CFB7018991CE
:105630000E94A52AEECF84E98093BC000895AA1B9E
:10564000BB1B51E107C0AA1FBB1FA617B70710F06D
:10565000A61BB70B881F991F5A95A9F7809590959F
:10566000BC01CD0108952F923F924F925F926F92AD
:105670007F928F929F92AF92BF92CF92DF92EF92E2
:10568000FF920F931F93CF93DF93CDB7DEB7CA1B63
:10569000DB0B0FB6F894DEBF0FBECDBF09942A888E
:1056A000398848885F846E847D848C849B84AA8436
:1056B000B984C884DF80EE80FD800C811B81AA81C3
:1056C000B981CE0FD11D0FB6F894DEBF0FBECDBF8E
:1056D000ED0108958F929F92AF92BF92CF92DF9289
:1056E000EF92FF92CF93DF93EC01688179818A81F9
:1056F0009B81611571058105910521F464E279EDC5
:105700008BE597E02DE133EF41E050E00E94272C3C
:1057100049015A019B01AC01A7EAB1E40E94462C61
:105720006B017C01ACEEB4EFA50194010E94542CF6
:10573000DC01CB018C0D9D1DAE1DBF1DB7FF03C04D
:105740000197A109B04888839983AA83BB839F7777
:10575000DF91CF91FF90EF90DF90CF90BF90AF900F
:105760009F908F9008950E946A2B089580E091E0A9
:105770000E946A2B0895A0E0B0E08093000190930E
:105780000101A0930201B09303010895FB01DC0124
:1057900002C005900D9241505040D8F70895DC01A9
:1057A000CB01FC01F999FECF06C0F2BDE1BDF89A2C
:1057B000319600B40D9241505040B8F70895F999D0
:1057C000FECF92BD81BDF89A992780B50895A6E1D4
:1057D000B0E044E050E00C94D12BA8E1B0E042E00E
:1057E00050E00C94D12BDC01A40FB51F4150504068
:1057F00048F0CB01840F951F2E910E94042C41503C
:105800005040D0F70895262FF999FECF92BD81BD63
:10581000F89A019700B4021639F01FBA20BD0FB6EE
:10582000F894FA9AF99A0FBE08950396272F0E94CA
:10583000042C0E94032C252F0E94042C242F0C944E
:10584000042C0196272F0E94042C0C94032C052E67
:1058500097FB1EF400940E943E2C57FD07D00E9437
:10586000592C07FC03D04EF40C943E2C50954095D7
:10587000309521953F4F4F4F5F4F089590958095FC
:10588000709561957F4F8F4F9F4F08950E947B2C9D
:10589000A59F900DB49F900DA49F800D911D112484
:1058A0000895B7FF0C94462C0E94462C821B930B44
:1058B0000895A1E21A2EAA1BBB1BFD010DC0AA1F51
:1058C000BB1FEE1FFF1FA217B307E407F50720F069
:1058D000A21BB30BE40BF50B661F771F881F991FE4
:1058E0001A9469F760957095809590959B01AC012D
:1058F000BD01CF010895A29FB001B39FC001A39F36
:10590000700D811D1124911DB29F700D811D1124F8
:10591000911D08950E949E2C0C947F2D0E94782D3D
:1059200058F00E94712D40F029F45F3F29F00C944B
:10593000682D51110C94B32D0C946E2D0E94902D56
:1059400068F39923B1F3552391F3951B550BBB27AE
:10595000AA2762177307840738F09F5F5F4F220FF3
:10596000331F441FAA1FA9F335D00E2E3AF0E0E8EA
:1059700032D091505040E695001CCAF72BD0FE2F34
:1059800029D0660F771F881FBB1F261737074807C8
:10599000AB07B0E809F0BB0B802DBF01FF27935880
:1059A0005F4F3AF09E3F510578F00C94682D0C94AF
:1059B000B32D5F3FE4F3983ED4F3869577956795D2
:1059C000B795F7959F5FC9F7880F911D96958795B5
:1059D00097F90895E1E0660F771F881FBB1F6217D4
:1059E00073078407BA0720F0621B730B840BBA0B92
:1059F000EE1F88F7E09508950E94982D88F09F5734
:105A000098F0B92F9927B751B0F0E1F0660F771FE2
:105A1000881F991F1AF0BA95C9F714C0B13091F0D8
:105A20000E94B22DB1E008950C94B22D672F782F0B
:105A30008827B85F39F0B93FCCF38695779567959D
:105A4000B395D9F73EF490958095709561957F4F09
:105A50008F4F9F4F0895E89409C097FB3EF49095AF
:105A60008095709561957F4F8F4F9F4F9923A9F037
:105A7000F92F96E9BB279395F695879577956795C6
:105A8000B795F111F8CFFAF4BB0F11F460FF1BC00A
:105A90006F5F7F4F8F4F9F4F16C0882311F096E99D
:105AA00011C0772321F09EE8872F762F05C066234B
:105AB00071F096E8862F70E060E02AF09A95660F04
:105AC000771F881FDAF7880F9695879597F90895BD
:105AD00097F99F6780E870E060E008959FEF80ECA1
