:100000000C9422050C943F050C943F050C943F057D
:100010000C943F050C943F050C943F050C943F0550
:100020000C943F050C943F050C94021D0C94441C49
:100030000C942A0F0C943F050C943F050C943F053B
:100040000C943F050C943F050C943F050C943F0520
:100050000C943F050C94DD0E0C943F050C943F0569
:100060000C943F050C943F050C943F050C943F0500
:100070000C943F050C943F050C943F050C943F05F0
:100080000C943F050C943F050C943F050C943F05E0
:100090000C943F050C943F050C943F050C943F05D0
:1000A0000C943F050C943F050C943F053A063F061F
:1000B00049063D0642064706450602071007150792
:1000C0001A071F07240729072E07330738073D079C
:1000D0004407BA07BA07BA07BA07BA07BA07BA078E
:1000E000BA07BA072208220855085508D208EF09AE
:1000F000EF09EF09F008640975097509BE0BC10B1A
:10010000C40BC70BCA0BCD0BD00B631A8A1A221C67
:100110008A1A221CD21AF51A221CE41BF71B0000B3
:1001200000000000000000000000000000000000CF
:1001300000000000000000000000000000000000BF
:1001400000000000000000000000000000000000AF
:10015000000000000000000000000000000000009F
:10016000000000000000000000000000000000008F
:10017000000000000000000000000000000000007F
:10018000000000000000000000000000000000006F
:10019000000000000000000000000000000000005F
:1001A000000000000000000000000000000000004F
:1001B000000000000000000000000000000000003F
:1001C0000000000000000000000000005C9AD85C05
:1001D0009AD85C9AD85C9AD8000000000000000011
:1001E000000000000000000000000000000000000F
:1001F00000000000000000000000000000000000FF
:1002000000000000000000000000000000000000EE
:100210000000000000000029FFFF29FFFF29FFFF69
:1002200029FFFF00000000000000000000000000A7
:1002300000000000000000000000000000000000BE
:1002400000000000000000000000000000000000AE
:1002500000000000000000000011DACC00000000E7
:10026000000000000000000011DACC0000000000D7
:100270000000000000000011DACC000000000000C7
:1002800000000000000000000011DACC11DACC11EF
:10029000DACC11DACC00000011DACC11DACC11DAA8
:1002A000CC11DACC00000011DACC11DACC11DACCA6
:1002B00011DACC00000011DACC11DACC11DACC1151
:1002C000DACC000000000000000000000000000088
:1002D000000000000000000000000000000000001E
:1002E0000000000000000000000000008BDBC08B5D
:1002F000DBC08BDBC08BDBC08BDBC00000000000F1
:1003000000000000000000000000000000000000ED
:1003100000000000000000000000000000000000DD
:1003200000000000000000000000000000000000CD
:10033000000000008BDBC08BDBC08BDBC08BDBC025
:100340008BDBC00000000000000000000000000087
:10035000000000000000000000000000000000009D
:10036000000000000000000000000000000000008D
:1003700000000000000000000000000000DACC00D7
:10038000DACC00DACC00DACC00DACC0000000000D5
:10039000000000000000000000000000000000005D
:1003A000000000000000000000000000000000004D
:1003B000000000000000000000000000000000003D
:1003C0000000000000DACC00DACC00DACC00DACC95
:1003D00000DACC0000000000000000000000000077
:1003E000000000000000000000000000000000010C
:1003F00001010101010101010202020202020202E5
:1004000002030303030303030304040404040404B6
:10041000050505050506060606060707070707087A
:10042000080808090909090A0A0A0B0B0B0C0C0C2D
:100430000D0D0D0E0E0E0F0F0F10101111111212C7
:1004400013131414151516161717181819191A1A44
:100450001B1B1C1D1D1E1E1F2020212222232424A5
:10046000252626272829292A2B2C2D2D2E2F3031E1
:100470003232333435363738393A3B3C3D3E3F40F3
:100480004142434445464748494A4C4D4E4F5051DE
:100490005354555658595A5B5D5E5F616264656698
:1004A00068696B6C6D6F7072737577787A7B7D7E1F
:1004B0008082838587888A8C8E8F91939596989A6F
:1004C0009C9EA0A2A3A5A7A9ABADAFB1B3B5B7BA87
:1004D000BCBEC0C2C4C6C9CBCDCFD1D4D6D8DBDD5B
:1004E000DFE2E4E7E9EBEEF0F3F5F8FAFDFF0044B4
:1004F0003454007464840055456500857595003654
:10050000264600665676009686A60037274700776F
:100510006787003828480088789800392949006999
:100520005979009989A9003A2A4A006A5A7A003B07
:100530002B4B006B5B7B004C3C5C007C6C8C005D4F
:100540004D6D008D7D9D003E2E4E006E5E7E014401
:1005500034540174648401554565018575950136EF
:10056000264601665676019686A60137274701770B
:100570006787013828480188789801392949016935
:100580005979019989A9013A2A4A016A5A7A013BA3
:100590002B4B016B5B7B014C3C5C017C6C8C015DEB
:1005A0004D6D018D7D9D013E2E4E016E5E7E0100E2
:1005B0002B003500E100010000001E0014000422A1
:1005C0001D00010021521F001A0016341B000100FB
:1005D0002943200008000721060001002A212100EC
:1005E00015000928190001000100220017000A0067
:1005F00005000000010001000100000001000000F2
:1006000001000100010000002E0000000100230095
:100610001C000B00110000000100240018000D3820
:1006200010000100010025000C000E313600010011
:100630002C34260012000F34370001002844270014
:1006400013003332380001008252010031003400BF
:10065000E5000100000001000100010001000100AF
:100660000000010001002F02010001000100010053
:1006700001002F0001000100010001000100300015
:100680000100010001000100010030020100010031
:100690000100010001000100010000000100010053
:1006A0000100000001000000010001000100000045
:1006B0002D000000010001000100500001000000B9
:1006C00001000100010051000100010001000100D2
:1006D00001005200010001000100010001004F0073
:1006E0000100010001000100010001000100010002
:1006F00001000100010001000100010000000100F3
:10070000010001000100010000003A003E0042002B
:100710006800010001003B003F0043006900010048
:1007200001003C00400044006A0001004C003D0014
:10073000410045006B0001000100010001000100C3
:1007400001000000010001000100000001000000A4
:100750000100010001000000010000000100010093
:100760000100010001000000010001000100010082
:100770000100010001000100010001000100010071
:100780000100010001000100010001000100010061
:100790004600207865000100010001000100010011
:1007A0000100010000000100010001000100010042
:1007B0000000010001001E00010001000100010015
:1007C00001001F00010001000100010001002000E4
:1007D00001000100010001000100210001000100F1
:1007E00001000100010022000100000001000100E1
:1007F00001000000010000000100010001000000F4
:1008000001000000010001002D0223000100000092
:10081000010001002D002400010001000100010081
:100820000100250001000100010001000100260077
:10083000010001000100010001002700010001008A
:1008400001000100010001000100010000000100A1
:1008500001000100010001000000010001001E0272
:10086000010001000100010001001F020100010060
:10087000010001000100200201000100010001004F
:10088000010021020100010001000100010022021B
:100890000100000001000100010000000100000053
:1008A0000100010001000000010000000100010042
:1008B00001002302010000000100010001002402E8
:1008C00001000100010001000100250201000100FA
:1008D00001000100010026020100010001000100E9
:1008E00001002702010001000100010001002D00AC
:1008F00001000100000005010980A1018503190123
:100900002AB700150126B700950175108100C005B2
:100910000C0901A101850419012AA002150126A0D4
:1009200002950175108100C005010906A101850627
:10093000050719E029E715002501950875018102D1
:100940000507190029EF1500250195F075018102B1
:100950000508190129059505750191029501750391
:100960009101C005010906A101050719E029E71554
:100970000025019508750181029501750881010521
:1009800007190029FF150026FF009506750881004C
:100990000508190129051500250195057501910224
:1009A000950175039101C009023B00020100A0FA04
:1009B00009040000010301010009211101000122C5
:1009C0004400070581030800010904010001030038
:1009D0000000092111010001226D0007058203209A
:1009E0000001120100020000000897327649010060
:1009F0000102000120034500720067006F004400FF
:100A00006F007800200045005A00200047006C006D
:100A10006F007700000028035A00530041002000B7
:100A200054006500630068006E006F006C006F008A
:100A30006700790020004C00610062007300000034
:100A40000403090411241FBECFEFDAE0DEBFCDBFDF
:100A500012E0A0E0B1E0E0E1FDE402C005900D92FB
:100A6000A833B107D9F724E0A8E3B2E001C01D9292
:100A7000AC3CB207E1F70E940C1E0C9486260C9445
:100A80000000982F92959F7019F0892F24E001C0E3
:100A900020E0982F9695969511F02E5F892F982F2C
:100AA000969509F02F5F822F0895A6E0B0E0EBE560
:100AB000F5E00C94192349835A8349815A8199237B
:100AC00061F0222351F0CA010E94DA1F182F682F0B
:100AD00089819A810E944A2004C0CA010E9416207E
:100AE000182F69817A81812F0E945C132696E3E09A
:100AF0000C943523109241040E94C3202FEF84E30D
:100B00009CE0215080409040E1F700C000009AE056
:100B100088E10FB6F894A895809360000FBE90937B
:100B20006000FFCFABE1B0E0E8E9F5E00C941823FA
:100B30004E8B5F8B688F798F8A8F9B8F192F9111C6
:100B400010923404DE011F9687E0FD0111928A9510
:100B5000E9F786E0FE01769601900D928A95E1F71D
:100B60000A8D002341F021E04F85588969897A89EF
:100B7000C8010E9455050B8B1C8B87E0FE013F9638
:100B8000DE01189601900D928A95E1F7CE01089644
:100B90000E94FF1581112CC087E0FE013896DE010E
:100BA000119601900D928A95E1F76C85662301F10B
:100BB0002091D80330E0C9010196877099274091B0
:100BC000110450E08417950761F16D8397E0929FBF
:100BD000D001939FB00D1124A752BC4FFE01319656
:100BE00001900D929A95E1F78093D8030E949C158D
:100BF00017E0809111049091D803891709F1189F8B
:100C0000C001112487529C4F0E94FF158823C1F018
:100C10008091110490E001968770992780931104C8
:100C2000E8CF109241040E94C3201092D803109282
:100C30001104E1EDF3E087E0DF011D928A95E9F709
:100C40006B96E4E00C943423CF93C82F0E944105A7
:100C500056985E9825982D9826982E9827982F9824
:100C600090E0FC013197E730F105A8F4EA5AFF4F14
:100C70000C945225259A2D9A0EC0259A2D9A269AC3
:100C80002E9A09C0259A2D9A04C0259A2D9A269A43
:100C90002E9A279A2F9A8C2FCF910895A0E0B0E03A
:100CA000E4E5F6E00C941323FC018481882309F425
:100CB000BDC38F0121E040815181628173819581A3
:100CC0000E945505EC01F8018581C115FEE7DF079B
:100CD00059F0C1302EE7D20709F440C0C03298E77E
:100CE000D90709F075C05CC0882309F47DC09091D4
:100CF000410281E0890F8770987F853020F4892B2D
:100D00008093410202C0909341028091410287701A
:100D1000EFEF8E9FC0011124959587959595879546
:100D20009927909389008093880090938B008093FB
:100D30008A0090938D0080938C00409141025091E5
:100D4000420260914302709144028FE090E00E9461
:100D50009023809140020E94240642C0882309F417
:100D600043C08091410283FB222720F991E0922722
:100D700090FB83F980934102992329F040E060E0E1
:100D800080E00E943C1040914102509142026091EB
:100D90004302709144028FE090E00E94902320C0B3
:100DA000882309F4E7C090917604809170049F3FF6
:100DB00059F41092760481608093700440E060E002
:100DC00080E00E943C10D6C09FEF9093760424C030
:100DD000C230FEE7DF0721F4882309F4CBC054C0FA
:100DE000F8018581811154C0809141048272FE0115
:100DF000E052F847E531F10508F0CEC0E35AFF4F65
:100E00000C9452259091710481E08927809371049C
:100E100010920C0180917004816080937004AAC0CC
:100E200046E75EE060E87EE02CC040E85EE066E712
:100E30007EE027C042E65EE06CE67EE022C04CE643
:100E40005EE062E67EE01DC048E45EE065E57EE0CF
:100E500018C045E55EE068E47EE013C04EE25EE067
:100E60006BE37EE00EC04BE35EE06EE27EE009C025
:100E70004AE25CE068E37CE004C048E35CE06AE2EC
:100E80007CE00E94071076C081E00E94611972C068
:100E9000C3302CE7D20709F459C048F4C1159CE7C8
:100EA000D907A9F0C130DC4709F456C075C0CB356D
:100EB000FCE7DF0709F45AC0CC352CE7D20709F468
:100EC0004DC0CA35DC4709F067C081E050C01092C0
:100ED00041040E94C3209FEFE4E3FCE09150E04016
:100EE000F040E1F700C00000F89481E08093E0005A
:100EF00080E28093D8001092C9008FE19EE40197B0
:100F0000F1F700C000001DBA109268001CBC10BEB2
:100F10001FBA10927A0010926E0010926F00109219
:100F20007100109272001092C9001092BC0014B8A7
:100F300017B81AB81DB810BA1092BC0015B818B876
:100F40001BB81EB811BA0C94003F14C06FEF7FEFAE
:100F500080E090E00E949C230E947A0580913F04EB
:100F600082FB882780F991E0892701C080E00E94F8
:100F7000851512C080911204877009F457C2F801D8
:100F80008581882309F452C280913F0482FF4EC2BA
:100F900082E00E946E154AC2F8018581C081D1812C
:100FA000882349F0CE010E94DA1FF82E682FCE0167
:100FB0000E944A2004C0CE010E941620F82EBE01D5
:100FC0008F2D0E945C130E947913F82EC92FC82E12
:100FD000F801D581E680E2949FE0E9228091120435
:100FE000877001F1DD23F1F08C2F807F803469F070
:100FF00080E28F0D8830B0F08C2F807E803229F413
:10100000F1E0FF1578F4EE2069F080913F0482FF53
:1010100009C082E00E946E15809112048770DD2461
:10102000D3948111D12CBC2EB2948FE0B8228B2D99
:1010300090E08C30910508F0D2C1FC01EE58FF4FD2
:101040000C9452258C2F807FCF70882311F0C2958D
:10105000C07FDD23B9F0CC2309F4AFC180E28F0D4E
:10106000883010F0C11006C090914104C92BC09384
:10107000410405C090913404C92BC09334040E94EC
:1010800019159BC18F2D0E94F220CC2309F4A7C112
:1010900080E28F0D883088F1CC2079F1C095909155
:1010A0003404C923C09334042BC08C2F807FCF70AD
:1010B000803211F0C295C07F8F2DCC2029F021E025
:1010C000C21609F44CC055C080913F0482FD1BC07C
:1010D000DD2369F0CC2339F090914104C92BC093F2
:1010E00041040E94191580E00E944B2178C180E0E4
:1010F0000E94F220CC2309F472C18C2F0E94121599
:101100000E9419156CC1DD2381F0EE20B1F181E060
:10111000E81265C1909133048C2F8923C81709F414
:101120005EC1C92BC09333045AC1E11058C18C2F42
:101130000E94E120809133049C2F982329F09C2F5A
:10114000909589238093330480913B029C2F9823B0
:1011500009F445C1C0958C2380933B0240C1DD2337
:1011600029F091E09E1508F43AC107C0E11037C19B
:1011700015C0DD2331F0E11020C18C2F0E94E82042
:101180002EC1EE2059F0893309F026C1EFEFF7EEBA
:1011900023E0E150F0402040E1F71CC18C2F0E9479
:1011A000E1201DC18C2F86958695837019F08130C2
:1011B00061F015C1DD2321F08F2D9C2F937002C0AB
:1011C00080E090E00E94D50F10C1DD2321F08F2D2B
:1011D0009C2F937002C080E090E00E94B00F05C188
:1011E0008C2F8370A9F5D111FEC04F2D42954695E5
:1011F0004770440F440F8F2D8F7090E09C01042E98
:1012000001C0220F0A94EAF7F4FE08C08FE090E0D4
:1012100001C0880F4A95EAF7809501C080E0C69525
:10122000C695C370C23069F088F490913504C1301E
:1012300019F0822B892302C0922B892B0E949D20BA
:10124000D2C0822B909135048927F8CF822BF6CF1C
:10125000DD2319F08C2F817001C08695882309F455
:10126000C2C04F2D429546954770440F440F8F2DB5
:101270008F7090E09C01042E01C0220F0A94EAF7BF
:10128000F4FE08C08FE090E001C0880F4A95EAF7AD
:10129000809501C080E0C695C695C370C23059F0F4
:1012A00078F490914002C13019F0822B892309C053
:1012B000922B892B06C0822B90914002892701C076
:1012C000822B0E947F208FC0CF70DD2339F08C2FBE
:1012D0000E9491208F2D0E94E82085C08F2D0E94B2
:1012E000E1208C2F0E9484207EC08F2D92EFC916A2
:1012F00069F19C1538F0E0EFCE1659F0F1EFCF16FA
:1013000001F157C023EFC21641F194EFC916A9F0BD
:1013100050C0DD2369F0E11062C0CF7181E090E040
:1013200001C0880FCA95EAF79091400289271FC033
:10133000E1E0EE1508F453C0F0CF80913F0482FD48
:1013400019C0DD2329F08C2F8F7126C0DD23D9F33E
:101350008C2F8F710E94842042C0DD2339F0CF7121
:1013600081E001C0880FCA95EAF701C080E00E94C1
:101370007F2035C0DD2399F0CF718C2F0E94912002
:1013800080913F0482FF07C0F8E0CF9FC001112485
:101390008360809312048C2F0E94912020C081E0F2
:1013A0000E946E1521E02E15D0F482E00E946E1589
:1013B00016C0DD2321F0EE2031F28F2D95CEEE20E8
:1013C00039F2893349F48FEF97EEE3E08150904092
:1013D000E040E1F700C000008F2D0E94F22088EF6E
:1013E0008B0D843010F40E94FA0FDD20A9F080915B
:1013F000120480FD11C0F8011582869586958695A8
:101400000E949120C8010E944E0680911204869588
:10141000869586950E94842020E0F80140815181C4
:1014200062817381848195810E945505CDB7DEB7B5
:10143000E9E00C942F23A0E0B0E0E1E2FAE00C94A4
:101440000B2320E9289F7001299FF00C1124C0E094
:10145000D0E000E010E067018FEFC81AD80A57010A
:1014600082E0A80EB11CF701EC0FFD1FE25EFE4FFB
:101470006491F601EC0FFD1FE25EFE4F7491F501E1
:10148000EC0FFD1FE25EFE4F8491611107C07111E8
:1014900005C0811103C020E040E03CC00E943F1025
:1014A000962E372E882E6091740470E080E090E0D4
:1014B0000E94432420E030E04FE753E40E94A2233F
:1014C0002B013C01682D70E080E090E00E944524F3
:1014D000A30192010E94D1240E941424862E692D1A
:1014E00070E080E090E00E944524A30192010E94F8
:1014F000D1240E941424962E632D70E080E090E0A9
:101500000E944524A30192010E94D1240E94142428
:10151000282D492DC8010E94460C0F5F1F4F2396AE
:10152000C039D10509F09FCFCDB7DEB7E1E10C940A
:10153000272380E290E0909316018093150180911B
:101540003A0281110EC00E94052281E080933A0286
:101550002FEF83ED90E3215080409040E1F700C0F1
:10156000000060E570E080E40E940B229093160179
:1015700080931501892B09F04EC060E570E080E092
:101580000E947E229093160180931501892B09F009
:1015900042C060E570E080E00E947E2290931601D8
:1015A00080931501892BB9F560E570E08FE30E9407
:1015B0007E229093160180931501892B61F50E947C
:1015C000F22260E570E080E40E940B229093160105
:1015D00080931501892BF9F460E570E08CE00E949E
:1015E0007E229093160180931501892BA1F460E56A
:1015F00070E080E00E947E22909316018093150196
:10160000892B49F460E570E08FE30E947E2290937D
:101610001601809315010E94F22280911501089510
:10162000CF93DF9356985E9825982D9826982E98FC
:1016300027982F98C8E8D0E08FEF90E099838883AF
:10164000AAE8B0E011969C938E93ECE8F0E09183C9
:101650008083259A2D9A2FEF80E792E021508040D9
:101660009040E1F700C00000269A2E9A2FEF80E705
:1016700092E0215080409040E1F700C00000279A9E
:101680002F9A2FEF80E792E0215080409040E1F7C1
:1016900000C0000025982D982FEF80E792E02150A0
:1016A00080409040E1F700C0000026982E982FEF70
:1016B00080E792E0215080409040E1F700C00000B8
:1016C00027982F988091410287702FEF829FC00149
:1016D0001124959587959595879599279983888362
:1016E00011969C938E939183808356985E9825984B
:1016F0002D9826982E9827982F98DF91CF910895AE
:10170000CF93E82F873080F58091150190911601D5
:10171000892B09F047C0CE2F60E570E080E40E947D
:101720000B229093160180931501892BD1F460E56B
:1017300070E082E10E947E22909316018093150151
:10174000892B79F481E090E001C0880FCA95EAF70F
:1017500060E570E080950E947E2290931601809350
:1017600015010E94F2221EC090E0FC013797E7307D
:10177000F105C0F4E258FF4F0C945225209A2898A6
:1017800011C0219A29980EC0229A2A980BC0239A38
:101790002B9808C0529A5A9805C0539A5B9802C079
:1017A0003E9A4698CF910895209828982198299894
:1017B00022982A9823982B9852985A9853985B9875
:1017C0003E9846980895CF93873040F58091150153
:1017D00090911601892B59F560E570E081E40E9433
:1017E0000B229093160180931501892B11F0C0E014
:1017F00011C080E590E00E94AD2297FF05C0909354
:10180000160180931501F3CFC82FC09510921601D1
:10181000109215010E94F2228C2F0AC09FB18FB145
:10182000807F869586959370892B809501C080E096
:10183000CF9108958098889A8198899A84988C9AF3
:1018400085988D9A86988E9A87988F9A0895809118
:1018500043040895E1E7F4E0248130E1231B08F418
:1018600020E0248380917004816080937004089547
:10187000E1E7F4E0248130E1230F08F42FEF248323
:10188000809170048160809370040895A4E0B0E0BA
:10189000ECE4FCE00C9417238033910508F04FC072
:1018A000122F042FF62EBC01660F771F660F771FCD
:1018B00062517B4F44E050E0CE0101960E944123EB
:1018C000898183704A8150E044525109282F30E0C9
:1018D00060E9869FC0011124805A9D4FFC01E40FEE
:1018E000F51FE0817B816C81EF110EC0FC01E70FD9
:1018F000F11DB497E081E01307C0860F911DFC0134
:10190000B49780818117D9F0E0E9E29FC001E39F9D
:10191000900D1124805A9D4FFC01E40FF51FF082B9
:10192000FC01E70FF11DB4970083860F911DFC01A8
:10193000B4971083F901E25AFD4F81E08083249629
:10194000E5E00C943323FF920F931F93CF93DF9323
:10195000182F062FF42EC0E0D0E02F2D402F612F3E
:10196000CE010E94460C2196C033D105B1F7CDB708
:10197000DEB7E5E00C943323EAE4F2E060834183D0
:1019800023E030E042E050E0BF01880F0E94D12206
:101990000895A0E0B0E0EFECFCE00C941523262FB6
:1019A00030E0A9014C555C4F7A01FA019081911108
:1019B00007C0F7011082CDB7DEB7E7E00C94312302
:1019C000D82EF2E16F9FE001112400E010E0F80151
:1019D000EC0FFD1FE058FC4F4081602F8D2D0E94C1
:1019E000BC0C0F5F1F4F0231110589F7E2CFCF9377
:1019F000DF93C82F4BE06DEF0E94BC0C40E06AE023
:101A00008C2F0E94BC0C8FE39CE90197F1F700C07A
:101A1000000040E060E08C2F0E94BC0C40E061E0E0
:101A20008C2F0E94BC0C40E066E08C2F0E94BC0C06
:101A300040E06DEF8C2F0E94BC0CD0E040E06D2F99
:101A40008C2F0E94BC0CDF5FD231C1F740E06D2FBC
:101A50008C2F0E94BC0CDF5FD432C1F740E06D2FA9
:101A60008C2F0E94BC0CDF5FD43BC1F74BE06DEFC5
:101A70008C2F0E94BC0C41E06AE08C2F0E94BC0CB1
:101A800040E06DEF8C2F0E94BC0CDF91CF91089548
:101A90000F931F93CF93DF93082F000FEB0114E2F6
:101AA00010934A0280E1FE01ABE4B2E001900D9296
:101AB0008A95E1F723E030E041E150E06AE472E02A
:101AC000802F0E94D122105F6096143B49F7DF916E
:101AD000CF911F910F91089580915E02882329F084
:101AE00060E672E084E70E94480D10925E028091E9
:101AF0005F02882329F060EF72E087E70E94480DBB
:101B000010925F020895A4E0B0E0E9E8FDE00C94D3
:101B10000E230E94052284E70E94F70C87E70E94AB
:101B2000F70C0EEE14E072E1772EE8E0CE2ED12C09
:101B3000EE24E394F12C6624639444E050E0B80171
:101B4000CE0101960E9441232A8130E0C901849789
:101B5000AB80B12C44E2A41AB108EC81F0E0B49758
:101B6000AC0197FF02C0495F5F4F63E05595479511
:101B70006A95E1F72981237030E0729EB001739E6F
:101B8000700D112460587C4F4B01840E911CB601DE
:101B90000E943E25D70102C0AA0FBB1F8A95E2F71B
:101BA000CD01D4019C91892B8C93C501B7FC07967C
:101BB00053E0959587955A95E1F7729EA001739E23
:101BC000500D112440585C4F4A01880E911CC501EC
:101BD000B6010E943E25A70102C0440F551F8A95F9
:101BE000E2F7CA01D4019C91892B8C93CF01F7FDB8
:101BF000079643E0959587954A95E1F7729EA00177
:101C0000739E500D112440585C4F5A01A80EB11C10
:101C1000CF01B6010E943E25F70102C0EE0FFF1F63
:101C20008A95E2F7CF01D5019C91892B8C93F9011C
:101C3000EC55FC4F60820C5F1F4FB5E00E3A1B075E
:101C400009F07BCF60E084E70E94C90C61E087E780
:101C50000E94C90C2496EEE00C942A23E1E7F4E0FC
:101C6000438121E1421B08F440E08181628190E0E0
:101C70000E9470190895E1E7F4E0438121E1420FE9
:101C800008F44FEF8181628190E00E9470190895FD
:101C9000E1E7F4E0628120E1621B08F460E0818109
:101CA000438190E00E9470190895E1E7F4E06281B9
:101CB00020E1620F08F46FEF8181438190E00E9480
:101CC00070190895E1E7F4E0818190E04381628139
:101CD00008970E9470190895E1E7F4E0818190E08F
:101CE0004381628108960E94701908958091710461
:101CF00086958695815009F481E00E9461190895C6
:101D000081E00E9461190895E1E7F4E085E08083B5
:101D10008091170190911801A091190181839283FC
:101D2000A3838FE784838FEF858348E050E068E1E9
:101D300070E0CF010E946E231092700408950F93FB
:101D40001F93CF93DF938B01EA0190916604943047
:101D500079F58F708093E9008FEF9091E8008150C2
:101D600095FD06C095ED9A95F1F700008111F5CF2C
:101D70008091E80085FF1CC00E94D91D882361F076
:101D80008091E8008E778093E80012C0F80181917D
:101D90008F018093F1002197209791F38091E800C3
:101DA00085FDF4CF8091E8008E778093E800E4CF42
:101DB000DF91CF911F910F91089578941F920F9208
:101DC0000FB60F9211248F939F93AF93BF9380917F
:101DD000AD039091AE03A091AF03B091B003019613
:101DE000A11DB11D8093AD039093AE03A093AF03EB
:101DF000B093B003BF91AF919F918F910F900FBEA1
:101E00000F901F9018959C014FB7F8948091AD03E7
:101E10009091AE03A091AF03B091B0034FBF821B6E
:101E2000930B08952FB7F8946091AD037091AE03B2
:101E30008091AF039091B0032FBF08952FB7F8940E
:101E40008091AD039091AE03A091AF03B091B00328
:101E50002FBF08951F920F920FB60F9211248F93E8
:101E60009F93AF93BF938091AC03811113C0809176
:101E7000AD039091AE03A091AF03B091B003419632
:101E8000A11DB11D8093AD039093AE03A093AF034A
:101E9000B093B003BF91AF919F918F910F900FBE00
:101EA0000F901F90189520910B012223C9F02091CB
:101EB0003E0427FF15C0262F2695269526952E3100
:101EC000C8F4FC01E20FF11D677081E090E001C0F1
:101ED000880F6A95EAF78095928189238283089515
:101EE000FC0106962281621301C012823196E81726
:101EF000F907C1F7089520910B012223C1F0209129
:101F00003E0427FF14C0262F2695269526952E31B0
:101F100030F5FC01E20FF11D677081E090E001C037
:101F2000880F6A95EAF79281892B82830895FC01D4
:101F300032962FEF30E04191641789F02F3F19F46A
:101F4000411101C0232F3F5F3630A9F72F3F39F0F1
:101F5000FC01E20FF11D27FDFA95628308950895B3
:101F6000A3E0B0E0E6EBFFE00C941A232091AA0373
:101F70003091AB0328173907A1F09093AB038093FE
:101F8000AA03E091A803F091A903309751F024E04F
:101F900029839B838A830680F781E02DCE010196F9
:101FA00009952396E2E00C943623A3E0B0E0EBED34
:101FB000FFE00C941A232091A6033091A703281761
:101FC0003907A1F09093A7038093A603E091A8039B
:101FD000F091A903309751F023E029839B838A83F2
:101FE0000680F781E02DCE01019609952396E2E067
:101FF0000C943623E091A803F091A903309729F0BF
:102000000190F081E02D0995089580E008958823DE
:1020100011F0FA0101C0FB01099508958091710446
:10202000837011F410920C01809171048C7F816097
:102030008093710408950E94830D80E090E00E94D7
:102040006823863E9E4F21F00E9496140E94840EC3
:1020500081E08093700448E050E068E170E081E73F
:1020600094E00E944A2310927004809171048C7F46
:1020700011F40E94840E08950E94A30C0895A0E01C
:10208000B0E0E5E4F0E10C941423F62E472FE82F9E
:10209000F0E0711106C0E251FC4F8491782F682F57
:1020A00073C0272F30E0E251FC4FE491FE2F0E2F3A
:1020B00010E056E0659FC0011124CFEFD0E0BE01D3
:1020C0000E94F6225BEA5603C001579F900D11242F
:1020D0008F0D911D8F0D911D982F990F980F7E01D7
:1020E000E21AF30AE09ED001E19EB00DF09EB00D21
:1020F00011248B2F499FA0011124452F55277E01C4
:10210000E41AF50AE09EA001E19E500DF09E500DEC
:1021100011246E01C91AD108C29E7001C39EF00C31
:10212000D29EF00C11242F2D3327C21BD30BC09F3E
:102130009001C19F300DD09F300D1124932F62303C
:10214000710591F048F461157105E1F06130710598
:10215000B9F49E2FE52F16C06430710569F040F088
:102160006630710579F00CC09E2FEB2F832F0AC0CB
:10217000EB2F8F2F952F06C09B2F8E2FE32F02C0A2
:102180009B2F852F7E2F692FCDB7DEB7E8E00C940B
:102190003023EF92FF920F931F93CF93DF93D82FAB
:1021A000809107018D130DC020917104237030E0E0
:1021B0004091060150E081E02417350719F480E0D2
:1021C00001C081E0817080930A0180917604909132
:1021D0000901981739F08093090140E060E080E040
:1021E0000E943C10D13071F580910801C82FCC0FAE
:1021F000CC0FC80F15E01C0F113308F010E36091ED
:10220000720470917304809174040E943F10062F31
:10221000F72EE82EC11790F4EC2FF0E0DF01A25367
:10222000BE4F8C9190910901982331F02E2D402FB3
:102230006F2DCF010E94460CCF5FECCF81E01033B1
:1022400068F00BC0D130F0F480910A01882329F0A6
:1022500040E060E080E00E943C1080E09091080146
:102260009F5F90930801811146C082E080930C012A
:1022700080910A0181113FC0D1113DC083E080935C
:102280000C0139C0DF3F89F58091450290914602EB
:10229000A0914702B091480288279C70AA27BB27CB
:1022A0002AE0B695A795979587952A95D1F782301C
:1022B0009105A105B10571F083309105A105B10526
:1022C00069F040E00197A105B10511F060E008C098
:1022D00064E102C044E160E080E003C044E164E105
:1022E00084E10E943C1082E0CACF809108018F5F98
:1022F00080930801BACFCDB7DEB7E6E00C94322365
:102300000F931F93CF930E94120F60933C02709320
:102310003D0280933E0290933F0220914902211199
:1023200008C0C09171042C2F237019F0C695C69572
:1023300001C0C0E020910C012130A1F038F0223022
:1023400009F471C0233009F47BC0A5C010920801C4
:10235000609345027093460280934702909348022F
:1023600081E06BC08C2F0E94C910CC2309F493C06C
:10237000809108018A3009F08EC08091410283FD6E
:102380008AC08091400290E0A0E0B0E0AC01BD01C5
:10239000F4E07695679557954795FA95D1F74115ED
:1023A00051056105710521F4AC01BD0180E001C05A
:1023B00084E08A019B01E2E0369527951795079501
:1023C000EA95D1F7011511052105310519F08E5F48
:1023D000B901A8017695679557954795452B462BEA
:1023E000472B09F08F5F823069F028F4813091F437
:1023F00081E090E009C0833051F0843059F484E0EA
:1024000090E002C082E090E00E941B0A44C083E09A
:1024100090E0FACF8091760481113DC040E060E009
:102420000E943C1038C0C0930701809171048370F2
:10243000809306010E946C0D83E080930C012BC0F9
:1024400080917004882351F048E050E068E170E02A
:1024500081E794E00E946E2310927004409145023F
:102460005091460260914702709148022FB7F8944C
:102470008091AD039091AE03A091AF03B091B003F2
:102480002FBF841B950BA60BB70B4A97A105B1056F
:1024900010F010920C01CF911F910F91089580E0E0
:1024A000089590913E0492FF10C041E0282F2471BE
:1024B000243009F040E031E0282F2871283009F05D
:1024C00030E0431711F02CE0822793FF10C041E069
:1024D000282F2471243109F040E031E0282F2871A1
:1024E000283109F030E0431711F02CE082273091B9
:1024F0003F0430FF10C051E0282F2171213009F036
:1025000050E041E0282F2871283009F040E05417AE
:1025100011F029E0822731FF10C041E0282F2171FE
:10252000213109F040E031E0282F2871283109F0ED
:1025300030E0431711F029E0822794FD877E08954B
:102540008238910569F1B0F48133910509F475C0C1
:1025500048F48932910509F467C08A32910509F47B
:1025600071C008958533910509F459C089339105E7
:10257000B9F00895833E910589F138F4803E9105C4
:10258000D1F0823E910529F10895863E9105C9F169
:10259000873E9105D9F1843E910509F06CC027C0B2
:1025A00020913E0420FD57C021FD55C020913F04DD
:1025B00023FD5BC0089580913E0480FD48C080915A
:1025C0003F0480FF48C080913E0484FD46C083EEF6
:1025D00051C080913E0482FF3CC0F5CF80913E0403
:1025E00082FD37C080913F0480FD35C0ECCF8091E3
:1025F0003F0481FF36C080913E0484FD2EC087EEEB
:1026000039C080913E0483FF2AC0F5CF80913E04FB
:1026100083FD25C080913F0481FD23C0ECCF8091D4
:102620003E0485FD22C01FC080913E0485FD1BC075
:1026300080913F0483FF19C00AC080913E0486FD4B
:1026400016C017C080913E0486FD13C010C089E3F8
:1026500011C082EE0FC080EE0DC080E00BC086EE90
:1026600009C084EE07C085E305C089E203C08AE2A1
:1026700001C081E390E00895209111049091D80366
:1026800057E02917A9F030E0529FF001539FF00D59
:102690001124E752FC4F7181761306C070817813C4
:1026A00003C07581741306C02F5F3F4F2770E9CFB9
:1026B00080E0089581E008957E30B0F46630A0F4A3
:1026C0008530A0F494E5899FF001112486E0789F7D
:1026D000E00DF11D1124E60FF11DEE0FFF1FE25575
:1026E000FA4F85919491089580E001C081E090E0D7
:1026F00008951F93CF93DF930E94A012EC01C115A0
:1027000080E5D807E8F5C11590E4D90708F0A8C01E
:10271000C03ED10530F5CD3CD10508F094C0C83A93
:10272000D10578F4C53AD10508F083C0C130D10590
:1027300009F47CC008F4F2C0C430D10508F0F1C03F
:10274000EDC0C33CD10508F0E9C0C85AD0E0CC0FB9
:10275000DD1FCF5FDD4F0990D881C02DCE0194647D
:10276000E1C0C11580E2D80708F0CBC0C11591E0E7
:10277000D90708F06BC0C83ED10508F4D2C0CEC05E
:10278000C03682E5D80728F5C03492E5D90708F0AD
:1027900079C0C03282E5D80708F06CC0C11592E557
:1027A000D90708F481C04C2F4695469580E2489F92
:1027B000A0011124C37021E030E0C90102C0880FDC
:1027C000991FCA95E2F7EA01C82BD92BCE019D6863
:1027D000A9C0C03A82E5D807B8F48C2F8F71C038F1
:1027E00092E5D90708F07BC08695869590E2899F8F
:1027F00090011124C37081E090E002C0880F991FFE
:10280000CA95E2F79A6868C0C03C82E5D80708F428
:102810006DC0C03E92E5D90708F080C0CF71DD27BA
:10282000DC2FCC27CE01806F906A7CC081E090E0E5
:1028300079C0C55AD0E0C250DE4F8881C82FD0E0A1
:10284000CE0190646FC0CE0190656CC08D2F0E9448
:102850005112182FCE0199270E94A0121F715CC03F
:10286000CE0199270E94A012CC27DF70D06A8C2B52
:102870009D2B58C0CF71D0E0DC2FCC27CE01816FCB
:10288000906A50C08C2F8F718695869590E2899FB3
:1028900090011124C37081E090E002C0880F991F5D
:1028A000CA95E2F79C6818C08C2F8F710E94511254
:1028B00095E0D695C7959A95E1F7CF70D0E0DC2FDB
:1028C000CC27282F30E084FF05C084E0220F331F7F
:1028D0008A95E1F7D069CE01822B932B23C090E03B
:1028E000D82FCC27CE01846F906A1CC08C2F8F719B
:1028F0000E9451128F7190E0D82FCC27CE019062A8
:1029000011C08D2F8F710E945112182FCE0199275F
:102910000E94A0121F719062912B04C080E090E091
:1029200001C0CE01DF91CF911F910895A8E0B0E0E2
:10293000ECE9F4E10C941A2366EE7EEF80E090E07F
:102940000E949C2360E082E090E00E947E2360E091
:1029500083E090E00E947E231092350460E074E1F1
:1029600084E090E00E949C2360E086E090E00E947A
:102970007E236FEF87E090E00E947E2340E050E0EE
:10298000BA0188E090E00E94902360E084E290E049
:102990000E947E2360E087E190E00E947E2360E059
:1029A0008CE090E00E947E2360E08DE090E00E9449
:1029B0007E2319821A821B821C821D821E821F8224
:1029C000188648E050E068E170E0CE0101960E9470
:1029D0006E2340E050E0BA0180E290E00E94902334
:1029E000109241021092420210924302109244024D
:1029F00084E08093410240914102509142026091F3
:102A00004302709144028FE090E00E94902340E0E6
:102A100050E0BA0183E190E00E9490232896E2E022
:102A20000C9436238095909141048923809341042E
:102A300008959091410480913404982B9093B103B0
:102A4000809133048823D9F0892B8093B10380913E
:102A50000B01882331F080913E0487FF02C08EE194
:102A600001C086E0E3EBF3E090E0815028F0219193
:102A70002223D9F39F5FF9CF91111092330440E2E2
:102A800050E063E174E081EB93E00E947926892BAA
:102A900021F180E2E1EBF3E0A3E1B4E001900D92DB
:102AA0008A95E1F7E091A803F091A9033097A9F086
:102AB00080910B01882359F080913E0487FF07C065
:102AC0008091B1038093B20386E08093B1030280CA
:102AD000F381E02D81EB93E0099508959091120424
:102AE0008095892380931204282F277069F4981702
:102AF00059F090913F0492FF07C086958695869580
:102B00000E94842010921204089590913F0492FB39
:102B1000222720F9281779F080FB92F990933F043F
:102B200060913E0470913F0484E090E00E949C23F9
:102B300082E00E946E150895809111049091D8034F
:102B4000891719F08F5F8770FBCF0895CF93DF93BC
:102B50008091D70382958F7009F04EC08091D60383
:102B6000882309F449C0809111044091D803509101
:102B7000D2036091D103C091D303D091D40377E005
:102B80008417D1F190E0789FF001799FF00D112426
:102B9000DF01A752BC4F14962C911497222349F1C0
:102BA00011962C911197251324C02C91261321C026
:102BB00015962C91159721111CC012962D913C91C0
:102BC00013972C1B3D0B283C310598F48091D703BB
:102BD0008F7080618093D703E152FC4F80818F70AA
:102BE0008061808381ED93E00E944E060E949C15D7
:102BF00003C001968770C4CFDF91CF910895A4E1FF
:102C0000B0E0E5E0F6E10C9410238C0186E0F801D9
:102C1000DE011F9601900D928A95E1F7F8018481FB
:102C2000E58091ED892E93E0992E9091D503911135
:102C300020C0882309F463C1EE2009F442C0C80112
:102C40000E94A020F82E8823E1F187E0F801D4014A
:102C500001900D928A95E1F78091D503813031F48E
:102C60008091D1039091D2030E9409200E94A61561
:102C700048C1F801D080C180A280B380F090D60313
:102C80002091D3033091D403FF2009F4E7C0A501BC
:102C9000421B530B483C510508F09DC0882309F4A2
:102CA00030C18091D703282F207F9091D203222317
:102CB00061F09C1509F460C0C8010E94A020811138
:102CC00063C0C8010E944E061AC19C1113C09091A6
:102CD000D1039D110FC0E1100DC08F7080618093F2
:102CE000D70381ED93E00E944E068091D703F8014F
:102CF000868303C1E1103AC040E06C2D8D2D0E9407
:102D00003C1340E06C2D8D2D0E943C13E82E811168
:102D1000F4C0DF86C88A8F8598890E940920292FF0
:102D200022952F70243020F49F70223028F009C0A3
:102D30002A50223080F014C0992349F0811107C035
:102D400013C0992321F0F8019681907F69F0805E8D
:102D5000883030F409C0803F38F0815F833020F044
:102D6000C8010E944E06EF2CFE2CCBC08091D703E9
:102D700081608093D703C1C09091D1039D119CCFF6
:102D8000E1109ACFF80198C0EE2009F49ACF209173
:102D9000D703822F82958F7090E002978CF08091FC
:102DA000D1039091D20399878887BB86AA868091A8
:102DB000D5038C871D862E87CE0108960E944E066D
:102DC00087E0F801A1EDB3E001900D928A95E1F75B
:102DD0000E94A61594C09091D703292F207F51F40B
:102DE00081ED93E00E944E0687E0F40111928A95EE
:102DF000E9F783C0882309F484C08091D2038C1141
:102E00000CC08091D1038D1108C0E11006C0F801FB
:102E10009683C8010E944E066AC0C8010E94A02085
:102E2000882309F44ECFEE2009F44BCF2091D7032D
:102E3000822F82958F7090E0029714F28091D103D7
:102E40009091D2039A838983BC82AB828091D5030F
:102E50008D831E822F83CE010196B0CFA21AB30AB2
:102E6000F8ECAF16B10408F042C0882309F447C05B
:102E7000FE2CEE2009F425CF8091D2038C1129C0BD
:102E80008091D1038D1125C09091D70390FD18C07A
:102E9000892F82958F70282F30E02115310581F020
:102EA000F80196832F30310541F08F5F982F92956E
:102EB000907F86818F70892B8683C8010E944E0681
:102EC00087E0F801A1EDB3E001900D928A95E1F75A
:102ED00018C0C8010E94A020811172CF8091D70331
:102EE00081608093D703C8010E944E060AC087E024
:102EF000F40111928A95E9F704C0F12C02C0FF2475
:102F0000F3948F2D6496ECE00C942C23A0E0B0E0B9
:102F1000ECE8F7E10C9414238091150190911601CF
:102F2000892BA1F0809138048F5F80933804811140
:102F30000DC00E94990A90E09093160180931501AC
:102F4000892B21F40E94100B0E941B100BE714E048
:102F50007801D0E0C0E087E0C82ECC0E8C2F0E9414
:102F6000800B8C2D0E94800B8C2F0E94E30B8F73A3
:102F7000F7019081891721F08083DD24D39401C06B
:102F8000D12C8C2D0E94E30B8F73F7019781891749
:102F900019F0878381E001C080E0D82ADD290E94F2
:102FA000D40BCF5FFFEFEF1AFF0AC730A1F61092E4
:102FB0003D04C0913C04CC2309F47DC00E941E0F47
:102FC00020913A0430913B04AC01421B530B9A010F
:102FD00090933B0480933A044F3F510509F018F455
:102FE000452B19F102C02FEF30E010923C041092F3
:102FF0003904E0917904F0917A04AF01425F5F4FA8
:1030000090E030E08081882341F0281718F010828A
:103010009C2F03C0821B80833C2F3196E417F50759
:1030200089F730933C0490933904DD23B1F1109279
:103030003904E0917904F0917A0480913D049091F3
:103040003C04A9E8B4E0AF01425F5F4F6EE1E801E4
:1030500028813C91321779F0308131110CC06083A6
:103060002C9398819227282F30E0292B81E0232B65
:1030700009F480E091E0319611960F5F1F4FE4173D
:10308000F50729F780933D0490933C0480913D041B
:10309000CDB7DEB7E8E00C94302381E0909139049D
:1030A0009923A1F38111C3CF0E941E0F90933B047B
:1030B00080933A04BCCFD111F7CF80E0EFCFA6E0E8
:1030C000B0E0E5E6F8E10C9418230E941E0F8C0195
:1030D00080913604909137040817190781F01982FE
:1030E0001A820E941E0F682F49815A81792F80E031
:1030F00090E00E94920510933704009336042696C0
:10310000E4E00C9434238091680487FF11C080911F
:10311000E80082FD05C0809166048111F8CF11C0DE
:103120008091E8008B770BC080916604882349F07A
:103130008091E80080FFF8CF8091E8008E7780933F
:10314000E8000895982F973068F59093E900981754
:1031500039F07091EC002091ED005091F00003C027
:10316000242F762F50E021FD02C09F5FECCF3091DD
:10317000EB003E7F3093EB003091ED003D7F3093CC
:10318000ED003091EB0031603093EB007093EC0078
:103190002093ED005093F0002091EE0027FDE5CF45
:1031A00080E008958F708093E90081E00895209178
:1031B0006E0430916F042617370748F061157105CA
:1031C00039F42091E8002E772093E80001C0B9017E
:1031D000FC0120E06115710579F180916604882376
:1031E000F1F18530F1F18091E80083FD3CC08091E0
:1031F000E80082FD2EC08091E80080FFEBCF209197
:10320000F3008091F20090E0922B6115710551F06E
:103210008830910538F421912093F10061507109B3
:103220000196F3CF21E0089709F020E08091E800B3
:103230008E778093E800CECF2111CFCF0AC0809146
:103240006604882361F0853061F08091E80083FD99
:103250000AC08091E80082FFF2CF80E0089582E00A
:10326000089583E0089581E00895089543E050E0D3
:10327000BC0182E00E949F0E0895CF93DF93EC0182
:1032800080910B01811105C048E050E0BE0181E052
:103290000BC080913E0487FF03C040E282E002C081
:1032A00048E081E050E0BE010E949F0E80E2FE01F6
:1032B000A4E4B4E001900D928A95E1F7DF91CF91FB
:1032C000089580917104837051F08460809371043B
:1032D00010920C01809170048160809370040895B5
:1032E00090917104937059F0809372046093730409
:1032F00040937404809170048160809370040895F9
:10330000AAE2B0E0E6E8F9E10C941923E8E6F4E07B
:1033100080E794E02091F10021938E179F07D1F769
:1033200080916904833009F461C030F4813071F018
:10333000823009F49DC0B4C08A3009F489C08B3052
:1033400009F46CC0893009F0ABC020C080916804DA
:10335000813A09F0A5C08091E800877F8093E8005A
:1033600080916C0490916D04892B21F460E284E4D7
:1033700094E003C060E080E090E070E00E94D71825
:103380008091E8008B778093E8008AC08091680480
:10339000813209F085C080916C0490916D04029790
:1033A00008F07EC08091E800877F8093E8008091DC
:1033B000E80082FD05C0809166048111F8CF70C0DD
:1033C0002091F3008091F20090E0922B029731F46B
:1033D0008091F100813011F0863021F48091F1006C
:1033E000809343048091E8008B7756C080916804F5
:1033F000813A09F055C080916C0490916D04892B3D
:1034000009F04EC08091E800877F8093E8008091AA
:10341000E80080FFFCCF80910B0139C080916804E7
:103420008132F1F580916C0490916D04892BC1F586
:103430008091E800877F8093E8000E948318809144
:103440006A0480930B01109241040E94C32028C09B
:1034500080916804813221F58091E800877F809314
:10346000E8000E94831880916B048093420418C086
:1034700080916804813AA1F48091E800877F80936D
:10348000E8008091E80080FFFCCF809142048093A7
:10349000F1008091E8008E778093E8000E94831805
:1034A0008091E80083FFCEC1809168049091690407
:1034B000492F50E04A30510508F0C4C1FA01EB57DA
:1034C000FF4F0C945225803821F0823809F0BAC1A0
:1034D00008C08091640490916504992389F082600A
:1034E0000FC080916C048F70873008F0ABC180935F
:1034F000E9008091EB0085FB882780F91092E900B4
:103500009091E800977F9093E8008093F1001092EB
:10351000F10065C1282F2D7F09F094C1882319F08F
:10352000823061F08FC180916A04813009F08AC1D4
:10353000933009F080E0809365042EC080916A0486
:1035400081112AC080916C048F702FEF280F2630D4
:1035500008F078C18093E9002091EB0020FF1CC0A7
:10356000933021F48091EB00806214C09091EB00C5
:1035700090619093EB0021E030E0A90102C0440F7C
:10358000551F8A95E2F74093EA001092EA00809175
:10359000EB0088608093EB001092E9008091E800D6
:1035A000877F20C181114EC110916A041F778091DD
:1035B000E3008078812B8093E3008091E800877F8F
:1035C0008093E8000E9483188091E80080FFFCCF80
:1035D0008091E30080688093E300111102C082E0D3
:1035E00001C083E0809366042DC18058823008F0CA
:1035F00029C180916A0490916B048C3D53E095073A
:1036000079F583E08A838AE289834FB7F894DE01F3
:10361000139620E03EE051E2E32FF0E05093570094
:10362000E49120FF03C0E295EF703F5FEF708E2FB3
:1036300090E0EA3010F0C79601C0C0968D939D933C
:103640002F5F243149F74FBF8091E800877F809337
:10365000E8006AE270E0CE0101960E94D718AEC081
:1036600040916C0450916D04292F3327233031058C
:10367000A9F068F42130310509F4F3C02230310596
:1036800009F0E0C08BE390E0E7EAF9E044C02132C2
:10369000310521F12232310571F1D4C099278130F1
:1036A0009105A1F058F0029709F0CCC0E4EFF9E0E1
:1036B000E4918E2F90E0E4EFF9E02AC0E0E4FAE034
:1036C000E4918E2F90E0E0E4FAE022C0E6E1FAE037
:1036D000E4918E2F90E0E6E1FAE01AC04115510521
:1036E00009F4C4C04130510509F0ACC089E090E054
:1036F000E2EDF9E010C04115510509F4BCC04130BC
:10370000510509F09FC08DE690E0E6EFF8E003C0B8
:10371000009709F497C02091E800277F2093E800E4
:1037200020916E0430916F048217930708F49C0176
:1037300040E02115310589F180916604882309F460
:103740003DC08530D9F18091E80083FD37C080917C
:10375000E80082FD2FC08091E80080FFEACF409111
:10376000F3008091F20090E0942B2115310559F07F
:103770008830910540F444914093F10031962150F6
:1037800031090196F2CF41E0089709F040E08091BD
:10379000E8008E778093E800CCCF4111CDCF0AC0EE
:1037A00080916604882351F0853041F08091E800D3
:1037B00083FD04C08091E80082FFF2CF8091E80091
:1037C0008B778093E8003EC08038E1F58091E80077
:1037D000877F8093E800809167048093F100809157
:1037E000E8008E778093E8000E9483182BC0811137
:1037F00029C080916A0490916B049927029714F56F
:103800008091E800877F8093E80010916A0410930C
:1038100067040E948318111106C08091E30087FDA0
:1038200002C081E001C084E08093660442E061EC64
:1038300081E00E94A21842E261EC82E00E94A2189C
:10384000809166048091E80083FF1AC08091E800AF
:10385000877F8093E8008091EB0080628093EB008B
:103860000FC082E190E0E2EEF9E055CF89E090E010
:10387000E9EBF9E050CF84E490E0E3E6F9E04BCFE8
:10388000AA96E3E00C9435231F920F920FB60F9285
:1038900011242F933F934F935F936F937F938F9355
:1038A0009F93AF93BF93CF93DF93EF93FF93C09119
:1038B000E900CF708091EC00D82FD17080FDD0E866
:1038C0001092E9008091F000877F8093F000789457
:1038D0000E9480191092E9008091F0008860809326
:1038E000F000CD2BCF70C093E900FF91EF91DF91F5
:1038F000CF91BF91AF919F918F917F916F915F9188
:103900004F913F912F910F900FBE0F901F901895E0
:10391000E8EDF0E080818E7F80831092E2001092CB
:10392000DA001092E100A0EEB0E08C9181608C93FF
:1039300080818F77808319BCA7EDB0E08C918E7F5A
:103940008C9380818F7E8083109240040895A0E044
:10395000B0E0EDEAFCE10C941423C8EDD0E08881DE
:103960008F7E8883E7EDF0E080818160808384E052
:1039700082BF81E08093400488818E7F888302EE3D
:1039800010E0F80110821092DA0081EEC82ED12CDE
:10399000F601108288818F77888388818068888388
:1039A00088818F7D888319BC109266041092670409
:1039B000109265041092640490EEE92EF12CF70148
:1039C00080818B7F808388818160888342E060E092
:1039D00080E00E94A218F60180818E7F8083F8012A
:1039E000808181608083808188608083F70180810D
:1039F0008E7F8083888180618883CDB7DEB7E8E0E1
:103A00000C9430231F920F920FB60F9211242F9314
:103A10003F934F935F936F937F938F939F93AF9356
:103A2000BF93EF93FF938091E10082FF09C08091E3
:103A3000E20082FF05C08091E1008B7F8093E1006E
:103A40008091DA0080FF2AC08091D80080FF26C0D4
:103A50008091DA008E7F8093DA008091D90080FF18
:103A600018C080E189BD82E189BD09B400FEFDCFA7
:103A700081E0809366048091400481110FC00E9410
:103A8000881C0E94A71C8091E20084608093E20061
:103A900005C019BC10926604109240048091E100A8
:103AA00080FF17C08091E20080FF13C08091E20088
:103AB0008E7F8093E2008091E20080618093E2003B
:103AC0008091D80080628093D80019BC85E08093F3
:103AD00066048091E10084FF30C08091E20084FFA1
:103AE0002CC080E189BD82E189BD09B400FEFDCF13
:103AF0008091D8008F7D8093D8008091E1008F7EE7
:103B00008093E1008091E2008F7E8093E2008091BB
:103B1000E20081608093E20080916704882311F0C5
:103B200084E007C08091E30087FD02C081E001C00E
:103B300083E080936604809166048091E10083FFB6
:103B400027C08091E20083FF23C08091E100877F3E
:103B50008093E10082E08093660410926704809174
:103B6000E1008E7F8093E1008091E2008E7F809360
:103B7000E2008091E20080618093E20042E060E038
:103B800080E00E94A2188091F00088608093F0008D
:103B9000FF91EF91BF91AF919F918F917F916F9125
:103BA0005F914F913F912F910F900FBE0F901F90FB
:103BB00018952091E4003091E50095E64091EC00E5
:103BC000842F817040FF23C08091E80080FD1DC0DC
:103BD00080916604882399F0853099F08091EB00FC
:103BE00085FD11C04091E4005091E5002417350790
:103BF00029F3915011F09A01E1CF84E0089582E019
:103C0000089583E0089581E0089580E0089540914B
:103C1000E80042FFDDCF0895A6E0B0E0E2E1FEE17A
:103C20000C940A2385B7806885BF85B7806885BFF7
:103C300084B7877F84BF0FB6F894A8958091600001
:103C4000886180936000109260000FBE90E080E871
:103C50000FB6F89480936100909361000FBE8FE4DB
:103C600092E190933902809338020E94881C0E944E
:103C7000A71C8091E20084608093E2007894809198
:103C800066048823A1F01091E9001F709091EC0068
:103C9000892F817090FD80E8182B1092E9008091A7
:103CA000E80083FD0E9480191F701093E90082E0F4
:103CB00084BD93E095BD9AEF97BD80936E000E94FE
:103CC000990A90E090931601809315010E94D40BFD
:103CD0000E941A0CEBE7F4E0A9E8B4E011921D92FF
:103CE00024E0E938F207D1F78EE090E00E945825F1
:103CF0008093790490937A04FC010E961192E81750
:103D0000F907E1F789EA8093800089E080938100D8
:103D100024982C983F988AB18F7C8AB96E98479ADC
:103D20008BB180638BB9769A8FE090E00E9462231A
:103D30006093410270934202809343029093440245
:103D400067708FEF689FB001112475956795759521
:103D500067957727709389006093880070938B0034
:103D600060938A0070938D0060938C000E94100B0A
:103D700080E090E00E946823863E9E4F11F00E94F2
:103D8000961482E090E00E945A238093970484E086
:103D900090E00E94682390933F0480933E0483E068
:103DA00090E00E945A230E949D20809140020E9430
:103DB00024060E941B100E940E100E940E1080917B
:103DC00070048160809370048DE091E09093A9036A
:103DD0008093A80398E1A92EB12C27E9C22E24E0F4
:103DE000D22E2224239436EA832E34E0932E80911F
:103DF0006604853009F06CC003E010E18091660430
:103E0000853009F05DC080916604843009F437C0C4
:103E10000E9480118091490281110DC00E94C91039
:103E200010920701809171048370809306010E94B3
:103E30006C0D00930C01209249021092AC03F0E447
:103E40000FB6F894A895A09260000FBEF0936000A2
:103E500083B7817F846083BF83B7816083BF789499
:103E6000889583B78E7F83BF0FB6F894A89580910D
:103E70006000886180936000109260000FBE8091A6
:103E80006504882309F4BACF0E94990A90E09093C0
:103E90001601809315010E94D40B0E941A0CE9E8C8
:103EA000F4E01192CE16DF06E1F70E948617E9E8EA
:103EB000F4E08191811165C0CE16DF06D1F79ECF67
:103EC000109241040E94C3200E94FA0F10924902EE
:103ED0000E94861708E914E0A9E8B4E0F80191917E
:103EE0008D9189278E169F0619F08823C1F305C08E
:103EF000811103C00E945F1836C089E8E82E84E073
:103F0000F82E712CF70131907F01F8014080432495
:103F100011F1612C55245394842D8521A9F06982D7
:103F20007A820E941E0F9C838B83F1E0FD8391E0D7
:103F3000852D832109F490E09E8349815A816B810C
:103F40007C818D810E9492056394550C26E062125B
:103F5000E3CFF801308273940F5F1F4FFEE07F12B2
:103F6000D1CF0E94120F0E9480110E94FA0F9091EF
:103F7000A604891709F43BCF8093A6040E94120F70
:103F800036CF19BD82E189BD09B400FEFDCF809115
:103F9000D8008F7D8093D8008091E000826080936C
:103FA000E0008091E00081FDFCCF109241040E946E
:103FB000C32024CFCF92DF92FF920F931F93CF9312
:103FC000DF936C010091400280913504082BC7E01B
:103FD000D0E010E0C8010C2E02C0959587950A9498
:103FE000E2F780FD04C02197A8F7F12C09C0FC2E50
:103FF000B6018C2F0E945C130E947913019799F3EC
:104000008F2DDF91CF911F910F91FF90DF90CF9077
:104010000895CF93DF93EC010E94DA1FBE010E9446
:104020005C130E947913DF91CF910895292F9E3060
:1040300078F5863068F590E036E0239F800D911D7D
:104040001124682F677023E0969587952A95E1F7EC
:10405000FC01EE0FFF1FE80FF91FE955FB4F40E091
:1040600050E080E0219130E0062E02C03695279581
:104070000A94E2F721703327042E01C0220F0A941C
:10408000EAF7822B4F5F5F4F4330510559F7089590
:1040900080E00895292F9E3088F5863078F590E0ED
:1040A00036E0239F800D911D1124282F277051E0A9
:1040B00001C0550F2A95EAF723E0969587952A9532
:1040C000E1F7FC01EE0FFF1FE80FF91FE955FB4F69
:1040D00020E030E070E04081CB01022E02C09695D6
:1040E00087950A94E2F78170819584278523842738
:1040F00081932F5F3F4F2330310569F708950E9468
:10410000240680934002089521E030E001C0220F90
:104110008A95EAF720958091400282230E947F20B1
:10412000089521E030E001C0220F8A95EAF78091DE
:104130004002822B0E947F200895809335040895C9
:10414000FC0124812223D9F0808191810E940920E1
:1041500092959F70963079F010F4925001C09A5069
:10416000923068F4803F69F018F4883E40F409C04A
:10417000843F29F406C0883E20F0813F11F080E0A2
:10418000089581E0089580910B01882331F080919A
:104190003E0487FF02C08EE101C086E0E3EBF3E05E
:1041A000DF011D928A95E9F780E090E00E94D50F2B
:1041B00080E090E00E94B00F109234040E94191524
:1041C0000895882321F00E9412150E941915089560
:1041D000882339F090914104892B809341040E94F7
:1041E00019150895882309F455C0682F823869F499
:1041F0000E94FA0F81FF4EC069E381EB93E00E94B9
:104200007B0F0E94191569E30EC0833899F40E9450
:10421000FA0F80FF3FC063E581EB93E00E947B0FC4
:104220000E94191563E581EB93E00E94530F0E94F1
:1042300019150895843869F40E94FA0F82FF2AC084
:1042400067E481EB93E00E947B0F0E94191567E4FD
:10425000EACF8CEF860F813A30F380E2860F883008
:1042600048F4677081E001C0880F6A95EAF70E9400
:104270001215DDCF8BE5860F833028F480E090E0C7
:104280000E94D50F0895685A6B3120F480E090E0C9
:104290000E94B00F0895CF93882309F4B4C0C82FAB
:1042A0008238B1F40E94FA0F81FDADC069E381EB61
:1042B00093E00E947B0F0E9419152FEF87EE93E089
:1042C000215080409040E1F700C0000069E317C032
:1042D0008338E1F40E94FA0F80FD95C063E581EB1D
:1042E00093E00E947B0F0E9419152FEF81EE94E05E
:1042F000215080409040E1F700C0000063E581EB71
:1043000093E00E94530F0E9419157DC08438B1F4C8
:104310000E94FA0F82FD77C067E481EB93E00E9470
:104320007B0F0E9419152FEF81EE94E02150804001
:104330009040E1F700C0000067E4E1CF8CEF8C0F04
:10434000813AB8F580910B018823E1F080913E0419
:1043500087FF18C0EC2FE695E695E695F0E0EF5460
:10436000FC4F8281282F30E04C2F477081E090E095
:1043700002C0880F991F4A95E2F782239323892B65
:1043800059F411C0E3EBF3E08191C81729F023E061
:10439000E93BF207C9F707C06C2F81EB93E00E945D
:1043A000530F0E9419156C2F81EB93E00E947B0F35
:1043B000AACF80E28C0F883068F4C77081E090E06B
:1043C00001C0880FCA95EAF790914104892B809328
:1043D000410499CFEBE5EC0FE33040F4F0E0E2501C
:1043E000FE4F808190E00E94D50F0DC0C85ACB319E
:1043F00050F4EC2FF0E0EE0FFF1FEF5FFD4F8081D8
:1044000091810E94B00FCF9108951092B9008CE075
:104410008093B8000895A0E0B0E0E1E1F2E20C94EE
:104420001123B82EEB010E941E0F6C01C431D1057F
:1044300058F0CF3F8FEFD80759F0CE0164E170E01C
:104440000E94F6227B0107C0EE24E394F12C03C006
:1044500025E0E22EF12C84E8A82E94EA992E109201
:10446000BC009092BC000E941E0F8C018091BC0089
:1044700087FD07C0C8010E94030FE816F906B0F7D0
:1044800029C08091B900887F883041F08091B900BF
:10449000887F803119F00FEF1FEF1EC0B092BB0074
:1044A000A092BC000E941E0F8C018091BC0087FD71
:1044B00007C0C8010E94030FE816F906B0F70AC04A
:1044C0008091B900887F883111F0803421F700E0B5
:1044D00010E00EC00EEF1FEFCF3F8FEFD80709F4AB
:1044E000BECFC6010E94030FC817D90708F0B7CF87
:1044F000C801CDB7DEB7EBE00C942D230F931F93CB
:10450000CF93DF93EB018093BB0084E88093BC00E2
:104510000E941E0F8C018091BC0087FD0DC0CF3F13
:104520008FEFD807C1F3C8010E94030FC817D9073E
:1045300090F78EEF9FEF0CC02091B900287F81E0AB
:1045400090E0283211F480E090E0919581959109F6
:10455000DF91CF911F910F9108950F931F93CF93E8
:10456000DF93EC0184E88093BC000E941E0F8C0155
:104570008091BC0087FD0DC0CF3F8FEFD807C1F3FE
:10458000C8010E94030FC817D90790F78EEF9FEF5D
:1045900003C08091BB0090E0DF91CF911F910F91FC
:1045A0000895A0E0B0E0E7EDF2E20C9414236B0173
:1045B0008A017901B9010E940B22E6010C0D1D1D33
:1045C000C017D10741F424E92093BC00CDB7DEB772
:1045D000E8E00C94302397FDF6CFB70189910E9453
:1045E0007E22EECF84E98093BC000895AA1BBB1BFA
:1045F00051E107C0AA1FBB1FA617B70710F0A61BE3
:10460000B70B881F991F5A95A9F780959095BC0103
:10461000CD0108952F923F924F925F926F927F92B9
:104620008F929F92AF92BF92CF92DF92EF92FF92C2
:104630000F931F93CF93DF93CDB7DEB7CA1BDB0B6E
:104640000FB6F894DEBF0FBECDBF09942A88398813
:1046500048885F846E847D848C849B84AA84B9841A
:10466000C884DF80EE80FD800C811B81AA81B98126
:10467000CE0FD11D0FB6F894DEBF0FBECDBFED013A
:104680000895FB01DC0102C005900D92415050409D
:10469000D8F70895DC01CB01FC01F999FECF06C0E3
:1046A000F2BDE1BDF89A319600B40D9241505040F0
:1046B000B8F70895F999FECF92BD81BDF89A992770
:1046C00080B50895A6E1B0E044E050E00C944C239E
:1046D000A8E1B0E042E050E00C944C23DC01A40FD0
:1046E000B51F4150504048F0CB01840F951F2E91CB
:1046F0000E947F2341505040D0F70895262FF9990A
:10470000FECF92BD81BDF89A019700B4021639F030
:104710001FBA20BD0FB6F894FA9AF99A0FBE089501
:104720000396272F0E947F230E947E23252F0E941D
:104730007F23242F0C947F230196272F0E947F2311
:104740000C947E230E94B6230C9497240E949024FC
:1047500058F00E94892440F029F45F3F29F00C941E
:10476000802451110C94CB240C9486240E94A824FC
:1047700068F39923B1F3552391F3951B550BBB2790
:10478000AA2762177307840738F09F5F5F4F220FD5
:10479000331F441FAA1FA9F335D00E2E3AF0E0E8CC
:1047A00032D091505040E695001CCAF72BD0FE2F16
:1047B00029D0660F771F881FBB1F261737074807AA
:1047C000AB07B0E809F0BB0B802DBF01FF27935862
:1047D0005F4F3AF09E3F510578F00C9480240C9482
:1047E000CB245F3FE4F3983ED4F3869577956795A5
:1047F000B795F7959F5FC9F7880F911D9695879597
:1048000097F90895E1E0660F771F881FBB1F6217B5
:1048100073078407BA0720F0621B730B840BBA0B73
:10482000EE1F88F7E09508950E94B02488F09F5706
:1048300098F0B92F9927B751B0F0E1F0660F771FC4
:10484000881F991F1AF0BA95C9F714C0B13091F0BA
:104850000E94CA24B1E008950C94CA24672F782FCF
:104860008827B85F39F0B93FCCF38695779567957F
:10487000B395D9F73EF490958095709561957F4FEB
:104880008F4F9F4F0895E89409C097FB3EF4909591
:104890008095709561957F4F8F4F9F4F9923A9F019
:1048A000F92F96E9BB279395F695879577956795A8
:1048B000B795F111F8CFFAF4BB0F11F460FF1BC0EC
:1048C0006F5F7F4F8F4F9F4F16C0882311F096E97F
:1048D00011C0772321F09EE8872F762F05C066232D
:1048E00071F096E8862F70E060E02AF09A95660FE6
:1048F000771F881FDAF7880F9695879597F908959F
:1049000097F99F6780E870E060E008959FEF80EC82
:10491000089500240A941616170618060906089525
:1049200000240A9412161306140605060895092E8B
:104930000394000C11F4882352F0BB0F40F4BF2BFA
:1049400011F460FF04C06F5F7F4F8F4F9F4F08953A
:1049500057FD9058440F551F59F05F3F71F0479530
:10496000880F97FB991F61F09F3F79F08795089515
:10497000121613061406551FF2CF4695F1DF08C034
:10498000161617061806991FF1CF86957105610551
:1049900008940895E894BB2766277727CB0197F9F9
:1049A00008950E94E4240C9497240E94892438F0EE
:1049B0000E94902420F0952311F00C9480240C94F4
:1049C000862411240C94CB240E94A82470F3959F74
:1049D000C1F3950F50E0551F629FF001729FBB27F6
:1049E000F00DB11D639FAA27F00DB11DAA1F649F92
:1049F0006627B00DA11D661F829F2227B00DA11D45
:104A0000621F739FB00DA11D621F839FA00D611DCA
:104A1000221F749F3327A00D611D231F849F600DEB
:104A2000211D822F762F6A2F11249F5750409AF014
:104A3000F1F088234AF0EE0FFF1FBB1F661F771FA0
:104A4000881F91505040A9F79E3F510580F00C946B
:104A500080240C94CB245F3FE4F3983ED4F38695F6
:104A600077956795B795F795E7959F5FC1F7FE2B0B
:104A7000880F911D9695879597F9089597FB072EB6
:104A800016F4009407D077FD09D00E94F62207FCA7
:104A900005D03EF4909581959F4F0895709561954E
:104AA0007F4F0895EE0FFF1F0590F491E02D0994BC
:104AB0000F931F93CF93DF938230910510F482E020
:104AC00090E0E091CA04F091CB0420E030E0A0E057
:104AD000B0E0309719F1408151810281138148176C
:104AE0005907C8F08417950769F4109731F01296AA
:104AF0000C93129713961C9327C00093CA0410932B
:104B0000CB0422C02115310519F04217530718F4C0
:104B10009A01BD01EF01DF01F801DBCF211531055D
:104B2000F9F0281B390B2430310580F48A819B81F0
:104B30006115710521F0FB019383828304C090937A
:104B4000CB048093CA04FE01329644C0FE01E20FFA
:104B5000F31F8193919322503109398328833AC0FE
:104B60002091C8043091C904232B41F42091020103
:104B7000309103013093C9042093C80420910001AF
:104B8000309101012115310541F42DB73EB7409117
:104B9000040150910501241B350BE091C804F091EC
:104BA000C904E217F307A0F42E1B3F0B281739079F
:104BB00078F0AC014E5F5F4F2417350748F04E0F79
:104BC0005F1F5093C9044093C8048193919302C01E
:104BD000E0E0F0E0CF01DF91CF911F910F910895B8
:104BE000CF93DF93009709F481C0FC0132971382C1
:104BF0001282A091CA04B091CB04109781F4208155
:104C00003181820F931F2091C8043091C904281765
:104C1000390751F5F093C904E093C80467C0ED016A
:104C200020E030E0CE17DF0740F44A815B819E012F
:104C300041155105F1F0EA01F5CFD383C2834081DC
:104C40005181840F951FC817D90759F4888199811C
:104C5000840F951F0296918380838A819B81938321
:104C600082832115310529F4F093CB04E093CA0423
:104C70003DC0E901FB83EA8349915991C40FD51FD7
:104C8000EC17FD0761F480819181840F951F0296D6
:104C9000E90199838883828193819B838A83E0E001
:104CA000F0E012968D919C911397009719F0FD01F9
:104CB000DC01F7CF8D919C9111979D012E5F3F4FA5
:104CC000820F931F2091C8043091C9042817390717
:104CD00069F4309729F41092CB041092CA0402C0F0
:104CE00013821282B093C904A093C804DF91CF91BC
:104CF0000895FB01DC0104C08D910190801921F41D
:104D000041505040C8F7881B990B0895F894FFCF85
:104D10000000CC042000FFFF00FF000103270C3D32
:104D20001935193619200000FFFFFFFFFFFFFFFFB5
:104D30001C21262B2FFF1B20252A2EFF1A1F24297A
:104D40002DFF191E23282CFF181D2227FFFFFFFF10
:104D5000FFFFFFFFFFFFFFFFFFFF00050A0FFFFF41
:104D600001060B1014FF02070C1115FF03080D12AA
:104D700016FF04090E1317FFFFFFFFFFFFFF890057
:104D80009A00AC00BD00CE00890C9A0CAC0CBD0C96
:104D9000CE0C89199A19AC19BD19CE1989269A26F3
:104DA000AC26BD26CE269A33AC33BD33CE33560067
:104DB0004400330022001100560C440C330C220C2A
:104DC000110C561944193319221911195626442663
:104DD000332622261126443333332233113304047D
:104DE0000404040404040404040404040404040483
:104DF000040401010101040404040404040404047F
:104E00000404040404040404040401010101818273
:104E100083E200E900EA00B500B600B700CD0083E8
:104E200001CC008A0192019401210223022402256F
:104E300002260227022A02B300B4006F0070009F0E
:084E400001CB019F02A002005A
:00000001FF
