:100000000C94C0020C94DD020C94DD020C94DD0211
:100010000C94DD020C94DD020C94DD020C94DD02E4
:100020000C94DD020C94DD020C94770D0C94B90C49
:100030000C9445140C94DD020C94DD020C94DD024A
:100040000C94DD020C94DD020C94DD020C94DD02B4
:100050000C94DD020C944E0E0C94DD020C94DD0227
:100060000C94DD020C94DD020C94DD020C94DD0294
:100070000C94DD020C94DD020C94DD020C94DD0284
:100080000C94DD020C94DD020C94DD020C94DD0274
:100090000C94DD020C94DD020C94DD020C94DD0264
:1000A0000C94DD020C94DD020C94DD02D803DD0318
:1000B000E703DB03E003E503E3031C051C054F0531
:1000C0004F05CC05E906E906E906EA055E066F0676
:1000D0006F063A083D0840084308460849084C089E
:1000E000D80AFF0A970CFF0A970C470B6A0B970C6C
:1000F000590C6C0C05010980A101850319012AB76F
:1001000000150126B700950175108100C0050C0986
:1001100001A101850419012AA002150126A002955A
:100120000175108100C005010906A10185060507BA
:1001300019E029E7150025019508750181020507D9
:10014000190029EF1500250195F0750181020508B8
:100150001901290595057501910295017503910114
:10016000C005010906A101050719E029E7150025C9
:10017000019508750181029501750881010507192E
:100180000029FF150026FF00950675088100050867
:1001900019012905150025019505750191029501A3
:1001A00075039101C009023B00020100A0FA090495
:1001B0000000010301010009211101000122440096
:1001C0000705810308000109040100010300000084
:1001D000092111010001226D0007058203200001A1
:1001E0001201000200000008973274490100010268
:1001F000000116034500720067006F0044006F00A5
:100200007800200045005A00000028035A005300DF
:100210004100200054006500630068006E006F001C
:100220006C006F006700790020004C0061006200E4
:10023000730000000403090401002B003500E100F5
:10024000010000001E00140004221D0001002152C4
:100250001F001A0016341B0001002943200008006B
:100260000721060001002A21210015000928190094
:1002700001000100220017000A0005000000010033
:100280000100010000000100000001000100010068
:1002900000002E000000010023001C000B001100D4
:1002A00000000100240018000D38100001000100BA
:1002B00025000C000E31360001002C3426001200FF
:1002C0000F34370001002844270013003332380070
:1002D00001008252010031003400E50001000000FD
:1002E0000100010001000100010000000100010007
:1002F0002F02010001000100010001002F00010098
:1003000001000100010001003000010001000100B6
:1003100001000100300201000100010001000100A4
:1003200001000100000001000100010000000100C7
:10033000000001000100010000002D00000001008C
:100340000100010050000100000001000100010057
:1003500051000100010001000100010052000100F4
:1003600001000100010001004F0001000100010037
:100370000100010001000100010001000100010075
:100380000100010001000000010001000100010066
:10039000010000003A003E00420068000100010038
:1003A0003B003F0043006900010001003C004000A9
:1003B00044006A0001004C003D00410045006B0014
:1003C0000100010001000100010001000000010026
:1003D0000100010000000100000001000100010017
:1003E0000000010000000100010001000100010007
:1003F00000000100010001000100010001000100F6
:1004000001000100010001000100010001000100E4
:10041000010001000100010001004600010065002B
:1004200001000100010001000100010001000000C5
:1004300001000100010001000100000001000100B5
:100440001E00010001000100010001001F00010069
:100450000100010001000100200001000100010075
:100460000100010021000100010001000100010064
:100470002200010000000100010001000000010055
:100480000000010001000100000001000000010067
:1004900001002D02230001000000010001002D00D9
:1004A00024000100010001000100010025000100FD
:1004B000010001000100010026000100010001000F
:1004C00001000100270001000100010001000100FE
:1004D0000100010001000000010001000100010015
:1004E00001000000010001001E02010001000100E6
:1004F000010001001F0201000100010001000100D4
:1005000020020100010001000100010021020100A0
:1005100001000100010001002202010000000100B1
:1005200001000100000001000000010001000100C5
:100530000000010000000100010001002302010091
:10054000000001000100010024020100010001007F
:10055000010001002502010001000100010001006D
:100560002602010001000100010001002702010034
:1005700001000100010001002D0001000100000048
:1005800011241FBECFEFDAE0DEBFCDBF11E0A0E047
:10059000B1E0E0E4F8E302C005900D92AA34B1079F
:1005A000D9F722E0AAE4B1E001C01D92A037B2075A
:1005B000E1F70E9422150C941E1C0C940000982F49
:1005C00092959F7019F0892F24E001C020E0982FA8
:1005D0009695969511F02E5F892F982F969509F094
:1005E0002F5F822F0895A6E0B0E0E9EFF2E00C94CF
:1005F0006A1A49835A8349815A81992361F02223D7
:1006000051F0CA010E944C17182F682F89819A81D6
:100610000E94BC1704C0CA010E948817182F698164
:100620007A81812F0E949C0F2696E3E00C94861A13
:10063000109255010E9435182FEF84E39CE0215061
:1006400080409040E1F700C000009AE088E10FB6DA
:10065000F894A895809360000FBE90936000FFCF40
:10066000ABE1B0E0E6E3F3E00C94691A4E8B5F8BEC
:10067000688F798F8A8F9B8F192F911110920702A3
:10068000DE011F9687E0FD0111928A95E9F786E069
:10069000FE01769601900D928A95E1F70A8D00236E
:1006A00041F021E04F85588969897A89C8010E9403
:1006B000F3020B8B1C8B87E0FE013F96DE01189640
:1006C00001900D928A95E1F7CE0108960E94C31120
:1006D00081112CC087E0FE013896DE011196019051
:1006E0000D928A95E1F76C85662301F12091AB01AB
:1006F00030E0C9010196877099274091E40150E0EC
:100700008417950761F16D8397E0929FD001939FC5
:10071000B00D1124A455BE4FFE01319601900D92EB
:100720009A95E1F78093AB010E94601117E08091E8
:10073000E4019091AB01891709F1189FC0011124C0
:1007400084559E4F0E94C3118823C1F08091E4011B
:1007500090E00196877099278093E401E8CF10928A
:1007600055010E9435181092AB011092E401E4EAA1
:10077000F1E087E0DF011D928A95E9F76B96E4E0EE
:100780000C94851ACF93C82F0E94DF0256985E986A
:1007900025982D9826982E9827982F9890E0FC0160
:1007A0003197E730F105A8F4EA5AFF4F0C94EA1AA2
:1007B000259A2D9A0EC0259A2D9A269A2E9A09C00E
:1007C000259A2D9A04C0259A2D9A269A2E9A279A10
:1007D0002F9A8C2FCF910895A0E0B0E0E2EFF3E0E4
:1007E0000C94641AFC018481882309F419C38F01D5
:1007F00021E0408151816281738195810E94F302E1
:10080000EC0181159E47D1F5F80185818823B1F16E
:100810009091200281E0890F8770987F853020F4C5
:10082000892B8093200202C09093200280912002A5
:100830008770FFEF8F9FC00111249595879595953F
:1008400087959927909389008093880090938B00D7
:1008500080938A0090938D0080938C0040912002B9
:100860005091210260912202709123028FE090E06A
:100870000E94C81A809125020E94C203F801858156
:10088000882309F483C0C330FCE7DF0709F45DC0A7
:1008900048F4C1158CE7D807A9F0C130DC4709F44A
:1008A0005AC074C0CB35ECE7DE0709F45EC0CC3526
:1008B000FCE7DF0709F451C0CA35DC4709F066C020
:1008C00081E054C0109255010E9435188FEF94E3D7
:1008D000ECE081509040E040E1F700C00000F89467
:1008E00081E08093E00080E28093D8001092C900FC
:1008F0008FE19EE40197F1F700C000001DBA10924D
:1009000068001CBC10BE1FBA10927A0010926E00D4
:1009100010926F0010927100109272001092C90034
:100920001092BC0014B817B81AB81DB810BA1092BB
:10093000BC0015B818B81BB81EB811BA0C94003F0B
:100940008091E5018770A9F46BC26FEF7FEF80E0C3
:1009500090E00E94D41A0E9418038091530182FBF8
:10096000882780F991E0892701C080E00E94491121
:100970000DC0F8018581882309F452C2809153018A
:1009800082FF4EC282E00E9432114AC2F801858184
:10099000C081D181882349F0CE010E944C17F82EE6
:1009A000682FCE010E94BC1704C0CE010E94881798
:1009B000F82EBE018F2D0E949C0F0E94B90FF82EB9
:1009C000C92FC82EF801D581E680E2949FE0E92284
:1009D0008091E501877001F1DD23F1F08C2F807F9C
:1009E000803469F080E28F0D8830B0F08C2F807EEB
:1009F000803229F4F1E0FF1578F4EE2069F080915F
:100A0000530182FF09C082E00E9432118091E5010A
:100A10008770DD24D3948111D12CBC2EB2948FE049
:100A2000B8228B2D90E08C30910508F0D2C1FC01EA
:100A3000E35AFF4F0C94EA1A8C2F807FCF708823E3
:100A400011F0C295C07FDD23B9F0CC2309F4AFC10A
:100A500080E28F0D883010F0C11006C090915501D2
:100A6000C92BC093550105C090910702C92BC093B3
:100A700007020E94DD109BC18F2D0E946418CC23B9
:100A800009F4A7C180E28F0D883088F1CC2079F17C
:100A9000C09590910702C923C09307022BC08C2FE9
:100AA000807FCF70803211F0C295C07F8F2DCC2017
:100AB00029F021E0C21609F44CC055C080915301C1
:100AC00082FD1BC0DD2369F0CC2339F090915501E4
:100AD000C92BC09355010E94DD1080E00E94BD1813
:100AE00078C180E00E946418CC2309F472C18C2F75
:100AF0000E94D6100E94DD106CC1DD2381F0EE2033
:100B0000B1F181E0E81265C1909106028C2F892332
:100B1000C81709F45EC1C92BC09306025AC1E1107F
:100B200058C18C2F0E945318809106029C2F982345
:100B300029F09C2F909589238093060280914D0186
:100B40009C2F982309F445C1C0958C2380934D01B7
:100B500040C1DD2329F091E09E1508F43AC107C099
:100B6000E11037C115C0DD2331F0E11020C18C2F19
:100B70000E945A182EC1EE2059F0893309F026C17F
:100B8000EFEFF7EE23E0E150F0402040E1F71CC129
:100B90008C2F0E9453181DC18C2F869586958370CB
:100BA00019F0813061F015C1DD2321F08F2D9C2FCC
:100BB000937002C080E090E00E94F01410C1DD2329
:100BC00021F08F2D9C2F937002C080E090E00E9456
:100BD000CB1405C18C2F8370A9F5D111FEC04F2D08
:100BE000429546954770440F440F8F2D8F7090E0CB
:100BF0009C01042E01C0220F0A94EAF7F4FE08C0FB
:100C00008FE090E001C0880F4A95EAF7809501C017
:100C100080E0C695C695C370C23069F088F49091A3
:100C20002402C13019F0822B892302C0922B892B18
:100C30000E940F18D2C0822B909124028927F8CFEE
:100C4000822BF6CFDD2319F08C2F817001C08695A1
:100C5000882309F4C2C04F2D429546954770440F32
:100C6000440F8F2D8F7090E09C01042E01C0220F45
:100C70000A94EAF7F4FE08C08FE090E001C0880F04
:100C80004A95EAF7809501C080E0C695C695C37085
:100C9000C23059F078F490912502C13019F0822BBE
:100CA000892309C0922B892B06C0822B90912502A3
:100CB000892701C0822B0E94F1178FC0CF70DD23DE
:100CC00039F08C2F0E9403188F2D0E945A1885C06E
:100CD0008F2D0E9453188C2F0E94F6177EC08F2DE7
:100CE00092EFC91669F19C1538F0E0EFCE1659F075
:100CF000F1EFCF1601F157C023EFC21641F194EF87
:100D0000C916A9F050C0DD2369F0E11062C0CF71AF
:100D100081E090E001C0880FCA95EAF79091250222
:100D200089271FC0E1E0EE1508F453C0F0CF809191
:100D3000530182FD19C0DD2329F08C2F8F7126C04D
:100D4000DD23D9F38C2F8F710E94F61742C0DD236B
:100D500039F0CF7181E001C0880FCA95EAF701C070
:100D600080E00E94F11735C0DD2399F0CF718C2F00
:100D70000E9403188091530182FF07C0F8E0CF9FC3
:100D8000C001112483608093E5018C2F0E94031819
:100D900020C081E00E94321121E02E15D0F482E0C3
:100DA0000E94321116C0DD2321F0EE2031F28F2D8A
:100DB00095CEEE2039F2893349F48FEF97EEE3E0D8
:100DC00081509040E040E1F700C000008F2D0E946C
:100DD000641888EF8B0D843010F40E941515DD2007
:100DE000A9F08091E50180FD11C0F801158286957A
:100DF000869586950E940318C8010E94EC03809195
:100E0000E5018695869586950E94F61720E0F80103
:100E10004081518162817381848195810E94F302B6
:100E2000CDB7DEB7E9E00C94801A80E290E09093B1
:100E3000100180930F0180914C0181110EC00E941E
:100E4000771981E080934C012FEF83ED90E32150DF
:100E500080409040E1F700C0000060E570E080E471
:100E60000E947D199093100180930F01892B09F046
:100E70004EC060E570E080E00E94F0199093100190
:100E800080930F01892B09F042C060E570E080E09B
:100E90000E94F0199093100180930F01892BB9F5EE
:100EA00060E570E08FE30E94F01990931001809349
:100EB0000F01892B61F50E94431A60E570E080E420
:100EC0000E947D199093100180930F01892BF9F4F2
:100ED00060E570E08CE00E94F0199093100180931F
:100EE0000F01892BA1F460E570E080E00E94F01909
:100EF0009093100180930F01892B49F460E570E015
:100F00008FE30E94F0199093100180930F010E94CB
:100F1000431A80910F010895CF93DF9356985E98FE
:100F200025982D9826982E9827982F98C8E8D0E0D5
:100F30008FEF90E099838883AAE8B0E011969C93A4
:100F40008E93ECE8F0E091838083259A2D9A2FEF21
:100F500080E792E0215080409040E1F700C000001F
:100F6000269A2E9A2FEF80E792E021508040904001
:100F7000E1F700C00000279A2F9A2FEF80E792E058
:100F8000215080409040E1F700C0000025982D9846
:100F90002FEF80E792E0215080409040E1F700C0C1
:100FA000000026982E982FEF80E792E02150804095
:100FB0009040E1F700C0000027982F988091200210
:100FC00087702FEF829FC001112495958795959585
:100FD000879599279983888311969C938E93918303
:100FE000808356985E9825982D9826982E98279855
:100FF0002F98DF91CF910895CF93E82F873080F518
:1010000080910F0190911001892B09F047C0CE2FDC
:1010100060E570E080E40E947D1990931001809358
:101020000F01892BD1F460E570E082E10E94F01994
:101030009093100180930F01892B79F481E090E067
:1010400001C0880FCA95EAF760E570E080950E94BC
:10105000F0199093100180930F010E94431A1EC053
:1010600090E0FC013797E730F105C0F4E759FF4FF6
:101070000C94EA1A209A289811C0219A29980EC037
:10108000229A2A980BC0239A2B9808C0529A5A98F1
:1010900005C0539A5B9802C03E9A4698CF91089536
:1010A000209828982198299822982A9823982B9854
:1010B00052985A9853985B983E9846980895CF93C3
:1010C000873040F580910F0190911001892B59F5DF
:1010D00060E570E081E40E947D1990931001809397
:1010E0000F01892B11F0C0E011C080E590E00E9453
:1010F0001F1A97FF05C09093100180930F01F3CF43
:10110000C82FC0951092100110920F010E94431A2F
:101110008C2F0AC09FB18FB1807F86958695937082
:10112000892B809501C080E0CF9108958098889A9E
:101130008198899A84988C9A85988D9A86988E9AA7
:1011400087988F9A08952091E4003091E50095E604
:101150004091EC00842F817040FF23C08091E80013
:1011600080FD1DC080917A01882399F0853099F027
:101170008091EB0085FD11C04091E4005091E500A5
:101180002417350729F3915011F09A01E1CF84E03B
:10119000089582E0089583E0089581E0089580E055
:1011A00008954091E80042FFDDCF089580917C01D1
:1011B00087FF11C08091E80082FD05C080917A010F
:1011C0008111F8CF11C08091E8008B770BC080911E
:1011D0007A01882349F08091E80080FFF8CF809160
:1011E000E8008E778093E8000895982F973068F58F
:1011F0009093E900981739F07091EC002091ED0080
:101200005091F00003C0242F762F50E021FD02C042
:101210009F5FECCF3091EB003E7F3093EB0030913D
:10122000ED003D7F3093ED003091EB003160309365
:10123000EB007093EC002093ED005093F0002091B0
:10124000EE0027FDE5CF80E008958F708093E900E0
:1012500081E008952091820130918301261737079C
:1012600048F06115710539F42091E8002E7720933C
:10127000E80001C0B901FC0120E06115710579F1B8
:1012800080917A018823F1F18530F1F18091E800B5
:1012900083FD3CC08091E80082FD2EC08091E80073
:1012A00080FFEBCF2091F3008091F20090E0922B31
:1012B0006115710551F08830910538F42191209322
:1012C000F100615071090196F3CF21E0089709F010
:1012D00020E08091E8008E778093E800CECF211146
:1012E000CFCF0AC080917A01882361F0853061F008
:1012F0008091E80083FD0AC08091E80082FFF2CF70
:1013000080E0089582E0089583E0089581E00895E3
:1013100008958091570108950F931F93CF93DF9302
:101320008B01EA0190917A01943079F58F70809366
:10133000E9008FEF9091E800815095FD06C095ED92
:101340009A95F1F700008111F5CF8091E80085FFB3
:101350001CC00E94A308882361F08091E8008E776A
:101360008093E80012C0F80181918F018093F10011
:101370002197209791F38091E80085FDF4CF80912B
:10138000E8008E778093E800E4CFDF91CF911F9142
:101390000F91089543E050E0BC0182E00E948C0967
:1013A0000895CF93DF93EC0180910601811105C070
:1013B00048E050E0BE0181E00BC08091520187FF00
:1013C00003C040E282E002C048E081E050E0BE019C
:1013D0000E948C0980E2FE01A8E5B1E001900D9227
:1013E0008A95E1F7DF91CF910895AAE2B0E0EBEFA3
:1013F000F9E00C946A1AECE7F1E084E891E02091BE
:10140000F10021938E179F07D1F780917D018330E2
:1014100009F461C030F4813071F0823009F49DC06C
:10142000B4C08A3009F489C08B3009F46CC08930AB
:1014300009F0ABC020C080917C01813A09F0A5C0C1
:101440008091E800877F8093E800809180019091EF
:101450008101892B21F460E288E591E003C060E01E
:1014600080E090E070E00E942A098091E8008B778C
:101470008093E8008AC080917C01813209F085C0A8
:101480008091800190918101029708F07EC0809147
:10149000E800877F8093E8008091E80082FD05C026
:1014A00080917A018111F8CF70C02091F300809172
:1014B000F20090E0922B029731F48091F10081309C
:1014C00011F0863021F48091F100809357018091D2
:1014D000E8008B7756C080917C01813A09F055C0B5
:1014E0008091800190918101892B09F04EC08091FB
:1014F000E800877F8093E8008091E80080FFFCCFC0
:101500008091060139C080917C018132F1F5809192
:10151000800190918101892BC1F58091E800877F3E
:101520008093E8000E94D60880917E018093060196
:10153000109255010E94351828C080917C0181329B
:1015400021F58091E800877F8093E8000E94D6080B
:1015500080917F018093560118C080917C01813A6F
:10156000A1F48091E800877F8093E8008091E800F3
:1015700080FFFCCF809156018093F1008091E800BC
:101580008E778093E8000E94D6088091E80083FF60
:10159000CEC180917C0190917D01492F50E04A306D
:1015A000510508F0C4C1FA01E059FF4F0C94EA1A42
:1015B000803821F0823809F0BAC108C080917801E2
:1015C00090917901992389F082600FC08091800108
:1015D0008F70873008F0ABC18093E9008091EB00F9
:1015E00085FB882780F91092E9009091E800977FA9
:1015F0009093E8008093F1001092F10065C1282FCC
:101600002D7F09F094C1882319F0823061F08FC1D9
:1016100080917E01813009F08AC1933009F080E029
:10162000809379012EC080917E0181112AC0809122
:1016300080018F702FEF280F263008F078C180933B
:10164000E9002091EB0020FF1CC0933021F4809131
:10165000EB00806214C09091EB0090619093EB00DE
:1016600021E030E0A90102C0440F551F8A95E2F73E
:101670004093EA001092EA008091EB00886080932A
:10168000EB001092E9008091E800877F20C1811172
:101690004EC110917E011F778091E3008078812BED
:1016A0008093E3008091E800877F8093E8000E94A8
:1016B000D6088091E80080FFFCCF8091E30080682D
:1016C0008093E300111102C082E001C083E08093A7
:1016D0007A012DC18058823008F029C180917E01A5
:1016E00090917F018C3D53E0950779F583E08A83E3
:1016F0008AE289834FB7F894DE01139620E03EE03A
:1017000051E2E32FF0E050935700E49120FF03C033
:10171000E295EF703F5FEF708E2F90E0EA3010F0AF
:10172000C79601C0C0968D939D932F5F243149F7D2
:101730004FBF8091E800877F8093E8006AE270E005
:10174000CE0101960E942A09AEC0409180015091BD
:101750008101292F332723303105A9F068F4213086
:10176000310509F4F3C02230310509F0E0C08BE304
:1017700090E0E5EAF1E044C02132310521F1223266
:10178000310571F1D4C0992781309105A1F058F04D
:10179000029709F0CCC0E2EFF1E0E4918E2F90E0E7
:1017A000E2EFF1E02AC0E4E3F2E0E4918E2F90E072
:1017B000E4E3F2E022C0EAE0F2E0E4918E2F90E070
:1017C000EAE0F2E01AC04115510509F4C4C0413005
:1017D000510509F0ACC089E090E0E0EDF1E010C007
:1017E0004115510509F4BCC04130510509F09FC0B5
:1017F0008DE690E0E4EFF0E003C0009709F497C0B5
:101800002091E800277F2093E80020918201309109
:1018100083018217930708F49C0140E021153105EC
:1018200089F180917A01882309F43DC08530D9F18E
:101830008091E80083FD37C08091E80082FD2FC0D1
:101840008091E80080FFEACF4091F3008091F200A0
:1018500090E0942B2115310559F08830910540F422
:1018600044914093F1003196215031090196F2CF15
:1018700041E0089709F040E08091E8008E7780937E
:10188000E800CCCF4111CDCF0AC080917A018823E6
:1018900051F0853041F08091E80083FD04C08091D3
:1018A000E80082FFF2CF8091E8008B778093E80018
:1018B0003EC08038E1F58091E800877F8093E800A2
:1018C00080917B018093F1008091E8008E77809376
:1018D000E8000E94D6082BC0811129C080917E01AA
:1018E00090917F019927029714F58091E800877FF6
:1018F0008093E80010917E0110937B010E94D6082E
:10190000111106C08091E30087FD02C081E001C093
:1019100084E080937A0142E061EC81E00E94F50866
:1019200042E261EC82E00E94F50880917A018091A8
:10193000E80083FF1AC08091E800877F8093E80069
:101940008091EB0080628093EB000FC082E190E019
:10195000E0EEF1E055CF89E090E0E7EBF1E050CF29
:1019600084E490E0E1E6F1E04BCFAA96E3E00C944A
:10197000861A1F920F920FB60F9211242F933F9346
:101980004F935F936F937F938F939F93AF93BF9387
:10199000CF93DF93EF93FF93C091E900CF708091D5
:1019A000EC00D82FD17080FDD0E81092E900809132
:1019B000F000877F8093F00078940E94F5091092E0
:1019C000E9008091F00088608093F000CD2BCF700B
:1019D000C093E900FF91EF91DF91CF91BF91AF915B
:1019E0009F918F917F916F915F914F913F912F9137
:1019F0000F900FBE0F901F901895E8EDF0E08081DA
:101A00008E7F80831092E2001092DA001092E10043
:101A1000A0EEB0E08C9181608C9380818F77808381
:101A200019BCA7EDB0E08C918E7F8C9380818F7E66
:101A30008083109254010895A0E0B0E0E2E2FDE05E
:101A40000C94651AC8EDD0E088818F7E8883E7ED1D
:101A5000F0E080818160808384E082BF81E08093B8
:101A6000540188818E7F888302EE10E0F801108295
:101A70001092DA0081EEC82ED12CF60110828881F6
:101A80008F77888388818068888388818F7D888329
:101A900019BC10927A0110927B0110927901109278
:101AA000780190EEE92EF12CF70180818B7F808305
:101AB00088818160888342E060E080E00E94F508D0
:101AC000F60180818E7F8083F80180818160808330
:101AD000808188608083F70180818E7F8083888108
:101AE00080618883CDB7DEB7E8E00C94811A1F923D
:101AF0000F920FB60F9211242F933F934F935F9342
:101B00006F937F938F939F93AF93BF93EF93FF93C5
:101B10008091E10082FF09C08091E20082FF05C050
:101B20008091E1008B7F8093E1008091DA0080FF5B
:101B30002AC08091D80080FF26C08091DA008E7F75
:101B40008093DA008091D90080FF18C080E189BDC0
:101B500082E189BD09B400FEFDCF81E080937A0166
:101B60008091540181110FC00E94FD0C0E941C0D38
:101B70008091E20084608093E20005C019BC10925D
:101B80007A01109254018091E10080FF17C080918A
:101B9000E20080FF13C08091E2008E7F8093E2001C
:101BA0008091E20080618093E2008091D8008062A1
:101BB0008093D80019BC85E080937A018091E10080
:101BC00084FF30C08091E20084FF2CC080E189BD99
:101BD00082E189BD09B400FEFDCF8091D8008F7DE0
:101BE0008093D8008091E1008F7E8093E100809106
:101BF000E2008F7E8093E2008091E200816080931A
:101C0000E20080917B01882311F084E007C080917D
:101C1000E30087FD02C081E001C083E080937A0188
:101C200080917A018091E10083FF27C08091E200DA
:101C300083FF23C08091E100877F8093E10082E0F1
:101C400080937A0110927B018091E1008E7F8093D6
:101C5000E1008091E2008E7F8093E2008091E200BB
:101C600080618093E20042E060E080E00E94F5083D
:101C70008091F00088608093F000FF91EF91BF9118
:101C8000AF919F918F917F916F915F914F913F9114
:101C90002F910F900FBE0F901F90189578941F9260
:101CA0000F920FB60F9211248F939F93AF93BF9310
:101CB00080914E0190914F01A0915001B09151013E
:101CC0000196A11DB11D80934E0190934F01A093E9
:101CD0005001B0935101BF91AF919F918F910F909F
:101CE0000FBE0F901F9018959C014FB7F8948091EC
:101CF0004E0190914F01A0915001B09151014FBF01
:101D0000821B930B08952FB7F89480914E01909108
:101D10004F01A0915001B09151012FBF089580E073
:101D200008959091520192FF10C041E0282F247134
:101D3000243009F040E031E0282F2871283009F0E4
:101D400030E0431711F02CE0822793FF10C041E0F0
:101D5000282F2471243109F040E031E0282F287128
:101D6000283109F030E0431711F02CE08227309140
:101D7000530130FF10C051E0282F2171213009F0AC
:101D800050E041E0282F2871283009F040E0541736
:101D900011F029E0822731FF10C041E0282F217186
:101DA000213109F040E031E0282F2871283109F075
:101DB00030E0431711F029E0822794FD877E0895D3
:101DC0008238910569F1B0F48133910509F475C049
:101DD00048F48932910509F467C08A32910509F403
:101DE00071C008958533910509F459C0893391056F
:101DF000B9F00895833E910589F138F4803E91054C
:101E0000D1F0823E910529F10895863E9105C9F1F0
:101E1000873E9105D9F1843E910509F06CC027C039
:101E20002091520120FD57C021FD55C02091530142
:101E300023FD5BC008958091520180FD48C08091D0
:101E4000530180FF48C08091520184FD46C083EE5B
:101E500051C08091520182FF3CC0F5CF8091520168
:101E600082FD37C08091530180FD35C0ECCF809159
:101E7000530181FF36C08091520184FD2EC087EE50
:101E800039C08091520183FF2AC0F5CF8091520161
:101E900083FD25C08091530181FD23C0ECCF80914B
:101EA000520185FD22C01FC08091520185FD1BC0DB
:101EB0008091530183FF19C00AC08091520186FDB1
:101EC00016C017C08091520186FD13C010C089E36F
:101ED00011C082EE0FC080EE0DC080E00BC086EE18
:101EE00009C084EE07C085E305C089E203C08AE229
:101EF00001C081E390E008952091E4019091AB014D
:101F000057E02917A9F030E0529FF001539FF00DE0
:101F10001124E455FE4F7181761306C07081781349
:101F200003C07581741306C02F5F3F4F2770E9CF40
:101F300080E0089581E008957E30B0F46630A0F42A
:101F40008530A0F494E5899FF001112486E0789F04
:101F5000E00DF11D1124E60FF11DEE0FFF1FE85CEF
:101F6000FD4F85919491089580E001C081E090E05B
:101F700008951F93CF93DF930E94E00EEC01C115EB
:101F800080E5D807E8F5C11590E4D90708F0A8C0A6
:101F9000C03ED10530F5CD3CD10508F094C0C83A1B
:101FA000D10578F4C53AD10508F083C0C130D10518
:101FB00009F47CC008F4F2C0C430D10508F0F1C0C7
:101FC000EDC0C33CD10508F0E9C0C85AD0E0CC0F41
:101FD000DD1FCC5EDE4F0990D881C02DCE01946408
:101FE000E1C0C11580E2D80708F0CBC0C11591E06F
:101FF000D90708F06BC0C83ED10508F4D2C0CEC0E6
:10200000C03682E5D80728F5C03492E5D90708F034
:1020100079C0C03282E5D80708F06CC0C11592E5DE
:10202000D90708F481C04C2F4695469580E2489F19
:10203000A0011124C37021E030E0C90102C0880F63
:10204000991FCA95E2F7EA01C82BD92BCE019D68EA
:10205000A9C0C03A82E5D807B8F48C2F8F71C03878
:1020600092E5D90708F07BC08695869590E2899F16
:1020700090011124C37081E090E002C0880F991F85
:10208000CA95E2F79A6868C0C03C82E5D80708F4B0
:102090006DC0C03E92E5D90708F080C0CF71DD2742
:1020A000DC2FCC27CE01806F906A7CC081E090E06D
:1020B00079C0C55AD0E0CF5EDE4F8881C82FD0E00E
:1020C000CE0190646FC0CE0190656CC08D2F0E94D0
:1020D000910E182FCE0199270E94E00E1F715CC04F
:1020E000CE0199270E94E00ECC27DF70D06A8C2B9E
:1020F0009D2B58C0CF71D0E0DC2FCC27CE01816F53
:10210000906A50C08C2F8F718695869590E2899F3A
:1021100090011124C37081E090E002C0880F991FE4
:10212000CA95E2F79C6818C08C2F8F710E94910E9F
:1021300095E0D695C7959A95E1F7CF70D0E0DC2F62
:10214000CC27282F30E084FF05C084E0220F331F06
:102150008A95E1F7D069CE01822B932B23C090E0C2
:10216000D82FCC27CE01846F906A1CC08C2F8F7122
:102170000E94910E8F7190E0D82FCC27CE019062F3
:1021800011C08D2F8F710E94910E182FCE019927AB
:102190000E94E00E1F719062912B04C080E090E0DD
:1021A00001C0CE01DF91CF911F910895809590914C
:1021B000550189238093550108959091550180918F
:1021C0000702982B90938401809106028823D9F00E
:1021D000892B8093840180910601882331F08091BE
:1021E000520187FF02C08EE101C086E0E6E8F1E01F
:1021F00090E0815028F021912223D9F39F5FF9CFFD
:1022000091111092060240E250E066EE71E084E81F
:1022100091E00E94111C892B21F180E2E4E8F1E0B9
:10222000A6EEB1E001900D928A95E1F7E0914602A9
:10223000F09147023097A9F080910601882359F068
:102240008091520187FF07C08091840180938501AE
:1022500086E0809384010280F381E02D84E891E0A0
:10226000099508959091E501809589238093E50172
:10227000282F277069F4981759F09091530192FF15
:1022800007C08695869586950E94F6171092E501FF
:1022900008959091530192FB222720F9281779F095
:1022A00080FB92F990935301609152017091530118
:1022B00084E090E00E94D41A82E00E9432110895D6
:1022C0008091E4019091AB01891719F08F5F8770BD
:1022D000FBCF0895CF93DF938091AA0182958F70F1
:1022E00009F04EC08091A901882309F449C080916A
:1022F000E4014091AB015091A5016091A401C0910E
:10230000A601D091A70177E08417D1F190E0789FE2
:10231000F001799FF00D1124DF01A455BE4F1496F2
:102320002C911497222349F111962C911197251382
:1023300024C02C91261321C015962C91159721119C
:102340001CC012962D913C9113972C1B3D0B283CE1
:10235000310598F48091AA018F7080618093AA0161
:10236000EE54FE4F80818F708061808384EA91E01B
:102370000E94EC030E94601103C001968770C4CFD5
:10238000DF91CF910895A4E1B0E0E9ECF1E10C9484
:10239000611A8C0186E0F801DE011F9601900D9212
:1023A0008A95E1F7F8018481E58094EA892E91E02D
:1023B000992E9091A801911120C0882309F463C13E
:1023C000EE2009F442C0C8010E941218F82E88239A
:1023D000E1F187E0F801D40101900D928A95E1F7CF
:1023E0008091A801813031F48091A4019091A501E0
:1023F0000E947B170E946A1148C1F801D080C180F9
:10240000A280B380F090A9012091A6013091A7018C
:10241000FF2009F4E7C0A501421B530B483C5105BE
:1024200008F09DC0882309F430C18091AA01282FAB
:10243000207F9091A501222361F09C1509F460C0D2
:10244000C8010E941218811163C0C8010E94EC03E8
:102450001AC19C1113C09091A4019D110FC0E110ED
:102460000DC08F7080618093AA0184EA91E00E9480
:10247000EC038091AA01F801868303C1E1103AC000
:1024800040E06C2D8D2D0E947C0F40E06C2D8D2D39
:102490000E947C0FE82E8111F4C0DF86C88A8F85E8
:1024A00098890E947B17292F22952F70243020F4C1
:1024B0009F70223028F009C02A50223080F014C0CA
:1024C000992349F0811107C013C0992321F0F80125
:1024D0009681907F69F0805E883030F409C0803F3B
:1024E00038F0815F833020F0C8010E94EC03EF2CAC
:1024F000FE2CCBC08091AA0181608093AA01C1C04B
:102500009091A4019D119CCFE1109ACFF80198C041
:10251000EE2009F49ACF2091AA01822F82958F7024
:1025200090E002978CF08091A4019091A501998789
:102530008887BB86AA868091A8018C871D862E87F6
:10254000CE0108960E94EC0387E0F801A4EAB1E00E
:1025500001900D928A95E1F70E946A1194C09091C2
:10256000AA01292F207F51F484EA91E00E94EC0314
:1025700087E0F40111928A95E9F783C0882309F472
:1025800084C08091A5018C110CC08091A4018D1193
:1025900008C0E11006C0F8019683C8010E94EC0350
:1025A0006AC0C8010E941218882309F44ECFEE2099
:1025B00009F44BCF2091AA01822F82958F7090E071
:1025C000029714F28091A4019091A5019A838983C6
:1025D000BC82AB828091A8018D831E822F83CE01A5
:1025E0000196B0CFA21AB30AF8ECAF16B10408F006
:1025F00042C0882309F447C0FE2CEE2009F425CF01
:102600008091A5018C1129C08091A4018D1125C054
:102610009091AA0190FD18C0892F82958F70282F64
:1026200030E02115310581F0F80196832F30310516
:1026300041F08F5F982F9295907F86818F70892BC4
:102640008683C8010E94EC0387E0F801A4EAB1E0A8
:1026500001900D928A95E1F718C0C8010E941218E6
:10266000811172CF8091AA0181608093AA01C80173
:102670000E94EC030AC087E0F40111928A95E9F701
:1026800004C0F12C02C0FF24F3948F2D6496ECE07B
:102690000C947D1AA0E0B0E0E0E5F3E10C94651A3B
:1026A00080910F0190911001892B91F080910A0285
:1026B0008F5F80930A0281110BC00E94150790E082
:1026C0009093100180930F01892B11F40E948C07C5
:1026D00002E112E07801D0E0C0E087E0C82ECC0E25
:1026E0008C2F0E94FC078C2D0E94FC078C2F0E94CF
:1026F0005F088F73F7019081891721F08083DD24B3
:10270000D39401C0D12C8C2D0E945F088F73F701E8
:102710009781891719F0878381E001C080E0D82A6A
:10272000DD290E945008CF5FFFEFEF1AFF0AC73084
:10273000A1F610920F02C0910E02CC2309F47DC0C5
:102740000E94830E20910C0230910D02AC01421BBD
:10275000530B9A0190930D0280930C024F3F510549
:1027600009F018F4452B19F102C02FEF30E0109258
:102770000E0210920B02E0911002F0911102AF01D3
:10278000425F5F4F90E030E08081882341F028175E
:1027900018F010829C2F03C0821B80833C2F31963F
:1027A000E417F50789F730930E0290930B02DD23AF
:1027B000B1F110920B02E0911002F09111028091A0
:1027C0000F0290910E02A6E2B2E0AF01425F5F4FAE
:1027D0006EE1E80128813C91321779F030813111A6
:1027E0000CC060832C9398819227282F30E0292BEE
:1027F00081E0232B09F480E091E0319611960F5F80
:102800001F4FE417F50729F780930F0290930E02EC
:1028100080910F02CDB7DEB7E8E00C94811A81E019
:1028200090910B029923A1F38111C3CF0E94830ED3
:1028300090930D0280930C02BCCFD111F7CF80E0B2
:10284000EFCFA6E0B0E0E7E2F4E10C94691A0E9451
:10285000830E8C01809108029091090208171907D4
:1028600081F019821A820E94830E682F49815A8151
:10287000792F80E090E00E943003109309020093CA
:1028800008022696E4E00C94851A1F920F920FB668
:102890000F9211248F939F93AF93BF9380914A021D
:1028A000811113C080914E0190914F01A091500170
:1028B000B09151014196A11DB11D80934E0190939D
:1028C0004F01A0935001B0935101BF91AF919F91DF
:1028D0008F910F900FBE0F901F90189520910601B9
:1028E0002223C9F02091520127FF15C0262F2695DB
:1028F000269526952E31C8F4FC01E20FF11D677074
:1029000081E090E001C0880F6A95EAF78095928196
:10291000892382830895FC0106962281621301C0F7
:1029200012823196E817F907C1F708952091060140
:102930002223C1F02091520127FF14C0262F269593
:10294000269526952E3130F5FC01E20FF11D6770BA
:1029500081E090E001C0880F6A95EAF79281892BA7
:1029600082830895FC0132962FEF30E04191641785
:1029700089F02F3F19F4411101C0232F3F5F3630FA
:10298000A9F72F3F39F0FC01E20FF11D27FDFA9561
:10299000628308950895A3E0B0E0E1EDF4E10C94C2
:1029A0006B1A209148023091490228173907A1F08B
:1029B0009093490280934802E0914602F0914702C9
:1029C000309751F024E029839B838A830680F78126
:1029D000E02DCE01019609952396E2E00C94871A2A
:1029E000A3E0B0E0E6EFF4E10C946B1A209144020E
:1029F0003091450228173907A1F090934502809342
:102A00004402E0914602F0914702309751F023E0F2
:102A100029839B838A830680F781E02DCE0101966E
:102A200009952396E2E00C94871AE0914602F09112
:102A30004702309729F00190F081E02D0995089523
:102A400080E00895A8E0B0E0E8E2F5E10C945B1ABC
:102A500085B7806885BF85B7806885BF84B7877F65
:102A600084BF0FB6F894A895809160008861809328
:102A70006000109260000FBE90E080E80FB6F894FE
:102A800080936100909361000FBE8FE89EE0909369
:102A90004B0180934A010E94FD0C0E941C0D809105
:102AA000E20084608093E200789480917A01882328
:102AB000A1F01091E9001F709091EC00892F8170B6
:102AC00090FD80E8182B1092E9008091E80083FDCA
:102AD0000E94F5091F701093E90082E084BD93E025
:102AE00095BD9AEF97BD80936E000E94150790E008
:102AF0009093100180930F010E9450080E94960845
:102B0000E2E1F2E0A6E2B2E011921D9222E0E032B0
:102B1000F207D1F78EE090E00E94F01A8093100245
:102B200090931102FC010E961192E817F907E1F754
:102B300089EA8093800089E08093810024982C9812
:102B40003F988AB18F7C8AB96E98479A8BB180631F
:102B50008BB9769A8FE090E00E949A1A60932002D7
:102B600070932102809322029093230267708FEF6B
:102B7000689FB001112475956795759567957727BE
:102B8000709389006093880070938B0060938A0033
:102B900070938D0060938C000E948C0780E090E021
:102BA0000E94A01A863E9E4F09F472C066EE7EEF28
:102BB00080E090E00E94D41A60E082E090E00E9401
:102BC000B61A60E083E090E00E94B61A10922402E8
:102BD00060E074E184E090E00E94D41A60E086E056
:102BE00090E00E94B61A6FEF87E090E00E94B61A5C
:102BF00040E050E0BA0188E090E00E94C81A60E02E
:102C000084E290E00E94B61A60E087E190E00E94C2
:102C1000B61A60E08CE090E00E94B61A60E08DE0A9
:102C200090E00E94B61A19821A821B821C821D82B1
:102C30001E821F82188648E050E068E170E0CE01F5
:102C400001960E94A61A40E050E0BA0180E290E0AE
:102C50000E94C81A109220021092210210922202A1
:102C60001092230284E08093200240912002509130
:102C7000210260912202709123028FE090E00E9475
:102C8000C81A40E050E0BA0183E190E00E94C81AFF
:102C900082E090E00E94921A8093340284E090E0F7
:102CA0000E94A01A909353018093520183E090E018
:102CB0000E94921A0E940F18809125020E94C2035E
:102CC00087E091E0909347028093460238E1E32E3B
:102CD000F12C40E4642E53E4C52E52E0D52E552449
:102CE000539420E1722E80917A01853009F053C00F
:102CF00012E180917A01853009F047C080917A0114
:102D0000843009F110924A020FB6F894A895E09227
:102D100060000FBE6092600083B7817F846083BFD4
:102D200083B7816083BF7894889583B78E7F83BF94
:102D30000FB6F894A8958091600088618093600038
:102D4000109260000FBE80917901882391F20E9459
:102D5000150790E09093100180930F010E94500896
:102D60000E949608E6E2F2E0119222E0E433F207D4
:102D7000D9F70E944A13E6E2F2E08191811174C012
:102D800082E0E433F807C9F7B4CF109255010E94EE
:102D900035180E9415150E944A1395E3A92E92E05A
:102DA000B92EA6E2B2E0F50191918D918927CE1658
:102DB000DF0619F08823C1F305C0811103C00E940A
:102DC00021143DC086E2882E82E0982E10E0F401A6
:102DD00021904F01F5013080322401F100E04424BC
:102DE0004394842D8321A1F009831A830E94830ECA
:102DF0009C838B835D8291E0842D822109F490E095
:102E00009E8349815A816B817C818D810E94300330
:102E10000F5F440C063029F7F50120821F5FFFEF9A
:102E2000AF1ABF0A1E3099F68FB7F89440914E0141
:102E300050914F0160915001709151018FBF0E94DC
:102E4000151590914302891709F44DCF80934302E1
:102E50008FB7F89440914E0150914F01609150010D
:102E6000709151018FBF3DCF79BC19BD09B400FEEF
:102E7000FDCF8091D8008F7D8093D8008091E000B5
:102E800082608093E0008091E00081FDFCCF109291
:102E900055010E9435182DCFCF92DF92FF920F93EC
:102EA0001F93CF93DF936C01009125028091240240
:102EB000082BC7E0D0E010E0C8010C2E02C09595A9
:102EC00087950A94E2F780FD04C02197A8F7F12CBA
:102ED00009C0FC2EB6018C2F0E949C0F0E94B90FD6
:102EE000019799F38F2DDF91CF911F910F91FF9053
:102EF000DF90CF900895CF93DF93EC010E944C17A1
:102F0000BE010E949C0F0E94B90FDF91CF910895DE
:102F1000292F9E3078F5863068F590E036E0239FC3
:102F2000800D911D1124682F677023E09695879579
:102F30002A95E1F7FC01EE0FFF1FE80FF91FE55B93
:102F4000FD4F40E050E080E0219130E0062E02C0CD
:102F5000369527950A94E2F721703327042E01C095
:102F6000220F0A94EAF7822B4F5F5F4F43305105DF
:102F700059F7089580E00895292F9E3088F586300E
:102F800078F590E036E0239F800D911D1124282FC5
:102F9000277051E001C0550F2A95EAF723E0969576
:102FA00087952A95E1F7FC01EE0FFF1FE80FF91F47
:102FB000E55BFD4F20E030E070E04081CB01022E68
:102FC00002C0969587950A94E2F7817081958427CF
:102FD0008523842781932F5F3F4F2330310569F785
:102FE00008950E94C20380932502089521E030E0F5
:102FF00001C0220F8A95EAF720958091250282234D
:103000000E94F117089521E030E001C0220F8A9557
:10301000EAF780912502822B0E94F1170895809390
:1030200024020895FC0124812223D9F0808191811A
:103030000E947B1792959F70963079F010F4925011
:1030400001C09A50923068F4803F69F018F4883ECD
:1030500040F409C0843F29F406C0883E20F0813F37
:1030600011F080E0089581E00895809106018823A1
:1030700031F08091520187FF02C08EE101C086E0ED
:10308000E6E8F1E0DF011D928A95E9F780E090E043
:103090000E94F01480E090E00E94CB14109207028E
:1030A0000E94DD100895882321F00E94D6100E940E
:1030B000DD100895882339F090915501892B809374
:1030C00055010E94DD100895882309F455C0682F2A
:1030D000823869F40E94151581FF4EC069E384E8C7
:1030E00091E00E9496140E94DD1069E30EC08338BF
:1030F00099F40E94151580FF3FC063E584E891E0D4
:103100000E9496140E94DD1063E584E891E00E941D
:103110006E140E94DD100895843869F40E9415151C
:1031200082FF2AC067E484E891E00E9496140E941E
:10313000DD1067E4EACF8CEF860F813A30F380E24E
:10314000860F883048F4677081E001C0880F6A9567
:10315000EAF70E94D610DDCF8BE5860F833028F486
:1031600080E090E00E94F0140895685A6B3120F4DA
:1031700080E090E00E94CB140895CF93882309F457
:10318000B4C0C82F8238B1F40E94151581FDADC0BE
:1031900069E384E891E00E9496140E94DD102FEF0D
:1031A00087EE93E0215080409040E1F700C000009E
:1031B00069E317C08338E1F40E94151580FD95C0BE
:1031C00063E584E891E00E9496140E94DD102FEFE1
:1031D00081EE94E0215080409040E1F700C0000073
:1031E00063E584E891E00E946E140E94DD107DC0CA
:1031F0008438B1F40E94151582FD77C067E484E835
:1032000091E00E9496140E94DD102FEF81EE94E071
:10321000215080409040E1F700C0000067E4E1CF1A
:103220008CEF8C0F813AB8F5809106018823E1F08C
:103230008091520187FF18C0EC2FE695E695E69540
:10324000F0E0EC57FE4F8281282F30E04C2F477082
:1032500081E090E002C0880F991F4A95E2F782232F
:103260009323892B59F411C0E6E8F1E08191C81746
:1032700029F021E0EC38F207C9F707C06C2F84E889
:1032800091E00E946E140E94DD106C2F84E891E0A2
:103290000E949614AACF80E28C0F883068F4C77021
:1032A00081E090E001C0880FCA95EAF7909155013E
:1032B000892B8093550199CFEBE5EC0FE33040F477
:1032C000F0E0EF5EFE4F808190E00E94F0140DC0B0
:1032D000C85ACB3150F4EC2FF0E0EE0FFF1FEC5E3C
:1032E000FE4F808191810E94CB14CF91089510925E
:1032F000B9008CE08093B8000895A0E0B0E0E3E866
:10330000F9E10C94621AB82EEB010E94830E6C0155
:10331000C431D10558F0CF3F8FEFD80759F0CE0117
:1033200064E170E00E94471A7B0107C0EE24E39439
:10333000F12C03C025E0E22EF12C84E8A82E94EABB
:10334000992E1092BC009092BC000E94830E8C01BA
:103350008091BC0087FD07C0C8010E94740EE8166A
:10336000F906B0F729C08091B900887F883041F014
:103370008091B900887F803119F00FEF1FEF1EC0D8
:10338000B092BB00A092BC000E94830E8C01809181
:10339000BC0087FD07C0C8010E94740EE816F9063C
:1033A000B0F70AC08091B900887F883111F080346D
:1033B00021F700E010E00EC00EEF1FEFCF3F8FEFC0
:1033C000D80709F4BECFC6010E94740EC817D907EA
:1033D00008F0B7CFC801CDB7DEB7EBE00C947E1A8A
:1033E0000F931F93CF93DF93EB018093BB0084E88F
:1033F0008093BC000E94830E8C018091BC0087FDED
:103400000DC0CF3F8FEFD807C1F3C8010E94740EE3
:10341000C817D90790F78EEF9FEF0CC02091B90025
:10342000287F81E090E0283211F480E090E09195CF
:1034300081959109DF91CF911F910F9108950F937D
:103440001F93CF93DF93EC0184E88093BC000E942C
:10345000830E8C018091BC0087FD0DC0CF3F8FEFA4
:10346000D807C1F3C8010E94740EC817D90790F796
:103470008EEF9FEF03C08091BB0090E0DF91CF9172
:103480001F910F91089584E98093BC000895AA1BB1
:10349000BB1B51E107C0AA1FBB1FA617B70710F03F
:1034A000A61BB70B881F991F5A95A9F78095909571
:1034B000BC01CD0108952F923F924F925F926F927F
:1034C0007F928F929F92AF92BF92CF92DF92EF92B4
:1034D000FF920F931F93CF93DF93CDB7DEB7CA1B35
:1034E000DB0B0FB6F894DEBF0FBECDBF09942A8860
:1034F000398848885F846E847D848C849B84AA8408
:10350000B984C884DF80EE80FD800C811B81AA8194
:10351000B981CE0FD11D0FB6F894DEBF0FBECDBF5F
:10352000ED010895F999FECF92BD81BDF89A9927D2
:1035300080B50895A6E1B0E044E050E00C94DC1AB8
:10354000A8E1B0E042E050E00C94DC1ADC01A40FEA
:10355000B51F4150504048F0CB01840F951F2E916C
:103560000E94B71A41505040D0F70895262FF9997C
:10357000FECF92BD81BDF89A019700B4021639F0D2
:103580001FBA20BD0FB6F894FA9AF99A0FBE0895A3
:103590000396272F0E94B71A0E94B61A252F0E9461
:1035A000B71A242F0C94B71A0196272F0E94B71A26
:1035B0000C94B61ADC01CB01FC01F999FECF06C0D0
:1035C000F2BDE1BDF89A319600B40D9241505040E1
:1035D000B8F70895EE0FFF1F0590F491E02D0994C0
:1035E0000F931F93CF93DF938230910510F482E005
:1035F00090E0E0916E02F0916F0220E030E0A0E0F8
:10360000B0E0309719F14081518102811381481750
:103610005907C8F08417950769F4109731F012968E
:103620000C93129713961C9327C000936E0210936D
:103630006F0222C02115310519F04217530718F403
:103640009A01BD01EF01DF01F801DBCF2115310542
:10365000F9F0281B390B2430310580F48A819B81D5
:103660006115710521F0FB019383828304C090935F
:103670006F0280936E02FE01329644C0FE01E20F9B
:10368000F31F8193919322503109398328833AC0E3
:1036900020916C0230916D02232B41F420910201A4
:1036A0003091030130936D0220936C022091000150
:1036B000309101012115310541F42DB73EB74091FC
:1036C000040150910501241B350BE0916C02F0912F
:1036D0006D02E217F307A0F42E1B3F0B28173907E2
:1036E00078F0AC014E5F5F4F2417350748F04E0F5E
:1036F0005F1F50936D0240936C028193919302C0BF
:10370000E0E0F0E0CF01DF91CF911F910F9108959C
:10371000CF93DF93009709F481C0FC0132971382A5
:103720001282A0916E02B0916F02109781F42081F5
:103730003181820F931F20916C0230916D02281706
:10374000390751F5F0936D02E0936C0267C0ED010B
:1037500020E030E0CE17DF0740F44A815B819E0114
:1037600041155105F1F0EA01F5CFD383C2834081C1
:103770005181840F951FC817D90759F48881998101
:10378000840F951F0296918380838A819B81938306
:1037900082832115310529F4F0936F02E0936E02C4
:1037A0003DC0E901FB83EA8349915991C40FD51FBC
:1037B000EC17FD0761F480819181840F951F0296BB
:1037C000E90199838883828193819B838A83E0E0E6
:1037D000F0E012968D919C911397009719F0FD01DE
:1037E000DC01F7CF8D919C9111979D012E5F3F4F8A
:1037F000820F931F20916C0230916D0228173907B8
:1038000069F4309729F410926F0210926E0202C090
:1038100013821282B0936D02A0936C02DF91CF915C
:103820000895FB01DC0104C08D910190801921F401
:1038300041505040C8F7881B990B0895F894FFCF6A
:10384000000070022000018909D1098809CA0920F5
:1038500000818283E200E900EA00B500B600B7000B
:10386000CD008301CC008A01920194012102230240
:1038700024022502260227022A02B300B4006F00A8
:0A38800070009F01CB019F02A0021F
:00000001FF
