:100000000C940B050C9428050C9428050C942805D9
:100010000C9428050C9428050C9428050C942805AC
:100020000C9428050C9428050C94BF200C947A1F7E
:100030000C9441220C9428050C9428050C94280556
:100040000C9428050C9428050C9428050C9428057C
:100050000C9428050C94F4210C9428050C94280584
:100060000C9428050C9428050C9428050C9428055C
:100070000C9428050C9428050C9428050C9428054C
:100080000C9428050C9428050C9428050C9428053C
:100090000C9428050C9428050C9428050C9428052C
:1000A0000C9428050C9428050C942805870D870DC1
:1000B000BA0DBA0D250E420F420F420F430EB70E76
:1000C000C80EC80EC71CEE1C861EEE1C861E361DF2
:1000D000591D861E481E5B1E57245C2466245A2424
:1000E0005F24642462240E261126142617261A265D
:1000F0001D2620260001010101010101010102026A
:1001000002020202020202030303030303030304C5
:100110000404040404040505050505060606060690
:10012000070707070708080808090909090A0A0A4A
:100130000B0B0B0C0C0C0D0D0D0E0E0E0F0F0F10EC
:100140001011111112121313141415151616171776
:10015000181819191A1A1B1B1C1D1D1E1E1F2020E2
:10016000212222232424252626272829292A2B2C2C
:100170002D2D2E2F30313232333435363738393A4F
:100180003B3C3D3E3F404142434445464748494A47
:100190004C4D4E4F50515354555658595A5B5D5E15
:1001A0005F616264656668696B6C6D6F70727375B0
:1001B00077787A7B7D7E8082838587888A8C8E8F14
:1001C00091939596989A9C9EA0A2A3A5A7A9ABAD42
:1001D000AFB1B3B5B7BABCBEC0C2C4C6C9CBCDCF30
:1001E000D1D4D6D8DBDDDFE2E4E7E9EBEEF0F3F5DE
:1001F000F8FAFDFF01002B003500010001000000AE
:100200000100140004621D000100015101001A00E8
:1002100016741B0001002943010008000761060055
:1002200001002A0001001500096819000100010001
:10023000010017000A000500000001000100010094
:1002400000000100000001000100010000000100A9
:100250000000010001001C000B0011000000010063
:10026000010018000D7810000100010001000C00D1
:100270000E71360001002C00010012000F743700CF
:1002800001002844010013003372380001000251BC
:1002900001003100340001000100000001000100F4
:1002A0000100010001000000010001002F02010017
:1002B000010001000100010026020100010001000F
:1002C00001002F00270201000100010001003000A1
:1002D00030020100010001000100010001000100E5
:1002E0000000010001000100000001000000010009
:1002F00001000100000001000000010001002E02C9
:10030000500001000000010001002E00510001001A
:100310000100010001000100520001000100010084
:10032000010001004F000100010001000100010077
:1003300001000100010001000100010001000100B5
:1003400001000000010001000100010001000000A7
:1003500001003A003E0042000100010001003B00A4
:100360003F0043000100010001003C004000440048
:1003700001004C0001003D0041004500010001006A
:100380000100010023020100000001000100010042
:100390000000010000000100010001000000010058
:1003A0000000010001000100210201000000010025
:1003B0000100010001000100010001000100010035
:1003C0000100010001000100010001000100010025
:1003D0000100010001004600C35C6500010001004E
:1003E0000100010001000100010000000100010006
:1003F0000100010001000000010001001E000100D9
:1004000001000100010001001F00010001000100C6
:1004100001000100200001000100010001000100B5
:100420002100010001000100010001002200010083
:1004300000000100010001000000010000000100B7
:1004400001000100000001000000010001002D0278
:10045000230001000000010001002D002400010024
:100460000100010001000100250001000100010060
:10047000010001002600010001000100010001004F
:10048000270001000100010001000100010001003E
:100490000100000001000100010001000100000056
:1004A000010001001E020100010001000100010025
:1004B0001F020100010001000100010020020100F3
:1004C0000100010001000100210201000100010002
:1004D00001000100220201000000010001000100F2
:1004E0000000010000000100010001000000010007
:1004F00000000100010001002302010000000100D2
:1005000001000100240201000100010001000100BE
:100510002502010001000100010001002602010086
:10052000010001000100010027020100010001009B
:100530000100010001000100010000000501098027
:10054000A101850319012AB700150126B7009501FD
:1005500075108100C0050C0901A101850419012A4B
:10056000A002150126A002950175108100C00501A9
:100570000906A1018506050719E029E715002501EF
:100580009508750181020507190029EF150025015D
:1005900095F0750181020508190129059505750178
:1005A0009102950175039101C005010906A101059C
:1005B0000719E029E71500250195087501810295C5
:1005C00001750881010507190029FF150026FF00A4
:1005D000950675088100050819012905950575011D
:1005E0009102950175039101C009023B00020100CF
:1005F000A0FA090400000103010100092111010012
:1006000001224000070581030800010904010001DF
:1006100003000000092111010001226D000705827D
:100620000320000112010002000000089732764901
:1006300001000102000120034500720067006F0005
:1006400044006F007800200045005A002000470059
:100650006C006F007700000028035A00530041002F
:10066000200054006500630068006E006F006C009D
:100670006F006700790020004C0061006200730089
:1006800000000403090400443454007464840055D9
:1006900045650085759500362646006656760096B7
:1006A00086A60037274700776787003828480088E4
:1006B00078980039294900695979009989A9003A3F
:1006C0002A4A006A5A7A003B2B4B006B5B7B004C3A
:1006D0003C5C007C6C8C005D4D6D008D7D9D003E12
:1006E0002E4E006E5E7E01443454017464840155C4
:1006F0004565018575950136264601665676019653
:1007000086A601372747017767870138284801887F
:1007100078980139294901695979019989A9013ADA
:100720002A4A016A5A7A013B2B4B016B5B7B014CD5
:100730003C5C017C6C8C015D4D6D018D7D9D013EAD
:100740002E4E016E5E7E00000000000000000000E2
:100750000000000000000000000000000000000099
:100760000000000000000000000000000000000089
:100770000000000000000000000000000000000079
:100780000000000000000000000000000000000069
:100790000000000000000000000000000000000059
:1007A0000000000000000000000000000000000049
:1007B0000000000000000000000000000000000039
:1007C0000000000000000000000000000000000029
:1007D0000000000000000000000000000000000019
:1007E0000000000000000000000000000000000009
:1007F000000000005C9AD85C9AD85C9AD85C9AD8C1
:1008000000000000000000000000000000000000E8
:1008100000000000000000000000000000000000D8
:1008200000000000000000000000000000000000C8
:1008300029FFFF29FFFF0000000000000000002941
:10084000FFFF29FFFF29FFFF29FFFF000000000035
:100850000000000000000000000000000000000098
:100860000000000000000000000000000000000088
:100870000000000000000000000000000000000078
:100880000011DACC000000000000000000000000B1
:1008900011DACC0000000000000000000000001190
:1008A000DACC0000000000000000000000000000A2
:1008B0000000000000000000000000000000000038
:1008C00011DACC11DACC11DACC11DACC000000113B
:1008D000DACC11DACC11DACC11DACC00000011DA62
:1008E000CC11DACC11DACC11DACC00000000000017
:1008F00000000000000000000000000000000000F8
:1009000000000000000000000000000000000000E7
:10091000000000008BDBC08BDBC08BDBC08BDBC03F
:100920008BDBC000000000000000000000000000A1
:1009300000000000000000000000000000000000B7
:1009400000000000000000000000000000000000A7
:100950000000000000000000000000008BDBC08BE6
:10096000DBC08BDBC08BDBC08BDBC000000000007A
:100970000000000000000000000000000000000077
:100980000000000000000000000000000000000067
:100990000000000000000000000000000000000057
:1009A0000000000000DACC00DACC00DACC00DACCAF
:1009B00000DACC0000000000000000000000000091
:1009C0000000000000000000000000000000000027
:1009D0000000000000000000000000000000000017
:1009E00000000000000000000000000000DACC0061
:1009F000DACC00DACC00DACC00DACC00000000005F
:100A000000000000000000000000000000000000E6
:100A100000000000000011241FBECFEFDAE0DEBFAF
:100A2000CDBF12E0A0E0B1E0E0ECF0E602C005903E
:100A30000D92A234B107D9F725E0A2E4B2E001C0DB
:100A40001D92A339B207E1F70E9466120C945E3042
:100A50000C940000E42FF0E0EE0FFF1FEF54FE4F68
:100A60009081921B97FD9195292F38E1239F212D8D
:100A70001124620F08950F931F9310E0F801EE0FF9
:100A8000FF1FEF54FE4F9081905797FD9195000FF7
:100A9000111FF801EE54FE4FE081F0E0B097DF0146
:100AA000AA0FBB1F8D010E0F1F1F2003D001219F16
:100AB000B00D1124E8E3F0E0E91BF10997FDF3958F
:100AC0009F01220F331F89010E0F1F1F400390014A
:100AD000419F300D11242A0F3B1F37FF02C02158C0
:100AE0003F4F220F232F221F330B620F1F910F91B5
:100AF00008952091F40330E1230F08F42FEF60E113
:100B0000822F90E00E94D211BC0188EB9BE00E94F2
:100B1000032C80E090E008950F931F93CF93DF9311
:100B2000D62F072F182FC42F822F0E944211EC2F8F
:100B3000F0E0EE0FFF1FEF54FE4F90819058890FA9
:100B400087FD8195880F682F2CE0629F612D11240D
:100B50006D0F702F812FDF91CF911F910F9108950D
:100B60000E94611F08950E94231F0895A4E0B0E031
:100B7000ECEBF5E00C94182C782E80912001871175
:100B80000DC02091F003237030E040911F0150E030
:100B900081E02417350719F480E001C081E08170FD
:100BA00080931D018091F50390911C01981739F0F5
:100BB00080931C0140E060E080E00E94B005EFE01F
:100BC0007E125DC082EF9FE00E94391A8A8342C084
:100BD000F71508F49AC123E0721609F459C02715D5
:100BE00008F4F7C031E0731609F497C0371508F020
:100BF000B6C080911B01382F330F330F380F398364
:100C000075E0F72EF30E80E38F1510F460E3F62EF7
:100C10001091F2039091F3039A830091F103B801CC
:100C2000892F0E94DC11E62ED72EC82E6091F40386
:100C3000600F712F8A810E94DC116A83172F082FA1
:100C400029812F1508F4ABC031E03A838FE28F156C
:100C500008F48EC080911B018F5F80931B019A81E5
:100C6000911113C582E080931E0180911D018111B5
:100C70000CC571100AC583E080931E0106C5E715F7
:100C800008F46BC1F7E07F12A3CF81E290E19CCF23
:100C900080911B01982F990F990F980F99839B5F53
:100CA0009B83913310F0E0E3EB83E090F203D0906C
:100CB000F3032091F40350E4F52E3F2D329F312DA4
:100CC0001124F32EE981FB81EF1708F042C08981DE
:100CD000082F10E0F801EF5EFD4F908180911C011C
:100CE0008923B9F0F801EE0FFF1FEE54FE4F80810B
:100CF00082958F706091F1038F9D600D11247E2D80
:100D00008D2D0E94DC11462F282F672FC8010E94CD
:100D1000B30599819F5F9983D5CF80911B01282FBF
:100D2000220F220F280F29832B5F2B83213310F0F2
:100D300030E33B836091F1037091F2038091F30300
:100D40000E94DC11162F072FF82EE981FB81EF1787
:100D500088F021E02A83F03308F47CCF09C0809129
:100D60001D01882329F040E060E080E00E94B0058A
:100D70001A8270CF8981E82FF0E0DF01AF5EBD4FAE
:100D80008C9190911C01982331F02F2D412F602FD1
:100D9000CF010E94B30599819F5F9983D6CFE981E6
:100DA0008E2F90E0FC01EF5EFD4F308120911C0101
:100DB000232359F030FF04C0202F4A81612F03C044
:100DC0002C2D4E2D6D2D0E94B305F981FF5FF98307
:100DD00037CF85E078124AC080911B01382F330F3E
:100DE000330F380F39833B5F3B83313310F080E39F
:100DF0008B830091F1031091F203F090F303609163
:100E0000F4036695669566958091EB039091EC03EB
:100E10000E94D2110E944211805887FD8195880F4F
:100E2000282F3F2D239F212D1124822FB8010E94AE
:100E3000DC11162F072FF82EE981FB81EF1708F040
:100E400088CF8981E82FF0E0DF01AF5EBD4F8C9144
:100E500090911C01982331F02F2D412F602FCF014D
:100E60000E94B30599819F5F9983E6CF871508F4A7
:100E700049C080911B01382F330F330F380F39834E
:100E80003B5F3B83313310F080E38B83E090F203D0
:100E9000D090F3032091F40330E4F32E3F2D329FE2
:100EA000312D1124F32EE981FB81EF1708F051CF8A
:100EB0008981082F10E0F801EF5EFD4F908180914D
:100EC0001C018923D9F0F801EE0FFF1FEF54FE4FEC
:100ED0006081F69EB001112425E0759567952A95ED
:100EE000E1F78091F103680F7E2D8D2D0E94DC11BA
:100EF000462F282F672FC8010E94B30599819F5F55
:100F00009983D1CF8DE490E15FCE9BE0791208C048
:100F100080ED90E102C08CEE90E10E94D81A56CE8E
:100F2000971568F0E9E07E1205C087E091E10E9424
:100F3000541B4CCEE71578F385E291E1F8CFFDE044
:100F40007F1203C086E190E13FCEF71518F08FE1E4
:100F500090E13ACE8DE090E137CE27E172124FC09A
:100F600080911B01382F330F330F380F3983132F24
:100F70001B5F113308F010E380911D0181111EC029
:100F80006091F40320E1620F08F46FEF8091EB03AE
:100F90009091EC030E94D2116AE070E00E94032C51
:100FA000892B21F50E94631160E30E940A2F609152
:100FB0001C01892F90E00E94E32718C09981892F96
:100FC00090E09C838B83E12EF12C2B813C812E15AC
:100FD0003F0564F460911C018B819C810E94E32792
:100FE000EB81FC813196FC83EB83EFCF31E03A83D8
:100FF00002C091E09A83103308F42CCEB9CE2715A5
:1010000030F133E1731203C08BEA90E186CF3715DC
:1010100070F081E1781203C089EA91E188CF8715E9
:1010200018F083EE9FE079CF8FEB90E180CF95E1D0
:10103000791203C083E89FE004C0971528F085EB80
:101040009FE00E94831AC2CD8BE395E0FACFEBE1DB
:101050007E1203C08AE295E0B7CDE71508F4A1C07F
:10106000F9E17F1250C080911B01E82FEE0FEE0FC7
:10107000E80FE983EB5FEB83E13310F0F0E3FB83F0
:101080000091F2031091F303F090F1036091F403E7
:101090006695669566958091EB039091EC030E94AE
:1010A000D2110E944211805887FD8195880F682FC8
:1010B0002CE0629F612D11246F0D702F812F0E94F3
:1010C000DC11162F072FF82E89819B818917A8F430
:1010D0002981E22FF0E0DF01AF5EBD4F8C9190914E
:1010E0001C01982331F02F2D412F602FCF010E943A
:1010F000B30539813F5F3983E7CFE1E0EA8390337D
:1011000008F4A8CD35CEF71508F448C080911D012C
:1011100081111EC06091F40320E1620F08F46FEFAB
:101120008091EB039091EC030E94D21165E070E096
:101130000E94032C892B09F01BCE0E949A2C60E39D
:1011400070E00E94162F60911C010E94BF2710CEF4
:1011500080911B01982F990F990F980F9983192F40
:101160001B5F113308F010E3F981EF2FF0E0FC83EF
:10117000EB83E12EF12C8B819C818E159F050CF069
:1011800038CF60911C018B819C810E94BF272B81ED
:101190003C812F5F3F4F3C832B83EDCF8CE895E064
:1011A00013CD2DE17212F0C04091D8025091D902B6
:1011B0006091DA027091DB028091EB039091EC0375
:1011C000A091ED03B091EE0384179507A607B7072A
:1011D00008F4CECD80911D0181110EC080911B01BC
:1011E000982F990F990F980F9983092F0B5F01334F
:1011F00008F45CC000E35AC040E060E080E00E9478
:10120000B00508E412E01C821B828FE7D82E0E94F2
:10121000631181FF05C0F80110821182128220C083
:101220000E946311C82E0E9463118695782F2D2D80
:10123000720F08F47FEF8B819C81880F991FEB81DF
:10124000FC818E0F9F1F9C01285B3D4F79016C2D07
:101250008091F3030E94DC11F70160837183828324
:101260002B813C812F5F3F4F3C832B830D5F1F4FB2
:101270002033310561F6B2CF3981832F90E0FC0134
:10128000EF5EFD4F308120911C01232361F0FC01B2
:10129000EE0FFF1FE80FF91FE85BFD4F2281408131
:1012A00061810E94B30589818F5F8983998190173D
:1012B00018F3E1E0EA83003308F01A82003308F4FF
:1012C000C9CC20E010E001501109822F90E0801776
:1012D0009107CCF4AC01440F551F480F591F485BD0
:1012E0005D4F0196FC01EE0FFF1F8E0F9F1FFC014B
:1012F000E85BFD4F80819181A281FA018083918317
:10130000A2832F5FE2CF0E9463117801EE0CFF1CD5
:1013100081FF09C00E0D1F1DF801E85BFD4F108213
:101320001182128218C00E94631189830E94631186
:101330008695782F2FE7720F08F47FEF0E0D1F1D93
:10134000085B1D4F69818091F3030E94DC11F80155
:101350006083718382830E9479050091EB03109171
:10136000EC032091ED033091EE03DC01CB01800F03
:10137000911FA21FB31F8093D8029093D902A0930C
:10138000DA02B093DB0266CC721608F07AC0809164
:101390001B01982F990F990F890F8B5F8B834091B9
:1013A000EB035091EC036091ED037091EE0380919B
:1013B000440290914502A0914602B09147028417E1
:1013C0009507A607B70708F055C00E9463118983E7
:1013D0000E94631190E3891BF0F7890F082F10E03A
:1013E000F801EF5EFD4F80911C019081982309F474
:1013F00041C0F981F1FF04C020E040E060E013C08B
:101400000E94631189830E9463118695782F2FE7CC
:10141000720F08F47FEF69818091F3030E94DC1161
:10142000462F282F672FC8010E94B3052091F4038F
:1014300030E1230F08F42FEF60E1822F90E00E944B
:10144000D211BC0184EF91E00E94032C8091EB0348
:101450009091EC03A091ED03B091EE03860F971FDE
:10146000A11DB11D8093440290934502A0934602B2
:10147000B093470221E02A833B81303308F4EACB62
:1014800077CC3EE17312C7C080911D01882329F0FB
:1014900040E060E080E00E94B00580911B01982F41
:1014A000990F990F890F8B5F89834091EB035091BE
:1014B000EC036091ED037091EE038091060390912F
:1014C0000703A0910803B091090384179507A607A5
:1014D000B70708F099C06091F1037091F203809111
:1014E000F3030E94DC11662E572E482E0CED12E0FD
:1014F0002DE531E03C832B8341EB842E41E0942E9B
:10150000AB80BC806501780132E0332EF701808129
:10151000F601882369F08081242D462D652D90E009
:101520000E94B305F5018581242D462D652D0CC043
:10153000808120E040E060E090E00E94B305F5018A
:10154000858120E040E060E090E00E94B305F70173
:10155000818181937F013A94FFEFCF1ADF0A21E066
:10156000A21AB1083110D2CFF8018281EB81FC813F
:10157000882371F08281242D462D652D90E00E94F4
:10158000B305EB81FC818381242D462D652D0DC093
:10159000828120E040E060E090E00E94B305EB81B2
:1015A000FC81838120E040E060E090E00E94B30590
:1015B0000E946311837091E009F090E0F80192833A
:1015C0000D5F1F4F2B813C812A5F3F4F3C832B8354
:1015D0008216930609F094CF0E9479050091EB03DF
:1015E0001091EC032091ED033091EE03DC01CB016F
:1015F000800F911FA21FB31F8093060390930703D0
:10160000A0930803B093090331E03A8389818033C2
:1016100008F420CBADCB8FEF781231C08091EB0373
:101620009091EC03A091ED03B091EE0388279C709C
:10163000AA27BB272AE0B695A795979587952A955F
:10164000D1F782309105A105B10571F08330910584
:10165000A105B10569F040E00197A105B10511F0C0
:1016600060E008C064E102C044E160E080E003C0E3
:1016700044E164E184E10E94B00582E0FDCA80910A
:101680001B018F5F80931B01EDCA2496E1E10C944E
:10169000342CE0EFF3E085E3808380912101909189
:1016A0002201A091230181839283A3838CE384830D
:1016B0008FEF858346E050E06CE170E0CF010E943F
:1016C000D72C1092EF030895AAE0B0E0EAE6FBE021
:1016D0000C941E2CFC018081918123813481232B69
:1016E00031F09F3F31F491E08F3F19F403C091E056
:1016F00001C090E090FD03C47F0185E0DE011696F5
:1017000001900D928A95E1F7F70122818E819F81E8
:10171000222349F00E942029182F682F8E819F8153
:101720000E94902903C00E945C29182F6E817F813E
:10173000812F0E949E148C01F7018281033BFDE5FD
:101740001F0759F0043B2DE5120709F440C0033C84
:101750009CE5190709F075C05CC0882309F47DC0B9
:101760009091690581E0890F8770987F853020F41A
:10177000892B8093690502C0909369058091690562
:101780008770EFEF8E9FC0011124959587959595F1
:1017900087959927909389008093880090938B0078
:1017A00080938A0090938D0080938C00409169050E
:1017B00050916A0560916B0570916C058FE090E027
:1017C0000E94F92C809168050E94412442C0882320
:1017D00009F443C08091690583FB222720F991E039
:1017E000922790FB83F980936905992329F040E0C3
:1017F00060E080E00E94B0054091690550916A0563
:1018000060916B0570916C058FE090E00E94F92C5F
:1018100020C0882309F464C39091F5038091EF03FD
:101820009F3F59F41092F50381608093EF0340E0ED
:1018300060E080E00E94B00553C39FEF9093F503F2
:1018400072C0053BFDE51F0721F4882309F448C356
:101850009DC0F701828181119FC08091BC0382727B
:101860000B3C2CE5120709F480C098F5063CECE52A
:101870001E0709F466C0B8F4043C2CE5120709F40D
:1018800056C008F059C0033CECE51E0709F0F2C051
:101890009091F00381E089278093F00310921E015C
:1018A0008091EF0340C0083CFCE51F0709F453C0DA
:1018B00008F44CC0093C9CE5190709F451C00A3CE6
:1018C000ECE51E0709F0D6C045E557E262E677E28F
:1018D0005AC0003DFCE51F0709F45AC098F40D3CBE
:1018E0009CE5190709F44BC008F444C00E3CFCE524
:1018F0001F0709F44BC00F3C2CE5120709F0BAC0D2
:1019000085E047C0073D8CE5180738F4023D9CE5AB
:10191000190708F0E5C282E13CC00F35EDE51E076E
:1019200009F4DEC2A7C081608093EF03D9C24DE9FC
:1019300057E267EA77E227C047EA57E26DE977E2C4
:1019400022C049E857E263E977E21DC043E957E264
:1019500069E877E218C04FE657E26CE777E213C018
:101960004CE757E26FE677E20EC042E657E265E5E4
:1019700077E209C047E756E265E876E204C045E849
:1019800056E267E776E20E94CB22AAC281E001C05C
:101990008DE00E94201AA4C20C35FDE51F0709F452
:1019A00064C060F401158CE51807A9F00F3D9CE5B3
:1019B000190709F05FC00E943E164CC00E35EDE5D8
:1019C0001E0709F44AC008F452C0093A2DE512076F
:1019D00009F440C04FC01092BC030E94212A8FEF2F
:1019E00094E3ECE081509040E040E1F700C000005B
:1019F000F89481E08093E00080E28093D800109218
:101A0000C9008FE19EE40197F1F700C000001DBA04
:101A1000109268001CBC10BE1FBA10927A0010927F
:101A20006E0010926F00109271001092720010926E
:101A3000C9001092BC0014B817B81AB81DB810BA73
:101A40001092BC0015B818B81BB81EB811BA0C9487
:101A5000003F46C20E94292443C280915E0582FB5A
:101A6000882780F991E0892703C081E001C080E0E8
:101A70000E943317F701828100811181882349F088
:101A8000C8010E942029D82E682FC8010E949029E1
:101A900004C0C8010E945C29D82EB8018D2D0E9477
:101AA0009E140E94B714B82E192F982EF7010281A8
:101AB000A580A2949FE0A922809192038770B9F03B
:101AC0000023A9F0812F807F803421F080E28B0DEC
:101AD000883068F080915E0582FF09C082E00E9434
:101AE0001617809192038770DD24D3948111D12C35
:101AF000C12EC2948FE0C8228C2D90E08C309105CD
:101B000008F0C0C1FC01EA5AFF4F0C942A2F812F24
:101B1000807F1F70882311F01295107F0023B9F089
:101B2000112309F49DC180E28B0D883010F09110D3
:101B300006C08091BC03182B1093BC0305C0809194
:101B4000B303182B1093B3030E94C11689C18B2DC8
:101B50000E94462A112309F495C180E28B0D88303A
:101B600080F1992071F110958091B303182310939F
:101B7000B3032AC0812F807F1F70803211F012952D
:101B8000107F8B2D992021F0F1E09F16D9F147C0ED
:101B900080915E0582FD1BC0002369F0112339F09E
:101BA0008091BC03182B1093BC030E94C11680E0E7
:101BB0000E94722A67C180E00E94462A112309F41C
:101BC00061C1812F0E94BA160E94C1165BC1002319
:101BD00081F08091B403AA2051F021E0A21207C045
:101BE000182B181709F44EC11093B4034BC1812B65
:101BF00010C0AA2021F081E0A81609F443C10E9478
:101C0000B4161FC0002341F091E09A1508F43AC1C0
:101C1000812F0E943C2A36C1A11034C112C000237A
:101C200019F0AA20A9F31CC1AA2059F0893309F0A0
:101C300026C1EFEFF7EE23E0E150F0402040E1F75E
:101C40001CC1812F0E94352A1DC1812F8695869542
:101C5000837019F0813061F015C1002321F08B2DC4
:101C6000912F937002C080E090E00E94A82210C1E2
:101C7000002321F08B2D912F937002C080E090E023
:101C80000E94922205C1812F8370A9F50111FEC027
:101C90004B2D429546954770440F440F8B2D8F7006
:101CA00090E09C01042E01C0220F0A94EAF7B4FED2
:101CB00008C08FE090E001C0880F4A95EAF7809550
:101CC00001C080E0169516951370123069F088F403
:101CD0009091B503113019F0822B892302C0922B09
:101CE000892B0E94E529D2C0822B9091B5038927C8
:101CF000F8CF822BF6CF002319F0812F817001C01D
:101D00008695882309F4C2C04B2D429546954770AD
:101D1000440F440F8B2D8F7090E09C01042E01C066
:101D2000220F0A94EAF7B4FE08C08FE090E001C0E9
:101D3000880F4A95EAF7809501C080E016951695C0
:101D40001370123059F078F490916805113019F041
:101D5000822B892309C0922B892B06C0822B90915C
:101D60006805892701C0822B0E94C5298FC01F707A
:101D7000002339F0812F0E94D9298B2D0E943C2A03
:101D800085C08B2D0E94352A812F0E94CC297EC0D0
:101D90008B2D92EF991669F1991538F0E0EF9E16A8
:101DA00059F0F1EF9F1601F157C023EF921641F160
:101DB00094EF9916A9F050C0002369F0A11062C0F9
:101DC0001F7181E090E001C0880F1A95EAF79091A9
:101DD000680589271FC0E1E0EA1508F453C0F0CF79
:101DE00080915E0582FD19C0002329F0812F8F713B
:101DF00026C00023D9F3812F8F710E94CC2942C0C5
:101E0000002339F01F7181E001C0880F1A95EAF7AD
:101E100001C080E00E94C52935C0002399F01F71E0
:101E2000812F0E94D92980915E0582FF07C0F8E0CA
:101E30001F9FC0011124836080939203812F0E9411
:101E4000D92920C081E00E94161721E02A15D0F47C
:101E500082E00E94161716C0002321F0AA2031F25A
:101E60008B2DA6CEAA2039F2893349F48FEF97EE55
:101E7000E3E081509040E040E1F700C000008B2D8E
:101E80000E94462A88EF8C0D843010F40E94BE22F6
:101E9000DD20A9F08091920380FD11C0F70112822C
:101EA0008595859585950E94D929C7010E94640B67
:101EB000809192038595859585950E94CC2985E032
:101EC000F701DE01119601900D928A95E1F70981E3
:101ED0001A81C8010E945C29B8010E949E140FC09B
:101EE00080919203877059F0F7018281882339F03D
:101EF00080915E0582FF03C082E00E9416172A9639
:101F0000EBE00C943A2C0F931F93522F10E0F80142
:101F1000EE0FFF1FEE54FE4FE081F0E0B097EE0FA2
:101F2000FF1F9F015203D001539FB00D1124000FDA
:101F3000111FF801EF54FE4F008110E00057110906
:101F4000000F111F40039001419F300D11242A0FF3
:101F50003B1F37FF02C021583F4F220F232F221F64
:101F6000330B620F1F910F9108950F931F93522F00
:101F700010E0F801EE0FFF1FEE54FE4FE081F0E09D
:101F8000B0979F015203D001539FB00D1124000F51
:101F9000111FF801EF54FE4F008110E000571109A6
:101FA00040039001419F300D11242A0F3B1F37FF42
:101FB00002C021583F4F220F232F221F330B620FE5
:101FC0001F910F910895EF920F931F9393E0099F34
:101FD00080011124159507956E2D600F1F910F91AB
:101FE000EF900895A22F50E0FA01EE0FFF1FEE547C
:101FF000FE4F9081905297FD9195440F551FFA0125
:10200000EF54FE4F3081232F30E02A1B3109290F76
:10201000311D97FD3A95620F0895E42FF0E0EE0F21
:10202000FF1FEE54FE4F6081621B0895E42FF0E025
:10203000EE0FFF1FEF54FE4F6081621B0895622F69
:102040000895E42FF0E0EE0FFF1FEF54FE4F4081A4
:1020500034EE439F412D1124E82FF0E050E0445E20
:102060005F4FDA01A21BB1099D01B7FF03C0319593
:102070002195310993E0220F331F9A95E1F7AF01C3
:10208000421B530B9A0157FF02C020E030E0582F4B
:10209000259F212D1124822F0895E42FF0E0EE0FCB
:1020A000FF1FEF54FE4F408134EE439F412D11241A
:1020B000E72FF0E050E0445E5F4FDA01A21BB10968
:1020C0009D01B7FF03C031952195310993E0220F9F
:1020D000331F9A95E1F7AF01421B530B9A0157FF4B
:1020E00002C020E030E0279F212D1124722F089597
:1020F000FC019B01009721F477FF2BC080E8089535
:10210000AC0197FF04C044275527481B590BB90160
:10211000640F751F37FD0CC0241B350BC901A5E0EA
:10212000880F991FAA95E1F70E94162F80E20CC034
:10213000CB0165E0880F991F6A95E1F7BA01621B30
:10214000730B0E94162F80E6861BF7FF03C0819554
:10215000089580E00895EF920F93CF93DF93D72FE8
:10216000C82FC9010E19BA010E947810602F681B90
:102170007D2F8C2FDF91CF910F91EF9008950F93CA
:10218000CF93DF93D72FC82FC901BA010E947810CF
:10219000682F600F7D2F8C2FDF91CF910F910895C5
:1021A000EF920F931F93CF93DF93D62FC72F182F44
:1021B000C9010E19010FBA010E947810081B202FC7
:1021C000219F212D1124822F6D2F7C2FDF91CF9104
:1021D0001F910F91EF900895EF920F931F93CF935C
:1021E000DF93D62F172FC82FC9010E19070FBA0179
:1021F0000E947810702F781B719F712D11246D2F04
:102200008C2FDF91CF911F910F91EF900895FF9246
:102210000F931F93CF93DF93F62ED72F182FC9015B
:10222000C12FC01BBA010E947810982F990F890FF7
:10223000C81B2C2F219F212D1124822F6F2D7D2F24
:10224000CDB7DEB7E5E00C94402CFF920F931F93BF
:10225000CF93DF93F62E172FD82FC901C72FC01B9E
:10226000BA010E947810982F990F890F7C2F781B44
:10227000719F712D11246F2D8D2FCDB7DEB7E5E045
:102280000C94402C482F982F46FD9095E92FEF7322
:102290009F7046FD9F5FE295EF70EE0FF0E0EC5D02
:1022A000FE4F2181299F802D212D112482958F7031
:1022B0002295207F822B3081982F930F892F47FD05
:1022C000819580580895409118015091190125E099
:1022D00038E0429FC001439F900D529F900D112402
:1022E000875E994C9093190180931801890F089586
:1022F000BC018230910508F40895613E8EE17807B3
:1023000048F49B0195E0369527959A95E1F748E0CA
:10231000420F01C04FEF91E0242F30E0290F311D13
:1023200035952795229FF001239FF00DF00D112484
:102330006E177F0718F44FEF420F04C02F3F39F09C
:1023400091E0920F491740F78FEF890F08958FEFB3
:1023500008950F93CF93DF93D72FC82F47FD419553
:10236000E8E3F0E0CF01841B910947FD9395889F36
:10237000B001899F700D700D1124229FC001239F11
:10238000900D900D1124860F971F0E947811682FD1
:10239000660F860F682F600F7D2F8C2FDF91CF91F6
:1023A0000F91089520E030E0869F212D969F200D0B
:1023B000311D1124C9010895A0E0B0E0E2EEF1E181
:1023C0000C94212CF62E472FE82FF0E0711106C057
:1023D000EC50FF4F8491782F682F73C0272F30E087
:1023E000EC50FF4FE491FE2F0E2F10E056E0659F5A
:1023F000C0011124CFEFD0E0BE010E94032C5BEAA4
:102400005603C001579F900D11248F0D911D8F0D04
:10241000911D982F990F980F7E01E21AF30AE09E02
:10242000D001E19EB00DF09EB00D11248B2F499F7D
:10243000A0011124452F55277E01E41AF50AE09EDC
:10244000A001E19E500DF09E500D11246E01C91A9D
:10245000D108C29E7001C39EF00CD29EF00C1124D4
:102460002F2D3327C21BD30BC09F9001C19F300D6E
:10247000D09F300D1124932F6230710591F048F4F4
:1024800061157105E1F061307105B9F49E2FE52FFA
:1024900016C06430710569F040F06630710579F05E
:1024A0000CC09E2FEB2F832F0AC0EB2F8F2F952F61
:1024B00006C09B2F8E2FE32F02C09B2F852F7E2FD0
:1024C000692FCDB7DEB7E8E00C943D2CAAE0B0E070
:1024D000ECE6F2E10C94182C85B7806885BF85B7CF
:1024E000806885BF84B7877F84BF0FB6F894A895AE
:1024F00080916000886180936000109260000FBE40
:1025000090E080E80FB6F8948093610090936100AA
:102510000FBE89E594E190934302809342020E94AA
:10252000BE1F0E9464208091E20084608093E200DC
:1025300078948091E1038823A1F01091E9001F7045
:102540009091EC00892F817090FD80E8182B1092FB
:10255000E9008091E80083FD0E94E41B1F70109346
:10256000E90082E084BD93E095BD9AEF97BD80932A
:102570006E000E94E92490E0909317018093160169
:102580000E9424260E946A26ECE0F3E0ACE1B3E06E
:1025900011921D9223E0EA31F207D1F78EE090E02C
:1025A0000E94302F80930A0390930B03FC010E9638
:1025B0001192E817F907E1F789EA8093800089E032
:1025C0008093810024982C983F988AB18F7C8AB997
:1025D0006E98479A8BB180638BB9769A8FE090E0C2
:1025E0000E94CB2C6093690570936A0580936B05FC
:1025F00090936C0567708FEF689FB00111247595FB
:102600006795759567957727709389006093880023
:1026100070938B0060938A0070938D0060938C00A0
:102620000E94602580E090E00E94D12C883E9E4F61
:1026300011F00E943E1682E090E00E94C32C80932D
:102640002A0384E090E00E94C32C182F82E290E0DD
:102650000E94C32C212F30E0382B30935E0520934D
:102660005D0583E090E00E94C32C0E94E5298091E3
:1026700068050E9441240E942B280E941E280E9467
:102680001E288091EF0381608093EF038AE091E040
:10269000909355058093540548E1C42ED12C50E405
:1026A000652E5524539439E3E32E33E0F32E8091C5
:1026B000E103853009F06FC023E0B22E00E112E1A2
:1026C0008091E103853009F05EC08091E1038430A0
:1026D00009F436C00E94492880916D0581110DC012
:1026E0000E94B605109220018091F00383708093C0
:1026F0001F010E949326B0921E0150926D05109208
:1027000058050FB6F894A895C09260000FBE60926D
:10271000600083B7817F846083BF83B7816083BF9C
:102720007894889583B78E7F83BF0FB6F894A89569
:1027300080916000886180936000109260000FBEFD
:102740008091E003882309F4BBCF0E94E92490E044
:1027500090931701809316010E9424260E946A26F6
:10276000ECE1F3E0119223E0EA32F207D9F70E949C
:102770004919ECE1F3E08191811183C083E0EA32F1
:10278000F807C9F79DCF1092BC030E94212A0E942E
:10279000BE2210926D050E9449199BE2A92E93E07A
:1027A000B92EACE1B3E0F50191918D918927EE1638
:1027B000FF0619F08823C1F322C0811120C00E94B6
:1027C00035228C0180911A0390911B030817190779
:1027D00009F449C08FEF89838A831B820E943522C6
:1027E0008160782F9D838C8349815A816B818D8193
:1027F0000E948A2310931B0300931A0334C08CE1B8
:10280000882E83E0982E10E0F40131904F01F501FD
:102810004080432401F100E077247394842D8721C4
:10282000A1F00E831F8391E0872D832109F490E0AE
:1028300098870E9435228160782F9A8789874E81F8
:102840005F8168858A850E948A230F5F770C063036
:1028500029F7F50130821F5FFFEFAF1ABF0A1E3064
:1028600099F60E9429220E9449280E94BE22909136
:102870003903891709F41BCF809339030E94292259
:1028800012CF09BD19BD09B400FEFDCF8091D8005B
:102890008F7D8093D8008091E00082608093E0007B
:1028A0008091E00081FDFCCF1092BC030E94212AA0
:1028B00007CF80E0089590915D0592FF0DC0282F0D
:1028C0002871283019F4877F846006C0282F24716E
:1028D000243011F48B7F886093FF0DC0282F28715E
:1028E000283119F4877E846106C0282F2471243191
:1028F00011F48B7E886120915E0520FF0DC0382F7A
:102900003871383019F4877F816006C0382F3171F3
:10291000313011F48E7F886021FF0DC0282F28717F
:10292000283119F4877E816106C0282F2171213159
:1029300011F48E7E886194FD877E08957E30A0F428
:10294000663090F494E5899FF001112486E0789F29
:10295000E00DF11D1124E60FF11DEE0FFF1FEC50ED
:10296000FE4F85919491089580E090E00895CF9373
:10297000DF938238910569F1B0F48133910509F450
:1029800077C048F48932910509F469C08A3291050B
:1029900009F473C092C08533910509F45BC0893393
:1029A0009105B9F08AC0833E910591F138F4803EDB
:1029B0009105D1F0823E910531F17FC0863E9105AF
:1029C000D9F1873E9105E9F1843E910509F075C082
:1029D00028C020915D0520FD5BC021FD59C02091DC
:1029E0005E0523FD61C069C080915D0580FD4AC020
:1029F00080915E0580FF4CC080915D0584FD39C1EA
:102A000083EE90E038C180915D0582FF3EC0F4CF37
:102A100080915D0582FD39C080915E0580FD38C0E2
:102A2000EBCF80915E0581FF39C080915D0584FD0B
:102A300020C187EE90E01FC180915D0583FF2BC010
:102A4000F4CF80915D0583FD26C080915E0581FDF8
:102A500025C0EBCF80915D0585FD26C022C0809109
:102A60005D0585FD1EC080915E0583FF1DC00AC007
:102A700080915D0586FD1BC01DC080915D0586FDB2
:102A800019C015C089E390E0F6C082EE90E0F3C073
:102A900080EE90E0F0C086EE90E0EDC084EE90E035
:102AA000EAC085E390E0E7C089E290E0E4C08AE212
:102AB00090E0E1C081E390E0DEC0811532E593074C
:102AC00008F05FC0811541E5940728F0982F88270A
:102AD000816F906AD0C0883E910568F5803E91056F
:102AE00008F0C9C0883A9105B8F4853A910548F0D4
:102AF000855AE82FF0E0E45DFE4F808190E090641D
:102B0000BAC08130910509F4B1C008F4B2C0843074
:102B1000910508F4AEC0AFC08F3B910508F0A9C085
:102B2000885AE82FF0E0EE0FFF1FE15DFE4F808135
:102B300091819464A0C0811520E59207A0F0AC01BA
:102B40004370552721E030E002C0220F331F4A9521
:102B5000E2F78695869540E2849FC0011124822B7E
:102B6000932B9D6888C0811530E4930718F09F70FF
:102B7000906A81C09C013A9521153F4108F47BC0C1
:102B800078C0EC01C11586E5D807E8F5C11525E543
:102B9000D20748F08C2F0E945B148F7190E0982F21
:102BA0008827906268C0C11534E5D30728F09C2FB0
:102BB0008827846F906A5FC0AE01437055272C2F21
:102BC00026952695C115D34578F481E090E002C0A2
:102BD000880F991F4A95E2F740E2249F9001112443
:102BE000822B932B9C6847C081E090E002C0880F45
:102BF000991F4A95E2F740E2249F90011124822B0D
:102C0000932B9A6838C0C1152AE5D207F8F4C1158C
:102C100039E5D30790F08C2F8F700E945B1494E0FD
:102C2000D695C7959A95E1F7CF70D0E0DC2FCC27E9
:102C3000D0699E01282BC9011EC0C11548E5D407E3
:102C4000C0F09C2F8827806F906A15C0CE019056E7
:102C50008115904270F48D2F8F710E945B14282F84
:102C60002F71CE0199279062922B05C081E090E0F0
:102C700002C080E090E0DF91CF91089568EE7EEF92
:102C800080E090E00E94052D60E082E090E00E94EC
:102C9000E72C60E083E090E00E94E72C1092B503FF
:102CA00060E084E090E00E94E72C64E082E290E043
:102CB0000E94E72C60E085E090E00E94E72C60E055
:102CC00086E090E00E94E72C6FEF87E090E00E94A2
:102CD000E72C40E050E0BA0188E090E00E94F92C37
:102CE00060E08DE090E00E94E72C40E050E0BA0107
:102CF00088E190E00E94F92C60E087E190E00E947A
:102D0000E72C40E050E0BA018CE190E00E94F92C01
:102D100060E070E080E290E00E94052D40E050E02D
:102D2000BA0188E190E00E94F92C10926905109296
:102D30006A0510926B0510926C0584E0809369051A
:102D40004091690550916A0560916B0570916C0521
:102D50008FE090E00E94F92C40E050E0BA0183E15E
:102D600090E00E94F92C08958091B4038111109293
:102D7000B403089580959091BC0389238093BC038C
:102D800008959091BC038091B303982B90933A03DC
:102D90008091B4038823D9F0892B80933A038091E2
:102DA0001A01882331F080915D0587FF02C08EE112
:102DB00001C086E0ECE3F3E090E0815028F021913F
:102DC0002223D9F39F5FF9CF91110E94B41640E2FC
:102DD00050E063E973E08AE393E00E945130892B6D
:102DE00021F180E2EAE3F3E0A3E9B3E001900D9280
:102DF0008A95E1F7E0915405F09155053097A9F0D7
:102E000080911A01882359F080915D0587FF07C0E2
:102E100080913A0380933B0386E080933A030280DB
:102E2000F381E02D8AE393E00995089520919203C0
:102E30008095822380939203982F977099F430E0C5
:102E4000482F082E000C550B2417350759F0909188
:102E50005E0592FF07C08595859585950E94CC29D2
:102E6000109292030895CF93C0915E05C2FB9927FB
:102E700090F9981791F080FBC2F9C0935E056091BC
:102E80005D0584E090E00E94E72C6C2F82E290E0E8
:102E90000E94E72C82E00E941617CF91089580913E
:102EA000910390916003891719F08F5F8770FBCFB2
:102EB00008950F931F93CF93DF9380915F038295C3
:102EC0008F7009F05AC080915C03882309F455C0C3
:102ED000809191031091600360915A0370915B039C
:102EE000C0915D03D0915E0391E06F3F09F090E0E7
:102EF000292F06E0811709F440C0209721F07F3F79
:102F000021F030E003C031E001C0322F90E030FD0D
:102F100031C0089FF001099FF00D1124DF01AF5966
:102F2000BC4F11963C911197371324C03C91361336
:102F300021C012963C91129731111CC013964D91ED
:102F40005C9114974C1B5D0B483C510598F48091A3
:102F50005F038F70806180935F03EA59FC4F80812B
:102F60008F70806180838AE593E00E94640B0E94E9
:102F70004F1703C001968770BDCFDF91CF911F918E
:102F80000F910895A1E1B0E0E8ECF7E10C941E2C5C
:102F90008C0185E0F801DE011D9601900D928A9565
:102FA000E1F7F801E28090915A0360915B03409150
:102FB0005D0350915E034115510531F06F3F31F4CF
:102FC00081E09F3F19F403C081E001C080E0F82F49
:102FD000F1709F2E80FD1BC1F80130812181C380DB
:102FE000D4808AE5A82E83E0B82EF0905C03F60129
:102FF000E41BF50BFF2009F4C7C080915F03E83C98
:10300000F10508F092C0482F407F09F051C06213CB
:1030100011C093130FC0FE2CE1100CC08F708061A3
:1030200080935F03C5010E94640B80915F03F801E8
:1030300085832AC1C114D10431F02F3F31F481E0DE
:103040003F3F19F403C081E001C080E080FD03C070
:1030500081E08E2502C080E090E0F82FF170FF2E15
:1030600080FF1CC0809191034091600356E084175B
:1030700009F4E8C090E0589FF001599FF00D112429
:10308000EF59FC4F6181261306C06081631303C0B2
:103090006281E61203C001968770E9CFFE2CEE2014
:1030A00009F4F2C080915F03816080935F0349C09F
:1030B000621306C0931304C0E11002C0F80186C079
:1030C000C8010E94EA29882351F1EE2041F12091A4
:1030D0005F03822F82958F7090E0029774F0809149
:1030E0005A0390915B0398878F831986DB86CA8683
:1030F0002C87CE0107960E94640B86E0F801AAE5B2
:10310000B3E001900D928A95E1F70E9459170AC029
:103110006217C9F0C8010E94EA2981111EC0C801C6
:103120000E94640BFF24F394AFC0482F407F81F7C7
:103130008AE593E00E94640B86E0F50111928A957E
:10314000E9F7F12CA1C09313E5CFE110E3CFF8012B
:103150008583C8010E94640B54C0EE2001F32091C6
:103160005F03822F82958F7090E0029734F28091F6
:103170005A0390915B039A8389831B82DD82CC8200
:103180002E83CE010196B7CFE83CF105D0F5FE2C99
:10319000EE2029F2621327C0931325C020915F030C
:1031A00020FD18C0822F82958F70482F50E0411566
:1031B000510581F0F80125834F30510541F08F5FB3
:1031C000982F9295907F822F8F70892B8583C801CD
:1031D0000E94640B86E0F801AAE5B3E001900D922D
:1031E0008A95E1F751C0C8010E94EA29811185CF73
:1031F00080915F03816080935F03C8010E94640B2C
:1032000043C086E0F50111928A95E9F73DC0EE20B2
:1032100009F485CFC8010E94EA29F82E882309F411
:103220007ECF86E0F801AAE5B3E001900D928A9581
:10323000E1F780915A0390915B030E944F290E940D
:10324000591722C03D872E878D859E850E944F2964
:10325000292F22952F70223028F49F7039F0811188
:1032600005C00BC0243028F49F7049F4805E88307C
:1032700020F0C8010E94640B9F2CF92C05C0F801B6
:103280009581907F99F7F9CF8F2D6196EBE00C94A3
:103290003A2CA0E0B0E0EFE4F9E10C94212C80910D
:1032A000160190911701892BA1F08091B6038F5FD1
:1032B0008093B60381110DC00E94E92490E09093A1
:1032C000170180931601892B21F40E9460250E942A
:1032D0002B280CE013E07801D0E0C0E087E0C82E96
:1032E000CC0E8C2F0E94D0258C2D0E94D0258C2FA7
:1032F0000E9433268F73F7019081891721F0808314
:10330000DD24D39401C0D12C8C2D0E9433268F73E1
:10331000F7019781891719F0878381E001C080E068
:10332000D82ADD290E942426CF5FFFEFEF1AFF0A7B
:10333000C730A1F61092BB03C091BA03CC2309F4A5
:103340007BC00E9435222091B8033091B903AC01B3
:10335000421B530B9A019093B9038093B8034F3FDC
:10336000510509F018F4452B19F102C02FEF30E098
:103370001092BA031092B703E0910A03F0910B0385
:10338000AF01425F5F4F90E030E08081882341F0E1
:10339000281718F010829C2F03C0821B80833C2FBB
:1033A0003196E417F50789F73093BA039093B70382
:1033B000DD23A1F1E0910A03F0910B038091BB039F
:1033C0009091BA03ACE1B3E0AF01425F5F4F6EE1B1
:1033D000E80128813C91321779F0308131110CC01D
:1033E00060832C9398819227282F30E0292B81E04D
:1033F000232B09F480E091E0319611960F5F1F4F67
:10340000E417F50729F78093BB039093BA038091E3
:10341000BB03CDB7DEB7E8E00C943D2C81E0909182
:10342000B7039923A1F38111C5CF0E943522909350
:10343000B9038093B803BECFD111F7CF80E0EFCFAF
:103440009091F0039370A1F0811102C0946007C0C5
:103450008F3110F0986703C0880F880F982B9093D6
:10346000F00310921E018091EF0381608093EF03BF
:103470000895A0E0B0E0EFE3FAE10C94222C8C0177
:1034800080911B01C82FCC0FCC0FC80FD5E0DC0FEB
:10349000D13308F0D0E36091F4036695669521E09E
:1034A000620F08F46FEF8091EB039091EC030E94A0
:1034B000D211D82ECD17F0F4EC2EF12CF701EF5EDF
:1034C000FD4F908180911C01892391F06091F1035F
:1034D0007091F2038091F3032D2D4C2FF801099583
:1034E0000E94DC11462F282F672FC7010E94B305C9
:1034F000CF5FE0CF81E0D03308F080E0CDB7DEB71A
:10350000E7E00C943E2CA0E0B0E0E9E8FAE10C948E
:103510001E2C6C0180911B01C82FCC0FCC0FC80F43
:1035200015E01C0F113308F010E36091F403669569
:1035300066958091EB039091EC030E94D211D82FF5
:1035400080E48D0F0E94421190E8F92EF80E8D2F25
:103550000E94421120E8922E980EC11700F5AC2E61
:10356000B12CF501EF5EFD4F908180911C01892304
:10357000A1F06091F1037091F2038091F303ED2EBD
:103580000C2F292D4F2DF60109950E94DC11462F95
:10359000282F672FC5010E94B305CF5FDECF81E0E2
:1035A000103308F080E0CDB7DEB7EBE00C943A2C96
:1035B0006F927F928F929F92AF92BF92CF92DF9243
:1035C000EF920F931F93CF93DF933C0180911B01E8
:1035D000C82FCC0FCC0FC80FD5E0DC0FD13308F0CB
:1035E000D0E36091F40366958091EB039091EC0336
:1035F0000E94D211182FCD1708F044C08C2E912CA8
:10360000F401EF5EFD4F908180911C018923C1F18F
:10361000F401EE0FFF1FEF54FE4FC080D12C80E766
:10362000C81AD108F401EE0FFF1FEE54FE4FA08020
:10363000B12CE0E2AE1AB108CC9C9001CD9C300DCB
:10364000300D1124AA9CC001AB9C900D900D11244B
:10365000820F931F0E947811082F6091F1037091DF
:10366000F2038091F303E12E9501A601F301099580
:103670000E94DC11462F282F672FC4010E94B3053A
:10368000CF5FB9CF81E0D03308F080E0DF91CF91F8
:103690001F910F91EF90DF90CF90BF90AF909F90D0
:1036A0008F907F906F900895A0E0B0E0EAE5FBE195
:1036B0000C94212C6C0180911B01C82FCC0FCC0FD6
:1036C000C80FD5E0DC0FD13308F0D0E36091F403EC
:1036D00066958091EB039091EC030E94D211182F14
:1036E000CD1778F5EC2EF12CF701EF5EFD4F9081B0
:1036F00080911C01892319F1F701EE0FFF1FEE5491
:10370000FE4F208130E020523109F701EE0FFF1FFC
:10371000EF54FE4F408150E0405751096091F10352
:103720007091F2038091F303012FF60109950E9435
:10373000DC11462F282F672FC7010E94B305CF5FEA
:10374000CFCF81E0D03308F080E0CDB7DEB7E8E03E
:103750000C943D2C9091F003937059F08093F103F9
:103760006093F2034093F3038091EF0381608093B1
:10377000EF030895EF92FF920F931F93CF93DF9380
:103780007C018B010E94DD1F811119C0E701011529
:103790001105A1F08091E80085FD0AC08091E80044
:1037A0008E778093E8000E94DD1F882381F307C095
:1037B00089918093F10001501109E9CF80E0CDB7E4
:1037C000DEB7E6E00C943F2CAAE2B0E0EAEEFBE1C3
:1037D0000C94262CE3EEF3E08BEE93E02091F100C5
:1037E00021938E179F07D1F78091E403833009F46A
:1037F00061C030F4813071F0823009F49DC0B4C0F2
:103800008A3009F489C08B3009F46CC0893009F022
:10381000ABC020C08091E303813A09F0A5C080913C
:10382000E800877F8093E8008091E7039091E803A8
:10383000892B21F460E28FEB93E003C060E080E02D
:1038400090E070E00E9496218091E8008B77809351
:10385000E8008AC08091E303813209F085C080913D
:10386000E7039091E803029708F07EC08091E8009A
:10387000877F8093E8008091E80082FD05C08091F9
:10388000E1038111F8CF70C02091F3008091F20024
:1038900090E0922B029731F48091F100813011F089
:1038A000863021F48091F1008093BE038091E8007E
:1038B0008B7756C08091E303813A09F055C080911F
:1038C000E7039091E803892B09F04EC08091E8004E
:1038D000877F8093E8008091E80080FFFCCF809193
:1038E0001A0139C08091E3038132F1F58091E70339
:1038F0009091E803892BC1F58091E800877F809340
:10390000E8000E9410208091E50380931A01109234
:10391000BC030E94212A28C08091E303813221F553
:103920008091E800877F8093E8000E9410208091BA
:10393000E6038093BD0318C08091E303813AA1F4AC
:103940008091E800877F8093E8008091E80080FF05
:10395000FCCF8091BD038093F1008091E8008E77C9
:103960008093E8000E9410208091E80083FFCEC180
:103970008091E3039091E403492F50E04A305105D0
:1039800008F0C4C1FA01EE59FF4F0C942A2F803879
:1039900021F0823809F0BAC108C08091DF0390910C
:1039A000E003992389F082600FC08091E7038F7054
:1039B000873008F0ABC18093E9008091EB0085FB74
:1039C000882780F91092E9009091E800977F909302
:1039D000E8008093F1001092F10065C1282F2D7F3F
:1039E00009F094C1882319F0823061F08FC1809171
:1039F000E503813009F08AC1933009F080E08093BB
:103A0000E0032EC08091E50381112AC08091E70375
:103A10008F702FEF280F263008F078C18093E900CF
:103A20002091EB0020FF1CC0933021F48091EB002B
:103A3000806214C09091EB0090619093EB0021E0C4
:103A400030E0A90102C0440F551F8A95E2F7409368
:103A5000EA001092EA008091EB0088608093EB000E
:103A60001092E9008091E800877F20C181114EC14A
:103A70001091E5031F778091E3008078812B80937C
:103A8000E3008091E800877F8093E8000E94102087
:103A90008091E80080FFFCCF8091E30080688093F4
:103AA000E300111102C082E001C083E08093E103D2
:103AB0002DC18058823008F029C18091E503909192
:103AC000E6038C3D53E0950779F583E08A838AE22B
:103AD00089834FB7F894DE01139620E03EE051E26F
:103AE000E32FF0E050935700E49120FF03C0E295EC
:103AF000EF703F5FEF708E2F90E0EA3010F0C796C6
:103B000001C0C0968D939D932F5F243149F74FBF1D
:103B10008091E800877F8093E8006AE270E0CE0140
:103B200001960E949621AEC04091E7035091E803B0
:103B3000292F332723303105A9F068F421303105CE
:103B400009F4F3C02230310509F0E0C08BE390E0C6
:103B5000E9EEF5E044C02132310521F12232310590
:103B600071F1D4C0992781309105A1F058F00297E6
:103B700009F0CCC0E6E3F6E0E4918E2F90E0E6E3B6
:103B8000F6E02AC0E2E8F6E0E4918E2F90E0E2E869
:103B9000F6E022C0E8E5F6E0E4918E2F90E0E8E55B
:103BA000F6E01AC04115510509F4C4C04130510571
:103BB00009F0ACC089E090E0E4E1F6E010C0411506
:103BC000510509F4BCC04130510509F09FC08DE694
:103BD00090E0ECE3F5E003C0009709F497C0209172
:103BE000E800277F2093E8002091E9033091EA0361
:103BF0008217930708F49C0140E02115310589F1F3
:103C00008091E103882309F43DC08530D9F180918A
:103C1000E80083FD37C08091E80082FD2FC08091CD
:103C2000E80080FFEACF4091F3008091F20090E03D
:103C3000942B2115310559F08830910540F44491B9
:103C40004093F1003196215031090196F2CF41E0C5
:103C5000089709F040E08091E8008E778093E800B3
:103C6000CCCF4111CDCF0AC08091E103882351F020
:103C7000853041F08091E80083FD04C08091E80028
:103C800082FFF2CF8091E8008B778093E8003EC0FE
:103C90008038E1F58091E800877F8093E80080918B
:103CA000E2038093F1008091E8008E778093E80032
:103CB0000E9410202BC0811129C08091E5039091B2
:103CC000E6039927029714F58091E800877F809397
:103CD000E8001091E5031093E2030E9410201111F7
:103CE00006C08091E30087FD02C081E001C084E04E
:103CF0008093E10342E061EC81E00E942F2042E2E8
:103D000061EC82E00E942F208091E1038091E80025
:103D100083FF1AC08091E800877F8093E80080913C
:103D2000EB0080628093EB000FC082E190E0E4E260
:103D3000F6E055CF89E090E0EBEFF5E050CF80E47E
:103D400090E0E9EAF5E04BCFAA96E3E00C94422C30
:103D5000089508958091BE03089580935F05709340
:103D60006105609360058091E103843001F582E094
:103D70008093E9008FEF9091E800815095FD06C097
:103D800095ED9A95F1F700008111F5CF8091E8004B
:103D900085FF0DC040E050E063E070E08FE595E006
:103DA0000E94BA1B8091E8008E778093E800089506
:103DB000BC0184E00E94AD1E0895BC0183E00E9416
:103DC000AD1E0895CF93DF9320911A01222339F07D
:103DD00020915D0527FF03C060E222E002C068E099
:103DE00021E02093E9002FEF3091E800215035FDCC
:103DF00006C035ED3A95F1F700002111F5CF20917D
:103E0000E80025FF1DC0EC0180911A01811105C059
:103E100040E050E068E070E003C070E040E050E057
:103E2000CE010E94BA1B8091E8008E778093E80053
:103E300080E2FE01AFEBB3E001900D928A95E1F7CD
:103E4000DF91CF910895A4E0B0E0E9E2FFE10C94A6
:103E5000242C8033910588F5122F042FF62EBC01F7
:103E6000660F771F660F771F6A57794F44E050E05F
:103E7000CE0101960E94AA2C898183704A81282F45
:103E800030E050E9859FC0011124845F9B4FFC0105
:103E9000E40FF11DB497F0824B81FC01E40FF11D9A
:103EA000B49700834C81840F911DFC01B49710835B
:103EB000F901E65FFB4F81E080832496E5E00C94F6
:103EC000402CFF920F931F93CF93DF93182F062F51
:103ED000F42EC0E0D0E02F2D402F612FCE010E94A4
:103EE000231F2196C033D105B1F7CDB7DEB7E5E08A
:103EF0000C94402C1F920F920FB60F9211242F9307
:103F00003F934F935F936F937F938F939F93AF9361
:103F1000BF93CF93DF93EF93FF93C091E900CF70EE
:103F20008091EC00D82FD17080FDD0E81092E9008C
:103F30008091F000877F8093F00078940E94E41BCA
:103F40001092E9008091F00088608093F000CD2B02
:103F5000CF70C093E900FF91EF91DF91CF91BF91B6
:103F6000AF919F918F917F916F915F914F913F9111
:103F70002F910F900FBE0F901F901895E8EDF0E075
:103F800080818E7F80831092E2001092DA0010927E
:103F9000E100A0EEB0E08C9181608C9380818F77FE
:103FA000808319BCA7EDB0E08C918E7F8C938081CB
:103FB0008F7E80831092620508952091E4003091F5
:103FC000E50095E64091EC00842F817040FF23C00E
:103FD0008091E80080FD1DC08091E103882399F065
:103FE000853099F08091EB0085FD11C04091E4008F
:103FF0005091E5002417350729F3915011F09A01EB
:10400000E1CF84E0089582E0089583E0089581E09F
:10401000089580E008954091E80042FFDDCF0895C3
:104020008091E30387FF11C08091E80082FD05C005
:104030008091E1038111F8CF11C08091E8008B7766
:104040000BC08091E103882349F08091E80080FF54
:10405000F8CF8091E8008E778093E8000895982F3C
:10406000973068F59093E900981739F07091EC005B
:104070002091ED005091F00003C0242F762F50E0E6
:1040800021FD02C09F5FECCF3091EB003E7F30936B
:10409000EB003091ED003D7F3093ED003091EB006F
:1040A00031603093EB007093EC002093ED0050935F
:1040B000F0002091EE0027FDE5CF80E008958F709D
:1040C0008093E90081E00895A0E0B0E0EAE6F0E244
:1040D0000C94212CC8EDD0E088818F7E8883E7ED99
:1040E000F0E080818160808384E082BF81E0809302
:1040F000620588818E7F888302EE10E0F8011082CD
:104100001092DA0081EEC82ED12CF601108288813F
:104110008F77888388818068888388818F7D888372
:1041200019BC1092E1031092E2031092E003109286
:10413000DF0390EEE92EF12CF70180818B7F8083E5
:1041400088818160888342E060E080E00E942F20C7
:10415000F60180818E7F8083F80180818160808379
:10416000808188608083F70180818E7F8083888151
:1041700080618883CDB7DEB7E8E00C943D2C1F92B8
:104180000F920FB60F9211242F933F934F935F938B
:104190006F937F938F939F93AF93BF93EF93FF930F
:1041A0008091E10082FF09C08091E20082FF05C09A
:1041B0008091E1008B7F8093E1008091DA0080FFA5
:1041C0002AC08091D80080FF26C08091DA008E7FBF
:1041D0008093DA008091D90080FF18C080E189BD0A
:1041E00082E189BD09B400FEFDCF81E08093E10347
:1041F0008091620581110FC00E94BE1F0E94642041
:104200008091E20084608093E20005C019BC1092A6
:10421000E103109262058091E10080FF17C0809158
:10422000E20080FF13C08091E2008E7F8093E20065
:104230008091E20080618093E2008091D8008062EA
:104240008093D80019BC85E08093E1038091E10060
:1042500084FF30C08091E20084FF2CC080E189BDE2
:1042600082E189BD09B400FEFDCF8091D8008F7D29
:104270008093D8008091E1008F7E8093E10080914F
:10428000E2008F7E8093E2008091E2008160809363
:10429000E2008091E203882311F084E007C080915E
:1042A000E30087FD02C081E001C083E08093E10369
:1042B0008091E1038091E10083FF27C08091E200BB
:1042C00083FF23C08091E100877F8093E10082E03B
:1042D0008093E1031092E2038091E1008E7F80934E
:1042E000E1008091E2008E7F8093E2008091E20005
:1042F00080618093E20042E060E080E00E942F2035
:104300008091F00088608093F000FF91EF91BF9161
:10431000AF919F918F917F916F915F914F913F915D
:104320002F910F900FBE0F901F9018952091E903C9
:104330003091EA032617370748F06115710539F403
:104340002091E8002E772093E80001C0B901FC011C
:1043500020E06115710579F18091E1038823F1F185
:104360008530F1F18091E80083FD3CC08091E80048
:1043700082FD2EC08091E80080FFEBCF2091F300FA
:104380008091F20090E0922B6115710551F0883018
:10439000910538F421912093F10061507109019643
:1043A000F3CF21E0089709F020E08091E8008E77B4
:1043B0008093E800CECF2111CFCF0AC08091E103D6
:1043C000882361F0853061F08091E80083FD0AC0A8
:1043D0008091E80082FFF2CF80E0089582E00895A6
:1043E00083E0089581E0089578941F920F920FB6AC
:1043F0000F9211248F939F93AF93BF938091590590
:1044000090915A05A0915B05B0915C050196A11DA4
:10441000B11D8093590590935A05A0935B05B09305
:104420005C05BF91AF919F918F910F900FBE0F9040
:104430001F9018959C014FB7F89480915905909161
:104440005A05A0915B05B0915C054FBF821B930B91
:1044500008952FB7F8946091590570915A0580918D
:104460005B0590915C052FBF08952FB7F89480915C
:10447000590590915A05A0915B05B0915C052FBF3D
:1044800008951F920F920FB60F9211248F939F934E
:10449000AF93BF9380915805811113C08091590546
:1044A00090915A05A0915B05B0915C054196A11DC4
:1044B000B11D8093590590935A05A0935B05B09365
:1044C0005C05BF91AF919F918F910F900FBE0F90A0
:1044D0001F90189520911A012223C9F020915D05A3
:1044E00027FF15C0262F2695269526952E31C8F430
:1044F000FC01E20FF11D677081E090E001C0880FC0
:104500006A95EAF780959281892382830895FC0158
:1045100006962281621301C012823196E817F907CC
:10452000C1F708952091560530915705281739078E
:1045300071F09093570580935605E0915405F091E2
:104540005505309721F00084F185E02D09950895F7
:1045500020915205309153052817390771F0909337
:10456000530580935205E0915405F091550530971D
:1045700021F00680F781E02D09950895E09154051A
:10458000F0915505309729F00190F081E02D0995C3
:10459000089580E00895882311F0FA0101C0FB011D
:1045A00009950895A0E0B0E0E8EDF2E20C94222C29
:1045B000262F30E0A901405B5A4F7A01FA01908121
:1045C000911107C0F7011082CDB7DEB7E7E00C9478
:1045D0003E2CD82EF2E16F9FE001112400E010E0A4
:1045E000F801EC0FFD1FE45DFA4F4081602F8D2D27
:1045F0000E94B2270F5F1F4F0231110589F7E2CFEA
:10460000CF93DF93C82F4BE06DEF0E94B22740E0BD
:104610006AE08C2F0E94B2278FE39CE90197F1F7A3
:1046200000C0000040E060E08C2F0E94B22740E014
:1046300061E08C2F0E94B22740E066E08C2F0E9440
:10464000B22740E06DEF8C2F0E94B227D0E040E00F
:104650006D2F8C2F0E94B227DF5FD231C1F740E06F
:104660006D2F8C2F0E94B227DF5FD432C1F740E05C
:104670006D2F8C2F0E94B227DF5FD43BC1F74BE038
:104680006DEF8C2F0E94B22741E06AE08C2F0E94D0
:10469000B22740E06DEF8C2F0E94B227DF91CF91BF
:1046A00008950F931F93CF93DF93082F000FEB0113
:1046B00014E21093F603E7EFF3E0DE018D918193AE
:1046C00084E0E730F807D1F723E030E041E150E043
:1046D00066EF73E0802F0E94DE2B105F6096143B24
:1046E00041F7DF91CF911F910F910895982F9295E7
:1046F0009F7019F0892F24E001C020E0982F969533
:10470000969511F02E5F892F982F969509F02F5FBF
:10471000822F0895A7E1B0E0E0E9F3E20C94262CA3
:104720004B8B5C8B6D8B7E8B8F8B61111092B303E7
:1047300086E09E01235F3F4FD901E82F1D92EA9545
:10474000E9F795E0FE017396D90101900D929A95D3
:10475000E1F79C894E895F897B897D879E876F877A
:10476000598B488BF901DE01179601900D928A95BD
:10477000E1F7CE0107960E94C21781113EC086E084
:10478000FE013796DE01119601900D928A95E1F7B0
:10479000FF81E8856A857B856115710531F0EF3F02
:1047A00031F481E0FF3F19F403C081E001C080E0F3
:1047B00080FD23C02091600330E0C901019687701D
:1047C00099274091910350E08417950779F1F98377
:1047D000EA837D836C8396E0929FD001939FB00D16
:1047E0001124AF59BC4FFE01319601900D929A955C
:1047F000E1F7809360030E944F1716E080919103C8
:1048000090916003891709F1189FC00111248F59F5
:104810009C4F0E94C2178823C1F08091910390E0C1
:1048200001968770992780939103E8CF1092BC037B
:104830000E94212A1092600310929103EAE5F3E0AE
:1048400086E0DF011D928A95E9F76796E3E00C9414
:10485000422C1092BC030E94212A2FEF84E39CE09B
:10486000215080409040E1F700C000009AE088E1CC
:104870000FB6F894A895809360000FBE90936000E7
:10488000FFCFCF93C82F0E94762356985E98259825
:104890002D9826982E9827982F9890E0FC01319714
:1048A000E730F105A8F4E459FF4F0C942A2F259A1C
:1048B0002D9A0EC0259A2D9A269A2E9A09C0259ACD
:1048C0002D9A04C0259A2D9A269A2E9A279A2F9AC5
:1048D0008C2FCF910895A0E0B0E0E1E7F4E20C94D2
:1048E000182C20E9289F7001299FF00C1124C0E0AA
:1048F000D0E000E010E067018FEFC81AD80A570136
:1049000082E0A80EB11CF701EC0FFD1FEA5BF84F27
:104910006491F601EC0FFD1FEA5BF84F7491F5010D
:10492000EC0FFD1FEA5BF84F8491611107C0711114
:1049300005C0811103C020E040E03CC00E94DC11B2
:10494000962E372E882E6091F30370E080E090E081
:104950000E940F2E20E030E04FE753E40E946E2DBE
:104960002B013C01682D70E080E090E00E94112E48
:10497000A30192010E949D2E0E94E02D862E692D9A
:1049800070E080E090E00E94112EA30192010E944D
:104990009D2E0E94E02D962E632D70E080E090E029
:1049A0000E94112EA30192010E949D2E0E94E02DD3
:1049B000282D492DC8010E94B3050F5F1F4F239674
:1049C000C039D10509F09FCFCDB7DEB7E1E10C9436
:1049D000342C80E290E0909317018093160180912F
:1049E000630581110EC00E94122B81E08093630544
:1049F0002FEF83ED90E3215080409040E1F700C01D
:104A0000000060E570E080E40E94182B909317018D
:104A100080931601892B09F04EC060E570E080E0BC
:104A20000E948B2B9093170180931601892B09F01C
:104A300042C060E570E080E00E948B2B90931701EC
:104A400080931601892BB9F560E570E08FE30E9431
:104A50008B2B9093170180931601892B61F50E948F
:104A6000FF2B60E570E080E40E94182B9093170103
:104A700080931601892BF9F460E570E08CE00E94C8
:104A80008B2B9093170180931601892BA1F460E57D
:104A900070E080E00E948B2B9093170180931601A9
:104AA000892B49F460E570E08FE30E948B2B909393
:104AB0001701809316010E94FF2B80911601089523
:104AC000CF93DF9356985E9825982D9826982E9828
:104AD00027982F98C8E8D0E08FEF90E099838883DB
:104AE000AAE8B0E011969C938E93ECE8F0E09183F5
:104AF0008083259A2D9A2FEF80E792E02150804005
:104B00009040E1F700C00000269A2E9A2FEF80E730
:104B100092E0215080409040E1F700C00000279AC9
:104B20002F9A2FEF80E792E0215080409040E1F7EC
:104B300000C0000025982D982FEF80E792E02150CB
:104B400080409040E1F700C0000026982E982FEF9B
:104B500080E792E0215080409040E1F700C00000E3
:104B600027982F988091690587702FEF829FC00149
:104B7000112495958795959587959927998388838D
:104B800011969C938E939183808356985E98259876
:104B90002D9826982E9827982F98DF91CF910895D9
:104BA000CF93E82F873080F58091160190911701FF
:104BB000892B09F047C0CE2F60E570E080E40E94A9
:104BC000182B9093170180931601892BD1F460E57F
:104BD00070E082E10E948B2B909317018093160165
:104BE000892B79F481E090E001C0880FCA95EAF73B
:104BF00060E570E080950E948B2B90931701809365
:104C000016010E94FF2B1EC090E0FC013797E73091
:104C1000F105C0F4ED58FF4F0C942A2F209A2898E4
:104C200011C0219A29980EC0229A2A980BC0239A63
:104C30002B9808C0529A5A9805C0539A5B9802C0A4
:104C40003E9A4698CF9108952098289821982998BF
:104C500022982A9823982B9852985A9853985B98A0
:104C60003E9846980895CF93873040F5809116017D
:104C700090911701892B59F560E570E081E40E945D
:104C8000182B9093170180931601892B11F0C0E027
:104C900011C080E590E00E94BA2B97FF05C0909369
:104CA000170180931601F3CFC82FC09510921701FA
:104CB000109216010E94FF2B8C2F0AC09FB18FB15A
:104CC000807F869586959370892B809501C080E0C2
:104CD000CF9108958098889A8198899A84988C9A1F
:104CE00085988D9A86988E9A87988F9A0895E0EF86
:104CF000F3E0248130E1231B08F420E02483809139
:104D0000EF0381608093EF030895E0EFF3E02481E7
:104D100030E1230F08F42FEF24838091EF038160AB
:104D20008093EF03089580910A04882329F06CE0B2
:104D300074E084E70E94512310920A0480910B04CE
:104D4000882329F06CE974E087E70E9451231092D0
:104D50000B040895A4E0B0E0E0EBF6E20C941B2C09
:104D60000E94122B84E70E94002387E70E94002301
:104D700006E816E072E1772EE8E0CE2ED12CEE2484
:104D8000E394F12C6624639444E050E0B801CE0132
:104D900001960E94AA2C2A8130E0C9018497AB8039
:104DA000B12C44E2A41AB108EC81F0E0B497AC0154
:104DB00097FF02C0495F5F4F63E0559547956A953D
:104DC000E1F72981237030E0729EB001739E700D6F
:104DD0001124645D7A4F4B01840E911CB6010E9430
:104DE000162FD70102C0AA0FBB1F8A95E2F7CD018B
:104DF000D4019C91892B8C93C501B7FC079653E095
:104E0000959587955A95E1F7729EA001739E500D76
:104E10001124445D5A4F4A01880E911CC501B60108
:104E20000E94162FA70102C0440F551F8A95E2F772
:104E3000CA01D4019C91892B8C93CF01F7FD079671
:104E400043E0959587954A95E1F7729EA001739E80
:104E5000500D1124445D5A4F5A01A80EB11CCF01C8
:104E6000B6010E94162FF70102C0EE0FFF1F8A95B0
:104E7000E2F7CF01D5019C91892B8C93F901E05B7E
:104E8000FA4F60820C5F1F4FB7E006341B0709F032
:104E90007BCF60E084E70E94D22261E087E70E9436
:104EA000D2222496EEE00C94372CE0EFF3E043811D
:104EB00021E1421B08F440E08181628190E00E9480
:104EC000AA1B0895E0EFF3E0438121E1420F08F4CB
:104ED0004FEF8181628190E00E94AA1B0895E0EF6C
:104EE000F3E0628120E1621B08F460E0818143818C
:104EF00090E00E94AA1B0895E0EFF3E0628120E1B8
:104F0000620F08F46FEF8181438190E00E94AA1B39
:104F10000895E0EFF3E0818190E04381628108979A
:104F20000E94AA1B0895E0EFF3E0818190E04381A5
:104F3000628108960E94AA1B08958091F0038695CD
:104F40008695815009F48EE10E94201A089580917F
:104F5000F003869586958F5F8F3108F081E00E947F
:104F6000201A0895E6EFF3E06083418323E030E008
:104F700042E050E0BF01880F0E94DE2B08951F938E
:104F8000CF93DF93FC01EF5EFD4F20816223B9F0E8
:104F9000EC010E949A2C182F0E949A2C8F77782F60
:104FA00020E8720F08F47FEF612F8091F3030E94D5
:104FB000DC11462F282F672FCE010E94B305DF9109
:104FC000CF911F910895A0E0B0E0E9EEF7E20C94D4
:104FD000222CEC01FC01EF5EFD4F9081692349F129
:104FE000D090F2030091F3031091F103E12EF12C24
:104FF0000E946311282FC7018C549F4F68E671E00F
:105000000E94162F8E199F0997FD039695958795F7
:10501000959587952370612F289F600D11247D2D14
:10502000802F0E94DC11462F282F672FCE010E946F
:10503000B305CDB7DEB7E7E00C943E2C8091F003CA
:10504000837011F410921E018091F0038C7F8160B7
:105050008093F00308950E94AA2680E090E00E94C9
:10506000D12C883E9E4F21F00E943E160E94490B93
:1050700046E050E06CE170E080EF93E00E94B32CDA
:105080001092EF038091F0038C7F11F40E94490B82
:1050900008950F931F93CF930E9429226093640574
:1050A00070936505809366059093670520916D0563
:1050B000211108C0C091F0032C2F237019F0C69560
:1050C000C69501C0C0E020911E012130A1F038F04A
:1050D000223009F46CC0233009F476C0A0C01092CD
:1050E0001B016093EB037093EC038093ED039093AB
:1050F000EE0381E066C08C2F0E94B605CC2309F434
:105100008EC08091690583FD8AC08091680590E01A
:10511000A0E0B0E0AC01BD01F4E07695679557954D
:105120004795FA95D1F7411551056105710521F4AF
:10513000AC01BD0180E001C084E08A019B01E2E096
:105140003695279517950795EA95D1F7011511051D
:105150002105310519F08E5FB901A8017695679593
:1051600057954795452B462B472B09F08F5F82308B
:1051700069F028F4813091F481E090E009C0833037
:1051800051F0843059F484E090E002C082E090E075
:105190000E946B2444C083E090E0FACF8091F50335
:1051A00081113DC040E060E00E94B00538C0C0936E
:1051B00020018091F003837080931F010E94932649
:1051C00083E080931E012BC08091EF03882351F070
:1051D00046E050E06CE170E080EF93E00E94D72C55
:1051E0001092EF034091EB035091EC036091ED03BB
:1051F0007091EE032FB7F8948091590590915A055C
:10520000A0915B05B0915C052FBF841B950BA60B8D
:10521000B70B4A97A105B10510F010921E01CF916E
:105220001F910F91089580E090E00E94A82280E0F5
:1052300090E00E9492221092B3030E94C11608953A
:10524000CF92DF92FF920F931F93CF93DF936C0166
:10525000009168058091B503082BC7E0D0E010E00D
:10526000C8010C2E02C0959587950A94E2F780FD3F
:1052700004C02197A8F7F12C09C0FC2EB6018C2F91
:105280000E949E140E94B714019799F38F2DDF910D
:10529000CF911F910F91FF90DF90CF900895CF9302
:1052A000DF93EC010E942029BE010E949E140E94FF
:1052B000B714DF91CF910895292F9E3078F586306D
:1052C00068F590E036E0239F800D911D1124682F32
:1052D000677023E0969587952A95E1F7FC01EE0F1C
:1052E000FF1FE80FF91FE259FA4F40E050E080E05D
:1052F000219130E0062E02C0369527950A94E2F7F8
:1053000021703327042E01C0220F0A94EAF7822B62
:105310004F5F5F4F4330510559F7089580E008957E
:10532000292F9E3088F5863078F590E036E0239F6F
:10533000800D911D1124282F277051E001C0550FB9
:105340002A95EAF723E0969587952A95E1F7FC01DF
:10535000EE0FFF1FE80FF91FE259FA4F20E030E08F
:1053600070E04081CB01022E02C0969587950A9489
:10537000E2F78170819584278523842781932F5FAD
:105380003F4F2330310569F708950E9441248093EF
:1053900068050E941329089521E030E001C0220F22
:1053A0008A95EAF720958091680582230E94C52995
:1053B000089521E030E001C0220F8A95EAF780913C
:1053C0006805822B0E94C52908958093B5030E9429
:1053D00013290895CF93FC01808191812381348129
:1053E000232B31F09F3F31F491E08F3F19F403C03C
:1053F00091E001C090E0C92FC17090FD1CC0808178
:1054000091810E944F2992959F70963079F010F407
:10541000925001C09A50923088F4803F71F018F495
:10542000883E60F40AC0843F49F407C0883E28F0F3
:10543000813F21F402C0C0E001C0C1E08C2FCF91B8
:10544000089580911A01882331F080915D0587FFCE
:1054500002C08EE101C086E0ECE3F3E0DF011D92C3
:105460008A95E9F70E9413290895882321F00E9464
:10547000BA160E94C1160895882339F09091BC0392
:10548000892B8093BC030E94C1160895882349F19B
:10549000682F8CEF860F813A28F48AE393E00E940C
:1054A0006A220CC080E2860F883058F4677081E071
:1054B00001C0880F6A95EAF70E94BA160E94C116C9
:1054C00008958BE5860F833028F480E090E00E94F9
:1054D000A8220895685A673120F480E090E00E9485
:1054E00092220895CF93882309F49AC0C82F8CEF95
:1054F0008C0F813A08F05EC080911A018823E1F098
:1055000080915D0587FF18C0EC2FE695E695E6953E
:10551000F0E0E65CFC4F8281282F30E04C2F477092
:1055200081E090E002C0880F991F4A95E2F782233C
:105530009323892B59F411C0ECE3F3E08191C81750
:1055400029F083E0E234F807C9F707C06C2F8AE33B
:1055500093E00E946A220E94C11680911A0188235A
:10556000C9F080915D0587FF15C0AC2FA695A69563
:10557000A695B0E0A65CBC4FC77081E090E001C08A
:10558000880FCA95EAF712969C911297892B12966A
:105590008C9320C0ACE3B3E0EFEF80E09D91C9179E
:1055A000C9F0EF3F19F4911101C0E82F8F5F8630E9
:1055B000A9F72DC080E28C0F883078F4C77081E0A5
:1055C00090E001C0880FCA95EAF79091BC03892B3F
:1055D0008093BC030E94C11623C0EBE5EC0FE330BF
:1055E00040F4F0E0E45DFE4F808190E00E94A8224C
:1055F00017C0C85AC731A0F4EC2FF0E0EE0FFF1F20
:10560000E15DFE4F808191810E94922209C0EF3FAF
:1056100009F30E2E000CFF0BE65CFC4FC283DACFC1
:10562000CF9108951092B9008CE08093B80008954E
:10563000A0E0B0E0EEE1FBE20C941E2CB82EEB01F2
:105640000E9435226C01C431D10558F0CF3F8FEF55
:10565000D80759F0CE0164E170E00E94032C7B0171
:1056600007C0EE24E394F12C03C025E0E22EF12CD8
:1056700084E8A82E94EA992E1092BC009092BC0067
:105680000E9435228C018091BC0087FD07C0C801B3
:105690000E941A22E816F906B0F729C08091B900D5
:1056A000887F883041F08091B900887F803119F07F
:1056B0000FEF1FEF1EC0B092BB00A092BC000E9473
:1056C00035228C018091BC0087FD07C0C8010E9473
:1056D0001A22E816F906B0F70AC08091B900887F4F
:1056E000883111F0803421F700E010E00EC00EEF99
:1056F0001FEFCF3F8FEFD80709F4BECFC6010E943E
:105700001A22C817D90708F0B7CFC801CDB7DEB73E
:10571000EBE00C943A2C0F931F93CF93DF93EB01A4
:105720008093BB0084E88093BC000E9435228C01EA
:105730008091BC0087FD0DC0CF3F8FEFD807C1F32C
:10574000C8010E941A22C817D90790F78EEF9FEF61
:105750000CC02091B900287F81E090E0283211F43C
:1057600080E090E0919581959109DF91CF911F9113
:105770000F9108950F931F93CF93DF93EC0184E86B
:105780008093BC000E9435228C018091BC0087FD73
:105790000DC0CF3F8FEFD807C1F3C8010E941A2276
:1057A000C817D90790F78EEF9FEF03C08091BB0019
:1057B00090E0DF91CF911F910F910895A0E0B0E0AC
:1057C000E4EEFBE20C94212C6B018A017901B90112
:1057D0000E94182BE6010C0D1D1DC017D10741F4C6
:1057E00024E92093BC00CDB7DEB7E8E00C943D2C53
:1057F00097FDF6CFB70189910E948B2BEECF84E9FC
:105800008093BC000895AA1BBB1B51E107C0AA1FCF
:10581000BB1FA617B70710F0A61BB70B881F991F51
:105820005A95A9F780959095BC01CD0108952F92C6
:105830003F924F925F926F927F928F929F92AF9220
:10584000BF92CF92DF92EF92FF920F931F93CF936D
:10585000DF93CDB7DEB7CA1BDB0B0FB6F894DEBF04
:105860000FBECDBF09942A88398848885F846E842A
:105870007D848C849B84AA84B984C884DF80EE8074
:10588000FD800C811B81AA81B981CE0FD11D0FB67D
:10589000F894DEBF0FBECDBFED0108958F929F92A9
:1058A000AF92BF92CF92DF92EF92FF92CF93DF93AE
:1058B000EC01688179818A819B816115710581057F
:1058C000910521F464E279ED8BE597E02DE133EF6A
:1058D00041E050E00E940B2D49015A019B01AC01AF
:1058E000A7EAB1E40E942A2D6B017C01ACEEB4EF73
:1058F000A50194010E94382DDC01CB018C0D9D1D6A
:10590000AE1DBF1DB7FF03C00197A109B048888332
:105910009983AA83BB839F77DF91CF91FF90EF900C
:10592000DF90CF90BF90AF909F908F9008950E948E
:105930004E2C089580E091E00E944E2C0895A0E046
:10594000B0E08093000190930101A0930201B09315
:1059500003010895FB01DC0102C005900D92415046
:105960005040D8F70895DC01CB01FC01F999FECF36
:1059700006C0F2BDE1BDF89A319600B40D924150D7
:105980005040B8F70895F999FECF92BD81BDF89ABD
:10599000992780B50895A6E1B0E044E050E00C946A
:1059A000B52CA8E1B0E042E050E00C94B52CDC014D
:1059B000A40FB51F4150504048F0CB01840F951FF4
:1059C0002E910E94E82C41505040D0F70895262F88
:1059D000F999FECF92BD81BDF89A019700B40216E5
:1059E00039F01FBA20BD0FB6F894FA9AF99A0FBE93
:1059F00008950396272F0E94E82C0E94E72C252F5C
:105A00000E94E82C242F0C94E82C0196272F0E944A
:105A1000E82C0C94E72C052E97FB1EF400940E94B2
:105A2000222D57FD07D00E943D2D07FC03D04EF4D8
:105A30000C94222D50954095309521953F4F4F4F16
:105A40005F4F089590958095709561957F4F8F4F2A
:105A50009F4F08950E945F2DA59F900DB49F900DBC
:105A6000A49F800D911D11240895B7FF0C942A2D39
:105A70000E942A2D821B930B0895A1E21A2EAA1BC5
:105A8000BB1BFD010DC0AA1FBB1FEE1FFF1FA217EE
:105A9000B307E407F50720F0A21BB30BE40BF50BEB
:105AA000661F771F881F991F1A9469F76095709574
:105AB000809590959B01AC01BD01CF010895A29FF7
:105AC000B001B39FC001A39F700D811D1124911DD2
:105AD000B29F700D811D1124911D08950E94822D89
