:100000000C94F4030C9411040C9411040C9411043A
:100010000C9411040C9411040C9411040C9411040C
:100020000C9411040C9411040C9414140C94561395
:100030000C9467200C9411040C9411040C9411047A
:100040000C9411040C9411040C9411040C941104DC
:100050000C9411040C941E150C9411040C941104AE
:100060000C9411040C9411040C9411040C941104BC
:100070000C9411040C9411040C9411040C941104AC
:100080000C9411040C9411040C9411040C9411049C
:100090000C9411040C9411040C9411040C9411048C
:1000A0000C9411040C9411040C941104CF06CF0687
:1000B000010701076B071109110911098707650875
:1000C000760876086E1195113E1395113E13E111D5
:1000D00004123E13F91209135D2362236C2360237B
:1000E00065236A23682318251B251E252125242521
:1000F00027252A2529002B003500E10001000000FA
:100100001E00140004001D000100E0001F001A0082
:1001100016001B000100E300200008000700060095
:1001200001002A002100150009001900E200010069
:10013000220017000A0005000000230201002F0022
:1001400000003E00000001000100300000002E0011
:100150000000010023001C000B0011000000210220
:10016000240018000D0010006574010026000C002A
:100170000E00360001002C00260012000F00370090
:100180000100280027001300330038000100E400BC
:100190002D0031003400E5000100000000000000E7
:1001A000000000000000000000000000000000004F
:1001B000000001000000000000000000000001003D
:1001C0003A003B003C003D0000004C003E003F0078
:1001D000400041000000010042004300440045008F
:1001E000000001000000000000000000000001000D
:1001F00000000000000000000000B200000000004D
:1002000000000000000001000000240021001E008A
:10021000000001003800250022001F0037002700E1
:100220002502260023002000370001002D002E02A9
:100230002E02380000000100000000000000000055
:1002400000000000010001000100010001000000A9
:100250000100010001000100010001000100010096
:100260000100010001000100010001000100010086
:100270000100010001000100010001000100010076
:10028000010001000100010000004A00010001001E
:100290000000010000000100460001000000010014
:1002A00000000100010001005000010000004D00AD
:1002B00001000100510001000100010001000100E6
:1002C00052000100010001002F0001004F00010059
:1002D00001000100300001000100010001000100E7
:1002E0002E00010001000100C35C0000050109802F
:1002F000A101850319012AB700150126B700950150
:1003000075108100C0050C0901A101850419012A9D
:10031000A002150126A002950175108100C00501FB
:100320000906A1018506050719E029E71500250141
:100330009508750181020507190029EF15002501AF
:1003400095F07501810205081901290595057501CA
:100350009102950175039101C00660FF0961A10139
:100360000962150026FF00952075088102096315B2
:100370000026FF00952075089102C005010906A11D
:1003800001050719E029E715002501950875018188
:10039000029501750881010507190029FF1500263E
:1003A000FF009506750881000508190129059505C6
:1003B00075019102950175039101C009025B00036B
:1003C0000100A0FA09040000010301010009211144
:1003D0000100012240000705810308000109040112
:1003E0000002030000000921110100012222000780
:1003F0000582032000010705030320000109040210
:10040000000103000000092111010001226D000715
:100410000584032000011201000200000008973249
:1004200076490100010200012003450072006700C7
:100430006F0044006F007800200045005A00200043
:1004400047006C006F007700000028035A0053003B
:100450004100200054006500630068006E006F00DA
:100460006C006F006700790020004C0061006200A2
:1004700073000000040309040001010101010101EE
:100480000101020202020202020202030303030349
:100490000303030404040404040405050505050618
:1004A00006060606070707070708080808090909D6
:1004B000090A0A0A0B0B0B0C0C0C0D0D0D0E0E0E7F
:1004C0000F0F0F1010111111121213131414151510
:1004D00016161717181819191A1A1B1B1C1D1D1E82
:1004E0001E1F2020212222232424252626272829D6
:1004F000292A2B2C2D2D2E2F303132323334353604
:100500003738393A3B3C3D3E3F4041424344454603
:100510004748494A4C4D4E4F5051535455565859DF
:100520005A5B5D5E5F616264656668696B6C6D6F86
:100530007072737577787A7B7D7E808283858788F9
:100540008A8C8E8F91939596989A9C9EA0A2A3A533
:10055000A7A9ABADAFB1B3B5B7BABCBEC0C2C4C634
:10056000C9CBCDCFD1D4D6D8DBDDDFE2E4E7E9EBF0
:10057000EEF0F3F5F8FAFDFF00443454007464849F
:100580000055456500857595003626460066567609
:10059000009686A6003727470077678700382848E7
:1005A000008878980039294900695979009989A902
:1005B000003A2A4A006A5A7A003B2B4B006B5B7B5D
:1005C000004C3C5C007C6C8C005D4D6D008D7D9D15
:1005D000003E2E4E006E5E7E0144345401746484ED
:1005E00001554565018575950136264601665676A5
:1005F000019686A601372747017767870138284883
:10060000018878980139294901695979019989A99D
:10061000013A2A4A016A5A7A013B2B4B016B5B7BF8
:10062000014C3C5C017C6C8C015D4D6D018D7D9DB0
:10063000013E2E4E016E5E7E0000000000000000B4
:1006400000000000000000000000000000000000AA
:10065000000000000000000000000000000000009A
:10066000000000000000000000000000000000008A
:10067000000000000000000000000000000000007A
:10068000000000000000000000000000000000006A
:10069000000000000000000000000000000000005A
:1006A000000000000000000000000000000000004A
:1006B000000000000000000000000000000000003A
:1006C000000000000000000000000000000055CB0A
:1006D0009E55CB9E55CB9E00000055CB9E55CB9E84
:1006E00055CB9E55CB9E00000055CB9E55CB9E55BD
:1006F000CB9E55CB9E00000055CB9E55CB9E55CB37
:100700009E55CB9E00000055CB9E55CB9E00000011
:10071000E6A6EAE6A6EAE6A6EA000000E6A6EAE61B
:10072000A6EAE6A6EAE6A6EA000000000000E6A6C1
:10073000EAE6A6EAE6A6EA000000000000E6A6EA6D
:10074000E6A6EAE6A6EA00000000000000000000BD
:100750000000000000000000000000000000000099
:1007600000B58899B58899000000B5889900000007
:10077000000000000000B58899B58899B58899B542
:100780008899000000000000000000000000000048
:100790000000000000000000000000000000000059
:1007A0000000000000000000000000000000000049
:1007B0000000000000000000B58899000000000063
:1007C00000B58899B58899B58899000000B58899D1
:1007D000000000000000B588990000000000000043
:1007E000000000000000000011241FBECFEFDAE07F
:1007F000DEBFCDBF12E0A0E0B1E0EEE3FEE502C057
:1008000005900D92AA35B107D9F725E0AAE5B2E027
:1008100001C01D92A031B207E1F70E94471B0C9462
:100820001D2F0C940000A5E2B0E0E9E1F4E00C9487
:10083000E82AFC018081918123813481232B31F0CE
:100840009F3F31F491E08F3F19F403C091E001C064
:1008500090E090FD13C57F0185E0DE019196019047
:100860000D928A95E1F7D70112962C9189A19AA150
:10087000222349F00E948E25182F682F89A19AA162
:100880000E940C2603C00E94D725182F69A17AA1C7
:10089000812F0E9487098C0190910205F7018281C6
:1008A000992309F44DC081111BC2E0915C02E33031
:1008B000A0F481E08E0F80935C02F0E0EE0FFF1F4A
:1008C000E65BFC4FD7018D919C919183808382E000
:1008D0008983CE0101960E942C28BFEFE3EDF0E35F
:1008E000B150E040F040E1F700C0000080915C02B0
:1008F000833009F0F5C110925C02E0E5F3E0AAE470
:10090000B3E086E593E0318111962C911197321373
:100910002EC030812C9132132AC0329612968E1737
:100920009F0789F784E0898381E0809303058EEF38
:100930008A8310920205CE0101960E942C28D0C114
:10094000909103059923C1F0882311F086E001C03E
:1009500087E08983D7018C918A8311968C918B8350
:100960008EEF8C83CE0101960E942C2805C083E077
:10097000898310920305DBCFD70112968C910F3A31
:10098000BDE51B0709F040C0882309F444C09091DD
:100990005E0381E0890F8770987F853020F4892B72
:1009A00080935E0302C090935E0380915E03877024
:1009B000BFEF8B9FC00111249595879595958795DD
:1009C0009927909389008093880090938B0080935F
:1009D0008A0090938D0080938C0040915E0350912B
:1009E0005F0360916003709161038FE090E00E946B
:1009F000C42B60915A0370915B0380915C039091CA
:100A00005D030E944323F7C0003BEDE51E0709F09C
:100A10009AC08111AAC08091EE0282720B3CFCE563
:100A20001F0709F47FC0B0F5063C3CE5130709F445
:100A300065C0D0F4043CACE51A0709F455C008F0D1
:100A400058C0033CECE51E0709F05DC19091060516
:100A500081E089278093060510921E01809105058B
:100A60008160809305053CC1083CFCE51F0709F443
:100A70004FC008F448C0093C3CE5130709F44DC0D9
:100A80000A3C9CE5190709F03EC14AE050E267E1E3
:100A900070E256C0003DACE51A0709F462C098F454
:100AA0000D3CECE51E0709F447C008F440C00E3CBD
:100AB0002CE5120709F453C00F3C3CE5130709F07D
:100AC00022C185E04FC0073D8CE5180738F4023D90
:100AD0009CE5190708F004C181E144C00F35ADE57C
:100AE0001A0709F4FDC00FC142E550E26CE570E25F
:100AF00027C04CE550E262E570E222C04EE350E2CE
:100B000068E470E21DC048E450E26EE370E218C091
:100B100044E250E261E370E213C041E350E264E278
:100B200070E20EC047E150E26AE070E209C044E2C0
:100B30005EE162E37EE104C042E35EE164E27EE105
:100B40000E941021CDC0033CFCE51F0769F1013B69
:100B5000EDE51E0709F04FC0882309F4C1C081E00C
:100B600001C08CE00E94E927BBC080915E0383FB3B
:100B7000222720F991E0922790FB83F980935E036E
:100B8000992329F040E060E080E00E945A174091EC
:100B90005E0350915F0360916003709161038FE089
:100BA00090E00E94C42B27C0882309F499C090913B
:100BB0000B0580915E039F3F59F410920B058F7EC9
:100BC00080935E0340E060E080E00E945A1706C018
:100BD0009FEF90930B05806180935E0340915E03CD
:100BE00050915F0360916003709161038FE090E02A
:100BF0000E94C42B75C0D70112968C91882309F4EA
:100C00000ACF0C35BDE51B0709F464C060F401157B
:100C1000FCE51F07A9F00F3D2CE5120709F073C092
:100C20000E94290B4CC00E353DE5130709F44AC05C
:100C300008F452C0093A9DE5190709F440C063C0A1
:100C40001092EE020E94F826AFEFB4E3ECE0A15060
:100C5000B040E040E1F700C00000F89481E08093EC
:100C6000E00080E28093D8001092C9008FE19EE4FA
:100C70000197F1F700C000001DBA109268001CBC7B
:100C800010BE1FBA10927A0010926E0010926F0080
:100C900010927100109272001092C9001092BC0064
:100CA00014B817B81AB81DB810BA1092BC0015B80D
:100CB00018B81BB81EB811BA0C94003F11C00E949E
:100CC0002B230EC08091E90282FB882780F991E0F6
:100CD000892703C081E001C080E00E94250C13C079
:100CE0008091B502877009F4C9C2D70112968C9120
:100CF000882309F4C3C28091E90282FFBFC282E067
:100D00000E94080CBBC2F7018281008111818823F7
:100D100049F0C8010E948E25D82E682FC8010E9474
:100D20000C2604C0C8010E94D725D82EB8018D2DED
:100D30000E9487090E94A0098C01982EF701D28099
:100D4000A580A2949FE0A9228091B5028770B9F096
:100D5000DD20A9F0812F807F803421F080E2800F98
:100D6000883068F08091E90282FF09C082E00E9429
:100D7000080C8091B5028770CC24C3948111C12CDA
:100D8000B12EB2948FE0B8228B2D90E08C3091057B
:100D900008F047C2FC01EA5AFF4F0C94E92D812F5D
:100DA000807F1F70882311F01295107FDD20B9F02D
:100DB000112309F423C280E2800F883010F09110D3
:100DC00006C08091EE02182B1093EE0205C08091B0
:100DD000D602182B1093D6020E94B30B0FC2802F9D
:100DE0000E941D27112309F41CC2005E083078F10F
:100DF000992069F110958091D60218231093D6029C
:100E000029C0812F807F1F70803211F01295107FD2
:100E1000992021F0F1E09F16D9F147C08091E902B5
:100E200082FD1BC0DD2069F0112339F08091EE02B4
:100E3000182B1093EE020E94B30B80E00E9449270A
:100E4000F0C180E00E941D27112309F4EAC1812F1F
:100E50000E94AC0B0E94B30BE4C1DD2081F08091B5
:100E6000D702AA2051F001E0A01207C0182B1817D2
:100E700009F4D7C11093D702D4C1812B10C0AA2086
:100E800021F021E0A21609F4CCC10E94A60B1FC0DC
:100E9000DD2041F031E03A1508F4C3C1812F0E94F2
:100EA0001327BFC1A110BDC112C0DD2019F0AA20B7
:100EB000A9F3A4C1AA2059F0093309F0AFC18FEFFB
:100EC00097EEA3E081509040A040E1F7A5C1812FAB
:100ED0000E940C27A6C1812F86958695837019F0F4
:100EE000813059F09EC1DD2019F0C801937002C015
:100EF00080E090E00E94CE209AC1DD2019F0C80168
:100F0000937002C080E090E00E94B82090C1812FD1
:100F1000837009F069C0D11088C1902F9295969581
:100F20009770990F990F802F8F70882E912CA12C7C
:100F3000B12C092E04C0880C991CAA1CBB1C0A9455
:100F4000D2F704FF12C04FE050E060E070E004C050
:100F5000440F551F661F771F9A95D2F7DB01CA0110
:100F600080959095A095B09503C080E090E0DC015D
:100F700016951695412F4370423019F1C8F400912F
:100F8000D8021091D9022091DA023091DB0241306F
:100F900059F088299929AA29BB29BC01CD016023D0
:100FA0007123822393230AC0802A912AA22AB32A7A
:100FB000BC01CD01682979298A299B290E94CD2667
:100FC00034C188299929AA29BB290091D8021091F6
:100FD000D9022091DA023091DB02BC01CD016027F9
:100FE000712782279327EACFDD2019F0812F8170A6
:100FF00001C08695882309F418C1902F9295969583
:101000009770990F990F802F8F70882E912CA12C9B
:10101000B12C092E04C0880C991CAA1CBB1C0A9474
:10102000D2F704FF12C04FE050E060E070E004C06F
:10103000440F551F661F771F9A95D2F7DB01CA012F
:1010400080959095A095B09503C080E090E0DC017C
:1010500016951695412F43704230D9F068F50091EE
:101060005A0310915B0320915C0330915D03413082
:1010700059F088299929AA29BB29BC01CD016023EF
:101080007123822393231EC0802A912AA22AB32A85
:1010900013C088299929AA29BB2900915A031091C4
:1010A0005B0320915C0330915D03BC01CD0160279F
:1010B00071278227932706C0BC01CD0168297929B1
:1010C0008A299B290E944226B0C01F70DD2039F07A
:1010D000812F0E94AB26802F0E941327A6C0802F4D
:1010E0000E940C27812F0E9485269FC0802FB2EF7F
:1010F0009B1609F441C0B91538F0E0EF9E1659F07F
:10110000F1EF9F16A1F175C023EF9216E1F134EFD4
:10111000931649F16EC0DD2009F1A11082C01F7144
:1011200081E090E0A0E0B0E0AC01BD0104C0440F5C
:10113000551F661F771F1A95D2F780915A03909119
:101140005B03A0915C03B0915D038A019B010827BA
:1011500019272A273B27C901B80129C021E02A15F0
:1011600008F45FC0DCCF8091E90282FD23C0DD205E
:1011700029F0812F8F7130C0DD20D9F3812F8F713D
:101180000E9485264EC0DD2079F01F7181E090E03D
:10119000A0E0B0E0BC01CD0104C0660F771F881F3E
:1011A000991F1A95D2F703C060E070E0CB010E944E
:1011B000422637C0DD2099F01F71812F0E94AB2697
:1011C0008091E90282FF07C038E0139FC00111241B
:1011D00083608093B502812F0E94AB2622C081E0FC
:1011E0000E94080C81E08A15E0F482E00E94080C5D
:1011F00018C0DD2029F0AA2009F4BBCF802F1ECE15
:10120000AA2009F4BBCF893349F49FEFA7EEB3E0DE
:101210009150A040B040E1F700C00000802F0E9434
:101220001D2788EF8B0D843010F40E94E420CC2021
:10123000A9F08091B50280FD11C0F7011282859559
:10124000859585950E94AB26C7010E941304809165
:10125000B5028595859585950E94852685E0F701DF
:10126000DE01119601900D928A95E1F709811A81AC
:10127000C8010E94D725B8010E948709A596ECE015
:101280000C94042B80E008959091E80292FF0DC029
:10129000282F2871283019F4877F846006C0282FF2
:1012A0002471243011F48B7F886093FF0DC0282FA8
:1012B0002871283119F4877E846106C0282F247193
:1012C000243111F48B7E88612091E90220FF0DC04A
:1012D000382F3871383019F4877F816006C0382F75
:1012E0003171313011F48E7F886021FF0DC0282FBD
:1012F0002871283119F4877E816106C0282F217159
:10130000213111F48E7E886194FD877E08957E30B0
:10131000A0F4663090F494E5899FF001112486E0F2
:10132000789FE00DF11D1124E60FF11DEE0FFF1F58
:10133000EC50FF4F85919491089580E090E00895DE
:10134000CF93DF938238910569F1B0F48133910531
:1013500009F46FC048F48932910509F465C08A32F6
:10136000910509F46BC08AC08533910509F457C013
:1013700089339105B9F082C0833E910571F138F44B
:10138000803E9105B1F0823E910511F177C0863E15
:101390009105B9F1873E9105C9F1843E910509F0A7
:1013A0006DC024C02091E80220FD53C021FD51C032
:1013B00065C08091E80280FD46C08091E90280FF0F
:1013C00048C08091E80284FD3FC183EE90E03EC1B9
:1013D0008091E80282FF3AC0F4CF8091E80282FD5A
:1013E00035C08091E90280FD34C0EBCF8091E902E5
:1013F00081FF35C08091E80284FD26C187EE90E030
:1014000025C18091E80283FF27C0F4CF8091E802D4
:1014100083FD22C08091E90281FD21C0EBCF809144
:10142000E80285FD1FC021C08091E80285FD1DC036
:1014300019C08091E80286FD1BC01DC08091E802A2
:1014400086FD19C015C089E390E000C182EE90E0EE
:10145000FDC080EE90E0FAC086EE90E0F7C084EE2A
:1014600090E0F4C089E290E0F1C085E390E0EEC046
:101470008AE290E0EBC081E390E0E8C0811532E5BC
:10148000930708F069C0811541E5940728F0982F6B
:101490008827816F906ADAC0883E910568F5803EA2
:1014A000910508F0D3C0883A9105B8F4853A9105C2
:1014B00048F0855AE82FF0E0EE5DFE4F808190E025
:1014C0009064C4C08130910509F4BBC008F4BCC06D
:1014D0008430910508F4B8C0B9C08F3B910508F07D
:1014E000B3C0885AE82FF0E0EE0FFF1FEB5DFE4F10
:1014F000808191819464AAC0811520E59207F0F063
:101500009C0174E0369527957A95E1F7922F9370B8
:10151000482F437021E030E002C0220F331F4A956C
:10152000E2F73C68392B8F70982F9695969540E29C
:10153000949FC0011124822B932B88C0811530E425
:10154000930718F09F70906A81C09C013A9521150D
:101550003F4108F47BC078C0EC01C11586E5D8078F
:10156000E8F5C11525E5D20748F08C2F0E94440903
:101570008F7190E0982F8827906268C0C11534E57C
:10158000D30728F09C2F8827846F906A5FC0AE0134
:10159000437055272C2F26952695C115D34578F4F1
:1015A00081E090E002C0880F991F4A95E2F740E27F
:1015B000249F90011124822B932B9C6847C081E0CB
:1015C00090E002C0880F991F4A95E2F740E2249FFD
:1015D00090011124822B932B9A6838C0C1152AE5FB
:1015E000D207F8F4C11539E5D30790F08C2F8F702E
:1015F0000E94440994E0D695C7959A95E1F7CF707B
:10160000D0E0DC2FCC27D0699E01282BC9011EC059
:10161000C11548E5D407C0F09C2F8827806F906AD9
:1016200015C0CE0190568115904270F48D2F8F71A8
:101630000E944409282F2F71CE0199279062922B86
:1016400005C081E090E002C080E090E0DF91CF91A2
:10165000089568EE7EEF80E090E00E94D02B60E07D
:1016600082E090E00E94B22B60E083E090E00E9474
:10167000B22B1092D8021092D9021092DA02109274
:10168000DB0260E084E090E00E94B22B64E082E242
:1016900090E00E94B22B60E085E090E00E94B22BC7
:1016A00060E086E090E00E94B22B6FEF87E090E070
:1016B0000E94B22B40E050E0BA0188E090E00E9426
:1016C000C42B60E08DE090E00E94B22B40E050E03F
:1016D000BA0188E190E00E94C42B60E087E190E0CD
:1016E0000E94B22B40E050E0BA018CE190E00E94F1
:1016F000C42B60E070E080E290E00E94D02B40E0DC
:1017000050E0BA0188E190E00E94C42B10925E0381
:1017100010925F03109260031092610384E0806175
:1017200080935E0340915E0350915F03609160037C
:10173000709161038FE090E00E94C42B40E050E084
:10174000BA0183E190E00E94C42B08958091D702F2
:1017500081111092D702089580959091EE0289230D
:101760008093EE0208959091EE028091D602982B1C
:1017700090935D028091D7028823D9F0892B8093C2
:101780005D0280910A01882331F08091E80287FF91
:1017900002C08EE101C086E0EFE5F2E090E081500A
:1017A00028F021912223D9F39F5FF9CF91110E9454
:1017B000A60B40E250E066EB72E08DE592E00E94FD
:1017C000102F892B21F180E2EDE5F2E0A6EBB2E0EB
:1017D00001900D928A95E1F7E091C104F091C20465
:1017E0003097A9F080910A01882359F08091E8028E
:1017F00087FF07C080915D0280935E0286E0809340
:101800005D020280F381E02D8DE592E00995089557
:101810002091B502809582238093B502982F97700E
:1018200099F430E0482F082E000C550B241735078B
:1018300059F09091E90292FF07C0859585958595AD
:101840000E9485261092B5020895CF93C091E902B7
:10185000C2FB992790F9981791F080FBC2F9C093C9
:10186000E9026091E80284E090E00E94B22B6C2FC4
:1018700082E290E00E94B22B82E00E94080CCF919D
:1018800008958091B40290918302891719F08F5FB7
:101890008770FBCF08950F931F93CF93DF938091B1
:1018A000820282958F7009F05AC080917F0288234E
:1018B00009F455C08091B4021091830260917D02B9
:1018C00070917E02C0918002D091810291E06F3FC1
:1018D00009F090E0292F06E0811709F440C0209715
:1018E00021F07F3F21F030E003C031E001C0322F12
:1018F00090E030FD31C0089FF001099FF00D1124E8
:10190000DF01AC57BD4F11963C911197371324C09E
:101910003C91361321C012963C91129731111CC094
:1019200013964D915C9114974C1B5D0B483C5105EF
:1019300098F4809182028F70806180938202E757D1
:10194000FD4F80818F70806180838DE792E00E94DF
:1019500013040E94410C03C001968770BDCFDF9134
:10196000CF911F910F910895A1E1B0E0EAEBFCE067
:101970000C94E92A8C0185E0F801DE011D960190A6
:101980000D928A95E1F7F801E28090917D026091D5
:101990007E0240918002509181024115510531F043
:1019A0006F3F31F481E09F3F19F403C081E001C033
:1019B00080E0F82FF1709F2E80FD1BC1F80130816F
:1019C0002181C380D4808DE7A82E82E0B82EF090CC
:1019D0007F02F601E41BF50BFF2009F4C7C08091DC
:1019E0008202E83CF10508F092C0482F407F09F0E0
:1019F00051C0621311C093130FC0FE2CE1100CC034
:101A00008F70806180938202C5010E9413048091CF
:101A10008202F80185832AC1C114D10431F02F3F1D
:101A200031F481E03F3F19F403C081E001C080E060
:101A300080FD03C081E08E2502C080E090E0F82F99
:101A4000F170FF2E80FF1CC08091B4024091830290
:101A500056E0841709F4E8C090E0589FF001599FC0
:101A6000F00D1124EC57FD4F6181261306C06081F3
:101A7000631303C06281E61203C001968770E9CF49
:101A8000FE2CEE2009F4F2C08091820281608093E6
:101A9000820249C0621306C0931304C0E11002C061
:101AA000F80186C0C8010E94D826882351F1EE2093
:101AB00041F120918202822F82958F7090E00297EF
:101AC00074F080917D0290917E0298878F831986B1
:101AD000DB86CA862C87CE0107960E94130486E017
:101AE000F801ADE7B2E001900D928A95E1F70E940E
:101AF0004B0C0AC06217C9F0C8010E94D826811198
:101B00001EC0C8010E941304FF24F394AFC0482FE5
:101B1000407F81F78DE792E00E94130486E0F50193
:101B200011928A95E9F7F12CA1C09313E5CFE1104A
:101B3000E3CFF8018583C8010E94130454C0EE204E
:101B400001F320918202822F82958F7090E002979C
:101B500034F280917D0290917E029A8389831B8268
:101B6000DD82CC822E83CE010196B7CFE83CF10511
:101B7000D0F5FE2CEE2029F2621327C0931325C066
:101B80002091820220FD18C0822F82958F70482FED
:101B900050E04115510581F0F80125834F30510582
:101BA00041F08F5F982F9295907F822F8F70892BB5
:101BB0008583C8010E94130486E0F801ADE7B2E016
:101BC00001900D928A95E1F751C0C8010E94D82674
:101BD000811185CF80918202816080938202C80149
:101BE0000E94130443C086E0F50111928A95E9F73B
:101BF0003DC0EE2009F485CFC8010E94D826F82EFA
:101C0000882309F47ECF86E0F801ADE7B2E00190C9
:101C10000D928A95E1F780917D0290917E020E945B
:101C2000CA250E944B0C22C03D872E878D859E853C
:101C30000E94CA25292F22952F70223028F49F70E8
:101C400039F0811105C00BC0243028F49F7049F48D
:101C5000805E883020F0C8010E9413049F2CF92C6C
:101C600005C0F8019581907F99F7F9CF8F2D619686
:101C7000EBE00C94052BA0E0B0E0E1E4FEE00C9476
:101C8000EB2A8091170190911801892BA1F0809186
:101C9000DC028F5F8093DC0281110DC00E94F32370
:101CA00090E09093180180931701892B21F40E94F2
:101CB0006A240E9483210EE113E07801B12CC0E078
:101CC00087E0C82ECC0E8C2F0E94DA248C2D0E9427
:101CD000DA248C2F0E943D258F73F701908189179C
:101CE00021F08083DD24D39401C0D12C8C2D0E945F
:101CF0003D258F73F7019781891719F0878381E05C
:101D000001C080E0D82ABD280E942E25CF5FFFEFBA
:101D1000EF1AFF0AC730A1F6C091E002CC23C9F147
:101D20000E9453152091DE023091DF02AC01421B6C
:101D3000530B9A019093DF028093DE024F3F5105CF
:101D400009F020F4452B09F4AEC002C02FEF30E0BB
:101D50001092E0021092DD02E0911C03F0911D034D
:101D6000AF01425F5F4F90E030E08081882341F017
:101D7000281718F010829C2F03C0821B80833C2FF1
:101D80003196E417F50789F73093E0029093DD026E
:101D90008AC0BB2009F47EC00E9453159093DF02D5
:101DA0008093DE02E0911C03F0911D038091E0021C
:101DB000ACE2B3E09F01225F3F4F4EE1E801999111
:101DC0008E015C91591731F05081511103C040834D
:101DD0009C9381E031961196E217F30779F780938F
:101DE000E002209102058091E2029091E302222319
:101DF00009F43FC0892B31F425982D9826982E9808
:101E000027982F988091E2029091E3029170892B9C
:101E100079F48091E102882319F026982E9802C067
:101E2000269A2E9A9091E10281E089278093E1021F
:101E30008091E2029091E3028130984780F0109205
:101E4000020560915A0370915B0380915C0390914D
:101E50005D030E9443231092E3021092E2028091FC
:101E6000E2029091E30201969093E3028093E202F2
:101E70001EC0892BE1F01092E3021092E202609101
:101E80005A0370915B0380915C0390915D030E9403
:101E900043230DC080E09091DD02992309F4A1CF86
:101EA000811180CF79CFB1107DCF81E0F4CF8B2D20
:101EB000CDB7DEB7E9E00C94072B8091140387FFC0
:101EC00011C08091E80082FD05C080910405811158
:101ED000F8CF11C08091E8008B770BC0809104058A
:101EE000882349F08091E80080FFF8CF8091E800D6
:101EF0008E778093E8000895982F973068F5909337
:101F0000E900981739F07091EC002091ED005091A4
:101F1000F00003C0242F762F50E021FD02C09F5F08
:101F2000ECCF3091EB003E7F3093EB003091ED0031
:101F30003D7F3093ED003091EB0031603093EB004A
:101F40007093EC002093ED005093F0002091EE0090
:101F500027FDE5CF80E008958F708093E90081E050
:101F6000089520911A0330911B032617370748F074
:101F70006115710539F42091E8002E772093E8006F
:101F800001C0B901FC0120E06115710579F1809172
:101F900004058823F1F18530F1F18091E80083FD9B
:101FA0003CC08091E80082FD2EC08091E80080FF57
:101FB000EBCF2091F3008091F20090E0922B61151D
:101FC000710551F08830910538F421912093F1008A
:101FD000615071090196F3CF21E0089709F020E0E4
:101FE0008091E8008E778093E800CECF2111CFCF8B
:101FF0000AC080910405882361F0853061F08091EA
:10200000E80083FD0AC08091E80082FFF2CF80E003
:10201000089582E0089583E0089581E00895089589
:1020200008958091F00208958093EA027093EC0283
:102030006093EB02809104058430F9F48093E90009
:102040008FEF9091E800815095FD06C095ED9A952F
:10205000F1F700008111F5CF8091E80085FF0DC0F8
:1020600040E050E063E070E08AEE92E00E940228D7
:102070008091E8008E778093E8000895BC0184E0A9
:102080000E9414100895BC0183E00E94141008956A
:10209000CF93DF9320910A01222339F02091E802A7
:1020A00027FF03C060E224E002C068E021E0209343
:1020B000E9002FEF3091E800215035FD06C035EDE5
:1020C0003A95F1F700002111F5CF2091E80025FFA6
:1020D0001DC0EC0180910A01811105C040E050E073
:1020E00068E070E003C070E040E050E0CE010E9484
:1020F00002288091E8008E778093E80080E2FE015C
:10210000A1EFB2E001900D928A95E1F7DF91CF91B6
:102110000895AAE2B0E0EFE8F0E10C94F12AE4E1DE
:10212000F3E08CE193E02091F10021938E179F075B
:10213000D1F780911503833009F463C030F4813006
:1021400071F0823009F49FC0B6C08A3009F48BC0A8
:102150008B3009F46EC0893009F0ADC020C0809189
:102160001403813A09F0A7C08091E800877F80932B
:10217000E8008091180390911903892B21F460E203
:1021800081EF92E003C060E080E090E070E00E94A8
:10219000B10F8091E8008B778093E8008CC080912C
:1021A0001403813209F087C08091180390911903BC
:1021B000009719F0029709F07EC08091E800877FB0
:1021C0008093E8008091E80082FD05C080910405BD
:1021D0008111F8CF70C02091F3008091F20090E05F
:1021E000922B029731F48091F100813011F086300A
:1021F00021F48091F1008093F0028091E8008B77C8
:1022000056C080911403813A09F055C0809118039B
:1022100090911903892B09F04EC08091E800877FC7
:102220008093E8008091E80080FFFCCF80910A0154
:1022300039C0809114038132F1F580911803909197
:102240001903892BC1F58091E800877F8093E8000E
:102250000E945D0F8091160380930A011092EE0296
:102260000E94F82628C080911403813221F58091C4
:10227000E800877F8093E8000E945D0F809117033C
:102280008093EF0218C080911403813AA1F48091E9
:10229000E800877F8093E8008091E80080FFFCCF12
:1022A0008091EF028093F1008091E8008E77809317
:1022B000E8000E945D0F8091E80083FFDFC18091FC
:1022C000140390911503492F50E04A30510508F04E
:1022D000D5C1FA01EE59FF4F0C94E92D803821F059
:1022E000823809F0CBC108C080911103909112038C
:1022F000992389F082600FC0809118038F70873016
:1023000008F0BCC18093E9008091EB0085FB882731
:1023100080F91092E9009091E800977F9093E8008F
:102320008093F1001092F10070C1282F2D7F09F0E9
:10233000A5C1882319F0823061F0A0C180911603F5
:10234000813009F09BC1933009F080E08093120343
:102350002EC08091160381112AC0809118038F70BE
:102360002FEF280F263008F089C18093E9002091D3
:10237000EB0020FF1CC0933021F48091EB008062C1
:1023800014C09091EB0090619093EB0021E030E05D
:10239000A90102C0440F551F8A95E2F74093EA0055
:1023A0001092EA008091EB0088608093EB0010921D
:1023B000E9008091E800877F8093E8000E945D0F2C
:1023C0005DC181115BC1109116031F778091E300FD
:1023D0008078812B8093E3008091E800877F809351
:1023E000E8000E945D0F8091E80080FFFCCF8091A3
:1023F000E30080688093E300111102C082E001C015
:1024000083E0809304053AC18058823008F036C1D9
:1024100020911603309117032C3D53E0350779F5D1
:1024200083E08A838AE289834FB7F894DE011396AA
:1024300020E03EE051E2E32FF0E050935700E491BA
:1024400020FF03C0E295EF703F5FEF708E2F90E0AA
:10245000EA3010F0C79601C0C0968D939D932F5F10
:10246000243149F74FBF8091E800877F8093E800CF
:102470006AE270E0CE0101960E94B10FB4C0809173
:10248000180390911903432F552743305105A9F0A4
:1024900068F44130510509F400C14230510509F09A
:1024A000EDC08BE590E0EBEBF3E04BC04132510522
:1024B00029F14232510589F1E1C0C90199278130E2
:1024C0009105A1F058F0029709F0D8C0E8E2F4E0D5
:1024D000E4918E2F90E0E8E2F4E030C0E4E7F4E02D
:1024E000E4918E2F90E0E4E7F4E028C0EAE4F4E021
:1024F000E4918E2F90E0EAE4F4E020C0833091056F
:1025000008F0BCC0880F991FFC01E45AFE4F0190EF
:10251000F081E02D89E090E014C08330910508F04F
:10252000ADC0FC01EE0FFF1FEA5AFE4F0190F08193
:10253000E02DDC01AD5ABE4F8C9190E0009709F47C
:102540009DC02091E800277F2093E80020911A0386
:1025500030911B032817390708F4C90140E00097A0
:1025600089F120910405222309F43DC02530D9F1D9
:102570002091E80023FD37C02091E80022FD2FC004
:102580002091E80020FFEBCF4091F3002091F20072
:1025900030E0342B009759F02830310540F4449155
:1025A0004093F100319601972F5F3F4FF3CF41E009
:1025B0002830310509F040E02091E8002E77209383
:1025C000E800CDCF4111CDCF0AC08091040588230A
:1025D00051F0853041F08091E80083FD04C0809186
:1025E000E80082FFF2CF8091E8008B778093E800CB
:1025F00045C0803809F042C08091E800877F809311
:10260000E800809113038093F1008091E8008E77B9
:10261000D3CE811133C0809116039091170399276F
:10262000029764F58091E800877F8093E80010911D
:102630001603109313030E945D0F111106C08091C1
:10264000E30087FD02C081E001C084E080930405BF
:1026500042E061EC81E00E947C0F42E261EC84E0A8
:102660000E947C0F42E261EC82E00E947C0F42E219
:1026700060EC83E00E947C0F809104058091E8006B
:1026800083FF10C08091E800877F8093E8008091ED
:10269000EB0080628093EB0005C082E190E0E6E110
:1026A000F4E04FCFAA96E3E00C940D2B1F920F920B
:1026B0000FB60F9211242F933F934F935F936F9315
:1026C0007F938F939F93AF93BF93CF93DF93EF93BA
:1026D000FF93C091E900CF708091EC00D82FD170AA
:1026E00080FDD0E81092E9008091F000877F809310
:1026F000F00078940E9489101092E9008091F00017
:1027000088608093F000CD2BCF70C093E900FF91DB
:10271000EF91DF91CF91BF91AF919F918F917F9179
:102720006F915F914F913F912F910F900FBE0F903E
:102730001F901895E8EDF0E080818E7F80831092E5
:10274000E2001092DA001092E100A0EEB0E08C916D
:1027500081608C9380818F77808319BCA7EDB0E076
:102760008C918E7F8C9380818F7E80831092ED027E
:102770000895A0E0B0E0EFEBF3E10C94EC2AC8ED93
:10278000D0E088818F7E8883E7EDF0E080818160F2
:10279000808384E082BF81E08093ED0288818E7F18
:1027A000888302EE10E0F80110821092DA0081EEC8
:1027B000C82ED12CF601108288818F77888388817A
:1027C0008068888388818F7D888319BC1092040576
:1027D00010921303109212031092110390EEE92E3F
:1027E000F12CF70180818B7F8083888181608883D1
:1027F00042E060E080E00E947C0FF60180818E7FE5
:102800008083F801808181608083808188608083FB
:10281000F70180818E7F8083888180618883CDB736
:10282000DEB7E8E00C94082B1F920F920FB60F92C0
:1028300011242F933F934F935F936F937F938F93C5
:102840009F93AF93BF93EF93FF938091E10082FF3B
:1028500009C08091E20082FF05C08091E1008B7F7A
:102860008093E1008091DA0080FF2AC08091D80037
:1028700080FF26C08091DA008E7F8093DA008091FD
:10288000D90080FF18C080E189BD82E189BD09B40B
:1028900000FEFDCF81E0809304058091ED0281115F
:1028A0000FC00E949A130E94B9138091E2008460C5
:1028B0008093E20005C019BC109204051092ED024D
:1028C0008091E10080FF17C08091E20080FF13C07B
:1028D0008091E2008E7F8093E2008091E20080612F
:1028E0008093E2008091D80080628093D80019BC68
:1028F00085E0809304058091E10084FF30C08091E1
:10290000E20084FF2CC080E189BD82E189BD09B469
:1029100000FEFDCF8091D8008F7D8093D8008091FC
:10292000E1008F7E8093E1008091E2008F7E8093B2
:10293000E2008091E20081608093E20080911303C5
:10294000882311F084E007C08091E30087FD02C076
:1029500081E001C083E080930405809104058091AB
:10296000E10083FF27C08091E20083FF23C08091B4
:10297000E100877F8093E10082E08093040510925C
:1029800013038091E1008E7F8093E1008091E2004B
:102990008E7F8093E2008091E20080618093E2006C
:1029A00042E060E080E00E947C0F8091F00088604F
:1029B0008093F000FF91EF91BF91AF919F918F9124
:1029C0007F916F915F914F913F912F910F900FBE2B
:1029D0000F901F9018952091E4003091E50095E646
:1029E0004091EC00842F817040FF23C08091E8006B
:1029F00080FD1DC080910405882399F0853099F0F1
:102A00008091EB0085FD11C04091E4005091E500FC
:102A10002417350729F3915011F09A01E1CF84E092
:102A2000089582E0089583E0089581E0089580E0AC
:102A300008954091E80042FFDDCF089578941F92F9
:102A40000F920FB60F9211248F939F93AF93BF9362
:102A50008091E4029091E502A091E602B091E70234
:102A60000196A11DB11D8093E4029093E502A0930D
:102A7000E602B093E702BF91AF919F918F910F90C3
:102A80000FBE0F901F9018959C014FB7F89480913E
:102A9000E4029091E502A091E602B091E7024FBFF7
:102AA000821B930B08952FB7F8948091E4029091C4
:102AB000E502A091E602B091E7022FBF08950F93BF
:102AC0001F9310E0F801EE0FFF1FE653FE4F9081B9
:102AD000905797FD9195000F111FF801E553FE4F98
:102AE000E081F0E0B097DF01AA0FBB1F8D010E0F50
:102AF0001F1F2003D001219FB00D1124E8E3F0E057
:102B0000E91BF10997FDF3959F01220F331F8901FE
:102B10000E0F1F1F40039001419F300D11242A0FFB
:102B20003B1F37FF02C021583F4F220F232F221F88
:102B3000330B620F1F910F9108950F931F93522F24
:102B400010E0F801EE0FFF1FE553FE4FE081F0E0CB
:102B5000B097EE0FFF1F9F015203D001539FB00D9E
:102B60001124000F111FF801E653FE4F008110E001
:102B700000571109000F111F40039001419F300DB4
:102B800011242A0F3B1F37FF02C021583F4F220F4D
:102B9000232F221F330B620F1F910F9108950F9364
:102BA0001F93522F10E0F801EE0FFF1FE553FE4F69
:102BB000E081F0E0B0979F015203D001539FB00D28
:102BC0001124000F111FF801E653FE4F008110E0A1
:102BD0000057110940039001419F300D11242A0F25
:102BE0003B1F37FF02C021583F4F220F232F221FC8
:102BF000330B620F1F910F910895EF920F931F9364
:102C000093E0099F80011124159507956E2D600FA3
:102C10001F910F91EF900895A22F50E0FA01EE0F4F
:102C2000FF1FE553FE4F9081905297FD9195440F01
:102C3000551FFA01E653FE4F3081232F30E02A1B47
:102C40003109290F311D97FD3A95620F0895E42F40
:102C5000F0E0EE0FFF1FE553FE4F6081621B089509
:102C6000E42FF0E0EE0FFF1FE653FE4F6081621B82
:102C70000895E42FF0E0EE0FFF1FE653FE4F408172
:102C800034EE439F412D1124E82FF0E050E0445EE4
:102C90005F4FDA01A21BB1099D01B7FF03C0319557
:102CA0002195310993E0220F331F9A95E1F7AF0187
:102CB000421B530B9A0157FF02C020E030E0582F0F
:102CC000259F212D1124822F0895E42FF0E0EE0F8F
:102CD000FF1FE653FE4F408134EE439F412D1124E8
:102CE000E72FF0E050E0445E5F4FDA01A21BB1092C
:102CF0009D01B7FF03C031952195310993E0220F63
:102D0000331F9A95E1F7AF01421B530B9A0157FF0E
:102D100002C020E030E0279F212D1124722F08955A
:102D2000FC019B01009721F477FF2BC080E80895F8
:102D3000AC0197FF04C044275527481B590BB90124
:102D4000640F751F37FD0CC0241B350BC901A5E0AE
:102D5000880F991FAA95E1F70E94D52D80E20CC03B
:102D6000CB0165E0880F991F6A95E1F7BA01621BF4
:102D7000730B0E94D52D80E6861BF7FF03C081955B
:102D8000089580E00895EF920F93CF93DF93D72FAC
:102D9000C82FC9010E19BA010E949016602F681B36
:102DA0007D2F8C2FDF91CF910F91EF9008950F938E
:102DB000CF93DF93D72FC82FC901BA010E94901675
:102DC000682F600F7D2F8C2FDF91CF910F91089589
:102DD000EF920F931F93CF93DF93D62FC72F182F08
:102DE000C9010E19010FBA010E949016081B202F6D
:102DF000219F212D1124822F6D2F7C2FDF91CF91C8
:102E00001F910F91EF900895EF920F931F93CF931F
:102E1000DF93D62F172FC82FC9010E19070FBA013C
:102E20000E949016702F781B719F712D11246D2FA9
:102E30008C2FDF91CF911F910F91EF900895FF920A
:102E40000F931F93CF93DF93F62ED72F182FC9011F
:102E5000C12FC01BBA010E949016982F990F890F9D
:102E6000C81B2C2F219F212D1124822F6F2D7D2FE8
:102E7000CDB7DEB7E5E00C940B2BFF920F931F93B9
:102E8000CF93DF93F62E172FD82FC901C72FC01B62
:102E9000BA010E949016982F990F890F7C2F781BEA
:102EA000719F712D11246F2D8D2FCDB7DEB7E5E009
:102EB0000C940B2B0E947E1E08950E94401E0895C4
:102EC000E6E0F5E081E3808380911F01909120018D
:102ED000A091210181839283A3838CE384838FEF6C
:102EE000858346E050E06CE170E0CF010E94A22BA8
:102EF000109205050895482F982F46FD9095E92FCB
:102F0000EF739F7046FD9F5FE295EF70EE0FF0E06C
:102F1000EE59FE4F2181299F802D212D112482956C
:102F20008F702295207F822B3081982F930F892FCD
:102F300047FD819580580895BC018230910508F4C1
:102F40000895613E8EE1780748F49B0195E036953F
:102F500027959A95E1F748E0420F01C04FEF91E0C5
:102F6000242F30E0290F311D35952795229FF00140
:102F7000239FF00DF00D11246E177F0718F44FEF0B
:102F8000420F04C02F3F39F091E0920F491740F7EC
:102F90008FEF890F08958FEF08950F93CF93DF93ED
:102FA000D72FC82F47FD4195E8E3F0E0CF01841B00
:102FB000910947FD9395889FB001899F700D700D11
:102FC0001124229FC001239F900D900D1124860F84
:102FD000971F0E949C17682F660F860F682F600F3F
:102FE0007D2F8C2FDF91CF910F91089520E030E05D
:102FF000869F212D969F200D311D1124C901089512
:10300000A0E0B0E0E6E0F8E10C94EC2AF62E472FC1
:10301000E82FF0E0711106C0E858FB4F8491782F3B
:10302000682F73C0272F30E0E858FB4FE491FE2F44
:103030000E2F10E056E0659FC0011124CFEFD0E0C5
:10304000BE010E94CE2A5BEA5603C001579F900D35
:1030500011248F0D911D8F0D911D982F990F980F91
:103060007E01E21AF30AE09ED001E19EB00DF09ECF
:10307000B00D11248B2F499FA0011124452F5527F6
:103080007E01E41AF50AE09EA001E19E500DF09E3B
:10309000500D11246E01C91AD108C29E7001C39E41
:1030A000F00CD29EF00C11242F2D3327C21BD30B12
:1030B000C09F9001C19F300DD09F300D1124932FE0
:1030C0006230710591F048F461157105E1F06130ED
:1030D0007105B9F49E2FE52F16C06430710569F0B3
:1030E00040F06630710579F00CC09E2FEB2F832FD6
:1030F0000AC0EB2F8F2F952F06C09B2F8E2FE32F0B
:1031000002C09B2F852F7E2F692FCDB7DEB7E8E059
:103110000C94082BA0E0B0E0E0E9F8E10C94EB2A75
:10312000C82F80911A018C130DC0209106052370C1
:1031300030E04091190150E081E02417350719F47F
:1031400080E001C081E0817080931D0180910B05BA
:1031500090911C01981739F080931C0140E060E0C9
:1031600080E00E945A17CC3029F480E396E10E9457
:103170007F2939C0CD3008F097C1C53009F447C068
:1031800008F06FC1C23009F085C080911B01D82FB3
:10319000DD0FDD0FD80FA5E0EA2EED0E20E32E1592
:1031A00010F4F0E3EF2E0091080510910905F0905E
:1031B00007056F2D702F812F0E940018D62EC72E65
:1031C000B82E60910A056F0D702F812F0E94001894
:1031D000162F072FF82EDE1508F48CC081E03FE291
:1031E0003E1508F485C090911B019F5F90931B01D1
:1031F000811148C282E080931E0180911D018111DE
:1032000041C2C1113FC283E080931E013BC2809145
:103210001B01D82FDD0FDD0FD80F15E01D0F113367
:1032200008F010E3F090070500910805E09009050B
:1032300060910A056695669566958091FE04909169
:10324000FF040E94F6170E947B17805887FD819526
:10325000880F282F3E2D239F212D1124822F6F2D83
:10326000702F0E940018062FF72EE82ED11790F528
:10327000ED2FF0E0DF01A65DBD4F8C9190911C0118
:10328000982331F02E2D402F6F2DCF010E945D1716
:10329000DF5FECCFC33008F056C0CC2301F1C13062
:1032A00009F058C080911B01D82FDD0FDD0FD80F1A
:1032B00015E01D0F113308F010E3609107057091C0
:1032C0000805809109050E940018062FF72EE82EA8
:1032D000D11738F181E0103308F485CF09C080910F
:1032E0001D01882329F040E060E080E00E945A1729
:1032F00080E079CF8D2F90E0FC01E65DFD4F3081BD
:1033000020911C01232359F030FF04C02F2D412FA1
:10331000602F03C02B2D4D2D6C2D0E945D17DF5F9C
:103320005ACFED2FF0E0DF01A65DBD4F8C9190915B
:103330001C01982331F02E2D402F6F2DCF010E94BC
:103340005D17DF5FC5CF80911B01C33049F0C430EA
:1033500009F44AC080911B018F5F80931B014ACF03
:10336000D82FDD0FDD0FD80FE5E0FE2EFD0E80E338
:103370008F1510F470E3F72ED0900805C090090562
:1033800020910A0560E4E62E3E2D329F312D112456
:10339000E32EDF1518F50D2F10E0F801E65DFD4F67
:1033A000908180911C018923B9F0F801EE0FFF1F75
:1033B000E553FE4F808182958F70609107058E9D49
:1033C000600D11247D2D8C2D0E940018462F282F72
:1033D000672FC8010E945D17DF5FDBCF81E09FE2AE
:1033E0009F1508F000CF84CFD82FDD0FDD0FD80F49
:1033F00015E01D0F113308F010E3D0900805C090C0
:10340000090520910A0500E4029F012D1124D1171E
:1034100008F060CFED2EF12CF701E65DFD4F9081B5
:1034200080911C018923D9F0F701EE0FFF1FE653AD
:10343000FE4F6081069FB001112445E075956795A8
:103440004A95E1F780910705680F7D2D8C2D0E942C
:103450000018462F282F672FC7010E945D17DF5FD6
:10346000D6CFC83051F48DE397E104C0CB30B8F427
:103470008FE197E10E942929B6CEC93058F4C630B1
:1034800019F485E696E173CEC73009F063CF89E37E
:1034900096E16DCECA3051F784E097E102C088EE24
:1034A00096E10E94AD289FCEC23119F483EC96E1DB
:1034B000F8CFC331E8F4CF3019F48DEF95E1F1CFB7
:1034C000C03158F4CD3019F487E296E150CECE30B9
:1034D00009F040CF8CE096E14ACEC03119F48DEC72
:1034E00097E1C8CFC13109F035CF87ED96E1C2CF62
:1034F000C53129F48FE595E10E94582874CEC63174
:1035000058F4C33119F48FEC95E1F6CFC43109F0CA
:1035100021CF8DE995E1F0CFC73109F040C080910E
:103520001D0181111EC060910A0520E1620F08F49F
:103530006FEF8091FE049091FF040E94F61765E002
:1035400070E00E94CE2A892B09F0D2CE0E94652B12
:1035500060E370E00E94D52D60911C010E9417214C
:10356000C7CE80911B01082F000F000F080FD5E078
:10357000D00FD13308F0D0E310E0ED2EF12C0E1572
:103580001F0544F460911C01C8010E9417210F5FC0
:103590001F4FF5CF81E0D03308F425CEA9CEC73137
:1035A00008F03CC080911D0181111EC060910A0588
:1035B00020E1620F08F46FEF8091FE049091FF0408
:1035C0000E94F6176AE070E00E94CE2A892B09F06B
:1035D0008FCE0E94652B60E370E00E94D52D609134
:1035E0001C010E943B2184CE80911B01082F000FFB
:1035F000000F080FD5E0D00FD13308F0D0E310E072
:10360000ED2EF12C0E151F050CF0C4CF60911C019E
:10361000C8010E943B210F5F1F4FF4CFCF3F09F03D
:1036200099CE8091FE049091FF04A0910005B09185
:10363000010588279C70AA27BB272AE0B695A79585
:10364000979587952A95D1F782309105A105B10507
:1036500071F083309105A105B10569F040E0019753
:10366000A105B10511F060E008C064E102C044E1C9
:1036700060E080E003C044E164E184E10E945A1705
:1036800082E0C2CDCDB7DEB7E9E00C94072BCF9333
:10369000DF93CDB7DEB7CC55D1090FB6F894DEBFB6
:1036A0000FBECDBF85B7806885BF85B7806885BFF1
:1036B00084B7877F84BF0FB6F894A8958091600087
:1036C000886180936000109260000FBE90E080E8F7
:1036D0000FB6F89480936100909361000FBE82E46E
:1036E00099E090935B0280935A020E949A130E9481
:1036F000B9138091E20084608093E2007894809115
:1037000004058823A1F01091E9001F709091EC004E
:10371000892F817090FD80E8182B1092E90080912C
:10372000E80083FD0E9489101F701093E90082E079
:1037300084BD93E095BD9AEF97BD80936E000E9483
:10374000F32390E090931801809317010E942E2597
:103750000E947425EEE1F3E0ACE2B3E011921D9219
:1037600023E0EC32F207D1F78EE090E00E94EF2DDB
:1037700080931C0390931D03FC010E961192E81791
:10378000F907E1F789EA8093800089E0809381005E
:1037900024982C983F988AB18F7C8AB96E98479A62
:1037A0008BB180638BB9769A8FE090E00E94962B64
:1037B00060935E0370935F03809360039093610353
:1037C00067708FEF869FB001112475956795759589
:1037D00067957727709389006093880070938B00BA
:1037E00060938A0070938D0060938C0090915E03CB
:1037F00094FF03C080930B0502C010920B050E943A
:103800006A2480E090E00E949C2B883E9E4F11F03D
:103810000E94290B82E090E00E948E2B80933A0355
:1038200084E090E00E948E2B182F82E290E00E94AC
:103830008E2B212F30E0382B3093E9022093E802C1
:1038400083E090E00E948E2B682F70E080E090E093
:103850000E94CD2660915A0370915B0380915C03B6
:1038600090915D030E9443230E9483210E94762150
:103870000E947621809105058160809305058BE08B
:1038800091E09093C2048093C10428E1C22ED12C10
:10389000EE24E394BB24B39480910405853009F0B1
:1038A00071C080E4F82E93E0992E00E112E180913E
:1038B0000405853009F05EC080910405843009F468
:1038C00036C00E94A1218091620381110DC00E9427
:1038D0008A1810921A01809106058370809319014D
:1038E0000E94BC1E90921E01B09262031092C50409
:1038F0000FB6F894A895C09260000FBEF0926000D9
:1039000083B7817F846083BF83B7816083BF7894EE
:10391000889583B78E7F83BF0FB6F894A895809162
:103920006000886180936000109260000FBE8091FB
:103930001203882309F4BBCF0E94F32390E09093F5
:103940001801809317010E942E250E947425ECE235
:10395000F3E0119223E0EA33F207D9F70E943B0E1D
:10396000ECE2F3E08191811157C183E0EA33F8077B
:10397000C9F79DCF1092EE020E94F8260E94E42023
:10398000109262030E943B0E882359F08FB7F8947F
:103990004091E4025091E5026091E6027091E702E5
:1039A0008FBFABE3B3E0ECE2F3E000E010E0302FD8
:1039B00021919D919227A1F180E0FF24F394492F5A
:1039C0004F2151F164968FAF649765963FAF65972D
:1039D0002F2181E009F480E066968FAF66970E9400
:1039E00053158160782F68969FAF8EAF6897649665
:1039F0004FAD649765965FAD659766966FAD6697B8
:103A000068968FAD68970E943C22F801E55CFC4FF8
:103A10008081F826F0822AC08F5FFF0C863079F60D
:103A20000F5F1F4F0E30110509F0C1CF8FEF699660
:103A30008FAF69976A968FAF6A976B961FAE6B9739
:103A40000E9453158160782F6D969FAF8EAF6D9752
:103A500069964FAD69976A965FAD6A976B966FAD41
:103A60006B976D968FAD6D970E943C220E94A121AD
:103A70000E94E42090914903891380934903809127
:103A80000405843009F008CF83E08093E900809139
:103A9000E80082FF01CF8091E80085FF22C00E94EC
:103AA000EB1481111CC000E210E04E01E1E28E0E29
:103AB000911C08C08091F100F40181934F010150E5
:103AC000110969F08091E80085FDF4CF8091E8004C
:103AD0008B778093E8000E94EB14882399F391E0A0
:103AE00001C090E08091E8008B778093E8009923F3
:103AF00009F4D2CE89A18130E1F150F1823021F078
:103B0000843009F47BC0C8CE8BA19AA190934A035C
:103B100080934B038DA19CA190934C0380934D0304
:103B20008FA19EA190934E0380934F0342E150E0FA
:103B300063E270E0CE018F5B9F4F0E947E2B84E09A
:103B40008983E09203058EEF8A83109202050CC0F0
:103B500019828CE0EAE6F1E0DE01129601900D9206
:103B60008A95E1F78EEF8D87CE0101960E942C2871
:103B700093CE00E513E00E94F120F8018193919328
:103B80008F01F3E006351F07B1F7E98280915003FA
:103B90008A83809151038B83809152038C8380911F
:103BA00053038D83809154038E83809155038F83BB
:103BB0008EEF8887E0920205CE0101960E942C28A4
:103BC00042E150E063E270E0CE0101960E947E2B5C
:103BD000FE01319682E183301CF09189928B01C005
:103BE000128A815031978F3FB1F742E150E063E292
:103BF00070E0CE0101960E94A22B4ECE809103056B
:103C0000882309F449CE60E070E0CB010E9442268F
:103C10008AA10E94AB2640CE09BD19BD09B400FEA1
:103C2000FDCF8091D8008F7D8093D8008091E000F7
:103C300082608093E0008091E00081FDFCCF1092D3
:103C4000EE020E94F82633CEE6E0F5E0248130E172
:103C5000231B08F420E02483809105058160809374
:103C600005050895E6E0F5E0248130E1230F08F42E
:103C70002FEF2483809105058160809305050895C9
:103C8000A4E0B0E0E6E4FEE10C94EF2A8033910575
:103C900088F5122F042FF62EBC01660F771F660FD2
:103CA000771F68587A4F44E050E0CE0101960E9499
:103CB000752B898183704A81282F30E050E9859FD8
:103CC000C001112487589C4FFC01E40FF11DB497EB
:103CD000F0824B81FC01E40FF11DB49700834C810D
:103CE000840F911DFC01B4971083F901E958FC4F32
:103CF00081E080832496E5E00C940B2BFF920F93D8
:103D00001F93CF93DF93182F062FF42EC0E0D0E03F
:103D10002F2D402F612FCE010E94401E2196C033CF
:103D2000D105B1F7CDB7DEB7E5E00C940B2B0F93BF
:103D30001F93CF93DF93082F000FEB0114E2109332
:103D40006303E4E6F3E0DE018D91819383E0E437E1
:103D5000F807D1F724E630E041E150E063E673E094
:103D6000802F0E94A92A105F6096143B41F7DF91D3
:103D7000CF911F910F91089580917703882329F0A7
:103D800069E773E084E70E94971E109277038091A1
:103D90007803882329F069E074E087E70E94971E82
:103DA000109278030895E3E6F3E06083418324E60C
:103DB00030E042E050E0BF01880F0E94A92A089538
:103DC000A0E0B0E0E6EEFEE10C94ED2A262F30E014
:103DD000A90143545B4F7A01FA019081911107C008
:103DE000F7011082CDB7DEB7E7E00C94092BD82E8F
:103DF000F2E16F9FE001112400E010E0F801EC0F08
:103E0000FD1FE756FB4F4081602F8D2D0E94D31E72
:103E10000F5F1F4F0231110589F7E2CFCF93DF9378
:103E2000C82F4BE06DEF0E94D31E40E06AE08C2F5C
:103E30000E94D31E8FE39CE90197F1F700C00000B8
:103E400040E060E08C2F0E94D31E40E061E08C2FA8
:103E50000E94D31E40E066E08C2F0E94D31E40E0FB
:103E60006DEF8C2F0E94D31ED0E040E06D2F8C2F81
:103E70000E94D31EDF5FD231C1F740E06D2F8C2F3F
:103E80000E94D31EDF5FD432C1F740E06D2F8C2F2C
:103E90000E94D31EDF5FD43BC1F74BE06DEF8C2F48
:103EA0000E94D31E41E06AE08C2F0E94D31E40E0A6
:103EB0006DEF8C2F0E94D31EDF91CF910895A4E067
:103EC000B0E0E5E6FFE10C94E62A0E94D92984E7F8
:103ED0000E940E1F87E70E940E1F08E715E072E19F
:103EE000772EE8E0CE2ED12CEE24E394F12C66243C
:103EF000639444E050E0B801CE0101960E94752B16
:103F00002A8130E0C9018497AB80B12C44E2A41A25
:103F1000B108EC81F0E0B497AC0197FF02C0495FB3
:103F20005F4F63E0559547956A95E1F729812370C6
:103F300030E0729EB001739E700D112467567B4F66
:103F40004B01840E911CB6010E94D52DD70102C0F1
:103F5000AA0FBB1F8A95E2F7CD01D4019C91892B52
:103F60008C93C501B7FC079653E0959587955A95B4
:103F7000E1F7729EA001739E500D112447565B4FCE
:103F80004A01880E911CC501B6010E94D52DA701DA
:103F900002C0440F551F8A95E2F7CA01D4019C91D3
:103FA000892B8C93CF01F7FD079643E09595879574
:103FB0004A95E1F7729EA001739E500D1124475659
:103FC0005B4F5A01A80EB11CCF01B6010E94D52D3E
:103FD000F70102C0EE0FFF1F8A95E2F7CF01D5016E
:103FE0009C91892B8C93F901E354FB4F60820C5F09
:103FF0001F4FB6E008331B0709F07BCF60E084E772
:104000000E94E01E61E087E70E94E01E2496EEE039
:104010000C94022BE6E0F5E0438120E1421B08F41A
:1040200040E08181628190E00E94C9290895E6E024
:10403000F5E0438120E1420F08F44FEF8181628176
:1040400090E00E94C9290895E6E0F5E0628120E150
:10405000621B08F460E08181438190E00E94C929DD
:104060000895E6E0F5E0628120E1620F08F46FEF69
:104070008181438190E00E94C9290895E6E0F5E03E
:10408000818190E04381628108970E94C929089547
:10409000E6E0F5E0818190E04381628108960E942C
:1040A000C92908958091060586958695815009F461
:1040B00087E10E94E92708958091060586958695F7
:1040C0008F5F883108F081E00E94E92708951F92F0
:1040D0000F920FB60F9211248F939F93AF93BF93BC
:1040E0008091C504811113C08091E4029091E50292
:1040F000A091E602B091E7024196A11DB11D809307
:10410000E4029093E502A093E602B093E702BF9128
:10411000AF919F918F910F900FBE0F901F901895A8
:1041200020910A012223C9F02091E80227FF15C03F
:10413000262F2695269526952E31C8F4FC01E20FF0
:10414000F11D677081E090E001C0880F6A95EAF781
:1041500080959281892382830895FC0106962281AD
:10416000621301C012823196E817F907C1F708956A
:104170002091C3043091C4042817390771F090933B
:10418000C4048093C304E091C104F091C204309749
:1041900021F00084F185E02D099508952091BF0458
:1041A0003091C0042817390771F09093C0048093B0
:1041B000BF04E091C104F091C204309721F0068061
:1041C000F781E02D09950895E091C104F091C204B2
:1041D000309729F00190F081E02D0995089580E055
:1041E0000895CF93DF930E94652B66E070E00E94F4
:1041F000D52DD82F0E94652B6EE070E00E94D52D42
:10420000C82F6D2F782F80E00E948709892B19F025
:104210008D2F9C2F02C00E94F120DF91CF91089535
:10422000882311F0FA0101C0FB01099508951F933D
:10423000CF93DF93FC01E65DFD4F20816223B9F04F
:10424000EC010E94652B182F0E94652B8F77782F29
:1042500020E8720F08F47FEF612F809109050E941A
:104260000018462F282F672FCE010E945D17DF917F
:10427000CF911F910895A0E0B0E0E1E4F1E20C9449
:10428000ED2AEC01FC01E65DFD4F9081692349F1C7
:10429000D09008050091090510910705E12EF12C39
:1042A0000E94652B282FC7018C549F4F68E671E050
:1042B0000E94D52D8E199F0997FD03969595879598
:1042C000959587952370612F289F600D11247D2D72
:1042D000802F0E940018462F282F672FCE010E94A2
:1042E0005D17CDB7DEB7E7E00C94092B809106058A
:1042F000837011F410921E01809106058C7F8160FD
:104300008093060508950E945F1F80E090E00E9460
:104310009C2B883E9E4F21F00E94290B0E94601723
:1043200046E050E06CE170E086E095E00E947E2B74
:1043300010920505809106058C7F11F40E9460178C
:104340000895CF938FB7F8944091E4025091E5021D
:104350006091E6027091E7028FBF4093560350933D
:10436000570360935803709359038091620381113E
:1043700008C0C09106058C2F837019F0C695C695AC
:1043800001C0C0E080911E01813099F030F0823090
:10439000C9F1833009F443C06DC010921B014093F2
:1043A000FE045093FF04609300057093010581E0C3
:1043B00033C08C2F0E948A18CC2309F45BC08091F3
:1043C0005E0383FD57C060915A0370915B03809137
:1043D0005C0390915D030E94DB22813029F08230E2
:1043E00041F482E090E002C081E090E00E947523F9
:1043F00041C080910B0581113DC040E060E00E940A
:104400005A1738C0C0931A018091060583708093B3
:1044100019010E94BC1E83E080931E012BC0809175
:104420000505882351F046E050E06CE170E086E03D
:1044300095E00E94A22B109205054091FE04509138
:10444000FF0460910005709101052FB7F8948091E9
:10445000E4029091E502A091E602B091E7022FBF3D
:10446000841B950BA60BB70B4A97A105B10510F05D
:1044700010921E01CF910895A7E1B0E0E2E4F2E2CC
:104480000C94F12A4B8B5C8B6D8B7E8B8F8B611127
:104490001092D60286E09E01235F3F4FD901E82F9C
:1044A0001D92EA95E9F795E0FE017396D901019016
:1044B0000D929A95E1F79C894E895F897B897D876A
:1044C0009E876F87598B488BF901DE011796019003
:1044D0000D928A95E1F7CE0107960E94B40C8111E6
:1044E0003EC086E0FE013796DE01119601900D92E6
:1044F0008A95E1F7FF81E8856A857B8561157105FD
:1045000031F0EF3F31F481E0FF3F19F403C081E067
:1045100001C080E080FD23C02091830230E0C9010A
:104520000196877099274091B40250E0841795074F
:1045300079F1F983EA837D836C8396E0929FD001C1
:10454000939FB00D1124AC57BD4FFE0131960190E1
:104550000D929A95E1F7809383020E94410C16E038
:104560008091B40290918302891709F1189FC001CC
:1045700011248C579D4F0E94B40C8823C1F0809168
:10458000B40290E00196877099278093B402E8CF37
:104590001092EE020E94F826109283021092B4024A
:1045A000EDE7F2E086E0DF011D928A95E9F7679674
:1045B000E3E00C940D2BCF92DF92EF92FF926C010F
:1045C000EE24FF24C114D104E104F10421F0C70159
:1045D000B60120E101C020E0C72ED82EE92EFF242D
:1045E000C114D104E104F10419F0285FC701B60138
:1045F0006B017C0154E0F694E794D794C7945A95E4
:10460000D1F7C114D104E104F10419F02C5FC70102
:10461000B6016B017C0142E0F694E794D794C7940D
:104620004A95D1F7C114D104E104F10419F02E5FC9
:10463000C701B601DC01CB01B695A7959795879583
:10464000892B8A2B8B2B09F02F5F822FFF90EF9005
:10465000DF90CF9008951092EE020E94F8262FEF7F
:1046600084E39CE0215080409040E1F700C00000CE
:104670009AE088E10FB6F894A895809360000FBE89
:1046800090936000FFCFCF92DF92EF92FF926B0189
:104690007C010E94DB2256985E9825982D982698DA
:1046A0002E9827982F9890E0FC013197E730F1057C
:1046B000A8F4E459FF4F0C94E92D259A2D9A0EC0C9
:1046C000259A2D9A269A2E9A09C0259A2D9A04C0C9
:1046D000259A2D9A269A2E9A279A2F9AC701B601C3
:1046E000FF90EF90DF90CF900895A0E0B0E0EBE76F
:1046F000F3E20C94E32A20E9289F7001299FF00C33
:104700001124C0E0D0E000E010E067018FEFC81A8C
:10471000D80A570182E0A80EB11CF701EC0FFD1F6B
:10472000E85CF94F6491F601EC0FFD1FE85CF94F6E
:104730007491F501EC0FFD1FE85CF94F8491611154
:1047400007C0711105C0811103C020E040E03CC0EA
:104750000E940018962E372E882E6091090570E071
:1047600080E090E00E94DA2C20E030E04FE753E454
:104770000E94392C2B013C01682D70E080E090E014
:104780000E94DC2CA30192010E94682D0E94AB2C98
:10479000862E692D70E080E090E00E94DC2CA30161
:1047A00092010E94682D0E94AB2C962E632D70E022
:1047B00080E090E00E94DC2CA30192010E94682D11
:1047C0000E94AB2C282D492DC8010E945D170F5F58
:1047D0001F4F2396C039D10509F09FCFCDB7DEB763
:1047E000E1E10C94FF2A80E290E09093180180931D
:1047F00017018091C60481110EC00E94D92981E061
:104800008093C6042FEF83ED90E3215080409040C9
:10481000E1F700C0000064E670E080E40E94DF2958
:104820009093180180931701892B09F04EC064E61C
:1048300070E080E00E94542A909318018093170141
:10484000892B09F042C064E670E080E00E94542A9F
:104850009093180180931701892BB9F564E670E0F5
:104860008FE30E94542A9093180180931701892B9B
:1048700061F50E94CA2A64E670E080E40E94DF29A4
:104880009093180180931701892BF9F464E670E086
:104890008CE00E94542A9093180180931701892B71
:1048A000A1F464E670E080E00E94542A909318011D
:1048B00080931701892B49F464E670E08FE30E942E
:1048C000542A90931801809317010E94CA2A80915C
:1048D00017010895CF93DF9356985E9825982D98E9
:1048E00026982E9827982F98C8E8D0E08FEF90E070
:1048F00099838883AAE8B0E011969C938E93ECE8A4
:10490000F0E091838083259A2D9A2FEF80E792E043
:10491000215080409040E1F700C00000269A2E9A76
:104920002FEF80E792E0215080409040E1F700C0F7
:104930000000279A2F9A2FEF80E792E021508040C5
:104940009040E1F700C0000025982D982FEF80E7F8
:1049500092E0215080409040E1F700C0000026988E
:104960002E982FEF80E792E0215080409040E1F7B1
:1049700000C0000027982F9880915E0387702FEF6A
:10498000829FC001112495958795959587959927C4
:104990009983888311969C938E93918380835698F4
:1049A0005E9825982D9826982E9827982F98DF9115
:1049B000CF910895CF93E82F873080F5809117012C
:1049C00090911801892B09F047C0CE2F64E670E062
:1049D00080E40E94DF299093180180931701892BAE
:1049E000D1F464E670E082E10E94542A90931801A9
:1049F00080931701892B79F481E090E001C0880F42
:104A0000CA95EAF764E670E080950E94542A909374
:104A10001801809317010E94CA2A1EC090E0FC0171
:104A20003797E730F105C0F4ED58FF4F0C94E92DAE
:104A3000209A289811C0219A29980EC0229A2A9863
:104A40000BC0239A2B9808C0529A5A9805C0539AC3
:104A50005B9802C03E9A4698CF9108952098289876
:104A60002198299822982A9823982B9852985A98F6
:104A700053985B983E9846980895CF93873040F5B9
:104A80008091170190911801892B59F564E670E027
:104A900081E40E94DF299093180180931701892BEC
:104AA00011F0C0E011C084E690E00E94842A97FFD4
:104AB00005C09093180180931701F3CFC82FC095BC
:104AC00010921801109217010E94CA2A8C2F0AC056
:104AD0009FB18FB1807F869586959370892B809545
:104AE00001C080E0CF9108958098889A8198899A32
:104AF00084988C9A85988D9A86988E9A87988F9AA2
:104B0000089580E090E00E94CE2080E090E00E9436
:104B1000B8201092D6020E94B30B0895A0E0B0E036
:104B2000E4E9F5E20C94EB2A8C01C0905A03D09092
:104B30005B03E0905C03F0905D038091D80290915C
:104B4000D902A091DA02B091DB02C82AD92AEA2A56
:104B5000FB2ACFE1D0E0D701C6010C2E04C0B695E8
:104B6000A795979587950A94D2F780FD04C0219761
:104B700090F7B12C09C0BC2EB8018C2F0E94870978
:104B80000E94A009019799F38B2DCDB7DEB7E9E01C
:104B90000C94072BCF93DF93EC010E948E25BE016E
:104BA0000E9487090E94A009DF91CF910895292FC3
:104BB0009E3080F5863070F590E036E0239F800DC2
:104BC000911D1124682F677023E0969587952A958B
:104BD000E1F725E0289FF001299FF00D1124E9530A
:104BE000FB4F40E050E080E0219130E0062E02C013
:104BF000369527950A94E2F721703327042E01C0D9
:104C0000220F0A94EAF7822B4F5F5F4F4530510520
:104C100059F7089580E00895292F9E3090F5863049
:104C200080F590E036E0239F800D911D1124282F00
:104C3000277051E001C0550F2A95EAF723E09695B9
:104C400087952A95E1F725E0289FF001299FF00D2F
:104C50001124E953FB4F20E030E070E04081CB01AC
:104C6000022E02C0969587950A94E2F7817081958D
:104C700084278523842781932F5F3F4F253031057B
:104C800069F70895CF92DF92EF92FF92CF93DF936F
:104C9000CDB7DEB7A0970FB6F894DEBF0FBECDBF7D
:104CA0000E9443236B017C01809103058823B1F0AE
:104CB0002FEF80E792E0215080409040E1F700C064
:104CC000000085E08983C701B6010E94DB228A8348
:104CD0008EEF8B83CE0101960E942C28C0925A033E
:104CE000D0925B03E0925C03F0925D030E94812509
:104CF000A0960FB6F894DEBF0FBECDBFDF91CF9167
:104D0000FF90EF90DF90CF9008950F931F9341E0B5
:104D100050E060E070E004C0440F551F661F771F2D
:104D20008A95D2F7409550956095709580915A0379
:104D300090915B03A0915C03B0915D038A019B019C
:104D4000082319232A233B23C901B8010E944226C4
:104D50001F910F9108950F931F9341E050E060E081
:104D600070E004C0440F551F661F771F8A95D2F765
:104D700080915A0390915B03A0915C03B0915D0315
:104D80008A019B01082B192B2A2B3B2BC901B80147
:104D90000E9442261F910F9108956093D80270934C
:104DA000D9028093DA029093DB020E948125089554
:104DB000FC01808191810E94CA2592959F70963056
:104DC00079F010F4925001C09A50923068F4803F0C
:104DD00069F018F4883E40F409C0843F29F406C005
:104DE000883E20F0813F11F080E0089581E0089531
:104DF00080910A01882331F08091E80287FF02C088
:104E00008EE101C086E0EFE5F2E0DF011D928A95B8
:104E1000E9F70E9481250895882321F00E94AC0BB8
:104E20000E94B30B0895882339F09091EE02892BEC
:104E30008093EE020E94B30B0895882349F1682FF6
:104E40008CEF860F813A28F48DE592E00E94902045
:104E50000CC080E2860F883058F4677081E001C092
:104E6000880F6A95EAF70E94AC0B0E94B30B089575
:104E70008BE5860F833028F480E090E00E94CE20FE
:104E80000895685A673120F480E090E00E94B820CD
:104E90000895CF93882309F49AC0C82F8CEF8C0F04
:104EA000813A08F05EC080910A018823E1F0809188
:104EB000E80287FF18C0EC2FE695E695E695F0E04E
:104EC000E35AFD4F8281282F30E04C2F477081E05C
:104ED00090E002C0880F991F4A95E2F7822393233E
:104EE000892B59F411C0EFE5F2E08191C81729F040
:104EF00082E0E536F807C9F707C06C2F8DE592E030
:104F00000E9490200E94B30B80910A018823C9F06F
:104F10008091E80287FF15C0AC2FA695A695A695AF
:104F2000B0E0A35ABD4FC77081E090E001C0880F88
:104F3000CA95EAF712969C911297892B12968C9338
:104F400020C0AFE5B2E0EFEF80E09D91C917C9F056
:104F5000EF3F19F4911101C0E82F8F5F8630A9F758
:104F60002DC080E28C0F883078F4C77081E090E02B
:104F700001C0880FCA95EAF79091EE02892B8093C1
:104F8000EE020E94B30B23C0EBE5EC0FE33040F4DC
:104F9000F0E0EE5DFE4F808190E00E94CE2017C0D1
:104FA000C85AC731A0F4EC2FF0E0EE0FFF1FEB5D05
:104FB000FE4F808191810E94B82009C0EF3F09F324
:104FC0000E2E000CFF0BE35AFD4FC283DACFCF91B8
:104FD0000895909106059370A1F0811102C094602C
:104FE00007C0883110F09C6503C0880F880F982B8C
:104FF0009093060510921E018091050581608093B3
:1050000005050895EF92FF920F931F93CF93DF93BF
:105010007C018B010E94EB14811119C0E70101157D
:105020001105A1F08091E80085FD0AC08091E8009B
:105030008E778093E8000E94EB14882381F307C0E9
:1050400089918093F10001501109E9CF80E0CDB73B
:10505000DEB7E6E00C940A2BCF93209104052430B0
:1050600029F5C091E900CF703091EC00232F217019
:1050700030FD20E8C22B22E02093E9002091E800D7
:1050800020FF11C040E050E060E270E00E94022882
:10509000882321F010920205109203058091E80008
:1050A0008E778093E800CF70C093E900CF91089588
:1050B000A0E0B0E0EEE5F8E20C94E92A6C01809102
:1050C0001B01C82FCC0FCC0FC80F15E01C0F1133DC
:1050D00008F010E360910A05669566958091FE04DC
:1050E0009091FF040E94F617D82F80E48D0F0E9444
:1050F0007B1790E8F92EF80E8D2F0E947B1720E881
:10510000922E980EC11700F5AC2EB12CF501E65D7C
:10511000FD4F908180911C018923A1F060910705CA
:105120007091080580910905ED2E0C2F292D4F2D2A
:10513000F60109950E940018462F282F672FC501F8
:105140000E945D17CF5FDECF81E0103308F080E072
:10515000CDB7DEB7EBE00C94052B6F927F928F9268
:105160009F92AF92BF92CF92DF92EF920F931F93D5
:10517000CF93DF933C0180911B01C82FCC0FCC0F44
:10518000C80FD5E0DC0FD13308F0D0E360910A05F9
:1051900066958091FE049091FF040E94F617182FE7
:1051A000CD1708F044C08C2E912CF401E65DFD4F24
:1051B000908180911C018923C1F1F401EE0FFF1F42
:1051C000E653FE4FC080D12C80E7C81AD108F40105
:1051D000EE0FFF1FE553FE4FA080B12CE0E2AE1AA8
:1051E000B108CC9C9001CD9C300D300D1124AA9CAF
:1051F000C001AB9C900D900D1124820F931F0E9453
:105200009C17082F6091070570910805809109058A
:10521000E12E9501A601F30109950E940018462F81
:10522000282F672FC4010E945D17CF5FB9CF81E09F
:10523000D03308F080E0DF91CF911F910F91EF9074
:10524000DF90CF90BF90AF909F908F907F906F90A6
:105250000895A0E0B0E0EFE2F9E20C94EC2A6C01D2
:1052600080911B01C82FCC0FCC0FC80FD5E0DC0FED
:10527000D13308F0D0E360910A0566958091FE0471
:105280009091FF040E94F617182FCD1778F5EC2E99
:10529000F12CF701E65DFD4F908180911C0189237F
:1052A00019F1F701EE0FFF1FE553FE4F208130E0AB
:1052B00020523109F701EE0FFF1FE653FE4F4081E8
:1052C00050E04057510960910705709108058091A1
:1052D0000905012FF60109950E940018462F282F75
:1052E000672FC7010E945D17CF5FCFCF81E0D0331A
:1052F00008F080E0CDB7DEB7E8E00C94082BA0E022
:10530000B0E0E5E8F9E20C94ED2A8C0180911B01F4
:10531000C82FCC0FCC0FC80FD5E0DC0FD13308F06D
:10532000D0E360910A056695669521E0620F08F466
:105330006FEF8091FE049091FF040E94F617D82E23
:10534000CD17F0F4EC2EF12CF701E65DFD4F9081C6
:1053500080911C01892391F06091070570910805E7
:10536000809109052D2D4C2FF80109950E940018F8
:10537000462F282F672FC7010E945D17CF5FE0CF10
:1053800081E0D03308F080E0CDB7DEB7E7E00C94E1
:10539000092B90910605937059F08093070560934F
:1053A00008054093090580910505816080930505F6
:1053B00008951092B9008CE08093B8000895A0E0A1
:1053C000B0E0E5EEF9E20C94E92AB82EEB010E9478
:1053D00053156C01C431D10558F0CF3F8FEFD8077A
:1053E00059F0CE0164E170E00E94CE2A7B0107C033
:1053F000EE24E394F12C03C025E0E22EF12C84E8A6
:10540000A82E94EA992E1092BC009092BC000E94A3
:1054100053158C018091BC0087FD08C00E94531574
:10542000801B910B8E159F05A8F32AC08091B900AF
:10543000887F883041F08091B900887F803119F0F1
:105440000FEF1FEF1FC0B092BB00A092BC000E94E4
:1054500053158C018091BC0087FD08C00E94531534
:10546000801B910B8E159F05A8F30AC08091B9008F
:10547000887F883111F0803419F700E010E00EC009
:105480000EEF1FEFCF3F8FEFD80709F4BCCFC60157
:105490000E9444158C179D0708F4B5CFC801CDB7FD
:1054A000DEB7EBE00C94052B0F931F93CF93DF93A4
:1054B000EB018093BB0084E88093BC000E945315ED
:1054C0008C018091BC0087FD0EC0CF3F8FEFD807C5
:1054D000C1F30E945315801B910B8C179D0788F315
:1054E0008EEF9FEF0CC02091B900287F81E090E003
:1054F000283211F480E090E0919581959109DF9137
:10550000CF911F910F9108950F931F93CF93DF9326
:10551000EC0184E88093BC000E9453158C018091BB
:10552000BC0087FD0EC0CF3F8FEFD807C1F30E94AC
:105530005315801B910B8C179D0788F38EEF9FEFFF
:1055400003C08091BB0090E0DF91CF911F910F913C
:105550000895A0E0B0E0EFEAFAE20C94EC2A6B01C7
:105560008A017901B9010E94DF29E6010C0D1D1D98
:10557000C017D10741F424E92093BC00CDB7DEB7B2
:10558000E8E00C94082B97FDF6CFB70189910E94B3
:10559000542AEECF84E98093BC000895AA1BBB1B5C
:1055A00051E107C0AA1FBB1FA617B70710F0A61B23
:1055B000B70B881F991F5A95A9F780959095BC0144
:1055C000CD0108952F923F924F925F926F927F92FA
:1055D0008F929F92AF92BF92CF92DF92EF92FF9203
:1055E0000F931F93CF93DF93CDB7DEB7CA1BDB0BAF
:1055F0000FB6F894DEBF0FBECDBF09942A88398854
:1056000048885F846E847D848C849B84AA84B9845A
:10561000C884DF80EE80FD800C811B81AA81B98166
:10562000CE0FD11D0FB6F894DEBF0FBECDBFED017A
:1056300008958F929F92AF92BF92CF92DF92EF9296
:10564000FF92CF93DF93EC01688179818A819B81FE
:10565000611571058105910521F464E279ED8BE511
:1056600097E02DE133EF41E050E00E94D62B490155
:105670005A019B01AC01A7EAB1E40E94F52B6B0132
:105680007C01ACEEB4EFA50194010E94032CDC0177
:10569000CB018C0D9D1DAE1DBF1DB7FF03C0019733
:1056A000A109B04888839983AA83BB839F77DF9140
:1056B000CF91FF90EF90DF90CF90BF90AF909F90F1
:1056C0008F9008950E94192B089580E091E00E9428
:1056D000192B0895A0E0B0E08093000190930101A0
:1056E000A0930201B09303010895FB01DC0102C005
:1056F00005900D9241505040D8F70895DC01CB0140
:10570000FC01F999FECF06C0F2BDE1BDF89A3196D1
:1057100000B40D9241505040B8F70895F999FECF6A
:1057200092BD81BDF89A992780B50895A6E1B0E0B1
:1057300044E050E00C94802BA8E1B0E042E050E05F
:105740000C94802BDC01A40FB51F4150504048F051
:10575000CB01840F951F2E910E94B32B41505040D6
:10576000D0F70895262FF999FECF92BD81BDF89A02
:10577000019700B4021639F01FBA20BD0FB6F89495
:10578000FA9AF99A0FBE08950396272F0E94B32B19
:105790000E94B22B252F0E94B32B242F0C94B32BE5
:1057A0000196272F0E94B32B0C94B22B052E97FB4A
:1057B0001EF400940E94ED2B57FD07D00E94082C88
:1057C00007FC03D04EF40C94ED2B5095409530958A
:1057D00021953F4F4F4F5F4F08959095809570955D
:1057E00061957F4F8F4F9F4F08950E942A2CA59F50
:1057F000900DB49F900DA49F800D911D11240895CC
:10580000B7FF0C94F52B0E94F52B821B930B089588
:10581000A1E21A2EAA1BBB1BFD010DC0AA1FBB1FB4
:10582000EE1FFF1FA217B307E407F50720F0A21B26
:10583000B30BE40BF50B661F771F881F991F1A9493
:1058400069F760957095809590959B01AC01BD01BD
:10585000CF010895A29FB001B39FC001A39F700D17
:10586000811D1124911DB29F700D811D1124911D68
:1058700008950E944D2C0C942E2D0E94272D58F037
:105880000E94202D40F029F45F3F29F00C94172D41
:1058900051110C94622D0C941D2D0E943F2D68F324
:1058A0009923B1F3552391F3951B550BBB27AA27D9
:1058B00062177307840738F09F5F5F4F220F331F13
:1058C000441FAA1FA9F335D00E2E3AF0E0E832D0DB
:1058D00091505040E695001CCAF72BD0FE2F29D0DE
:1058E000660F771F881FBB1F261737074807AB07B0
:1058F000B0E809F0BB0B802DBF01FF2793585F4F25
:105900003AF09E3F510578F00C94172D0C94622DBF
:105910005F3FE4F3983ED4F3869577956795B79506
:10592000F7959F5FC9F7880F911D9695879597F911
:105930000895E1E0660F771F881FBB1F621773078A
:105940008407BA0720F0621B730B840BBA0BEE1F9F
:1059500088F7E09508950E94472D88F09F5798F0AA
:10596000B92F9927B751B0F0E1F0660F771F881F64
:10597000991F1AF0BA95C9F714C0B13091F00E947E
:10598000612DB1E008950C94612D672F782F882741
:10599000B85F39F0B93FCCF3869577956795B395A5
:1059A000D9F73EF490958095709561957F4F8F4F14
:1059B0009F4F0895E89409C097FB3EF49095809519
:1059C000709561957F4F8F4F9F4F9923A9F0F92FC5
:1059D00096E9BB279395F695879577956795B79543
:1059E000F111F8CFFAF4BB0F11F460FF1BC06F5F29
:1059F0007F4F8F4F9F4F16C0882311F096E911C03B
:105A0000772321F09EE8872F762F05C0662371F05B
:105A100096E8862F70E060E02AF09A95660F771F6F
:105A2000881FDAF7880F9695879597F9089597F963
:105A30009F6780E870E060E008959FEF80EC089534
:105A400000240A941616170618060906089500245D
:105A50000A9412161306140605060895092E0394D7
:105A6000000C11F4882352F0BB0F40F4BF2B11F44B
:105A700060FF04C06F5F7F4F8F4F9F4F089557FDAA
:105A80009058440F551F59F05F3F71F04795880FAC
:105A900097FB991F61F09F3F79F087950895121643
:105AA00013061406551FF2CF4695F1DF08C01616EF
:105AB00017061806991FF1CF8695710561050894A0
:105AC0000895E894BB2766277727CB0197F90895B7
:105AD0000E947B2D0C942E2D0E94202D38F00E94C8
